{
	"AvailabilityContract.sol": {
		"AvailableContract": {
			"abi": [
				{
					"inputs": [
						{
							"internalType": "address",
							"name": "_healthcare",
							"type": "address"
						},
						{
							"internalType": "address",
							"name": "_tokenAddr",
							"type": "address"
						}
					],
					"stateMutability": "nonpayable",
					"type": "constructor"
				},
				{
					"inputs": [
						{
							"internalType": "uint256",
							"name": "requestId",
							"type": "uint256"
						}
					],
					"name": "approveRequest",
					"outputs": [],
					"stateMutability": "nonpayable",
					"type": "function"
				},
				{
					"inputs": [],
					"name": "healthcare",
					"outputs": [
						{
							"internalType": "address",
							"name": "",
							"type": "address"
						}
					],
					"stateMutability": "view",
					"type": "function"
				},
				{
					"inputs": [],
					"name": "tokenContract",
					"outputs": [
						{
							"internalType": "contract ITokenCreate",
							"name": "",
							"type": "address"
						}
					],
					"stateMutability": "view",
					"type": "function"
				}
			],
			"devdoc": {
				"kind": "dev",
				"methods": {
					"approveRequest(uint256)": {
						"details": "This function iterates through all organs, finds one that is not assigned, has been consented to, evaluated, stored, but still available, updates the corresponding OrganId struct with the new donor information and emits an event indicating approval of a request. It also increments or decrements counters as needed.",
						"params": {
							"requestId": "The unique identifier of the request being approved."
						}
					}
				},
				"version": 1
			},
			"evm": {
				"assembly": "    /* \"AvailabilityContract.sol\":759:1944  contract AvailableContract {... */\n  mstore(0x40, 0x80)\n    /* \"AvailabilityContract.sol\":867:1015  constructor(address _healthcare, address _tokenAddr) {... */\n  callvalue\n  dup1\n  iszero\n  tag_1\n  jumpi\n  revert(0x00, 0x00)\ntag_1:\n  pop\n  mload(0x40)\n  sub(codesize, bytecodeSize)\n  dup1\n  bytecodeSize\n  dup4\n  codecopy\n  dup2\n  dup2\n  add\n  0x40\n  mstore\n  dup2\n  add\n  swap1\n  tag_2\n  swap2\n  swap1\n  tag_3\n  jump\t// in\ntag_2:\n    /* \"AvailabilityContract.sol\":944:955  _healthcare */\n  dup2\n    /* \"AvailabilityContract.sol\":931:941  healthcare */\n  0x00\n  0x00\n    /* \"AvailabilityContract.sol\":931:955  healthcare = _healthcare */\n  0x0100\n  exp\n  dup2\n  sload\n  dup2\n  0xffffffffffffffffffffffffffffffffffffffff\n  mul\n  not\n  and\n  swap1\n  dup4\n  0xffffffffffffffffffffffffffffffffffffffff\n  and\n  mul\n  or\n  swap1\n  sstore\n  pop\n    /* \"AvailabilityContract.sol\":996:1006  _tokenAddr */\n  dup1\n    /* \"AvailabilityContract.sol\":966:979  tokenContract */\n  0x01\n  0x00\n    /* \"AvailabilityContract.sol\":966:1007  tokenContract = ITokenCreate (_tokenAddr) */\n  0x0100\n  exp\n  dup2\n  sload\n  dup2\n  0xffffffffffffffffffffffffffffffffffffffff\n  mul\n  not\n  and\n  swap1\n  dup4\n  0xffffffffffffffffffffffffffffffffffffffff\n  and\n  mul\n  or\n  swap1\n  sstore\n  pop\n    /* \"AvailabilityContract.sol\":867:1015  constructor(address _healthcare, address _tokenAddr) {... */\n  pop\n  pop\n    /* \"AvailabilityContract.sol\":759:1944  contract AvailableContract {... */\n  jump(tag_6)\n    /* \"#utility.yul\":88:205   */\ntag_8:\n    /* \"#utility.yul\":197:198   */\n  0x00\n    /* \"#utility.yul\":194:195   */\n  0x00\n    /* \"#utility.yul\":187:199   */\n  revert\n    /* \"#utility.yul\":334:460   */\ntag_10:\n    /* \"#utility.yul\":371:378   */\n  0x00\n    /* \"#utility.yul\":411:453   */\n  0xffffffffffffffffffffffffffffffffffffffff\n    /* \"#utility.yul\":404:409   */\n  dup3\n    /* \"#utility.yul\":400:454   */\n  and\n    /* \"#utility.yul\":389:454   */\n  swap1\n  pop\n    /* \"#utility.yul\":334:460   */\n  swap2\n  swap1\n  pop\n  jump\t// out\n    /* \"#utility.yul\":466:562   */\ntag_11:\n    /* \"#utility.yul\":503:510   */\n  0x00\n    /* \"#utility.yul\":532:556   */\n  tag_20\n    /* \"#utility.yul\":550:555   */\n  dup3\n    /* \"#utility.yul\":532:556   */\n  tag_10\n  jump\t// in\ntag_20:\n    /* \"#utility.yul\":521:556   */\n  swap1\n  pop\n    /* \"#utility.yul\":466:562   */\n  swap2\n  swap1\n  pop\n  jump\t// out\n    /* \"#utility.yul\":568:690   */\ntag_12:\n    /* \"#utility.yul\":641:665   */\n  tag_22\n    /* \"#utility.yul\":659:664   */\n  dup2\n    /* \"#utility.yul\":641:665   */\n  tag_11\n  jump\t// in\ntag_22:\n    /* \"#utility.yul\":634:639   */\n  dup2\n    /* \"#utility.yul\":631:666   */\n  eq\n    /* \"#utility.yul\":621:684   */\n  tag_23\n  jumpi\n    /* \"#utility.yul\":680:681   */\n  0x00\n    /* \"#utility.yul\":677:678   */\n  0x00\n    /* \"#utility.yul\":670:682   */\n  revert\n    /* \"#utility.yul\":621:684   */\ntag_23:\n    /* \"#utility.yul\":568:690   */\n  pop\n  jump\t// out\n    /* \"#utility.yul\":696:839   */\ntag_13:\n    /* \"#utility.yul\":753:758   */\n  0x00\n    /* \"#utility.yul\":784:790   */\n  dup2\n    /* \"#utility.yul\":778:791   */\n  mload\n    /* \"#utility.yul\":769:791   */\n  swap1\n  pop\n    /* \"#utility.yul\":800:833   */\n  tag_25\n    /* \"#utility.yul\":827:832   */\n  dup2\n    /* \"#utility.yul\":800:833   */\n  tag_12\n  jump\t// in\ntag_25:\n    /* \"#utility.yul\":696:839   */\n  swap3\n  swap2\n  pop\n  pop\n  jump\t// out\n    /* \"#utility.yul\":845:1352   */\ntag_3:\n    /* \"#utility.yul\":924:930   */\n  0x00\n    /* \"#utility.yul\":932:938   */\n  0x00\n    /* \"#utility.yul\":981:983   */\n  0x40\n    /* \"#utility.yul\":969:978   */\n  dup4\n    /* \"#utility.yul\":960:967   */\n  dup6\n    /* \"#utility.yul\":956:979   */\n  sub\n    /* \"#utility.yul\":952:984   */\n  slt\n    /* \"#utility.yul\":949:1068   */\n  iszero\n  tag_27\n  jumpi\n    /* \"#utility.yul\":987:1066   */\n  tag_28\n  tag_8\n  jump\t// in\ntag_28:\n    /* \"#utility.yul\":949:1068   */\ntag_27:\n    /* \"#utility.yul\":1107:1108   */\n  0x00\n    /* \"#utility.yul\":1132:1196   */\n  tag_29\n    /* \"#utility.yul\":1188:1195   */\n  dup6\n    /* \"#utility.yul\":1179:1185   */\n  dup3\n    /* \"#utility.yul\":1168:1177   */\n  dup7\n    /* \"#utility.yul\":1164:1186   */\n  add\n    /* \"#utility.yul\":1132:1196   */\n  tag_13\n  jump\t// in\ntag_29:\n    /* \"#utility.yul\":1122:1196   */\n  swap3\n  pop\n    /* \"#utility.yul\":1078:1206   */\n  pop\n    /* \"#utility.yul\":1245:1247   */\n  0x20\n    /* \"#utility.yul\":1271:1335   */\n  tag_30\n    /* \"#utility.yul\":1327:1334   */\n  dup6\n    /* \"#utility.yul\":1318:1324   */\n  dup3\n    /* \"#utility.yul\":1307:1316   */\n  dup7\n    /* \"#utility.yul\":1303:1325   */\n  add\n    /* \"#utility.yul\":1271:1335   */\n  tag_13\n  jump\t// in\ntag_30:\n    /* \"#utility.yul\":1261:1335   */\n  swap2\n  pop\n    /* \"#utility.yul\":1216:1345   */\n  pop\n    /* \"#utility.yul\":845:1352   */\n  swap3\n  pop\n  swap3\n  swap1\n  pop\n  jump\t// out\n    /* \"AvailabilityContract.sol\":759:1944  contract AvailableContract {... */\ntag_6:\n  dataSize(sub_0)\n  dup1\n  dataOffset(sub_0)\n  0x00\n  codecopy\n  0x00\n  return\nstop\n\nsub_0: assembly {\n        /* \"AvailabilityContract.sol\":759:1944  contract AvailableContract {... */\n      mstore(0x40, 0x80)\n      callvalue\n      dup1\n      iszero\n      tag_1\n      jumpi\n      revert(0x00, 0x00)\n    tag_1:\n      pop\n      jumpi(tag_2, lt(calldatasize, 0x04))\n      shr(0xe0, calldataload(0x00))\n      dup1\n      0x55a373d6\n      eq\n      tag_3\n      jumpi\n      dup1\n      0x6f76d1dc\n      eq\n      tag_4\n      jumpi\n      dup1\n      0xd7d1bbdb\n      eq\n      tag_5\n      jumpi\n    tag_2:\n      revert(0x00, 0x00)\n        /* \"AvailabilityContract.sol\":825:858  ITokenCreate public tokenContract */\n    tag_3:\n      tag_6\n      tag_7\n      jump\t// in\n    tag_6:\n      mload(0x40)\n      tag_8\n      swap2\n      swap1\n      tag_9\n      jump\t// in\n    tag_8:\n      mload(0x40)\n      dup1\n      swap2\n      sub\n      swap1\n      return\n        /* \"AvailabilityContract.sol\":793:818  address public healthcare */\n    tag_4:\n      tag_10\n      tag_11\n      jump\t// in\n    tag_10:\n      mload(0x40)\n      tag_12\n      swap2\n      swap1\n      tag_13\n      jump\t// in\n    tag_12:\n      mload(0x40)\n      dup1\n      swap2\n      sub\n      swap1\n      return\n        /* \"AvailabilityContract.sol\":1621:1941  function approveRequest(uint256 requestId) public onlyHealthcare {... */\n    tag_5:\n      tag_14\n      0x04\n      dup1\n      calldatasize\n      sub\n      dup2\n      add\n      swap1\n      tag_15\n      swap2\n      swap1\n      tag_16\n      jump\t// in\n    tag_15:\n      tag_17\n      jump\t// in\n    tag_14:\n      stop\n        /* \"AvailabilityContract.sol\":825:858  ITokenCreate public tokenContract */\n    tag_7:\n      0x01\n      0x00\n      swap1\n      sload\n      swap1\n      0x0100\n      exp\n      swap1\n      div\n      0xffffffffffffffffffffffffffffffffffffffff\n      and\n      dup2\n      jump\t// out\n        /* \"AvailabilityContract.sol\":793:818  address public healthcare */\n    tag_11:\n      0x00\n      0x00\n      swap1\n      sload\n      swap1\n      0x0100\n      exp\n      swap1\n      div\n      0xffffffffffffffffffffffffffffffffffffffff\n      and\n      dup2\n      jump\t// out\n        /* \"AvailabilityContract.sol\":1621:1941  function approveRequest(uint256 requestId) public onlyHealthcare {... */\n    tag_17:\n        /* \"AvailabilityContract.sol\":1082:1092  healthcare */\n      0x00\n      0x00\n      swap1\n      sload\n      swap1\n      0x0100\n      exp\n      swap1\n      div\n      0xffffffffffffffffffffffffffffffffffffffff\n      and\n        /* \"AvailabilityContract.sol\":1068:1092  msg.sender == healthcare */\n      0xffffffffffffffffffffffffffffffffffffffff\n      and\n        /* \"AvailabilityContract.sol\":1068:1078  msg.sender */\n      caller\n        /* \"AvailabilityContract.sol\":1068:1092  msg.sender == healthcare */\n      0xffffffffffffffffffffffffffffffffffffffff\n      and\n      eq\n        /* \"AvailabilityContract.sol\":1060:1112  require(msg.sender == healthcare, \"Only healthcare\") */\n      tag_19\n      jumpi\n      mload(0x40)\n      0x08c379a000000000000000000000000000000000000000000000000000000000\n      dup2\n      mstore\n      0x04\n      add\n      tag_20\n      swap1\n      tag_21\n      jump\t// in\n    tag_20:\n      mload(0x40)\n      dup1\n      swap2\n      sub\n      swap1\n      revert\n    tag_19:\n        /* \"AvailabilityContract.sol\":1697:1728  ITokenCreate.RequestId memory r */\n      0x00\n        /* \"AvailabilityContract.sol\":1731:1744  tokenContract */\n      0x01\n      0x00\n      swap1\n      sload\n      swap1\n      0x0100\n      exp\n      swap1\n      div\n      0xffffffffffffffffffffffffffffffffffffffff\n      and\n        /* \"AvailabilityContract.sol\":1731:1755  tokenContract.getRequest */\n      0xffffffffffffffffffffffffffffffffffffffff\n      and\n      0xc58343ef\n        /* \"AvailabilityContract.sol\":1756:1765  requestId */\n      dup4\n        /* \"AvailabilityContract.sol\":1731:1766  tokenContract.getRequest(requestId) */\n      mload(0x40)\n      dup3\n      0xffffffff\n      and\n      0xe0\n      shl\n      dup2\n      mstore\n      0x04\n      add\n      tag_23\n      swap2\n      swap1\n      tag_24\n      jump\t// in\n    tag_23:\n      0x00\n      mload(0x40)\n      dup1\n      dup4\n      sub\n      dup2\n      dup7\n      gas\n      staticcall\n      iszero\n      dup1\n      iszero\n      tag_26\n      jumpi\n      returndatacopy(0x00, 0x00, returndatasize)\n      revert(0x00, returndatasize)\n    tag_26:\n      pop\n      pop\n      pop\n      pop\n      mload(0x40)\n      returndatasize\n      0x00\n      dup3\n      returndatacopy\n      returndatasize\n      not(0x1f)\n      0x1f\n      dup3\n      add\n      and\n      dup3\n      add\n      dup1\n      0x40\n      mstore\n      pop\n      dup2\n      add\n      swap1\n      tag_27\n      swap2\n      swap1\n      tag_28\n      jump\t// in\n    tag_27:\n        /* \"AvailabilityContract.sol\":1697:1766  ITokenCreate.RequestId memory r = tokenContract.getRequest(requestId) */\n      swap1\n      pop\n        /* \"AvailabilityContract.sol\":1786:1787  r */\n      dup1\n        /* \"AvailabilityContract.sol\":1786:1798  r.isApproved */\n      0x20\n      add\n      mload\n        /* \"AvailabilityContract.sol\":1785:1798  !r.isApproved */\n      iszero\n        /* \"AvailabilityContract.sol\":1777:1850  require(!r.isApproved, \"Request has been approved and assigned an organ\") */\n      tag_29\n      jumpi\n      mload(0x40)\n      0x08c379a000000000000000000000000000000000000000000000000000000000\n      dup2\n      mstore\n      0x04\n      add\n      tag_30\n      swap1\n      tag_31\n      jump\t// in\n    tag_30:\n      mload(0x40)\n      dup1\n      swap2\n      sub\n      swap1\n      revert\n    tag_29:\n        /* \"AvailabilityContract.sol\":1876:1880  true */\n      0x01\n        /* \"AvailabilityContract.sol\":1861:1862  r */\n      dup2\n        /* \"AvailabilityContract.sol\":1861:1873  r.isApproved */\n      0x20\n      add\n        /* \"AvailabilityContract.sol\":1861:1880  r.isApproved = true */\n      swap1\n      iszero\n      iszero\n      swap1\n      dup2\n      iszero\n      iszero\n      dup2\n      mstore\n      pop\n      pop\n        /* \"AvailabilityContract.sol\":1891:1904  tokenContract */\n      0x01\n      0x00\n      swap1\n      sload\n      swap1\n      0x0100\n      exp\n      swap1\n      div\n      0xffffffffffffffffffffffffffffffffffffffff\n      and\n        /* \"AvailabilityContract.sol\":1891:1919  tokenContract.approveRequest */\n      0xffffffffffffffffffffffffffffffffffffffff\n      and\n      0x5be2218b\n        /* \"AvailabilityContract.sol\":1920:1929  requestId */\n      dup4\n        /* \"AvailabilityContract.sol\":1931:1932  r */\n      dup4\n        /* \"AvailabilityContract.sol\":1891:1933  tokenContract.approveRequest(requestId, r) */\n      mload(0x40)\n      dup4\n      0xffffffff\n      and\n      0xe0\n      shl\n      dup2\n      mstore\n      0x04\n      add\n      tag_32\n      swap3\n      swap2\n      swap1\n      tag_33\n      jump\t// in\n    tag_32:\n      0x00\n      mload(0x40)\n      dup1\n      dup4\n      sub\n      dup2\n      0x00\n      dup8\n      dup1\n      extcodesize\n      iszero\n      dup1\n      iszero\n      tag_34\n      jumpi\n      revert(0x00, 0x00)\n    tag_34:\n      pop\n      gas\n      call\n      iszero\n      dup1\n      iszero\n      tag_36\n      jumpi\n      returndatacopy(0x00, 0x00, returndatasize)\n      revert(0x00, returndatasize)\n    tag_36:\n      pop\n      pop\n      pop\n      pop\n        /* \"AvailabilityContract.sol\":1686:1941  {... */\n      pop\n        /* \"AvailabilityContract.sol\":1621:1941  function approveRequest(uint256 requestId) public onlyHealthcare {... */\n      pop\n      jump\t// out\n        /* \"#utility.yul\":7:133   */\n    tag_37:\n        /* \"#utility.yul\":44:51   */\n      0x00\n        /* \"#utility.yul\":84:126   */\n      0xffffffffffffffffffffffffffffffffffffffff\n        /* \"#utility.yul\":77:82   */\n      dup3\n        /* \"#utility.yul\":73:127   */\n      and\n        /* \"#utility.yul\":62:127   */\n      swap1\n      pop\n        /* \"#utility.yul\":7:133   */\n      swap2\n      swap1\n      pop\n      jump\t// out\n        /* \"#utility.yul\":139:199   */\n    tag_38:\n        /* \"#utility.yul\":167:170   */\n      0x00\n        /* \"#utility.yul\":188:193   */\n      dup2\n        /* \"#utility.yul\":181:193   */\n      swap1\n      pop\n        /* \"#utility.yul\":139:199   */\n      swap2\n      swap1\n      pop\n      jump\t// out\n        /* \"#utility.yul\":205:347   */\n    tag_39:\n        /* \"#utility.yul\":255:264   */\n      0x00\n        /* \"#utility.yul\":288:341   */\n      tag_82\n        /* \"#utility.yul\":306:340   */\n      tag_83\n        /* \"#utility.yul\":315:339   */\n      tag_84\n        /* \"#utility.yul\":333:338   */\n      dup5\n        /* \"#utility.yul\":315:339   */\n      tag_37\n      jump\t// in\n    tag_84:\n        /* \"#utility.yul\":306:340   */\n      tag_38\n      jump\t// in\n    tag_83:\n        /* \"#utility.yul\":288:341   */\n      tag_37\n      jump\t// in\n    tag_82:\n        /* \"#utility.yul\":275:341   */\n      swap1\n      pop\n        /* \"#utility.yul\":205:347   */\n      swap2\n      swap1\n      pop\n      jump\t// out\n        /* \"#utility.yul\":353:479   */\n    tag_40:\n        /* \"#utility.yul\":403:412   */\n      0x00\n        /* \"#utility.yul\":436:473   */\n      tag_86\n        /* \"#utility.yul\":467:472   */\n      dup3\n        /* \"#utility.yul\":436:473   */\n      tag_39\n      jump\t// in\n    tag_86:\n        /* \"#utility.yul\":423:473   */\n      swap1\n      pop\n        /* \"#utility.yul\":353:479   */\n      swap2\n      swap1\n      pop\n      jump\t// out\n        /* \"#utility.yul\":485:630   */\n    tag_41:\n        /* \"#utility.yul\":554:563   */\n      0x00\n        /* \"#utility.yul\":587:624   */\n      tag_88\n        /* \"#utility.yul\":618:623   */\n      dup3\n        /* \"#utility.yul\":587:624   */\n      tag_40\n      jump\t// in\n    tag_88:\n        /* \"#utility.yul\":574:624   */\n      swap1\n      pop\n        /* \"#utility.yul\":485:630   */\n      swap2\n      swap1\n      pop\n      jump\t// out\n        /* \"#utility.yul\":636:805   */\n    tag_42:\n        /* \"#utility.yul\":742:798   */\n      tag_90\n        /* \"#utility.yul\":792:797   */\n      dup2\n        /* \"#utility.yul\":742:798   */\n      tag_41\n      jump\t// in\n    tag_90:\n        /* \"#utility.yul\":737:740   */\n      dup3\n        /* \"#utility.yul\":730:799   */\n      mstore\n        /* \"#utility.yul\":636:805   */\n      pop\n      pop\n      jump\t// out\n        /* \"#utility.yul\":811:1071   */\n    tag_9:\n        /* \"#utility.yul\":923:927   */\n      0x00\n        /* \"#utility.yul\":961:963   */\n      0x20\n        /* \"#utility.yul\":950:959   */\n      dup3\n        /* \"#utility.yul\":946:964   */\n      add\n        /* \"#utility.yul\":938:964   */\n      swap1\n      pop\n        /* \"#utility.yul\":974:1064   */\n      tag_92\n        /* \"#utility.yul\":1061:1062   */\n      0x00\n        /* \"#utility.yul\":1050:1059   */\n      dup4\n        /* \"#utility.yul\":1046:1063   */\n      add\n        /* \"#utility.yul\":1037:1043   */\n      dup5\n        /* \"#utility.yul\":974:1064   */\n      tag_42\n      jump\t// in\n    tag_92:\n        /* \"#utility.yul\":811:1071   */\n      swap3\n      swap2\n      pop\n      pop\n      jump\t// out\n        /* \"#utility.yul\":1077:1173   */\n    tag_43:\n        /* \"#utility.yul\":1114:1121   */\n      0x00\n        /* \"#utility.yul\":1143:1167   */\n      tag_94\n        /* \"#utility.yul\":1161:1166   */\n      dup3\n        /* \"#utility.yul\":1143:1167   */\n      tag_37\n      jump\t// in\n    tag_94:\n        /* \"#utility.yul\":1132:1167   */\n      swap1\n      pop\n        /* \"#utility.yul\":1077:1173   */\n      swap2\n      swap1\n      pop\n      jump\t// out\n        /* \"#utility.yul\":1179:1297   */\n    tag_44:\n        /* \"#utility.yul\":1266:1290   */\n      tag_96\n        /* \"#utility.yul\":1284:1289   */\n      dup2\n        /* \"#utility.yul\":1266:1290   */\n      tag_43\n      jump\t// in\n    tag_96:\n        /* \"#utility.yul\":1261:1264   */\n      dup3\n        /* \"#utility.yul\":1254:1291   */\n      mstore\n        /* \"#utility.yul\":1179:1297   */\n      pop\n      pop\n      jump\t// out\n        /* \"#utility.yul\":1303:1525   */\n    tag_13:\n        /* \"#utility.yul\":1396:1400   */\n      0x00\n        /* \"#utility.yul\":1434:1436   */\n      0x20\n        /* \"#utility.yul\":1423:1432   */\n      dup3\n        /* \"#utility.yul\":1419:1437   */\n      add\n        /* \"#utility.yul\":1411:1437   */\n      swap1\n      pop\n        /* \"#utility.yul\":1447:1518   */\n      tag_98\n        /* \"#utility.yul\":1515:1516   */\n      0x00\n        /* \"#utility.yul\":1504:1513   */\n      dup4\n        /* \"#utility.yul\":1500:1517   */\n      add\n        /* \"#utility.yul\":1491:1497   */\n      dup5\n        /* \"#utility.yul\":1447:1518   */\n      tag_44\n      jump\t// in\n    tag_98:\n        /* \"#utility.yul\":1303:1525   */\n      swap3\n      swap2\n      pop\n      pop\n      jump\t// out\n        /* \"#utility.yul\":1531:1606   */\n    tag_45:\n        /* \"#utility.yul\":1564:1570   */\n      0x00\n        /* \"#utility.yul\":1597:1599   */\n      0x40\n        /* \"#utility.yul\":1591:1600   */\n      mload\n        /* \"#utility.yul\":1581:1600   */\n      swap1\n      pop\n        /* \"#utility.yul\":1531:1606   */\n      swap1\n      jump\t// out\n        /* \"#utility.yul\":1612:1729   */\n    tag_46:\n        /* \"#utility.yul\":1721:1722   */\n      0x00\n        /* \"#utility.yul\":1718:1719   */\n      0x00\n        /* \"#utility.yul\":1711:1723   */\n      revert\n        /* \"#utility.yul\":1735:1852   */\n    tag_47:\n        /* \"#utility.yul\":1844:1845   */\n      0x00\n        /* \"#utility.yul\":1841:1842   */\n      0x00\n        /* \"#utility.yul\":1834:1846   */\n      revert\n        /* \"#utility.yul\":1858:1935   */\n    tag_48:\n        /* \"#utility.yul\":1895:1902   */\n      0x00\n        /* \"#utility.yul\":1924:1929   */\n      dup2\n        /* \"#utility.yul\":1913:1929   */\n      swap1\n      pop\n        /* \"#utility.yul\":1858:1935   */\n      swap2\n      swap1\n      pop\n      jump\t// out\n        /* \"#utility.yul\":1941:2063   */\n    tag_49:\n        /* \"#utility.yul\":2014:2038   */\n      tag_104\n        /* \"#utility.yul\":2032:2037   */\n      dup2\n        /* \"#utility.yul\":2014:2038   */\n      tag_48\n      jump\t// in\n    tag_104:\n        /* \"#utility.yul\":2007:2012   */\n      dup2\n        /* \"#utility.yul\":2004:2039   */\n      eq\n        /* \"#utility.yul\":1994:2057   */\n      tag_105\n      jumpi\n        /* \"#utility.yul\":2053:2054   */\n      0x00\n        /* \"#utility.yul\":2050:2051   */\n      0x00\n        /* \"#utility.yul\":2043:2055   */\n      revert\n        /* \"#utility.yul\":1994:2057   */\n    tag_105:\n        /* \"#utility.yul\":1941:2063   */\n      pop\n      jump\t// out\n        /* \"#utility.yul\":2069:2208   */\n    tag_50:\n        /* \"#utility.yul\":2115:2120   */\n      0x00\n        /* \"#utility.yul\":2153:2159   */\n      dup2\n        /* \"#utility.yul\":2140:2160   */\n      calldataload\n        /* \"#utility.yul\":2131:2160   */\n      swap1\n      pop\n        /* \"#utility.yul\":2169:2202   */\n      tag_107\n        /* \"#utility.yul\":2196:2201   */\n      dup2\n        /* \"#utility.yul\":2169:2202   */\n      tag_49\n      jump\t// in\n    tag_107:\n        /* \"#utility.yul\":2069:2208   */\n      swap3\n      swap2\n      pop\n      pop\n      jump\t// out\n        /* \"#utility.yul\":2214:2543   */\n    tag_16:\n        /* \"#utility.yul\":2273:2279   */\n      0x00\n        /* \"#utility.yul\":2322:2324   */\n      0x20\n        /* \"#utility.yul\":2310:2319   */\n      dup3\n        /* \"#utility.yul\":2301:2308   */\n      dup5\n        /* \"#utility.yul\":2297:2320   */\n      sub\n        /* \"#utility.yul\":2293:2325   */\n      slt\n        /* \"#utility.yul\":2290:2409   */\n      iszero\n      tag_109\n      jumpi\n        /* \"#utility.yul\":2328:2407   */\n      tag_110\n      tag_46\n      jump\t// in\n    tag_110:\n        /* \"#utility.yul\":2290:2409   */\n    tag_109:\n        /* \"#utility.yul\":2448:2449   */\n      0x00\n        /* \"#utility.yul\":2473:2526   */\n      tag_111\n        /* \"#utility.yul\":2518:2525   */\n      dup5\n        /* \"#utility.yul\":2509:2515   */\n      dup3\n        /* \"#utility.yul\":2498:2507   */\n      dup6\n        /* \"#utility.yul\":2494:2516   */\n      add\n        /* \"#utility.yul\":2473:2526   */\n      tag_50\n      jump\t// in\n    tag_111:\n        /* \"#utility.yul\":2463:2526   */\n      swap2\n      pop\n        /* \"#utility.yul\":2419:2536   */\n      pop\n        /* \"#utility.yul\":2214:2543   */\n      swap3\n      swap2\n      pop\n      pop\n      jump\t// out\n        /* \"#utility.yul\":2549:2718   */\n    tag_51:\n        /* \"#utility.yul\":2633:2644   */\n      0x00\n        /* \"#utility.yul\":2667:2673   */\n      dup3\n        /* \"#utility.yul\":2662:2665   */\n      dup3\n        /* \"#utility.yul\":2655:2674   */\n      mstore\n        /* \"#utility.yul\":2707:2711   */\n      0x20\n        /* \"#utility.yul\":2702:2705   */\n      dup3\n        /* \"#utility.yul\":2698:2712   */\n      add\n        /* \"#utility.yul\":2683:2712   */\n      swap1\n      pop\n        /* \"#utility.yul\":2549:2718   */\n      swap3\n      swap2\n      pop\n      pop\n      jump\t// out\n        /* \"#utility.yul\":2724:2889   */\n    tag_52:\n        /* \"#utility.yul\":2864:2881   */\n      0x4f6e6c79206865616c7468636172650000000000000000000000000000000000\n        /* \"#utility.yul\":2860:2861   */\n      0x00\n        /* \"#utility.yul\":2852:2858   */\n      dup3\n        /* \"#utility.yul\":2848:2862   */\n      add\n        /* \"#utility.yul\":2841:2882   */\n      mstore\n        /* \"#utility.yul\":2724:2889   */\n      pop\n      jump\t// out\n        /* \"#utility.yul\":2895:3261   */\n    tag_53:\n        /* \"#utility.yul\":3037:3040   */\n      0x00\n        /* \"#utility.yul\":3058:3125   */\n      tag_115\n        /* \"#utility.yul\":3122:3124   */\n      0x0f\n        /* \"#utility.yul\":3117:3120   */\n      dup4\n        /* \"#utility.yul\":3058:3125   */\n      tag_51\n      jump\t// in\n    tag_115:\n        /* \"#utility.yul\":3051:3125   */\n      swap2\n      pop\n        /* \"#utility.yul\":3134:3227   */\n      tag_116\n        /* \"#utility.yul\":3223:3226   */\n      dup3\n        /* \"#utility.yul\":3134:3227   */\n      tag_52\n      jump\t// in\n    tag_116:\n        /* \"#utility.yul\":3252:3254   */\n      0x20\n        /* \"#utility.yul\":3247:3250   */\n      dup3\n        /* \"#utility.yul\":3243:3255   */\n      add\n        /* \"#utility.yul\":3236:3255   */\n      swap1\n      pop\n        /* \"#utility.yul\":2895:3261   */\n      swap2\n      swap1\n      pop\n      jump\t// out\n        /* \"#utility.yul\":3267:3686   */\n    tag_21:\n        /* \"#utility.yul\":3433:3437   */\n      0x00\n        /* \"#utility.yul\":3471:3473   */\n      0x20\n        /* \"#utility.yul\":3460:3469   */\n      dup3\n        /* \"#utility.yul\":3456:3474   */\n      add\n        /* \"#utility.yul\":3448:3474   */\n      swap1\n      pop\n        /* \"#utility.yul\":3520:3529   */\n      dup2\n        /* \"#utility.yul\":3514:3518   */\n      dup2\n        /* \"#utility.yul\":3510:3530   */\n      sub\n        /* \"#utility.yul\":3506:3507   */\n      0x00\n        /* \"#utility.yul\":3495:3504   */\n      dup4\n        /* \"#utility.yul\":3491:3508   */\n      add\n        /* \"#utility.yul\":3484:3531   */\n      mstore\n        /* \"#utility.yul\":3548:3679   */\n      tag_118\n        /* \"#utility.yul\":3674:3678   */\n      dup2\n        /* \"#utility.yul\":3548:3679   */\n      tag_53\n      jump\t// in\n    tag_118:\n        /* \"#utility.yul\":3540:3679   */\n      swap1\n      pop\n        /* \"#utility.yul\":3267:3686   */\n      swap2\n      swap1\n      pop\n      jump\t// out\n        /* \"#utility.yul\":3692:3810   */\n    tag_54:\n        /* \"#utility.yul\":3779:3803   */\n      tag_120\n        /* \"#utility.yul\":3797:3802   */\n      dup2\n        /* \"#utility.yul\":3779:3803   */\n      tag_48\n      jump\t// in\n    tag_120:\n        /* \"#utility.yul\":3774:3777   */\n      dup3\n        /* \"#utility.yul\":3767:3804   */\n      mstore\n        /* \"#utility.yul\":3692:3810   */\n      pop\n      pop\n      jump\t// out\n        /* \"#utility.yul\":3816:4038   */\n    tag_24:\n        /* \"#utility.yul\":3909:3913   */\n      0x00\n        /* \"#utility.yul\":3947:3949   */\n      0x20\n        /* \"#utility.yul\":3936:3945   */\n      dup3\n        /* \"#utility.yul\":3932:3950   */\n      add\n        /* \"#utility.yul\":3924:3950   */\n      swap1\n      pop\n        /* \"#utility.yul\":3960:4031   */\n      tag_122\n        /* \"#utility.yul\":4028:4029   */\n      0x00\n        /* \"#utility.yul\":4017:4026   */\n      dup4\n        /* \"#utility.yul\":4013:4030   */\n      add\n        /* \"#utility.yul\":4004:4010   */\n      dup5\n        /* \"#utility.yul\":3960:4031   */\n      tag_54\n      jump\t// in\n    tag_122:\n        /* \"#utility.yul\":3816:4038   */\n      swap3\n      swap2\n      pop\n      pop\n      jump\t// out\n        /* \"#utility.yul\":4044:4161   */\n    tag_55:\n        /* \"#utility.yul\":4153:4154   */\n      0x00\n        /* \"#utility.yul\":4150:4151   */\n      0x00\n        /* \"#utility.yul\":4143:4155   */\n      revert\n        /* \"#utility.yul\":4167:4269   */\n    tag_56:\n        /* \"#utility.yul\":4208:4214   */\n      0x00\n        /* \"#utility.yul\":4259:4261   */\n      0x1f\n        /* \"#utility.yul\":4255:4262   */\n      not\n        /* \"#utility.yul\":4250:4252   */\n      0x1f\n        /* \"#utility.yul\":4243:4248   */\n      dup4\n        /* \"#utility.yul\":4239:4253   */\n      add\n        /* \"#utility.yul\":4235:4263   */\n      and\n        /* \"#utility.yul\":4225:4263   */\n      swap1\n      pop\n        /* \"#utility.yul\":4167:4269   */\n      swap2\n      swap1\n      pop\n      jump\t// out\n        /* \"#utility.yul\":4275:4455   */\n    tag_57:\n        /* \"#utility.yul\":4323:4400   */\n      0x4e487b7100000000000000000000000000000000000000000000000000000000\n        /* \"#utility.yul\":4320:4321   */\n      0x00\n        /* \"#utility.yul\":4313:4401   */\n      mstore\n        /* \"#utility.yul\":4420:4424   */\n      0x41\n        /* \"#utility.yul\":4417:4418   */\n      0x04\n        /* \"#utility.yul\":4410:4425   */\n      mstore\n        /* \"#utility.yul\":4444:4448   */\n      0x24\n        /* \"#utility.yul\":4441:4442   */\n      0x00\n        /* \"#utility.yul\":4434:4449   */\n      revert\n        /* \"#utility.yul\":4461:4742   */\n    tag_58:\n        /* \"#utility.yul\":4544:4571   */\n      tag_127\n        /* \"#utility.yul\":4566:4570   */\n      dup3\n        /* \"#utility.yul\":4544:4571   */\n      tag_56\n      jump\t// in\n    tag_127:\n        /* \"#utility.yul\":4536:4542   */\n      dup2\n        /* \"#utility.yul\":4532:4572   */\n      add\n        /* \"#utility.yul\":4674:4680   */\n      dup2\n        /* \"#utility.yul\":4662:4672   */\n      dup2\n        /* \"#utility.yul\":4659:4681   */\n      lt\n        /* \"#utility.yul\":4638:4656   */\n      0xffffffffffffffff\n        /* \"#utility.yul\":4626:4636   */\n      dup3\n        /* \"#utility.yul\":4623:4657   */\n      gt\n        /* \"#utility.yul\":4620:4682   */\n      or\n        /* \"#utility.yul\":4617:4705   */\n      iszero\n      tag_128\n      jumpi\n        /* \"#utility.yul\":4685:4703   */\n      tag_129\n      tag_57\n      jump\t// in\n    tag_129:\n        /* \"#utility.yul\":4617:4705   */\n    tag_128:\n        /* \"#utility.yul\":4725:4735   */\n      dup1\n        /* \"#utility.yul\":4721:4723   */\n      0x40\n        /* \"#utility.yul\":4714:4736   */\n      mstore\n        /* \"#utility.yul\":4504:4742   */\n      pop\n        /* \"#utility.yul\":4461:4742   */\n      pop\n      pop\n      jump\t// out\n        /* \"#utility.yul\":4748:4877   */\n    tag_59:\n        /* \"#utility.yul\":4782:4788   */\n      0x00\n        /* \"#utility.yul\":4809:4829   */\n      tag_131\n      tag_45\n      jump\t// in\n    tag_131:\n        /* \"#utility.yul\":4799:4829   */\n      swap1\n      pop\n        /* \"#utility.yul\":4838:4871   */\n      tag_132\n        /* \"#utility.yul\":4866:4870   */\n      dup3\n        /* \"#utility.yul\":4858:4864   */\n      dup3\n        /* \"#utility.yul\":4838:4871   */\n      tag_58\n      jump\t// in\n    tag_132:\n        /* \"#utility.yul\":4748:4877   */\n      swap2\n      swap1\n      pop\n      jump\t// out\n        /* \"#utility.yul\":4883:5000   */\n    tag_60:\n        /* \"#utility.yul\":4992:4993   */\n      0x00\n        /* \"#utility.yul\":4989:4990   */\n      0x00\n        /* \"#utility.yul\":4982:4994   */\n      revert\n        /* \"#utility.yul\":5006:5123   */\n    tag_61:\n        /* \"#utility.yul\":5115:5116   */\n      0x00\n        /* \"#utility.yul\":5112:5113   */\n      0x00\n        /* \"#utility.yul\":5105:5117   */\n      revert\n        /* \"#utility.yul\":5129:5246   */\n    tag_62:\n        /* \"#utility.yul\":5238:5239   */\n      0x00\n        /* \"#utility.yul\":5235:5236   */\n      0x00\n        /* \"#utility.yul\":5228:5240   */\n      revert\n        /* \"#utility.yul\":5252:5560   */\n    tag_63:\n        /* \"#utility.yul\":5314:5318   */\n      0x00\n        /* \"#utility.yul\":5404:5422   */\n      0xffffffffffffffff\n        /* \"#utility.yul\":5396:5402   */\n      dup3\n        /* \"#utility.yul\":5393:5423   */\n      gt\n        /* \"#utility.yul\":5390:5446   */\n      iszero\n      tag_137\n      jumpi\n        /* \"#utility.yul\":5426:5444   */\n      tag_138\n      tag_57\n      jump\t// in\n    tag_138:\n        /* \"#utility.yul\":5390:5446   */\n    tag_137:\n        /* \"#utility.yul\":5464:5493   */\n      tag_139\n        /* \"#utility.yul\":5486:5492   */\n      dup3\n        /* \"#utility.yul\":5464:5493   */\n      tag_56\n      jump\t// in\n    tag_139:\n        /* \"#utility.yul\":5456:5493   */\n      swap1\n      pop\n        /* \"#utility.yul\":5548:5552   */\n      0x20\n        /* \"#utility.yul\":5542:5546   */\n      dup2\n        /* \"#utility.yul\":5538:5553   */\n      add\n        /* \"#utility.yul\":5530:5553   */\n      swap1\n      pop\n        /* \"#utility.yul\":5252:5560   */\n      swap2\n      swap1\n      pop\n      jump\t// out\n        /* \"#utility.yul\":5566:5705   */\n    tag_64:\n        /* \"#utility.yul\":5655:5661   */\n      dup3\n        /* \"#utility.yul\":5650:5653   */\n      dup2\n        /* \"#utility.yul\":5645:5648   */\n      dup4\n        /* \"#utility.yul\":5639:5662   */\n      mcopy\n        /* \"#utility.yul\":5696:5697   */\n      0x00\n        /* \"#utility.yul\":5687:5693   */\n      dup4\n        /* \"#utility.yul\":5682:5685   */\n      dup4\n        /* \"#utility.yul\":5678:5694   */\n      add\n        /* \"#utility.yul\":5671:5698   */\n      mstore\n        /* \"#utility.yul\":5566:5705   */\n      pop\n      pop\n      pop\n      jump\t// out\n        /* \"#utility.yul\":5711:6145   */\n    tag_65:\n        /* \"#utility.yul\":5800:5805   */\n      0x00\n        /* \"#utility.yul\":5825:5891   */\n      tag_142\n        /* \"#utility.yul\":5841:5890   */\n      tag_143\n        /* \"#utility.yul\":5883:5889   */\n      dup5\n        /* \"#utility.yul\":5841:5890   */\n      tag_63\n      jump\t// in\n    tag_143:\n        /* \"#utility.yul\":5825:5891   */\n      tag_59\n      jump\t// in\n    tag_142:\n        /* \"#utility.yul\":5816:5891   */\n      swap1\n      pop\n        /* \"#utility.yul\":5914:5920   */\n      dup3\n        /* \"#utility.yul\":5907:5912   */\n      dup2\n        /* \"#utility.yul\":5900:5921   */\n      mstore\n        /* \"#utility.yul\":5952:5956   */\n      0x20\n        /* \"#utility.yul\":5945:5950   */\n      dup2\n        /* \"#utility.yul\":5941:5957   */\n      add\n        /* \"#utility.yul\":5990:5993   */\n      dup5\n        /* \"#utility.yul\":5981:5987   */\n      dup5\n        /* \"#utility.yul\":5976:5979   */\n      dup5\n        /* \"#utility.yul\":5972:5988   */\n      add\n        /* \"#utility.yul\":5969:5994   */\n      gt\n        /* \"#utility.yul\":5966:6078   */\n      iszero\n      tag_144\n      jumpi\n        /* \"#utility.yul\":5997:6076   */\n      tag_145\n      tag_62\n      jump\t// in\n    tag_145:\n        /* \"#utility.yul\":5966:6078   */\n    tag_144:\n        /* \"#utility.yul\":6087:6139   */\n      tag_146\n        /* \"#utility.yul\":6132:6138   */\n      dup5\n        /* \"#utility.yul\":6127:6130   */\n      dup3\n        /* \"#utility.yul\":6122:6125   */\n      dup6\n        /* \"#utility.yul\":6087:6139   */\n      tag_64\n      jump\t// in\n    tag_146:\n        /* \"#utility.yul\":5806:6145   */\n      pop\n        /* \"#utility.yul\":5711:6145   */\n      swap4\n      swap3\n      pop\n      pop\n      pop\n      jump\t// out\n        /* \"#utility.yul\":6165:6520   */\n    tag_66:\n        /* \"#utility.yul\":6232:6237   */\n      0x00\n        /* \"#utility.yul\":6281:6284   */\n      dup3\n        /* \"#utility.yul\":6274:6278   */\n      0x1f\n        /* \"#utility.yul\":6266:6272   */\n      dup4\n        /* \"#utility.yul\":6262:6279   */\n      add\n        /* \"#utility.yul\":6258:6285   */\n      slt\n        /* \"#utility.yul\":6248:6370   */\n      tag_148\n      jumpi\n        /* \"#utility.yul\":6289:6368   */\n      tag_149\n      tag_61\n      jump\t// in\n    tag_149:\n        /* \"#utility.yul\":6248:6370   */\n    tag_148:\n        /* \"#utility.yul\":6399:6405   */\n      dup2\n        /* \"#utility.yul\":6393:6406   */\n      mload\n        /* \"#utility.yul\":6424:6514   */\n      tag_150\n        /* \"#utility.yul\":6510:6513   */\n      dup5\n        /* \"#utility.yul\":6502:6508   */\n      dup3\n        /* \"#utility.yul\":6495:6499   */\n      0x20\n        /* \"#utility.yul\":6487:6493   */\n      dup7\n        /* \"#utility.yul\":6483:6500   */\n      add\n        /* \"#utility.yul\":6424:6514   */\n      tag_65\n      jump\t// in\n    tag_150:\n        /* \"#utility.yul\":6415:6514   */\n      swap2\n      pop\n        /* \"#utility.yul\":6238:6520   */\n      pop\n        /* \"#utility.yul\":6165:6520   */\n      swap3\n      swap2\n      pop\n      pop\n      jump\t// out\n        /* \"#utility.yul\":6526:6616   */\n    tag_67:\n        /* \"#utility.yul\":6560:6567   */\n      0x00\n        /* \"#utility.yul\":6603:6608   */\n      dup2\n        /* \"#utility.yul\":6596:6609   */\n      iszero\n        /* \"#utility.yul\":6589:6610   */\n      iszero\n        /* \"#utility.yul\":6578:6610   */\n      swap1\n      pop\n        /* \"#utility.yul\":6526:6616   */\n      swap2\n      swap1\n      pop\n      jump\t// out\n        /* \"#utility.yul\":6622:6738   */\n    tag_68:\n        /* \"#utility.yul\":6692:6713   */\n      tag_153\n        /* \"#utility.yul\":6707:6712   */\n      dup2\n        /* \"#utility.yul\":6692:6713   */\n      tag_67\n      jump\t// in\n    tag_153:\n        /* \"#utility.yul\":6685:6690   */\n      dup2\n        /* \"#utility.yul\":6682:6714   */\n      eq\n        /* \"#utility.yul\":6672:6732   */\n      tag_154\n      jumpi\n        /* \"#utility.yul\":6728:6729   */\n      0x00\n        /* \"#utility.yul\":6725:6726   */\n      0x00\n        /* \"#utility.yul\":6718:6730   */\n      revert\n        /* \"#utility.yul\":6672:6732   */\n    tag_154:\n        /* \"#utility.yul\":6622:6738   */\n      pop\n      jump\t// out\n        /* \"#utility.yul\":6744:6881   */\n    tag_69:\n        /* \"#utility.yul\":6798:6803   */\n      0x00\n        /* \"#utility.yul\":6829:6835   */\n      dup2\n        /* \"#utility.yul\":6823:6836   */\n      mload\n        /* \"#utility.yul\":6814:6836   */\n      swap1\n      pop\n        /* \"#utility.yul\":6845:6875   */\n      tag_156\n        /* \"#utility.yul\":6869:6874   */\n      dup2\n        /* \"#utility.yul\":6845:6875   */\n      tag_68\n      jump\t// in\n    tag_156:\n        /* \"#utility.yul\":6744:6881   */\n      swap3\n      swap2\n      pop\n      pop\n      jump\t// out\n        /* \"#utility.yul\":6924:7704   */\n    tag_70:\n        /* \"#utility.yul\":7009:7014   */\n      0x00\n        /* \"#utility.yul\":7053:7057   */\n      0x40\n        /* \"#utility.yul\":7041:7050   */\n      dup3\n        /* \"#utility.yul\":7036:7039   */\n      dup5\n        /* \"#utility.yul\":7032:7051   */\n      sub\n        /* \"#utility.yul\":7028:7058   */\n      slt\n        /* \"#utility.yul\":7025:7142   */\n      iszero\n      tag_158\n      jumpi\n        /* \"#utility.yul\":7061:7140   */\n      tag_159\n      tag_55\n      jump\t// in\n    tag_159:\n        /* \"#utility.yul\":7025:7142   */\n    tag_158:\n        /* \"#utility.yul\":7160:7181   */\n      tag_160\n        /* \"#utility.yul\":7176:7180   */\n      0x40\n        /* \"#utility.yul\":7160:7181   */\n      tag_59\n      jump\t// in\n    tag_160:\n        /* \"#utility.yul\":7151:7181   */\n      swap1\n      pop\n        /* \"#utility.yul\":7268:7269   */\n      0x00\n        /* \"#utility.yul\":7257:7266   */\n      dup3\n        /* \"#utility.yul\":7253:7270   */\n      add\n        /* \"#utility.yul\":7247:7271   */\n      mload\n        /* \"#utility.yul\":7298:7316   */\n      0xffffffffffffffff\n        /* \"#utility.yul\":7290:7296   */\n      dup2\n        /* \"#utility.yul\":7287:7317   */\n      gt\n        /* \"#utility.yul\":7284:7401   */\n      iszero\n      tag_161\n      jumpi\n        /* \"#utility.yul\":7320:7399   */\n      tag_162\n      tag_60\n      jump\t// in\n    tag_162:\n        /* \"#utility.yul\":7284:7401   */\n    tag_161:\n        /* \"#utility.yul\":7440:7510   */\n      tag_163\n        /* \"#utility.yul\":7506:7509   */\n      dup5\n        /* \"#utility.yul\":7497:7503   */\n      dup3\n        /* \"#utility.yul\":7486:7495   */\n      dup6\n        /* \"#utility.yul\":7482:7504   */\n      add\n        /* \"#utility.yul\":7440:7510   */\n      tag_66\n      jump\t// in\n    tag_163:\n        /* \"#utility.yul\":7433:7437   */\n      0x00\n        /* \"#utility.yul\":7426:7431   */\n      dup4\n        /* \"#utility.yul\":7422:7438   */\n      add\n        /* \"#utility.yul\":7415:7511   */\n      mstore\n        /* \"#utility.yul\":7191:7522   */\n      pop\n        /* \"#utility.yul\":7587:7589   */\n      0x20\n        /* \"#utility.yul\":7628:7685   */\n      tag_164\n        /* \"#utility.yul\":7681:7684   */\n      dup5\n        /* \"#utility.yul\":7672:7678   */\n      dup3\n        /* \"#utility.yul\":7661:7670   */\n      dup6\n        /* \"#utility.yul\":7657:7679   */\n      add\n        /* \"#utility.yul\":7628:7685   */\n      tag_69\n      jump\t// in\n    tag_164:\n        /* \"#utility.yul\":7621:7625   */\n      0x20\n        /* \"#utility.yul\":7614:7619   */\n      dup4\n        /* \"#utility.yul\":7610:7626   */\n      add\n        /* \"#utility.yul\":7603:7686   */\n      mstore\n        /* \"#utility.yul\":7532:7697   */\n      pop\n        /* \"#utility.yul\":6924:7704   */\n      swap3\n      swap2\n      pop\n      pop\n      jump\t// out\n        /* \"#utility.yul\":7710:8264   */\n    tag_28:\n        /* \"#utility.yul\":7805:7811   */\n      0x00\n        /* \"#utility.yul\":7854:7856   */\n      0x20\n        /* \"#utility.yul\":7842:7851   */\n      dup3\n        /* \"#utility.yul\":7833:7840   */\n      dup5\n        /* \"#utility.yul\":7829:7852   */\n      sub\n        /* \"#utility.yul\":7825:7857   */\n      slt\n        /* \"#utility.yul\":7822:7941   */\n      iszero\n      tag_166\n      jumpi\n        /* \"#utility.yul\":7860:7939   */\n      tag_167\n      tag_46\n      jump\t// in\n    tag_167:\n        /* \"#utility.yul\":7822:7941   */\n    tag_166:\n        /* \"#utility.yul\":8001:8002   */\n      0x00\n        /* \"#utility.yul\":7990:7999   */\n      dup3\n        /* \"#utility.yul\":7986:8003   */\n      add\n        /* \"#utility.yul\":7980:8004   */\n      mload\n        /* \"#utility.yul\":8031:8049   */\n      0xffffffffffffffff\n        /* \"#utility.yul\":8023:8029   */\n      dup2\n        /* \"#utility.yul\":8020:8050   */\n      gt\n        /* \"#utility.yul\":8017:8134   */\n      iszero\n      tag_168\n      jumpi\n        /* \"#utility.yul\":8053:8132   */\n      tag_169\n      tag_47\n      jump\t// in\n    tag_169:\n        /* \"#utility.yul\":8017:8134   */\n    tag_168:\n        /* \"#utility.yul\":8158:8247   */\n      tag_170\n        /* \"#utility.yul\":8239:8246   */\n      dup5\n        /* \"#utility.yul\":8230:8236   */\n      dup3\n        /* \"#utility.yul\":8219:8228   */\n      dup6\n        /* \"#utility.yul\":8215:8237   */\n      add\n        /* \"#utility.yul\":8158:8247   */\n      tag_70\n      jump\t// in\n    tag_170:\n        /* \"#utility.yul\":8148:8247   */\n      swap2\n      pop\n        /* \"#utility.yul\":7951:8257   */\n      pop\n        /* \"#utility.yul\":7710:8264   */\n      swap3\n      swap2\n      pop\n      pop\n      jump\t// out\n        /* \"#utility.yul\":8270:8504   */\n    tag_71:\n        /* \"#utility.yul\":8410:8444   */\n      0x5265717565737420686173206265656e20617070726f76656420616e64206173\n        /* \"#utility.yul\":8406:8407   */\n      0x00\n        /* \"#utility.yul\":8398:8404   */\n      dup3\n        /* \"#utility.yul\":8394:8408   */\n      add\n        /* \"#utility.yul\":8387:8445   */\n      mstore\n        /* \"#utility.yul\":8479:8496   */\n      0x7369676e656420616e206f7267616e0000000000000000000000000000000000\n        /* \"#utility.yul\":8474:8476   */\n      0x20\n        /* \"#utility.yul\":8466:8472   */\n      dup3\n        /* \"#utility.yul\":8462:8477   */\n      add\n        /* \"#utility.yul\":8455:8497   */\n      mstore\n        /* \"#utility.yul\":8270:8504   */\n      pop\n      jump\t// out\n        /* \"#utility.yul\":8510:8876   */\n    tag_72:\n        /* \"#utility.yul\":8652:8655   */\n      0x00\n        /* \"#utility.yul\":8673:8740   */\n      tag_173\n        /* \"#utility.yul\":8737:8739   */\n      0x2f\n        /* \"#utility.yul\":8732:8735   */\n      dup4\n        /* \"#utility.yul\":8673:8740   */\n      tag_51\n      jump\t// in\n    tag_173:\n        /* \"#utility.yul\":8666:8740   */\n      swap2\n      pop\n        /* \"#utility.yul\":8749:8842   */\n      tag_174\n        /* \"#utility.yul\":8838:8841   */\n      dup3\n        /* \"#utility.yul\":8749:8842   */\n      tag_71\n      jump\t// in\n    tag_174:\n        /* \"#utility.yul\":8867:8869   */\n      0x40\n        /* \"#utility.yul\":8862:8865   */\n      dup3\n        /* \"#utility.yul\":8858:8870   */\n      add\n        /* \"#utility.yul\":8851:8870   */\n      swap1\n      pop\n        /* \"#utility.yul\":8510:8876   */\n      swap2\n      swap1\n      pop\n      jump\t// out\n        /* \"#utility.yul\":8882:9301   */\n    tag_31:\n        /* \"#utility.yul\":9048:9052   */\n      0x00\n        /* \"#utility.yul\":9086:9088   */\n      0x20\n        /* \"#utility.yul\":9075:9084   */\n      dup3\n        /* \"#utility.yul\":9071:9089   */\n      add\n        /* \"#utility.yul\":9063:9089   */\n      swap1\n      pop\n        /* \"#utility.yul\":9135:9144   */\n      dup2\n        /* \"#utility.yul\":9129:9133   */\n      dup2\n        /* \"#utility.yul\":9125:9145   */\n      sub\n        /* \"#utility.yul\":9121:9122   */\n      0x00\n        /* \"#utility.yul\":9110:9119   */\n      dup4\n        /* \"#utility.yul\":9106:9123   */\n      add\n        /* \"#utility.yul\":9099:9146   */\n      mstore\n        /* \"#utility.yul\":9163:9294   */\n      tag_176\n        /* \"#utility.yul\":9289:9293   */\n      dup2\n        /* \"#utility.yul\":9163:9294   */\n      tag_72\n      jump\t// in\n    tag_176:\n        /* \"#utility.yul\":9155:9294   */\n      swap1\n      pop\n        /* \"#utility.yul\":8882:9301   */\n      swap2\n      swap1\n      pop\n      jump\t// out\n        /* \"#utility.yul\":9307:9406   */\n    tag_73:\n        /* \"#utility.yul\":9359:9365   */\n      0x00\n        /* \"#utility.yul\":9393:9398   */\n      dup2\n        /* \"#utility.yul\":9387:9399   */\n      mload\n        /* \"#utility.yul\":9377:9399   */\n      swap1\n      pop\n        /* \"#utility.yul\":9307:9406   */\n      swap2\n      swap1\n      pop\n      jump\t// out\n        /* \"#utility.yul\":9412:9571   */\n    tag_74:\n        /* \"#utility.yul\":9486:9497   */\n      0x00\n        /* \"#utility.yul\":9520:9526   */\n      dup3\n        /* \"#utility.yul\":9515:9518   */\n      dup3\n        /* \"#utility.yul\":9508:9527   */\n      mstore\n        /* \"#utility.yul\":9560:9564   */\n      0x20\n        /* \"#utility.yul\":9555:9558   */\n      dup3\n        /* \"#utility.yul\":9551:9565   */\n      add\n        /* \"#utility.yul\":9536:9565   */\n      swap1\n      pop\n        /* \"#utility.yul\":9412:9571   */\n      swap3\n      swap2\n      pop\n      pop\n      jump\t// out\n        /* \"#utility.yul\":9577:9934   */\n    tag_75:\n        /* \"#utility.yul\":9655:9658   */\n      0x00\n        /* \"#utility.yul\":9683:9722   */\n      tag_180\n        /* \"#utility.yul\":9716:9721   */\n      dup3\n        /* \"#utility.yul\":9683:9722   */\n      tag_73\n      jump\t// in\n    tag_180:\n        /* \"#utility.yul\":9738:9799   */\n      tag_181\n        /* \"#utility.yul\":9792:9798   */\n      dup2\n        /* \"#utility.yul\":9787:9790   */\n      dup6\n        /* \"#utility.yul\":9738:9799   */\n      tag_74\n      jump\t// in\n    tag_181:\n        /* \"#utility.yul\":9731:9799   */\n      swap4\n      pop\n        /* \"#utility.yul\":9808:9873   */\n      tag_182\n        /* \"#utility.yul\":9866:9872   */\n      dup2\n        /* \"#utility.yul\":9861:9864   */\n      dup6\n        /* \"#utility.yul\":9854:9858   */\n      0x20\n        /* \"#utility.yul\":9847:9852   */\n      dup7\n        /* \"#utility.yul\":9843:9859   */\n      add\n        /* \"#utility.yul\":9808:9873   */\n      tag_64\n      jump\t// in\n    tag_182:\n        /* \"#utility.yul\":9898:9927   */\n      tag_183\n        /* \"#utility.yul\":9920:9926   */\n      dup2\n        /* \"#utility.yul\":9898:9927   */\n      tag_56\n      jump\t// in\n    tag_183:\n        /* \"#utility.yul\":9893:9896   */\n      dup5\n        /* \"#utility.yul\":9889:9928   */\n      add\n        /* \"#utility.yul\":9882:9928   */\n      swap2\n      pop\n        /* \"#utility.yul\":9659:9934   */\n      pop\n        /* \"#utility.yul\":9577:9934   */\n      swap3\n      swap2\n      pop\n      pop\n      jump\t// out\n        /* \"#utility.yul\":9940:10039   */\n    tag_76:\n        /* \"#utility.yul\":10011:10032   */\n      tag_185\n        /* \"#utility.yul\":10026:10031   */\n      dup2\n        /* \"#utility.yul\":10011:10032   */\n      tag_67\n      jump\t// in\n    tag_185:\n        /* \"#utility.yul\":10006:10009   */\n      dup3\n        /* \"#utility.yul\":9999:10033   */\n      mstore\n        /* \"#utility.yul\":9940:10039   */\n      pop\n      pop\n      jump\t// out\n        /* \"#utility.yul\":10115:10728   */\n    tag_77:\n        /* \"#utility.yul\":10234:10237   */\n      0x00\n        /* \"#utility.yul\":10270:10274   */\n      0x40\n        /* \"#utility.yul\":10265:10268   */\n      dup4\n        /* \"#utility.yul\":10261:10275   */\n      add\n        /* \"#utility.yul\":10364:10368   */\n      0x00\n        /* \"#utility.yul\":10357:10362   */\n      dup4\n        /* \"#utility.yul\":10353:10369   */\n      add\n        /* \"#utility.yul\":10347:10370   */\n      mload\n        /* \"#utility.yul\":10417:10420   */\n      dup5\n        /* \"#utility.yul\":10411:10415   */\n      dup3\n        /* \"#utility.yul\":10407:10421   */\n      sub\n        /* \"#utility.yul\":10400:10404   */\n      0x00\n        /* \"#utility.yul\":10395:10398   */\n      dup7\n        /* \"#utility.yul\":10391:10405   */\n      add\n        /* \"#utility.yul\":10384:10422   */\n      mstore\n        /* \"#utility.yul\":10443:10516   */\n      tag_187\n        /* \"#utility.yul\":10511:10515   */\n      dup3\n        /* \"#utility.yul\":10497:10509   */\n      dup3\n        /* \"#utility.yul\":10443:10516   */\n      tag_75\n      jump\t// in\n    tag_187:\n        /* \"#utility.yul\":10435:10516   */\n      swap2\n      pop\n        /* \"#utility.yul\":10285:10527   */\n      pop\n        /* \"#utility.yul\":10615:10619   */\n      0x20\n        /* \"#utility.yul\":10608:10613   */\n      dup4\n        /* \"#utility.yul\":10604:10620   */\n      add\n        /* \"#utility.yul\":10598:10621   */\n      mload\n        /* \"#utility.yul\":10634:10691   */\n      tag_188\n        /* \"#utility.yul\":10685:10689   */\n      0x20\n        /* \"#utility.yul\":10680:10683   */\n      dup7\n        /* \"#utility.yul\":10676:10690   */\n      add\n        /* \"#utility.yul\":10662:10674   */\n      dup3\n        /* \"#utility.yul\":10634:10691   */\n      tag_76\n      jump\t// in\n    tag_188:\n        /* \"#utility.yul\":10537:10701   */\n      pop\n        /* \"#utility.yul\":10718:10722   */\n      dup1\n        /* \"#utility.yul\":10711:10722   */\n      swap2\n      pop\n        /* \"#utility.yul\":10239:10728   */\n      pop\n        /* \"#utility.yul\":10115:10728   */\n      swap3\n      swap2\n      pop\n      pop\n      jump\t// out\n        /* \"#utility.yul\":10734:11217   */\n    tag_33:\n        /* \"#utility.yul\":10905:10909   */\n      0x00\n        /* \"#utility.yul\":10943:10945   */\n      0x40\n        /* \"#utility.yul\":10932:10941   */\n      dup3\n        /* \"#utility.yul\":10928:10946   */\n      add\n        /* \"#utility.yul\":10920:10946   */\n      swap1\n      pop\n        /* \"#utility.yul\":10956:11027   */\n      tag_190\n        /* \"#utility.yul\":11024:11025   */\n      0x00\n        /* \"#utility.yul\":11013:11022   */\n      dup4\n        /* \"#utility.yul\":11009:11026   */\n      add\n        /* \"#utility.yul\":11000:11006   */\n      dup6\n        /* \"#utility.yul\":10956:11027   */\n      tag_54\n      jump\t// in\n    tag_190:\n        /* \"#utility.yul\":11074:11083   */\n      dup2\n        /* \"#utility.yul\":11068:11072   */\n      dup2\n        /* \"#utility.yul\":11064:11084   */\n      sub\n        /* \"#utility.yul\":11059:11061   */\n      0x20\n        /* \"#utility.yul\":11048:11057   */\n      dup4\n        /* \"#utility.yul\":11044:11062   */\n      add\n        /* \"#utility.yul\":11037:11085   */\n      mstore\n        /* \"#utility.yul\":11102:11210   */\n      tag_191\n        /* \"#utility.yul\":11205:11209   */\n      dup2\n        /* \"#utility.yul\":11196:11202   */\n      dup5\n        /* \"#utility.yul\":11102:11210   */\n      tag_77\n      jump\t// in\n    tag_191:\n        /* \"#utility.yul\":11094:11210   */\n      swap1\n      pop\n        /* \"#utility.yul\":10734:11217   */\n      swap4\n      swap3\n      pop\n      pop\n      pop\n      jump\t// out\n\n    auxdata: 0xa2646970667358221220a5dd799efea830935ae9749fc55b7d6b2ce0fceaf7aca0a03f5f833f56695b5364736f6c634300081e0033\n}\n",
				"bytecode": {
					"linkReferences": {},
					"object": "608060405234801561000f575f5ffd5b506040516109e53803806109e583398181016040528101906100319190610115565b815f5f6101000a81548173ffffffffffffffffffffffffffffffffffffffff021916908373ffffffffffffffffffffffffffffffffffffffff1602179055508060015f6101000a81548173ffffffffffffffffffffffffffffffffffffffff021916908373ffffffffffffffffffffffffffffffffffffffff1602179055505050610153565b5f5ffd5b5f73ffffffffffffffffffffffffffffffffffffffff82169050919050565b5f6100e4826100bb565b9050919050565b6100f4816100da565b81146100fe575f5ffd5b50565b5f8151905061010f816100eb565b92915050565b5f5f6040838503121561012b5761012a6100b7565b5b5f61013885828601610101565b925050602061014985828601610101565b9150509250929050565b610885806101605f395ff3fe608060405234801561000f575f5ffd5b506004361061003f575f3560e01c806355a373d6146100435780636f76d1dc14610061578063d7d1bbdb1461007f575b5f5ffd5b61004b61009b565b604051610058919061036e565b60405180910390f35b6100696100c0565b60405161007691906103a7565b60405180910390f35b61009960048036038101906100949190610404565b6100e4565b005b60015f9054906101000a900473ffffffffffffffffffffffffffffffffffffffff1681565b5f5f9054906101000a900473ffffffffffffffffffffffffffffffffffffffff1681565b5f5f9054906101000a900473ffffffffffffffffffffffffffffffffffffffff1673ffffffffffffffffffffffffffffffffffffffff163373ffffffffffffffffffffffffffffffffffffffff1614610172576040517f08c379a000000000000000000000000000000000000000000000000000000000815260040161016990610489565b60405180910390fd5b5f60015f9054906101000a900473ffffffffffffffffffffffffffffffffffffffff1673ffffffffffffffffffffffffffffffffffffffff1663c58343ef836040518263ffffffff1660e01b81526004016101cd91906104b6565b5f60405180830381865afa1580156101e7573d5f5f3e3d5ffd5b505050506040513d5f823e3d601f19601f8201168201806040525081019061020f91906106b1565b9050806020015115610256576040517f08c379a000000000000000000000000000000000000000000000000000000000815260040161024d90610768565b60405180910390fd5b600181602001901515908115158152505060015f9054906101000a900473ffffffffffffffffffffffffffffffffffffffff1673ffffffffffffffffffffffffffffffffffffffff16635be2218b83836040518363ffffffff1660e01b81526004016102c3929190610821565b5f604051808303815f87803b1580156102da575f5ffd5b505af11580156102ec573d5f5f3e3d5ffd5b505050505050565b5f73ffffffffffffffffffffffffffffffffffffffff82169050919050565b5f819050919050565b5f61033661033161032c846102f4565b610313565b6102f4565b9050919050565b5f6103478261031c565b9050919050565b5f6103588261033d565b9050919050565b6103688161034e565b82525050565b5f6020820190506103815f83018461035f565b92915050565b5f610391826102f4565b9050919050565b6103a181610387565b82525050565b5f6020820190506103ba5f830184610398565b92915050565b5f604051905090565b5f5ffd5b5f5ffd5b5f819050919050565b6103e3816103d1565b81146103ed575f5ffd5b50565b5f813590506103fe816103da565b92915050565b5f60208284031215610419576104186103c9565b5b5f610426848285016103f0565b91505092915050565b5f82825260208201905092915050565b7f4f6e6c79206865616c74686361726500000000000000000000000000000000005f82015250565b5f610473600f8361042f565b915061047e8261043f565b602082019050919050565b5f6020820190508181035f8301526104a081610467565b9050919050565b6104b0816103d1565b82525050565b5f6020820190506104c95f8301846104a7565b92915050565b5f5ffd5b5f601f19601f8301169050919050565b7f4e487b71000000000000000000000000000000000000000000000000000000005f52604160045260245ffd5b610519826104d3565b810181811067ffffffffffffffff82111715610538576105376104e3565b5b80604052505050565b5f61054a6103c0565b90506105568282610510565b919050565b5f5ffd5b5f5ffd5b5f5ffd5b5f67ffffffffffffffff821115610581576105806104e3565b5b61058a826104d3565b9050602081019050919050565b8281835e5f83830152505050565b5f6105b76105b284610567565b610541565b9050828152602081018484840111156105d3576105d2610563565b5b6105de848285610597565b509392505050565b5f82601f8301126105fa576105f961055f565b5b815161060a8482602086016105a5565b91505092915050565b5f8115159050919050565b61062781610613565b8114610631575f5ffd5b50565b5f815190506106428161061e565b92915050565b5f6040828403121561065d5761065c6104cf565b5b6106676040610541565b90505f82015167ffffffffffffffff8111156106865761068561055b565b5b610692848285016105e6565b5f8301525060206106a584828501610634565b60208301525092915050565b5f602082840312156106c6576106c56103c9565b5b5f82015167ffffffffffffffff8111156106e3576106e26103cd565b5b6106ef84828501610648565b91505092915050565b7f5265717565737420686173206265656e20617070726f76656420616e642061735f8201527f7369676e656420616e206f7267616e0000000000000000000000000000000000602082015250565b5f610752602f8361042f565b915061075d826106f8565b604082019050919050565b5f6020820190508181035f83015261077f81610746565b9050919050565b5f81519050919050565b5f82825260208201905092915050565b5f6107aa82610786565b6107b48185610790565b93506107c4818560208601610597565b6107cd816104d3565b840191505092915050565b6107e181610613565b82525050565b5f604083015f8301518482035f86015261080182826107a0565b915050602083015161081660208601826107d8565b508091505092915050565b5f6040820190506108345f8301856104a7565b818103602083015261084681846107e7565b9050939250505056fea2646970667358221220a5dd799efea830935ae9749fc55b7d6b2ce0fceaf7aca0a03f5f833f56695b5364736f6c634300081e0033",
					"opcodes": "PUSH1 0x80 PUSH1 0x40 MSTORE CALLVALUE DUP1 ISZERO PUSH2 0xF JUMPI PUSH0 PUSH0 REVERT JUMPDEST POP PUSH1 0x40 MLOAD PUSH2 0x9E5 CODESIZE SUB DUP1 PUSH2 0x9E5 DUP4 CODECOPY DUP2 DUP2 ADD PUSH1 0x40 MSTORE DUP2 ADD SWAP1 PUSH2 0x31 SWAP2 SWAP1 PUSH2 0x115 JUMP JUMPDEST DUP2 PUSH0 PUSH0 PUSH2 0x100 EXP DUP2 SLOAD DUP2 PUSH20 0xFFFFFFFFFFFFFFFFFFFFFFFFFFFFFFFFFFFFFFFF MUL NOT AND SWAP1 DUP4 PUSH20 0xFFFFFFFFFFFFFFFFFFFFFFFFFFFFFFFFFFFFFFFF AND MUL OR SWAP1 SSTORE POP DUP1 PUSH1 0x1 PUSH0 PUSH2 0x100 EXP DUP2 SLOAD DUP2 PUSH20 0xFFFFFFFFFFFFFFFFFFFFFFFFFFFFFFFFFFFFFFFF MUL NOT AND SWAP1 DUP4 PUSH20 0xFFFFFFFFFFFFFFFFFFFFFFFFFFFFFFFFFFFFFFFF AND MUL OR SWAP1 SSTORE POP POP POP PUSH2 0x153 JUMP JUMPDEST PUSH0 PUSH0 REVERT JUMPDEST PUSH0 PUSH20 0xFFFFFFFFFFFFFFFFFFFFFFFFFFFFFFFFFFFFFFFF DUP3 AND SWAP1 POP SWAP2 SWAP1 POP JUMP JUMPDEST PUSH0 PUSH2 0xE4 DUP3 PUSH2 0xBB JUMP JUMPDEST SWAP1 POP SWAP2 SWAP1 POP JUMP JUMPDEST PUSH2 0xF4 DUP2 PUSH2 0xDA JUMP JUMPDEST DUP2 EQ PUSH2 0xFE JUMPI PUSH0 PUSH0 REVERT JUMPDEST POP JUMP JUMPDEST PUSH0 DUP2 MLOAD SWAP1 POP PUSH2 0x10F DUP2 PUSH2 0xEB JUMP JUMPDEST SWAP3 SWAP2 POP POP JUMP JUMPDEST PUSH0 PUSH0 PUSH1 0x40 DUP4 DUP6 SUB SLT ISZERO PUSH2 0x12B JUMPI PUSH2 0x12A PUSH2 0xB7 JUMP JUMPDEST JUMPDEST PUSH0 PUSH2 0x138 DUP6 DUP3 DUP7 ADD PUSH2 0x101 JUMP JUMPDEST SWAP3 POP POP PUSH1 0x20 PUSH2 0x149 DUP6 DUP3 DUP7 ADD PUSH2 0x101 JUMP JUMPDEST SWAP2 POP POP SWAP3 POP SWAP3 SWAP1 POP JUMP JUMPDEST PUSH2 0x885 DUP1 PUSH2 0x160 PUSH0 CODECOPY PUSH0 RETURN INVALID PUSH1 0x80 PUSH1 0x40 MSTORE CALLVALUE DUP1 ISZERO PUSH2 0xF JUMPI PUSH0 PUSH0 REVERT JUMPDEST POP PUSH1 0x4 CALLDATASIZE LT PUSH2 0x3F JUMPI PUSH0 CALLDATALOAD PUSH1 0xE0 SHR DUP1 PUSH4 0x55A373D6 EQ PUSH2 0x43 JUMPI DUP1 PUSH4 0x6F76D1DC EQ PUSH2 0x61 JUMPI DUP1 PUSH4 0xD7D1BBDB EQ PUSH2 0x7F JUMPI JUMPDEST PUSH0 PUSH0 REVERT JUMPDEST PUSH2 0x4B PUSH2 0x9B JUMP JUMPDEST PUSH1 0x40 MLOAD PUSH2 0x58 SWAP2 SWAP1 PUSH2 0x36E JUMP JUMPDEST PUSH1 0x40 MLOAD DUP1 SWAP2 SUB SWAP1 RETURN JUMPDEST PUSH2 0x69 PUSH2 0xC0 JUMP JUMPDEST PUSH1 0x40 MLOAD PUSH2 0x76 SWAP2 SWAP1 PUSH2 0x3A7 JUMP JUMPDEST PUSH1 0x40 MLOAD DUP1 SWAP2 SUB SWAP1 RETURN JUMPDEST PUSH2 0x99 PUSH1 0x4 DUP1 CALLDATASIZE SUB DUP2 ADD SWAP1 PUSH2 0x94 SWAP2 SWAP1 PUSH2 0x404 JUMP JUMPDEST PUSH2 0xE4 JUMP JUMPDEST STOP JUMPDEST PUSH1 0x1 PUSH0 SWAP1 SLOAD SWAP1 PUSH2 0x100 EXP SWAP1 DIV PUSH20 0xFFFFFFFFFFFFFFFFFFFFFFFFFFFFFFFFFFFFFFFF AND DUP2 JUMP JUMPDEST PUSH0 PUSH0 SWAP1 SLOAD SWAP1 PUSH2 0x100 EXP SWAP1 DIV PUSH20 0xFFFFFFFFFFFFFFFFFFFFFFFFFFFFFFFFFFFFFFFF AND DUP2 JUMP JUMPDEST PUSH0 PUSH0 SWAP1 SLOAD SWAP1 PUSH2 0x100 EXP SWAP1 DIV PUSH20 0xFFFFFFFFFFFFFFFFFFFFFFFFFFFFFFFFFFFFFFFF AND PUSH20 0xFFFFFFFFFFFFFFFFFFFFFFFFFFFFFFFFFFFFFFFF AND CALLER PUSH20 0xFFFFFFFFFFFFFFFFFFFFFFFFFFFFFFFFFFFFFFFF AND EQ PUSH2 0x172 JUMPI PUSH1 0x40 MLOAD PUSH32 0x8C379A000000000000000000000000000000000000000000000000000000000 DUP2 MSTORE PUSH1 0x4 ADD PUSH2 0x169 SWAP1 PUSH2 0x489 JUMP JUMPDEST PUSH1 0x40 MLOAD DUP1 SWAP2 SUB SWAP1 REVERT JUMPDEST PUSH0 PUSH1 0x1 PUSH0 SWAP1 SLOAD SWAP1 PUSH2 0x100 EXP SWAP1 DIV PUSH20 0xFFFFFFFFFFFFFFFFFFFFFFFFFFFFFFFFFFFFFFFF AND PUSH20 0xFFFFFFFFFFFFFFFFFFFFFFFFFFFFFFFFFFFFFFFF AND PUSH4 0xC58343EF DUP4 PUSH1 0x40 MLOAD DUP3 PUSH4 0xFFFFFFFF AND PUSH1 0xE0 SHL DUP2 MSTORE PUSH1 0x4 ADD PUSH2 0x1CD SWAP2 SWAP1 PUSH2 0x4B6 JUMP JUMPDEST PUSH0 PUSH1 0x40 MLOAD DUP1 DUP4 SUB DUP2 DUP7 GAS STATICCALL ISZERO DUP1 ISZERO PUSH2 0x1E7 JUMPI RETURNDATASIZE PUSH0 PUSH0 RETURNDATACOPY RETURNDATASIZE PUSH0 REVERT JUMPDEST POP POP POP POP PUSH1 0x40 MLOAD RETURNDATASIZE PUSH0 DUP3 RETURNDATACOPY RETURNDATASIZE PUSH1 0x1F NOT PUSH1 0x1F DUP3 ADD AND DUP3 ADD DUP1 PUSH1 0x40 MSTORE POP DUP2 ADD SWAP1 PUSH2 0x20F SWAP2 SWAP1 PUSH2 0x6B1 JUMP JUMPDEST SWAP1 POP DUP1 PUSH1 0x20 ADD MLOAD ISZERO PUSH2 0x256 JUMPI PUSH1 0x40 MLOAD PUSH32 0x8C379A000000000000000000000000000000000000000000000000000000000 DUP2 MSTORE PUSH1 0x4 ADD PUSH2 0x24D SWAP1 PUSH2 0x768 JUMP JUMPDEST PUSH1 0x40 MLOAD DUP1 SWAP2 SUB SWAP1 REVERT JUMPDEST PUSH1 0x1 DUP2 PUSH1 0x20 ADD SWAP1 ISZERO ISZERO SWAP1 DUP2 ISZERO ISZERO DUP2 MSTORE POP POP PUSH1 0x1 PUSH0 SWAP1 SLOAD SWAP1 PUSH2 0x100 EXP SWAP1 DIV PUSH20 0xFFFFFFFFFFFFFFFFFFFFFFFFFFFFFFFFFFFFFFFF AND PUSH20 0xFFFFFFFFFFFFFFFFFFFFFFFFFFFFFFFFFFFFFFFF AND PUSH4 0x5BE2218B DUP4 DUP4 PUSH1 0x40 MLOAD DUP4 PUSH4 0xFFFFFFFF AND PUSH1 0xE0 SHL DUP2 MSTORE PUSH1 0x4 ADD PUSH2 0x2C3 SWAP3 SWAP2 SWAP1 PUSH2 0x821 JUMP JUMPDEST PUSH0 PUSH1 0x40 MLOAD DUP1 DUP4 SUB DUP2 PUSH0 DUP8 DUP1 EXTCODESIZE ISZERO DUP1 ISZERO PUSH2 0x2DA JUMPI PUSH0 PUSH0 REVERT JUMPDEST POP GAS CALL ISZERO DUP1 ISZERO PUSH2 0x2EC JUMPI RETURNDATASIZE PUSH0 PUSH0 RETURNDATACOPY RETURNDATASIZE PUSH0 REVERT JUMPDEST POP POP POP POP POP POP JUMP JUMPDEST PUSH0 PUSH20 0xFFFFFFFFFFFFFFFFFFFFFFFFFFFFFFFFFFFFFFFF DUP3 AND SWAP1 POP SWAP2 SWAP1 POP JUMP JUMPDEST PUSH0 DUP2 SWAP1 POP SWAP2 SWAP1 POP JUMP JUMPDEST PUSH0 PUSH2 0x336 PUSH2 0x331 PUSH2 0x32C DUP5 PUSH2 0x2F4 JUMP JUMPDEST PUSH2 0x313 JUMP JUMPDEST PUSH2 0x2F4 JUMP JUMPDEST SWAP1 POP SWAP2 SWAP1 POP JUMP JUMPDEST PUSH0 PUSH2 0x347 DUP3 PUSH2 0x31C JUMP JUMPDEST SWAP1 POP SWAP2 SWAP1 POP JUMP JUMPDEST PUSH0 PUSH2 0x358 DUP3 PUSH2 0x33D JUMP JUMPDEST SWAP1 POP SWAP2 SWAP1 POP JUMP JUMPDEST PUSH2 0x368 DUP2 PUSH2 0x34E JUMP JUMPDEST DUP3 MSTORE POP POP JUMP JUMPDEST PUSH0 PUSH1 0x20 DUP3 ADD SWAP1 POP PUSH2 0x381 PUSH0 DUP4 ADD DUP5 PUSH2 0x35F JUMP JUMPDEST SWAP3 SWAP2 POP POP JUMP JUMPDEST PUSH0 PUSH2 0x391 DUP3 PUSH2 0x2F4 JUMP JUMPDEST SWAP1 POP SWAP2 SWAP1 POP JUMP JUMPDEST PUSH2 0x3A1 DUP2 PUSH2 0x387 JUMP JUMPDEST DUP3 MSTORE POP POP JUMP JUMPDEST PUSH0 PUSH1 0x20 DUP3 ADD SWAP1 POP PUSH2 0x3BA PUSH0 DUP4 ADD DUP5 PUSH2 0x398 JUMP JUMPDEST SWAP3 SWAP2 POP POP JUMP JUMPDEST PUSH0 PUSH1 0x40 MLOAD SWAP1 POP SWAP1 JUMP JUMPDEST PUSH0 PUSH0 REVERT JUMPDEST PUSH0 PUSH0 REVERT JUMPDEST PUSH0 DUP2 SWAP1 POP SWAP2 SWAP1 POP JUMP JUMPDEST PUSH2 0x3E3 DUP2 PUSH2 0x3D1 JUMP JUMPDEST DUP2 EQ PUSH2 0x3ED JUMPI PUSH0 PUSH0 REVERT JUMPDEST POP JUMP JUMPDEST PUSH0 DUP2 CALLDATALOAD SWAP1 POP PUSH2 0x3FE DUP2 PUSH2 0x3DA JUMP JUMPDEST SWAP3 SWAP2 POP POP JUMP JUMPDEST PUSH0 PUSH1 0x20 DUP3 DUP5 SUB SLT ISZERO PUSH2 0x419 JUMPI PUSH2 0x418 PUSH2 0x3C9 JUMP JUMPDEST JUMPDEST PUSH0 PUSH2 0x426 DUP5 DUP3 DUP6 ADD PUSH2 0x3F0 JUMP JUMPDEST SWAP2 POP POP SWAP3 SWAP2 POP POP JUMP JUMPDEST PUSH0 DUP3 DUP3 MSTORE PUSH1 0x20 DUP3 ADD SWAP1 POP SWAP3 SWAP2 POP POP JUMP JUMPDEST PUSH32 0x4F6E6C79206865616C7468636172650000000000000000000000000000000000 PUSH0 DUP3 ADD MSTORE POP JUMP JUMPDEST PUSH0 PUSH2 0x473 PUSH1 0xF DUP4 PUSH2 0x42F JUMP JUMPDEST SWAP2 POP PUSH2 0x47E DUP3 PUSH2 0x43F JUMP JUMPDEST PUSH1 0x20 DUP3 ADD SWAP1 POP SWAP2 SWAP1 POP JUMP JUMPDEST PUSH0 PUSH1 0x20 DUP3 ADD SWAP1 POP DUP2 DUP2 SUB PUSH0 DUP4 ADD MSTORE PUSH2 0x4A0 DUP2 PUSH2 0x467 JUMP JUMPDEST SWAP1 POP SWAP2 SWAP1 POP JUMP JUMPDEST PUSH2 0x4B0 DUP2 PUSH2 0x3D1 JUMP JUMPDEST DUP3 MSTORE POP POP JUMP JUMPDEST PUSH0 PUSH1 0x20 DUP3 ADD SWAP1 POP PUSH2 0x4C9 PUSH0 DUP4 ADD DUP5 PUSH2 0x4A7 JUMP JUMPDEST SWAP3 SWAP2 POP POP JUMP JUMPDEST PUSH0 PUSH0 REVERT JUMPDEST PUSH0 PUSH1 0x1F NOT PUSH1 0x1F DUP4 ADD AND SWAP1 POP SWAP2 SWAP1 POP JUMP JUMPDEST PUSH32 0x4E487B7100000000000000000000000000000000000000000000000000000000 PUSH0 MSTORE PUSH1 0x41 PUSH1 0x4 MSTORE PUSH1 0x24 PUSH0 REVERT JUMPDEST PUSH2 0x519 DUP3 PUSH2 0x4D3 JUMP JUMPDEST DUP2 ADD DUP2 DUP2 LT PUSH8 0xFFFFFFFFFFFFFFFF DUP3 GT OR ISZERO PUSH2 0x538 JUMPI PUSH2 0x537 PUSH2 0x4E3 JUMP JUMPDEST JUMPDEST DUP1 PUSH1 0x40 MSTORE POP POP POP JUMP JUMPDEST PUSH0 PUSH2 0x54A PUSH2 0x3C0 JUMP JUMPDEST SWAP1 POP PUSH2 0x556 DUP3 DUP3 PUSH2 0x510 JUMP JUMPDEST SWAP2 SWAP1 POP JUMP JUMPDEST PUSH0 PUSH0 REVERT JUMPDEST PUSH0 PUSH0 REVERT JUMPDEST PUSH0 PUSH0 REVERT JUMPDEST PUSH0 PUSH8 0xFFFFFFFFFFFFFFFF DUP3 GT ISZERO PUSH2 0x581 JUMPI PUSH2 0x580 PUSH2 0x4E3 JUMP JUMPDEST JUMPDEST PUSH2 0x58A DUP3 PUSH2 0x4D3 JUMP JUMPDEST SWAP1 POP PUSH1 0x20 DUP2 ADD SWAP1 POP SWAP2 SWAP1 POP JUMP JUMPDEST DUP3 DUP2 DUP4 MCOPY PUSH0 DUP4 DUP4 ADD MSTORE POP POP POP JUMP JUMPDEST PUSH0 PUSH2 0x5B7 PUSH2 0x5B2 DUP5 PUSH2 0x567 JUMP JUMPDEST PUSH2 0x541 JUMP JUMPDEST SWAP1 POP DUP3 DUP2 MSTORE PUSH1 0x20 DUP2 ADD DUP5 DUP5 DUP5 ADD GT ISZERO PUSH2 0x5D3 JUMPI PUSH2 0x5D2 PUSH2 0x563 JUMP JUMPDEST JUMPDEST PUSH2 0x5DE DUP5 DUP3 DUP6 PUSH2 0x597 JUMP JUMPDEST POP SWAP4 SWAP3 POP POP POP JUMP JUMPDEST PUSH0 DUP3 PUSH1 0x1F DUP4 ADD SLT PUSH2 0x5FA JUMPI PUSH2 0x5F9 PUSH2 0x55F JUMP JUMPDEST JUMPDEST DUP2 MLOAD PUSH2 0x60A DUP5 DUP3 PUSH1 0x20 DUP7 ADD PUSH2 0x5A5 JUMP JUMPDEST SWAP2 POP POP SWAP3 SWAP2 POP POP JUMP JUMPDEST PUSH0 DUP2 ISZERO ISZERO SWAP1 POP SWAP2 SWAP1 POP JUMP JUMPDEST PUSH2 0x627 DUP2 PUSH2 0x613 JUMP JUMPDEST DUP2 EQ PUSH2 0x631 JUMPI PUSH0 PUSH0 REVERT JUMPDEST POP JUMP JUMPDEST PUSH0 DUP2 MLOAD SWAP1 POP PUSH2 0x642 DUP2 PUSH2 0x61E JUMP JUMPDEST SWAP3 SWAP2 POP POP JUMP JUMPDEST PUSH0 PUSH1 0x40 DUP3 DUP5 SUB SLT ISZERO PUSH2 0x65D JUMPI PUSH2 0x65C PUSH2 0x4CF JUMP JUMPDEST JUMPDEST PUSH2 0x667 PUSH1 0x40 PUSH2 0x541 JUMP JUMPDEST SWAP1 POP PUSH0 DUP3 ADD MLOAD PUSH8 0xFFFFFFFFFFFFFFFF DUP2 GT ISZERO PUSH2 0x686 JUMPI PUSH2 0x685 PUSH2 0x55B JUMP JUMPDEST JUMPDEST PUSH2 0x692 DUP5 DUP3 DUP6 ADD PUSH2 0x5E6 JUMP JUMPDEST PUSH0 DUP4 ADD MSTORE POP PUSH1 0x20 PUSH2 0x6A5 DUP5 DUP3 DUP6 ADD PUSH2 0x634 JUMP JUMPDEST PUSH1 0x20 DUP4 ADD MSTORE POP SWAP3 SWAP2 POP POP JUMP JUMPDEST PUSH0 PUSH1 0x20 DUP3 DUP5 SUB SLT ISZERO PUSH2 0x6C6 JUMPI PUSH2 0x6C5 PUSH2 0x3C9 JUMP JUMPDEST JUMPDEST PUSH0 DUP3 ADD MLOAD PUSH8 0xFFFFFFFFFFFFFFFF DUP2 GT ISZERO PUSH2 0x6E3 JUMPI PUSH2 0x6E2 PUSH2 0x3CD JUMP JUMPDEST JUMPDEST PUSH2 0x6EF DUP5 DUP3 DUP6 ADD PUSH2 0x648 JUMP JUMPDEST SWAP2 POP POP SWAP3 SWAP2 POP POP JUMP JUMPDEST PUSH32 0x5265717565737420686173206265656E20617070726F76656420616E64206173 PUSH0 DUP3 ADD MSTORE PUSH32 0x7369676E656420616E206F7267616E0000000000000000000000000000000000 PUSH1 0x20 DUP3 ADD MSTORE POP JUMP JUMPDEST PUSH0 PUSH2 0x752 PUSH1 0x2F DUP4 PUSH2 0x42F JUMP JUMPDEST SWAP2 POP PUSH2 0x75D DUP3 PUSH2 0x6F8 JUMP JUMPDEST PUSH1 0x40 DUP3 ADD SWAP1 POP SWAP2 SWAP1 POP JUMP JUMPDEST PUSH0 PUSH1 0x20 DUP3 ADD SWAP1 POP DUP2 DUP2 SUB PUSH0 DUP4 ADD MSTORE PUSH2 0x77F DUP2 PUSH2 0x746 JUMP JUMPDEST SWAP1 POP SWAP2 SWAP1 POP JUMP JUMPDEST PUSH0 DUP2 MLOAD SWAP1 POP SWAP2 SWAP1 POP JUMP JUMPDEST PUSH0 DUP3 DUP3 MSTORE PUSH1 0x20 DUP3 ADD SWAP1 POP SWAP3 SWAP2 POP POP JUMP JUMPDEST PUSH0 PUSH2 0x7AA DUP3 PUSH2 0x786 JUMP JUMPDEST PUSH2 0x7B4 DUP2 DUP6 PUSH2 0x790 JUMP JUMPDEST SWAP4 POP PUSH2 0x7C4 DUP2 DUP6 PUSH1 0x20 DUP7 ADD PUSH2 0x597 JUMP JUMPDEST PUSH2 0x7CD DUP2 PUSH2 0x4D3 JUMP JUMPDEST DUP5 ADD SWAP2 POP POP SWAP3 SWAP2 POP POP JUMP JUMPDEST PUSH2 0x7E1 DUP2 PUSH2 0x613 JUMP JUMPDEST DUP3 MSTORE POP POP JUMP JUMPDEST PUSH0 PUSH1 0x40 DUP4 ADD PUSH0 DUP4 ADD MLOAD DUP5 DUP3 SUB PUSH0 DUP7 ADD MSTORE PUSH2 0x801 DUP3 DUP3 PUSH2 0x7A0 JUMP JUMPDEST SWAP2 POP POP PUSH1 0x20 DUP4 ADD MLOAD PUSH2 0x816 PUSH1 0x20 DUP7 ADD DUP3 PUSH2 0x7D8 JUMP JUMPDEST POP DUP1 SWAP2 POP POP SWAP3 SWAP2 POP POP JUMP JUMPDEST PUSH0 PUSH1 0x40 DUP3 ADD SWAP1 POP PUSH2 0x834 PUSH0 DUP4 ADD DUP6 PUSH2 0x4A7 JUMP JUMPDEST DUP2 DUP2 SUB PUSH1 0x20 DUP4 ADD MSTORE PUSH2 0x846 DUP2 DUP5 PUSH2 0x7E7 JUMP JUMPDEST SWAP1 POP SWAP4 SWAP3 POP POP POP JUMP INVALID LOG2 PUSH5 0x6970667358 0x22 SLT KECCAK256 0xA5 0xDD PUSH26 0x9EFEA830935AE9749FC55B7D6B2CE0FCEAF7ACA0A03F5F833F56 PUSH10 0x5B5364736F6C63430008 0x1E STOP CALLER "
				},
				"gasEstimates": {
					"creation": {
						"codeDepositCost": "436200",
						"executionCost": "infinite",
						"totalCost": "infinite"
					},
					"external": {
						"approveRequest(uint256)": "infinite",
						"healthcare()": "2507",
						"tokenContract()": "infinite"
					}
				},
				"methodIdentifiers": {
					"approveRequest(uint256)": "d7d1bbdb",
					"healthcare()": "6f76d1dc",
					"tokenContract()": "55a373d6"
				}
			},
			"storageLayout": {
				"storage": [
					{
						"astId": 65,
						"contract": "AvailabilityContract.sol:AvailableContract",
						"label": "healthcare",
						"offset": 0,
						"slot": "0",
						"type": "t_address"
					},
					{
						"astId": 68,
						"contract": "AvailabilityContract.sol:AvailableContract",
						"label": "tokenContract",
						"offset": 0,
						"slot": "1",
						"type": "t_contract(ITokenCreate)63"
					}
				],
				"types": {
					"t_address": {
						"encoding": "inplace",
						"label": "address",
						"numberOfBytes": "20"
					},
					"t_contract(ITokenCreate)63": {
						"encoding": "inplace",
						"label": "contract ITokenCreate",
						"numberOfBytes": "20"
					}
				}
			},
			"userdoc": {
				"kind": "user",
				"methods": {
					"approveRequest(uint256)": {
						"notice": "Approves a request and assigns an available organ."
					}
				},
				"version": 1
			}
		}
	}
}