{
	"AssignContract.sol": {
		"AssignContract": {
			"abi": [
				{
					"inputs": [
						{
							"internalType": "address",
							"name": "_doctor",
							"type": "address"
						},
						{
							"internalType": "address",
							"name": "_tokenAddr",
							"type": "address"
						}
					],
					"stateMutability": "nonpayable",
					"type": "constructor"
				},
				{
					"inputs": [
						{
							"internalType": "string",
							"name": "patient",
							"type": "string"
						}
					],
					"name": "createRequest",
					"outputs": [],
					"stateMutability": "nonpayable",
					"type": "function"
				},
				{
					"inputs": [],
					"name": "doctor",
					"outputs": [
						{
							"internalType": "address",
							"name": "",
							"type": "address"
						}
					],
					"stateMutability": "view",
					"type": "function"
				},
				{
					"inputs": [],
					"name": "tokenContract",
					"outputs": [
						{
							"internalType": "contract ITokenCreate",
							"name": "",
							"type": "address"
						}
					],
					"stateMutability": "view",
					"type": "function"
				}
			],
			"devdoc": {
				"kind": "dev",
				"methods": {
					"createRequest(string)": {
						"details": "This function creates a new RequestId struct with provided patient details and calls the createRequest method of ITokenCreate contract, passing in patient.",
						"params": {
							"patient": "The name of the patient for whom this request is being created."
						}
					}
				},
				"version": 1
			},
			"evm": {
				"assembly": "    /* \"AssignContract.sol\":764:1538  contract AssignContract {... */\n  mstore(0x40, 0x80)\n    /* \"AssignContract.sol\":865:1000  constructor(address _doctor, address _tokenAddr) {... */\n  callvalue\n  dup1\n  iszero\n  tag_1\n  jumpi\n  revert(0x00, 0x00)\ntag_1:\n  pop\n  mload(0x40)\n  sub(codesize, bytecodeSize)\n  dup1\n  bytecodeSize\n  dup4\n  codecopy\n  dup2\n  dup2\n  add\n  0x40\n  mstore\n  dup2\n  add\n  swap1\n  tag_2\n  swap2\n  swap1\n  tag_3\n  jump\t// in\ntag_2:\n    /* \"AssignContract.sol\":934:941  _doctor */\n  dup2\n    /* \"AssignContract.sol\":925:931  doctor */\n  0x00\n  0x00\n    /* \"AssignContract.sol\":925:941  doctor = _doctor */\n  0x0100\n  exp\n  dup2\n  sload\n  dup2\n  0xffffffffffffffffffffffffffffffffffffffff\n  mul\n  not\n  and\n  swap1\n  dup4\n  0xffffffffffffffffffffffffffffffffffffffff\n  and\n  mul\n  or\n  swap1\n  sstore\n  pop\n    /* \"AssignContract.sol\":981:991  _tokenAddr */\n  dup1\n    /* \"AssignContract.sol\":952:965  tokenContract */\n  0x01\n  0x00\n    /* \"AssignContract.sol\":952:992  tokenContract = ITokenCreate(_tokenAddr) */\n  0x0100\n  exp\n  dup2\n  sload\n  dup2\n  0xffffffffffffffffffffffffffffffffffffffff\n  mul\n  not\n  and\n  swap1\n  dup4\n  0xffffffffffffffffffffffffffffffffffffffff\n  and\n  mul\n  or\n  swap1\n  sstore\n  pop\n    /* \"AssignContract.sol\":865:1000  constructor(address _doctor, address _tokenAddr) {... */\n  pop\n  pop\n    /* \"AssignContract.sol\":764:1538  contract AssignContract {... */\n  jump(tag_6)\n    /* \"#utility.yul\":88:205   */\ntag_8:\n    /* \"#utility.yul\":197:198   */\n  0x00\n    /* \"#utility.yul\":194:195   */\n  0x00\n    /* \"#utility.yul\":187:199   */\n  revert\n    /* \"#utility.yul\":334:460   */\ntag_10:\n    /* \"#utility.yul\":371:378   */\n  0x00\n    /* \"#utility.yul\":411:453   */\n  0xffffffffffffffffffffffffffffffffffffffff\n    /* \"#utility.yul\":404:409   */\n  dup3\n    /* \"#utility.yul\":400:454   */\n  and\n    /* \"#utility.yul\":389:454   */\n  swap1\n  pop\n    /* \"#utility.yul\":334:460   */\n  swap2\n  swap1\n  pop\n  jump\t// out\n    /* \"#utility.yul\":466:562   */\ntag_11:\n    /* \"#utility.yul\":503:510   */\n  0x00\n    /* \"#utility.yul\":532:556   */\n  tag_20\n    /* \"#utility.yul\":550:555   */\n  dup3\n    /* \"#utility.yul\":532:556   */\n  tag_10\n  jump\t// in\ntag_20:\n    /* \"#utility.yul\":521:556   */\n  swap1\n  pop\n    /* \"#utility.yul\":466:562   */\n  swap2\n  swap1\n  pop\n  jump\t// out\n    /* \"#utility.yul\":568:690   */\ntag_12:\n    /* \"#utility.yul\":641:665   */\n  tag_22\n    /* \"#utility.yul\":659:664   */\n  dup2\n    /* \"#utility.yul\":641:665   */\n  tag_11\n  jump\t// in\ntag_22:\n    /* \"#utility.yul\":634:639   */\n  dup2\n    /* \"#utility.yul\":631:666   */\n  eq\n    /* \"#utility.yul\":621:684   */\n  tag_23\n  jumpi\n    /* \"#utility.yul\":680:681   */\n  0x00\n    /* \"#utility.yul\":677:678   */\n  0x00\n    /* \"#utility.yul\":670:682   */\n  revert\n    /* \"#utility.yul\":621:684   */\ntag_23:\n    /* \"#utility.yul\":568:690   */\n  pop\n  jump\t// out\n    /* \"#utility.yul\":696:839   */\ntag_13:\n    /* \"#utility.yul\":753:758   */\n  0x00\n    /* \"#utility.yul\":784:790   */\n  dup2\n    /* \"#utility.yul\":778:791   */\n  mload\n    /* \"#utility.yul\":769:791   */\n  swap1\n  pop\n    /* \"#utility.yul\":800:833   */\n  tag_25\n    /* \"#utility.yul\":827:832   */\n  dup2\n    /* \"#utility.yul\":800:833   */\n  tag_12\n  jump\t// in\ntag_25:\n    /* \"#utility.yul\":696:839   */\n  swap3\n  swap2\n  pop\n  pop\n  jump\t// out\n    /* \"#utility.yul\":845:1352   */\ntag_3:\n    /* \"#utility.yul\":924:930   */\n  0x00\n    /* \"#utility.yul\":932:938   */\n  0x00\n    /* \"#utility.yul\":981:983   */\n  0x40\n    /* \"#utility.yul\":969:978   */\n  dup4\n    /* \"#utility.yul\":960:967   */\n  dup6\n    /* \"#utility.yul\":956:979   */\n  sub\n    /* \"#utility.yul\":952:984   */\n  slt\n    /* \"#utility.yul\":949:1068   */\n  iszero\n  tag_27\n  jumpi\n    /* \"#utility.yul\":987:1066   */\n  tag_28\n  tag_8\n  jump\t// in\ntag_28:\n    /* \"#utility.yul\":949:1068   */\ntag_27:\n    /* \"#utility.yul\":1107:1108   */\n  0x00\n    /* \"#utility.yul\":1132:1196   */\n  tag_29\n    /* \"#utility.yul\":1188:1195   */\n  dup6\n    /* \"#utility.yul\":1179:1185   */\n  dup3\n    /* \"#utility.yul\":1168:1177   */\n  dup7\n    /* \"#utility.yul\":1164:1186   */\n  add\n    /* \"#utility.yul\":1132:1196   */\n  tag_13\n  jump\t// in\ntag_29:\n    /* \"#utility.yul\":1122:1196   */\n  swap3\n  pop\n    /* \"#utility.yul\":1078:1206   */\n  pop\n    /* \"#utility.yul\":1245:1247   */\n  0x20\n    /* \"#utility.yul\":1271:1335   */\n  tag_30\n    /* \"#utility.yul\":1327:1334   */\n  dup6\n    /* \"#utility.yul\":1318:1324   */\n  dup3\n    /* \"#utility.yul\":1307:1316   */\n  dup7\n    /* \"#utility.yul\":1303:1325   */\n  add\n    /* \"#utility.yul\":1271:1335   */\n  tag_13\n  jump\t// in\ntag_30:\n    /* \"#utility.yul\":1261:1335   */\n  swap2\n  pop\n    /* \"#utility.yul\":1216:1345   */\n  pop\n    /* \"#utility.yul\":845:1352   */\n  swap3\n  pop\n  swap3\n  swap1\n  pop\n  jump\t// out\n    /* \"AssignContract.sol\":764:1538  contract AssignContract {... */\ntag_6:\n  dataSize(sub_0)\n  dup1\n  dataOffset(sub_0)\n  0x00\n  codecopy\n  0x00\n  return\nstop\n\nsub_0: assembly {\n        /* \"AssignContract.sol\":764:1538  contract AssignContract {... */\n      mstore(0x40, 0x80)\n      callvalue\n      dup1\n      iszero\n      tag_1\n      jumpi\n      revert(0x00, 0x00)\n    tag_1:\n      pop\n      jumpi(tag_2, lt(calldatasize, 0x04))\n      shr(0xe0, calldataload(0x00))\n      dup1\n      0x1b146ecf\n      eq\n      tag_3\n      jumpi\n      dup1\n      0x55a373d6\n      eq\n      tag_4\n      jumpi\n      dup1\n      0x7ea7118c\n      eq\n      tag_5\n      jumpi\n    tag_2:\n      revert(0x00, 0x00)\n        /* \"AssignContract.sol\":1409:1535  function createRequest(string memory patient) public onlyDoctor {... */\n    tag_3:\n      tag_6\n      0x04\n      dup1\n      calldatasize\n      sub\n      dup2\n      add\n      swap1\n      tag_7\n      swap2\n      swap1\n      tag_8\n      jump\t// in\n    tag_7:\n      tag_9\n      jump\t// in\n    tag_6:\n      stop\n        /* \"AssignContract.sol\":823:856  ITokenCreate public tokenContract */\n    tag_4:\n      tag_10\n      tag_11\n      jump\t// in\n    tag_10:\n      mload(0x40)\n      tag_12\n      swap2\n      swap1\n      tag_13\n      jump\t// in\n    tag_12:\n      mload(0x40)\n      dup1\n      swap2\n      sub\n      swap1\n      return\n        /* \"AssignContract.sol\":795:816  address public doctor */\n    tag_5:\n      tag_14\n      tag_15\n      jump\t// in\n    tag_14:\n      mload(0x40)\n      tag_16\n      swap2\n      swap1\n      tag_17\n      jump\t// in\n    tag_16:\n      mload(0x40)\n      dup1\n      swap2\n      sub\n      swap1\n      return\n        /* \"AssignContract.sol\":1409:1535  function createRequest(string memory patient) public onlyDoctor {... */\n    tag_9:\n        /* \"AssignContract.sol\":1063:1069  doctor */\n      0x00\n      0x00\n      swap1\n      sload\n      swap1\n      0x0100\n      exp\n      swap1\n      div\n      0xffffffffffffffffffffffffffffffffffffffff\n      and\n        /* \"AssignContract.sol\":1049:1069  msg.sender == doctor */\n      0xffffffffffffffffffffffffffffffffffffffff\n      and\n        /* \"AssignContract.sol\":1049:1059  msg.sender */\n      caller\n        /* \"AssignContract.sol\":1049:1069  msg.sender == doctor */\n      0xffffffffffffffffffffffffffffffffffffffff\n      and\n      eq\n        /* \"AssignContract.sol\":1041:1085  require(msg.sender == doctor, \"Only doctor\") */\n      tag_19\n      jumpi\n      mload(0x40)\n      0x08c379a000000000000000000000000000000000000000000000000000000000\n      dup2\n      mstore\n      0x04\n      add\n      tag_20\n      swap1\n      tag_21\n      jump\t// in\n    tag_20:\n      mload(0x40)\n      dup1\n      swap2\n      sub\n      swap1\n      revert\n    tag_19:\n        /* \"AssignContract.sol\":1484:1497  tokenContract */\n      0x01\n      0x00\n      swap1\n      sload\n      swap1\n      0x0100\n      exp\n      swap1\n      div\n      0xffffffffffffffffffffffffffffffffffffffff\n      and\n        /* \"AssignContract.sol\":1484:1511  tokenContract.createRequest */\n      0xffffffffffffffffffffffffffffffffffffffff\n      and\n      0x2f045b02\n        /* \"AssignContract.sol\":1512:1519  patient */\n      dup3\n        /* \"AssignContract.sol\":1521:1526  false */\n      0x00\n        /* \"AssignContract.sol\":1484:1527  tokenContract.createRequest(patient, false) */\n      mload(0x40)\n      dup4\n      0xffffffff\n      and\n      0xe0\n      shl\n      dup2\n      mstore\n      0x04\n      add\n      tag_23\n      swap3\n      swap2\n      swap1\n      tag_24\n      jump\t// in\n    tag_23:\n      0x00\n      mload(0x40)\n      dup1\n      dup4\n      sub\n      dup2\n      0x00\n      dup8\n      dup1\n      extcodesize\n      iszero\n      dup1\n      iszero\n      tag_25\n      jumpi\n      revert(0x00, 0x00)\n    tag_25:\n      pop\n      gas\n      call\n      iszero\n      dup1\n      iszero\n      tag_27\n      jumpi\n      returndatacopy(0x00, 0x00, returndatasize)\n      revert(0x00, returndatasize)\n    tag_27:\n      pop\n      pop\n      pop\n      pop\n        /* \"AssignContract.sol\":1409:1535  function createRequest(string memory patient) public onlyDoctor {... */\n      pop\n      jump\t// out\n        /* \"AssignContract.sol\":823:856  ITokenCreate public tokenContract */\n    tag_11:\n      0x01\n      0x00\n      swap1\n      sload\n      swap1\n      0x0100\n      exp\n      swap1\n      div\n      0xffffffffffffffffffffffffffffffffffffffff\n      and\n      dup2\n      jump\t// out\n        /* \"AssignContract.sol\":795:816  address public doctor */\n    tag_15:\n      0x00\n      0x00\n      swap1\n      sload\n      swap1\n      0x0100\n      exp\n      swap1\n      div\n      0xffffffffffffffffffffffffffffffffffffffff\n      and\n      dup2\n      jump\t// out\n        /* \"#utility.yul\":7:82   */\n    tag_28:\n        /* \"#utility.yul\":40:46   */\n      0x00\n        /* \"#utility.yul\":73:75   */\n      0x40\n        /* \"#utility.yul\":67:76   */\n      mload\n        /* \"#utility.yul\":57:76   */\n      swap1\n      pop\n        /* \"#utility.yul\":7:82   */\n      swap1\n      jump\t// out\n        /* \"#utility.yul\":88:205   */\n    tag_29:\n        /* \"#utility.yul\":197:198   */\n      0x00\n        /* \"#utility.yul\":194:195   */\n      0x00\n        /* \"#utility.yul\":187:199   */\n      revert\n        /* \"#utility.yul\":211:328   */\n    tag_30:\n        /* \"#utility.yul\":320:321   */\n      0x00\n        /* \"#utility.yul\":317:318   */\n      0x00\n        /* \"#utility.yul\":310:322   */\n      revert\n        /* \"#utility.yul\":334:451   */\n    tag_31:\n        /* \"#utility.yul\":443:444   */\n      0x00\n        /* \"#utility.yul\":440:441   */\n      0x00\n        /* \"#utility.yul\":433:445   */\n      revert\n        /* \"#utility.yul\":457:574   */\n    tag_32:\n        /* \"#utility.yul\":566:567   */\n      0x00\n        /* \"#utility.yul\":563:564   */\n      0x00\n        /* \"#utility.yul\":556:568   */\n      revert\n        /* \"#utility.yul\":580:682   */\n    tag_33:\n        /* \"#utility.yul\":621:627   */\n      0x00\n        /* \"#utility.yul\":672:674   */\n      0x1f\n        /* \"#utility.yul\":668:675   */\n      not\n        /* \"#utility.yul\":663:665   */\n      0x1f\n        /* \"#utility.yul\":656:661   */\n      dup4\n        /* \"#utility.yul\":652:666   */\n      add\n        /* \"#utility.yul\":648:676   */\n      and\n        /* \"#utility.yul\":638:676   */\n      swap1\n      pop\n        /* \"#utility.yul\":580:682   */\n      swap2\n      swap1\n      pop\n      jump\t// out\n        /* \"#utility.yul\":688:868   */\n    tag_34:\n        /* \"#utility.yul\":736:813   */\n      0x4e487b7100000000000000000000000000000000000000000000000000000000\n        /* \"#utility.yul\":733:734   */\n      0x00\n        /* \"#utility.yul\":726:814   */\n      mstore\n        /* \"#utility.yul\":833:837   */\n      0x41\n        /* \"#utility.yul\":830:831   */\n      0x04\n        /* \"#utility.yul\":823:838   */\n      mstore\n        /* \"#utility.yul\":857:861   */\n      0x24\n        /* \"#utility.yul\":854:855   */\n      0x00\n        /* \"#utility.yul\":847:862   */\n      revert\n        /* \"#utility.yul\":874:1155   */\n    tag_35:\n        /* \"#utility.yul\":957:984   */\n      tag_66\n        /* \"#utility.yul\":979:983   */\n      dup3\n        /* \"#utility.yul\":957:984   */\n      tag_33\n      jump\t// in\n    tag_66:\n        /* \"#utility.yul\":949:955   */\n      dup2\n        /* \"#utility.yul\":945:985   */\n      add\n        /* \"#utility.yul\":1087:1093   */\n      dup2\n        /* \"#utility.yul\":1075:1085   */\n      dup2\n        /* \"#utility.yul\":1072:1094   */\n      lt\n        /* \"#utility.yul\":1051:1069   */\n      0xffffffffffffffff\n        /* \"#utility.yul\":1039:1049   */\n      dup3\n        /* \"#utility.yul\":1036:1070   */\n      gt\n        /* \"#utility.yul\":1033:1095   */\n      or\n        /* \"#utility.yul\":1030:1118   */\n      iszero\n      tag_67\n      jumpi\n        /* \"#utility.yul\":1098:1116   */\n      tag_68\n      tag_34\n      jump\t// in\n    tag_68:\n        /* \"#utility.yul\":1030:1118   */\n    tag_67:\n        /* \"#utility.yul\":1138:1148   */\n      dup1\n        /* \"#utility.yul\":1134:1136   */\n      0x40\n        /* \"#utility.yul\":1127:1149   */\n      mstore\n        /* \"#utility.yul\":917:1155   */\n      pop\n        /* \"#utility.yul\":874:1155   */\n      pop\n      pop\n      jump\t// out\n        /* \"#utility.yul\":1161:1290   */\n    tag_36:\n        /* \"#utility.yul\":1195:1201   */\n      0x00\n        /* \"#utility.yul\":1222:1242   */\n      tag_70\n      tag_28\n      jump\t// in\n    tag_70:\n        /* \"#utility.yul\":1212:1242   */\n      swap1\n      pop\n        /* \"#utility.yul\":1251:1284   */\n      tag_71\n        /* \"#utility.yul\":1279:1283   */\n      dup3\n        /* \"#utility.yul\":1271:1277   */\n      dup3\n        /* \"#utility.yul\":1251:1284   */\n      tag_35\n      jump\t// in\n    tag_71:\n        /* \"#utility.yul\":1161:1290   */\n      swap2\n      swap1\n      pop\n      jump\t// out\n        /* \"#utility.yul\":1296:1604   */\n    tag_37:\n        /* \"#utility.yul\":1358:1362   */\n      0x00\n        /* \"#utility.yul\":1448:1466   */\n      0xffffffffffffffff\n        /* \"#utility.yul\":1440:1446   */\n      dup3\n        /* \"#utility.yul\":1437:1467   */\n      gt\n        /* \"#utility.yul\":1434:1490   */\n      iszero\n      tag_73\n      jumpi\n        /* \"#utility.yul\":1470:1488   */\n      tag_74\n      tag_34\n      jump\t// in\n    tag_74:\n        /* \"#utility.yul\":1434:1490   */\n    tag_73:\n        /* \"#utility.yul\":1508:1537   */\n      tag_75\n        /* \"#utility.yul\":1530:1536   */\n      dup3\n        /* \"#utility.yul\":1508:1537   */\n      tag_33\n      jump\t// in\n    tag_75:\n        /* \"#utility.yul\":1500:1537   */\n      swap1\n      pop\n        /* \"#utility.yul\":1592:1596   */\n      0x20\n        /* \"#utility.yul\":1586:1590   */\n      dup2\n        /* \"#utility.yul\":1582:1597   */\n      add\n        /* \"#utility.yul\":1574:1597   */\n      swap1\n      pop\n        /* \"#utility.yul\":1296:1604   */\n      swap2\n      swap1\n      pop\n      jump\t// out\n        /* \"#utility.yul\":1610:1758   */\n    tag_38:\n        /* \"#utility.yul\":1708:1714   */\n      dup3\n        /* \"#utility.yul\":1703:1706   */\n      dup2\n        /* \"#utility.yul\":1698:1701   */\n      dup4\n        /* \"#utility.yul\":1685:1715   */\n      calldatacopy\n        /* \"#utility.yul\":1749:1750   */\n      0x00\n        /* \"#utility.yul\":1740:1746   */\n      dup4\n        /* \"#utility.yul\":1735:1738   */\n      dup4\n        /* \"#utility.yul\":1731:1747   */\n      add\n        /* \"#utility.yul\":1724:1751   */\n      mstore\n        /* \"#utility.yul\":1610:1758   */\n      pop\n      pop\n      pop\n      jump\t// out\n        /* \"#utility.yul\":1764:2189   */\n    tag_39:\n        /* \"#utility.yul\":1842:1847   */\n      0x00\n        /* \"#utility.yul\":1867:1933   */\n      tag_78\n        /* \"#utility.yul\":1883:1932   */\n      tag_79\n        /* \"#utility.yul\":1925:1931   */\n      dup5\n        /* \"#utility.yul\":1883:1932   */\n      tag_37\n      jump\t// in\n    tag_79:\n        /* \"#utility.yul\":1867:1933   */\n      tag_36\n      jump\t// in\n    tag_78:\n        /* \"#utility.yul\":1858:1933   */\n      swap1\n      pop\n        /* \"#utility.yul\":1956:1962   */\n      dup3\n        /* \"#utility.yul\":1949:1954   */\n      dup2\n        /* \"#utility.yul\":1942:1963   */\n      mstore\n        /* \"#utility.yul\":1994:1998   */\n      0x20\n        /* \"#utility.yul\":1987:1992   */\n      dup2\n        /* \"#utility.yul\":1983:1999   */\n      add\n        /* \"#utility.yul\":2032:2035   */\n      dup5\n        /* \"#utility.yul\":2023:2029   */\n      dup5\n        /* \"#utility.yul\":2018:2021   */\n      dup5\n        /* \"#utility.yul\":2014:2030   */\n      add\n        /* \"#utility.yul\":2011:2036   */\n      gt\n        /* \"#utility.yul\":2008:2120   */\n      iszero\n      tag_80\n      jumpi\n        /* \"#utility.yul\":2039:2118   */\n      tag_81\n      tag_32\n      jump\t// in\n    tag_81:\n        /* \"#utility.yul\":2008:2120   */\n    tag_80:\n        /* \"#utility.yul\":2129:2183   */\n      tag_82\n        /* \"#utility.yul\":2176:2182   */\n      dup5\n        /* \"#utility.yul\":2171:2174   */\n      dup3\n        /* \"#utility.yul\":2166:2169   */\n      dup6\n        /* \"#utility.yul\":2129:2183   */\n      tag_38\n      jump\t// in\n    tag_82:\n        /* \"#utility.yul\":1848:2189   */\n      pop\n        /* \"#utility.yul\":1764:2189   */\n      swap4\n      swap3\n      pop\n      pop\n      pop\n      jump\t// out\n        /* \"#utility.yul\":2209:2549   */\n    tag_40:\n        /* \"#utility.yul\":2265:2270   */\n      0x00\n        /* \"#utility.yul\":2314:2317   */\n      dup3\n        /* \"#utility.yul\":2307:2311   */\n      0x1f\n        /* \"#utility.yul\":2299:2305   */\n      dup4\n        /* \"#utility.yul\":2295:2312   */\n      add\n        /* \"#utility.yul\":2291:2318   */\n      slt\n        /* \"#utility.yul\":2281:2403   */\n      tag_84\n      jumpi\n        /* \"#utility.yul\":2322:2401   */\n      tag_85\n      tag_31\n      jump\t// in\n    tag_85:\n        /* \"#utility.yul\":2281:2403   */\n    tag_84:\n        /* \"#utility.yul\":2439:2445   */\n      dup2\n        /* \"#utility.yul\":2426:2446   */\n      calldataload\n        /* \"#utility.yul\":2464:2543   */\n      tag_86\n        /* \"#utility.yul\":2539:2542   */\n      dup5\n        /* \"#utility.yul\":2531:2537   */\n      dup3\n        /* \"#utility.yul\":2524:2528   */\n      0x20\n        /* \"#utility.yul\":2516:2522   */\n      dup7\n        /* \"#utility.yul\":2512:2529   */\n      add\n        /* \"#utility.yul\":2464:2543   */\n      tag_39\n      jump\t// in\n    tag_86:\n        /* \"#utility.yul\":2455:2543   */\n      swap2\n      pop\n        /* \"#utility.yul\":2271:2549   */\n      pop\n        /* \"#utility.yul\":2209:2549   */\n      swap3\n      swap2\n      pop\n      pop\n      jump\t// out\n        /* \"#utility.yul\":2555:3064   */\n    tag_8:\n        /* \"#utility.yul\":2624:2630   */\n      0x00\n        /* \"#utility.yul\":2673:2675   */\n      0x20\n        /* \"#utility.yul\":2661:2670   */\n      dup3\n        /* \"#utility.yul\":2652:2659   */\n      dup5\n        /* \"#utility.yul\":2648:2671   */\n      sub\n        /* \"#utility.yul\":2644:2676   */\n      slt\n        /* \"#utility.yul\":2641:2760   */\n      iszero\n      tag_88\n      jumpi\n        /* \"#utility.yul\":2679:2758   */\n      tag_89\n      tag_29\n      jump\t// in\n    tag_89:\n        /* \"#utility.yul\":2641:2760   */\n    tag_88:\n        /* \"#utility.yul\":2827:2828   */\n      0x00\n        /* \"#utility.yul\":2816:2825   */\n      dup3\n        /* \"#utility.yul\":2812:2829   */\n      add\n        /* \"#utility.yul\":2799:2830   */\n      calldataload\n        /* \"#utility.yul\":2857:2875   */\n      0xffffffffffffffff\n        /* \"#utility.yul\":2849:2855   */\n      dup2\n        /* \"#utility.yul\":2846:2876   */\n      gt\n        /* \"#utility.yul\":2843:2960   */\n      iszero\n      tag_90\n      jumpi\n        /* \"#utility.yul\":2879:2958   */\n      tag_91\n      tag_30\n      jump\t// in\n    tag_91:\n        /* \"#utility.yul\":2843:2960   */\n    tag_90:\n        /* \"#utility.yul\":2984:3047   */\n      tag_92\n        /* \"#utility.yul\":3039:3046   */\n      dup5\n        /* \"#utility.yul\":3030:3036   */\n      dup3\n        /* \"#utility.yul\":3019:3028   */\n      dup6\n        /* \"#utility.yul\":3015:3037   */\n      add\n        /* \"#utility.yul\":2984:3047   */\n      tag_40\n      jump\t// in\n    tag_92:\n        /* \"#utility.yul\":2974:3047   */\n      swap2\n      pop\n        /* \"#utility.yul\":2770:3057   */\n      pop\n        /* \"#utility.yul\":2555:3064   */\n      swap3\n      swap2\n      pop\n      pop\n      jump\t// out\n        /* \"#utility.yul\":3070:3196   */\n    tag_41:\n        /* \"#utility.yul\":3107:3114   */\n      0x00\n        /* \"#utility.yul\":3147:3189   */\n      0xffffffffffffffffffffffffffffffffffffffff\n        /* \"#utility.yul\":3140:3145   */\n      dup3\n        /* \"#utility.yul\":3136:3190   */\n      and\n        /* \"#utility.yul\":3125:3190   */\n      swap1\n      pop\n        /* \"#utility.yul\":3070:3196   */\n      swap2\n      swap1\n      pop\n      jump\t// out\n        /* \"#utility.yul\":3202:3262   */\n    tag_42:\n        /* \"#utility.yul\":3230:3233   */\n      0x00\n        /* \"#utility.yul\":3251:3256   */\n      dup2\n        /* \"#utility.yul\":3244:3256   */\n      swap1\n      pop\n        /* \"#utility.yul\":3202:3262   */\n      swap2\n      swap1\n      pop\n      jump\t// out\n        /* \"#utility.yul\":3268:3410   */\n    tag_43:\n        /* \"#utility.yul\":3318:3327   */\n      0x00\n        /* \"#utility.yul\":3351:3404   */\n      tag_96\n        /* \"#utility.yul\":3369:3403   */\n      tag_97\n        /* \"#utility.yul\":3378:3402   */\n      tag_98\n        /* \"#utility.yul\":3396:3401   */\n      dup5\n        /* \"#utility.yul\":3378:3402   */\n      tag_41\n      jump\t// in\n    tag_98:\n        /* \"#utility.yul\":3369:3403   */\n      tag_42\n      jump\t// in\n    tag_97:\n        /* \"#utility.yul\":3351:3404   */\n      tag_41\n      jump\t// in\n    tag_96:\n        /* \"#utility.yul\":3338:3404   */\n      swap1\n      pop\n        /* \"#utility.yul\":3268:3410   */\n      swap2\n      swap1\n      pop\n      jump\t// out\n        /* \"#utility.yul\":3416:3542   */\n    tag_44:\n        /* \"#utility.yul\":3466:3475   */\n      0x00\n        /* \"#utility.yul\":3499:3536   */\n      tag_100\n        /* \"#utility.yul\":3530:3535   */\n      dup3\n        /* \"#utility.yul\":3499:3536   */\n      tag_43\n      jump\t// in\n    tag_100:\n        /* \"#utility.yul\":3486:3536   */\n      swap1\n      pop\n        /* \"#utility.yul\":3416:3542   */\n      swap2\n      swap1\n      pop\n      jump\t// out\n        /* \"#utility.yul\":3548:3693   */\n    tag_45:\n        /* \"#utility.yul\":3617:3626   */\n      0x00\n        /* \"#utility.yul\":3650:3687   */\n      tag_102\n        /* \"#utility.yul\":3681:3686   */\n      dup3\n        /* \"#utility.yul\":3650:3687   */\n      tag_44\n      jump\t// in\n    tag_102:\n        /* \"#utility.yul\":3637:3687   */\n      swap1\n      pop\n        /* \"#utility.yul\":3548:3693   */\n      swap2\n      swap1\n      pop\n      jump\t// out\n        /* \"#utility.yul\":3699:3868   */\n    tag_46:\n        /* \"#utility.yul\":3805:3861   */\n      tag_104\n        /* \"#utility.yul\":3855:3860   */\n      dup2\n        /* \"#utility.yul\":3805:3861   */\n      tag_45\n      jump\t// in\n    tag_104:\n        /* \"#utility.yul\":3800:3803   */\n      dup3\n        /* \"#utility.yul\":3793:3862   */\n      mstore\n        /* \"#utility.yul\":3699:3868   */\n      pop\n      pop\n      jump\t// out\n        /* \"#utility.yul\":3874:4134   */\n    tag_13:\n        /* \"#utility.yul\":3986:3990   */\n      0x00\n        /* \"#utility.yul\":4024:4026   */\n      0x20\n        /* \"#utility.yul\":4013:4022   */\n      dup3\n        /* \"#utility.yul\":4009:4027   */\n      add\n        /* \"#utility.yul\":4001:4027   */\n      swap1\n      pop\n        /* \"#utility.yul\":4037:4127   */\n      tag_106\n        /* \"#utility.yul\":4124:4125   */\n      0x00\n        /* \"#utility.yul\":4113:4122   */\n      dup4\n        /* \"#utility.yul\":4109:4126   */\n      add\n        /* \"#utility.yul\":4100:4106   */\n      dup5\n        /* \"#utility.yul\":4037:4127   */\n      tag_46\n      jump\t// in\n    tag_106:\n        /* \"#utility.yul\":3874:4134   */\n      swap3\n      swap2\n      pop\n      pop\n      jump\t// out\n        /* \"#utility.yul\":4140:4236   */\n    tag_47:\n        /* \"#utility.yul\":4177:4184   */\n      0x00\n        /* \"#utility.yul\":4206:4230   */\n      tag_108\n        /* \"#utility.yul\":4224:4229   */\n      dup3\n        /* \"#utility.yul\":4206:4230   */\n      tag_41\n      jump\t// in\n    tag_108:\n        /* \"#utility.yul\":4195:4230   */\n      swap1\n      pop\n        /* \"#utility.yul\":4140:4236   */\n      swap2\n      swap1\n      pop\n      jump\t// out\n        /* \"#utility.yul\":4242:4360   */\n    tag_48:\n        /* \"#utility.yul\":4329:4353   */\n      tag_110\n        /* \"#utility.yul\":4347:4352   */\n      dup2\n        /* \"#utility.yul\":4329:4353   */\n      tag_47\n      jump\t// in\n    tag_110:\n        /* \"#utility.yul\":4324:4327   */\n      dup3\n        /* \"#utility.yul\":4317:4354   */\n      mstore\n        /* \"#utility.yul\":4242:4360   */\n      pop\n      pop\n      jump\t// out\n        /* \"#utility.yul\":4366:4588   */\n    tag_17:\n        /* \"#utility.yul\":4459:4463   */\n      0x00\n        /* \"#utility.yul\":4497:4499   */\n      0x20\n        /* \"#utility.yul\":4486:4495   */\n      dup3\n        /* \"#utility.yul\":4482:4500   */\n      add\n        /* \"#utility.yul\":4474:4500   */\n      swap1\n      pop\n        /* \"#utility.yul\":4510:4581   */\n      tag_112\n        /* \"#utility.yul\":4578:4579   */\n      0x00\n        /* \"#utility.yul\":4567:4576   */\n      dup4\n        /* \"#utility.yul\":4563:4580   */\n      add\n        /* \"#utility.yul\":4554:4560   */\n      dup5\n        /* \"#utility.yul\":4510:4581   */\n      tag_48\n      jump\t// in\n    tag_112:\n        /* \"#utility.yul\":4366:4588   */\n      swap3\n      swap2\n      pop\n      pop\n      jump\t// out\n        /* \"#utility.yul\":4594:4763   */\n    tag_49:\n        /* \"#utility.yul\":4678:4689   */\n      0x00\n        /* \"#utility.yul\":4712:4718   */\n      dup3\n        /* \"#utility.yul\":4707:4710   */\n      dup3\n        /* \"#utility.yul\":4700:4719   */\n      mstore\n        /* \"#utility.yul\":4752:4756   */\n      0x20\n        /* \"#utility.yul\":4747:4750   */\n      dup3\n        /* \"#utility.yul\":4743:4757   */\n      add\n        /* \"#utility.yul\":4728:4757   */\n      swap1\n      pop\n        /* \"#utility.yul\":4594:4763   */\n      swap3\n      swap2\n      pop\n      pop\n      jump\t// out\n        /* \"#utility.yul\":4769:4930   */\n    tag_50:\n        /* \"#utility.yul\":4909:4922   */\n      0x4f6e6c7920646f63746f72000000000000000000000000000000000000000000\n        /* \"#utility.yul\":4905:4906   */\n      0x00\n        /* \"#utility.yul\":4897:4903   */\n      dup3\n        /* \"#utility.yul\":4893:4907   */\n      add\n        /* \"#utility.yul\":4886:4923   */\n      mstore\n        /* \"#utility.yul\":4769:4930   */\n      pop\n      jump\t// out\n        /* \"#utility.yul\":4936:5302   */\n    tag_51:\n        /* \"#utility.yul\":5078:5081   */\n      0x00\n        /* \"#utility.yul\":5099:5166   */\n      tag_116\n        /* \"#utility.yul\":5163:5165   */\n      0x0b\n        /* \"#utility.yul\":5158:5161   */\n      dup4\n        /* \"#utility.yul\":5099:5166   */\n      tag_49\n      jump\t// in\n    tag_116:\n        /* \"#utility.yul\":5092:5166   */\n      swap2\n      pop\n        /* \"#utility.yul\":5175:5268   */\n      tag_117\n        /* \"#utility.yul\":5264:5267   */\n      dup3\n        /* \"#utility.yul\":5175:5268   */\n      tag_50\n      jump\t// in\n    tag_117:\n        /* \"#utility.yul\":5293:5295   */\n      0x20\n        /* \"#utility.yul\":5288:5291   */\n      dup3\n        /* \"#utility.yul\":5284:5296   */\n      add\n        /* \"#utility.yul\":5277:5296   */\n      swap1\n      pop\n        /* \"#utility.yul\":4936:5302   */\n      swap2\n      swap1\n      pop\n      jump\t// out\n        /* \"#utility.yul\":5308:5727   */\n    tag_21:\n        /* \"#utility.yul\":5474:5478   */\n      0x00\n        /* \"#utility.yul\":5512:5514   */\n      0x20\n        /* \"#utility.yul\":5501:5510   */\n      dup3\n        /* \"#utility.yul\":5497:5515   */\n      add\n        /* \"#utility.yul\":5489:5515   */\n      swap1\n      pop\n        /* \"#utility.yul\":5561:5570   */\n      dup2\n        /* \"#utility.yul\":5555:5559   */\n      dup2\n        /* \"#utility.yul\":5551:5571   */\n      sub\n        /* \"#utility.yul\":5547:5548   */\n      0x00\n        /* \"#utility.yul\":5536:5545   */\n      dup4\n        /* \"#utility.yul\":5532:5549   */\n      add\n        /* \"#utility.yul\":5525:5572   */\n      mstore\n        /* \"#utility.yul\":5589:5720   */\n      tag_119\n        /* \"#utility.yul\":5715:5719   */\n      dup2\n        /* \"#utility.yul\":5589:5720   */\n      tag_51\n      jump\t// in\n    tag_119:\n        /* \"#utility.yul\":5581:5720   */\n      swap1\n      pop\n        /* \"#utility.yul\":5308:5727   */\n      swap2\n      swap1\n      pop\n      jump\t// out\n        /* \"#utility.yul\":5733:5832   */\n    tag_52:\n        /* \"#utility.yul\":5785:5791   */\n      0x00\n        /* \"#utility.yul\":5819:5824   */\n      dup2\n        /* \"#utility.yul\":5813:5825   */\n      mload\n        /* \"#utility.yul\":5803:5825   */\n      swap1\n      pop\n        /* \"#utility.yul\":5733:5832   */\n      swap2\n      swap1\n      pop\n      jump\t// out\n        /* \"#utility.yul\":5838:5977   */\n    tag_53:\n        /* \"#utility.yul\":5927:5933   */\n      dup3\n        /* \"#utility.yul\":5922:5925   */\n      dup2\n        /* \"#utility.yul\":5917:5920   */\n      dup4\n        /* \"#utility.yul\":5911:5934   */\n      mcopy\n        /* \"#utility.yul\":5968:5969   */\n      0x00\n        /* \"#utility.yul\":5959:5965   */\n      dup4\n        /* \"#utility.yul\":5954:5957   */\n      dup4\n        /* \"#utility.yul\":5950:5966   */\n      add\n        /* \"#utility.yul\":5943:5970   */\n      mstore\n        /* \"#utility.yul\":5838:5977   */\n      pop\n      pop\n      pop\n      jump\t// out\n        /* \"#utility.yul\":5983:6360   */\n    tag_54:\n        /* \"#utility.yul\":6071:6074   */\n      0x00\n        /* \"#utility.yul\":6099:6138   */\n      tag_123\n        /* \"#utility.yul\":6132:6137   */\n      dup3\n        /* \"#utility.yul\":6099:6138   */\n      tag_52\n      jump\t// in\n    tag_123:\n        /* \"#utility.yul\":6154:6225   */\n      tag_124\n        /* \"#utility.yul\":6218:6224   */\n      dup2\n        /* \"#utility.yul\":6213:6216   */\n      dup6\n        /* \"#utility.yul\":6154:6225   */\n      tag_49\n      jump\t// in\n    tag_124:\n        /* \"#utility.yul\":6147:6225   */\n      swap4\n      pop\n        /* \"#utility.yul\":6234:6299   */\n      tag_125\n        /* \"#utility.yul\":6292:6298   */\n      dup2\n        /* \"#utility.yul\":6287:6290   */\n      dup6\n        /* \"#utility.yul\":6280:6284   */\n      0x20\n        /* \"#utility.yul\":6273:6278   */\n      dup7\n        /* \"#utility.yul\":6269:6285   */\n      add\n        /* \"#utility.yul\":6234:6299   */\n      tag_53\n      jump\t// in\n    tag_125:\n        /* \"#utility.yul\":6324:6353   */\n      tag_126\n        /* \"#utility.yul\":6346:6352   */\n      dup2\n        /* \"#utility.yul\":6324:6353   */\n      tag_33\n      jump\t// in\n    tag_126:\n        /* \"#utility.yul\":6319:6322   */\n      dup5\n        /* \"#utility.yul\":6315:6354   */\n      add\n        /* \"#utility.yul\":6308:6354   */\n      swap2\n      pop\n        /* \"#utility.yul\":6075:6360   */\n      pop\n        /* \"#utility.yul\":5983:6360   */\n      swap3\n      swap2\n      pop\n      pop\n      jump\t// out\n        /* \"#utility.yul\":6366:6456   */\n    tag_55:\n        /* \"#utility.yul\":6400:6407   */\n      0x00\n        /* \"#utility.yul\":6443:6448   */\n      dup2\n        /* \"#utility.yul\":6436:6449   */\n      iszero\n        /* \"#utility.yul\":6429:6450   */\n      iszero\n        /* \"#utility.yul\":6418:6450   */\n      swap1\n      pop\n        /* \"#utility.yul\":6366:6456   */\n      swap2\n      swap1\n      pop\n      jump\t// out\n        /* \"#utility.yul\":6462:6571   */\n    tag_56:\n        /* \"#utility.yul\":6543:6564   */\n      tag_129\n        /* \"#utility.yul\":6558:6563   */\n      dup2\n        /* \"#utility.yul\":6543:6564   */\n      tag_55\n      jump\t// in\n    tag_129:\n        /* \"#utility.yul\":6538:6541   */\n      dup3\n        /* \"#utility.yul\":6531:6565   */\n      mstore\n        /* \"#utility.yul\":6462:6571   */\n      pop\n      pop\n      jump\t// out\n        /* \"#utility.yul\":6577:6988   */\n    tag_24:\n        /* \"#utility.yul\":6712:6716   */\n      0x00\n        /* \"#utility.yul\":6750:6752   */\n      0x40\n        /* \"#utility.yul\":6739:6748   */\n      dup3\n        /* \"#utility.yul\":6735:6753   */\n      add\n        /* \"#utility.yul\":6727:6753   */\n      swap1\n      pop\n        /* \"#utility.yul\":6799:6808   */\n      dup2\n        /* \"#utility.yul\":6793:6797   */\n      dup2\n        /* \"#utility.yul\":6789:6809   */\n      sub\n        /* \"#utility.yul\":6785:6786   */\n      0x00\n        /* \"#utility.yul\":6774:6783   */\n      dup4\n        /* \"#utility.yul\":6770:6787   */\n      add\n        /* \"#utility.yul\":6763:6810   */\n      mstore\n        /* \"#utility.yul\":6827:6905   */\n      tag_131\n        /* \"#utility.yul\":6900:6904   */\n      dup2\n        /* \"#utility.yul\":6891:6897   */\n      dup6\n        /* \"#utility.yul\":6827:6905   */\n      tag_54\n      jump\t// in\n    tag_131:\n        /* \"#utility.yul\":6819:6905   */\n      swap1\n      pop\n        /* \"#utility.yul\":6915:6981   */\n      tag_132\n        /* \"#utility.yul\":6977:6979   */\n      0x20\n        /* \"#utility.yul\":6966:6975   */\n      dup4\n        /* \"#utility.yul\":6962:6980   */\n      add\n        /* \"#utility.yul\":6953:6959   */\n      dup5\n        /* \"#utility.yul\":6915:6981   */\n      tag_56\n      jump\t// in\n    tag_132:\n        /* \"#utility.yul\":6577:6988   */\n      swap4\n      swap3\n      pop\n      pop\n      pop\n      jump\t// out\n\n    auxdata: 0xa26469706673582212201790652db134af5564b658a8c171df9a2fa2f5146573b8eea73762147be12e8364736f6c634300081e0033\n}\n",
				"bytecode": {
					"linkReferences": {},
					"object": "608060405234801561000f575f5ffd5b5060405161070438038061070483398181016040528101906100319190610115565b815f5f6101000a81548173ffffffffffffffffffffffffffffffffffffffff021916908373ffffffffffffffffffffffffffffffffffffffff1602179055508060015f6101000a81548173ffffffffffffffffffffffffffffffffffffffff021916908373ffffffffffffffffffffffffffffffffffffffff1602179055505050610153565b5f5ffd5b5f73ffffffffffffffffffffffffffffffffffffffff82169050919050565b5f6100e4826100bb565b9050919050565b6100f4816100da565b81146100fe575f5ffd5b50565b5f8151905061010f816100eb565b92915050565b5f5f6040838503121561012b5761012a6100b7565b5b5f61013885828601610101565b925050602061014985828601610101565b9150509250929050565b6105a4806101605f395ff3fe608060405234801561000f575f5ffd5b506004361061003f575f3560e01c80631b146ecf1461004357806355a373d61461005f5780637ea7118c1461007d575b5f5ffd5b61005d6004803603810190610058919061034b565b61009b565b005b6100676101b5565b604051610074919061040c565b60405180910390f35b6100856101da565b6040516100929190610445565b60405180910390f35b5f5f9054906101000a900473ffffffffffffffffffffffffffffffffffffffff1673ffffffffffffffffffffffffffffffffffffffff163373ffffffffffffffffffffffffffffffffffffffff1614610129576040517f08c379a0000000000000000000000000000000000000000000000000000000008152600401610120906104b8565b60405180910390fd5b60015f9054906101000a900473ffffffffffffffffffffffffffffffffffffffff1673ffffffffffffffffffffffffffffffffffffffff16632f045b02825f6040518363ffffffff1660e01b8152600401610185929190610540565b5f604051808303815f87803b15801561019c575f5ffd5b505af11580156101ae573d5f5f3e3d5ffd5b5050505050565b60015f9054906101000a900473ffffffffffffffffffffffffffffffffffffffff1681565b5f5f9054906101000a900473ffffffffffffffffffffffffffffffffffffffff1681565b5f604051905090565b5f5ffd5b5f5ffd5b5f5ffd5b5f5ffd5b5f601f19601f8301169050919050565b7f4e487b71000000000000000000000000000000000000000000000000000000005f52604160045260245ffd5b61025d82610217565b810181811067ffffffffffffffff8211171561027c5761027b610227565b5b80604052505050565b5f61028e6101fe565b905061029a8282610254565b919050565b5f67ffffffffffffffff8211156102b9576102b8610227565b5b6102c282610217565b9050602081019050919050565b828183375f83830152505050565b5f6102ef6102ea8461029f565b610285565b90508281526020810184848401111561030b5761030a610213565b5b6103168482856102cf565b509392505050565b5f82601f8301126103325761033161020f565b5b81356103428482602086016102dd565b91505092915050565b5f602082840312156103605761035f610207565b5b5f82013567ffffffffffffffff81111561037d5761037c61020b565b5b6103898482850161031e565b91505092915050565b5f73ffffffffffffffffffffffffffffffffffffffff82169050919050565b5f819050919050565b5f6103d46103cf6103ca84610392565b6103b1565b610392565b9050919050565b5f6103e5826103ba565b9050919050565b5f6103f6826103db565b9050919050565b610406816103ec565b82525050565b5f60208201905061041f5f8301846103fd565b92915050565b5f61042f82610392565b9050919050565b61043f81610425565b82525050565b5f6020820190506104585f830184610436565b92915050565b5f82825260208201905092915050565b7f4f6e6c7920646f63746f720000000000000000000000000000000000000000005f82015250565b5f6104a2600b8361045e565b91506104ad8261046e565b602082019050919050565b5f6020820190508181035f8301526104cf81610496565b9050919050565b5f81519050919050565b8281835e5f83830152505050565b5f6104f8826104d6565b610502818561045e565b93506105128185602086016104e0565b61051b81610217565b840191505092915050565b5f8115159050919050565b61053a81610526565b82525050565b5f6040820190508181035f83015261055881856104ee565b90506105676020830184610531565b939250505056fea26469706673582212201790652db134af5564b658a8c171df9a2fa2f5146573b8eea73762147be12e8364736f6c634300081e0033",
					"opcodes": "PUSH1 0x80 PUSH1 0x40 MSTORE CALLVALUE DUP1 ISZERO PUSH2 0xF JUMPI PUSH0 PUSH0 REVERT JUMPDEST POP PUSH1 0x40 MLOAD PUSH2 0x704 CODESIZE SUB DUP1 PUSH2 0x704 DUP4 CODECOPY DUP2 DUP2 ADD PUSH1 0x40 MSTORE DUP2 ADD SWAP1 PUSH2 0x31 SWAP2 SWAP1 PUSH2 0x115 JUMP JUMPDEST DUP2 PUSH0 PUSH0 PUSH2 0x100 EXP DUP2 SLOAD DUP2 PUSH20 0xFFFFFFFFFFFFFFFFFFFFFFFFFFFFFFFFFFFFFFFF MUL NOT AND SWAP1 DUP4 PUSH20 0xFFFFFFFFFFFFFFFFFFFFFFFFFFFFFFFFFFFFFFFF AND MUL OR SWAP1 SSTORE POP DUP1 PUSH1 0x1 PUSH0 PUSH2 0x100 EXP DUP2 SLOAD DUP2 PUSH20 0xFFFFFFFFFFFFFFFFFFFFFFFFFFFFFFFFFFFFFFFF MUL NOT AND SWAP1 DUP4 PUSH20 0xFFFFFFFFFFFFFFFFFFFFFFFFFFFFFFFFFFFFFFFF AND MUL OR SWAP1 SSTORE POP POP POP PUSH2 0x153 JUMP JUMPDEST PUSH0 PUSH0 REVERT JUMPDEST PUSH0 PUSH20 0xFFFFFFFFFFFFFFFFFFFFFFFFFFFFFFFFFFFFFFFF DUP3 AND SWAP1 POP SWAP2 SWAP1 POP JUMP JUMPDEST PUSH0 PUSH2 0xE4 DUP3 PUSH2 0xBB JUMP JUMPDEST SWAP1 POP SWAP2 SWAP1 POP JUMP JUMPDEST PUSH2 0xF4 DUP2 PUSH2 0xDA JUMP JUMPDEST DUP2 EQ PUSH2 0xFE JUMPI PUSH0 PUSH0 REVERT JUMPDEST POP JUMP JUMPDEST PUSH0 DUP2 MLOAD SWAP1 POP PUSH2 0x10F DUP2 PUSH2 0xEB JUMP JUMPDEST SWAP3 SWAP2 POP POP JUMP JUMPDEST PUSH0 PUSH0 PUSH1 0x40 DUP4 DUP6 SUB SLT ISZERO PUSH2 0x12B JUMPI PUSH2 0x12A PUSH2 0xB7 JUMP JUMPDEST JUMPDEST PUSH0 PUSH2 0x138 DUP6 DUP3 DUP7 ADD PUSH2 0x101 JUMP JUMPDEST SWAP3 POP POP PUSH1 0x20 PUSH2 0x149 DUP6 DUP3 DUP7 ADD PUSH2 0x101 JUMP JUMPDEST SWAP2 POP POP SWAP3 POP SWAP3 SWAP1 POP JUMP JUMPDEST PUSH2 0x5A4 DUP1 PUSH2 0x160 PUSH0 CODECOPY PUSH0 RETURN INVALID PUSH1 0x80 PUSH1 0x40 MSTORE CALLVALUE DUP1 ISZERO PUSH2 0xF JUMPI PUSH0 PUSH0 REVERT JUMPDEST POP PUSH1 0x4 CALLDATASIZE LT PUSH2 0x3F JUMPI PUSH0 CALLDATALOAD PUSH1 0xE0 SHR DUP1 PUSH4 0x1B146ECF EQ PUSH2 0x43 JUMPI DUP1 PUSH4 0x55A373D6 EQ PUSH2 0x5F JUMPI DUP1 PUSH4 0x7EA7118C EQ PUSH2 0x7D JUMPI JUMPDEST PUSH0 PUSH0 REVERT JUMPDEST PUSH2 0x5D PUSH1 0x4 DUP1 CALLDATASIZE SUB DUP2 ADD SWAP1 PUSH2 0x58 SWAP2 SWAP1 PUSH2 0x34B JUMP JUMPDEST PUSH2 0x9B JUMP JUMPDEST STOP JUMPDEST PUSH2 0x67 PUSH2 0x1B5 JUMP JUMPDEST PUSH1 0x40 MLOAD PUSH2 0x74 SWAP2 SWAP1 PUSH2 0x40C JUMP JUMPDEST PUSH1 0x40 MLOAD DUP1 SWAP2 SUB SWAP1 RETURN JUMPDEST PUSH2 0x85 PUSH2 0x1DA JUMP JUMPDEST PUSH1 0x40 MLOAD PUSH2 0x92 SWAP2 SWAP1 PUSH2 0x445 JUMP JUMPDEST PUSH1 0x40 MLOAD DUP1 SWAP2 SUB SWAP1 RETURN JUMPDEST PUSH0 PUSH0 SWAP1 SLOAD SWAP1 PUSH2 0x100 EXP SWAP1 DIV PUSH20 0xFFFFFFFFFFFFFFFFFFFFFFFFFFFFFFFFFFFFFFFF AND PUSH20 0xFFFFFFFFFFFFFFFFFFFFFFFFFFFFFFFFFFFFFFFF AND CALLER PUSH20 0xFFFFFFFFFFFFFFFFFFFFFFFFFFFFFFFFFFFFFFFF AND EQ PUSH2 0x129 JUMPI PUSH1 0x40 MLOAD PUSH32 0x8C379A000000000000000000000000000000000000000000000000000000000 DUP2 MSTORE PUSH1 0x4 ADD PUSH2 0x120 SWAP1 PUSH2 0x4B8 JUMP JUMPDEST PUSH1 0x40 MLOAD DUP1 SWAP2 SUB SWAP1 REVERT JUMPDEST PUSH1 0x1 PUSH0 SWAP1 SLOAD SWAP1 PUSH2 0x100 EXP SWAP1 DIV PUSH20 0xFFFFFFFFFFFFFFFFFFFFFFFFFFFFFFFFFFFFFFFF AND PUSH20 0xFFFFFFFFFFFFFFFFFFFFFFFFFFFFFFFFFFFFFFFF AND PUSH4 0x2F045B02 DUP3 PUSH0 PUSH1 0x40 MLOAD DUP4 PUSH4 0xFFFFFFFF AND PUSH1 0xE0 SHL DUP2 MSTORE PUSH1 0x4 ADD PUSH2 0x185 SWAP3 SWAP2 SWAP1 PUSH2 0x540 JUMP JUMPDEST PUSH0 PUSH1 0x40 MLOAD DUP1 DUP4 SUB DUP2 PUSH0 DUP8 DUP1 EXTCODESIZE ISZERO DUP1 ISZERO PUSH2 0x19C JUMPI PUSH0 PUSH0 REVERT JUMPDEST POP GAS CALL ISZERO DUP1 ISZERO PUSH2 0x1AE JUMPI RETURNDATASIZE PUSH0 PUSH0 RETURNDATACOPY RETURNDATASIZE PUSH0 REVERT JUMPDEST POP POP POP POP POP JUMP JUMPDEST PUSH1 0x1 PUSH0 SWAP1 SLOAD SWAP1 PUSH2 0x100 EXP SWAP1 DIV PUSH20 0xFFFFFFFFFFFFFFFFFFFFFFFFFFFFFFFFFFFFFFFF AND DUP2 JUMP JUMPDEST PUSH0 PUSH0 SWAP1 SLOAD SWAP1 PUSH2 0x100 EXP SWAP1 DIV PUSH20 0xFFFFFFFFFFFFFFFFFFFFFFFFFFFFFFFFFFFFFFFF AND DUP2 JUMP JUMPDEST PUSH0 PUSH1 0x40 MLOAD SWAP1 POP SWAP1 JUMP JUMPDEST PUSH0 PUSH0 REVERT JUMPDEST PUSH0 PUSH0 REVERT JUMPDEST PUSH0 PUSH0 REVERT JUMPDEST PUSH0 PUSH0 REVERT JUMPDEST PUSH0 PUSH1 0x1F NOT PUSH1 0x1F DUP4 ADD AND SWAP1 POP SWAP2 SWAP1 POP JUMP JUMPDEST PUSH32 0x4E487B7100000000000000000000000000000000000000000000000000000000 PUSH0 MSTORE PUSH1 0x41 PUSH1 0x4 MSTORE PUSH1 0x24 PUSH0 REVERT JUMPDEST PUSH2 0x25D DUP3 PUSH2 0x217 JUMP JUMPDEST DUP2 ADD DUP2 DUP2 LT PUSH8 0xFFFFFFFFFFFFFFFF DUP3 GT OR ISZERO PUSH2 0x27C JUMPI PUSH2 0x27B PUSH2 0x227 JUMP JUMPDEST JUMPDEST DUP1 PUSH1 0x40 MSTORE POP POP POP JUMP JUMPDEST PUSH0 PUSH2 0x28E PUSH2 0x1FE JUMP JUMPDEST SWAP1 POP PUSH2 0x29A DUP3 DUP3 PUSH2 0x254 JUMP JUMPDEST SWAP2 SWAP1 POP JUMP JUMPDEST PUSH0 PUSH8 0xFFFFFFFFFFFFFFFF DUP3 GT ISZERO PUSH2 0x2B9 JUMPI PUSH2 0x2B8 PUSH2 0x227 JUMP JUMPDEST JUMPDEST PUSH2 0x2C2 DUP3 PUSH2 0x217 JUMP JUMPDEST SWAP1 POP PUSH1 0x20 DUP2 ADD SWAP1 POP SWAP2 SWAP1 POP JUMP JUMPDEST DUP3 DUP2 DUP4 CALLDATACOPY PUSH0 DUP4 DUP4 ADD MSTORE POP POP POP JUMP JUMPDEST PUSH0 PUSH2 0x2EF PUSH2 0x2EA DUP5 PUSH2 0x29F JUMP JUMPDEST PUSH2 0x285 JUMP JUMPDEST SWAP1 POP DUP3 DUP2 MSTORE PUSH1 0x20 DUP2 ADD DUP5 DUP5 DUP5 ADD GT ISZERO PUSH2 0x30B JUMPI PUSH2 0x30A PUSH2 0x213 JUMP JUMPDEST JUMPDEST PUSH2 0x316 DUP5 DUP3 DUP6 PUSH2 0x2CF JUMP JUMPDEST POP SWAP4 SWAP3 POP POP POP JUMP JUMPDEST PUSH0 DUP3 PUSH1 0x1F DUP4 ADD SLT PUSH2 0x332 JUMPI PUSH2 0x331 PUSH2 0x20F JUMP JUMPDEST JUMPDEST DUP2 CALLDATALOAD PUSH2 0x342 DUP5 DUP3 PUSH1 0x20 DUP7 ADD PUSH2 0x2DD JUMP JUMPDEST SWAP2 POP POP SWAP3 SWAP2 POP POP JUMP JUMPDEST PUSH0 PUSH1 0x20 DUP3 DUP5 SUB SLT ISZERO PUSH2 0x360 JUMPI PUSH2 0x35F PUSH2 0x207 JUMP JUMPDEST JUMPDEST PUSH0 DUP3 ADD CALLDATALOAD PUSH8 0xFFFFFFFFFFFFFFFF DUP2 GT ISZERO PUSH2 0x37D JUMPI PUSH2 0x37C PUSH2 0x20B JUMP JUMPDEST JUMPDEST PUSH2 0x389 DUP5 DUP3 DUP6 ADD PUSH2 0x31E JUMP JUMPDEST SWAP2 POP POP SWAP3 SWAP2 POP POP JUMP JUMPDEST PUSH0 PUSH20 0xFFFFFFFFFFFFFFFFFFFFFFFFFFFFFFFFFFFFFFFF DUP3 AND SWAP1 POP SWAP2 SWAP1 POP JUMP JUMPDEST PUSH0 DUP2 SWAP1 POP SWAP2 SWAP1 POP JUMP JUMPDEST PUSH0 PUSH2 0x3D4 PUSH2 0x3CF PUSH2 0x3CA DUP5 PUSH2 0x392 JUMP JUMPDEST PUSH2 0x3B1 JUMP JUMPDEST PUSH2 0x392 JUMP JUMPDEST SWAP1 POP SWAP2 SWAP1 POP JUMP JUMPDEST PUSH0 PUSH2 0x3E5 DUP3 PUSH2 0x3BA JUMP JUMPDEST SWAP1 POP SWAP2 SWAP1 POP JUMP JUMPDEST PUSH0 PUSH2 0x3F6 DUP3 PUSH2 0x3DB JUMP JUMPDEST SWAP1 POP SWAP2 SWAP1 POP JUMP JUMPDEST PUSH2 0x406 DUP2 PUSH2 0x3EC JUMP JUMPDEST DUP3 MSTORE POP POP JUMP JUMPDEST PUSH0 PUSH1 0x20 DUP3 ADD SWAP1 POP PUSH2 0x41F PUSH0 DUP4 ADD DUP5 PUSH2 0x3FD JUMP JUMPDEST SWAP3 SWAP2 POP POP JUMP JUMPDEST PUSH0 PUSH2 0x42F DUP3 PUSH2 0x392 JUMP JUMPDEST SWAP1 POP SWAP2 SWAP1 POP JUMP JUMPDEST PUSH2 0x43F DUP2 PUSH2 0x425 JUMP JUMPDEST DUP3 MSTORE POP POP JUMP JUMPDEST PUSH0 PUSH1 0x20 DUP3 ADD SWAP1 POP PUSH2 0x458 PUSH0 DUP4 ADD DUP5 PUSH2 0x436 JUMP JUMPDEST SWAP3 SWAP2 POP POP JUMP JUMPDEST PUSH0 DUP3 DUP3 MSTORE PUSH1 0x20 DUP3 ADD SWAP1 POP SWAP3 SWAP2 POP POP JUMP JUMPDEST PUSH32 0x4F6E6C7920646F63746F72000000000000000000000000000000000000000000 PUSH0 DUP3 ADD MSTORE POP JUMP JUMPDEST PUSH0 PUSH2 0x4A2 PUSH1 0xB DUP4 PUSH2 0x45E JUMP JUMPDEST SWAP2 POP PUSH2 0x4AD DUP3 PUSH2 0x46E JUMP JUMPDEST PUSH1 0x20 DUP3 ADD SWAP1 POP SWAP2 SWAP1 POP JUMP JUMPDEST PUSH0 PUSH1 0x20 DUP3 ADD SWAP1 POP DUP2 DUP2 SUB PUSH0 DUP4 ADD MSTORE PUSH2 0x4CF DUP2 PUSH2 0x496 JUMP JUMPDEST SWAP1 POP SWAP2 SWAP1 POP JUMP JUMPDEST PUSH0 DUP2 MLOAD SWAP1 POP SWAP2 SWAP1 POP JUMP JUMPDEST DUP3 DUP2 DUP4 MCOPY PUSH0 DUP4 DUP4 ADD MSTORE POP POP POP JUMP JUMPDEST PUSH0 PUSH2 0x4F8 DUP3 PUSH2 0x4D6 JUMP JUMPDEST PUSH2 0x502 DUP2 DUP6 PUSH2 0x45E JUMP JUMPDEST SWAP4 POP PUSH2 0x512 DUP2 DUP6 PUSH1 0x20 DUP7 ADD PUSH2 0x4E0 JUMP JUMPDEST PUSH2 0x51B DUP2 PUSH2 0x217 JUMP JUMPDEST DUP5 ADD SWAP2 POP POP SWAP3 SWAP2 POP POP JUMP JUMPDEST PUSH0 DUP2 ISZERO ISZERO SWAP1 POP SWAP2 SWAP1 POP JUMP JUMPDEST PUSH2 0x53A DUP2 PUSH2 0x526 JUMP JUMPDEST DUP3 MSTORE POP POP JUMP JUMPDEST PUSH0 PUSH1 0x40 DUP3 ADD SWAP1 POP DUP2 DUP2 SUB PUSH0 DUP4 ADD MSTORE PUSH2 0x558 DUP2 DUP6 PUSH2 0x4EE JUMP JUMPDEST SWAP1 POP PUSH2 0x567 PUSH1 0x20 DUP4 ADD DUP5 PUSH2 0x531 JUMP JUMPDEST SWAP4 SWAP3 POP POP POP JUMP INVALID LOG2 PUSH5 0x6970667358 0x22 SLT KECCAK256 OR SWAP1 PUSH6 0x2DB134AF5564 0xB6 PC 0xA8 0xC1 PUSH18 0xDF9A2FA2F5146573B8EEA73762147BE12E83 PUSH5 0x736F6C6343 STOP ADDMOD 0x1E STOP CALLER "
				},
				"gasEstimates": {
					"creation": {
						"codeDepositCost": "288800",
						"executionCost": "infinite",
						"totalCost": "infinite"
					},
					"external": {
						"createRequest(string)": "infinite",
						"doctor()": "2529",
						"tokenContract()": "infinite"
					}
				},
				"methodIdentifiers": {
					"createRequest(string)": "1b146ecf",
					"doctor()": "7ea7118c",
					"tokenContract()": "55a373d6"
				}
			},
			"storageLayout": {
				"storage": [
					{
						"astId": 65,
						"contract": "AssignContract.sol:AssignContract",
						"label": "doctor",
						"offset": 0,
						"slot": "0",
						"type": "t_address"
					},
					{
						"astId": 68,
						"contract": "AssignContract.sol:AssignContract",
						"label": "tokenContract",
						"offset": 0,
						"slot": "1",
						"type": "t_contract(ITokenCreate)63"
					}
				],
				"types": {
					"t_address": {
						"encoding": "inplace",
						"label": "address",
						"numberOfBytes": "20"
					},
					"t_contract(ITokenCreate)63": {
						"encoding": "inplace",
						"label": "contract ITokenCreate",
						"numberOfBytes": "20"
					}
				}
			},
			"userdoc": {
				"kind": "user",
				"methods": {
					"createRequest(string)": {
						"notice": "Creates a new request."
					}
				},
				"version": 1
			}
		}
	}
}