{
	"AvailabilityContract.sol": {
		"AvailableContract": {
			"abi": [
				{
					"inputs": [
						{
							"internalType": "address",
							"name": "_healthcare",
							"type": "address"
						},
						{
							"internalType": "address",
							"name": "_tokenAddr",
							"type": "address"
						}
					],
					"stateMutability": "nonpayable",
					"type": "constructor"
				},
				{
					"anonymous": false,
					"inputs": [
						{
							"indexed": false,
							"internalType": "uint256",
							"name": "requestId",
							"type": "uint256"
						}
					],
					"name": "requestAppoved",
					"type": "event"
				},
				{
					"inputs": [
						{
							"internalType": "uint256",
							"name": "requestId",
							"type": "uint256"
						}
					],
					"name": "approveRequest",
					"outputs": [],
					"stateMutability": "nonpayable",
					"type": "function"
				},
				{
					"inputs": [],
					"name": "healthcare",
					"outputs": [
						{
							"internalType": "address",
							"name": "",
							"type": "address"
						}
					],
					"stateMutability": "view",
					"type": "function"
				},
				{
					"inputs": [],
					"name": "tokenContract",
					"outputs": [
						{
							"internalType": "contract ITokenContract",
							"name": "",
							"type": "address"
						}
					],
					"stateMutability": "view",
					"type": "function"
				}
			],
			"devdoc": {
				"kind": "dev",
				"methods": {
					"approveRequest(uint256)": {
						"details": "This function iterates through all organs, finds one that is not assigned, has been consented to, evaluated, stored, but still available, updates the corresponding OrganId struct with the new donor information and emits an event indicating approval of a request. It also increments or decrements counters as needed.",
						"params": {
							"requestId": "The unique identifier of the request being approved."
						}
					}
				},
				"version": 1
			},
			"evm": {
				"assembly": "    /* \"AvailabilityContract.sol\":311:1591  contract AvailableContract {... */\n  mstore(0x40, 0x80)\n    /* \"AvailabilityContract.sol\":417:563  constructor(address _healthcare, address _tokenAddr) {... */\n  callvalue\n  dup1\n  iszero\n  tag_1\n  jumpi\n  0x00\n  dup1\n  revert\ntag_1:\n  pop\n  mload(0x40)\n  sub(codesize, bytecodeSize)\n  dup1\n  bytecodeSize\n  dup4\n  codecopy\n  dup2\n  dup2\n  add\n  0x40\n  mstore\n  dup2\n  add\n  swap1\n  tag_2\n  swap2\n  swap1\n  tag_3\n  jump\t// in\ntag_2:\n    /* \"AvailabilityContract.sol\":493:504  _healthcare */\n  dup2\n    /* \"AvailabilityContract.sol\":480:490  healthcare */\n  0x00\n  dup1\n    /* \"AvailabilityContract.sol\":480:504  healthcare = _healthcare */\n  0x0100\n  exp\n  dup2\n  sload\n  dup2\n  0xffffffffffffffffffffffffffffffffffffffff\n  mul\n  not\n  and\n  swap1\n  dup4\n  0xffffffffffffffffffffffffffffffffffffffff\n  and\n  mul\n  or\n  swap1\n  sstore\n  pop\n    /* \"AvailabilityContract.sol\":545:555  _tokenAddr */\n  dup1\n    /* \"AvailabilityContract.sol\":514:527  tokenContract */\n  0x01\n  0x00\n    /* \"AvailabilityContract.sol\":514:556  tokenContract = ITokenContract(_tokenAddr) */\n  0x0100\n  exp\n  dup2\n  sload\n  dup2\n  0xffffffffffffffffffffffffffffffffffffffff\n  mul\n  not\n  and\n  swap1\n  dup4\n  0xffffffffffffffffffffffffffffffffffffffff\n  and\n  mul\n  or\n  swap1\n  sstore\n  pop\n    /* \"AvailabilityContract.sol\":417:563  constructor(address _healthcare, address _tokenAddr) {... */\n  pop\n  pop\n    /* \"AvailabilityContract.sol\":311:1591  contract AvailableContract {... */\n  jump(tag_6)\n    /* \"#utility.yul\":88:205   */\ntag_8:\n    /* \"#utility.yul\":197:198   */\n  0x00\n    /* \"#utility.yul\":194:195   */\n  dup1\n    /* \"#utility.yul\":187:199   */\n  revert\n    /* \"#utility.yul\":334:460   */\ntag_10:\n    /* \"#utility.yul\":371:378   */\n  0x00\n    /* \"#utility.yul\":411:453   */\n  0xffffffffffffffffffffffffffffffffffffffff\n    /* \"#utility.yul\":404:409   */\n  dup3\n    /* \"#utility.yul\":400:454   */\n  and\n    /* \"#utility.yul\":389:454   */\n  swap1\n  pop\n    /* \"#utility.yul\":334:460   */\n  swap2\n  swap1\n  pop\n  jump\t// out\n    /* \"#utility.yul\":466:562   */\ntag_11:\n    /* \"#utility.yul\":503:510   */\n  0x00\n    /* \"#utility.yul\":532:556   */\n  tag_20\n    /* \"#utility.yul\":550:555   */\n  dup3\n    /* \"#utility.yul\":532:556   */\n  tag_10\n  jump\t// in\ntag_20:\n    /* \"#utility.yul\":521:556   */\n  swap1\n  pop\n    /* \"#utility.yul\":466:562   */\n  swap2\n  swap1\n  pop\n  jump\t// out\n    /* \"#utility.yul\":568:690   */\ntag_12:\n    /* \"#utility.yul\":641:665   */\n  tag_22\n    /* \"#utility.yul\":659:664   */\n  dup2\n    /* \"#utility.yul\":641:665   */\n  tag_11\n  jump\t// in\ntag_22:\n    /* \"#utility.yul\":634:639   */\n  dup2\n    /* \"#utility.yul\":631:666   */\n  eq\n    /* \"#utility.yul\":621:684   */\n  tag_23\n  jumpi\n    /* \"#utility.yul\":680:681   */\n  0x00\n    /* \"#utility.yul\":677:678   */\n  dup1\n    /* \"#utility.yul\":670:682   */\n  revert\n    /* \"#utility.yul\":621:684   */\ntag_23:\n    /* \"#utility.yul\":568:690   */\n  pop\n  jump\t// out\n    /* \"#utility.yul\":696:839   */\ntag_13:\n    /* \"#utility.yul\":753:758   */\n  0x00\n    /* \"#utility.yul\":784:790   */\n  dup2\n    /* \"#utility.yul\":778:791   */\n  mload\n    /* \"#utility.yul\":769:791   */\n  swap1\n  pop\n    /* \"#utility.yul\":800:833   */\n  tag_25\n    /* \"#utility.yul\":827:832   */\n  dup2\n    /* \"#utility.yul\":800:833   */\n  tag_12\n  jump\t// in\ntag_25:\n    /* \"#utility.yul\":696:839   */\n  swap3\n  swap2\n  pop\n  pop\n  jump\t// out\n    /* \"#utility.yul\":845:1352   */\ntag_3:\n    /* \"#utility.yul\":924:930   */\n  0x00\n    /* \"#utility.yul\":932:938   */\n  dup1\n    /* \"#utility.yul\":981:983   */\n  0x40\n    /* \"#utility.yul\":969:978   */\n  dup4\n    /* \"#utility.yul\":960:967   */\n  dup6\n    /* \"#utility.yul\":956:979   */\n  sub\n    /* \"#utility.yul\":952:984   */\n  slt\n    /* \"#utility.yul\":949:1068   */\n  iszero\n  tag_27\n  jumpi\n    /* \"#utility.yul\":987:1066   */\n  tag_28\n  tag_8\n  jump\t// in\ntag_28:\n    /* \"#utility.yul\":949:1068   */\ntag_27:\n    /* \"#utility.yul\":1107:1108   */\n  0x00\n    /* \"#utility.yul\":1132:1196   */\n  tag_29\n    /* \"#utility.yul\":1188:1195   */\n  dup6\n    /* \"#utility.yul\":1179:1185   */\n  dup3\n    /* \"#utility.yul\":1168:1177   */\n  dup7\n    /* \"#utility.yul\":1164:1186   */\n  add\n    /* \"#utility.yul\":1132:1196   */\n  tag_13\n  jump\t// in\ntag_29:\n    /* \"#utility.yul\":1122:1196   */\n  swap3\n  pop\n    /* \"#utility.yul\":1078:1206   */\n  pop\n    /* \"#utility.yul\":1245:1247   */\n  0x20\n    /* \"#utility.yul\":1271:1335   */\n  tag_30\n    /* \"#utility.yul\":1327:1334   */\n  dup6\n    /* \"#utility.yul\":1318:1324   */\n  dup3\n    /* \"#utility.yul\":1307:1316   */\n  dup7\n    /* \"#utility.yul\":1303:1325   */\n  add\n    /* \"#utility.yul\":1271:1335   */\n  tag_13\n  jump\t// in\ntag_30:\n    /* \"#utility.yul\":1261:1335   */\n  swap2\n  pop\n    /* \"#utility.yul\":1216:1345   */\n  pop\n    /* \"#utility.yul\":845:1352   */\n  swap3\n  pop\n  swap3\n  swap1\n  pop\n  jump\t// out\n    /* \"AvailabilityContract.sol\":311:1591  contract AvailableContract {... */\ntag_6:\n  dataSize(sub_0)\n  dup1\n  dataOffset(sub_0)\n  0x00\n  codecopy\n  0x00\n  return\nstop\n\nsub_0: assembly {\n        /* \"AvailabilityContract.sol\":311:1591  contract AvailableContract {... */\n      mstore(0x40, 0x80)\n      callvalue\n      dup1\n      iszero\n      tag_1\n      jumpi\n      0x00\n      dup1\n      revert\n    tag_1:\n      pop\n      jumpi(tag_2, lt(calldatasize, 0x04))\n      shr(0xe0, calldataload(0x00))\n      dup1\n      0x55a373d6\n      eq\n      tag_3\n      jumpi\n      dup1\n      0x6f76d1dc\n      eq\n      tag_4\n      jumpi\n      dup1\n      0xd7d1bbdb\n      eq\n      tag_5\n      jumpi\n    tag_2:\n      0x00\n      dup1\n      revert\n        /* \"AvailabilityContract.sol\":375:410  ITokenContract public tokenContract */\n    tag_3:\n      tag_6\n      tag_7\n      jump\t// in\n    tag_6:\n      mload(0x40)\n      tag_8\n      swap2\n      swap1\n      tag_9\n      jump\t// in\n    tag_8:\n      mload(0x40)\n      dup1\n      swap2\n      sub\n      swap1\n      return\n        /* \"AvailabilityContract.sol\":344:369  address public healthcare */\n    tag_4:\n      tag_10\n      tag_11\n      jump\t// in\n    tag_10:\n      mload(0x40)\n      tag_12\n      swap2\n      swap1\n      tag_13\n      jump\t// in\n    tag_12:\n      mload(0x40)\n      dup1\n      swap2\n      sub\n      swap1\n      return\n        /* \"AvailabilityContract.sol\":1198:1589  function approveRequest(uint256 requestId) public onlyHealthcare {... */\n    tag_5:\n      tag_14\n      0x04\n      dup1\n      calldatasize\n      sub\n      dup2\n      add\n      swap1\n      tag_15\n      swap2\n      swap1\n      tag_16\n      jump\t// in\n    tag_15:\n      tag_17\n      jump\t// in\n    tag_14:\n      stop\n        /* \"AvailabilityContract.sol\":375:410  ITokenContract public tokenContract */\n    tag_7:\n      0x01\n      0x00\n      swap1\n      sload\n      swap1\n      0x0100\n      exp\n      swap1\n      div\n      0xffffffffffffffffffffffffffffffffffffffff\n      and\n      dup2\n      jump\t// out\n        /* \"AvailabilityContract.sol\":344:369  address public healthcare */\n    tag_11:\n      0x00\n      dup1\n      sload\n      swap1\n      0x0100\n      exp\n      swap1\n      div\n      0xffffffffffffffffffffffffffffffffffffffff\n      and\n      dup2\n      jump\t// out\n        /* \"AvailabilityContract.sol\":1198:1589  function approveRequest(uint256 requestId) public onlyHealthcare {... */\n    tag_17:\n        /* \"AvailabilityContract.sol\":627:637  healthcare */\n      0x00\n      dup1\n      sload\n      swap1\n      0x0100\n      exp\n      swap1\n      div\n      0xffffffffffffffffffffffffffffffffffffffff\n      and\n        /* \"AvailabilityContract.sol\":613:637  msg.sender == healthcare */\n      0xffffffffffffffffffffffffffffffffffffffff\n      and\n        /* \"AvailabilityContract.sol\":613:623  msg.sender */\n      caller\n        /* \"AvailabilityContract.sol\":613:637  msg.sender == healthcare */\n      0xffffffffffffffffffffffffffffffffffffffff\n      and\n      eq\n        /* \"AvailabilityContract.sol\":605:657  require(msg.sender == healthcare, \"Only healthcare\") */\n      tag_19\n      jumpi\n      mload(0x40)\n      0x08c379a000000000000000000000000000000000000000000000000000000000\n      dup2\n      mstore\n      0x04\n      add\n      tag_20\n      swap1\n      tag_21\n      jump\t// in\n    tag_20:\n      mload(0x40)\n      dup1\n      swap2\n      sub\n      swap1\n      revert\n    tag_19:\n        /* \"AvailabilityContract.sol\":1273:1306  ITokenContract.RequestId memory r */\n      0x00\n        /* \"AvailabilityContract.sol\":1309:1322  tokenContract */\n      0x01\n      0x00\n      swap1\n      sload\n      swap1\n      0x0100\n      exp\n      swap1\n      div\n      0xffffffffffffffffffffffffffffffffffffffff\n      and\n        /* \"AvailabilityContract.sol\":1309:1333  tokenContract.getRequest */\n      0xffffffffffffffffffffffffffffffffffffffff\n      and\n      0xc58343ef\n        /* \"AvailabilityContract.sol\":1334:1343  requestId */\n      dup4\n        /* \"AvailabilityContract.sol\":1309:1344  tokenContract.getRequest(requestId) */\n      mload(0x40)\n      dup3\n      0xffffffff\n      and\n      0xe0\n      shl\n      dup2\n      mstore\n      0x04\n      add\n      tag_23\n      swap2\n      swap1\n      tag_24\n      jump\t// in\n    tag_23:\n      0x00\n      mload(0x40)\n      dup1\n      dup4\n      sub\n      dup2\n      dup7\n      gas\n      staticcall\n      iszero\n      dup1\n      iszero\n      tag_26\n      jumpi\n      returndatasize\n      0x00\n      dup1\n      returndatacopy\n      revert(0x00, returndatasize)\n    tag_26:\n      pop\n      pop\n      pop\n      pop\n      mload(0x40)\n      returndatasize\n      0x00\n      dup3\n      returndatacopy\n      returndatasize\n      not(0x1f)\n      0x1f\n      dup3\n      add\n      and\n      dup3\n      add\n      dup1\n      0x40\n      mstore\n      pop\n      dup2\n      add\n      swap1\n      tag_27\n      swap2\n      swap1\n      tag_28\n      jump\t// in\n    tag_27:\n        /* \"AvailabilityContract.sol\":1273:1344  ITokenContract.RequestId memory r = tokenContract.getRequest(requestId) */\n      swap1\n      pop\n        /* \"AvailabilityContract.sol\":1376:1377  r */\n      dup1\n        /* \"AvailabilityContract.sol\":1376:1388  r.isApproved */\n      0x20\n      add\n      mload\n        /* \"AvailabilityContract.sol\":1375:1388  !r.isApproved */\n      iszero\n        /* \"AvailabilityContract.sol\":1354:1461  require(... */\n      tag_29\n      jumpi\n      mload(0x40)\n      0x08c379a000000000000000000000000000000000000000000000000000000000\n      dup2\n      mstore\n      0x04\n      add\n      tag_30\n      swap1\n      tag_31\n      jump\t// in\n    tag_30:\n      mload(0x40)\n      dup1\n      swap2\n      sub\n      swap1\n      revert\n    tag_29:\n        /* \"AvailabilityContract.sol\":1486:1490  true */\n      0x01\n        /* \"AvailabilityContract.sol\":1471:1472  r */\n      dup2\n        /* \"AvailabilityContract.sol\":1471:1483  r.isApproved */\n      0x20\n      add\n        /* \"AvailabilityContract.sol\":1471:1490  r.isApproved = true */\n      swap1\n      iszero\n      iszero\n      swap1\n      dup2\n      iszero\n      iszero\n      dup2\n      mstore\n      pop\n      pop\n        /* \"AvailabilityContract.sol\":1500:1513  tokenContract */\n      0x01\n      0x00\n      swap1\n      sload\n      swap1\n      0x0100\n      exp\n      swap1\n      div\n      0xffffffffffffffffffffffffffffffffffffffff\n      and\n        /* \"AvailabilityContract.sol\":1500:1528  tokenContract.approveRequest */\n      0xffffffffffffffffffffffffffffffffffffffff\n      and\n      0x5be2218b\n        /* \"AvailabilityContract.sol\":1529:1538  requestId */\n      dup4\n        /* \"AvailabilityContract.sol\":1540:1541  r */\n      dup4\n        /* \"AvailabilityContract.sol\":1500:1542  tokenContract.approveRequest(requestId, r) */\n      mload(0x40)\n      dup4\n      0xffffffff\n      and\n      0xe0\n      shl\n      dup2\n      mstore\n      0x04\n      add\n      tag_32\n      swap3\n      swap2\n      swap1\n      tag_33\n      jump\t// in\n    tag_32:\n      0x00\n      mload(0x40)\n      dup1\n      dup4\n      sub\n      dup2\n      0x00\n      dup8\n      dup1\n      extcodesize\n      iszero\n      dup1\n      iszero\n      tag_34\n      jumpi\n      0x00\n      dup1\n      revert\n    tag_34:\n      pop\n      gas\n      call\n      iszero\n      dup1\n      iszero\n      tag_36\n      jumpi\n      returndatasize\n      0x00\n      dup1\n      returndatacopy\n      revert(0x00, returndatasize)\n    tag_36:\n      pop\n      pop\n      pop\n      pop\n        /* \"AvailabilityContract.sol\":1557:1582  requestAppoved(requestId) */\n      0xc232a927f368e129de98138c8db6614209e5edb570461302d0c1aedc9577a7f6\n        /* \"AvailabilityContract.sol\":1572:1581  requestId */\n      dup3\n        /* \"AvailabilityContract.sol\":1557:1582  requestAppoved(requestId) */\n      mload(0x40)\n      tag_37\n      swap2\n      swap1\n      tag_24\n      jump\t// in\n    tag_37:\n      mload(0x40)\n      dup1\n      swap2\n      sub\n      swap1\n      log1\n        /* \"AvailabilityContract.sol\":1263:1589  {... */\n      pop\n        /* \"AvailabilityContract.sol\":1198:1589  function approveRequest(uint256 requestId) public onlyHealthcare {... */\n      pop\n      jump\t// out\n        /* \"#utility.yul\":7:133   */\n    tag_38:\n        /* \"#utility.yul\":44:51   */\n      0x00\n        /* \"#utility.yul\":84:126   */\n      0xffffffffffffffffffffffffffffffffffffffff\n        /* \"#utility.yul\":77:82   */\n      dup3\n        /* \"#utility.yul\":73:127   */\n      and\n        /* \"#utility.yul\":62:127   */\n      swap1\n      pop\n        /* \"#utility.yul\":7:133   */\n      swap2\n      swap1\n      pop\n      jump\t// out\n        /* \"#utility.yul\":139:199   */\n    tag_39:\n        /* \"#utility.yul\":167:170   */\n      0x00\n        /* \"#utility.yul\":188:193   */\n      dup2\n        /* \"#utility.yul\":181:193   */\n      swap1\n      pop\n        /* \"#utility.yul\":139:199   */\n      swap2\n      swap1\n      pop\n      jump\t// out\n        /* \"#utility.yul\":205:347   */\n    tag_40:\n        /* \"#utility.yul\":255:264   */\n      0x00\n        /* \"#utility.yul\":288:341   */\n      tag_83\n        /* \"#utility.yul\":306:340   */\n      tag_84\n        /* \"#utility.yul\":315:339   */\n      tag_85\n        /* \"#utility.yul\":333:338   */\n      dup5\n        /* \"#utility.yul\":315:339   */\n      tag_38\n      jump\t// in\n    tag_85:\n        /* \"#utility.yul\":306:340   */\n      tag_39\n      jump\t// in\n    tag_84:\n        /* \"#utility.yul\":288:341   */\n      tag_38\n      jump\t// in\n    tag_83:\n        /* \"#utility.yul\":275:341   */\n      swap1\n      pop\n        /* \"#utility.yul\":205:347   */\n      swap2\n      swap1\n      pop\n      jump\t// out\n        /* \"#utility.yul\":353:479   */\n    tag_41:\n        /* \"#utility.yul\":403:412   */\n      0x00\n        /* \"#utility.yul\":436:473   */\n      tag_87\n        /* \"#utility.yul\":467:472   */\n      dup3\n        /* \"#utility.yul\":436:473   */\n      tag_40\n      jump\t// in\n    tag_87:\n        /* \"#utility.yul\":423:473   */\n      swap1\n      pop\n        /* \"#utility.yul\":353:479   */\n      swap2\n      swap1\n      pop\n      jump\t// out\n        /* \"#utility.yul\":485:632   */\n    tag_42:\n        /* \"#utility.yul\":556:565   */\n      0x00\n        /* \"#utility.yul\":589:626   */\n      tag_89\n        /* \"#utility.yul\":620:625   */\n      dup3\n        /* \"#utility.yul\":589:626   */\n      tag_41\n      jump\t// in\n    tag_89:\n        /* \"#utility.yul\":576:626   */\n      swap1\n      pop\n        /* \"#utility.yul\":485:632   */\n      swap2\n      swap1\n      pop\n      jump\t// out\n        /* \"#utility.yul\":638:811   */\n    tag_43:\n        /* \"#utility.yul\":746:804   */\n      tag_91\n        /* \"#utility.yul\":798:803   */\n      dup2\n        /* \"#utility.yul\":746:804   */\n      tag_42\n      jump\t// in\n    tag_91:\n        /* \"#utility.yul\":741:744   */\n      dup3\n        /* \"#utility.yul\":734:805   */\n      mstore\n        /* \"#utility.yul\":638:811   */\n      pop\n      pop\n      jump\t// out\n        /* \"#utility.yul\":817:1081   */\n    tag_9:\n        /* \"#utility.yul\":931:935   */\n      0x00\n        /* \"#utility.yul\":969:971   */\n      0x20\n        /* \"#utility.yul\":958:967   */\n      dup3\n        /* \"#utility.yul\":954:972   */\n      add\n        /* \"#utility.yul\":946:972   */\n      swap1\n      pop\n        /* \"#utility.yul\":982:1074   */\n      tag_93\n        /* \"#utility.yul\":1071:1072   */\n      0x00\n        /* \"#utility.yul\":1060:1069   */\n      dup4\n        /* \"#utility.yul\":1056:1073   */\n      add\n        /* \"#utility.yul\":1047:1053   */\n      dup5\n        /* \"#utility.yul\":982:1074   */\n      tag_43\n      jump\t// in\n    tag_93:\n        /* \"#utility.yul\":817:1081   */\n      swap3\n      swap2\n      pop\n      pop\n      jump\t// out\n        /* \"#utility.yul\":1087:1183   */\n    tag_44:\n        /* \"#utility.yul\":1124:1131   */\n      0x00\n        /* \"#utility.yul\":1153:1177   */\n      tag_95\n        /* \"#utility.yul\":1171:1176   */\n      dup3\n        /* \"#utility.yul\":1153:1177   */\n      tag_38\n      jump\t// in\n    tag_95:\n        /* \"#utility.yul\":1142:1177   */\n      swap1\n      pop\n        /* \"#utility.yul\":1087:1183   */\n      swap2\n      swap1\n      pop\n      jump\t// out\n        /* \"#utility.yul\":1189:1307   */\n    tag_45:\n        /* \"#utility.yul\":1276:1300   */\n      tag_97\n        /* \"#utility.yul\":1294:1299   */\n      dup2\n        /* \"#utility.yul\":1276:1300   */\n      tag_44\n      jump\t// in\n    tag_97:\n        /* \"#utility.yul\":1271:1274   */\n      dup3\n        /* \"#utility.yul\":1264:1301   */\n      mstore\n        /* \"#utility.yul\":1189:1307   */\n      pop\n      pop\n      jump\t// out\n        /* \"#utility.yul\":1313:1535   */\n    tag_13:\n        /* \"#utility.yul\":1406:1410   */\n      0x00\n        /* \"#utility.yul\":1444:1446   */\n      0x20\n        /* \"#utility.yul\":1433:1442   */\n      dup3\n        /* \"#utility.yul\":1429:1447   */\n      add\n        /* \"#utility.yul\":1421:1447   */\n      swap1\n      pop\n        /* \"#utility.yul\":1457:1528   */\n      tag_99\n        /* \"#utility.yul\":1525:1526   */\n      0x00\n        /* \"#utility.yul\":1514:1523   */\n      dup4\n        /* \"#utility.yul\":1510:1527   */\n      add\n        /* \"#utility.yul\":1501:1507   */\n      dup5\n        /* \"#utility.yul\":1457:1528   */\n      tag_45\n      jump\t// in\n    tag_99:\n        /* \"#utility.yul\":1313:1535   */\n      swap3\n      swap2\n      pop\n      pop\n      jump\t// out\n        /* \"#utility.yul\":1541:1616   */\n    tag_46:\n        /* \"#utility.yul\":1574:1580   */\n      0x00\n        /* \"#utility.yul\":1607:1609   */\n      0x40\n        /* \"#utility.yul\":1601:1610   */\n      mload\n        /* \"#utility.yul\":1591:1610   */\n      swap1\n      pop\n        /* \"#utility.yul\":1541:1616   */\n      swap1\n      jump\t// out\n        /* \"#utility.yul\":1622:1739   */\n    tag_47:\n        /* \"#utility.yul\":1731:1732   */\n      0x00\n        /* \"#utility.yul\":1728:1729   */\n      dup1\n        /* \"#utility.yul\":1721:1733   */\n      revert\n        /* \"#utility.yul\":1745:1862   */\n    tag_48:\n        /* \"#utility.yul\":1854:1855   */\n      0x00\n        /* \"#utility.yul\":1851:1852   */\n      dup1\n        /* \"#utility.yul\":1844:1856   */\n      revert\n        /* \"#utility.yul\":1868:1945   */\n    tag_49:\n        /* \"#utility.yul\":1905:1912   */\n      0x00\n        /* \"#utility.yul\":1934:1939   */\n      dup2\n        /* \"#utility.yul\":1923:1939   */\n      swap1\n      pop\n        /* \"#utility.yul\":1868:1945   */\n      swap2\n      swap1\n      pop\n      jump\t// out\n        /* \"#utility.yul\":1951:2073   */\n    tag_50:\n        /* \"#utility.yul\":2024:2048   */\n      tag_105\n        /* \"#utility.yul\":2042:2047   */\n      dup2\n        /* \"#utility.yul\":2024:2048   */\n      tag_49\n      jump\t// in\n    tag_105:\n        /* \"#utility.yul\":2017:2022   */\n      dup2\n        /* \"#utility.yul\":2014:2049   */\n      eq\n        /* \"#utility.yul\":2004:2067   */\n      tag_106\n      jumpi\n        /* \"#utility.yul\":2063:2064   */\n      0x00\n        /* \"#utility.yul\":2060:2061   */\n      dup1\n        /* \"#utility.yul\":2053:2065   */\n      revert\n        /* \"#utility.yul\":2004:2067   */\n    tag_106:\n        /* \"#utility.yul\":1951:2073   */\n      pop\n      jump\t// out\n        /* \"#utility.yul\":2079:2218   */\n    tag_51:\n        /* \"#utility.yul\":2125:2130   */\n      0x00\n        /* \"#utility.yul\":2163:2169   */\n      dup2\n        /* \"#utility.yul\":2150:2170   */\n      calldataload\n        /* \"#utility.yul\":2141:2170   */\n      swap1\n      pop\n        /* \"#utility.yul\":2179:2212   */\n      tag_108\n        /* \"#utility.yul\":2206:2211   */\n      dup2\n        /* \"#utility.yul\":2179:2212   */\n      tag_50\n      jump\t// in\n    tag_108:\n        /* \"#utility.yul\":2079:2218   */\n      swap3\n      swap2\n      pop\n      pop\n      jump\t// out\n        /* \"#utility.yul\":2224:2553   */\n    tag_16:\n        /* \"#utility.yul\":2283:2289   */\n      0x00\n        /* \"#utility.yul\":2332:2334   */\n      0x20\n        /* \"#utility.yul\":2320:2329   */\n      dup3\n        /* \"#utility.yul\":2311:2318   */\n      dup5\n        /* \"#utility.yul\":2307:2330   */\n      sub\n        /* \"#utility.yul\":2303:2335   */\n      slt\n        /* \"#utility.yul\":2300:2419   */\n      iszero\n      tag_110\n      jumpi\n        /* \"#utility.yul\":2338:2417   */\n      tag_111\n      tag_47\n      jump\t// in\n    tag_111:\n        /* \"#utility.yul\":2300:2419   */\n    tag_110:\n        /* \"#utility.yul\":2458:2459   */\n      0x00\n        /* \"#utility.yul\":2483:2536   */\n      tag_112\n        /* \"#utility.yul\":2528:2535   */\n      dup5\n        /* \"#utility.yul\":2519:2525   */\n      dup3\n        /* \"#utility.yul\":2508:2517   */\n      dup6\n        /* \"#utility.yul\":2504:2526   */\n      add\n        /* \"#utility.yul\":2483:2536   */\n      tag_51\n      jump\t// in\n    tag_112:\n        /* \"#utility.yul\":2473:2536   */\n      swap2\n      pop\n        /* \"#utility.yul\":2429:2546   */\n      pop\n        /* \"#utility.yul\":2224:2553   */\n      swap3\n      swap2\n      pop\n      pop\n      jump\t// out\n        /* \"#utility.yul\":2559:2728   */\n    tag_52:\n        /* \"#utility.yul\":2643:2654   */\n      0x00\n        /* \"#utility.yul\":2677:2683   */\n      dup3\n        /* \"#utility.yul\":2672:2675   */\n      dup3\n        /* \"#utility.yul\":2665:2684   */\n      mstore\n        /* \"#utility.yul\":2717:2721   */\n      0x20\n        /* \"#utility.yul\":2712:2715   */\n      dup3\n        /* \"#utility.yul\":2708:2722   */\n      add\n        /* \"#utility.yul\":2693:2722   */\n      swap1\n      pop\n        /* \"#utility.yul\":2559:2728   */\n      swap3\n      swap2\n      pop\n      pop\n      jump\t// out\n        /* \"#utility.yul\":2734:2899   */\n    tag_53:\n        /* \"#utility.yul\":2874:2891   */\n      0x4f6e6c79206865616c7468636172650000000000000000000000000000000000\n        /* \"#utility.yul\":2870:2871   */\n      0x00\n        /* \"#utility.yul\":2862:2868   */\n      dup3\n        /* \"#utility.yul\":2858:2872   */\n      add\n        /* \"#utility.yul\":2851:2892   */\n      mstore\n        /* \"#utility.yul\":2734:2899   */\n      pop\n      jump\t// out\n        /* \"#utility.yul\":2905:3271   */\n    tag_54:\n        /* \"#utility.yul\":3047:3050   */\n      0x00\n        /* \"#utility.yul\":3068:3135   */\n      tag_116\n        /* \"#utility.yul\":3132:3134   */\n      0x0f\n        /* \"#utility.yul\":3127:3130   */\n      dup4\n        /* \"#utility.yul\":3068:3135   */\n      tag_52\n      jump\t// in\n    tag_116:\n        /* \"#utility.yul\":3061:3135   */\n      swap2\n      pop\n        /* \"#utility.yul\":3144:3237   */\n      tag_117\n        /* \"#utility.yul\":3233:3236   */\n      dup3\n        /* \"#utility.yul\":3144:3237   */\n      tag_53\n      jump\t// in\n    tag_117:\n        /* \"#utility.yul\":3262:3264   */\n      0x20\n        /* \"#utility.yul\":3257:3260   */\n      dup3\n        /* \"#utility.yul\":3253:3265   */\n      add\n        /* \"#utility.yul\":3246:3265   */\n      swap1\n      pop\n        /* \"#utility.yul\":2905:3271   */\n      swap2\n      swap1\n      pop\n      jump\t// out\n        /* \"#utility.yul\":3277:3696   */\n    tag_21:\n        /* \"#utility.yul\":3443:3447   */\n      0x00\n        /* \"#utility.yul\":3481:3483   */\n      0x20\n        /* \"#utility.yul\":3470:3479   */\n      dup3\n        /* \"#utility.yul\":3466:3484   */\n      add\n        /* \"#utility.yul\":3458:3484   */\n      swap1\n      pop\n        /* \"#utility.yul\":3530:3539   */\n      dup2\n        /* \"#utility.yul\":3524:3528   */\n      dup2\n        /* \"#utility.yul\":3520:3540   */\n      sub\n        /* \"#utility.yul\":3516:3517   */\n      0x00\n        /* \"#utility.yul\":3505:3514   */\n      dup4\n        /* \"#utility.yul\":3501:3518   */\n      add\n        /* \"#utility.yul\":3494:3541   */\n      mstore\n        /* \"#utility.yul\":3558:3689   */\n      tag_119\n        /* \"#utility.yul\":3684:3688   */\n      dup2\n        /* \"#utility.yul\":3558:3689   */\n      tag_54\n      jump\t// in\n    tag_119:\n        /* \"#utility.yul\":3550:3689   */\n      swap1\n      pop\n        /* \"#utility.yul\":3277:3696   */\n      swap2\n      swap1\n      pop\n      jump\t// out\n        /* \"#utility.yul\":3702:3820   */\n    tag_55:\n        /* \"#utility.yul\":3789:3813   */\n      tag_121\n        /* \"#utility.yul\":3807:3812   */\n      dup2\n        /* \"#utility.yul\":3789:3813   */\n      tag_49\n      jump\t// in\n    tag_121:\n        /* \"#utility.yul\":3784:3787   */\n      dup3\n        /* \"#utility.yul\":3777:3814   */\n      mstore\n        /* \"#utility.yul\":3702:3820   */\n      pop\n      pop\n      jump\t// out\n        /* \"#utility.yul\":3826:4048   */\n    tag_24:\n        /* \"#utility.yul\":3919:3923   */\n      0x00\n        /* \"#utility.yul\":3957:3959   */\n      0x20\n        /* \"#utility.yul\":3946:3955   */\n      dup3\n        /* \"#utility.yul\":3942:3960   */\n      add\n        /* \"#utility.yul\":3934:3960   */\n      swap1\n      pop\n        /* \"#utility.yul\":3970:4041   */\n      tag_123\n        /* \"#utility.yul\":4038:4039   */\n      0x00\n        /* \"#utility.yul\":4027:4036   */\n      dup4\n        /* \"#utility.yul\":4023:4040   */\n      add\n        /* \"#utility.yul\":4014:4020   */\n      dup5\n        /* \"#utility.yul\":3970:4041   */\n      tag_55\n      jump\t// in\n    tag_123:\n        /* \"#utility.yul\":3826:4048   */\n      swap3\n      swap2\n      pop\n      pop\n      jump\t// out\n        /* \"#utility.yul\":4054:4171   */\n    tag_56:\n        /* \"#utility.yul\":4163:4164   */\n      0x00\n        /* \"#utility.yul\":4160:4161   */\n      dup1\n        /* \"#utility.yul\":4153:4165   */\n      revert\n        /* \"#utility.yul\":4177:4279   */\n    tag_57:\n        /* \"#utility.yul\":4218:4224   */\n      0x00\n        /* \"#utility.yul\":4269:4271   */\n      0x1f\n        /* \"#utility.yul\":4265:4272   */\n      not\n        /* \"#utility.yul\":4260:4262   */\n      0x1f\n        /* \"#utility.yul\":4253:4258   */\n      dup4\n        /* \"#utility.yul\":4249:4263   */\n      add\n        /* \"#utility.yul\":4245:4273   */\n      and\n        /* \"#utility.yul\":4235:4273   */\n      swap1\n      pop\n        /* \"#utility.yul\":4177:4279   */\n      swap2\n      swap1\n      pop\n      jump\t// out\n        /* \"#utility.yul\":4285:4465   */\n    tag_58:\n        /* \"#utility.yul\":4333:4410   */\n      0x4e487b7100000000000000000000000000000000000000000000000000000000\n        /* \"#utility.yul\":4330:4331   */\n      0x00\n        /* \"#utility.yul\":4323:4411   */\n      mstore\n        /* \"#utility.yul\":4430:4434   */\n      0x41\n        /* \"#utility.yul\":4427:4428   */\n      0x04\n        /* \"#utility.yul\":4420:4435   */\n      mstore\n        /* \"#utility.yul\":4454:4458   */\n      0x24\n        /* \"#utility.yul\":4451:4452   */\n      0x00\n        /* \"#utility.yul\":4444:4459   */\n      revert\n        /* \"#utility.yul\":4471:4752   */\n    tag_59:\n        /* \"#utility.yul\":4554:4581   */\n      tag_128\n        /* \"#utility.yul\":4576:4580   */\n      dup3\n        /* \"#utility.yul\":4554:4581   */\n      tag_57\n      jump\t// in\n    tag_128:\n        /* \"#utility.yul\":4546:4552   */\n      dup2\n        /* \"#utility.yul\":4542:4582   */\n      add\n        /* \"#utility.yul\":4684:4690   */\n      dup2\n        /* \"#utility.yul\":4672:4682   */\n      dup2\n        /* \"#utility.yul\":4669:4691   */\n      lt\n        /* \"#utility.yul\":4648:4666   */\n      0xffffffffffffffff\n        /* \"#utility.yul\":4636:4646   */\n      dup3\n        /* \"#utility.yul\":4633:4667   */\n      gt\n        /* \"#utility.yul\":4630:4692   */\n      or\n        /* \"#utility.yul\":4627:4715   */\n      iszero\n      tag_129\n      jumpi\n        /* \"#utility.yul\":4695:4713   */\n      tag_130\n      tag_58\n      jump\t// in\n    tag_130:\n        /* \"#utility.yul\":4627:4715   */\n    tag_129:\n        /* \"#utility.yul\":4735:4745   */\n      dup1\n        /* \"#utility.yul\":4731:4733   */\n      0x40\n        /* \"#utility.yul\":4724:4746   */\n      mstore\n        /* \"#utility.yul\":4514:4752   */\n      pop\n        /* \"#utility.yul\":4471:4752   */\n      pop\n      pop\n      jump\t// out\n        /* \"#utility.yul\":4758:4887   */\n    tag_60:\n        /* \"#utility.yul\":4792:4798   */\n      0x00\n        /* \"#utility.yul\":4819:4839   */\n      tag_132\n      tag_46\n      jump\t// in\n    tag_132:\n        /* \"#utility.yul\":4809:4839   */\n      swap1\n      pop\n        /* \"#utility.yul\":4848:4881   */\n      tag_133\n        /* \"#utility.yul\":4876:4880   */\n      dup3\n        /* \"#utility.yul\":4868:4874   */\n      dup3\n        /* \"#utility.yul\":4848:4881   */\n      tag_59\n      jump\t// in\n    tag_133:\n        /* \"#utility.yul\":4758:4887   */\n      swap2\n      swap1\n      pop\n      jump\t// out\n        /* \"#utility.yul\":4893:5010   */\n    tag_61:\n        /* \"#utility.yul\":5002:5003   */\n      0x00\n        /* \"#utility.yul\":4999:5000   */\n      dup1\n        /* \"#utility.yul\":4992:5004   */\n      revert\n        /* \"#utility.yul\":5016:5133   */\n    tag_62:\n        /* \"#utility.yul\":5125:5126   */\n      0x00\n        /* \"#utility.yul\":5122:5123   */\n      dup1\n        /* \"#utility.yul\":5115:5127   */\n      revert\n        /* \"#utility.yul\":5139:5256   */\n    tag_63:\n        /* \"#utility.yul\":5248:5249   */\n      0x00\n        /* \"#utility.yul\":5245:5246   */\n      dup1\n        /* \"#utility.yul\":5238:5250   */\n      revert\n        /* \"#utility.yul\":5262:5570   */\n    tag_64:\n        /* \"#utility.yul\":5324:5328   */\n      0x00\n        /* \"#utility.yul\":5414:5432   */\n      0xffffffffffffffff\n        /* \"#utility.yul\":5406:5412   */\n      dup3\n        /* \"#utility.yul\":5403:5433   */\n      gt\n        /* \"#utility.yul\":5400:5456   */\n      iszero\n      tag_138\n      jumpi\n        /* \"#utility.yul\":5436:5454   */\n      tag_139\n      tag_58\n      jump\t// in\n    tag_139:\n        /* \"#utility.yul\":5400:5456   */\n    tag_138:\n        /* \"#utility.yul\":5474:5503   */\n      tag_140\n        /* \"#utility.yul\":5496:5502   */\n      dup3\n        /* \"#utility.yul\":5474:5503   */\n      tag_57\n      jump\t// in\n    tag_140:\n        /* \"#utility.yul\":5466:5503   */\n      swap1\n      pop\n        /* \"#utility.yul\":5558:5562   */\n      0x20\n        /* \"#utility.yul\":5552:5556   */\n      dup2\n        /* \"#utility.yul\":5548:5563   */\n      add\n        /* \"#utility.yul\":5540:5563   */\n      swap1\n      pop\n        /* \"#utility.yul\":5262:5570   */\n      swap2\n      swap1\n      pop\n      jump\t// out\n        /* \"#utility.yul\":5576:5715   */\n    tag_65:\n        /* \"#utility.yul\":5665:5671   */\n      dup3\n        /* \"#utility.yul\":5660:5663   */\n      dup2\n        /* \"#utility.yul\":5655:5658   */\n      dup4\n        /* \"#utility.yul\":5649:5672   */\n      mcopy\n        /* \"#utility.yul\":5706:5707   */\n      0x00\n        /* \"#utility.yul\":5697:5703   */\n      dup4\n        /* \"#utility.yul\":5692:5695   */\n      dup4\n        /* \"#utility.yul\":5688:5704   */\n      add\n        /* \"#utility.yul\":5681:5708   */\n      mstore\n        /* \"#utility.yul\":5576:5715   */\n      pop\n      pop\n      pop\n      jump\t// out\n        /* \"#utility.yul\":5721:6155   */\n    tag_66:\n        /* \"#utility.yul\":5810:5815   */\n      0x00\n        /* \"#utility.yul\":5835:5901   */\n      tag_143\n        /* \"#utility.yul\":5851:5900   */\n      tag_144\n        /* \"#utility.yul\":5893:5899   */\n      dup5\n        /* \"#utility.yul\":5851:5900   */\n      tag_64\n      jump\t// in\n    tag_144:\n        /* \"#utility.yul\":5835:5901   */\n      tag_60\n      jump\t// in\n    tag_143:\n        /* \"#utility.yul\":5826:5901   */\n      swap1\n      pop\n        /* \"#utility.yul\":5924:5930   */\n      dup3\n        /* \"#utility.yul\":5917:5922   */\n      dup2\n        /* \"#utility.yul\":5910:5931   */\n      mstore\n        /* \"#utility.yul\":5962:5966   */\n      0x20\n        /* \"#utility.yul\":5955:5960   */\n      dup2\n        /* \"#utility.yul\":5951:5967   */\n      add\n        /* \"#utility.yul\":6000:6003   */\n      dup5\n        /* \"#utility.yul\":5991:5997   */\n      dup5\n        /* \"#utility.yul\":5986:5989   */\n      dup5\n        /* \"#utility.yul\":5982:5998   */\n      add\n        /* \"#utility.yul\":5979:6004   */\n      gt\n        /* \"#utility.yul\":5976:6088   */\n      iszero\n      tag_145\n      jumpi\n        /* \"#utility.yul\":6007:6086   */\n      tag_146\n      tag_63\n      jump\t// in\n    tag_146:\n        /* \"#utility.yul\":5976:6088   */\n    tag_145:\n        /* \"#utility.yul\":6097:6149   */\n      tag_147\n        /* \"#utility.yul\":6142:6148   */\n      dup5\n        /* \"#utility.yul\":6137:6140   */\n      dup3\n        /* \"#utility.yul\":6132:6135   */\n      dup6\n        /* \"#utility.yul\":6097:6149   */\n      tag_65\n      jump\t// in\n    tag_147:\n        /* \"#utility.yul\":5816:6155   */\n      pop\n        /* \"#utility.yul\":5721:6155   */\n      swap4\n      swap3\n      pop\n      pop\n      pop\n      jump\t// out\n        /* \"#utility.yul\":6175:6530   */\n    tag_67:\n        /* \"#utility.yul\":6242:6247   */\n      0x00\n        /* \"#utility.yul\":6291:6294   */\n      dup3\n        /* \"#utility.yul\":6284:6288   */\n      0x1f\n        /* \"#utility.yul\":6276:6282   */\n      dup4\n        /* \"#utility.yul\":6272:6289   */\n      add\n        /* \"#utility.yul\":6268:6295   */\n      slt\n        /* \"#utility.yul\":6258:6380   */\n      tag_149\n      jumpi\n        /* \"#utility.yul\":6299:6378   */\n      tag_150\n      tag_62\n      jump\t// in\n    tag_150:\n        /* \"#utility.yul\":6258:6380   */\n    tag_149:\n        /* \"#utility.yul\":6409:6415   */\n      dup2\n        /* \"#utility.yul\":6403:6416   */\n      mload\n        /* \"#utility.yul\":6434:6524   */\n      tag_151\n        /* \"#utility.yul\":6520:6523   */\n      dup5\n        /* \"#utility.yul\":6512:6518   */\n      dup3\n        /* \"#utility.yul\":6505:6509   */\n      0x20\n        /* \"#utility.yul\":6497:6503   */\n      dup7\n        /* \"#utility.yul\":6493:6510   */\n      add\n        /* \"#utility.yul\":6434:6524   */\n      tag_66\n      jump\t// in\n    tag_151:\n        /* \"#utility.yul\":6425:6524   */\n      swap2\n      pop\n        /* \"#utility.yul\":6248:6530   */\n      pop\n        /* \"#utility.yul\":6175:6530   */\n      swap3\n      swap2\n      pop\n      pop\n      jump\t// out\n        /* \"#utility.yul\":6536:6626   */\n    tag_68:\n        /* \"#utility.yul\":6570:6577   */\n      0x00\n        /* \"#utility.yul\":6613:6618   */\n      dup2\n        /* \"#utility.yul\":6606:6619   */\n      iszero\n        /* \"#utility.yul\":6599:6620   */\n      iszero\n        /* \"#utility.yul\":6588:6620   */\n      swap1\n      pop\n        /* \"#utility.yul\":6536:6626   */\n      swap2\n      swap1\n      pop\n      jump\t// out\n        /* \"#utility.yul\":6632:6748   */\n    tag_69:\n        /* \"#utility.yul\":6702:6723   */\n      tag_154\n        /* \"#utility.yul\":6717:6722   */\n      dup2\n        /* \"#utility.yul\":6702:6723   */\n      tag_68\n      jump\t// in\n    tag_154:\n        /* \"#utility.yul\":6695:6700   */\n      dup2\n        /* \"#utility.yul\":6692:6724   */\n      eq\n        /* \"#utility.yul\":6682:6742   */\n      tag_155\n      jumpi\n        /* \"#utility.yul\":6738:6739   */\n      0x00\n        /* \"#utility.yul\":6735:6736   */\n      dup1\n        /* \"#utility.yul\":6728:6740   */\n      revert\n        /* \"#utility.yul\":6682:6742   */\n    tag_155:\n        /* \"#utility.yul\":6632:6748   */\n      pop\n      jump\t// out\n        /* \"#utility.yul\":6754:6891   */\n    tag_70:\n        /* \"#utility.yul\":6808:6813   */\n      0x00\n        /* \"#utility.yul\":6839:6845   */\n      dup2\n        /* \"#utility.yul\":6833:6846   */\n      mload\n        /* \"#utility.yul\":6824:6846   */\n      swap1\n      pop\n        /* \"#utility.yul\":6855:6885   */\n      tag_157\n        /* \"#utility.yul\":6879:6884   */\n      dup2\n        /* \"#utility.yul\":6855:6885   */\n      tag_69\n      jump\t// in\n    tag_157:\n        /* \"#utility.yul\":6754:6891   */\n      swap3\n      swap2\n      pop\n      pop\n      jump\t// out\n        /* \"#utility.yul\":6936:7715   */\n    tag_71:\n        /* \"#utility.yul\":7020:7025   */\n      0x00\n        /* \"#utility.yul\":7064:7068   */\n      0x40\n        /* \"#utility.yul\":7052:7061   */\n      dup3\n        /* \"#utility.yul\":7047:7050   */\n      dup5\n        /* \"#utility.yul\":7043:7062   */\n      sub\n        /* \"#utility.yul\":7039:7069   */\n      slt\n        /* \"#utility.yul\":7036:7153   */\n      iszero\n      tag_159\n      jumpi\n        /* \"#utility.yul\":7072:7151   */\n      tag_160\n      tag_56\n      jump\t// in\n    tag_160:\n        /* \"#utility.yul\":7036:7153   */\n    tag_159:\n        /* \"#utility.yul\":7171:7192   */\n      tag_161\n        /* \"#utility.yul\":7187:7191   */\n      0x40\n        /* \"#utility.yul\":7171:7192   */\n      tag_60\n      jump\t// in\n    tag_161:\n        /* \"#utility.yul\":7162:7192   */\n      swap1\n      pop\n        /* \"#utility.yul\":7279:7280   */\n      0x00\n        /* \"#utility.yul\":7268:7277   */\n      dup3\n        /* \"#utility.yul\":7264:7281   */\n      add\n        /* \"#utility.yul\":7258:7282   */\n      mload\n        /* \"#utility.yul\":7309:7327   */\n      0xffffffffffffffff\n        /* \"#utility.yul\":7301:7307   */\n      dup2\n        /* \"#utility.yul\":7298:7328   */\n      gt\n        /* \"#utility.yul\":7295:7412   */\n      iszero\n      tag_162\n      jumpi\n        /* \"#utility.yul\":7331:7410   */\n      tag_163\n      tag_61\n      jump\t// in\n    tag_163:\n        /* \"#utility.yul\":7295:7412   */\n    tag_162:\n        /* \"#utility.yul\":7451:7521   */\n      tag_164\n        /* \"#utility.yul\":7517:7520   */\n      dup5\n        /* \"#utility.yul\":7508:7514   */\n      dup3\n        /* \"#utility.yul\":7497:7506   */\n      dup6\n        /* \"#utility.yul\":7493:7515   */\n      add\n        /* \"#utility.yul\":7451:7521   */\n      tag_67\n      jump\t// in\n    tag_164:\n        /* \"#utility.yul\":7444:7448   */\n      0x00\n        /* \"#utility.yul\":7437:7442   */\n      dup4\n        /* \"#utility.yul\":7433:7449   */\n      add\n        /* \"#utility.yul\":7426:7522   */\n      mstore\n        /* \"#utility.yul\":7202:7533   */\n      pop\n        /* \"#utility.yul\":7598:7600   */\n      0x20\n        /* \"#utility.yul\":7639:7696   */\n      tag_165\n        /* \"#utility.yul\":7692:7695   */\n      dup5\n        /* \"#utility.yul\":7683:7689   */\n      dup3\n        /* \"#utility.yul\":7672:7681   */\n      dup6\n        /* \"#utility.yul\":7668:7690   */\n      add\n        /* \"#utility.yul\":7639:7696   */\n      tag_70\n      jump\t// in\n    tag_165:\n        /* \"#utility.yul\":7632:7636   */\n      0x20\n        /* \"#utility.yul\":7625:7630   */\n      dup4\n        /* \"#utility.yul\":7621:7637   */\n      add\n        /* \"#utility.yul\":7614:7697   */\n      mstore\n        /* \"#utility.yul\":7543:7708   */\n      pop\n        /* \"#utility.yul\":6936:7715   */\n      swap3\n      swap2\n      pop\n      pop\n      jump\t// out\n        /* \"#utility.yul\":7721:8273   */\n    tag_28:\n        /* \"#utility.yul\":7815:7821   */\n      0x00\n        /* \"#utility.yul\":7864:7866   */\n      0x20\n        /* \"#utility.yul\":7852:7861   */\n      dup3\n        /* \"#utility.yul\":7843:7850   */\n      dup5\n        /* \"#utility.yul\":7839:7862   */\n      sub\n        /* \"#utility.yul\":7835:7867   */\n      slt\n        /* \"#utility.yul\":7832:7951   */\n      iszero\n      tag_167\n      jumpi\n        /* \"#utility.yul\":7870:7949   */\n      tag_168\n      tag_47\n      jump\t// in\n    tag_168:\n        /* \"#utility.yul\":7832:7951   */\n    tag_167:\n        /* \"#utility.yul\":8011:8012   */\n      0x00\n        /* \"#utility.yul\":8000:8009   */\n      dup3\n        /* \"#utility.yul\":7996:8013   */\n      add\n        /* \"#utility.yul\":7990:8014   */\n      mload\n        /* \"#utility.yul\":8041:8059   */\n      0xffffffffffffffff\n        /* \"#utility.yul\":8033:8039   */\n      dup2\n        /* \"#utility.yul\":8030:8060   */\n      gt\n        /* \"#utility.yul\":8027:8144   */\n      iszero\n      tag_169\n      jumpi\n        /* \"#utility.yul\":8063:8142   */\n      tag_170\n      tag_48\n      jump\t// in\n    tag_170:\n        /* \"#utility.yul\":8027:8144   */\n    tag_169:\n        /* \"#utility.yul\":8168:8256   */\n      tag_171\n        /* \"#utility.yul\":8248:8255   */\n      dup5\n        /* \"#utility.yul\":8239:8245   */\n      dup3\n        /* \"#utility.yul\":8228:8237   */\n      dup6\n        /* \"#utility.yul\":8224:8246   */\n      add\n        /* \"#utility.yul\":8168:8256   */\n      tag_71\n      jump\t// in\n    tag_171:\n        /* \"#utility.yul\":8158:8256   */\n      swap2\n      pop\n        /* \"#utility.yul\":7961:8266   */\n      pop\n        /* \"#utility.yul\":7721:8273   */\n      swap3\n      swap2\n      pop\n      pop\n      jump\t// out\n        /* \"#utility.yul\":8279:8513   */\n    tag_72:\n        /* \"#utility.yul\":8419:8453   */\n      0x5265717565737420686173206265656e20617070726f76656420616e64206173\n        /* \"#utility.yul\":8415:8416   */\n      0x00\n        /* \"#utility.yul\":8407:8413   */\n      dup3\n        /* \"#utility.yul\":8403:8417   */\n      add\n        /* \"#utility.yul\":8396:8454   */\n      mstore\n        /* \"#utility.yul\":8488:8505   */\n      0x7369676e656420616e206f7267616e0000000000000000000000000000000000\n        /* \"#utility.yul\":8483:8485   */\n      0x20\n        /* \"#utility.yul\":8475:8481   */\n      dup3\n        /* \"#utility.yul\":8471:8486   */\n      add\n        /* \"#utility.yul\":8464:8506   */\n      mstore\n        /* \"#utility.yul\":8279:8513   */\n      pop\n      jump\t// out\n        /* \"#utility.yul\":8519:8885   */\n    tag_73:\n        /* \"#utility.yul\":8661:8664   */\n      0x00\n        /* \"#utility.yul\":8682:8749   */\n      tag_174\n        /* \"#utility.yul\":8746:8748   */\n      0x2f\n        /* \"#utility.yul\":8741:8744   */\n      dup4\n        /* \"#utility.yul\":8682:8749   */\n      tag_52\n      jump\t// in\n    tag_174:\n        /* \"#utility.yul\":8675:8749   */\n      swap2\n      pop\n        /* \"#utility.yul\":8758:8851   */\n      tag_175\n        /* \"#utility.yul\":8847:8850   */\n      dup3\n        /* \"#utility.yul\":8758:8851   */\n      tag_72\n      jump\t// in\n    tag_175:\n        /* \"#utility.yul\":8876:8878   */\n      0x40\n        /* \"#utility.yul\":8871:8874   */\n      dup3\n        /* \"#utility.yul\":8867:8879   */\n      add\n        /* \"#utility.yul\":8860:8879   */\n      swap1\n      pop\n        /* \"#utility.yul\":8519:8885   */\n      swap2\n      swap1\n      pop\n      jump\t// out\n        /* \"#utility.yul\":8891:9310   */\n    tag_31:\n        /* \"#utility.yul\":9057:9061   */\n      0x00\n        /* \"#utility.yul\":9095:9097   */\n      0x20\n        /* \"#utility.yul\":9084:9093   */\n      dup3\n        /* \"#utility.yul\":9080:9098   */\n      add\n        /* \"#utility.yul\":9072:9098   */\n      swap1\n      pop\n        /* \"#utility.yul\":9144:9153   */\n      dup2\n        /* \"#utility.yul\":9138:9142   */\n      dup2\n        /* \"#utility.yul\":9134:9154   */\n      sub\n        /* \"#utility.yul\":9130:9131   */\n      0x00\n        /* \"#utility.yul\":9119:9128   */\n      dup4\n        /* \"#utility.yul\":9115:9132   */\n      add\n        /* \"#utility.yul\":9108:9155   */\n      mstore\n        /* \"#utility.yul\":9172:9303   */\n      tag_177\n        /* \"#utility.yul\":9298:9302   */\n      dup2\n        /* \"#utility.yul\":9172:9303   */\n      tag_73\n      jump\t// in\n    tag_177:\n        /* \"#utility.yul\":9164:9303   */\n      swap1\n      pop\n        /* \"#utility.yul\":8891:9310   */\n      swap2\n      swap1\n      pop\n      jump\t// out\n        /* \"#utility.yul\":9316:9415   */\n    tag_74:\n        /* \"#utility.yul\":9368:9374   */\n      0x00\n        /* \"#utility.yul\":9402:9407   */\n      dup2\n        /* \"#utility.yul\":9396:9408   */\n      mload\n        /* \"#utility.yul\":9386:9408   */\n      swap1\n      pop\n        /* \"#utility.yul\":9316:9415   */\n      swap2\n      swap1\n      pop\n      jump\t// out\n        /* \"#utility.yul\":9421:9580   */\n    tag_75:\n        /* \"#utility.yul\":9495:9506   */\n      0x00\n        /* \"#utility.yul\":9529:9535   */\n      dup3\n        /* \"#utility.yul\":9524:9527   */\n      dup3\n        /* \"#utility.yul\":9517:9536   */\n      mstore\n        /* \"#utility.yul\":9569:9573   */\n      0x20\n        /* \"#utility.yul\":9564:9567   */\n      dup3\n        /* \"#utility.yul\":9560:9574   */\n      add\n        /* \"#utility.yul\":9545:9574   */\n      swap1\n      pop\n        /* \"#utility.yul\":9421:9580   */\n      swap3\n      swap2\n      pop\n      pop\n      jump\t// out\n        /* \"#utility.yul\":9586:9943   */\n    tag_76:\n        /* \"#utility.yul\":9664:9667   */\n      0x00\n        /* \"#utility.yul\":9692:9731   */\n      tag_181\n        /* \"#utility.yul\":9725:9730   */\n      dup3\n        /* \"#utility.yul\":9692:9731   */\n      tag_74\n      jump\t// in\n    tag_181:\n        /* \"#utility.yul\":9747:9808   */\n      tag_182\n        /* \"#utility.yul\":9801:9807   */\n      dup2\n        /* \"#utility.yul\":9796:9799   */\n      dup6\n        /* \"#utility.yul\":9747:9808   */\n      tag_75\n      jump\t// in\n    tag_182:\n        /* \"#utility.yul\":9740:9808   */\n      swap4\n      pop\n        /* \"#utility.yul\":9817:9882   */\n      tag_183\n        /* \"#utility.yul\":9875:9881   */\n      dup2\n        /* \"#utility.yul\":9870:9873   */\n      dup6\n        /* \"#utility.yul\":9863:9867   */\n      0x20\n        /* \"#utility.yul\":9856:9861   */\n      dup7\n        /* \"#utility.yul\":9852:9868   */\n      add\n        /* \"#utility.yul\":9817:9882   */\n      tag_65\n      jump\t// in\n    tag_183:\n        /* \"#utility.yul\":9907:9936   */\n      tag_184\n        /* \"#utility.yul\":9929:9935   */\n      dup2\n        /* \"#utility.yul\":9907:9936   */\n      tag_57\n      jump\t// in\n    tag_184:\n        /* \"#utility.yul\":9902:9905   */\n      dup5\n        /* \"#utility.yul\":9898:9937   */\n      add\n        /* \"#utility.yul\":9891:9937   */\n      swap2\n      pop\n        /* \"#utility.yul\":9668:9943   */\n      pop\n        /* \"#utility.yul\":9586:9943   */\n      swap3\n      swap2\n      pop\n      pop\n      jump\t// out\n        /* \"#utility.yul\":9949:10048   */\n    tag_77:\n        /* \"#utility.yul\":10020:10041   */\n      tag_186\n        /* \"#utility.yul\":10035:10040   */\n      dup2\n        /* \"#utility.yul\":10020:10041   */\n      tag_68\n      jump\t// in\n    tag_186:\n        /* \"#utility.yul\":10015:10018   */\n      dup3\n        /* \"#utility.yul\":10008:10042   */\n      mstore\n        /* \"#utility.yul\":9949:10048   */\n      pop\n      pop\n      jump\t// out\n        /* \"#utility.yul\":10128:10739   */\n    tag_78:\n        /* \"#utility.yul\":10245:10248   */\n      0x00\n        /* \"#utility.yul\":10281:10285   */\n      0x40\n        /* \"#utility.yul\":10276:10279   */\n      dup4\n        /* \"#utility.yul\":10272:10286   */\n      add\n        /* \"#utility.yul\":10375:10379   */\n      0x00\n        /* \"#utility.yul\":10368:10373   */\n      dup4\n        /* \"#utility.yul\":10364:10380   */\n      add\n        /* \"#utility.yul\":10358:10381   */\n      mload\n        /* \"#utility.yul\":10428:10431   */\n      dup5\n        /* \"#utility.yul\":10422:10426   */\n      dup3\n        /* \"#utility.yul\":10418:10432   */\n      sub\n        /* \"#utility.yul\":10411:10415   */\n      0x00\n        /* \"#utility.yul\":10406:10409   */\n      dup7\n        /* \"#utility.yul\":10402:10416   */\n      add\n        /* \"#utility.yul\":10395:10433   */\n      mstore\n        /* \"#utility.yul\":10454:10527   */\n      tag_188\n        /* \"#utility.yul\":10522:10526   */\n      dup3\n        /* \"#utility.yul\":10508:10520   */\n      dup3\n        /* \"#utility.yul\":10454:10527   */\n      tag_76\n      jump\t// in\n    tag_188:\n        /* \"#utility.yul\":10446:10527   */\n      swap2\n      pop\n        /* \"#utility.yul\":10296:10538   */\n      pop\n        /* \"#utility.yul\":10626:10630   */\n      0x20\n        /* \"#utility.yul\":10619:10624   */\n      dup4\n        /* \"#utility.yul\":10615:10631   */\n      add\n        /* \"#utility.yul\":10609:10632   */\n      mload\n        /* \"#utility.yul\":10645:10702   */\n      tag_189\n        /* \"#utility.yul\":10696:10700   */\n      0x20\n        /* \"#utility.yul\":10691:10694   */\n      dup7\n        /* \"#utility.yul\":10687:10701   */\n      add\n        /* \"#utility.yul\":10673:10685   */\n      dup3\n        /* \"#utility.yul\":10645:10702   */\n      tag_77\n      jump\t// in\n    tag_189:\n        /* \"#utility.yul\":10548:10712   */\n      pop\n        /* \"#utility.yul\":10729:10733   */\n      dup1\n        /* \"#utility.yul\":10722:10733   */\n      swap2\n      pop\n        /* \"#utility.yul\":10250:10739   */\n      pop\n        /* \"#utility.yul\":10128:10739   */\n      swap3\n      swap2\n      pop\n      pop\n      jump\t// out\n        /* \"#utility.yul\":10745:11224   */\n    tag_33:\n        /* \"#utility.yul\":10914:10918   */\n      0x00\n        /* \"#utility.yul\":10952:10954   */\n      0x40\n        /* \"#utility.yul\":10941:10950   */\n      dup3\n        /* \"#utility.yul\":10937:10955   */\n      add\n        /* \"#utility.yul\":10929:10955   */\n      swap1\n      pop\n        /* \"#utility.yul\":10965:11036   */\n      tag_191\n        /* \"#utility.yul\":11033:11034   */\n      0x00\n        /* \"#utility.yul\":11022:11031   */\n      dup4\n        /* \"#utility.yul\":11018:11035   */\n      add\n        /* \"#utility.yul\":11009:11015   */\n      dup6\n        /* \"#utility.yul\":10965:11036   */\n      tag_55\n      jump\t// in\n    tag_191:\n        /* \"#utility.yul\":11083:11092   */\n      dup2\n        /* \"#utility.yul\":11077:11081   */\n      dup2\n        /* \"#utility.yul\":11073:11093   */\n      sub\n        /* \"#utility.yul\":11068:11070   */\n      0x20\n        /* \"#utility.yul\":11057:11066   */\n      dup4\n        /* \"#utility.yul\":11053:11071   */\n      add\n        /* \"#utility.yul\":11046:11094   */\n      mstore\n        /* \"#utility.yul\":11111:11217   */\n      tag_192\n        /* \"#utility.yul\":11212:11216   */\n      dup2\n        /* \"#utility.yul\":11203:11209   */\n      dup5\n        /* \"#utility.yul\":11111:11217   */\n      tag_78\n      jump\t// in\n    tag_192:\n        /* \"#utility.yul\":11103:11217   */\n      swap1\n      pop\n        /* \"#utility.yul\":10745:11224   */\n      swap4\n      swap3\n      pop\n      pop\n      pop\n      jump\t// out\n\n    auxdata: 0xa26469706673582212200054948ff826644d84c3f10ed00d60730819b4e4a6400212d2964062dbe0cf7564736f6c634300081a0033\n}\n",
				"bytecode": {
					"linkReferences": {},
					"object": "608060405234801561000f575f80fd5b50604051610a1a380380610a1a83398181016040528101906100319190610115565b815f806101000a81548173ffffffffffffffffffffffffffffffffffffffff021916908373ffffffffffffffffffffffffffffffffffffffff1602179055508060015f6101000a81548173ffffffffffffffffffffffffffffffffffffffff021916908373ffffffffffffffffffffffffffffffffffffffff1602179055505050610153565b5f80fd5b5f73ffffffffffffffffffffffffffffffffffffffff82169050919050565b5f6100e4826100bb565b9050919050565b6100f4816100da565b81146100fe575f80fd5b50565b5f8151905061010f816100eb565b92915050565b5f806040838503121561012b5761012a6100b7565b5b5f61013885828601610101565b925050602061014985828601610101565b9150509250929050565b6108ba806101605f395ff3fe608060405234801561000f575f80fd5b506004361061003f575f3560e01c806355a373d6146100435780636f76d1dc14610061578063d7d1bbdb1461007f575b5f80fd5b61004b61009b565b60405161005891906103a3565b60405180910390f35b6100696100c0565b60405161007691906103dc565b60405180910390f35b61009960048036038101906100949190610439565b6100e3565b005b60015f9054906101000a900473ffffffffffffffffffffffffffffffffffffffff1681565b5f8054906101000a900473ffffffffffffffffffffffffffffffffffffffff1681565b5f8054906101000a900473ffffffffffffffffffffffffffffffffffffffff1673ffffffffffffffffffffffffffffffffffffffff163373ffffffffffffffffffffffffffffffffffffffff1614610170576040517f08c379a0000000000000000000000000000000000000000000000000000000008152600401610167906104be565b60405180910390fd5b5f60015f9054906101000a900473ffffffffffffffffffffffffffffffffffffffff1673ffffffffffffffffffffffffffffffffffffffff1663c58343ef836040518263ffffffff1660e01b81526004016101cb91906104eb565b5f60405180830381865afa1580156101e5573d5f803e3d5ffd5b505050506040513d5f823e3d601f19601f8201168201806040525081019061020d91906106e6565b9050806020015115610254576040517f08c379a000000000000000000000000000000000000000000000000000000000815260040161024b9061079d565b60405180910390fd5b600181602001901515908115158152505060015f9054906101000a900473ffffffffffffffffffffffffffffffffffffffff1673ffffffffffffffffffffffffffffffffffffffff16635be2218b83836040518363ffffffff1660e01b81526004016102c1929190610856565b5f604051808303815f87803b1580156102d8575f80fd5b505af11580156102ea573d5f803e3d5ffd5b505050507fc232a927f368e129de98138c8db6614209e5edb570461302d0c1aedc9577a7f68260405161031d91906104eb565b60405180910390a15050565b5f73ffffffffffffffffffffffffffffffffffffffff82169050919050565b5f819050919050565b5f61036b61036661036184610329565b610348565b610329565b9050919050565b5f61037c82610351565b9050919050565b5f61038d82610372565b9050919050565b61039d81610383565b82525050565b5f6020820190506103b65f830184610394565b92915050565b5f6103c682610329565b9050919050565b6103d6816103bc565b82525050565b5f6020820190506103ef5f8301846103cd565b92915050565b5f604051905090565b5f80fd5b5f80fd5b5f819050919050565b61041881610406565b8114610422575f80fd5b50565b5f813590506104338161040f565b92915050565b5f6020828403121561044e5761044d6103fe565b5b5f61045b84828501610425565b91505092915050565b5f82825260208201905092915050565b7f4f6e6c79206865616c74686361726500000000000000000000000000000000005f82015250565b5f6104a8600f83610464565b91506104b382610474565b602082019050919050565b5f6020820190508181035f8301526104d58161049c565b9050919050565b6104e581610406565b82525050565b5f6020820190506104fe5f8301846104dc565b92915050565b5f80fd5b5f601f19601f8301169050919050565b7f4e487b71000000000000000000000000000000000000000000000000000000005f52604160045260245ffd5b61054e82610508565b810181811067ffffffffffffffff8211171561056d5761056c610518565b5b80604052505050565b5f61057f6103f5565b905061058b8282610545565b919050565b5f80fd5b5f80fd5b5f80fd5b5f67ffffffffffffffff8211156105b6576105b5610518565b5b6105bf82610508565b9050602081019050919050565b8281835e5f83830152505050565b5f6105ec6105e78461059c565b610576565b90508281526020810184848401111561060857610607610598565b5b6106138482856105cc565b509392505050565b5f82601f83011261062f5761062e610594565b5b815161063f8482602086016105da565b91505092915050565b5f8115159050919050565b61065c81610648565b8114610666575f80fd5b50565b5f8151905061067781610653565b92915050565b5f6040828403121561069257610691610504565b5b61069c6040610576565b90505f82015167ffffffffffffffff8111156106bb576106ba610590565b5b6106c78482850161061b565b5f8301525060206106da84828501610669565b60208301525092915050565b5f602082840312156106fb576106fa6103fe565b5b5f82015167ffffffffffffffff81111561071857610717610402565b5b6107248482850161067d565b91505092915050565b7f5265717565737420686173206265656e20617070726f76656420616e642061735f8201527f7369676e656420616e206f7267616e0000000000000000000000000000000000602082015250565b5f610787602f83610464565b91506107928261072d565b604082019050919050565b5f6020820190508181035f8301526107b48161077b565b9050919050565b5f81519050919050565b5f82825260208201905092915050565b5f6107df826107bb565b6107e981856107c5565b93506107f98185602086016105cc565b61080281610508565b840191505092915050565b61081681610648565b82525050565b5f604083015f8301518482035f86015261083682826107d5565b915050602083015161084b602086018261080d565b508091505092915050565b5f6040820190506108695f8301856104dc565b818103602083015261087b818461081c565b9050939250505056fea26469706673582212200054948ff826644d84c3f10ed00d60730819b4e4a6400212d2964062dbe0cf7564736f6c634300081a0033",
					"opcodes": "PUSH1 0x80 PUSH1 0x40 MSTORE CALLVALUE DUP1 ISZERO PUSH2 0xF JUMPI PUSH0 DUP1 REVERT JUMPDEST POP PUSH1 0x40 MLOAD PUSH2 0xA1A CODESIZE SUB DUP1 PUSH2 0xA1A DUP4 CODECOPY DUP2 DUP2 ADD PUSH1 0x40 MSTORE DUP2 ADD SWAP1 PUSH2 0x31 SWAP2 SWAP1 PUSH2 0x115 JUMP JUMPDEST DUP2 PUSH0 DUP1 PUSH2 0x100 EXP DUP2 SLOAD DUP2 PUSH20 0xFFFFFFFFFFFFFFFFFFFFFFFFFFFFFFFFFFFFFFFF MUL NOT AND SWAP1 DUP4 PUSH20 0xFFFFFFFFFFFFFFFFFFFFFFFFFFFFFFFFFFFFFFFF AND MUL OR SWAP1 SSTORE POP DUP1 PUSH1 0x1 PUSH0 PUSH2 0x100 EXP DUP2 SLOAD DUP2 PUSH20 0xFFFFFFFFFFFFFFFFFFFFFFFFFFFFFFFFFFFFFFFF MUL NOT AND SWAP1 DUP4 PUSH20 0xFFFFFFFFFFFFFFFFFFFFFFFFFFFFFFFFFFFFFFFF AND MUL OR SWAP1 SSTORE POP POP POP PUSH2 0x153 JUMP JUMPDEST PUSH0 DUP1 REVERT JUMPDEST PUSH0 PUSH20 0xFFFFFFFFFFFFFFFFFFFFFFFFFFFFFFFFFFFFFFFF DUP3 AND SWAP1 POP SWAP2 SWAP1 POP JUMP JUMPDEST PUSH0 PUSH2 0xE4 DUP3 PUSH2 0xBB JUMP JUMPDEST SWAP1 POP SWAP2 SWAP1 POP JUMP JUMPDEST PUSH2 0xF4 DUP2 PUSH2 0xDA JUMP JUMPDEST DUP2 EQ PUSH2 0xFE JUMPI PUSH0 DUP1 REVERT JUMPDEST POP JUMP JUMPDEST PUSH0 DUP2 MLOAD SWAP1 POP PUSH2 0x10F DUP2 PUSH2 0xEB JUMP JUMPDEST SWAP3 SWAP2 POP POP JUMP JUMPDEST PUSH0 DUP1 PUSH1 0x40 DUP4 DUP6 SUB SLT ISZERO PUSH2 0x12B JUMPI PUSH2 0x12A PUSH2 0xB7 JUMP JUMPDEST JUMPDEST PUSH0 PUSH2 0x138 DUP6 DUP3 DUP7 ADD PUSH2 0x101 JUMP JUMPDEST SWAP3 POP POP PUSH1 0x20 PUSH2 0x149 DUP6 DUP3 DUP7 ADD PUSH2 0x101 JUMP JUMPDEST SWAP2 POP POP SWAP3 POP SWAP3 SWAP1 POP JUMP JUMPDEST PUSH2 0x8BA DUP1 PUSH2 0x160 PUSH0 CODECOPY PUSH0 RETURN INVALID PUSH1 0x80 PUSH1 0x40 MSTORE CALLVALUE DUP1 ISZERO PUSH2 0xF JUMPI PUSH0 DUP1 REVERT JUMPDEST POP PUSH1 0x4 CALLDATASIZE LT PUSH2 0x3F JUMPI PUSH0 CALLDATALOAD PUSH1 0xE0 SHR DUP1 PUSH4 0x55A373D6 EQ PUSH2 0x43 JUMPI DUP1 PUSH4 0x6F76D1DC EQ PUSH2 0x61 JUMPI DUP1 PUSH4 0xD7D1BBDB EQ PUSH2 0x7F JUMPI JUMPDEST PUSH0 DUP1 REVERT JUMPDEST PUSH2 0x4B PUSH2 0x9B JUMP JUMPDEST PUSH1 0x40 MLOAD PUSH2 0x58 SWAP2 SWAP1 PUSH2 0x3A3 JUMP JUMPDEST PUSH1 0x40 MLOAD DUP1 SWAP2 SUB SWAP1 RETURN JUMPDEST PUSH2 0x69 PUSH2 0xC0 JUMP JUMPDEST PUSH1 0x40 MLOAD PUSH2 0x76 SWAP2 SWAP1 PUSH2 0x3DC JUMP JUMPDEST PUSH1 0x40 MLOAD DUP1 SWAP2 SUB SWAP1 RETURN JUMPDEST PUSH2 0x99 PUSH1 0x4 DUP1 CALLDATASIZE SUB DUP2 ADD SWAP1 PUSH2 0x94 SWAP2 SWAP1 PUSH2 0x439 JUMP JUMPDEST PUSH2 0xE3 JUMP JUMPDEST STOP JUMPDEST PUSH1 0x1 PUSH0 SWAP1 SLOAD SWAP1 PUSH2 0x100 EXP SWAP1 DIV PUSH20 0xFFFFFFFFFFFFFFFFFFFFFFFFFFFFFFFFFFFFFFFF AND DUP2 JUMP JUMPDEST PUSH0 DUP1 SLOAD SWAP1 PUSH2 0x100 EXP SWAP1 DIV PUSH20 0xFFFFFFFFFFFFFFFFFFFFFFFFFFFFFFFFFFFFFFFF AND DUP2 JUMP JUMPDEST PUSH0 DUP1 SLOAD SWAP1 PUSH2 0x100 EXP SWAP1 DIV PUSH20 0xFFFFFFFFFFFFFFFFFFFFFFFFFFFFFFFFFFFFFFFF AND PUSH20 0xFFFFFFFFFFFFFFFFFFFFFFFFFFFFFFFFFFFFFFFF AND CALLER PUSH20 0xFFFFFFFFFFFFFFFFFFFFFFFFFFFFFFFFFFFFFFFF AND EQ PUSH2 0x170 JUMPI PUSH1 0x40 MLOAD PUSH32 0x8C379A000000000000000000000000000000000000000000000000000000000 DUP2 MSTORE PUSH1 0x4 ADD PUSH2 0x167 SWAP1 PUSH2 0x4BE JUMP JUMPDEST PUSH1 0x40 MLOAD DUP1 SWAP2 SUB SWAP1 REVERT JUMPDEST PUSH0 PUSH1 0x1 PUSH0 SWAP1 SLOAD SWAP1 PUSH2 0x100 EXP SWAP1 DIV PUSH20 0xFFFFFFFFFFFFFFFFFFFFFFFFFFFFFFFFFFFFFFFF AND PUSH20 0xFFFFFFFFFFFFFFFFFFFFFFFFFFFFFFFFFFFFFFFF AND PUSH4 0xC58343EF DUP4 PUSH1 0x40 MLOAD DUP3 PUSH4 0xFFFFFFFF AND PUSH1 0xE0 SHL DUP2 MSTORE PUSH1 0x4 ADD PUSH2 0x1CB SWAP2 SWAP1 PUSH2 0x4EB JUMP JUMPDEST PUSH0 PUSH1 0x40 MLOAD DUP1 DUP4 SUB DUP2 DUP7 GAS STATICCALL ISZERO DUP1 ISZERO PUSH2 0x1E5 JUMPI RETURNDATASIZE PUSH0 DUP1 RETURNDATACOPY RETURNDATASIZE PUSH0 REVERT JUMPDEST POP POP POP POP PUSH1 0x40 MLOAD RETURNDATASIZE PUSH0 DUP3 RETURNDATACOPY RETURNDATASIZE PUSH1 0x1F NOT PUSH1 0x1F DUP3 ADD AND DUP3 ADD DUP1 PUSH1 0x40 MSTORE POP DUP2 ADD SWAP1 PUSH2 0x20D SWAP2 SWAP1 PUSH2 0x6E6 JUMP JUMPDEST SWAP1 POP DUP1 PUSH1 0x20 ADD MLOAD ISZERO PUSH2 0x254 JUMPI PUSH1 0x40 MLOAD PUSH32 0x8C379A000000000000000000000000000000000000000000000000000000000 DUP2 MSTORE PUSH1 0x4 ADD PUSH2 0x24B SWAP1 PUSH2 0x79D JUMP JUMPDEST PUSH1 0x40 MLOAD DUP1 SWAP2 SUB SWAP1 REVERT JUMPDEST PUSH1 0x1 DUP2 PUSH1 0x20 ADD SWAP1 ISZERO ISZERO SWAP1 DUP2 ISZERO ISZERO DUP2 MSTORE POP POP PUSH1 0x1 PUSH0 SWAP1 SLOAD SWAP1 PUSH2 0x100 EXP SWAP1 DIV PUSH20 0xFFFFFFFFFFFFFFFFFFFFFFFFFFFFFFFFFFFFFFFF AND PUSH20 0xFFFFFFFFFFFFFFFFFFFFFFFFFFFFFFFFFFFFFFFF AND PUSH4 0x5BE2218B DUP4 DUP4 PUSH1 0x40 MLOAD DUP4 PUSH4 0xFFFFFFFF AND PUSH1 0xE0 SHL DUP2 MSTORE PUSH1 0x4 ADD PUSH2 0x2C1 SWAP3 SWAP2 SWAP1 PUSH2 0x856 JUMP JUMPDEST PUSH0 PUSH1 0x40 MLOAD DUP1 DUP4 SUB DUP2 PUSH0 DUP8 DUP1 EXTCODESIZE ISZERO DUP1 ISZERO PUSH2 0x2D8 JUMPI PUSH0 DUP1 REVERT JUMPDEST POP GAS CALL ISZERO DUP1 ISZERO PUSH2 0x2EA JUMPI RETURNDATASIZE PUSH0 DUP1 RETURNDATACOPY RETURNDATASIZE PUSH0 REVERT JUMPDEST POP POP POP POP PUSH32 0xC232A927F368E129DE98138C8DB6614209E5EDB570461302D0C1AEDC9577A7F6 DUP3 PUSH1 0x40 MLOAD PUSH2 0x31D SWAP2 SWAP1 PUSH2 0x4EB JUMP JUMPDEST PUSH1 0x40 MLOAD DUP1 SWAP2 SUB SWAP1 LOG1 POP POP JUMP JUMPDEST PUSH0 PUSH20 0xFFFFFFFFFFFFFFFFFFFFFFFFFFFFFFFFFFFFFFFF DUP3 AND SWAP1 POP SWAP2 SWAP1 POP JUMP JUMPDEST PUSH0 DUP2 SWAP1 POP SWAP2 SWAP1 POP JUMP JUMPDEST PUSH0 PUSH2 0x36B PUSH2 0x366 PUSH2 0x361 DUP5 PUSH2 0x329 JUMP JUMPDEST PUSH2 0x348 JUMP JUMPDEST PUSH2 0x329 JUMP JUMPDEST SWAP1 POP SWAP2 SWAP1 POP JUMP JUMPDEST PUSH0 PUSH2 0x37C DUP3 PUSH2 0x351 JUMP JUMPDEST SWAP1 POP SWAP2 SWAP1 POP JUMP JUMPDEST PUSH0 PUSH2 0x38D DUP3 PUSH2 0x372 JUMP JUMPDEST SWAP1 POP SWAP2 SWAP1 POP JUMP JUMPDEST PUSH2 0x39D DUP2 PUSH2 0x383 JUMP JUMPDEST DUP3 MSTORE POP POP JUMP JUMPDEST PUSH0 PUSH1 0x20 DUP3 ADD SWAP1 POP PUSH2 0x3B6 PUSH0 DUP4 ADD DUP5 PUSH2 0x394 JUMP JUMPDEST SWAP3 SWAP2 POP POP JUMP JUMPDEST PUSH0 PUSH2 0x3C6 DUP3 PUSH2 0x329 JUMP JUMPDEST SWAP1 POP SWAP2 SWAP1 POP JUMP JUMPDEST PUSH2 0x3D6 DUP2 PUSH2 0x3BC JUMP JUMPDEST DUP3 MSTORE POP POP JUMP JUMPDEST PUSH0 PUSH1 0x20 DUP3 ADD SWAP1 POP PUSH2 0x3EF PUSH0 DUP4 ADD DUP5 PUSH2 0x3CD JUMP JUMPDEST SWAP3 SWAP2 POP POP JUMP JUMPDEST PUSH0 PUSH1 0x40 MLOAD SWAP1 POP SWAP1 JUMP JUMPDEST PUSH0 DUP1 REVERT JUMPDEST PUSH0 DUP1 REVERT JUMPDEST PUSH0 DUP2 SWAP1 POP SWAP2 SWAP1 POP JUMP JUMPDEST PUSH2 0x418 DUP2 PUSH2 0x406 JUMP JUMPDEST DUP2 EQ PUSH2 0x422 JUMPI PUSH0 DUP1 REVERT JUMPDEST POP JUMP JUMPDEST PUSH0 DUP2 CALLDATALOAD SWAP1 POP PUSH2 0x433 DUP2 PUSH2 0x40F JUMP JUMPDEST SWAP3 SWAP2 POP POP JUMP JUMPDEST PUSH0 PUSH1 0x20 DUP3 DUP5 SUB SLT ISZERO PUSH2 0x44E JUMPI PUSH2 0x44D PUSH2 0x3FE JUMP JUMPDEST JUMPDEST PUSH0 PUSH2 0x45B DUP5 DUP3 DUP6 ADD PUSH2 0x425 JUMP JUMPDEST SWAP2 POP POP SWAP3 SWAP2 POP POP JUMP JUMPDEST PUSH0 DUP3 DUP3 MSTORE PUSH1 0x20 DUP3 ADD SWAP1 POP SWAP3 SWAP2 POP POP JUMP JUMPDEST PUSH32 0x4F6E6C79206865616C7468636172650000000000000000000000000000000000 PUSH0 DUP3 ADD MSTORE POP JUMP JUMPDEST PUSH0 PUSH2 0x4A8 PUSH1 0xF DUP4 PUSH2 0x464 JUMP JUMPDEST SWAP2 POP PUSH2 0x4B3 DUP3 PUSH2 0x474 JUMP JUMPDEST PUSH1 0x20 DUP3 ADD SWAP1 POP SWAP2 SWAP1 POP JUMP JUMPDEST PUSH0 PUSH1 0x20 DUP3 ADD SWAP1 POP DUP2 DUP2 SUB PUSH0 DUP4 ADD MSTORE PUSH2 0x4D5 DUP2 PUSH2 0x49C JUMP JUMPDEST SWAP1 POP SWAP2 SWAP1 POP JUMP JUMPDEST PUSH2 0x4E5 DUP2 PUSH2 0x406 JUMP JUMPDEST DUP3 MSTORE POP POP JUMP JUMPDEST PUSH0 PUSH1 0x20 DUP3 ADD SWAP1 POP PUSH2 0x4FE PUSH0 DUP4 ADD DUP5 PUSH2 0x4DC JUMP JUMPDEST SWAP3 SWAP2 POP POP JUMP JUMPDEST PUSH0 DUP1 REVERT JUMPDEST PUSH0 PUSH1 0x1F NOT PUSH1 0x1F DUP4 ADD AND SWAP1 POP SWAP2 SWAP1 POP JUMP JUMPDEST PUSH32 0x4E487B7100000000000000000000000000000000000000000000000000000000 PUSH0 MSTORE PUSH1 0x41 PUSH1 0x4 MSTORE PUSH1 0x24 PUSH0 REVERT JUMPDEST PUSH2 0x54E DUP3 PUSH2 0x508 JUMP JUMPDEST DUP2 ADD DUP2 DUP2 LT PUSH8 0xFFFFFFFFFFFFFFFF DUP3 GT OR ISZERO PUSH2 0x56D JUMPI PUSH2 0x56C PUSH2 0x518 JUMP JUMPDEST JUMPDEST DUP1 PUSH1 0x40 MSTORE POP POP POP JUMP JUMPDEST PUSH0 PUSH2 0x57F PUSH2 0x3F5 JUMP JUMPDEST SWAP1 POP PUSH2 0x58B DUP3 DUP3 PUSH2 0x545 JUMP JUMPDEST SWAP2 SWAP1 POP JUMP JUMPDEST PUSH0 DUP1 REVERT JUMPDEST PUSH0 DUP1 REVERT JUMPDEST PUSH0 DUP1 REVERT JUMPDEST PUSH0 PUSH8 0xFFFFFFFFFFFFFFFF DUP3 GT ISZERO PUSH2 0x5B6 JUMPI PUSH2 0x5B5 PUSH2 0x518 JUMP JUMPDEST JUMPDEST PUSH2 0x5BF DUP3 PUSH2 0x508 JUMP JUMPDEST SWAP1 POP PUSH1 0x20 DUP2 ADD SWAP1 POP SWAP2 SWAP1 POP JUMP JUMPDEST DUP3 DUP2 DUP4 MCOPY PUSH0 DUP4 DUP4 ADD MSTORE POP POP POP JUMP JUMPDEST PUSH0 PUSH2 0x5EC PUSH2 0x5E7 DUP5 PUSH2 0x59C JUMP JUMPDEST PUSH2 0x576 JUMP JUMPDEST SWAP1 POP DUP3 DUP2 MSTORE PUSH1 0x20 DUP2 ADD DUP5 DUP5 DUP5 ADD GT ISZERO PUSH2 0x608 JUMPI PUSH2 0x607 PUSH2 0x598 JUMP JUMPDEST JUMPDEST PUSH2 0x613 DUP5 DUP3 DUP6 PUSH2 0x5CC JUMP JUMPDEST POP SWAP4 SWAP3 POP POP POP JUMP JUMPDEST PUSH0 DUP3 PUSH1 0x1F DUP4 ADD SLT PUSH2 0x62F JUMPI PUSH2 0x62E PUSH2 0x594 JUMP JUMPDEST JUMPDEST DUP2 MLOAD PUSH2 0x63F DUP5 DUP3 PUSH1 0x20 DUP7 ADD PUSH2 0x5DA JUMP JUMPDEST SWAP2 POP POP SWAP3 SWAP2 POP POP JUMP JUMPDEST PUSH0 DUP2 ISZERO ISZERO SWAP1 POP SWAP2 SWAP1 POP JUMP JUMPDEST PUSH2 0x65C DUP2 PUSH2 0x648 JUMP JUMPDEST DUP2 EQ PUSH2 0x666 JUMPI PUSH0 DUP1 REVERT JUMPDEST POP JUMP JUMPDEST PUSH0 DUP2 MLOAD SWAP1 POP PUSH2 0x677 DUP2 PUSH2 0x653 JUMP JUMPDEST SWAP3 SWAP2 POP POP JUMP JUMPDEST PUSH0 PUSH1 0x40 DUP3 DUP5 SUB SLT ISZERO PUSH2 0x692 JUMPI PUSH2 0x691 PUSH2 0x504 JUMP JUMPDEST JUMPDEST PUSH2 0x69C PUSH1 0x40 PUSH2 0x576 JUMP JUMPDEST SWAP1 POP PUSH0 DUP3 ADD MLOAD PUSH8 0xFFFFFFFFFFFFFFFF DUP2 GT ISZERO PUSH2 0x6BB JUMPI PUSH2 0x6BA PUSH2 0x590 JUMP JUMPDEST JUMPDEST PUSH2 0x6C7 DUP5 DUP3 DUP6 ADD PUSH2 0x61B JUMP JUMPDEST PUSH0 DUP4 ADD MSTORE POP PUSH1 0x20 PUSH2 0x6DA DUP5 DUP3 DUP6 ADD PUSH2 0x669 JUMP JUMPDEST PUSH1 0x20 DUP4 ADD MSTORE POP SWAP3 SWAP2 POP POP JUMP JUMPDEST PUSH0 PUSH1 0x20 DUP3 DUP5 SUB SLT ISZERO PUSH2 0x6FB JUMPI PUSH2 0x6FA PUSH2 0x3FE JUMP JUMPDEST JUMPDEST PUSH0 DUP3 ADD MLOAD PUSH8 0xFFFFFFFFFFFFFFFF DUP2 GT ISZERO PUSH2 0x718 JUMPI PUSH2 0x717 PUSH2 0x402 JUMP JUMPDEST JUMPDEST PUSH2 0x724 DUP5 DUP3 DUP6 ADD PUSH2 0x67D JUMP JUMPDEST SWAP2 POP POP SWAP3 SWAP2 POP POP JUMP JUMPDEST PUSH32 0x5265717565737420686173206265656E20617070726F76656420616E64206173 PUSH0 DUP3 ADD MSTORE PUSH32 0x7369676E656420616E206F7267616E0000000000000000000000000000000000 PUSH1 0x20 DUP3 ADD MSTORE POP JUMP JUMPDEST PUSH0 PUSH2 0x787 PUSH1 0x2F DUP4 PUSH2 0x464 JUMP JUMPDEST SWAP2 POP PUSH2 0x792 DUP3 PUSH2 0x72D JUMP JUMPDEST PUSH1 0x40 DUP3 ADD SWAP1 POP SWAP2 SWAP1 POP JUMP JUMPDEST PUSH0 PUSH1 0x20 DUP3 ADD SWAP1 POP DUP2 DUP2 SUB PUSH0 DUP4 ADD MSTORE PUSH2 0x7B4 DUP2 PUSH2 0x77B JUMP JUMPDEST SWAP1 POP SWAP2 SWAP1 POP JUMP JUMPDEST PUSH0 DUP2 MLOAD SWAP1 POP SWAP2 SWAP1 POP JUMP JUMPDEST PUSH0 DUP3 DUP3 MSTORE PUSH1 0x20 DUP3 ADD SWAP1 POP SWAP3 SWAP2 POP POP JUMP JUMPDEST PUSH0 PUSH2 0x7DF DUP3 PUSH2 0x7BB JUMP JUMPDEST PUSH2 0x7E9 DUP2 DUP6 PUSH2 0x7C5 JUMP JUMPDEST SWAP4 POP PUSH2 0x7F9 DUP2 DUP6 PUSH1 0x20 DUP7 ADD PUSH2 0x5CC JUMP JUMPDEST PUSH2 0x802 DUP2 PUSH2 0x508 JUMP JUMPDEST DUP5 ADD SWAP2 POP POP SWAP3 SWAP2 POP POP JUMP JUMPDEST PUSH2 0x816 DUP2 PUSH2 0x648 JUMP JUMPDEST DUP3 MSTORE POP POP JUMP JUMPDEST PUSH0 PUSH1 0x40 DUP4 ADD PUSH0 DUP4 ADD MLOAD DUP5 DUP3 SUB PUSH0 DUP7 ADD MSTORE PUSH2 0x836 DUP3 DUP3 PUSH2 0x7D5 JUMP JUMPDEST SWAP2 POP POP PUSH1 0x20 DUP4 ADD MLOAD PUSH2 0x84B PUSH1 0x20 DUP7 ADD DUP3 PUSH2 0x80D JUMP JUMPDEST POP DUP1 SWAP2 POP POP SWAP3 SWAP2 POP POP JUMP JUMPDEST PUSH0 PUSH1 0x40 DUP3 ADD SWAP1 POP PUSH2 0x869 PUSH0 DUP4 ADD DUP6 PUSH2 0x4DC JUMP JUMPDEST DUP2 DUP2 SUB PUSH1 0x20 DUP4 ADD MSTORE PUSH2 0x87B DUP2 DUP5 PUSH2 0x81C JUMP JUMPDEST SWAP1 POP SWAP4 SWAP3 POP POP POP JUMP INVALID LOG2 PUSH5 0x6970667358 0x22 SLT KECCAK256 STOP SLOAD SWAP5 DUP16 0xF8 0x26 PUSH5 0x4D84C3F10E 0xD0 0xD PUSH1 0x73 ADDMOD NOT 0xB4 0xE4 0xA6 BLOCKHASH MUL SLT 0xD2 SWAP7 BLOCKHASH PUSH3 0xDBE0CF PUSH22 0x64736F6C634300081A00330000000000000000000000 "
				},
				"gasEstimates": {
					"creation": {
						"codeDepositCost": "446800",
						"executionCost": "infinite",
						"totalCost": "infinite"
					},
					"external": {
						"approveRequest(uint256)": "infinite",
						"healthcare()": "2505",
						"tokenContract()": "infinite"
					}
				},
				"methodIdentifiers": {
					"approveRequest(uint256)": "d7d1bbdb",
					"healthcare()": "6f76d1dc",
					"tokenContract()": "55a373d6"
				}
			},
			"storageLayout": {
				"storage": [
					{
						"astId": 25,
						"contract": "AvailabilityContract.sol:AvailableContract",
						"label": "healthcare",
						"offset": 0,
						"slot": "0",
						"type": "t_address"
					},
					{
						"astId": 28,
						"contract": "AvailabilityContract.sol:AvailableContract",
						"label": "tokenContract",
						"offset": 0,
						"slot": "1",
						"type": "t_contract(ITokenContract)23"
					}
				],
				"types": {
					"t_address": {
						"encoding": "inplace",
						"label": "address",
						"numberOfBytes": "20"
					},
					"t_contract(ITokenContract)23": {
						"encoding": "inplace",
						"label": "contract ITokenContract",
						"numberOfBytes": "20"
					}
				}
			},
			"userdoc": {
				"kind": "user",
				"methods": {
					"approveRequest(uint256)": {
						"notice": "Approves a request and assigns an available organ."
					}
				},
				"version": 1
			}
		}
	}
}