{
	"ConsentContract.sol": {
		"ConsentContract": {
			"abi": [
				{
					"inputs": [
						{
							"internalType": "address",
							"name": "_donor",
							"type": "address"
						},
						{
							"internalType": "address",
							"name": "_tokenCreate",
							"type": "address"
						}
					],
					"stateMutability": "nonpayable",
					"type": "constructor"
				},
				{
					"inputs": [
						{
							"internalType": "string",
							"name": "_name",
							"type": "string"
						},
						{
							"internalType": "uint256",
							"name": "_date",
							"type": "uint256"
						}
					],
					"name": "consent",
					"outputs": [],
					"stateMutability": "nonpayable",
					"type": "function"
				},
				{
					"inputs": [],
					"name": "donor",
					"outputs": [
						{
							"internalType": "address",
							"name": "",
							"type": "address"
						}
					],
					"stateMutability": "view",
					"type": "function"
				},
				{
					"inputs": [],
					"name": "tokenCreate",
					"outputs": [
						{
							"internalType": "contract ITokenCreate",
							"name": "",
							"type": "address"
						}
					],
					"stateMutability": "view",
					"type": "function"
				}
			],
			"devdoc": {
				"kind": "dev",
				"methods": {},
				"version": 1
			},
			"evm": {
				"assembly": "    /* \"ConsentContract.sol\":169:649  contract ConsentContract {... */\n  mstore(0x40, 0x80)\n    /* \"ConsentContract.sol\":268:402  constructor(address _donor, address _tokenCreate) {... */\n  callvalue\n  dup1\n  iszero\n  tag_1\n  jumpi\n  0x00\n  dup1\n  revert\ntag_1:\n  pop\n  mload(0x40)\n  sub(codesize, bytecodeSize)\n  dup1\n  bytecodeSize\n  dup4\n  codecopy\n  dup2\n  dup2\n  add\n  0x40\n  mstore\n  dup2\n  add\n  swap1\n  tag_2\n  swap2\n  swap1\n  tag_3\n  jump\t// in\ntag_2:\n    /* \"ConsentContract.sol\":337:343  _donor */\n  dup2\n    /* \"ConsentContract.sol\":329:334  donor */\n  0x00\n  dup1\n    /* \"ConsentContract.sol\":329:343  donor = _donor */\n  0x0100\n  exp\n  dup2\n  sload\n  dup2\n  0xffffffffffffffffffffffffffffffffffffffff\n  mul\n  not\n  and\n  swap1\n  dup4\n  0xffffffffffffffffffffffffffffffffffffffff\n  and\n  mul\n  or\n  swap1\n  sstore\n  pop\n    /* \"ConsentContract.sol\":381:393  _tokenCreate */\n  dup1\n    /* \"ConsentContract.sol\":354:365  tokenCreate */\n  0x01\n  0x00\n    /* \"ConsentContract.sol\":354:394  tokenCreate = ITokenCreate(_tokenCreate) */\n  0x0100\n  exp\n  dup2\n  sload\n  dup2\n  0xffffffffffffffffffffffffffffffffffffffff\n  mul\n  not\n  and\n  swap1\n  dup4\n  0xffffffffffffffffffffffffffffffffffffffff\n  and\n  mul\n  or\n  swap1\n  sstore\n  pop\n    /* \"ConsentContract.sol\":268:402  constructor(address _donor, address _tokenCreate) {... */\n  pop\n  pop\n    /* \"ConsentContract.sol\":169:649  contract ConsentContract {... */\n  jump(tag_6)\n    /* \"#utility.yul\":88:205   */\ntag_8:\n    /* \"#utility.yul\":197:198   */\n  0x00\n    /* \"#utility.yul\":194:195   */\n  dup1\n    /* \"#utility.yul\":187:199   */\n  revert\n    /* \"#utility.yul\":334:460   */\ntag_10:\n    /* \"#utility.yul\":371:378   */\n  0x00\n    /* \"#utility.yul\":411:453   */\n  0xffffffffffffffffffffffffffffffffffffffff\n    /* \"#utility.yul\":404:409   */\n  dup3\n    /* \"#utility.yul\":400:454   */\n  and\n    /* \"#utility.yul\":389:454   */\n  swap1\n  pop\n    /* \"#utility.yul\":334:460   */\n  swap2\n  swap1\n  pop\n  jump\t// out\n    /* \"#utility.yul\":466:562   */\ntag_11:\n    /* \"#utility.yul\":503:510   */\n  0x00\n    /* \"#utility.yul\":532:556   */\n  tag_20\n    /* \"#utility.yul\":550:555   */\n  dup3\n    /* \"#utility.yul\":532:556   */\n  tag_10\n  jump\t// in\ntag_20:\n    /* \"#utility.yul\":521:556   */\n  swap1\n  pop\n    /* \"#utility.yul\":466:562   */\n  swap2\n  swap1\n  pop\n  jump\t// out\n    /* \"#utility.yul\":568:690   */\ntag_12:\n    /* \"#utility.yul\":641:665   */\n  tag_22\n    /* \"#utility.yul\":659:664   */\n  dup2\n    /* \"#utility.yul\":641:665   */\n  tag_11\n  jump\t// in\ntag_22:\n    /* \"#utility.yul\":634:639   */\n  dup2\n    /* \"#utility.yul\":631:666   */\n  eq\n    /* \"#utility.yul\":621:684   */\n  tag_23\n  jumpi\n    /* \"#utility.yul\":680:681   */\n  0x00\n    /* \"#utility.yul\":677:678   */\n  dup1\n    /* \"#utility.yul\":670:682   */\n  revert\n    /* \"#utility.yul\":621:684   */\ntag_23:\n    /* \"#utility.yul\":568:690   */\n  pop\n  jump\t// out\n    /* \"#utility.yul\":696:839   */\ntag_13:\n    /* \"#utility.yul\":753:758   */\n  0x00\n    /* \"#utility.yul\":784:790   */\n  dup2\n    /* \"#utility.yul\":778:791   */\n  mload\n    /* \"#utility.yul\":769:791   */\n  swap1\n  pop\n    /* \"#utility.yul\":800:833   */\n  tag_25\n    /* \"#utility.yul\":827:832   */\n  dup2\n    /* \"#utility.yul\":800:833   */\n  tag_12\n  jump\t// in\ntag_25:\n    /* \"#utility.yul\":696:839   */\n  swap3\n  swap2\n  pop\n  pop\n  jump\t// out\n    /* \"#utility.yul\":845:1352   */\ntag_3:\n    /* \"#utility.yul\":924:930   */\n  0x00\n    /* \"#utility.yul\":932:938   */\n  dup1\n    /* \"#utility.yul\":981:983   */\n  0x40\n    /* \"#utility.yul\":969:978   */\n  dup4\n    /* \"#utility.yul\":960:967   */\n  dup6\n    /* \"#utility.yul\":956:979   */\n  sub\n    /* \"#utility.yul\":952:984   */\n  slt\n    /* \"#utility.yul\":949:1068   */\n  iszero\n  tag_27\n  jumpi\n    /* \"#utility.yul\":987:1066   */\n  tag_28\n  tag_8\n  jump\t// in\ntag_28:\n    /* \"#utility.yul\":949:1068   */\ntag_27:\n    /* \"#utility.yul\":1107:1108   */\n  0x00\n    /* \"#utility.yul\":1132:1196   */\n  tag_29\n    /* \"#utility.yul\":1188:1195   */\n  dup6\n    /* \"#utility.yul\":1179:1185   */\n  dup3\n    /* \"#utility.yul\":1168:1177   */\n  dup7\n    /* \"#utility.yul\":1164:1186   */\n  add\n    /* \"#utility.yul\":1132:1196   */\n  tag_13\n  jump\t// in\ntag_29:\n    /* \"#utility.yul\":1122:1196   */\n  swap3\n  pop\n    /* \"#utility.yul\":1078:1206   */\n  pop\n    /* \"#utility.yul\":1245:1247   */\n  0x20\n    /* \"#utility.yul\":1271:1335   */\n  tag_30\n    /* \"#utility.yul\":1327:1334   */\n  dup6\n    /* \"#utility.yul\":1318:1324   */\n  dup3\n    /* \"#utility.yul\":1307:1316   */\n  dup7\n    /* \"#utility.yul\":1303:1325   */\n  add\n    /* \"#utility.yul\":1271:1335   */\n  tag_13\n  jump\t// in\ntag_30:\n    /* \"#utility.yul\":1261:1335   */\n  swap2\n  pop\n    /* \"#utility.yul\":1216:1345   */\n  pop\n    /* \"#utility.yul\":845:1352   */\n  swap3\n  pop\n  swap3\n  swap1\n  pop\n  jump\t// out\n    /* \"ConsentContract.sol\":169:649  contract ConsentContract {... */\ntag_6:\n  dataSize(sub_0)\n  dup1\n  dataOffset(sub_0)\n  0x00\n  codecopy\n  0x00\n  return\nstop\n\nsub_0: assembly {\n        /* \"ConsentContract.sol\":169:649  contract ConsentContract {... */\n      mstore(0x40, 0x80)\n      callvalue\n      dup1\n      iszero\n      tag_1\n      jumpi\n      0x00\n      dup1\n      revert\n    tag_1:\n      pop\n      jumpi(tag_2, lt(calldatasize, 0x04))\n      shr(0xe0, calldataload(0x00))\n      dup1\n      0x25223bd4\n      eq\n      tag_3\n      jumpi\n      dup1\n      0x38a3a94f\n      eq\n      tag_4\n      jumpi\n      dup1\n      0xaca713d9\n      eq\n      tag_5\n      jumpi\n    tag_2:\n      0x00\n      dup1\n      revert\n        /* \"ConsentContract.sol\":201:221  address public donor */\n    tag_3:\n      tag_6\n      tag_7\n      jump\t// in\n    tag_6:\n      mload(0x40)\n      tag_8\n      swap2\n      swap1\n      tag_9\n      jump\t// in\n    tag_8:\n      mload(0x40)\n      dup1\n      swap2\n      sub\n      swap1\n      return\n        /* \"ConsentContract.sol\":520:646  function consent(string memory _name, uint256 _date) public onlyDonor {... */\n    tag_4:\n      tag_10\n      0x04\n      dup1\n      calldatasize\n      sub\n      dup2\n      add\n      swap1\n      tag_11\n      swap2\n      swap1\n      tag_12\n      jump\t// in\n    tag_11:\n      tag_13\n      jump\t// in\n    tag_10:\n      stop\n        /* \"ConsentContract.sol\":228:259  ITokenCreate public tokenCreate */\n    tag_5:\n      tag_14\n      tag_15\n      jump\t// in\n    tag_14:\n      mload(0x40)\n      tag_16\n      swap2\n      swap1\n      tag_17\n      jump\t// in\n    tag_16:\n      mload(0x40)\n      dup1\n      swap2\n      sub\n      swap1\n      return\n        /* \"ConsentContract.sol\":201:221  address public donor */\n    tag_7:\n      0x00\n      dup1\n      sload\n      swap1\n      0x0100\n      exp\n      swap1\n      div\n      0xffffffffffffffffffffffffffffffffffffffff\n      and\n      dup2\n      jump\t// out\n        /* \"ConsentContract.sol\":520:646  function consent(string memory _name, uint256 _date) public onlyDonor {... */\n    tag_13:\n        /* \"ConsentContract.sol\":464:469  donor */\n      0x00\n      dup1\n      sload\n      swap1\n      0x0100\n      exp\n      swap1\n      div\n      0xffffffffffffffffffffffffffffffffffffffff\n      and\n        /* \"ConsentContract.sol\":450:469  msg.sender == donor */\n      0xffffffffffffffffffffffffffffffffffffffff\n      and\n        /* \"ConsentContract.sol\":450:460  msg.sender */\n      caller\n        /* \"ConsentContract.sol\":450:469  msg.sender == donor */\n      0xffffffffffffffffffffffffffffffffffffffff\n      and\n      eq\n        /* \"ConsentContract.sol\":442:492  require(msg.sender == donor, \"Only donor allowed\") */\n      tag_19\n      jumpi\n      mload(0x40)\n      0x08c379a000000000000000000000000000000000000000000000000000000000\n      dup2\n      mstore\n      0x04\n      add\n      tag_20\n      swap1\n      tag_21\n      jump\t// in\n    tag_20:\n      mload(0x40)\n      dup1\n      swap2\n      sub\n      swap1\n      revert\n    tag_19:\n        /* \"ConsentContract.sol\":601:612  tokenCreate */\n      0x01\n      0x00\n      swap1\n      sload\n      swap1\n      0x0100\n      exp\n      swap1\n      div\n      0xffffffffffffffffffffffffffffffffffffffff\n      and\n        /* \"ConsentContract.sol\":601:624  tokenCreate.createOrgan */\n      0xffffffffffffffffffffffffffffffffffffffff\n      and\n      0x8af88a5c\n        /* \"ConsentContract.sol\":625:630  _name */\n      dup4\n        /* \"ConsentContract.sol\":632:637  _date */\n      dup4\n        /* \"ConsentContract.sol\":601:638  tokenCreate.createOrgan(_name, _date) */\n      mload(0x40)\n      dup4\n      0xffffffff\n      and\n      0xe0\n      shl\n      dup2\n      mstore\n      0x04\n      add\n      tag_23\n      swap3\n      swap2\n      swap1\n      tag_24\n      jump\t// in\n    tag_23:\n      0x20\n      mload(0x40)\n      dup1\n      dup4\n      sub\n      dup2\n      0x00\n      dup8\n      gas\n      call\n      iszero\n      dup1\n      iszero\n      tag_26\n      jumpi\n      returndatasize\n      0x00\n      dup1\n      returndatacopy\n      revert(0x00, returndatasize)\n    tag_26:\n      pop\n      pop\n      pop\n      pop\n      mload(0x40)\n      returndatasize\n      not(0x1f)\n      0x1f\n      dup3\n      add\n      and\n      dup3\n      add\n      dup1\n      0x40\n      mstore\n      pop\n      dup2\n      add\n      swap1\n      tag_27\n      swap2\n      swap1\n      tag_28\n      jump\t// in\n    tag_27:\n      pop\n        /* \"ConsentContract.sol\":520:646  function consent(string memory _name, uint256 _date) public onlyDonor {... */\n      pop\n      pop\n      jump\t// out\n        /* \"ConsentContract.sol\":228:259  ITokenCreate public tokenCreate */\n    tag_15:\n      0x01\n      0x00\n      swap1\n      sload\n      swap1\n      0x0100\n      exp\n      swap1\n      div\n      0xffffffffffffffffffffffffffffffffffffffff\n      and\n      dup2\n      jump\t// out\n        /* \"#utility.yul\":7:133   */\n    tag_29:\n        /* \"#utility.yul\":44:51   */\n      0x00\n        /* \"#utility.yul\":84:126   */\n      0xffffffffffffffffffffffffffffffffffffffff\n        /* \"#utility.yul\":77:82   */\n      dup3\n        /* \"#utility.yul\":73:127   */\n      and\n        /* \"#utility.yul\":62:127   */\n      swap1\n      pop\n        /* \"#utility.yul\":7:133   */\n      swap2\n      swap1\n      pop\n      jump\t// out\n        /* \"#utility.yul\":139:235   */\n    tag_30:\n        /* \"#utility.yul\":176:183   */\n      0x00\n        /* \"#utility.yul\":205:229   */\n      tag_64\n        /* \"#utility.yul\":223:228   */\n      dup3\n        /* \"#utility.yul\":205:229   */\n      tag_29\n      jump\t// in\n    tag_64:\n        /* \"#utility.yul\":194:229   */\n      swap1\n      pop\n        /* \"#utility.yul\":139:235   */\n      swap2\n      swap1\n      pop\n      jump\t// out\n        /* \"#utility.yul\":241:359   */\n    tag_31:\n        /* \"#utility.yul\":328:352   */\n      tag_66\n        /* \"#utility.yul\":346:351   */\n      dup2\n        /* \"#utility.yul\":328:352   */\n      tag_30\n      jump\t// in\n    tag_66:\n        /* \"#utility.yul\":323:326   */\n      dup3\n        /* \"#utility.yul\":316:353   */\n      mstore\n        /* \"#utility.yul\":241:359   */\n      pop\n      pop\n      jump\t// out\n        /* \"#utility.yul\":365:587   */\n    tag_9:\n        /* \"#utility.yul\":458:462   */\n      0x00\n        /* \"#utility.yul\":496:498   */\n      0x20\n        /* \"#utility.yul\":485:494   */\n      dup3\n        /* \"#utility.yul\":481:499   */\n      add\n        /* \"#utility.yul\":473:499   */\n      swap1\n      pop\n        /* \"#utility.yul\":509:580   */\n      tag_68\n        /* \"#utility.yul\":577:578   */\n      0x00\n        /* \"#utility.yul\":566:575   */\n      dup4\n        /* \"#utility.yul\":562:579   */\n      add\n        /* \"#utility.yul\":553:559   */\n      dup5\n        /* \"#utility.yul\":509:580   */\n      tag_31\n      jump\t// in\n    tag_68:\n        /* \"#utility.yul\":365:587   */\n      swap3\n      swap2\n      pop\n      pop\n      jump\t// out\n        /* \"#utility.yul\":593:668   */\n    tag_32:\n        /* \"#utility.yul\":626:632   */\n      0x00\n        /* \"#utility.yul\":659:661   */\n      0x40\n        /* \"#utility.yul\":653:662   */\n      mload\n        /* \"#utility.yul\":643:662   */\n      swap1\n      pop\n        /* \"#utility.yul\":593:668   */\n      swap1\n      jump\t// out\n        /* \"#utility.yul\":674:791   */\n    tag_33:\n        /* \"#utility.yul\":783:784   */\n      0x00\n        /* \"#utility.yul\":780:781   */\n      dup1\n        /* \"#utility.yul\":773:785   */\n      revert\n        /* \"#utility.yul\":797:914   */\n    tag_34:\n        /* \"#utility.yul\":906:907   */\n      0x00\n        /* \"#utility.yul\":903:904   */\n      dup1\n        /* \"#utility.yul\":896:908   */\n      revert\n        /* \"#utility.yul\":920:1037   */\n    tag_35:\n        /* \"#utility.yul\":1029:1030   */\n      0x00\n        /* \"#utility.yul\":1026:1027   */\n      dup1\n        /* \"#utility.yul\":1019:1031   */\n      revert\n        /* \"#utility.yul\":1043:1160   */\n    tag_36:\n        /* \"#utility.yul\":1152:1153   */\n      0x00\n        /* \"#utility.yul\":1149:1150   */\n      dup1\n        /* \"#utility.yul\":1142:1154   */\n      revert\n        /* \"#utility.yul\":1166:1268   */\n    tag_37:\n        /* \"#utility.yul\":1207:1213   */\n      0x00\n        /* \"#utility.yul\":1258:1260   */\n      0x1f\n        /* \"#utility.yul\":1254:1261   */\n      not\n        /* \"#utility.yul\":1249:1251   */\n      0x1f\n        /* \"#utility.yul\":1242:1247   */\n      dup4\n        /* \"#utility.yul\":1238:1252   */\n      add\n        /* \"#utility.yul\":1234:1262   */\n      and\n        /* \"#utility.yul\":1224:1262   */\n      swap1\n      pop\n        /* \"#utility.yul\":1166:1268   */\n      swap2\n      swap1\n      pop\n      jump\t// out\n        /* \"#utility.yul\":1274:1454   */\n    tag_38:\n        /* \"#utility.yul\":1322:1399   */\n      0x4e487b7100000000000000000000000000000000000000000000000000000000\n        /* \"#utility.yul\":1319:1320   */\n      0x00\n        /* \"#utility.yul\":1312:1400   */\n      mstore\n        /* \"#utility.yul\":1419:1423   */\n      0x41\n        /* \"#utility.yul\":1416:1417   */\n      0x04\n        /* \"#utility.yul\":1409:1424   */\n      mstore\n        /* \"#utility.yul\":1443:1447   */\n      0x24\n        /* \"#utility.yul\":1440:1441   */\n      0x00\n        /* \"#utility.yul\":1433:1448   */\n      revert\n        /* \"#utility.yul\":1460:1741   */\n    tag_39:\n        /* \"#utility.yul\":1543:1570   */\n      tag_77\n        /* \"#utility.yul\":1565:1569   */\n      dup3\n        /* \"#utility.yul\":1543:1570   */\n      tag_37\n      jump\t// in\n    tag_77:\n        /* \"#utility.yul\":1535:1541   */\n      dup2\n        /* \"#utility.yul\":1531:1571   */\n      add\n        /* \"#utility.yul\":1673:1679   */\n      dup2\n        /* \"#utility.yul\":1661:1671   */\n      dup2\n        /* \"#utility.yul\":1658:1680   */\n      lt\n        /* \"#utility.yul\":1637:1655   */\n      0xffffffffffffffff\n        /* \"#utility.yul\":1625:1635   */\n      dup3\n        /* \"#utility.yul\":1622:1656   */\n      gt\n        /* \"#utility.yul\":1619:1681   */\n      or\n        /* \"#utility.yul\":1616:1704   */\n      iszero\n      tag_78\n      jumpi\n        /* \"#utility.yul\":1684:1702   */\n      tag_79\n      tag_38\n      jump\t// in\n    tag_79:\n        /* \"#utility.yul\":1616:1704   */\n    tag_78:\n        /* \"#utility.yul\":1724:1734   */\n      dup1\n        /* \"#utility.yul\":1720:1722   */\n      0x40\n        /* \"#utility.yul\":1713:1735   */\n      mstore\n        /* \"#utility.yul\":1503:1741   */\n      pop\n        /* \"#utility.yul\":1460:1741   */\n      pop\n      pop\n      jump\t// out\n        /* \"#utility.yul\":1747:1876   */\n    tag_40:\n        /* \"#utility.yul\":1781:1787   */\n      0x00\n        /* \"#utility.yul\":1808:1828   */\n      tag_81\n      tag_32\n      jump\t// in\n    tag_81:\n        /* \"#utility.yul\":1798:1828   */\n      swap1\n      pop\n        /* \"#utility.yul\":1837:1870   */\n      tag_82\n        /* \"#utility.yul\":1865:1869   */\n      dup3\n        /* \"#utility.yul\":1857:1863   */\n      dup3\n        /* \"#utility.yul\":1837:1870   */\n      tag_39\n      jump\t// in\n    tag_82:\n        /* \"#utility.yul\":1747:1876   */\n      swap2\n      swap1\n      pop\n      jump\t// out\n        /* \"#utility.yul\":1882:2190   */\n    tag_41:\n        /* \"#utility.yul\":1944:1948   */\n      0x00\n        /* \"#utility.yul\":2034:2052   */\n      0xffffffffffffffff\n        /* \"#utility.yul\":2026:2032   */\n      dup3\n        /* \"#utility.yul\":2023:2053   */\n      gt\n        /* \"#utility.yul\":2020:2076   */\n      iszero\n      tag_84\n      jumpi\n        /* \"#utility.yul\":2056:2074   */\n      tag_85\n      tag_38\n      jump\t// in\n    tag_85:\n        /* \"#utility.yul\":2020:2076   */\n    tag_84:\n        /* \"#utility.yul\":2094:2123   */\n      tag_86\n        /* \"#utility.yul\":2116:2122   */\n      dup3\n        /* \"#utility.yul\":2094:2123   */\n      tag_37\n      jump\t// in\n    tag_86:\n        /* \"#utility.yul\":2086:2123   */\n      swap1\n      pop\n        /* \"#utility.yul\":2178:2182   */\n      0x20\n        /* \"#utility.yul\":2172:2176   */\n      dup2\n        /* \"#utility.yul\":2168:2183   */\n      add\n        /* \"#utility.yul\":2160:2183   */\n      swap1\n      pop\n        /* \"#utility.yul\":1882:2190   */\n      swap2\n      swap1\n      pop\n      jump\t// out\n        /* \"#utility.yul\":2196:2344   */\n    tag_42:\n        /* \"#utility.yul\":2294:2300   */\n      dup3\n        /* \"#utility.yul\":2289:2292   */\n      dup2\n        /* \"#utility.yul\":2284:2287   */\n      dup4\n        /* \"#utility.yul\":2271:2301   */\n      calldatacopy\n        /* \"#utility.yul\":2335:2336   */\n      0x00\n        /* \"#utility.yul\":2326:2332   */\n      dup4\n        /* \"#utility.yul\":2321:2324   */\n      dup4\n        /* \"#utility.yul\":2317:2333   */\n      add\n        /* \"#utility.yul\":2310:2337   */\n      mstore\n        /* \"#utility.yul\":2196:2344   */\n      pop\n      pop\n      pop\n      jump\t// out\n        /* \"#utility.yul\":2350:2775   */\n    tag_43:\n        /* \"#utility.yul\":2428:2433   */\n      0x00\n        /* \"#utility.yul\":2453:2519   */\n      tag_89\n        /* \"#utility.yul\":2469:2518   */\n      tag_90\n        /* \"#utility.yul\":2511:2517   */\n      dup5\n        /* \"#utility.yul\":2469:2518   */\n      tag_41\n      jump\t// in\n    tag_90:\n        /* \"#utility.yul\":2453:2519   */\n      tag_40\n      jump\t// in\n    tag_89:\n        /* \"#utility.yul\":2444:2519   */\n      swap1\n      pop\n        /* \"#utility.yul\":2542:2548   */\n      dup3\n        /* \"#utility.yul\":2535:2540   */\n      dup2\n        /* \"#utility.yul\":2528:2549   */\n      mstore\n        /* \"#utility.yul\":2580:2584   */\n      0x20\n        /* \"#utility.yul\":2573:2578   */\n      dup2\n        /* \"#utility.yul\":2569:2585   */\n      add\n        /* \"#utility.yul\":2618:2621   */\n      dup5\n        /* \"#utility.yul\":2609:2615   */\n      dup5\n        /* \"#utility.yul\":2604:2607   */\n      dup5\n        /* \"#utility.yul\":2600:2616   */\n      add\n        /* \"#utility.yul\":2597:2622   */\n      gt\n        /* \"#utility.yul\":2594:2706   */\n      iszero\n      tag_91\n      jumpi\n        /* \"#utility.yul\":2625:2704   */\n      tag_92\n      tag_36\n      jump\t// in\n    tag_92:\n        /* \"#utility.yul\":2594:2706   */\n    tag_91:\n        /* \"#utility.yul\":2715:2769   */\n      tag_93\n        /* \"#utility.yul\":2762:2768   */\n      dup5\n        /* \"#utility.yul\":2757:2760   */\n      dup3\n        /* \"#utility.yul\":2752:2755   */\n      dup6\n        /* \"#utility.yul\":2715:2769   */\n      tag_42\n      jump\t// in\n    tag_93:\n        /* \"#utility.yul\":2434:2775   */\n      pop\n        /* \"#utility.yul\":2350:2775   */\n      swap4\n      swap3\n      pop\n      pop\n      pop\n      jump\t// out\n        /* \"#utility.yul\":2795:3135   */\n    tag_44:\n        /* \"#utility.yul\":2851:2856   */\n      0x00\n        /* \"#utility.yul\":2900:2903   */\n      dup3\n        /* \"#utility.yul\":2893:2897   */\n      0x1f\n        /* \"#utility.yul\":2885:2891   */\n      dup4\n        /* \"#utility.yul\":2881:2898   */\n      add\n        /* \"#utility.yul\":2877:2904   */\n      slt\n        /* \"#utility.yul\":2867:2989   */\n      tag_95\n      jumpi\n        /* \"#utility.yul\":2908:2987   */\n      tag_96\n      tag_35\n      jump\t// in\n    tag_96:\n        /* \"#utility.yul\":2867:2989   */\n    tag_95:\n        /* \"#utility.yul\":3025:3031   */\n      dup2\n        /* \"#utility.yul\":3012:3032   */\n      calldataload\n        /* \"#utility.yul\":3050:3129   */\n      tag_97\n        /* \"#utility.yul\":3125:3128   */\n      dup5\n        /* \"#utility.yul\":3117:3123   */\n      dup3\n        /* \"#utility.yul\":3110:3114   */\n      0x20\n        /* \"#utility.yul\":3102:3108   */\n      dup7\n        /* \"#utility.yul\":3098:3115   */\n      add\n        /* \"#utility.yul\":3050:3129   */\n      tag_43\n      jump\t// in\n    tag_97:\n        /* \"#utility.yul\":3041:3129   */\n      swap2\n      pop\n        /* \"#utility.yul\":2857:3135   */\n      pop\n        /* \"#utility.yul\":2795:3135   */\n      swap3\n      swap2\n      pop\n      pop\n      jump\t// out\n        /* \"#utility.yul\":3141:3218   */\n    tag_45:\n        /* \"#utility.yul\":3178:3185   */\n      0x00\n        /* \"#utility.yul\":3207:3212   */\n      dup2\n        /* \"#utility.yul\":3196:3212   */\n      swap1\n      pop\n        /* \"#utility.yul\":3141:3218   */\n      swap2\n      swap1\n      pop\n      jump\t// out\n        /* \"#utility.yul\":3224:3346   */\n    tag_46:\n        /* \"#utility.yul\":3297:3321   */\n      tag_100\n        /* \"#utility.yul\":3315:3320   */\n      dup2\n        /* \"#utility.yul\":3297:3321   */\n      tag_45\n      jump\t// in\n    tag_100:\n        /* \"#utility.yul\":3290:3295   */\n      dup2\n        /* \"#utility.yul\":3287:3322   */\n      eq\n        /* \"#utility.yul\":3277:3340   */\n      tag_101\n      jumpi\n        /* \"#utility.yul\":3336:3337   */\n      0x00\n        /* \"#utility.yul\":3333:3334   */\n      dup1\n        /* \"#utility.yul\":3326:3338   */\n      revert\n        /* \"#utility.yul\":3277:3340   */\n    tag_101:\n        /* \"#utility.yul\":3224:3346   */\n      pop\n      jump\t// out\n        /* \"#utility.yul\":3352:3491   */\n    tag_47:\n        /* \"#utility.yul\":3398:3403   */\n      0x00\n        /* \"#utility.yul\":3436:3442   */\n      dup2\n        /* \"#utility.yul\":3423:3443   */\n      calldataload\n        /* \"#utility.yul\":3414:3443   */\n      swap1\n      pop\n        /* \"#utility.yul\":3452:3485   */\n      tag_103\n        /* \"#utility.yul\":3479:3484   */\n      dup2\n        /* \"#utility.yul\":3452:3485   */\n      tag_46\n      jump\t// in\n    tag_103:\n        /* \"#utility.yul\":3352:3491   */\n      swap3\n      swap2\n      pop\n      pop\n      jump\t// out\n        /* \"#utility.yul\":3497:4151   */\n    tag_12:\n        /* \"#utility.yul\":3575:3581   */\n      0x00\n        /* \"#utility.yul\":3583:3589   */\n      dup1\n        /* \"#utility.yul\":3632:3634   */\n      0x40\n        /* \"#utility.yul\":3620:3629   */\n      dup4\n        /* \"#utility.yul\":3611:3618   */\n      dup6\n        /* \"#utility.yul\":3607:3630   */\n      sub\n        /* \"#utility.yul\":3603:3635   */\n      slt\n        /* \"#utility.yul\":3600:3719   */\n      iszero\n      tag_105\n      jumpi\n        /* \"#utility.yul\":3638:3717   */\n      tag_106\n      tag_33\n      jump\t// in\n    tag_106:\n        /* \"#utility.yul\":3600:3719   */\n    tag_105:\n        /* \"#utility.yul\":3786:3787   */\n      0x00\n        /* \"#utility.yul\":3775:3784   */\n      dup4\n        /* \"#utility.yul\":3771:3788   */\n      add\n        /* \"#utility.yul\":3758:3789   */\n      calldataload\n        /* \"#utility.yul\":3816:3834   */\n      0xffffffffffffffff\n        /* \"#utility.yul\":3808:3814   */\n      dup2\n        /* \"#utility.yul\":3805:3835   */\n      gt\n        /* \"#utility.yul\":3802:3919   */\n      iszero\n      tag_107\n      jumpi\n        /* \"#utility.yul\":3838:3917   */\n      tag_108\n      tag_34\n      jump\t// in\n    tag_108:\n        /* \"#utility.yul\":3802:3919   */\n    tag_107:\n        /* \"#utility.yul\":3943:4006   */\n      tag_109\n        /* \"#utility.yul\":3998:4005   */\n      dup6\n        /* \"#utility.yul\":3989:3995   */\n      dup3\n        /* \"#utility.yul\":3978:3987   */\n      dup7\n        /* \"#utility.yul\":3974:3996   */\n      add\n        /* \"#utility.yul\":3943:4006   */\n      tag_44\n      jump\t// in\n    tag_109:\n        /* \"#utility.yul\":3933:4006   */\n      swap3\n      pop\n        /* \"#utility.yul\":3729:4016   */\n      pop\n        /* \"#utility.yul\":4055:4057   */\n      0x20\n        /* \"#utility.yul\":4081:4134   */\n      tag_110\n        /* \"#utility.yul\":4126:4133   */\n      dup6\n        /* \"#utility.yul\":4117:4123   */\n      dup3\n        /* \"#utility.yul\":4106:4115   */\n      dup7\n        /* \"#utility.yul\":4102:4124   */\n      add\n        /* \"#utility.yul\":4081:4134   */\n      tag_47\n      jump\t// in\n    tag_110:\n        /* \"#utility.yul\":4071:4134   */\n      swap2\n      pop\n        /* \"#utility.yul\":4026:4144   */\n      pop\n        /* \"#utility.yul\":3497:4151   */\n      swap3\n      pop\n      swap3\n      swap1\n      pop\n      jump\t// out\n        /* \"#utility.yul\":4157:4217   */\n    tag_48:\n        /* \"#utility.yul\":4185:4188   */\n      0x00\n        /* \"#utility.yul\":4206:4211   */\n      dup2\n        /* \"#utility.yul\":4199:4211   */\n      swap1\n      pop\n        /* \"#utility.yul\":4157:4217   */\n      swap2\n      swap1\n      pop\n      jump\t// out\n        /* \"#utility.yul\":4223:4365   */\n    tag_49:\n        /* \"#utility.yul\":4273:4282   */\n      0x00\n        /* \"#utility.yul\":4306:4359   */\n      tag_113\n        /* \"#utility.yul\":4324:4358   */\n      tag_114\n        /* \"#utility.yul\":4333:4357   */\n      tag_115\n        /* \"#utility.yul\":4351:4356   */\n      dup5\n        /* \"#utility.yul\":4333:4357   */\n      tag_29\n      jump\t// in\n    tag_115:\n        /* \"#utility.yul\":4324:4358   */\n      tag_48\n      jump\t// in\n    tag_114:\n        /* \"#utility.yul\":4306:4359   */\n      tag_29\n      jump\t// in\n    tag_113:\n        /* \"#utility.yul\":4293:4359   */\n      swap1\n      pop\n        /* \"#utility.yul\":4223:4365   */\n      swap2\n      swap1\n      pop\n      jump\t// out\n        /* \"#utility.yul\":4371:4497   */\n    tag_50:\n        /* \"#utility.yul\":4421:4430   */\n      0x00\n        /* \"#utility.yul\":4454:4491   */\n      tag_117\n        /* \"#utility.yul\":4485:4490   */\n      dup3\n        /* \"#utility.yul\":4454:4491   */\n      tag_49\n      jump\t// in\n    tag_117:\n        /* \"#utility.yul\":4441:4491   */\n      swap1\n      pop\n        /* \"#utility.yul\":4371:4497   */\n      swap2\n      swap1\n      pop\n      jump\t// out\n        /* \"#utility.yul\":4503:4648   */\n    tag_51:\n        /* \"#utility.yul\":4572:4581   */\n      0x00\n        /* \"#utility.yul\":4605:4642   */\n      tag_119\n        /* \"#utility.yul\":4636:4641   */\n      dup3\n        /* \"#utility.yul\":4605:4642   */\n      tag_50\n      jump\t// in\n    tag_119:\n        /* \"#utility.yul\":4592:4642   */\n      swap1\n      pop\n        /* \"#utility.yul\":4503:4648   */\n      swap2\n      swap1\n      pop\n      jump\t// out\n        /* \"#utility.yul\":4654:4823   */\n    tag_52:\n        /* \"#utility.yul\":4760:4816   */\n      tag_121\n        /* \"#utility.yul\":4810:4815   */\n      dup2\n        /* \"#utility.yul\":4760:4816   */\n      tag_51\n      jump\t// in\n    tag_121:\n        /* \"#utility.yul\":4755:4758   */\n      dup3\n        /* \"#utility.yul\":4748:4817   */\n      mstore\n        /* \"#utility.yul\":4654:4823   */\n      pop\n      pop\n      jump\t// out\n        /* \"#utility.yul\":4829:5089   */\n    tag_17:\n        /* \"#utility.yul\":4941:4945   */\n      0x00\n        /* \"#utility.yul\":4979:4981   */\n      0x20\n        /* \"#utility.yul\":4968:4977   */\n      dup3\n        /* \"#utility.yul\":4964:4982   */\n      add\n        /* \"#utility.yul\":4956:4982   */\n      swap1\n      pop\n        /* \"#utility.yul\":4992:5082   */\n      tag_123\n        /* \"#utility.yul\":5079:5080   */\n      0x00\n        /* \"#utility.yul\":5068:5077   */\n      dup4\n        /* \"#utility.yul\":5064:5081   */\n      add\n        /* \"#utility.yul\":5055:5061   */\n      dup5\n        /* \"#utility.yul\":4992:5082   */\n      tag_52\n      jump\t// in\n    tag_123:\n        /* \"#utility.yul\":4829:5089   */\n      swap3\n      swap2\n      pop\n      pop\n      jump\t// out\n        /* \"#utility.yul\":5095:5264   */\n    tag_53:\n        /* \"#utility.yul\":5179:5190   */\n      0x00\n        /* \"#utility.yul\":5213:5219   */\n      dup3\n        /* \"#utility.yul\":5208:5211   */\n      dup3\n        /* \"#utility.yul\":5201:5220   */\n      mstore\n        /* \"#utility.yul\":5253:5257   */\n      0x20\n        /* \"#utility.yul\":5248:5251   */\n      dup3\n        /* \"#utility.yul\":5244:5258   */\n      add\n        /* \"#utility.yul\":5229:5258   */\n      swap1\n      pop\n        /* \"#utility.yul\":5095:5264   */\n      swap3\n      swap2\n      pop\n      pop\n      jump\t// out\n        /* \"#utility.yul\":5270:5438   */\n    tag_54:\n        /* \"#utility.yul\":5410:5430   */\n      0x4f6e6c7920646f6e6f7220616c6c6f7765640000000000000000000000000000\n        /* \"#utility.yul\":5406:5407   */\n      0x00\n        /* \"#utility.yul\":5398:5404   */\n      dup3\n        /* \"#utility.yul\":5394:5408   */\n      add\n        /* \"#utility.yul\":5387:5431   */\n      mstore\n        /* \"#utility.yul\":5270:5438   */\n      pop\n      jump\t// out\n        /* \"#utility.yul\":5444:5810   */\n    tag_55:\n        /* \"#utility.yul\":5586:5589   */\n      0x00\n        /* \"#utility.yul\":5607:5674   */\n      tag_127\n        /* \"#utility.yul\":5671:5673   */\n      0x12\n        /* \"#utility.yul\":5666:5669   */\n      dup4\n        /* \"#utility.yul\":5607:5674   */\n      tag_53\n      jump\t// in\n    tag_127:\n        /* \"#utility.yul\":5600:5674   */\n      swap2\n      pop\n        /* \"#utility.yul\":5683:5776   */\n      tag_128\n        /* \"#utility.yul\":5772:5775   */\n      dup3\n        /* \"#utility.yul\":5683:5776   */\n      tag_54\n      jump\t// in\n    tag_128:\n        /* \"#utility.yul\":5801:5803   */\n      0x20\n        /* \"#utility.yul\":5796:5799   */\n      dup3\n        /* \"#utility.yul\":5792:5804   */\n      add\n        /* \"#utility.yul\":5785:5804   */\n      swap1\n      pop\n        /* \"#utility.yul\":5444:5810   */\n      swap2\n      swap1\n      pop\n      jump\t// out\n        /* \"#utility.yul\":5816:6235   */\n    tag_21:\n        /* \"#utility.yul\":5982:5986   */\n      0x00\n        /* \"#utility.yul\":6020:6022   */\n      0x20\n        /* \"#utility.yul\":6009:6018   */\n      dup3\n        /* \"#utility.yul\":6005:6023   */\n      add\n        /* \"#utility.yul\":5997:6023   */\n      swap1\n      pop\n        /* \"#utility.yul\":6069:6078   */\n      dup2\n        /* \"#utility.yul\":6063:6067   */\n      dup2\n        /* \"#utility.yul\":6059:6079   */\n      sub\n        /* \"#utility.yul\":6055:6056   */\n      0x00\n        /* \"#utility.yul\":6044:6053   */\n      dup4\n        /* \"#utility.yul\":6040:6057   */\n      add\n        /* \"#utility.yul\":6033:6080   */\n      mstore\n        /* \"#utility.yul\":6097:6228   */\n      tag_130\n        /* \"#utility.yul\":6223:6227   */\n      dup2\n        /* \"#utility.yul\":6097:6228   */\n      tag_55\n      jump\t// in\n    tag_130:\n        /* \"#utility.yul\":6089:6228   */\n      swap1\n      pop\n        /* \"#utility.yul\":5816:6235   */\n      swap2\n      swap1\n      pop\n      jump\t// out\n        /* \"#utility.yul\":6241:6340   */\n    tag_56:\n        /* \"#utility.yul\":6293:6299   */\n      0x00\n        /* \"#utility.yul\":6327:6332   */\n      dup2\n        /* \"#utility.yul\":6321:6333   */\n      mload\n        /* \"#utility.yul\":6311:6333   */\n      swap1\n      pop\n        /* \"#utility.yul\":6241:6340   */\n      swap2\n      swap1\n      pop\n      jump\t// out\n        /* \"#utility.yul\":6346:6485   */\n    tag_57:\n        /* \"#utility.yul\":6435:6441   */\n      dup3\n        /* \"#utility.yul\":6430:6433   */\n      dup2\n        /* \"#utility.yul\":6425:6428   */\n      dup4\n        /* \"#utility.yul\":6419:6442   */\n      mcopy\n        /* \"#utility.yul\":6476:6477   */\n      0x00\n        /* \"#utility.yul\":6467:6473   */\n      dup4\n        /* \"#utility.yul\":6462:6465   */\n      dup4\n        /* \"#utility.yul\":6458:6474   */\n      add\n        /* \"#utility.yul\":6451:6478   */\n      mstore\n        /* \"#utility.yul\":6346:6485   */\n      pop\n      pop\n      pop\n      jump\t// out\n        /* \"#utility.yul\":6491:6868   */\n    tag_58:\n        /* \"#utility.yul\":6579:6582   */\n      0x00\n        /* \"#utility.yul\":6607:6646   */\n      tag_134\n        /* \"#utility.yul\":6640:6645   */\n      dup3\n        /* \"#utility.yul\":6607:6646   */\n      tag_56\n      jump\t// in\n    tag_134:\n        /* \"#utility.yul\":6662:6733   */\n      tag_135\n        /* \"#utility.yul\":6726:6732   */\n      dup2\n        /* \"#utility.yul\":6721:6724   */\n      dup6\n        /* \"#utility.yul\":6662:6733   */\n      tag_53\n      jump\t// in\n    tag_135:\n        /* \"#utility.yul\":6655:6733   */\n      swap4\n      pop\n        /* \"#utility.yul\":6742:6807   */\n      tag_136\n        /* \"#utility.yul\":6800:6806   */\n      dup2\n        /* \"#utility.yul\":6795:6798   */\n      dup6\n        /* \"#utility.yul\":6788:6792   */\n      0x20\n        /* \"#utility.yul\":6781:6786   */\n      dup7\n        /* \"#utility.yul\":6777:6793   */\n      add\n        /* \"#utility.yul\":6742:6807   */\n      tag_57\n      jump\t// in\n    tag_136:\n        /* \"#utility.yul\":6832:6861   */\n      tag_137\n        /* \"#utility.yul\":6854:6860   */\n      dup2\n        /* \"#utility.yul\":6832:6861   */\n      tag_37\n      jump\t// in\n    tag_137:\n        /* \"#utility.yul\":6827:6830   */\n      dup5\n        /* \"#utility.yul\":6823:6862   */\n      add\n        /* \"#utility.yul\":6816:6862   */\n      swap2\n      pop\n        /* \"#utility.yul\":6583:6868   */\n      pop\n        /* \"#utility.yul\":6491:6868   */\n      swap3\n      swap2\n      pop\n      pop\n      jump\t// out\n        /* \"#utility.yul\":6874:6992   */\n    tag_59:\n        /* \"#utility.yul\":6961:6985   */\n      tag_139\n        /* \"#utility.yul\":6979:6984   */\n      dup2\n        /* \"#utility.yul\":6961:6985   */\n      tag_45\n      jump\t// in\n    tag_139:\n        /* \"#utility.yul\":6956:6959   */\n      dup3\n        /* \"#utility.yul\":6949:6986   */\n      mstore\n        /* \"#utility.yul\":6874:6992   */\n      pop\n      pop\n      jump\t// out\n        /* \"#utility.yul\":6998:7421   */\n    tag_24:\n        /* \"#utility.yul\":7139:7143   */\n      0x00\n        /* \"#utility.yul\":7177:7179   */\n      0x40\n        /* \"#utility.yul\":7166:7175   */\n      dup3\n        /* \"#utility.yul\":7162:7180   */\n      add\n        /* \"#utility.yul\":7154:7180   */\n      swap1\n      pop\n        /* \"#utility.yul\":7226:7235   */\n      dup2\n        /* \"#utility.yul\":7220:7224   */\n      dup2\n        /* \"#utility.yul\":7216:7236   */\n      sub\n        /* \"#utility.yul\":7212:7213   */\n      0x00\n        /* \"#utility.yul\":7201:7210   */\n      dup4\n        /* \"#utility.yul\":7197:7214   */\n      add\n        /* \"#utility.yul\":7190:7237   */\n      mstore\n        /* \"#utility.yul\":7254:7332   */\n      tag_141\n        /* \"#utility.yul\":7327:7331   */\n      dup2\n        /* \"#utility.yul\":7318:7324   */\n      dup6\n        /* \"#utility.yul\":7254:7332   */\n      tag_58\n      jump\t// in\n    tag_141:\n        /* \"#utility.yul\":7246:7332   */\n      swap1\n      pop\n        /* \"#utility.yul\":7342:7414   */\n      tag_142\n        /* \"#utility.yul\":7410:7412   */\n      0x20\n        /* \"#utility.yul\":7399:7408   */\n      dup4\n        /* \"#utility.yul\":7395:7413   */\n      add\n        /* \"#utility.yul\":7386:7392   */\n      dup5\n        /* \"#utility.yul\":7342:7414   */\n      tag_59\n      jump\t// in\n    tag_142:\n        /* \"#utility.yul\":6998:7421   */\n      swap4\n      swap3\n      pop\n      pop\n      pop\n      jump\t// out\n        /* \"#utility.yul\":7427:7570   */\n    tag_60:\n        /* \"#utility.yul\":7484:7489   */\n      0x00\n        /* \"#utility.yul\":7515:7521   */\n      dup2\n        /* \"#utility.yul\":7509:7522   */\n      mload\n        /* \"#utility.yul\":7500:7522   */\n      swap1\n      pop\n        /* \"#utility.yul\":7531:7564   */\n      tag_144\n        /* \"#utility.yul\":7558:7563   */\n      dup2\n        /* \"#utility.yul\":7531:7564   */\n      tag_46\n      jump\t// in\n    tag_144:\n        /* \"#utility.yul\":7427:7570   */\n      swap3\n      swap2\n      pop\n      pop\n      jump\t// out\n        /* \"#utility.yul\":7576:7927   */\n    tag_28:\n        /* \"#utility.yul\":7646:7652   */\n      0x00\n        /* \"#utility.yul\":7695:7697   */\n      0x20\n        /* \"#utility.yul\":7683:7692   */\n      dup3\n        /* \"#utility.yul\":7674:7681   */\n      dup5\n        /* \"#utility.yul\":7670:7693   */\n      sub\n        /* \"#utility.yul\":7666:7698   */\n      slt\n        /* \"#utility.yul\":7663:7782   */\n      iszero\n      tag_146\n      jumpi\n        /* \"#utility.yul\":7701:7780   */\n      tag_147\n      tag_33\n      jump\t// in\n    tag_147:\n        /* \"#utility.yul\":7663:7782   */\n    tag_146:\n        /* \"#utility.yul\":7821:7822   */\n      0x00\n        /* \"#utility.yul\":7846:7910   */\n      tag_148\n        /* \"#utility.yul\":7902:7909   */\n      dup5\n        /* \"#utility.yul\":7893:7899   */\n      dup3\n        /* \"#utility.yul\":7882:7891   */\n      dup6\n        /* \"#utility.yul\":7878:7900   */\n      add\n        /* \"#utility.yul\":7846:7910   */\n      tag_60\n      jump\t// in\n    tag_148:\n        /* \"#utility.yul\":7836:7910   */\n      swap2\n      pop\n        /* \"#utility.yul\":7792:7920   */\n      pop\n        /* \"#utility.yul\":7576:7927   */\n      swap3\n      swap2\n      pop\n      pop\n      jump\t// out\n\n    auxdata: 0xa2646970667358221220091c3209e8a2e7ff4099ad01a875da32176722e340aad6d47411286b59a2ba4364736f6c634300081a0033\n}\n",
				"bytecode": {
					"linkReferences": {},
					"object": "608060405234801561000f575f80fd5b5060405161079138038061079183398181016040528101906100319190610115565b815f806101000a81548173ffffffffffffffffffffffffffffffffffffffff021916908373ffffffffffffffffffffffffffffffffffffffff1602179055508060015f6101000a81548173ffffffffffffffffffffffffffffffffffffffff021916908373ffffffffffffffffffffffffffffffffffffffff1602179055505050610153565b5f80fd5b5f73ffffffffffffffffffffffffffffffffffffffff82169050919050565b5f6100e4826100bb565b9050919050565b6100f4816100da565b81146100fe575f80fd5b50565b5f8151905061010f816100eb565b92915050565b5f806040838503121561012b5761012a6100b7565b5b5f61013885828601610101565b925050602061014985828601610101565b9150509250929050565b610631806101605f395ff3fe608060405234801561000f575f80fd5b506004361061003f575f3560e01c806325223bd41461004357806338a3a94f14610061578063aca713d91461007d575b5f80fd5b61004b61009b565b6040516100589190610250565b60405180910390f35b61007b600480360381019061007691906103e9565b6100be565b005b6100856101ec565b604051610092919061049e565b60405180910390f35b5f8054906101000a900473ffffffffffffffffffffffffffffffffffffffff1681565b5f8054906101000a900473ffffffffffffffffffffffffffffffffffffffff1673ffffffffffffffffffffffffffffffffffffffff163373ffffffffffffffffffffffffffffffffffffffff161461014b576040517f08c379a000000000000000000000000000000000000000000000000000000000815260040161014290610511565b60405180910390fd5b60015f9054906101000a900473ffffffffffffffffffffffffffffffffffffffff1673ffffffffffffffffffffffffffffffffffffffff16638af88a5c83836040518363ffffffff1660e01b81526004016101a792919061058e565b6020604051808303815f875af11580156101c3573d5f803e3d5ffd5b505050506040513d601f19601f820116820180604052508101906101e791906105d0565b505050565b60015f9054906101000a900473ffffffffffffffffffffffffffffffffffffffff1681565b5f73ffffffffffffffffffffffffffffffffffffffff82169050919050565b5f61023a82610211565b9050919050565b61024a81610230565b82525050565b5f6020820190506102635f830184610241565b92915050565b5f604051905090565b5f80fd5b5f80fd5b5f80fd5b5f80fd5b5f601f19601f8301169050919050565b7f4e487b71000000000000000000000000000000000000000000000000000000005f52604160045260245ffd5b6102c882610282565b810181811067ffffffffffffffff821117156102e7576102e6610292565b5b80604052505050565b5f6102f9610269565b905061030582826102bf565b919050565b5f67ffffffffffffffff82111561032457610323610292565b5b61032d82610282565b9050602081019050919050565b828183375f83830152505050565b5f61035a6103558461030a565b6102f0565b9050828152602081018484840111156103765761037561027e565b5b61038184828561033a565b509392505050565b5f82601f83011261039d5761039c61027a565b5b81356103ad848260208601610348565b91505092915050565b5f819050919050565b6103c8816103b6565b81146103d2575f80fd5b50565b5f813590506103e3816103bf565b92915050565b5f80604083850312156103ff576103fe610272565b5b5f83013567ffffffffffffffff81111561041c5761041b610276565b5b61042885828601610389565b9250506020610439858286016103d5565b9150509250929050565b5f819050919050565b5f61046661046161045c84610211565b610443565b610211565b9050919050565b5f6104778261044c565b9050919050565b5f6104888261046d565b9050919050565b6104988161047e565b82525050565b5f6020820190506104b15f83018461048f565b92915050565b5f82825260208201905092915050565b7f4f6e6c7920646f6e6f7220616c6c6f77656400000000000000000000000000005f82015250565b5f6104fb6012836104b7565b9150610506826104c7565b602082019050919050565b5f6020820190508181035f830152610528816104ef565b9050919050565b5f81519050919050565b8281835e5f83830152505050565b5f6105518261052f565b61055b81856104b7565b935061056b818560208601610539565b61057481610282565b840191505092915050565b610588816103b6565b82525050565b5f6040820190508181035f8301526105a68185610547565b90506105b5602083018461057f565b9392505050565b5f815190506105ca816103bf565b92915050565b5f602082840312156105e5576105e4610272565b5b5f6105f2848285016105bc565b9150509291505056fea2646970667358221220091c3209e8a2e7ff4099ad01a875da32176722e340aad6d47411286b59a2ba4364736f6c634300081a0033",
					"opcodes": "PUSH1 0x80 PUSH1 0x40 MSTORE CALLVALUE DUP1 ISZERO PUSH2 0xF JUMPI PUSH0 DUP1 REVERT JUMPDEST POP PUSH1 0x40 MLOAD PUSH2 0x791 CODESIZE SUB DUP1 PUSH2 0x791 DUP4 CODECOPY DUP2 DUP2 ADD PUSH1 0x40 MSTORE DUP2 ADD SWAP1 PUSH2 0x31 SWAP2 SWAP1 PUSH2 0x115 JUMP JUMPDEST DUP2 PUSH0 DUP1 PUSH2 0x100 EXP DUP2 SLOAD DUP2 PUSH20 0xFFFFFFFFFFFFFFFFFFFFFFFFFFFFFFFFFFFFFFFF MUL NOT AND SWAP1 DUP4 PUSH20 0xFFFFFFFFFFFFFFFFFFFFFFFFFFFFFFFFFFFFFFFF AND MUL OR SWAP1 SSTORE POP DUP1 PUSH1 0x1 PUSH0 PUSH2 0x100 EXP DUP2 SLOAD DUP2 PUSH20 0xFFFFFFFFFFFFFFFFFFFFFFFFFFFFFFFFFFFFFFFF MUL NOT AND SWAP1 DUP4 PUSH20 0xFFFFFFFFFFFFFFFFFFFFFFFFFFFFFFFFFFFFFFFF AND MUL OR SWAP1 SSTORE POP POP POP PUSH2 0x153 JUMP JUMPDEST PUSH0 DUP1 REVERT JUMPDEST PUSH0 PUSH20 0xFFFFFFFFFFFFFFFFFFFFFFFFFFFFFFFFFFFFFFFF DUP3 AND SWAP1 POP SWAP2 SWAP1 POP JUMP JUMPDEST PUSH0 PUSH2 0xE4 DUP3 PUSH2 0xBB JUMP JUMPDEST SWAP1 POP SWAP2 SWAP1 POP JUMP JUMPDEST PUSH2 0xF4 DUP2 PUSH2 0xDA JUMP JUMPDEST DUP2 EQ PUSH2 0xFE JUMPI PUSH0 DUP1 REVERT JUMPDEST POP JUMP JUMPDEST PUSH0 DUP2 MLOAD SWAP1 POP PUSH2 0x10F DUP2 PUSH2 0xEB JUMP JUMPDEST SWAP3 SWAP2 POP POP JUMP JUMPDEST PUSH0 DUP1 PUSH1 0x40 DUP4 DUP6 SUB SLT ISZERO PUSH2 0x12B JUMPI PUSH2 0x12A PUSH2 0xB7 JUMP JUMPDEST JUMPDEST PUSH0 PUSH2 0x138 DUP6 DUP3 DUP7 ADD PUSH2 0x101 JUMP JUMPDEST SWAP3 POP POP PUSH1 0x20 PUSH2 0x149 DUP6 DUP3 DUP7 ADD PUSH2 0x101 JUMP JUMPDEST SWAP2 POP POP SWAP3 POP SWAP3 SWAP1 POP JUMP JUMPDEST PUSH2 0x631 DUP1 PUSH2 0x160 PUSH0 CODECOPY PUSH0 RETURN INVALID PUSH1 0x80 PUSH1 0x40 MSTORE CALLVALUE DUP1 ISZERO PUSH2 0xF JUMPI PUSH0 DUP1 REVERT JUMPDEST POP PUSH1 0x4 CALLDATASIZE LT PUSH2 0x3F JUMPI PUSH0 CALLDATALOAD PUSH1 0xE0 SHR DUP1 PUSH4 0x25223BD4 EQ PUSH2 0x43 JUMPI DUP1 PUSH4 0x38A3A94F EQ PUSH2 0x61 JUMPI DUP1 PUSH4 0xACA713D9 EQ PUSH2 0x7D JUMPI JUMPDEST PUSH0 DUP1 REVERT JUMPDEST PUSH2 0x4B PUSH2 0x9B JUMP JUMPDEST PUSH1 0x40 MLOAD PUSH2 0x58 SWAP2 SWAP1 PUSH2 0x250 JUMP JUMPDEST PUSH1 0x40 MLOAD DUP1 SWAP2 SUB SWAP1 RETURN JUMPDEST PUSH2 0x7B PUSH1 0x4 DUP1 CALLDATASIZE SUB DUP2 ADD SWAP1 PUSH2 0x76 SWAP2 SWAP1 PUSH2 0x3E9 JUMP JUMPDEST PUSH2 0xBE JUMP JUMPDEST STOP JUMPDEST PUSH2 0x85 PUSH2 0x1EC JUMP JUMPDEST PUSH1 0x40 MLOAD PUSH2 0x92 SWAP2 SWAP1 PUSH2 0x49E JUMP JUMPDEST PUSH1 0x40 MLOAD DUP1 SWAP2 SUB SWAP1 RETURN JUMPDEST PUSH0 DUP1 SLOAD SWAP1 PUSH2 0x100 EXP SWAP1 DIV PUSH20 0xFFFFFFFFFFFFFFFFFFFFFFFFFFFFFFFFFFFFFFFF AND DUP2 JUMP JUMPDEST PUSH0 DUP1 SLOAD SWAP1 PUSH2 0x100 EXP SWAP1 DIV PUSH20 0xFFFFFFFFFFFFFFFFFFFFFFFFFFFFFFFFFFFFFFFF AND PUSH20 0xFFFFFFFFFFFFFFFFFFFFFFFFFFFFFFFFFFFFFFFF AND CALLER PUSH20 0xFFFFFFFFFFFFFFFFFFFFFFFFFFFFFFFFFFFFFFFF AND EQ PUSH2 0x14B JUMPI PUSH1 0x40 MLOAD PUSH32 0x8C379A000000000000000000000000000000000000000000000000000000000 DUP2 MSTORE PUSH1 0x4 ADD PUSH2 0x142 SWAP1 PUSH2 0x511 JUMP JUMPDEST PUSH1 0x40 MLOAD DUP1 SWAP2 SUB SWAP1 REVERT JUMPDEST PUSH1 0x1 PUSH0 SWAP1 SLOAD SWAP1 PUSH2 0x100 EXP SWAP1 DIV PUSH20 0xFFFFFFFFFFFFFFFFFFFFFFFFFFFFFFFFFFFFFFFF AND PUSH20 0xFFFFFFFFFFFFFFFFFFFFFFFFFFFFFFFFFFFFFFFF AND PUSH4 0x8AF88A5C DUP4 DUP4 PUSH1 0x40 MLOAD DUP4 PUSH4 0xFFFFFFFF AND PUSH1 0xE0 SHL DUP2 MSTORE PUSH1 0x4 ADD PUSH2 0x1A7 SWAP3 SWAP2 SWAP1 PUSH2 0x58E JUMP JUMPDEST PUSH1 0x20 PUSH1 0x40 MLOAD DUP1 DUP4 SUB DUP2 PUSH0 DUP8 GAS CALL ISZERO DUP1 ISZERO PUSH2 0x1C3 JUMPI RETURNDATASIZE PUSH0 DUP1 RETURNDATACOPY RETURNDATASIZE PUSH0 REVERT JUMPDEST POP POP POP POP PUSH1 0x40 MLOAD RETURNDATASIZE PUSH1 0x1F NOT PUSH1 0x1F DUP3 ADD AND DUP3 ADD DUP1 PUSH1 0x40 MSTORE POP DUP2 ADD SWAP1 PUSH2 0x1E7 SWAP2 SWAP1 PUSH2 0x5D0 JUMP JUMPDEST POP POP POP JUMP JUMPDEST PUSH1 0x1 PUSH0 SWAP1 SLOAD SWAP1 PUSH2 0x100 EXP SWAP1 DIV PUSH20 0xFFFFFFFFFFFFFFFFFFFFFFFFFFFFFFFFFFFFFFFF AND DUP2 JUMP JUMPDEST PUSH0 PUSH20 0xFFFFFFFFFFFFFFFFFFFFFFFFFFFFFFFFFFFFFFFF DUP3 AND SWAP1 POP SWAP2 SWAP1 POP JUMP JUMPDEST PUSH0 PUSH2 0x23A DUP3 PUSH2 0x211 JUMP JUMPDEST SWAP1 POP SWAP2 SWAP1 POP JUMP JUMPDEST PUSH2 0x24A DUP2 PUSH2 0x230 JUMP JUMPDEST DUP3 MSTORE POP POP JUMP JUMPDEST PUSH0 PUSH1 0x20 DUP3 ADD SWAP1 POP PUSH2 0x263 PUSH0 DUP4 ADD DUP5 PUSH2 0x241 JUMP JUMPDEST SWAP3 SWAP2 POP POP JUMP JUMPDEST PUSH0 PUSH1 0x40 MLOAD SWAP1 POP SWAP1 JUMP JUMPDEST PUSH0 DUP1 REVERT JUMPDEST PUSH0 DUP1 REVERT JUMPDEST PUSH0 DUP1 REVERT JUMPDEST PUSH0 DUP1 REVERT JUMPDEST PUSH0 PUSH1 0x1F NOT PUSH1 0x1F DUP4 ADD AND SWAP1 POP SWAP2 SWAP1 POP JUMP JUMPDEST PUSH32 0x4E487B7100000000000000000000000000000000000000000000000000000000 PUSH0 MSTORE PUSH1 0x41 PUSH1 0x4 MSTORE PUSH1 0x24 PUSH0 REVERT JUMPDEST PUSH2 0x2C8 DUP3 PUSH2 0x282 JUMP JUMPDEST DUP2 ADD DUP2 DUP2 LT PUSH8 0xFFFFFFFFFFFFFFFF DUP3 GT OR ISZERO PUSH2 0x2E7 JUMPI PUSH2 0x2E6 PUSH2 0x292 JUMP JUMPDEST JUMPDEST DUP1 PUSH1 0x40 MSTORE POP POP POP JUMP JUMPDEST PUSH0 PUSH2 0x2F9 PUSH2 0x269 JUMP JUMPDEST SWAP1 POP PUSH2 0x305 DUP3 DUP3 PUSH2 0x2BF JUMP JUMPDEST SWAP2 SWAP1 POP JUMP JUMPDEST PUSH0 PUSH8 0xFFFFFFFFFFFFFFFF DUP3 GT ISZERO PUSH2 0x324 JUMPI PUSH2 0x323 PUSH2 0x292 JUMP JUMPDEST JUMPDEST PUSH2 0x32D DUP3 PUSH2 0x282 JUMP JUMPDEST SWAP1 POP PUSH1 0x20 DUP2 ADD SWAP1 POP SWAP2 SWAP1 POP JUMP JUMPDEST DUP3 DUP2 DUP4 CALLDATACOPY PUSH0 DUP4 DUP4 ADD MSTORE POP POP POP JUMP JUMPDEST PUSH0 PUSH2 0x35A PUSH2 0x355 DUP5 PUSH2 0x30A JUMP JUMPDEST PUSH2 0x2F0 JUMP JUMPDEST SWAP1 POP DUP3 DUP2 MSTORE PUSH1 0x20 DUP2 ADD DUP5 DUP5 DUP5 ADD GT ISZERO PUSH2 0x376 JUMPI PUSH2 0x375 PUSH2 0x27E JUMP JUMPDEST JUMPDEST PUSH2 0x381 DUP5 DUP3 DUP6 PUSH2 0x33A JUMP JUMPDEST POP SWAP4 SWAP3 POP POP POP JUMP JUMPDEST PUSH0 DUP3 PUSH1 0x1F DUP4 ADD SLT PUSH2 0x39D JUMPI PUSH2 0x39C PUSH2 0x27A JUMP JUMPDEST JUMPDEST DUP2 CALLDATALOAD PUSH2 0x3AD DUP5 DUP3 PUSH1 0x20 DUP7 ADD PUSH2 0x348 JUMP JUMPDEST SWAP2 POP POP SWAP3 SWAP2 POP POP JUMP JUMPDEST PUSH0 DUP2 SWAP1 POP SWAP2 SWAP1 POP JUMP JUMPDEST PUSH2 0x3C8 DUP2 PUSH2 0x3B6 JUMP JUMPDEST DUP2 EQ PUSH2 0x3D2 JUMPI PUSH0 DUP1 REVERT JUMPDEST POP JUMP JUMPDEST PUSH0 DUP2 CALLDATALOAD SWAP1 POP PUSH2 0x3E3 DUP2 PUSH2 0x3BF JUMP JUMPDEST SWAP3 SWAP2 POP POP JUMP JUMPDEST PUSH0 DUP1 PUSH1 0x40 DUP4 DUP6 SUB SLT ISZERO PUSH2 0x3FF JUMPI PUSH2 0x3FE PUSH2 0x272 JUMP JUMPDEST JUMPDEST PUSH0 DUP4 ADD CALLDATALOAD PUSH8 0xFFFFFFFFFFFFFFFF DUP2 GT ISZERO PUSH2 0x41C JUMPI PUSH2 0x41B PUSH2 0x276 JUMP JUMPDEST JUMPDEST PUSH2 0x428 DUP6 DUP3 DUP7 ADD PUSH2 0x389 JUMP JUMPDEST SWAP3 POP POP PUSH1 0x20 PUSH2 0x439 DUP6 DUP3 DUP7 ADD PUSH2 0x3D5 JUMP JUMPDEST SWAP2 POP POP SWAP3 POP SWAP3 SWAP1 POP JUMP JUMPDEST PUSH0 DUP2 SWAP1 POP SWAP2 SWAP1 POP JUMP JUMPDEST PUSH0 PUSH2 0x466 PUSH2 0x461 PUSH2 0x45C DUP5 PUSH2 0x211 JUMP JUMPDEST PUSH2 0x443 JUMP JUMPDEST PUSH2 0x211 JUMP JUMPDEST SWAP1 POP SWAP2 SWAP1 POP JUMP JUMPDEST PUSH0 PUSH2 0x477 DUP3 PUSH2 0x44C JUMP JUMPDEST SWAP1 POP SWAP2 SWAP1 POP JUMP JUMPDEST PUSH0 PUSH2 0x488 DUP3 PUSH2 0x46D JUMP JUMPDEST SWAP1 POP SWAP2 SWAP1 POP JUMP JUMPDEST PUSH2 0x498 DUP2 PUSH2 0x47E JUMP JUMPDEST DUP3 MSTORE POP POP JUMP JUMPDEST PUSH0 PUSH1 0x20 DUP3 ADD SWAP1 POP PUSH2 0x4B1 PUSH0 DUP4 ADD DUP5 PUSH2 0x48F JUMP JUMPDEST SWAP3 SWAP2 POP POP JUMP JUMPDEST PUSH0 DUP3 DUP3 MSTORE PUSH1 0x20 DUP3 ADD SWAP1 POP SWAP3 SWAP2 POP POP JUMP JUMPDEST PUSH32 0x4F6E6C7920646F6E6F7220616C6C6F7765640000000000000000000000000000 PUSH0 DUP3 ADD MSTORE POP JUMP JUMPDEST PUSH0 PUSH2 0x4FB PUSH1 0x12 DUP4 PUSH2 0x4B7 JUMP JUMPDEST SWAP2 POP PUSH2 0x506 DUP3 PUSH2 0x4C7 JUMP JUMPDEST PUSH1 0x20 DUP3 ADD SWAP1 POP SWAP2 SWAP1 POP JUMP JUMPDEST PUSH0 PUSH1 0x20 DUP3 ADD SWAP1 POP DUP2 DUP2 SUB PUSH0 DUP4 ADD MSTORE PUSH2 0x528 DUP2 PUSH2 0x4EF JUMP JUMPDEST SWAP1 POP SWAP2 SWAP1 POP JUMP JUMPDEST PUSH0 DUP2 MLOAD SWAP1 POP SWAP2 SWAP1 POP JUMP JUMPDEST DUP3 DUP2 DUP4 MCOPY PUSH0 DUP4 DUP4 ADD MSTORE POP POP POP JUMP JUMPDEST PUSH0 PUSH2 0x551 DUP3 PUSH2 0x52F JUMP JUMPDEST PUSH2 0x55B DUP2 DUP6 PUSH2 0x4B7 JUMP JUMPDEST SWAP4 POP PUSH2 0x56B DUP2 DUP6 PUSH1 0x20 DUP7 ADD PUSH2 0x539 JUMP JUMPDEST PUSH2 0x574 DUP2 PUSH2 0x282 JUMP JUMPDEST DUP5 ADD SWAP2 POP POP SWAP3 SWAP2 POP POP JUMP JUMPDEST PUSH2 0x588 DUP2 PUSH2 0x3B6 JUMP JUMPDEST DUP3 MSTORE POP POP JUMP JUMPDEST PUSH0 PUSH1 0x40 DUP3 ADD SWAP1 POP DUP2 DUP2 SUB PUSH0 DUP4 ADD MSTORE PUSH2 0x5A6 DUP2 DUP6 PUSH2 0x547 JUMP JUMPDEST SWAP1 POP PUSH2 0x5B5 PUSH1 0x20 DUP4 ADD DUP5 PUSH2 0x57F JUMP JUMPDEST SWAP4 SWAP3 POP POP POP JUMP JUMPDEST PUSH0 DUP2 MLOAD SWAP1 POP PUSH2 0x5CA DUP2 PUSH2 0x3BF JUMP JUMPDEST SWAP3 SWAP2 POP POP JUMP JUMPDEST PUSH0 PUSH1 0x20 DUP3 DUP5 SUB SLT ISZERO PUSH2 0x5E5 JUMPI PUSH2 0x5E4 PUSH2 0x272 JUMP JUMPDEST JUMPDEST PUSH0 PUSH2 0x5F2 DUP5 DUP3 DUP6 ADD PUSH2 0x5BC JUMP JUMPDEST SWAP2 POP POP SWAP3 SWAP2 POP POP JUMP INVALID LOG2 PUSH5 0x6970667358 0x22 SLT KECCAK256 MULMOD SHR ORIGIN MULMOD 0xE8 LOG2 0xE7 SELFDESTRUCT BLOCKHASH SWAP10 0xAD ADD 0xA8 PUSH22 0xDA32176722E340AAD6D47411286B59A2BA4364736F6C PUSH4 0x4300081A STOP CALLER "
				},
				"gasEstimates": {
					"creation": {
						"codeDepositCost": "317000",
						"executionCost": "infinite",
						"totalCost": "infinite"
					},
					"external": {
						"consent(string,uint256)": "infinite",
						"donor()": "2483",
						"tokenCreate()": "infinite"
					}
				},
				"methodIdentifiers": {
					"consent(string,uint256)": "38a3a94f",
					"donor()": "25223bd4",
					"tokenCreate()": "aca713d9"
				}
			},
			"storageLayout": {
				"storage": [
					{
						"astId": 13,
						"contract": "ConsentContract.sol:ConsentContract",
						"label": "donor",
						"offset": 0,
						"slot": "0",
						"type": "t_address"
					},
					{
						"astId": 16,
						"contract": "ConsentContract.sol:ConsentContract",
						"label": "tokenCreate",
						"offset": 0,
						"slot": "1",
						"type": "t_contract(ITokenCreate)11"
					}
				],
				"types": {
					"t_address": {
						"encoding": "inplace",
						"label": "address",
						"numberOfBytes": "20"
					},
					"t_contract(ITokenCreate)11": {
						"encoding": "inplace",
						"label": "contract ITokenCreate",
						"numberOfBytes": "20"
					}
				}
			},
			"userdoc": {
				"kind": "user",
				"methods": {},
				"version": 1
			}
		}
	}
}