{
	"OrganCreateContract.sol": {
		"TokenCreateContract": {
			"abi": [
				{
					"inputs": [],
					"stateMutability": "nonpayable",
					"type": "constructor"
				},
				{
					"inputs": [
						{
							"internalType": "string",
							"name": "_donerName",
							"type": "string"
						},
						{
							"internalType": "uint256",
							"name": "_date",
							"type": "uint256"
						}
					],
					"name": "createOrgan",
					"outputs": [],
					"stateMutability": "nonpayable",
					"type": "function"
				},
				{
					"inputs": [
						{
							"internalType": "uint256",
							"name": "_id",
							"type": "uint256"
						}
					],
					"name": "getOrgan",
					"outputs": [
						{
							"components": [
								{
									"internalType": "string",
									"name": "donerName",
									"type": "string"
								},
								{
									"internalType": "uint256",
									"name": "dateDonated",
									"type": "uint256"
								},
								{
									"internalType": "string",
									"name": "condition",
									"type": "string"
								},
								{
									"internalType": "string",
									"name": "donatedTo",
									"type": "string"
								},
								{
									"internalType": "bool",
									"name": "isConsented",
									"type": "bool"
								},
								{
									"internalType": "bool",
									"name": "isEvaluated",
									"type": "bool"
								},
								{
									"internalType": "bool",
									"name": "isStored",
									"type": "bool"
								},
								{
									"internalType": "bool",
									"name": "isAssigned",
									"type": "bool"
								}
							],
							"internalType": "struct TokenCreateContract.OrganId",
							"name": "",
							"type": "tuple"
						}
					],
					"stateMutability": "view",
					"type": "function"
				},
				{
					"inputs": [],
					"name": "organCount",
					"outputs": [
						{
							"internalType": "uint256",
							"name": "",
							"type": "uint256"
						}
					],
					"stateMutability": "view",
					"type": "function"
				},
				{
					"inputs": [
						{
							"internalType": "uint256",
							"name": "",
							"type": "uint256"
						}
					],
					"name": "organs",
					"outputs": [
						{
							"internalType": "string",
							"name": "donerName",
							"type": "string"
						},
						{
							"internalType": "uint256",
							"name": "dateDonated",
							"type": "uint256"
						},
						{
							"internalType": "string",
							"name": "condition",
							"type": "string"
						},
						{
							"internalType": "string",
							"name": "donatedTo",
							"type": "string"
						},
						{
							"internalType": "bool",
							"name": "isConsented",
							"type": "bool"
						},
						{
							"internalType": "bool",
							"name": "isEvaluated",
							"type": "bool"
						},
						{
							"internalType": "bool",
							"name": "isStored",
							"type": "bool"
						},
						{
							"internalType": "bool",
							"name": "isAssigned",
							"type": "bool"
						}
					],
					"stateMutability": "view",
					"type": "function"
				},
				{
					"inputs": [
						{
							"internalType": "uint256",
							"name": "_id",
							"type": "uint256"
						},
						{
							"components": [
								{
									"internalType": "string",
									"name": "donerName",
									"type": "string"
								},
								{
									"internalType": "uint256",
									"name": "dateDonated",
									"type": "uint256"
								},
								{
									"internalType": "string",
									"name": "condition",
									"type": "string"
								},
								{
									"internalType": "string",
									"name": "donatedTo",
									"type": "string"
								},
								{
									"internalType": "bool",
									"name": "isConsented",
									"type": "bool"
								},
								{
									"internalType": "bool",
									"name": "isEvaluated",
									"type": "bool"
								},
								{
									"internalType": "bool",
									"name": "isStored",
									"type": "bool"
								},
								{
									"internalType": "bool",
									"name": "isAssigned",
									"type": "bool"
								}
							],
							"internalType": "struct TokenCreateContract.OrganId",
							"name": "_organ",
							"type": "tuple"
						}
					],
					"name": "updateOrgan",
					"outputs": [],
					"stateMutability": "nonpayable",
					"type": "function"
				}
			],
			"devdoc": {
				"kind": "dev",
				"methods": {},
				"version": 1
			},
			"evm": {
				"assembly": "    /* \"OrganCreateContract.sol\":60:1059  contract TokenCreateContract {... */\n  mstore(0x40, 0x80)\n    /* \"OrganCreateContract.sol\":444:495  constructor() {... */\n  callvalue\n  dup1\n  iszero\n  tag_1\n  jumpi\n  revert(0x00, 0x00)\ntag_1:\n  pop\n    /* \"OrganCreateContract.sol\":477:487  msg.sender */\n  caller\n    /* \"OrganCreateContract.sol\":469:474  owner */\n  0x00\n  0x00\n    /* \"OrganCreateContract.sol\":469:487  owner = msg.sender */\n  0x0100\n  exp\n  dup2\n  sload\n  dup2\n  0xffffffffffffffffffffffffffffffffffffffff\n  mul\n  not\n  and\n  swap1\n  dup4\n  0xffffffffffffffffffffffffffffffffffffffff\n  and\n  mul\n  or\n  swap1\n  sstore\n  pop\n    /* \"OrganCreateContract.sol\":60:1059  contract TokenCreateContract {... */\n  dataSize(sub_0)\n  dup1\n  dataOffset(sub_0)\n  0x00\n  codecopy\n  0x00\n  return\nstop\n\nsub_0: assembly {\n        /* \"OrganCreateContract.sol\":60:1059  contract TokenCreateContract {... */\n      mstore(0x40, 0x80)\n      callvalue\n      dup1\n      iszero\n      tag_1\n      jumpi\n      revert(0x00, 0x00)\n    tag_1:\n      pop\n      jumpi(tag_2, lt(calldatasize, 0x04))\n      shr(0xe0, calldataload(0x00))\n      dup1\n      0x098809d7\n      eq\n      tag_3\n      jumpi\n      dup1\n      0x0d47dd26\n      eq\n      tag_4\n      jumpi\n      dup1\n      0x10742b51\n      eq\n      tag_5\n      jumpi\n      dup1\n      0x4fbd241d\n      eq\n      tag_6\n      jumpi\n      dup1\n      0x8af88a5c\n      eq\n      tag_7\n      jumpi\n    tag_2:\n      revert(0x00, 0x00)\n        /* \"OrganCreateContract.sol\":410:435  uint256 public organCount */\n    tag_3:\n      tag_8\n      tag_9\n      jump\t// in\n    tag_8:\n      mload(0x40)\n      tag_10\n      swap2\n      swap1\n      tag_11\n      jump\t// in\n    tag_10:\n      mload(0x40)\n      dup1\n      swap2\n      sub\n      swap1\n      return\n        /* \"OrganCreateContract.sol\":951:1056  function updateOrgan(uint256 _id, OrganId memory _organ) external {... */\n    tag_4:\n      tag_12\n      0x04\n      dup1\n      calldatasize\n      sub\n      dup2\n      add\n      swap1\n      tag_13\n      swap2\n      swap1\n      tag_14\n      jump\t// in\n    tag_13:\n      tag_15\n      jump\t// in\n    tag_12:\n      stop\n        /* \"OrganCreateContract.sol\":836:943  function getOrgan(uint256 _id) external view returns (OrganId memory) {... */\n    tag_5:\n      tag_16\n      0x04\n      dup1\n      calldatasize\n      sub\n      dup2\n      add\n      swap1\n      tag_17\n      swap2\n      swap1\n      tag_18\n      jump\t// in\n    tag_17:\n      tag_19\n      jump\t// in\n    tag_16:\n      mload(0x40)\n      tag_20\n      swap2\n      swap1\n      tag_21\n      jump\t// in\n    tag_20:\n      mload(0x40)\n      dup1\n      swap2\n      sub\n      swap1\n      return\n        /* \"OrganCreateContract.sol\":362:403  mapping(uint256 => OrganId) public organs */\n    tag_6:\n      tag_22\n      0x04\n      dup1\n      calldatasize\n      sub\n      dup2\n      add\n      swap1\n      tag_23\n      swap2\n      swap1\n      tag_18\n      jump\t// in\n    tag_23:\n      tag_24\n      jump\t// in\n    tag_22:\n      mload(0x40)\n      tag_25\n      swap9\n      swap8\n      swap7\n      swap6\n      swap5\n      swap4\n      swap3\n      swap2\n      swap1\n      tag_26\n      jump\t// in\n    tag_25:\n      mload(0x40)\n      dup1\n      swap2\n      sub\n      swap1\n      return\n        /* \"OrganCreateContract.sol\":603:828  function createOrgan(string memory _donerName, uint256 _date) external {... */\n    tag_7:\n      tag_27\n      0x04\n      dup1\n      calldatasize\n      sub\n      dup2\n      add\n      swap1\n      tag_28\n      swap2\n      swap1\n      tag_29\n      jump\t// in\n    tag_28:\n      tag_30\n      jump\t// in\n    tag_27:\n      stop\n        /* \"OrganCreateContract.sol\":410:435  uint256 public organCount */\n    tag_9:\n      sload(0x02)\n      dup2\n      jump\t// out\n        /* \"OrganCreateContract.sol\":951:1056  function updateOrgan(uint256 _id, OrganId memory _organ) external {... */\n    tag_15:\n        /* \"OrganCreateContract.sol\":1042:1048  _organ */\n      dup1\n        /* \"OrganCreateContract.sol\":1028:1034  organs */\n      0x01\n        /* \"OrganCreateContract.sol\":1028:1039  organs[_id] */\n      0x00\n        /* \"OrganCreateContract.sol\":1035:1038  _id */\n      dup5\n        /* \"OrganCreateContract.sol\":1028:1039  organs[_id] */\n      dup2\n      mstore\n      0x20\n      add\n      swap1\n      dup2\n      mstore\n      0x20\n      add\n      0x00\n      keccak256\n        /* \"OrganCreateContract.sol\":1028:1048  organs[_id] = _organ */\n      0x00\n      dup3\n      add\n      mload\n      dup2\n      0x00\n      add\n      swap1\n      dup2\n      tag_32\n      swap2\n      swap1\n      tag_33\n      jump\t// in\n    tag_32:\n      pop\n      0x20\n      dup3\n      add\n      mload\n      dup2\n      0x01\n      add\n      sstore\n      0x40\n      dup3\n      add\n      mload\n      dup2\n      0x02\n      add\n      swap1\n      dup2\n      tag_34\n      swap2\n      swap1\n      tag_33\n      jump\t// in\n    tag_34:\n      pop\n      0x60\n      dup3\n      add\n      mload\n      dup2\n      0x03\n      add\n      swap1\n      dup2\n      tag_35\n      swap2\n      swap1\n      tag_33\n      jump\t// in\n    tag_35:\n      pop\n      0x80\n      dup3\n      add\n      mload\n      dup2\n      0x04\n      add\n      exp(0x0100, 0x00)\n      dup2\n      sload\n      dup2\n      0xff\n      mul\n      not\n      and\n      swap1\n      dup4\n      iszero\n      iszero\n      mul\n      or\n      swap1\n      sstore\n      pop\n      0xa0\n      dup3\n      add\n      mload\n      dup2\n      0x04\n      add\n      exp(0x0100, 0x01)\n      dup2\n      sload\n      dup2\n      0xff\n      mul\n      not\n      and\n      swap1\n      dup4\n      iszero\n      iszero\n      mul\n      or\n      swap1\n      sstore\n      pop\n      0xc0\n      dup3\n      add\n      mload\n      dup2\n      0x04\n      add\n      exp(0x0100, 0x02)\n      dup2\n      sload\n      dup2\n      0xff\n      mul\n      not\n      and\n      swap1\n      dup4\n      iszero\n      iszero\n      mul\n      or\n      swap1\n      sstore\n      pop\n      0xe0\n      dup3\n      add\n      mload\n      dup2\n      0x04\n      add\n      exp(0x0100, 0x03)\n      dup2\n      sload\n      dup2\n      0xff\n      mul\n      not\n      and\n      swap1\n      dup4\n      iszero\n      iszero\n      mul\n      or\n      swap1\n      sstore\n      pop\n      swap1\n      pop\n      pop\n        /* \"OrganCreateContract.sol\":951:1056  function updateOrgan(uint256 _id, OrganId memory _organ) external {... */\n      pop\n      pop\n      jump\t// out\n        /* \"OrganCreateContract.sol\":836:943  function getOrgan(uint256 _id) external view returns (OrganId memory) {... */\n    tag_19:\n        /* \"OrganCreateContract.sol\":890:904  OrganId memory */\n      tag_36\n      tag_37\n      jump\t// in\n    tag_36:\n        /* \"OrganCreateContract.sol\":924:930  organs */\n      0x01\n        /* \"OrganCreateContract.sol\":924:935  organs[_id] */\n      0x00\n        /* \"OrganCreateContract.sol\":931:934  _id */\n      dup4\n        /* \"OrganCreateContract.sol\":924:935  organs[_id] */\n      dup2\n      mstore\n      0x20\n      add\n      swap1\n      dup2\n      mstore\n      0x20\n      add\n      0x00\n      keccak256\n        /* \"OrganCreateContract.sol\":917:935  return organs[_id] */\n      mload(0x40)\n      dup1\n      0x0100\n      add\n      0x40\n      mstore\n      swap1\n      dup2\n      0x00\n      dup3\n      add\n      dup1\n      sload\n      tag_39\n      swap1\n      tag_40\n      jump\t// in\n    tag_39:\n      dup1\n      0x1f\n      add\n      0x20\n      dup1\n      swap2\n      div\n      mul\n      0x20\n      add\n      mload(0x40)\n      swap1\n      dup2\n      add\n      0x40\n      mstore\n      dup1\n      swap3\n      swap2\n      swap1\n      dup2\n      dup2\n      mstore\n      0x20\n      add\n      dup3\n      dup1\n      sload\n      tag_41\n      swap1\n      tag_40\n      jump\t// in\n    tag_41:\n      dup1\n      iszero\n      tag_42\n      jumpi\n      dup1\n      0x1f\n      lt\n      tag_43\n      jumpi\n      0x0100\n      dup1\n      dup4\n      sload\n      div\n      mul\n      dup4\n      mstore\n      swap2\n      0x20\n      add\n      swap2\n      jump(tag_42)\n    tag_43:\n      dup3\n      add\n      swap2\n      swap1\n      0x00\n      mstore\n      keccak256(0x00, 0x20)\n      swap1\n    tag_44:\n      dup2\n      sload\n      dup2\n      mstore\n      swap1\n      0x01\n      add\n      swap1\n      0x20\n      add\n      dup1\n      dup4\n      gt\n      tag_44\n      jumpi\n      dup3\n      swap1\n      sub\n      0x1f\n      and\n      dup3\n      add\n      swap2\n    tag_42:\n      pop\n      pop\n      pop\n      pop\n      pop\n      dup2\n      mstore\n      0x20\n      add\n      0x01\n      dup3\n      add\n      sload\n      dup2\n      mstore\n      0x20\n      add\n      0x02\n      dup3\n      add\n      dup1\n      sload\n      tag_45\n      swap1\n      tag_40\n      jump\t// in\n    tag_45:\n      dup1\n      0x1f\n      add\n      0x20\n      dup1\n      swap2\n      div\n      mul\n      0x20\n      add\n      mload(0x40)\n      swap1\n      dup2\n      add\n      0x40\n      mstore\n      dup1\n      swap3\n      swap2\n      swap1\n      dup2\n      dup2\n      mstore\n      0x20\n      add\n      dup3\n      dup1\n      sload\n      tag_46\n      swap1\n      tag_40\n      jump\t// in\n    tag_46:\n      dup1\n      iszero\n      tag_47\n      jumpi\n      dup1\n      0x1f\n      lt\n      tag_48\n      jumpi\n      0x0100\n      dup1\n      dup4\n      sload\n      div\n      mul\n      dup4\n      mstore\n      swap2\n      0x20\n      add\n      swap2\n      jump(tag_47)\n    tag_48:\n      dup3\n      add\n      swap2\n      swap1\n      0x00\n      mstore\n      keccak256(0x00, 0x20)\n      swap1\n    tag_49:\n      dup2\n      sload\n      dup2\n      mstore\n      swap1\n      0x01\n      add\n      swap1\n      0x20\n      add\n      dup1\n      dup4\n      gt\n      tag_49\n      jumpi\n      dup3\n      swap1\n      sub\n      0x1f\n      and\n      dup3\n      add\n      swap2\n    tag_47:\n      pop\n      pop\n      pop\n      pop\n      pop\n      dup2\n      mstore\n      0x20\n      add\n      0x03\n      dup3\n      add\n      dup1\n      sload\n      tag_50\n      swap1\n      tag_40\n      jump\t// in\n    tag_50:\n      dup1\n      0x1f\n      add\n      0x20\n      dup1\n      swap2\n      div\n      mul\n      0x20\n      add\n      mload(0x40)\n      swap1\n      dup2\n      add\n      0x40\n      mstore\n      dup1\n      swap3\n      swap2\n      swap1\n      dup2\n      dup2\n      mstore\n      0x20\n      add\n      dup3\n      dup1\n      sload\n      tag_51\n      swap1\n      tag_40\n      jump\t// in\n    tag_51:\n      dup1\n      iszero\n      tag_52\n      jumpi\n      dup1\n      0x1f\n      lt\n      tag_53\n      jumpi\n      0x0100\n      dup1\n      dup4\n      sload\n      div\n      mul\n      dup4\n      mstore\n      swap2\n      0x20\n      add\n      swap2\n      jump(tag_52)\n    tag_53:\n      dup3\n      add\n      swap2\n      swap1\n      0x00\n      mstore\n      keccak256(0x00, 0x20)\n      swap1\n    tag_54:\n      dup2\n      sload\n      dup2\n      mstore\n      swap1\n      0x01\n      add\n      swap1\n      0x20\n      add\n      dup1\n      dup4\n      gt\n      tag_54\n      jumpi\n      dup3\n      swap1\n      sub\n      0x1f\n      and\n      dup3\n      add\n      swap2\n    tag_52:\n      pop\n      pop\n      pop\n      pop\n      pop\n      dup2\n      mstore\n      0x20\n      add\n      0x04\n      dup3\n      add\n      0x00\n      swap1\n      sload\n      swap1\n      0x0100\n      exp\n      swap1\n      div\n      0xff\n      and\n      iszero\n      iszero\n      iszero\n      iszero\n      dup2\n      mstore\n      0x20\n      add\n      0x04\n      dup3\n      add\n      0x01\n      swap1\n      sload\n      swap1\n      0x0100\n      exp\n      swap1\n      div\n      0xff\n      and\n      iszero\n      iszero\n      iszero\n      iszero\n      dup2\n      mstore\n      0x20\n      add\n      0x04\n      dup3\n      add\n      0x02\n      swap1\n      sload\n      swap1\n      0x0100\n      exp\n      swap1\n      div\n      0xff\n      and\n      iszero\n      iszero\n      iszero\n      iszero\n      dup2\n      mstore\n      0x20\n      add\n      0x04\n      dup3\n      add\n      0x03\n      swap1\n      sload\n      swap1\n      0x0100\n      exp\n      swap1\n      div\n      0xff\n      and\n      iszero\n      iszero\n      iszero\n      iszero\n      dup2\n      mstore\n      pop\n      pop\n      swap1\n      pop\n        /* \"OrganCreateContract.sol\":836:943  function getOrgan(uint256 _id) external view returns (OrganId memory) {... */\n      swap2\n      swap1\n      pop\n      jump\t// out\n        /* \"OrganCreateContract.sol\":362:403  mapping(uint256 => OrganId) public organs */\n    tag_24:\n      mstore(0x20, 0x01)\n      dup1\n      0x00\n      mstore\n      keccak256(0x00, 0x40)\n      0x00\n      swap2\n      pop\n      swap1\n      pop\n      dup1\n      0x00\n      add\n      dup1\n      sload\n      tag_55\n      swap1\n      tag_40\n      jump\t// in\n    tag_55:\n      dup1\n      0x1f\n      add\n      0x20\n      dup1\n      swap2\n      div\n      mul\n      0x20\n      add\n      mload(0x40)\n      swap1\n      dup2\n      add\n      0x40\n      mstore\n      dup1\n      swap3\n      swap2\n      swap1\n      dup2\n      dup2\n      mstore\n      0x20\n      add\n      dup3\n      dup1\n      sload\n      tag_56\n      swap1\n      tag_40\n      jump\t// in\n    tag_56:\n      dup1\n      iszero\n      tag_57\n      jumpi\n      dup1\n      0x1f\n      lt\n      tag_58\n      jumpi\n      0x0100\n      dup1\n      dup4\n      sload\n      div\n      mul\n      dup4\n      mstore\n      swap2\n      0x20\n      add\n      swap2\n      jump(tag_57)\n    tag_58:\n      dup3\n      add\n      swap2\n      swap1\n      0x00\n      mstore\n      keccak256(0x00, 0x20)\n      swap1\n    tag_59:\n      dup2\n      sload\n      dup2\n      mstore\n      swap1\n      0x01\n      add\n      swap1\n      0x20\n      add\n      dup1\n      dup4\n      gt\n      tag_59\n      jumpi\n      dup3\n      swap1\n      sub\n      0x1f\n      and\n      dup3\n      add\n      swap2\n    tag_57:\n      pop\n      pop\n      pop\n      pop\n      pop\n      swap1\n      dup1\n      0x01\n      add\n      sload\n      swap1\n      dup1\n      0x02\n      add\n      dup1\n      sload\n      tag_60\n      swap1\n      tag_40\n      jump\t// in\n    tag_60:\n      dup1\n      0x1f\n      add\n      0x20\n      dup1\n      swap2\n      div\n      mul\n      0x20\n      add\n      mload(0x40)\n      swap1\n      dup2\n      add\n      0x40\n      mstore\n      dup1\n      swap3\n      swap2\n      swap1\n      dup2\n      dup2\n      mstore\n      0x20\n      add\n      dup3\n      dup1\n      sload\n      tag_61\n      swap1\n      tag_40\n      jump\t// in\n    tag_61:\n      dup1\n      iszero\n      tag_62\n      jumpi\n      dup1\n      0x1f\n      lt\n      tag_63\n      jumpi\n      0x0100\n      dup1\n      dup4\n      sload\n      div\n      mul\n      dup4\n      mstore\n      swap2\n      0x20\n      add\n      swap2\n      jump(tag_62)\n    tag_63:\n      dup3\n      add\n      swap2\n      swap1\n      0x00\n      mstore\n      keccak256(0x00, 0x20)\n      swap1\n    tag_64:\n      dup2\n      sload\n      dup2\n      mstore\n      swap1\n      0x01\n      add\n      swap1\n      0x20\n      add\n      dup1\n      dup4\n      gt\n      tag_64\n      jumpi\n      dup3\n      swap1\n      sub\n      0x1f\n      and\n      dup3\n      add\n      swap2\n    tag_62:\n      pop\n      pop\n      pop\n      pop\n      pop\n      swap1\n      dup1\n      0x03\n      add\n      dup1\n      sload\n      tag_65\n      swap1\n      tag_40\n      jump\t// in\n    tag_65:\n      dup1\n      0x1f\n      add\n      0x20\n      dup1\n      swap2\n      div\n      mul\n      0x20\n      add\n      mload(0x40)\n      swap1\n      dup2\n      add\n      0x40\n      mstore\n      dup1\n      swap3\n      swap2\n      swap1\n      dup2\n      dup2\n      mstore\n      0x20\n      add\n      dup3\n      dup1\n      sload\n      tag_66\n      swap1\n      tag_40\n      jump\t// in\n    tag_66:\n      dup1\n      iszero\n      tag_67\n      jumpi\n      dup1\n      0x1f\n      lt\n      tag_68\n      jumpi\n      0x0100\n      dup1\n      dup4\n      sload\n      div\n      mul\n      dup4\n      mstore\n      swap2\n      0x20\n      add\n      swap2\n      jump(tag_67)\n    tag_68:\n      dup3\n      add\n      swap2\n      swap1\n      0x00\n      mstore\n      keccak256(0x00, 0x20)\n      swap1\n    tag_69:\n      dup2\n      sload\n      dup2\n      mstore\n      swap1\n      0x01\n      add\n      swap1\n      0x20\n      add\n      dup1\n      dup4\n      gt\n      tag_69\n      jumpi\n      dup3\n      swap1\n      sub\n      0x1f\n      and\n      dup3\n      add\n      swap2\n    tag_67:\n      pop\n      pop\n      pop\n      pop\n      pop\n      swap1\n      dup1\n      0x04\n      add\n      0x00\n      swap1\n      sload\n      swap1\n      0x0100\n      exp\n      swap1\n      div\n      0xff\n      and\n      swap1\n      dup1\n      0x04\n      add\n      0x01\n      swap1\n      sload\n      swap1\n      0x0100\n      exp\n      swap1\n      div\n      0xff\n      and\n      swap1\n      dup1\n      0x04\n      add\n      0x02\n      swap1\n      sload\n      swap1\n      0x0100\n      exp\n      swap1\n      div\n      0xff\n      and\n      swap1\n      dup1\n      0x04\n      add\n      0x03\n      swap1\n      sload\n      swap1\n      0x0100\n      exp\n      swap1\n      div\n      0xff\n      and\n      swap1\n      pop\n      dup9\n      jump\t// out\n        /* \"OrganCreateContract.sol\":603:828  function createOrgan(string memory _donerName, uint256 _date) external {... */\n    tag_30:\n        /* \"OrganCreateContract.sol\":685:695  organCount */\n      0x02\n      0x00\n        /* \"OrganCreateContract.sol\":685:697  organCount++ */\n      dup2\n      sload\n      dup1\n      swap3\n      swap2\n      swap1\n      tag_71\n      swap1\n      tag_72\n      jump\t// in\n    tag_71:\n      swap2\n      swap1\n      pop\n      sstore\n      pop\n        /* \"OrganCreateContract.sol\":729:820  OrganId(_donerName, _date, \"To be evaluated\", \"To be assigned\", false, false, false, false) */\n      mload(0x40)\n      dup1\n      0x0100\n      add\n      0x40\n      mstore\n      dup1\n        /* \"OrganCreateContract.sol\":737:747  _donerName */\n      dup4\n        /* \"OrganCreateContract.sol\":729:820  OrganId(_donerName, _date, \"To be evaluated\", \"To be assigned\", false, false, false, false) */\n      dup2\n      mstore\n      0x20\n      add\n        /* \"OrganCreateContract.sol\":749:754  _date */\n      dup3\n        /* \"OrganCreateContract.sol\":729:820  OrganId(_donerName, _date, \"To be evaluated\", \"To be assigned\", false, false, false, false) */\n      dup2\n      mstore\n      0x20\n      add\n      mload(0x40)\n      dup1\n      0x40\n      add\n      0x40\n      mstore\n      dup1\n      0x0f\n      dup2\n      mstore\n      0x20\n      add\n      0x546f206265206576616c75617465640000000000000000000000000000000000\n      dup2\n      mstore\n      pop\n      dup2\n      mstore\n      0x20\n      add\n      mload(0x40)\n      dup1\n      0x40\n      add\n      0x40\n      mstore\n      dup1\n      0x0e\n      dup2\n      mstore\n      0x20\n      add\n      0x546f2062652061737369676e6564000000000000000000000000000000000000\n      dup2\n      mstore\n      pop\n      dup2\n      mstore\n      0x20\n      add\n        /* \"OrganCreateContract.sol\":793:798  false */\n      0x00\n        /* \"OrganCreateContract.sol\":729:820  OrganId(_donerName, _date, \"To be evaluated\", \"To be assigned\", false, false, false, false) */\n      iszero\n      iszero\n      dup2\n      mstore\n      0x20\n      add\n        /* \"OrganCreateContract.sol\":800:805  false */\n      0x00\n        /* \"OrganCreateContract.sol\":729:820  OrganId(_donerName, _date, \"To be evaluated\", \"To be assigned\", false, false, false, false) */\n      iszero\n      iszero\n      dup2\n      mstore\n      0x20\n      add\n        /* \"OrganCreateContract.sol\":807:812  false */\n      0x00\n        /* \"OrganCreateContract.sol\":729:820  OrganId(_donerName, _date, \"To be evaluated\", \"To be assigned\", false, false, false, false) */\n      iszero\n      iszero\n      dup2\n      mstore\n      0x20\n      add\n        /* \"OrganCreateContract.sol\":814:819  false */\n      0x00\n        /* \"OrganCreateContract.sol\":729:820  OrganId(_donerName, _date, \"To be evaluated\", \"To be assigned\", false, false, false, false) */\n      iszero\n      iszero\n      dup2\n      mstore\n      pop\n        /* \"OrganCreateContract.sol\":708:714  organs */\n      0x01\n        /* \"OrganCreateContract.sol\":708:726  organs[organCount] */\n      0x00\n        /* \"OrganCreateContract.sol\":715:725  organCount */\n      sload(0x02)\n        /* \"OrganCreateContract.sol\":708:726  organs[organCount] */\n      dup2\n      mstore\n      0x20\n      add\n      swap1\n      dup2\n      mstore\n      0x20\n      add\n      0x00\n      keccak256\n        /* \"OrganCreateContract.sol\":708:820  organs[organCount] = OrganId(_donerName, _date, \"To be evaluated\", \"To be assigned\", false, false, false, false) */\n      0x00\n      dup3\n      add\n      mload\n      dup2\n      0x00\n      add\n      swap1\n      dup2\n      tag_73\n      swap2\n      swap1\n      tag_33\n      jump\t// in\n    tag_73:\n      pop\n      0x20\n      dup3\n      add\n      mload\n      dup2\n      0x01\n      add\n      sstore\n      0x40\n      dup3\n      add\n      mload\n      dup2\n      0x02\n      add\n      swap1\n      dup2\n      tag_74\n      swap2\n      swap1\n      tag_33\n      jump\t// in\n    tag_74:\n      pop\n      0x60\n      dup3\n      add\n      mload\n      dup2\n      0x03\n      add\n      swap1\n      dup2\n      tag_75\n      swap2\n      swap1\n      tag_33\n      jump\t// in\n    tag_75:\n      pop\n      0x80\n      dup3\n      add\n      mload\n      dup2\n      0x04\n      add\n      exp(0x0100, 0x00)\n      dup2\n      sload\n      dup2\n      0xff\n      mul\n      not\n      and\n      swap1\n      dup4\n      iszero\n      iszero\n      mul\n      or\n      swap1\n      sstore\n      pop\n      0xa0\n      dup3\n      add\n      mload\n      dup2\n      0x04\n      add\n      exp(0x0100, 0x01)\n      dup2\n      sload\n      dup2\n      0xff\n      mul\n      not\n      and\n      swap1\n      dup4\n      iszero\n      iszero\n      mul\n      or\n      swap1\n      sstore\n      pop\n      0xc0\n      dup3\n      add\n      mload\n      dup2\n      0x04\n      add\n      exp(0x0100, 0x02)\n      dup2\n      sload\n      dup2\n      0xff\n      mul\n      not\n      and\n      swap1\n      dup4\n      iszero\n      iszero\n      mul\n      or\n      swap1\n      sstore\n      pop\n      0xe0\n      dup3\n      add\n      mload\n      dup2\n      0x04\n      add\n      exp(0x0100, 0x03)\n      dup2\n      sload\n      dup2\n      0xff\n      mul\n      not\n      and\n      swap1\n      dup4\n      iszero\n      iszero\n      mul\n      or\n      swap1\n      sstore\n      pop\n      swap1\n      pop\n      pop\n        /* \"OrganCreateContract.sol\":603:828  function createOrgan(string memory _donerName, uint256 _date) external {... */\n      pop\n      pop\n      jump\t// out\n    tag_37:\n      mload(0x40)\n      dup1\n      0x0100\n      add\n      0x40\n      mstore\n      dup1\n      0x60\n      dup2\n      mstore\n      0x20\n      add\n      0x00\n      dup2\n      mstore\n      0x20\n      add\n      0x60\n      dup2\n      mstore\n      0x20\n      add\n      0x60\n      dup2\n      mstore\n      0x20\n      add\n      iszero(iszero(0x00))\n      dup2\n      mstore\n      0x20\n      add\n      iszero(iszero(0x00))\n      dup2\n      mstore\n      0x20\n      add\n      iszero(iszero(0x00))\n      dup2\n      mstore\n      0x20\n      add\n      iszero(iszero(0x00))\n      dup2\n      mstore\n      pop\n      swap1\n      jump\t// out\n        /* \"#utility.yul\":7:84   */\n    tag_76:\n        /* \"#utility.yul\":44:51   */\n      0x00\n        /* \"#utility.yul\":73:78   */\n      dup2\n        /* \"#utility.yul\":62:78   */\n      swap1\n      pop\n        /* \"#utility.yul\":7:84   */\n      swap2\n      swap1\n      pop\n      jump\t// out\n        /* \"#utility.yul\":90:208   */\n    tag_77:\n        /* \"#utility.yul\":177:201   */\n      tag_129\n        /* \"#utility.yul\":195:200   */\n      dup2\n        /* \"#utility.yul\":177:201   */\n      tag_76\n      jump\t// in\n    tag_129:\n        /* \"#utility.yul\":172:175   */\n      dup3\n        /* \"#utility.yul\":165:202   */\n      mstore\n        /* \"#utility.yul\":90:208   */\n      pop\n      pop\n      jump\t// out\n        /* \"#utility.yul\":214:436   */\n    tag_11:\n        /* \"#utility.yul\":307:311   */\n      0x00\n        /* \"#utility.yul\":345:347   */\n      0x20\n        /* \"#utility.yul\":334:343   */\n      dup3\n        /* \"#utility.yul\":330:348   */\n      add\n        /* \"#utility.yul\":322:348   */\n      swap1\n      pop\n        /* \"#utility.yul\":358:429   */\n      tag_131\n        /* \"#utility.yul\":426:427   */\n      0x00\n        /* \"#utility.yul\":415:424   */\n      dup4\n        /* \"#utility.yul\":411:428   */\n      add\n        /* \"#utility.yul\":402:408   */\n      dup5\n        /* \"#utility.yul\":358:429   */\n      tag_77\n      jump\t// in\n    tag_131:\n        /* \"#utility.yul\":214:436   */\n      swap3\n      swap2\n      pop\n      pop\n      jump\t// out\n        /* \"#utility.yul\":442:517   */\n    tag_78:\n        /* \"#utility.yul\":475:481   */\n      0x00\n        /* \"#utility.yul\":508:510   */\n      0x40\n        /* \"#utility.yul\":502:511   */\n      mload\n        /* \"#utility.yul\":492:511   */\n      swap1\n      pop\n        /* \"#utility.yul\":442:517   */\n      swap1\n      jump\t// out\n        /* \"#utility.yul\":523:640   */\n    tag_79:\n        /* \"#utility.yul\":632:633   */\n      0x00\n        /* \"#utility.yul\":629:630   */\n      0x00\n        /* \"#utility.yul\":622:634   */\n      revert\n        /* \"#utility.yul\":646:763   */\n    tag_80:\n        /* \"#utility.yul\":755:756   */\n      0x00\n        /* \"#utility.yul\":752:753   */\n      0x00\n        /* \"#utility.yul\":745:757   */\n      revert\n        /* \"#utility.yul\":769:891   */\n    tag_81:\n        /* \"#utility.yul\":842:866   */\n      tag_136\n        /* \"#utility.yul\":860:865   */\n      dup2\n        /* \"#utility.yul\":842:866   */\n      tag_76\n      jump\t// in\n    tag_136:\n        /* \"#utility.yul\":835:840   */\n      dup2\n        /* \"#utility.yul\":832:867   */\n      eq\n        /* \"#utility.yul\":822:885   */\n      tag_137\n      jumpi\n        /* \"#utility.yul\":881:882   */\n      0x00\n        /* \"#utility.yul\":878:879   */\n      0x00\n        /* \"#utility.yul\":871:883   */\n      revert\n        /* \"#utility.yul\":822:885   */\n    tag_137:\n        /* \"#utility.yul\":769:891   */\n      pop\n      jump\t// out\n        /* \"#utility.yul\":897:1036   */\n    tag_82:\n        /* \"#utility.yul\":943:948   */\n      0x00\n        /* \"#utility.yul\":981:987   */\n      dup2\n        /* \"#utility.yul\":968:988   */\n      calldataload\n        /* \"#utility.yul\":959:988   */\n      swap1\n      pop\n        /* \"#utility.yul\":997:1030   */\n      tag_139\n        /* \"#utility.yul\":1024:1029   */\n      dup2\n        /* \"#utility.yul\":997:1030   */\n      tag_81\n      jump\t// in\n    tag_139:\n        /* \"#utility.yul\":897:1036   */\n      swap3\n      swap2\n      pop\n      pop\n      jump\t// out\n        /* \"#utility.yul\":1042:1159   */\n    tag_83:\n        /* \"#utility.yul\":1151:1152   */\n      0x00\n        /* \"#utility.yul\":1148:1149   */\n      0x00\n        /* \"#utility.yul\":1141:1153   */\n      revert\n        /* \"#utility.yul\":1165:1267   */\n    tag_84:\n        /* \"#utility.yul\":1206:1212   */\n      0x00\n        /* \"#utility.yul\":1257:1259   */\n      0x1f\n        /* \"#utility.yul\":1253:1260   */\n      not\n        /* \"#utility.yul\":1248:1250   */\n      0x1f\n        /* \"#utility.yul\":1241:1246   */\n      dup4\n        /* \"#utility.yul\":1237:1251   */\n      add\n        /* \"#utility.yul\":1233:1261   */\n      and\n        /* \"#utility.yul\":1223:1261   */\n      swap1\n      pop\n        /* \"#utility.yul\":1165:1267   */\n      swap2\n      swap1\n      pop\n      jump\t// out\n        /* \"#utility.yul\":1273:1453   */\n    tag_85:\n        /* \"#utility.yul\":1321:1398   */\n      0x4e487b7100000000000000000000000000000000000000000000000000000000\n        /* \"#utility.yul\":1318:1319   */\n      0x00\n        /* \"#utility.yul\":1311:1399   */\n      mstore\n        /* \"#utility.yul\":1418:1422   */\n      0x41\n        /* \"#utility.yul\":1415:1416   */\n      0x04\n        /* \"#utility.yul\":1408:1423   */\n      mstore\n        /* \"#utility.yul\":1442:1446   */\n      0x24\n        /* \"#utility.yul\":1439:1440   */\n      0x00\n        /* \"#utility.yul\":1432:1447   */\n      revert\n        /* \"#utility.yul\":1459:1740   */\n    tag_86:\n        /* \"#utility.yul\":1542:1569   */\n      tag_144\n        /* \"#utility.yul\":1564:1568   */\n      dup3\n        /* \"#utility.yul\":1542:1569   */\n      tag_84\n      jump\t// in\n    tag_144:\n        /* \"#utility.yul\":1534:1540   */\n      dup2\n        /* \"#utility.yul\":1530:1570   */\n      add\n        /* \"#utility.yul\":1672:1678   */\n      dup2\n        /* \"#utility.yul\":1660:1670   */\n      dup2\n        /* \"#utility.yul\":1657:1679   */\n      lt\n        /* \"#utility.yul\":1636:1654   */\n      0xffffffffffffffff\n        /* \"#utility.yul\":1624:1634   */\n      dup3\n        /* \"#utility.yul\":1621:1655   */\n      gt\n        /* \"#utility.yul\":1618:1680   */\n      or\n        /* \"#utility.yul\":1615:1703   */\n      iszero\n      tag_145\n      jumpi\n        /* \"#utility.yul\":1683:1701   */\n      tag_146\n      tag_85\n      jump\t// in\n    tag_146:\n        /* \"#utility.yul\":1615:1703   */\n    tag_145:\n        /* \"#utility.yul\":1723:1733   */\n      dup1\n        /* \"#utility.yul\":1719:1721   */\n      0x40\n        /* \"#utility.yul\":1712:1734   */\n      mstore\n        /* \"#utility.yul\":1502:1740   */\n      pop\n        /* \"#utility.yul\":1459:1740   */\n      pop\n      pop\n      jump\t// out\n        /* \"#utility.yul\":1746:1875   */\n    tag_87:\n        /* \"#utility.yul\":1780:1786   */\n      0x00\n        /* \"#utility.yul\":1807:1827   */\n      tag_148\n      tag_78\n      jump\t// in\n    tag_148:\n        /* \"#utility.yul\":1797:1827   */\n      swap1\n      pop\n        /* \"#utility.yul\":1836:1869   */\n      tag_149\n        /* \"#utility.yul\":1864:1868   */\n      dup3\n        /* \"#utility.yul\":1856:1862   */\n      dup3\n        /* \"#utility.yul\":1836:1869   */\n      tag_86\n      jump\t// in\n    tag_149:\n        /* \"#utility.yul\":1746:1875   */\n      swap2\n      swap1\n      pop\n      jump\t// out\n        /* \"#utility.yul\":1881:1998   */\n    tag_88:\n        /* \"#utility.yul\":1990:1991   */\n      0x00\n        /* \"#utility.yul\":1987:1988   */\n      0x00\n        /* \"#utility.yul\":1980:1992   */\n      revert\n        /* \"#utility.yul\":2004:2121   */\n    tag_89:\n        /* \"#utility.yul\":2113:2114   */\n      0x00\n        /* \"#utility.yul\":2110:2111   */\n      0x00\n        /* \"#utility.yul\":2103:2115   */\n      revert\n        /* \"#utility.yul\":2127:2244   */\n    tag_90:\n        /* \"#utility.yul\":2236:2237   */\n      0x00\n        /* \"#utility.yul\":2233:2234   */\n      0x00\n        /* \"#utility.yul\":2226:2238   */\n      revert\n        /* \"#utility.yul\":2250:2558   */\n    tag_91:\n        /* \"#utility.yul\":2312:2316   */\n      0x00\n        /* \"#utility.yul\":2402:2420   */\n      0xffffffffffffffff\n        /* \"#utility.yul\":2394:2400   */\n      dup3\n        /* \"#utility.yul\":2391:2421   */\n      gt\n        /* \"#utility.yul\":2388:2444   */\n      iszero\n      tag_154\n      jumpi\n        /* \"#utility.yul\":2424:2442   */\n      tag_155\n      tag_85\n      jump\t// in\n    tag_155:\n        /* \"#utility.yul\":2388:2444   */\n    tag_154:\n        /* \"#utility.yul\":2462:2491   */\n      tag_156\n        /* \"#utility.yul\":2484:2490   */\n      dup3\n        /* \"#utility.yul\":2462:2491   */\n      tag_84\n      jump\t// in\n    tag_156:\n        /* \"#utility.yul\":2454:2491   */\n      swap1\n      pop\n        /* \"#utility.yul\":2546:2550   */\n      0x20\n        /* \"#utility.yul\":2540:2544   */\n      dup2\n        /* \"#utility.yul\":2536:2551   */\n      add\n        /* \"#utility.yul\":2528:2551   */\n      swap1\n      pop\n        /* \"#utility.yul\":2250:2558   */\n      swap2\n      swap1\n      pop\n      jump\t// out\n        /* \"#utility.yul\":2564:2712   */\n    tag_92:\n        /* \"#utility.yul\":2662:2668   */\n      dup3\n        /* \"#utility.yul\":2657:2660   */\n      dup2\n        /* \"#utility.yul\":2652:2655   */\n      dup4\n        /* \"#utility.yul\":2639:2669   */\n      calldatacopy\n        /* \"#utility.yul\":2703:2704   */\n      0x00\n        /* \"#utility.yul\":2694:2700   */\n      dup4\n        /* \"#utility.yul\":2689:2692   */\n      dup4\n        /* \"#utility.yul\":2685:2701   */\n      add\n        /* \"#utility.yul\":2678:2705   */\n      mstore\n        /* \"#utility.yul\":2564:2712   */\n      pop\n      pop\n      pop\n      jump\t// out\n        /* \"#utility.yul\":2718:3143   */\n    tag_93:\n        /* \"#utility.yul\":2796:2801   */\n      0x00\n        /* \"#utility.yul\":2821:2887   */\n      tag_159\n        /* \"#utility.yul\":2837:2886   */\n      tag_160\n        /* \"#utility.yul\":2879:2885   */\n      dup5\n        /* \"#utility.yul\":2837:2886   */\n      tag_91\n      jump\t// in\n    tag_160:\n        /* \"#utility.yul\":2821:2887   */\n      tag_87\n      jump\t// in\n    tag_159:\n        /* \"#utility.yul\":2812:2887   */\n      swap1\n      pop\n        /* \"#utility.yul\":2910:2916   */\n      dup3\n        /* \"#utility.yul\":2903:2908   */\n      dup2\n        /* \"#utility.yul\":2896:2917   */\n      mstore\n        /* \"#utility.yul\":2948:2952   */\n      0x20\n        /* \"#utility.yul\":2941:2946   */\n      dup2\n        /* \"#utility.yul\":2937:2953   */\n      add\n        /* \"#utility.yul\":2986:2989   */\n      dup5\n        /* \"#utility.yul\":2977:2983   */\n      dup5\n        /* \"#utility.yul\":2972:2975   */\n      dup5\n        /* \"#utility.yul\":2968:2984   */\n      add\n        /* \"#utility.yul\":2965:2990   */\n      gt\n        /* \"#utility.yul\":2962:3074   */\n      iszero\n      tag_161\n      jumpi\n        /* \"#utility.yul\":2993:3072   */\n      tag_162\n      tag_90\n      jump\t// in\n    tag_162:\n        /* \"#utility.yul\":2962:3074   */\n    tag_161:\n        /* \"#utility.yul\":3083:3137   */\n      tag_163\n        /* \"#utility.yul\":3130:3136   */\n      dup5\n        /* \"#utility.yul\":3125:3128   */\n      dup3\n        /* \"#utility.yul\":3120:3123   */\n      dup6\n        /* \"#utility.yul\":3083:3137   */\n      tag_92\n      jump\t// in\n    tag_163:\n        /* \"#utility.yul\":2802:3143   */\n      pop\n        /* \"#utility.yul\":2718:3143   */\n      swap4\n      swap3\n      pop\n      pop\n      pop\n      jump\t// out\n        /* \"#utility.yul\":3163:3503   */\n    tag_94:\n        /* \"#utility.yul\":3219:3224   */\n      0x00\n        /* \"#utility.yul\":3268:3271   */\n      dup3\n        /* \"#utility.yul\":3261:3265   */\n      0x1f\n        /* \"#utility.yul\":3253:3259   */\n      dup4\n        /* \"#utility.yul\":3249:3266   */\n      add\n        /* \"#utility.yul\":3245:3272   */\n      slt\n        /* \"#utility.yul\":3235:3357   */\n      tag_165\n      jumpi\n        /* \"#utility.yul\":3276:3355   */\n      tag_166\n      tag_89\n      jump\t// in\n    tag_166:\n        /* \"#utility.yul\":3235:3357   */\n    tag_165:\n        /* \"#utility.yul\":3393:3399   */\n      dup2\n        /* \"#utility.yul\":3380:3400   */\n      calldataload\n        /* \"#utility.yul\":3418:3497   */\n      tag_167\n        /* \"#utility.yul\":3493:3496   */\n      dup5\n        /* \"#utility.yul\":3485:3491   */\n      dup3\n        /* \"#utility.yul\":3478:3482   */\n      0x20\n        /* \"#utility.yul\":3470:3476   */\n      dup7\n        /* \"#utility.yul\":3466:3483   */\n      add\n        /* \"#utility.yul\":3418:3497   */\n      tag_93\n      jump\t// in\n    tag_167:\n        /* \"#utility.yul\":3409:3497   */\n      swap2\n      pop\n        /* \"#utility.yul\":3225:3503   */\n      pop\n        /* \"#utility.yul\":3163:3503   */\n      swap3\n      swap2\n      pop\n      pop\n      jump\t// out\n        /* \"#utility.yul\":3509:3599   */\n    tag_95:\n        /* \"#utility.yul\":3543:3550   */\n      0x00\n        /* \"#utility.yul\":3586:3591   */\n      dup2\n        /* \"#utility.yul\":3579:3592   */\n      iszero\n        /* \"#utility.yul\":3572:3593   */\n      iszero\n        /* \"#utility.yul\":3561:3593   */\n      swap1\n      pop\n        /* \"#utility.yul\":3509:3599   */\n      swap2\n      swap1\n      pop\n      jump\t// out\n        /* \"#utility.yul\":3605:3721   */\n    tag_96:\n        /* \"#utility.yul\":3675:3696   */\n      tag_170\n        /* \"#utility.yul\":3690:3695   */\n      dup2\n        /* \"#utility.yul\":3675:3696   */\n      tag_95\n      jump\t// in\n    tag_170:\n        /* \"#utility.yul\":3668:3673   */\n      dup2\n        /* \"#utility.yul\":3665:3697   */\n      eq\n        /* \"#utility.yul\":3655:3715   */\n      tag_171\n      jumpi\n        /* \"#utility.yul\":3711:3712   */\n      0x00\n        /* \"#utility.yul\":3708:3709   */\n      0x00\n        /* \"#utility.yul\":3701:3713   */\n      revert\n        /* \"#utility.yul\":3655:3715   */\n    tag_171:\n        /* \"#utility.yul\":3605:3721   */\n      pop\n      jump\t// out\n        /* \"#utility.yul\":3727:3860   */\n    tag_97:\n        /* \"#utility.yul\":3770:3775   */\n      0x00\n        /* \"#utility.yul\":3808:3814   */\n      dup2\n        /* \"#utility.yul\":3795:3815   */\n      calldataload\n        /* \"#utility.yul\":3786:3815   */\n      swap1\n      pop\n        /* \"#utility.yul\":3824:3854   */\n      tag_173\n        /* \"#utility.yul\":3848:3853   */\n      dup2\n        /* \"#utility.yul\":3824:3854   */\n      tag_96\n      jump\t// in\n    tag_173:\n        /* \"#utility.yul\":3727:3860   */\n      swap3\n      swap2\n      pop\n      pop\n      jump\t// out\n        /* \"#utility.yul\":3908:5998   */\n    tag_98:\n        /* \"#utility.yul\":3980:3985   */\n      0x00\n        /* \"#utility.yul\":4024:4030   */\n      0x0100\n        /* \"#utility.yul\":4012:4021   */\n      dup3\n        /* \"#utility.yul\":4007:4010   */\n      dup5\n        /* \"#utility.yul\":4003:4022   */\n      sub\n        /* \"#utility.yul\":3999:4031   */\n      slt\n        /* \"#utility.yul\":3996:4115   */\n      iszero\n      tag_175\n      jumpi\n        /* \"#utility.yul\":4034:4113   */\n      tag_176\n      tag_83\n      jump\t// in\n    tag_176:\n        /* \"#utility.yul\":3996:4115   */\n    tag_175:\n        /* \"#utility.yul\":4133:4156   */\n      tag_177\n        /* \"#utility.yul\":4149:4155   */\n      0x0100\n        /* \"#utility.yul\":4133:4156   */\n      tag_87\n      jump\t// in\n    tag_177:\n        /* \"#utility.yul\":4124:4156   */\n      swap1\n      pop\n        /* \"#utility.yul\":4248:4249   */\n      0x00\n        /* \"#utility.yul\":4237:4246   */\n      dup3\n        /* \"#utility.yul\":4233:4250   */\n      add\n        /* \"#utility.yul\":4220:4251   */\n      calldataload\n        /* \"#utility.yul\":4278:4296   */\n      0xffffffffffffffff\n        /* \"#utility.yul\":4270:4276   */\n      dup2\n        /* \"#utility.yul\":4267:4297   */\n      gt\n        /* \"#utility.yul\":4264:4381   */\n      iszero\n      tag_178\n      jumpi\n        /* \"#utility.yul\":4300:4379   */\n      tag_179\n      tag_88\n      jump\t// in\n    tag_179:\n        /* \"#utility.yul\":4264:4381   */\n    tag_178:\n        /* \"#utility.yul\":4420:4479   */\n      tag_180\n        /* \"#utility.yul\":4475:4478   */\n      dup5\n        /* \"#utility.yul\":4466:4472   */\n      dup3\n        /* \"#utility.yul\":4455:4464   */\n      dup6\n        /* \"#utility.yul\":4451:4473   */\n      add\n        /* \"#utility.yul\":4420:4479   */\n      tag_94\n      jump\t// in\n    tag_180:\n        /* \"#utility.yul\":4413:4417   */\n      0x00\n        /* \"#utility.yul\":4406:4411   */\n      dup4\n        /* \"#utility.yul\":4402:4418   */\n      add\n        /* \"#utility.yul\":4395:4480   */\n      mstore\n        /* \"#utility.yul\":4166:4491   */\n      pop\n        /* \"#utility.yul\":4557:4559   */\n      0x20\n        /* \"#utility.yul\":4598:4647   */\n      tag_181\n        /* \"#utility.yul\":4643:4646   */\n      dup5\n        /* \"#utility.yul\":4634:4640   */\n      dup3\n        /* \"#utility.yul\":4623:4632   */\n      dup6\n        /* \"#utility.yul\":4619:4641   */\n      add\n        /* \"#utility.yul\":4598:4647   */\n      tag_82\n      jump\t// in\n    tag_181:\n        /* \"#utility.yul\":4591:4595   */\n      0x20\n        /* \"#utility.yul\":4584:4589   */\n      dup4\n        /* \"#utility.yul\":4580:4596   */\n      add\n        /* \"#utility.yul\":4573:4648   */\n      mstore\n        /* \"#utility.yul\":4501:4659   */\n      pop\n        /* \"#utility.yul\":4751:4753   */\n      0x40\n        /* \"#utility.yul\":4740:4749   */\n      dup3\n        /* \"#utility.yul\":4736:4754   */\n      add\n        /* \"#utility.yul\":4723:4755   */\n      calldataload\n        /* \"#utility.yul\":4782:4800   */\n      0xffffffffffffffff\n        /* \"#utility.yul\":4774:4780   */\n      dup2\n        /* \"#utility.yul\":4771:4801   */\n      gt\n        /* \"#utility.yul\":4768:4885   */\n      iszero\n      tag_182\n      jumpi\n        /* \"#utility.yul\":4804:4883   */\n      tag_183\n      tag_88\n      jump\t// in\n    tag_183:\n        /* \"#utility.yul\":4768:4885   */\n    tag_182:\n        /* \"#utility.yul\":4924:4983   */\n      tag_184\n        /* \"#utility.yul\":4979:4982   */\n      dup5\n        /* \"#utility.yul\":4970:4976   */\n      dup3\n        /* \"#utility.yul\":4959:4968   */\n      dup6\n        /* \"#utility.yul\":4955:4977   */\n      add\n        /* \"#utility.yul\":4924:4983   */\n      tag_94\n      jump\t// in\n    tag_184:\n        /* \"#utility.yul\":4917:4921   */\n      0x40\n        /* \"#utility.yul\":4910:4915   */\n      dup4\n        /* \"#utility.yul\":4906:4922   */\n      add\n        /* \"#utility.yul\":4899:4984   */\n      mstore\n        /* \"#utility.yul\":4669:4995   */\n      pop\n        /* \"#utility.yul\":5087:5089   */\n      0x60\n        /* \"#utility.yul\":5076:5085   */\n      dup3\n        /* \"#utility.yul\":5072:5090   */\n      add\n        /* \"#utility.yul\":5059:5091   */\n      calldataload\n        /* \"#utility.yul\":5118:5136   */\n      0xffffffffffffffff\n        /* \"#utility.yul\":5110:5116   */\n      dup2\n        /* \"#utility.yul\":5107:5137   */\n      gt\n        /* \"#utility.yul\":5104:5221   */\n      iszero\n      tag_185\n      jumpi\n        /* \"#utility.yul\":5140:5219   */\n      tag_186\n      tag_88\n      jump\t// in\n    tag_186:\n        /* \"#utility.yul\":5104:5221   */\n    tag_185:\n        /* \"#utility.yul\":5260:5319   */\n      tag_187\n        /* \"#utility.yul\":5315:5318   */\n      dup5\n        /* \"#utility.yul\":5306:5312   */\n      dup3\n        /* \"#utility.yul\":5295:5304   */\n      dup6\n        /* \"#utility.yul\":5291:5313   */\n      add\n        /* \"#utility.yul\":5260:5319   */\n      tag_94\n      jump\t// in\n    tag_187:\n        /* \"#utility.yul\":5253:5257   */\n      0x60\n        /* \"#utility.yul\":5246:5251   */\n      dup4\n        /* \"#utility.yul\":5242:5258   */\n      add\n        /* \"#utility.yul\":5235:5320   */\n      mstore\n        /* \"#utility.yul\":5005:5331   */\n      pop\n        /* \"#utility.yul\":5397:5400   */\n      0x80\n        /* \"#utility.yul\":5439:5485   */\n      tag_188\n        /* \"#utility.yul\":5481:5484   */\n      dup5\n        /* \"#utility.yul\":5472:5478   */\n      dup3\n        /* \"#utility.yul\":5461:5470   */\n      dup6\n        /* \"#utility.yul\":5457:5479   */\n      add\n        /* \"#utility.yul\":5439:5485   */\n      tag_97\n      jump\t// in\n    tag_188:\n        /* \"#utility.yul\":5432:5436   */\n      0x80\n        /* \"#utility.yul\":5425:5430   */\n      dup4\n        /* \"#utility.yul\":5421:5437   */\n      add\n        /* \"#utility.yul\":5414:5486   */\n      mstore\n        /* \"#utility.yul\":5341:5497   */\n      pop\n        /* \"#utility.yul\":5563:5566   */\n      0xa0\n        /* \"#utility.yul\":5605:5651   */\n      tag_189\n        /* \"#utility.yul\":5647:5650   */\n      dup5\n        /* \"#utility.yul\":5638:5644   */\n      dup3\n        /* \"#utility.yul\":5627:5636   */\n      dup6\n        /* \"#utility.yul\":5623:5645   */\n      add\n        /* \"#utility.yul\":5605:5651   */\n      tag_97\n      jump\t// in\n    tag_189:\n        /* \"#utility.yul\":5598:5602   */\n      0xa0\n        /* \"#utility.yul\":5591:5596   */\n      dup4\n        /* \"#utility.yul\":5587:5603   */\n      add\n        /* \"#utility.yul\":5580:5652   */\n      mstore\n        /* \"#utility.yul\":5507:5663   */\n      pop\n        /* \"#utility.yul\":5726:5729   */\n      0xc0\n        /* \"#utility.yul\":5768:5814   */\n      tag_190\n        /* \"#utility.yul\":5810:5813   */\n      dup5\n        /* \"#utility.yul\":5801:5807   */\n      dup3\n        /* \"#utility.yul\":5790:5799   */\n      dup6\n        /* \"#utility.yul\":5786:5808   */\n      add\n        /* \"#utility.yul\":5768:5814   */\n      tag_97\n      jump\t// in\n    tag_190:\n        /* \"#utility.yul\":5761:5765   */\n      0xc0\n        /* \"#utility.yul\":5754:5759   */\n      dup4\n        /* \"#utility.yul\":5750:5766   */\n      add\n        /* \"#utility.yul\":5743:5815   */\n      mstore\n        /* \"#utility.yul\":5673:5826   */\n      pop\n        /* \"#utility.yul\":5891:5894   */\n      0xe0\n        /* \"#utility.yul\":5933:5979   */\n      tag_191\n        /* \"#utility.yul\":5975:5978   */\n      dup5\n        /* \"#utility.yul\":5966:5972   */\n      dup3\n        /* \"#utility.yul\":5955:5964   */\n      dup6\n        /* \"#utility.yul\":5951:5973   */\n      add\n        /* \"#utility.yul\":5933:5979   */\n      tag_97\n      jump\t// in\n    tag_191:\n        /* \"#utility.yul\":5926:5930   */\n      0xe0\n        /* \"#utility.yul\":5919:5924   */\n      dup4\n        /* \"#utility.yul\":5915:5931   */\n      add\n        /* \"#utility.yul\":5908:5980   */\n      mstore\n        /* \"#utility.yul\":5836:5991   */\n      pop\n        /* \"#utility.yul\":3908:5998   */\n      swap3\n      swap2\n      pop\n      pop\n      jump\t// out\n        /* \"#utility.yul\":6004:6684   */\n    tag_14:\n        /* \"#utility.yul\":6095:6101   */\n      0x00\n        /* \"#utility.yul\":6103:6109   */\n      0x00\n        /* \"#utility.yul\":6152:6154   */\n      0x40\n        /* \"#utility.yul\":6140:6149   */\n      dup4\n        /* \"#utility.yul\":6131:6138   */\n      dup6\n        /* \"#utility.yul\":6127:6150   */\n      sub\n        /* \"#utility.yul\":6123:6155   */\n      slt\n        /* \"#utility.yul\":6120:6239   */\n      iszero\n      tag_193\n      jumpi\n        /* \"#utility.yul\":6158:6237   */\n      tag_194\n      tag_79\n      jump\t// in\n    tag_194:\n        /* \"#utility.yul\":6120:6239   */\n    tag_193:\n        /* \"#utility.yul\":6278:6279   */\n      0x00\n        /* \"#utility.yul\":6303:6356   */\n      tag_195\n        /* \"#utility.yul\":6348:6355   */\n      dup6\n        /* \"#utility.yul\":6339:6345   */\n      dup3\n        /* \"#utility.yul\":6328:6337   */\n      dup7\n        /* \"#utility.yul\":6324:6346   */\n      add\n        /* \"#utility.yul\":6303:6356   */\n      tag_82\n      jump\t// in\n    tag_195:\n        /* \"#utility.yul\":6293:6356   */\n      swap3\n      pop\n        /* \"#utility.yul\":6249:6366   */\n      pop\n        /* \"#utility.yul\":6433:6435   */\n      0x20\n        /* \"#utility.yul\":6422:6431   */\n      dup4\n        /* \"#utility.yul\":6418:6436   */\n      add\n        /* \"#utility.yul\":6405:6437   */\n      calldataload\n        /* \"#utility.yul\":6464:6482   */\n      0xffffffffffffffff\n        /* \"#utility.yul\":6456:6462   */\n      dup2\n        /* \"#utility.yul\":6453:6483   */\n      gt\n        /* \"#utility.yul\":6450:6567   */\n      iszero\n      tag_196\n      jumpi\n        /* \"#utility.yul\":6486:6565   */\n      tag_197\n      tag_80\n      jump\t// in\n    tag_197:\n        /* \"#utility.yul\":6450:6567   */\n    tag_196:\n        /* \"#utility.yul\":6591:6667   */\n      tag_198\n        /* \"#utility.yul\":6659:6666   */\n      dup6\n        /* \"#utility.yul\":6650:6656   */\n      dup3\n        /* \"#utility.yul\":6639:6648   */\n      dup7\n        /* \"#utility.yul\":6635:6657   */\n      add\n        /* \"#utility.yul\":6591:6667   */\n      tag_98\n      jump\t// in\n    tag_198:\n        /* \"#utility.yul\":6581:6667   */\n      swap2\n      pop\n        /* \"#utility.yul\":6376:6677   */\n      pop\n        /* \"#utility.yul\":6004:6684   */\n      swap3\n      pop\n      swap3\n      swap1\n      pop\n      jump\t// out\n        /* \"#utility.yul\":6690:7019   */\n    tag_18:\n        /* \"#utility.yul\":6749:6755   */\n      0x00\n        /* \"#utility.yul\":6798:6800   */\n      0x20\n        /* \"#utility.yul\":6786:6795   */\n      dup3\n        /* \"#utility.yul\":6777:6784   */\n      dup5\n        /* \"#utility.yul\":6773:6796   */\n      sub\n        /* \"#utility.yul\":6769:6801   */\n      slt\n        /* \"#utility.yul\":6766:6885   */\n      iszero\n      tag_200\n      jumpi\n        /* \"#utility.yul\":6804:6883   */\n      tag_201\n      tag_79\n      jump\t// in\n    tag_201:\n        /* \"#utility.yul\":6766:6885   */\n    tag_200:\n        /* \"#utility.yul\":6924:6925   */\n      0x00\n        /* \"#utility.yul\":6949:7002   */\n      tag_202\n        /* \"#utility.yul\":6994:7001   */\n      dup5\n        /* \"#utility.yul\":6985:6991   */\n      dup3\n        /* \"#utility.yul\":6974:6983   */\n      dup6\n        /* \"#utility.yul\":6970:6992   */\n      add\n        /* \"#utility.yul\":6949:7002   */\n      tag_82\n      jump\t// in\n    tag_202:\n        /* \"#utility.yul\":6939:7002   */\n      swap2\n      pop\n        /* \"#utility.yul\":6895:7012   */\n      pop\n        /* \"#utility.yul\":6690:7019   */\n      swap3\n      swap2\n      pop\n      pop\n      jump\t// out\n        /* \"#utility.yul\":7025:7124   */\n    tag_99:\n        /* \"#utility.yul\":7077:7083   */\n      0x00\n        /* \"#utility.yul\":7111:7116   */\n      dup2\n        /* \"#utility.yul\":7105:7117   */\n      mload\n        /* \"#utility.yul\":7095:7117   */\n      swap1\n      pop\n        /* \"#utility.yul\":7025:7124   */\n      swap2\n      swap1\n      pop\n      jump\t// out\n        /* \"#utility.yul\":7130:7289   */\n    tag_100:\n        /* \"#utility.yul\":7204:7215   */\n      0x00\n        /* \"#utility.yul\":7238:7244   */\n      dup3\n        /* \"#utility.yul\":7233:7236   */\n      dup3\n        /* \"#utility.yul\":7226:7245   */\n      mstore\n        /* \"#utility.yul\":7278:7282   */\n      0x20\n        /* \"#utility.yul\":7273:7276   */\n      dup3\n        /* \"#utility.yul\":7269:7283   */\n      add\n        /* \"#utility.yul\":7254:7283   */\n      swap1\n      pop\n        /* \"#utility.yul\":7130:7289   */\n      swap3\n      swap2\n      pop\n      pop\n      jump\t// out\n        /* \"#utility.yul\":7295:7434   */\n    tag_101:\n        /* \"#utility.yul\":7384:7390   */\n      dup3\n        /* \"#utility.yul\":7379:7382   */\n      dup2\n        /* \"#utility.yul\":7374:7377   */\n      dup4\n        /* \"#utility.yul\":7368:7391   */\n      mcopy\n        /* \"#utility.yul\":7425:7426   */\n      0x00\n        /* \"#utility.yul\":7416:7422   */\n      dup4\n        /* \"#utility.yul\":7411:7414   */\n      dup4\n        /* \"#utility.yul\":7407:7423   */\n      add\n        /* \"#utility.yul\":7400:7427   */\n      mstore\n        /* \"#utility.yul\":7295:7434   */\n      pop\n      pop\n      pop\n      jump\t// out\n        /* \"#utility.yul\":7440:7797   */\n    tag_102:\n        /* \"#utility.yul\":7518:7521   */\n      0x00\n        /* \"#utility.yul\":7546:7585   */\n      tag_207\n        /* \"#utility.yul\":7579:7584   */\n      dup3\n        /* \"#utility.yul\":7546:7585   */\n      tag_99\n      jump\t// in\n    tag_207:\n        /* \"#utility.yul\":7601:7662   */\n      tag_208\n        /* \"#utility.yul\":7655:7661   */\n      dup2\n        /* \"#utility.yul\":7650:7653   */\n      dup6\n        /* \"#utility.yul\":7601:7662   */\n      tag_100\n      jump\t// in\n    tag_208:\n        /* \"#utility.yul\":7594:7662   */\n      swap4\n      pop\n        /* \"#utility.yul\":7671:7736   */\n      tag_209\n        /* \"#utility.yul\":7729:7735   */\n      dup2\n        /* \"#utility.yul\":7724:7727   */\n      dup6\n        /* \"#utility.yul\":7717:7721   */\n      0x20\n        /* \"#utility.yul\":7710:7715   */\n      dup7\n        /* \"#utility.yul\":7706:7722   */\n      add\n        /* \"#utility.yul\":7671:7736   */\n      tag_101\n      jump\t// in\n    tag_209:\n        /* \"#utility.yul\":7761:7790   */\n      tag_210\n        /* \"#utility.yul\":7783:7789   */\n      dup2\n        /* \"#utility.yul\":7761:7790   */\n      tag_84\n      jump\t// in\n    tag_210:\n        /* \"#utility.yul\":7756:7759   */\n      dup5\n        /* \"#utility.yul\":7752:7791   */\n      add\n        /* \"#utility.yul\":7745:7791   */\n      swap2\n      pop\n        /* \"#utility.yul\":7522:7797   */\n      pop\n        /* \"#utility.yul\":7440:7797   */\n      swap3\n      swap2\n      pop\n      pop\n      jump\t// out\n        /* \"#utility.yul\":7803:7911   */\n    tag_103:\n        /* \"#utility.yul\":7880:7904   */\n      tag_212\n        /* \"#utility.yul\":7898:7903   */\n      dup2\n        /* \"#utility.yul\":7880:7904   */\n      tag_76\n      jump\t// in\n    tag_212:\n        /* \"#utility.yul\":7875:7878   */\n      dup3\n        /* \"#utility.yul\":7868:7905   */\n      mstore\n        /* \"#utility.yul\":7803:7911   */\n      pop\n      pop\n      jump\t// out\n        /* \"#utility.yul\":7917:8016   */\n    tag_104:\n        /* \"#utility.yul\":7988:8009   */\n      tag_214\n        /* \"#utility.yul\":8003:8008   */\n      dup2\n        /* \"#utility.yul\":7988:8009   */\n      tag_95\n      jump\t// in\n    tag_214:\n        /* \"#utility.yul\":7983:7986   */\n      dup3\n        /* \"#utility.yul\":7976:8010   */\n      mstore\n        /* \"#utility.yul\":7917:8016   */\n      pop\n      pop\n      jump\t// out\n        /* \"#utility.yul\":8102:9914   */\n    tag_105:\n        /* \"#utility.yul\":8217:8220   */\n      0x00\n        /* \"#utility.yul\":8253:8259   */\n      0x0100\n        /* \"#utility.yul\":8248:8251   */\n      dup4\n        /* \"#utility.yul\":8244:8260   */\n      add\n        /* \"#utility.yul\":8347:8351   */\n      0x00\n        /* \"#utility.yul\":8340:8345   */\n      dup4\n        /* \"#utility.yul\":8336:8352   */\n      add\n        /* \"#utility.yul\":8330:8353   */\n      mload\n        /* \"#utility.yul\":8400:8403   */\n      dup5\n        /* \"#utility.yul\":8394:8398   */\n      dup3\n        /* \"#utility.yul\":8390:8404   */\n      sub\n        /* \"#utility.yul\":8383:8387   */\n      0x00\n        /* \"#utility.yul\":8378:8381   */\n      dup7\n        /* \"#utility.yul\":8374:8388   */\n      add\n        /* \"#utility.yul\":8367:8405   */\n      mstore\n        /* \"#utility.yul\":8426:8499   */\n      tag_216\n        /* \"#utility.yul\":8494:8498   */\n      dup3\n        /* \"#utility.yul\":8480:8492   */\n      dup3\n        /* \"#utility.yul\":8426:8499   */\n      tag_102\n      jump\t// in\n    tag_216:\n        /* \"#utility.yul\":8418:8499   */\n      swap2\n      pop\n        /* \"#utility.yul\":8270:8510   */\n      pop\n        /* \"#utility.yul\":8599:8603   */\n      0x20\n        /* \"#utility.yul\":8592:8597   */\n      dup4\n        /* \"#utility.yul\":8588:8604   */\n      add\n        /* \"#utility.yul\":8582:8605   */\n      mload\n        /* \"#utility.yul\":8618:8681   */\n      tag_217\n        /* \"#utility.yul\":8675:8679   */\n      0x20\n        /* \"#utility.yul\":8670:8673   */\n      dup7\n        /* \"#utility.yul\":8666:8680   */\n      add\n        /* \"#utility.yul\":8652:8664   */\n      dup3\n        /* \"#utility.yul\":8618:8681   */\n      tag_103\n      jump\t// in\n    tag_217:\n        /* \"#utility.yul\":8520:8691   */\n      pop\n        /* \"#utility.yul\":8778:8782   */\n      0x40\n        /* \"#utility.yul\":8771:8776   */\n      dup4\n        /* \"#utility.yul\":8767:8783   */\n      add\n        /* \"#utility.yul\":8761:8784   */\n      mload\n        /* \"#utility.yul\":8831:8834   */\n      dup5\n        /* \"#utility.yul\":8825:8829   */\n      dup3\n        /* \"#utility.yul\":8821:8835   */\n      sub\n        /* \"#utility.yul\":8814:8818   */\n      0x40\n        /* \"#utility.yul\":8809:8812   */\n      dup7\n        /* \"#utility.yul\":8805:8819   */\n      add\n        /* \"#utility.yul\":8798:8836   */\n      mstore\n        /* \"#utility.yul\":8857:8930   */\n      tag_218\n        /* \"#utility.yul\":8925:8929   */\n      dup3\n        /* \"#utility.yul\":8911:8923   */\n      dup3\n        /* \"#utility.yul\":8857:8930   */\n      tag_102\n      jump\t// in\n    tag_218:\n        /* \"#utility.yul\":8849:8930   */\n      swap2\n      pop\n        /* \"#utility.yul\":8701:8941   */\n      pop\n        /* \"#utility.yul\":9028:9032   */\n      0x60\n        /* \"#utility.yul\":9021:9026   */\n      dup4\n        /* \"#utility.yul\":9017:9033   */\n      add\n        /* \"#utility.yul\":9011:9034   */\n      mload\n        /* \"#utility.yul\":9081:9084   */\n      dup5\n        /* \"#utility.yul\":9075:9079   */\n      dup3\n        /* \"#utility.yul\":9071:9085   */\n      sub\n        /* \"#utility.yul\":9064:9068   */\n      0x60\n        /* \"#utility.yul\":9059:9062   */\n      dup7\n        /* \"#utility.yul\":9055:9069   */\n      add\n        /* \"#utility.yul\":9048:9086   */\n      mstore\n        /* \"#utility.yul\":9107:9180   */\n      tag_219\n        /* \"#utility.yul\":9175:9179   */\n      dup3\n        /* \"#utility.yul\":9161:9173   */\n      dup3\n        /* \"#utility.yul\":9107:9180   */\n      tag_102\n      jump\t// in\n    tag_219:\n        /* \"#utility.yul\":9099:9180   */\n      swap2\n      pop\n        /* \"#utility.yul\":8951:9191   */\n      pop\n        /* \"#utility.yul\":9280:9284   */\n      0x80\n        /* \"#utility.yul\":9273:9278   */\n      dup4\n        /* \"#utility.yul\":9269:9285   */\n      add\n        /* \"#utility.yul\":9263:9286   */\n      mload\n        /* \"#utility.yul\":9299:9356   */\n      tag_220\n        /* \"#utility.yul\":9350:9354   */\n      0x80\n        /* \"#utility.yul\":9345:9348   */\n      dup7\n        /* \"#utility.yul\":9341:9355   */\n      add\n        /* \"#utility.yul\":9327:9339   */\n      dup3\n        /* \"#utility.yul\":9299:9356   */\n      tag_104\n      jump\t// in\n    tag_220:\n        /* \"#utility.yul\":9201:9366   */\n      pop\n        /* \"#utility.yul\":9455:9459   */\n      0xa0\n        /* \"#utility.yul\":9448:9453   */\n      dup4\n        /* \"#utility.yul\":9444:9460   */\n      add\n        /* \"#utility.yul\":9438:9461   */\n      mload\n        /* \"#utility.yul\":9474:9531   */\n      tag_221\n        /* \"#utility.yul\":9525:9529   */\n      0xa0\n        /* \"#utility.yul\":9520:9523   */\n      dup7\n        /* \"#utility.yul\":9516:9530   */\n      add\n        /* \"#utility.yul\":9502:9514   */\n      dup3\n        /* \"#utility.yul\":9474:9531   */\n      tag_104\n      jump\t// in\n    tag_221:\n        /* \"#utility.yul\":9376:9541   */\n      pop\n        /* \"#utility.yul\":9627:9631   */\n      0xc0\n        /* \"#utility.yul\":9620:9625   */\n      dup4\n        /* \"#utility.yul\":9616:9632   */\n      add\n        /* \"#utility.yul\":9610:9633   */\n      mload\n        /* \"#utility.yul\":9646:9703   */\n      tag_222\n        /* \"#utility.yul\":9697:9701   */\n      0xc0\n        /* \"#utility.yul\":9692:9695   */\n      dup7\n        /* \"#utility.yul\":9688:9702   */\n      add\n        /* \"#utility.yul\":9674:9686   */\n      dup3\n        /* \"#utility.yul\":9646:9703   */\n      tag_104\n      jump\t// in\n    tag_222:\n        /* \"#utility.yul\":9551:9713   */\n      pop\n        /* \"#utility.yul\":9801:9805   */\n      0xe0\n        /* \"#utility.yul\":9794:9799   */\n      dup4\n        /* \"#utility.yul\":9790:9806   */\n      add\n        /* \"#utility.yul\":9784:9807   */\n      mload\n        /* \"#utility.yul\":9820:9877   */\n      tag_223\n        /* \"#utility.yul\":9871:9875   */\n      0xe0\n        /* \"#utility.yul\":9866:9869   */\n      dup7\n        /* \"#utility.yul\":9862:9876   */\n      add\n        /* \"#utility.yul\":9848:9860   */\n      dup3\n        /* \"#utility.yul\":9820:9877   */\n      tag_104\n      jump\t// in\n    tag_223:\n        /* \"#utility.yul\":9723:9887   */\n      pop\n        /* \"#utility.yul\":9904:9908   */\n      dup1\n        /* \"#utility.yul\":9897:9908   */\n      swap2\n      pop\n        /* \"#utility.yul\":8222:9914   */\n      pop\n        /* \"#utility.yul\":8102:9914   */\n      swap3\n      swap2\n      pop\n      pop\n      jump\t// out\n        /* \"#utility.yul\":9920:10285   */\n    tag_21:\n        /* \"#utility.yul\":10059:10063   */\n      0x00\n        /* \"#utility.yul\":10097:10099   */\n      0x20\n        /* \"#utility.yul\":10086:10095   */\n      dup3\n        /* \"#utility.yul\":10082:10100   */\n      add\n        /* \"#utility.yul\":10074:10100   */\n      swap1\n      pop\n        /* \"#utility.yul\":10146:10155   */\n      dup2\n        /* \"#utility.yul\":10140:10144   */\n      dup2\n        /* \"#utility.yul\":10136:10156   */\n      sub\n        /* \"#utility.yul\":10132:10133   */\n      0x00\n        /* \"#utility.yul\":10121:10130   */\n      dup4\n        /* \"#utility.yul\":10117:10134   */\n      add\n        /* \"#utility.yul\":10110:10157   */\n      mstore\n        /* \"#utility.yul\":10174:10278   */\n      tag_225\n        /* \"#utility.yul\":10273:10277   */\n      dup2\n        /* \"#utility.yul\":10264:10270   */\n      dup5\n        /* \"#utility.yul\":10174:10278   */\n      tag_105\n      jump\t// in\n    tag_225:\n        /* \"#utility.yul\":10166:10278   */\n      swap1\n      pop\n        /* \"#utility.yul\":9920:10285   */\n      swap3\n      swap2\n      pop\n      pop\n      jump\t// out\n        /* \"#utility.yul\":10291:10460   */\n    tag_106:\n        /* \"#utility.yul\":10375:10386   */\n      0x00\n        /* \"#utility.yul\":10409:10415   */\n      dup3\n        /* \"#utility.yul\":10404:10407   */\n      dup3\n        /* \"#utility.yul\":10397:10416   */\n      mstore\n        /* \"#utility.yul\":10449:10453   */\n      0x20\n        /* \"#utility.yul\":10444:10447   */\n      dup3\n        /* \"#utility.yul\":10440:10454   */\n      add\n        /* \"#utility.yul\":10425:10454   */\n      swap1\n      pop\n        /* \"#utility.yul\":10291:10460   */\n      swap3\n      swap2\n      pop\n      pop\n      jump\t// out\n        /* \"#utility.yul\":10466:10843   */\n    tag_107:\n        /* \"#utility.yul\":10554:10557   */\n      0x00\n        /* \"#utility.yul\":10582:10621   */\n      tag_228\n        /* \"#utility.yul\":10615:10620   */\n      dup3\n        /* \"#utility.yul\":10582:10621   */\n      tag_99\n      jump\t// in\n    tag_228:\n        /* \"#utility.yul\":10637:10708   */\n      tag_229\n        /* \"#utility.yul\":10701:10707   */\n      dup2\n        /* \"#utility.yul\":10696:10699   */\n      dup6\n        /* \"#utility.yul\":10637:10708   */\n      tag_106\n      jump\t// in\n    tag_229:\n        /* \"#utility.yul\":10630:10708   */\n      swap4\n      pop\n        /* \"#utility.yul\":10717:10782   */\n      tag_230\n        /* \"#utility.yul\":10775:10781   */\n      dup2\n        /* \"#utility.yul\":10770:10773   */\n      dup6\n        /* \"#utility.yul\":10763:10767   */\n      0x20\n        /* \"#utility.yul\":10756:10761   */\n      dup7\n        /* \"#utility.yul\":10752:10768   */\n      add\n        /* \"#utility.yul\":10717:10782   */\n      tag_101\n      jump\t// in\n    tag_230:\n        /* \"#utility.yul\":10807:10836   */\n      tag_231\n        /* \"#utility.yul\":10829:10835   */\n      dup2\n        /* \"#utility.yul\":10807:10836   */\n      tag_84\n      jump\t// in\n    tag_231:\n        /* \"#utility.yul\":10802:10805   */\n      dup5\n        /* \"#utility.yul\":10798:10837   */\n      add\n        /* \"#utility.yul\":10791:10837   */\n      swap2\n      pop\n        /* \"#utility.yul\":10558:10843   */\n      pop\n        /* \"#utility.yul\":10466:10843   */\n      swap3\n      swap2\n      pop\n      pop\n      jump\t// out\n        /* \"#utility.yul\":10849:10958   */\n    tag_108:\n        /* \"#utility.yul\":10930:10951   */\n      tag_233\n        /* \"#utility.yul\":10945:10950   */\n      dup2\n        /* \"#utility.yul\":10930:10951   */\n      tag_95\n      jump\t// in\n    tag_233:\n        /* \"#utility.yul\":10925:10928   */\n      dup3\n        /* \"#utility.yul\":10918:10952   */\n      mstore\n        /* \"#utility.yul\":10849:10958   */\n      pop\n      pop\n      jump\t// out\n        /* \"#utility.yul\":10964:12186   */\n    tag_26:\n        /* \"#utility.yul\":11289:11293   */\n      0x00\n        /* \"#utility.yul\":11327:11330   */\n      0x0100\n        /* \"#utility.yul\":11316:11325   */\n      dup3\n        /* \"#utility.yul\":11312:11331   */\n      add\n        /* \"#utility.yul\":11304:11331   */\n      swap1\n      pop\n        /* \"#utility.yul\":11377:11386   */\n      dup2\n        /* \"#utility.yul\":11371:11375   */\n      dup2\n        /* \"#utility.yul\":11367:11387   */\n      sub\n        /* \"#utility.yul\":11363:11364   */\n      0x00\n        /* \"#utility.yul\":11352:11361   */\n      dup4\n        /* \"#utility.yul\":11348:11365   */\n      add\n        /* \"#utility.yul\":11341:11388   */\n      mstore\n        /* \"#utility.yul\":11405:11483   */\n      tag_235\n        /* \"#utility.yul\":11478:11482   */\n      dup2\n        /* \"#utility.yul\":11469:11475   */\n      dup12\n        /* \"#utility.yul\":11405:11483   */\n      tag_107\n      jump\t// in\n    tag_235:\n        /* \"#utility.yul\":11397:11483   */\n      swap1\n      pop\n        /* \"#utility.yul\":11493:11565   */\n      tag_236\n        /* \"#utility.yul\":11561:11563   */\n      0x20\n        /* \"#utility.yul\":11550:11559   */\n      dup4\n        /* \"#utility.yul\":11546:11564   */\n      add\n        /* \"#utility.yul\":11537:11543   */\n      dup11\n        /* \"#utility.yul\":11493:11565   */\n      tag_77\n      jump\t// in\n    tag_236:\n        /* \"#utility.yul\":11612:11621   */\n      dup2\n        /* \"#utility.yul\":11606:11610   */\n      dup2\n        /* \"#utility.yul\":11602:11622   */\n      sub\n        /* \"#utility.yul\":11597:11599   */\n      0x40\n        /* \"#utility.yul\":11586:11595   */\n      dup4\n        /* \"#utility.yul\":11582:11600   */\n      add\n        /* \"#utility.yul\":11575:11623   */\n      mstore\n        /* \"#utility.yul\":11640:11718   */\n      tag_237\n        /* \"#utility.yul\":11713:11717   */\n      dup2\n        /* \"#utility.yul\":11704:11710   */\n      dup10\n        /* \"#utility.yul\":11640:11718   */\n      tag_107\n      jump\t// in\n    tag_237:\n        /* \"#utility.yul\":11632:11718   */\n      swap1\n      pop\n        /* \"#utility.yul\":11765:11774   */\n      dup2\n        /* \"#utility.yul\":11759:11763   */\n      dup2\n        /* \"#utility.yul\":11755:11775   */\n      sub\n        /* \"#utility.yul\":11750:11752   */\n      0x60\n        /* \"#utility.yul\":11739:11748   */\n      dup4\n        /* \"#utility.yul\":11735:11753   */\n      add\n        /* \"#utility.yul\":11728:11776   */\n      mstore\n        /* \"#utility.yul\":11793:11871   */\n      tag_238\n        /* \"#utility.yul\":11866:11870   */\n      dup2\n        /* \"#utility.yul\":11857:11863   */\n      dup9\n        /* \"#utility.yul\":11793:11871   */\n      tag_107\n      jump\t// in\n    tag_238:\n        /* \"#utility.yul\":11785:11871   */\n      swap1\n      pop\n        /* \"#utility.yul\":11881:11948   */\n      tag_239\n        /* \"#utility.yul\":11943:11946   */\n      0x80\n        /* \"#utility.yul\":11932:11941   */\n      dup4\n        /* \"#utility.yul\":11928:11947   */\n      add\n        /* \"#utility.yul\":11919:11925   */\n      dup8\n        /* \"#utility.yul\":11881:11948   */\n      tag_108\n      jump\t// in\n    tag_239:\n        /* \"#utility.yul\":11958:12025   */\n      tag_240\n        /* \"#utility.yul\":12020:12023   */\n      0xa0\n        /* \"#utility.yul\":12009:12018   */\n      dup4\n        /* \"#utility.yul\":12005:12024   */\n      add\n        /* \"#utility.yul\":11996:12002   */\n      dup7\n        /* \"#utility.yul\":11958:12025   */\n      tag_108\n      jump\t// in\n    tag_240:\n        /* \"#utility.yul\":12035:12102   */\n      tag_241\n        /* \"#utility.yul\":12097:12100   */\n      0xc0\n        /* \"#utility.yul\":12086:12095   */\n      dup4\n        /* \"#utility.yul\":12082:12101   */\n      add\n        /* \"#utility.yul\":12073:12079   */\n      dup6\n        /* \"#utility.yul\":12035:12102   */\n      tag_108\n      jump\t// in\n    tag_241:\n        /* \"#utility.yul\":12112:12179   */\n      tag_242\n        /* \"#utility.yul\":12174:12177   */\n      0xe0\n        /* \"#utility.yul\":12163:12172   */\n      dup4\n        /* \"#utility.yul\":12159:12178   */\n      add\n        /* \"#utility.yul\":12150:12156   */\n      dup5\n        /* \"#utility.yul\":12112:12179   */\n      tag_108\n      jump\t// in\n    tag_242:\n        /* \"#utility.yul\":10964:12186   */\n      swap10\n      swap9\n      pop\n      pop\n      pop\n      pop\n      pop\n      pop\n      pop\n      pop\n      pop\n      jump\t// out\n        /* \"#utility.yul\":12192:12846   */\n    tag_29:\n        /* \"#utility.yul\":12270:12276   */\n      0x00\n        /* \"#utility.yul\":12278:12284   */\n      0x00\n        /* \"#utility.yul\":12327:12329   */\n      0x40\n        /* \"#utility.yul\":12315:12324   */\n      dup4\n        /* \"#utility.yul\":12306:12313   */\n      dup6\n        /* \"#utility.yul\":12302:12325   */\n      sub\n        /* \"#utility.yul\":12298:12330   */\n      slt\n        /* \"#utility.yul\":12295:12414   */\n      iszero\n      tag_244\n      jumpi\n        /* \"#utility.yul\":12333:12412   */\n      tag_245\n      tag_79\n      jump\t// in\n    tag_245:\n        /* \"#utility.yul\":12295:12414   */\n    tag_244:\n        /* \"#utility.yul\":12481:12482   */\n      0x00\n        /* \"#utility.yul\":12470:12479   */\n      dup4\n        /* \"#utility.yul\":12466:12483   */\n      add\n        /* \"#utility.yul\":12453:12484   */\n      calldataload\n        /* \"#utility.yul\":12511:12529   */\n      0xffffffffffffffff\n        /* \"#utility.yul\":12503:12509   */\n      dup2\n        /* \"#utility.yul\":12500:12530   */\n      gt\n        /* \"#utility.yul\":12497:12614   */\n      iszero\n      tag_246\n      jumpi\n        /* \"#utility.yul\":12533:12612   */\n      tag_247\n      tag_80\n      jump\t// in\n    tag_247:\n        /* \"#utility.yul\":12497:12614   */\n    tag_246:\n        /* \"#utility.yul\":12638:12701   */\n      tag_248\n        /* \"#utility.yul\":12693:12700   */\n      dup6\n        /* \"#utility.yul\":12684:12690   */\n      dup3\n        /* \"#utility.yul\":12673:12682   */\n      dup7\n        /* \"#utility.yul\":12669:12691   */\n      add\n        /* \"#utility.yul\":12638:12701   */\n      tag_94\n      jump\t// in\n    tag_248:\n        /* \"#utility.yul\":12628:12701   */\n      swap3\n      pop\n        /* \"#utility.yul\":12424:12711   */\n      pop\n        /* \"#utility.yul\":12750:12752   */\n      0x20\n        /* \"#utility.yul\":12776:12829   */\n      tag_249\n        /* \"#utility.yul\":12821:12828   */\n      dup6\n        /* \"#utility.yul\":12812:12818   */\n      dup3\n        /* \"#utility.yul\":12801:12810   */\n      dup7\n        /* \"#utility.yul\":12797:12819   */\n      add\n        /* \"#utility.yul\":12776:12829   */\n      tag_82\n      jump\t// in\n    tag_249:\n        /* \"#utility.yul\":12766:12829   */\n      swap2\n      pop\n        /* \"#utility.yul\":12721:12839   */\n      pop\n        /* \"#utility.yul\":12192:12846   */\n      swap3\n      pop\n      swap3\n      swap1\n      pop\n      jump\t// out\n        /* \"#utility.yul\":12852:13032   */\n    tag_109:\n        /* \"#utility.yul\":12900:12977   */\n      0x4e487b7100000000000000000000000000000000000000000000000000000000\n        /* \"#utility.yul\":12897:12898   */\n      0x00\n        /* \"#utility.yul\":12890:12978   */\n      mstore\n        /* \"#utility.yul\":12997:13001   */\n      0x22\n        /* \"#utility.yul\":12994:12995   */\n      0x04\n        /* \"#utility.yul\":12987:13002   */\n      mstore\n        /* \"#utility.yul\":13021:13025   */\n      0x24\n        /* \"#utility.yul\":13018:13019   */\n      0x00\n        /* \"#utility.yul\":13011:13026   */\n      revert\n        /* \"#utility.yul\":13038:13358   */\n    tag_40:\n        /* \"#utility.yul\":13082:13088   */\n      0x00\n        /* \"#utility.yul\":13119:13120   */\n      0x02\n        /* \"#utility.yul\":13113:13117   */\n      dup3\n        /* \"#utility.yul\":13109:13121   */\n      div\n        /* \"#utility.yul\":13099:13121   */\n      swap1\n      pop\n        /* \"#utility.yul\":13166:13167   */\n      0x01\n        /* \"#utility.yul\":13160:13164   */\n      dup3\n        /* \"#utility.yul\":13156:13168   */\n      and\n        /* \"#utility.yul\":13187:13205   */\n      dup1\n        /* \"#utility.yul\":13177:13258   */\n      tag_252\n      jumpi\n        /* \"#utility.yul\":13243:13247   */\n      0x7f\n        /* \"#utility.yul\":13235:13241   */\n      dup3\n        /* \"#utility.yul\":13231:13248   */\n      and\n        /* \"#utility.yul\":13221:13248   */\n      swap2\n      pop\n        /* \"#utility.yul\":13177:13258   */\n    tag_252:\n        /* \"#utility.yul\":13305:13307   */\n      0x20\n        /* \"#utility.yul\":13297:13303   */\n      dup3\n        /* \"#utility.yul\":13294:13308   */\n      lt\n        /* \"#utility.yul\":13274:13292   */\n      dup2\n        /* \"#utility.yul\":13271:13309   */\n      sub\n        /* \"#utility.yul\":13268:13352   */\n      tag_253\n      jumpi\n        /* \"#utility.yul\":13324:13342   */\n      tag_254\n      tag_109\n      jump\t// in\n    tag_254:\n        /* \"#utility.yul\":13268:13352   */\n    tag_253:\n        /* \"#utility.yul\":13089:13358   */\n      pop\n        /* \"#utility.yul\":13038:13358   */\n      swap2\n      swap1\n      pop\n      jump\t// out\n        /* \"#utility.yul\":13364:13505   */\n    tag_110:\n        /* \"#utility.yul\":13413:13417   */\n      0x00\n        /* \"#utility.yul\":13436:13439   */\n      dup2\n        /* \"#utility.yul\":13428:13439   */\n      swap1\n      pop\n        /* \"#utility.yul\":13459:13462   */\n      dup2\n        /* \"#utility.yul\":13456:13457   */\n      0x00\n        /* \"#utility.yul\":13449:13463   */\n      mstore\n        /* \"#utility.yul\":13493:13497   */\n      0x20\n        /* \"#utility.yul\":13490:13491   */\n      0x00\n        /* \"#utility.yul\":13480:13498   */\n      keccak256\n        /* \"#utility.yul\":13472:13498   */\n      swap1\n      pop\n        /* \"#utility.yul\":13364:13505   */\n      swap2\n      swap1\n      pop\n      jump\t// out\n        /* \"#utility.yul\":13511:13604   */\n    tag_111:\n        /* \"#utility.yul\":13548:13554   */\n      0x00\n        /* \"#utility.yul\":13595:13597   */\n      0x20\n        /* \"#utility.yul\":13590:13592   */\n      0x1f\n        /* \"#utility.yul\":13583:13588   */\n      dup4\n        /* \"#utility.yul\":13579:13593   */\n      add\n        /* \"#utility.yul\":13575:13598   */\n      div\n        /* \"#utility.yul\":13565:13598   */\n      swap1\n      pop\n        /* \"#utility.yul\":13511:13604   */\n      swap2\n      swap1\n      pop\n      jump\t// out\n        /* \"#utility.yul\":13610:13717   */\n    tag_112:\n        /* \"#utility.yul\":13654:13662   */\n      0x00\n        /* \"#utility.yul\":13704:13709   */\n      dup3\n        /* \"#utility.yul\":13698:13702   */\n      dup3\n        /* \"#utility.yul\":13694:13710   */\n      shl\n        /* \"#utility.yul\":13673:13710   */\n      swap1\n      pop\n        /* \"#utility.yul\":13610:13717   */\n      swap3\n      swap2\n      pop\n      pop\n      jump\t// out\n        /* \"#utility.yul\":13723:14116   */\n    tag_113:\n        /* \"#utility.yul\":13792:13798   */\n      0x00\n        /* \"#utility.yul\":13842:13843   */\n      0x08\n        /* \"#utility.yul\":13830:13840   */\n      dup4\n        /* \"#utility.yul\":13826:13844   */\n      mul\n        /* \"#utility.yul\":13865:13962   */\n      tag_259\n        /* \"#utility.yul\":13895:13961   */\n      0xffffffffffffffffffffffffffffffffffffffffffffffffffffffffffffffff\n        /* \"#utility.yul\":13884:13893   */\n      dup3\n        /* \"#utility.yul\":13865:13962   */\n      tag_112\n      jump\t// in\n    tag_259:\n        /* \"#utility.yul\":13983:14022   */\n      tag_260\n        /* \"#utility.yul\":14013:14021   */\n      dup7\n        /* \"#utility.yul\":14002:14011   */\n      dup4\n        /* \"#utility.yul\":13983:14022   */\n      tag_112\n      jump\t// in\n    tag_260:\n        /* \"#utility.yul\":13971:14022   */\n      swap6\n      pop\n        /* \"#utility.yul\":14055:14059   */\n      dup1\n        /* \"#utility.yul\":14051:14060   */\n      not\n        /* \"#utility.yul\":14044:14049   */\n      dup5\n        /* \"#utility.yul\":14040:14061   */\n      and\n        /* \"#utility.yul\":14031:14061   */\n      swap4\n      pop\n        /* \"#utility.yul\":14104:14108   */\n      dup1\n        /* \"#utility.yul\":14094:14102   */\n      dup7\n        /* \"#utility.yul\":14090:14109   */\n      and\n        /* \"#utility.yul\":14083:14088   */\n      dup5\n        /* \"#utility.yul\":14080:14110   */\n      or\n        /* \"#utility.yul\":14070:14110   */\n      swap3\n      pop\n        /* \"#utility.yul\":13799:14116   */\n      pop\n      pop\n        /* \"#utility.yul\":13723:14116   */\n      swap4\n      swap3\n      pop\n      pop\n      pop\n      jump\t// out\n        /* \"#utility.yul\":14122:14182   */\n    tag_114:\n        /* \"#utility.yul\":14150:14153   */\n      0x00\n        /* \"#utility.yul\":14171:14176   */\n      dup2\n        /* \"#utility.yul\":14164:14176   */\n      swap1\n      pop\n        /* \"#utility.yul\":14122:14182   */\n      swap2\n      swap1\n      pop\n      jump\t// out\n        /* \"#utility.yul\":14188:14330   */\n    tag_115:\n        /* \"#utility.yul\":14238:14247   */\n      0x00\n        /* \"#utility.yul\":14271:14324   */\n      tag_263\n        /* \"#utility.yul\":14289:14323   */\n      tag_264\n        /* \"#utility.yul\":14298:14322   */\n      tag_265\n        /* \"#utility.yul\":14316:14321   */\n      dup5\n        /* \"#utility.yul\":14298:14322   */\n      tag_76\n      jump\t// in\n    tag_265:\n        /* \"#utility.yul\":14289:14323   */\n      tag_114\n      jump\t// in\n    tag_264:\n        /* \"#utility.yul\":14271:14324   */\n      tag_76\n      jump\t// in\n    tag_263:\n        /* \"#utility.yul\":14258:14324   */\n      swap1\n      pop\n        /* \"#utility.yul\":14188:14330   */\n      swap2\n      swap1\n      pop\n      jump\t// out\n        /* \"#utility.yul\":14336:14411   */\n    tag_116:\n        /* \"#utility.yul\":14379:14382   */\n      0x00\n        /* \"#utility.yul\":14400:14405   */\n      dup2\n        /* \"#utility.yul\":14393:14405   */\n      swap1\n      pop\n        /* \"#utility.yul\":14336:14411   */\n      swap2\n      swap1\n      pop\n      jump\t// out\n        /* \"#utility.yul\":14417:14686   */\n    tag_117:\n        /* \"#utility.yul\":14527:14566   */\n      tag_268\n        /* \"#utility.yul\":14558:14565   */\n      dup4\n        /* \"#utility.yul\":14527:14566   */\n      tag_115\n      jump\t// in\n    tag_268:\n        /* \"#utility.yul\":14588:14679   */\n      tag_269\n        /* \"#utility.yul\":14637:14678   */\n      tag_270\n        /* \"#utility.yul\":14661:14677   */\n      dup3\n        /* \"#utility.yul\":14637:14678   */\n      tag_116\n      jump\t// in\n    tag_270:\n        /* \"#utility.yul\":14629:14635   */\n      dup5\n        /* \"#utility.yul\":14622:14626   */\n      dup5\n        /* \"#utility.yul\":14616:14627   */\n      sload\n        /* \"#utility.yul\":14588:14679   */\n      tag_113\n      jump\t// in\n    tag_269:\n        /* \"#utility.yul\":14582:14586   */\n      dup3\n        /* \"#utility.yul\":14575:14680   */\n      sstore\n        /* \"#utility.yul\":14493:14686   */\n      pop\n        /* \"#utility.yul\":14417:14686   */\n      pop\n      pop\n      pop\n      jump\t// out\n        /* \"#utility.yul\":14692:14765   */\n    tag_118:\n        /* \"#utility.yul\":14737:14740   */\n      0x00\n        /* \"#utility.yul\":14758:14759   */\n      0x00\n        /* \"#utility.yul\":14751:14759   */\n      swap1\n      pop\n        /* \"#utility.yul\":14692:14765   */\n      swap1\n      jump\t// out\n        /* \"#utility.yul\":14771:14960   */\n    tag_119:\n        /* \"#utility.yul\":14848:14880   */\n      tag_273\n      tag_118\n      jump\t// in\n    tag_273:\n        /* \"#utility.yul\":14889:14954   */\n      tag_274\n        /* \"#utility.yul\":14947:14953   */\n      dup2\n        /* \"#utility.yul\":14939:14945   */\n      dup5\n        /* \"#utility.yul\":14933:14937   */\n      dup5\n        /* \"#utility.yul\":14889:14954   */\n      tag_117\n      jump\t// in\n    tag_274:\n        /* \"#utility.yul\":14824:14960   */\n      pop\n        /* \"#utility.yul\":14771:14960   */\n      pop\n      pop\n      jump\t// out\n        /* \"#utility.yul\":14966:15152   */\n    tag_120:\n        /* \"#utility.yul\":15026:15146   */\n    tag_276:\n        /* \"#utility.yul\":15043:15046   */\n      dup2\n        /* \"#utility.yul\":15036:15041   */\n      dup2\n        /* \"#utility.yul\":15033:15047   */\n      lt\n        /* \"#utility.yul\":15026:15146   */\n      iszero\n      tag_278\n      jumpi\n        /* \"#utility.yul\":15097:15136   */\n      tag_279\n        /* \"#utility.yul\":15134:15135   */\n      0x00\n        /* \"#utility.yul\":15127:15132   */\n      dup3\n        /* \"#utility.yul\":15097:15136   */\n      tag_119\n      jump\t// in\n    tag_279:\n        /* \"#utility.yul\":15070:15071   */\n      0x01\n        /* \"#utility.yul\":15063:15068   */\n      dup2\n        /* \"#utility.yul\":15059:15072   */\n      add\n        /* \"#utility.yul\":15050:15072   */\n      swap1\n      pop\n        /* \"#utility.yul\":15026:15146   */\n      jump(tag_276)\n    tag_278:\n        /* \"#utility.yul\":14966:15152   */\n      pop\n      pop\n      jump\t// out\n        /* \"#utility.yul\":15158:15701   */\n    tag_121:\n        /* \"#utility.yul\":15259:15261   */\n      0x1f\n        /* \"#utility.yul\":15254:15257   */\n      dup3\n        /* \"#utility.yul\":15251:15262   */\n      gt\n        /* \"#utility.yul\":15248:15694   */\n      iszero\n      tag_281\n      jumpi\n        /* \"#utility.yul\":15293:15331   */\n      tag_282\n        /* \"#utility.yul\":15325:15330   */\n      dup2\n        /* \"#utility.yul\":15293:15331   */\n      tag_110\n      jump\t// in\n    tag_282:\n        /* \"#utility.yul\":15377:15406   */\n      tag_283\n        /* \"#utility.yul\":15395:15405   */\n      dup5\n        /* \"#utility.yul\":15377:15406   */\n      tag_111\n      jump\t// in\n    tag_283:\n        /* \"#utility.yul\":15367:15375   */\n      dup2\n        /* \"#utility.yul\":15363:15407   */\n      add\n        /* \"#utility.yul\":15560:15562   */\n      0x20\n        /* \"#utility.yul\":15548:15558   */\n      dup6\n        /* \"#utility.yul\":15545:15563   */\n      lt\n        /* \"#utility.yul\":15542:15591   */\n      iszero\n      tag_284\n      jumpi\n        /* \"#utility.yul\":15581:15589   */\n      dup2\n        /* \"#utility.yul\":15566:15589   */\n      swap1\n      pop\n        /* \"#utility.yul\":15542:15591   */\n    tag_284:\n        /* \"#utility.yul\":15604:15684   */\n      tag_285\n        /* \"#utility.yul\":15660:15682   */\n      tag_286\n        /* \"#utility.yul\":15678:15681   */\n      dup6\n        /* \"#utility.yul\":15660:15682   */\n      tag_111\n      jump\t// in\n    tag_286:\n        /* \"#utility.yul\":15650:15658   */\n      dup4\n        /* \"#utility.yul\":15646:15683   */\n      add\n        /* \"#utility.yul\":15633:15644   */\n      dup3\n        /* \"#utility.yul\":15604:15684   */\n      tag_120\n      jump\t// in\n    tag_285:\n        /* \"#utility.yul\":15263:15694   */\n      pop\n      pop\n        /* \"#utility.yul\":15248:15694   */\n    tag_281:\n        /* \"#utility.yul\":15158:15701   */\n      pop\n      pop\n      pop\n      jump\t// out\n        /* \"#utility.yul\":15707:15824   */\n    tag_122:\n        /* \"#utility.yul\":15761:15769   */\n      0x00\n        /* \"#utility.yul\":15811:15816   */\n      dup3\n        /* \"#utility.yul\":15805:15809   */\n      dup3\n        /* \"#utility.yul\":15801:15817   */\n      shr\n        /* \"#utility.yul\":15780:15817   */\n      swap1\n      pop\n        /* \"#utility.yul\":15707:15824   */\n      swap3\n      swap2\n      pop\n      pop\n      jump\t// out\n        /* \"#utility.yul\":15830:15999   */\n    tag_123:\n        /* \"#utility.yul\":15874:15880   */\n      0x00\n        /* \"#utility.yul\":15907:15958   */\n      tag_289\n        /* \"#utility.yul\":15955:15956   */\n      0x00\n        /* \"#utility.yul\":15951:15957   */\n      not\n        /* \"#utility.yul\":15943:15948   */\n      dup5\n        /* \"#utility.yul\":15940:15941   */\n      0x08\n        /* \"#utility.yul\":15936:15949   */\n      mul\n        /* \"#utility.yul\":15907:15958   */\n      tag_122\n      jump\t// in\n    tag_289:\n        /* \"#utility.yul\":15903:15959   */\n      not\n        /* \"#utility.yul\":15988:15992   */\n      dup1\n        /* \"#utility.yul\":15982:15986   */\n      dup4\n        /* \"#utility.yul\":15978:15993   */\n      and\n        /* \"#utility.yul\":15968:15993   */\n      swap2\n      pop\n        /* \"#utility.yul\":15881:15999   */\n      pop\n        /* \"#utility.yul\":15830:15999   */\n      swap3\n      swap2\n      pop\n      pop\n      jump\t// out\n        /* \"#utility.yul\":16004:16299   */\n    tag_124:\n        /* \"#utility.yul\":16080:16084   */\n      0x00\n        /* \"#utility.yul\":16226:16255   */\n      tag_291\n        /* \"#utility.yul\":16251:16254   */\n      dup4\n        /* \"#utility.yul\":16245:16249   */\n      dup4\n        /* \"#utility.yul\":16226:16255   */\n      tag_123\n      jump\t// in\n    tag_291:\n        /* \"#utility.yul\":16218:16255   */\n      swap2\n      pop\n        /* \"#utility.yul\":16288:16291   */\n      dup3\n        /* \"#utility.yul\":16285:16286   */\n      0x02\n        /* \"#utility.yul\":16281:16292   */\n      mul\n        /* \"#utility.yul\":16275:16279   */\n      dup3\n        /* \"#utility.yul\":16272:16293   */\n      or\n        /* \"#utility.yul\":16264:16293   */\n      swap1\n      pop\n        /* \"#utility.yul\":16004:16299   */\n      swap3\n      swap2\n      pop\n      pop\n      jump\t// out\n        /* \"#utility.yul\":16304:17699   */\n    tag_33:\n        /* \"#utility.yul\":16421:16458   */\n      tag_293\n        /* \"#utility.yul\":16454:16457   */\n      dup3\n        /* \"#utility.yul\":16421:16458   */\n      tag_99\n      jump\t// in\n    tag_293:\n        /* \"#utility.yul\":16523:16541   */\n      0xffffffffffffffff\n        /* \"#utility.yul\":16515:16521   */\n      dup2\n        /* \"#utility.yul\":16512:16542   */\n      gt\n        /* \"#utility.yul\":16509:16565   */\n      iszero\n      tag_294\n      jumpi\n        /* \"#utility.yul\":16545:16563   */\n      tag_295\n      tag_85\n      jump\t// in\n    tag_295:\n        /* \"#utility.yul\":16509:16565   */\n    tag_294:\n        /* \"#utility.yul\":16589:16627   */\n      tag_296\n        /* \"#utility.yul\":16621:16625   */\n      dup3\n        /* \"#utility.yul\":16615:16626   */\n      sload\n        /* \"#utility.yul\":16589:16627   */\n      tag_40\n      jump\t// in\n    tag_296:\n        /* \"#utility.yul\":16674:16741   */\n      tag_297\n        /* \"#utility.yul\":16734:16740   */\n      dup3\n        /* \"#utility.yul\":16726:16732   */\n      dup3\n        /* \"#utility.yul\":16720:16724   */\n      dup6\n        /* \"#utility.yul\":16674:16741   */\n      tag_121\n      jump\t// in\n    tag_297:\n        /* \"#utility.yul\":16768:16769   */\n      0x00\n        /* \"#utility.yul\":16792:16796   */\n      0x20\n        /* \"#utility.yul\":16779:16796   */\n      swap1\n      pop\n        /* \"#utility.yul\":16824:16826   */\n      0x1f\n        /* \"#utility.yul\":16816:16822   */\n      dup4\n        /* \"#utility.yul\":16813:16827   */\n      gt\n        /* \"#utility.yul\":16841:16842   */\n      0x01\n        /* \"#utility.yul\":16836:17454   */\n      dup2\n      eq\n      tag_299\n      jumpi\n        /* \"#utility.yul\":17498:17499   */\n      0x00\n        /* \"#utility.yul\":17515:17521   */\n      dup5\n        /* \"#utility.yul\":17512:17589   */\n      iszero\n      tag_300\n      jumpi\n        /* \"#utility.yul\":17564:17573   */\n      dup3\n        /* \"#utility.yul\":17559:17562   */\n      dup8\n        /* \"#utility.yul\":17555:17574   */\n      add\n        /* \"#utility.yul\":17549:17575   */\n      mload\n        /* \"#utility.yul\":17540:17575   */\n      swap1\n      pop\n        /* \"#utility.yul\":17512:17589   */\n    tag_300:\n        /* \"#utility.yul\":17615:17682   */\n      tag_301\n        /* \"#utility.yul\":17675:17681   */\n      dup6\n        /* \"#utility.yul\":17668:17673   */\n      dup3\n        /* \"#utility.yul\":17615:17682   */\n      tag_124\n      jump\t// in\n    tag_301:\n        /* \"#utility.yul\":17609:17613   */\n      dup7\n        /* \"#utility.yul\":17602:17683   */\n      sstore\n        /* \"#utility.yul\":17471:17693   */\n      pop\n        /* \"#utility.yul\":16806:17693   */\n      jump(tag_298)\n        /* \"#utility.yul\":16836:17454   */\n    tag_299:\n        /* \"#utility.yul\":16888:16892   */\n      0x1f\n        /* \"#utility.yul\":16884:16893   */\n      not\n        /* \"#utility.yul\":16876:16882   */\n      dup5\n        /* \"#utility.yul\":16872:16894   */\n      and\n        /* \"#utility.yul\":16922:16959   */\n      tag_302\n        /* \"#utility.yul\":16954:16958   */\n      dup7\n        /* \"#utility.yul\":16922:16959   */\n      tag_110\n      jump\t// in\n    tag_302:\n        /* \"#utility.yul\":16981:16982   */\n      0x00\n        /* \"#utility.yul\":16995:17203   */\n    tag_303:\n        /* \"#utility.yul\":17009:17016   */\n      dup3\n        /* \"#utility.yul\":17006:17007   */\n      dup2\n        /* \"#utility.yul\":17003:17017   */\n      lt\n        /* \"#utility.yul\":16995:17203   */\n      iszero\n      tag_305\n      jumpi\n        /* \"#utility.yul\":17088:17097   */\n      dup5\n        /* \"#utility.yul\":17083:17086   */\n      dup10\n        /* \"#utility.yul\":17079:17098   */\n      add\n        /* \"#utility.yul\":17073:17099   */\n      mload\n        /* \"#utility.yul\":17065:17071   */\n      dup3\n        /* \"#utility.yul\":17058:17100   */\n      sstore\n        /* \"#utility.yul\":17139:17140   */\n      0x01\n        /* \"#utility.yul\":17131:17137   */\n      dup3\n        /* \"#utility.yul\":17127:17141   */\n      add\n        /* \"#utility.yul\":17117:17141   */\n      swap2\n      pop\n        /* \"#utility.yul\":17186:17188   */\n      0x20\n        /* \"#utility.yul\":17175:17184   */\n      dup6\n        /* \"#utility.yul\":17171:17189   */\n      add\n        /* \"#utility.yul\":17158:17189   */\n      swap5\n      pop\n        /* \"#utility.yul\":17032:17036   */\n      0x20\n        /* \"#utility.yul\":17029:17030   */\n      dup2\n        /* \"#utility.yul\":17025:17037   */\n      add\n        /* \"#utility.yul\":17020:17037   */\n      swap1\n      pop\n        /* \"#utility.yul\":16995:17203   */\n      jump(tag_303)\n    tag_305:\n        /* \"#utility.yul\":17231:17237   */\n      dup7\n        /* \"#utility.yul\":17222:17229   */\n      dup4\n        /* \"#utility.yul\":17219:17238   */\n      lt\n        /* \"#utility.yul\":17216:17395   */\n      iszero\n      tag_306\n      jumpi\n        /* \"#utility.yul\":17289:17298   */\n      dup5\n        /* \"#utility.yul\":17284:17287   */\n      dup10\n        /* \"#utility.yul\":17280:17299   */\n      add\n        /* \"#utility.yul\":17274:17300   */\n      mload\n        /* \"#utility.yul\":17332:17380   */\n      tag_307\n        /* \"#utility.yul\":17374:17378   */\n      0x1f\n        /* \"#utility.yul\":17366:17372   */\n      dup10\n        /* \"#utility.yul\":17362:17379   */\n      and\n        /* \"#utility.yul\":17351:17360   */\n      dup3\n        /* \"#utility.yul\":17332:17380   */\n      tag_123\n      jump\t// in\n    tag_307:\n        /* \"#utility.yul\":17324:17330   */\n      dup4\n        /* \"#utility.yul\":17317:17381   */\n      sstore\n        /* \"#utility.yul\":17239:17395   */\n      pop\n        /* \"#utility.yul\":17216:17395   */\n    tag_306:\n        /* \"#utility.yul\":17441:17442   */\n      0x01\n        /* \"#utility.yul\":17437:17438   */\n      0x02\n        /* \"#utility.yul\":17429:17435   */\n      dup9\n        /* \"#utility.yul\":17425:17439   */\n      mul\n        /* \"#utility.yul\":17421:17443   */\n      add\n        /* \"#utility.yul\":17415:17419   */\n      dup9\n        /* \"#utility.yul\":17408:17444   */\n      sstore\n        /* \"#utility.yul\":16843:17454   */\n      pop\n      pop\n      pop\n        /* \"#utility.yul\":16806:17693   */\n    tag_298:\n      pop\n        /* \"#utility.yul\":16396:17699   */\n      pop\n      pop\n      pop\n        /* \"#utility.yul\":16304:17699   */\n      pop\n      pop\n      jump\t// out\n        /* \"#utility.yul\":17705:17885   */\n    tag_125:\n        /* \"#utility.yul\":17753:17830   */\n      0x4e487b7100000000000000000000000000000000000000000000000000000000\n        /* \"#utility.yul\":17750:17751   */\n      0x00\n        /* \"#utility.yul\":17743:17831   */\n      mstore\n        /* \"#utility.yul\":17850:17854   */\n      0x11\n        /* \"#utility.yul\":17847:17848   */\n      0x04\n        /* \"#utility.yul\":17840:17855   */\n      mstore\n        /* \"#utility.yul\":17874:17878   */\n      0x24\n        /* \"#utility.yul\":17871:17872   */\n      0x00\n        /* \"#utility.yul\":17864:17879   */\n      revert\n        /* \"#utility.yul\":17891:18124   */\n    tag_72:\n        /* \"#utility.yul\":17930:17933   */\n      0x00\n        /* \"#utility.yul\":17953:17977   */\n      tag_310\n        /* \"#utility.yul\":17971:17976   */\n      dup3\n        /* \"#utility.yul\":17953:17977   */\n      tag_76\n      jump\t// in\n    tag_310:\n        /* \"#utility.yul\":17944:17977   */\n      swap2\n      pop\n        /* \"#utility.yul\":17999:18065   */\n      0xffffffffffffffffffffffffffffffffffffffffffffffffffffffffffffffff\n        /* \"#utility.yul\":17992:17997   */\n      dup3\n        /* \"#utility.yul\":17989:18066   */\n      sub\n        /* \"#utility.yul\":17986:18089   */\n      tag_311\n      jumpi\n        /* \"#utility.yul\":18069:18087   */\n      tag_312\n      tag_125\n      jump\t// in\n    tag_312:\n        /* \"#utility.yul\":17986:18089   */\n    tag_311:\n        /* \"#utility.yul\":18116:18117   */\n      0x01\n        /* \"#utility.yul\":18109:18114   */\n      dup3\n        /* \"#utility.yul\":18105:18118   */\n      add\n        /* \"#utility.yul\":18098:18118   */\n      swap1\n      pop\n        /* \"#utility.yul\":17891:18124   */\n      swap2\n      swap1\n      pop\n      jump\t// out\n\n    auxdata: 0xa2646970667358221220429d6074f6795d4ae62f39da76ed0bbef5f63fcba5b8197adecb8090c15bf1a464736f6c634300081e0033\n}\n",
				"bytecode": {
					"linkReferences": {},
					"object": "6080604052348015600e575f5ffd5b50335f5f6101000a81548173ffffffffffffffffffffffffffffffffffffffff021916908373ffffffffffffffffffffffffffffffffffffffff1602179055506111db8061005b5f395ff3fe608060405234801561000f575f5ffd5b5060043610610055575f3560e01c8063098809d7146100595780630d47dd261461007757806310742b51146100935780634fbd241d146100c35780638af88a5c146100fa575b5f5ffd5b610061610116565b60405161006e919061085d565b60405180910390f35b610091600480360381019061008c9190610b45565b61011c565b005b6100ad60048036038101906100a89190610b9f565b6101fe565b6040516100ba9190610d03565b60405180910390f35b6100dd60048036038101906100d89190610b9f565b61044e565b6040516100f1989796959493929190610d7a565b60405180910390f35b610114600480360381019061010f9190610e0b565b610657565b005b60025481565b8060015f8481526020019081526020015f205f820151815f0190816101419190611062565b506020820151816001015560408201518160020190816101619190611062565b5060608201518160030190816101779190611062565b506080820151816004015f6101000a81548160ff02191690831515021790555060a08201518160040160016101000a81548160ff02191690831515021790555060c08201518160040160026101000a81548160ff02191690831515021790555060e08201518160040160036101000a81548160ff0219169083151502179055509050505050565b6102066107fd565b60015f8381526020019081526020015f20604051806101000160405290815f8201805461023290610e92565b80601f016020809104026020016040519081016040528092919081815260200182805461025e90610e92565b80156102a95780601f10610280576101008083540402835291602001916102a9565b820191905f5260205f20905b81548152906001019060200180831161028c57829003601f168201915b50505050508152602001600182015481526020016002820180546102cc90610e92565b80601f01602080910402602001604051908101604052809291908181526020018280546102f890610e92565b80156103435780601f1061031a57610100808354040283529160200191610343565b820191905f5260205f20905b81548152906001019060200180831161032657829003601f168201915b5050505050815260200160038201805461035c90610e92565b80601f016020809104026020016040519081016040528092919081815260200182805461038890610e92565b80156103d35780601f106103aa576101008083540402835291602001916103d3565b820191905f5260205f20905b8154815290600101906020018083116103b657829003601f168201915b50505050508152602001600482015f9054906101000a900460ff161515151581526020016004820160019054906101000a900460ff161515151581526020016004820160029054906101000a900460ff161515151581526020016004820160039054906101000a900460ff1615151515815250509050919050565b6001602052805f5260405f205f91509050805f01805461046d90610e92565b80601f016020809104026020016040519081016040528092919081815260200182805461049990610e92565b80156104e45780601f106104bb576101008083540402835291602001916104e4565b820191905f5260205f20905b8154815290600101906020018083116104c757829003601f168201915b5050505050908060010154908060020180546104ff90610e92565b80601f016020809104026020016040519081016040528092919081815260200182805461052b90610e92565b80156105765780601f1061054d57610100808354040283529160200191610576565b820191905f5260205f20905b81548152906001019060200180831161055957829003601f168201915b50505050509080600301805461058b90610e92565b80601f01602080910402602001604051908101604052809291908181526020018280546105b790610e92565b80156106025780601f106105d957610100808354040283529160200191610602565b820191905f5260205f20905b8154815290600101906020018083116105e557829003601f168201915b505050505090806004015f9054906101000a900460ff16908060040160019054906101000a900460ff16908060040160029054906101000a900460ff16908060040160039054906101000a900460ff16905088565b60025f8154809291906106699061115e565b91905055506040518061010001604052808381526020018281526020016040518060400160405280600f81526020017f546f206265206576616c7561746564000000000000000000000000000000000081525081526020016040518060400160405280600e81526020017f546f2062652061737369676e656400000000000000000000000000000000000081525081526020015f151581526020015f151581526020015f151581526020015f151581525060015f60025481526020019081526020015f205f820151815f0190816107409190611062565b506020820151816001015560408201518160020190816107609190611062565b5060608201518160030190816107769190611062565b506080820151816004015f6101000a81548160ff02191690831515021790555060a08201518160040160016101000a81548160ff02191690831515021790555060c08201518160040160026101000a81548160ff02191690831515021790555060e08201518160040160036101000a81548160ff0219169083151502179055509050505050565b604051806101000160405280606081526020015f815260200160608152602001606081526020015f151581526020015f151581526020015f151581526020015f151581525090565b5f819050919050565b61085781610845565b82525050565b5f6020820190506108705f83018461084e565b92915050565b5f604051905090565b5f5ffd5b5f5ffd5b61089081610845565b811461089a575f5ffd5b50565b5f813590506108ab81610887565b92915050565b5f5ffd5b5f601f19601f8301169050919050565b7f4e487b71000000000000000000000000000000000000000000000000000000005f52604160045260245ffd5b6108fb826108b5565b810181811067ffffffffffffffff8211171561091a576109196108c5565b5b80604052505050565b5f61092c610876565b905061093882826108f2565b919050565b5f5ffd5b5f5ffd5b5f5ffd5b5f67ffffffffffffffff821115610963576109626108c5565b5b61096c826108b5565b9050602081019050919050565b828183375f83830152505050565b5f61099961099484610949565b610923565b9050828152602081018484840111156109b5576109b4610945565b5b6109c0848285610979565b509392505050565b5f82601f8301126109dc576109db610941565b5b81356109ec848260208601610987565b91505092915050565b5f8115159050919050565b610a09816109f5565b8114610a13575f5ffd5b50565b5f81359050610a2481610a00565b92915050565b5f6101008284031215610a4057610a3f6108b1565b5b610a4b610100610923565b90505f82013567ffffffffffffffff811115610a6a57610a6961093d565b5b610a76848285016109c8565b5f830152506020610a898482850161089d565b602083015250604082013567ffffffffffffffff811115610aad57610aac61093d565b5b610ab9848285016109c8565b604083015250606082013567ffffffffffffffff811115610add57610adc61093d565b5b610ae9848285016109c8565b6060830152506080610afd84828501610a16565b60808301525060a0610b1184828501610a16565b60a08301525060c0610b2584828501610a16565b60c08301525060e0610b3984828501610a16565b60e08301525092915050565b5f5f60408385031215610b5b57610b5a61087f565b5b5f610b688582860161089d565b925050602083013567ffffffffffffffff811115610b8957610b88610883565b5b610b9585828601610a2a565b9150509250929050565b5f60208284031215610bb457610bb361087f565b5b5f610bc18482850161089d565b91505092915050565b5f81519050919050565b5f82825260208201905092915050565b8281835e5f83830152505050565b5f610bfc82610bca565b610c068185610bd4565b9350610c16818560208601610be4565b610c1f816108b5565b840191505092915050565b610c3381610845565b82525050565b610c42816109f5565b82525050565b5f61010083015f8301518482035f860152610c638282610bf2565b9150506020830151610c786020860182610c2a565b5060408301518482036040860152610c908282610bf2565b91505060608301518482036060860152610caa8282610bf2565b9150506080830151610cbf6080860182610c39565b5060a0830151610cd260a0860182610c39565b5060c0830151610ce560c0860182610c39565b5060e0830151610cf860e0860182610c39565b508091505092915050565b5f6020820190508181035f830152610d1b8184610c48565b905092915050565b5f82825260208201905092915050565b5f610d3d82610bca565b610d478185610d23565b9350610d57818560208601610be4565b610d60816108b5565b840191505092915050565b610d74816109f5565b82525050565b5f610100820190508181035f830152610d93818b610d33565b9050610da2602083018a61084e565b8181036040830152610db48189610d33565b90508181036060830152610dc88188610d33565b9050610dd76080830187610d6b565b610de460a0830186610d6b565b610df160c0830185610d6b565b610dfe60e0830184610d6b565b9998505050505050505050565b5f5f60408385031215610e2157610e2061087f565b5b5f83013567ffffffffffffffff811115610e3e57610e3d610883565b5b610e4a858286016109c8565b9250506020610e5b8582860161089d565b9150509250929050565b7f4e487b71000000000000000000000000000000000000000000000000000000005f52602260045260245ffd5b5f6002820490506001821680610ea957607f821691505b602082108103610ebc57610ebb610e65565b5b50919050565b5f819050815f5260205f209050919050565b5f6020601f8301049050919050565b5f82821b905092915050565b5f60088302610f1e7fffffffffffffffffffffffffffffffffffffffffffffffffffffffffffffffff82610ee3565b610f288683610ee3565b95508019841693508086168417925050509392505050565b5f819050919050565b5f610f63610f5e610f5984610845565b610f40565b610845565b9050919050565b5f819050919050565b610f7c83610f49565b610f90610f8882610f6a565b848454610eef565b825550505050565b5f5f905090565b610fa7610f98565b610fb2818484610f73565b505050565b5b81811015610fd557610fca5f82610f9f565b600181019050610fb8565b5050565b601f82111561101a57610feb81610ec2565b610ff484610ed4565b81016020851015611003578190505b61101761100f85610ed4565b830182610fb7565b50505b505050565b5f82821c905092915050565b5f61103a5f198460080261101f565b1980831691505092915050565b5f611052838361102b565b9150826002028217905092915050565b61106b82610bca565b67ffffffffffffffff811115611084576110836108c5565b5b61108e8254610e92565b611099828285610fd9565b5f60209050601f8311600181146110ca575f84156110b8578287015190505b6110c28582611047565b865550611129565b601f1984166110d886610ec2565b5f5b828110156110ff578489015182556001820191506020850194506020810190506110da565b8683101561111c5784890151611118601f89168261102b565b8355505b6001600288020188555050505b505050505050565b7f4e487b71000000000000000000000000000000000000000000000000000000005f52601160045260245ffd5b5f61116882610845565b91507fffffffffffffffffffffffffffffffffffffffffffffffffffffffffffffffff820361119a57611199611131565b5b60018201905091905056fea2646970667358221220429d6074f6795d4ae62f39da76ed0bbef5f63fcba5b8197adecb8090c15bf1a464736f6c634300081e0033",
					"opcodes": "PUSH1 0x80 PUSH1 0x40 MSTORE CALLVALUE DUP1 ISZERO PUSH1 0xE JUMPI PUSH0 PUSH0 REVERT JUMPDEST POP CALLER PUSH0 PUSH0 PUSH2 0x100 EXP DUP2 SLOAD DUP2 PUSH20 0xFFFFFFFFFFFFFFFFFFFFFFFFFFFFFFFFFFFFFFFF MUL NOT AND SWAP1 DUP4 PUSH20 0xFFFFFFFFFFFFFFFFFFFFFFFFFFFFFFFFFFFFFFFF AND MUL OR SWAP1 SSTORE POP PUSH2 0x11DB DUP1 PUSH2 0x5B PUSH0 CODECOPY PUSH0 RETURN INVALID PUSH1 0x80 PUSH1 0x40 MSTORE CALLVALUE DUP1 ISZERO PUSH2 0xF JUMPI PUSH0 PUSH0 REVERT JUMPDEST POP PUSH1 0x4 CALLDATASIZE LT PUSH2 0x55 JUMPI PUSH0 CALLDATALOAD PUSH1 0xE0 SHR DUP1 PUSH4 0x98809D7 EQ PUSH2 0x59 JUMPI DUP1 PUSH4 0xD47DD26 EQ PUSH2 0x77 JUMPI DUP1 PUSH4 0x10742B51 EQ PUSH2 0x93 JUMPI DUP1 PUSH4 0x4FBD241D EQ PUSH2 0xC3 JUMPI DUP1 PUSH4 0x8AF88A5C EQ PUSH2 0xFA JUMPI JUMPDEST PUSH0 PUSH0 REVERT JUMPDEST PUSH2 0x61 PUSH2 0x116 JUMP JUMPDEST PUSH1 0x40 MLOAD PUSH2 0x6E SWAP2 SWAP1 PUSH2 0x85D JUMP JUMPDEST PUSH1 0x40 MLOAD DUP1 SWAP2 SUB SWAP1 RETURN JUMPDEST PUSH2 0x91 PUSH1 0x4 DUP1 CALLDATASIZE SUB DUP2 ADD SWAP1 PUSH2 0x8C SWAP2 SWAP1 PUSH2 0xB45 JUMP JUMPDEST PUSH2 0x11C JUMP JUMPDEST STOP JUMPDEST PUSH2 0xAD PUSH1 0x4 DUP1 CALLDATASIZE SUB DUP2 ADD SWAP1 PUSH2 0xA8 SWAP2 SWAP1 PUSH2 0xB9F JUMP JUMPDEST PUSH2 0x1FE JUMP JUMPDEST PUSH1 0x40 MLOAD PUSH2 0xBA SWAP2 SWAP1 PUSH2 0xD03 JUMP JUMPDEST PUSH1 0x40 MLOAD DUP1 SWAP2 SUB SWAP1 RETURN JUMPDEST PUSH2 0xDD PUSH1 0x4 DUP1 CALLDATASIZE SUB DUP2 ADD SWAP1 PUSH2 0xD8 SWAP2 SWAP1 PUSH2 0xB9F JUMP JUMPDEST PUSH2 0x44E JUMP JUMPDEST PUSH1 0x40 MLOAD PUSH2 0xF1 SWAP9 SWAP8 SWAP7 SWAP6 SWAP5 SWAP4 SWAP3 SWAP2 SWAP1 PUSH2 0xD7A JUMP JUMPDEST PUSH1 0x40 MLOAD DUP1 SWAP2 SUB SWAP1 RETURN JUMPDEST PUSH2 0x114 PUSH1 0x4 DUP1 CALLDATASIZE SUB DUP2 ADD SWAP1 PUSH2 0x10F SWAP2 SWAP1 PUSH2 0xE0B JUMP JUMPDEST PUSH2 0x657 JUMP JUMPDEST STOP JUMPDEST PUSH1 0x2 SLOAD DUP2 JUMP JUMPDEST DUP1 PUSH1 0x1 PUSH0 DUP5 DUP2 MSTORE PUSH1 0x20 ADD SWAP1 DUP2 MSTORE PUSH1 0x20 ADD PUSH0 KECCAK256 PUSH0 DUP3 ADD MLOAD DUP2 PUSH0 ADD SWAP1 DUP2 PUSH2 0x141 SWAP2 SWAP1 PUSH2 0x1062 JUMP JUMPDEST POP PUSH1 0x20 DUP3 ADD MLOAD DUP2 PUSH1 0x1 ADD SSTORE PUSH1 0x40 DUP3 ADD MLOAD DUP2 PUSH1 0x2 ADD SWAP1 DUP2 PUSH2 0x161 SWAP2 SWAP1 PUSH2 0x1062 JUMP JUMPDEST POP PUSH1 0x60 DUP3 ADD MLOAD DUP2 PUSH1 0x3 ADD SWAP1 DUP2 PUSH2 0x177 SWAP2 SWAP1 PUSH2 0x1062 JUMP JUMPDEST POP PUSH1 0x80 DUP3 ADD MLOAD DUP2 PUSH1 0x4 ADD PUSH0 PUSH2 0x100 EXP DUP2 SLOAD DUP2 PUSH1 0xFF MUL NOT AND SWAP1 DUP4 ISZERO ISZERO MUL OR SWAP1 SSTORE POP PUSH1 0xA0 DUP3 ADD MLOAD DUP2 PUSH1 0x4 ADD PUSH1 0x1 PUSH2 0x100 EXP DUP2 SLOAD DUP2 PUSH1 0xFF MUL NOT AND SWAP1 DUP4 ISZERO ISZERO MUL OR SWAP1 SSTORE POP PUSH1 0xC0 DUP3 ADD MLOAD DUP2 PUSH1 0x4 ADD PUSH1 0x2 PUSH2 0x100 EXP DUP2 SLOAD DUP2 PUSH1 0xFF MUL NOT AND SWAP1 DUP4 ISZERO ISZERO MUL OR SWAP1 SSTORE POP PUSH1 0xE0 DUP3 ADD MLOAD DUP2 PUSH1 0x4 ADD PUSH1 0x3 PUSH2 0x100 EXP DUP2 SLOAD DUP2 PUSH1 0xFF MUL NOT AND SWAP1 DUP4 ISZERO ISZERO MUL OR SWAP1 SSTORE POP SWAP1 POP POP POP POP JUMP JUMPDEST PUSH2 0x206 PUSH2 0x7FD JUMP JUMPDEST PUSH1 0x1 PUSH0 DUP4 DUP2 MSTORE PUSH1 0x20 ADD SWAP1 DUP2 MSTORE PUSH1 0x20 ADD PUSH0 KECCAK256 PUSH1 0x40 MLOAD DUP1 PUSH2 0x100 ADD PUSH1 0x40 MSTORE SWAP1 DUP2 PUSH0 DUP3 ADD DUP1 SLOAD PUSH2 0x232 SWAP1 PUSH2 0xE92 JUMP JUMPDEST DUP1 PUSH1 0x1F ADD PUSH1 0x20 DUP1 SWAP2 DIV MUL PUSH1 0x20 ADD PUSH1 0x40 MLOAD SWAP1 DUP2 ADD PUSH1 0x40 MSTORE DUP1 SWAP3 SWAP2 SWAP1 DUP2 DUP2 MSTORE PUSH1 0x20 ADD DUP3 DUP1 SLOAD PUSH2 0x25E SWAP1 PUSH2 0xE92 JUMP JUMPDEST DUP1 ISZERO PUSH2 0x2A9 JUMPI DUP1 PUSH1 0x1F LT PUSH2 0x280 JUMPI PUSH2 0x100 DUP1 DUP4 SLOAD DIV MUL DUP4 MSTORE SWAP2 PUSH1 0x20 ADD SWAP2 PUSH2 0x2A9 JUMP JUMPDEST DUP3 ADD SWAP2 SWAP1 PUSH0 MSTORE PUSH1 0x20 PUSH0 KECCAK256 SWAP1 JUMPDEST DUP2 SLOAD DUP2 MSTORE SWAP1 PUSH1 0x1 ADD SWAP1 PUSH1 0x20 ADD DUP1 DUP4 GT PUSH2 0x28C JUMPI DUP3 SWAP1 SUB PUSH1 0x1F AND DUP3 ADD SWAP2 JUMPDEST POP POP POP POP POP DUP2 MSTORE PUSH1 0x20 ADD PUSH1 0x1 DUP3 ADD SLOAD DUP2 MSTORE PUSH1 0x20 ADD PUSH1 0x2 DUP3 ADD DUP1 SLOAD PUSH2 0x2CC SWAP1 PUSH2 0xE92 JUMP JUMPDEST DUP1 PUSH1 0x1F ADD PUSH1 0x20 DUP1 SWAP2 DIV MUL PUSH1 0x20 ADD PUSH1 0x40 MLOAD SWAP1 DUP2 ADD PUSH1 0x40 MSTORE DUP1 SWAP3 SWAP2 SWAP1 DUP2 DUP2 MSTORE PUSH1 0x20 ADD DUP3 DUP1 SLOAD PUSH2 0x2F8 SWAP1 PUSH2 0xE92 JUMP JUMPDEST DUP1 ISZERO PUSH2 0x343 JUMPI DUP1 PUSH1 0x1F LT PUSH2 0x31A JUMPI PUSH2 0x100 DUP1 DUP4 SLOAD DIV MUL DUP4 MSTORE SWAP2 PUSH1 0x20 ADD SWAP2 PUSH2 0x343 JUMP JUMPDEST DUP3 ADD SWAP2 SWAP1 PUSH0 MSTORE PUSH1 0x20 PUSH0 KECCAK256 SWAP1 JUMPDEST DUP2 SLOAD DUP2 MSTORE SWAP1 PUSH1 0x1 ADD SWAP1 PUSH1 0x20 ADD DUP1 DUP4 GT PUSH2 0x326 JUMPI DUP3 SWAP1 SUB PUSH1 0x1F AND DUP3 ADD SWAP2 JUMPDEST POP POP POP POP POP DUP2 MSTORE PUSH1 0x20 ADD PUSH1 0x3 DUP3 ADD DUP1 SLOAD PUSH2 0x35C SWAP1 PUSH2 0xE92 JUMP JUMPDEST DUP1 PUSH1 0x1F ADD PUSH1 0x20 DUP1 SWAP2 DIV MUL PUSH1 0x20 ADD PUSH1 0x40 MLOAD SWAP1 DUP2 ADD PUSH1 0x40 MSTORE DUP1 SWAP3 SWAP2 SWAP1 DUP2 DUP2 MSTORE PUSH1 0x20 ADD DUP3 DUP1 SLOAD PUSH2 0x388 SWAP1 PUSH2 0xE92 JUMP JUMPDEST DUP1 ISZERO PUSH2 0x3D3 JUMPI DUP1 PUSH1 0x1F LT PUSH2 0x3AA JUMPI PUSH2 0x100 DUP1 DUP4 SLOAD DIV MUL DUP4 MSTORE SWAP2 PUSH1 0x20 ADD SWAP2 PUSH2 0x3D3 JUMP JUMPDEST DUP3 ADD SWAP2 SWAP1 PUSH0 MSTORE PUSH1 0x20 PUSH0 KECCAK256 SWAP1 JUMPDEST DUP2 SLOAD DUP2 MSTORE SWAP1 PUSH1 0x1 ADD SWAP1 PUSH1 0x20 ADD DUP1 DUP4 GT PUSH2 0x3B6 JUMPI DUP3 SWAP1 SUB PUSH1 0x1F AND DUP3 ADD SWAP2 JUMPDEST POP POP POP POP POP DUP2 MSTORE PUSH1 0x20 ADD PUSH1 0x4 DUP3 ADD PUSH0 SWAP1 SLOAD SWAP1 PUSH2 0x100 EXP SWAP1 DIV PUSH1 0xFF AND ISZERO ISZERO ISZERO ISZERO DUP2 MSTORE PUSH1 0x20 ADD PUSH1 0x4 DUP3 ADD PUSH1 0x1 SWAP1 SLOAD SWAP1 PUSH2 0x100 EXP SWAP1 DIV PUSH1 0xFF AND ISZERO ISZERO ISZERO ISZERO DUP2 MSTORE PUSH1 0x20 ADD PUSH1 0x4 DUP3 ADD PUSH1 0x2 SWAP1 SLOAD SWAP1 PUSH2 0x100 EXP SWAP1 DIV PUSH1 0xFF AND ISZERO ISZERO ISZERO ISZERO DUP2 MSTORE PUSH1 0x20 ADD PUSH1 0x4 DUP3 ADD PUSH1 0x3 SWAP1 SLOAD SWAP1 PUSH2 0x100 EXP SWAP1 DIV PUSH1 0xFF AND ISZERO ISZERO ISZERO ISZERO DUP2 MSTORE POP POP SWAP1 POP SWAP2 SWAP1 POP JUMP JUMPDEST PUSH1 0x1 PUSH1 0x20 MSTORE DUP1 PUSH0 MSTORE PUSH1 0x40 PUSH0 KECCAK256 PUSH0 SWAP2 POP SWAP1 POP DUP1 PUSH0 ADD DUP1 SLOAD PUSH2 0x46D SWAP1 PUSH2 0xE92 JUMP JUMPDEST DUP1 PUSH1 0x1F ADD PUSH1 0x20 DUP1 SWAP2 DIV MUL PUSH1 0x20 ADD PUSH1 0x40 MLOAD SWAP1 DUP2 ADD PUSH1 0x40 MSTORE DUP1 SWAP3 SWAP2 SWAP1 DUP2 DUP2 MSTORE PUSH1 0x20 ADD DUP3 DUP1 SLOAD PUSH2 0x499 SWAP1 PUSH2 0xE92 JUMP JUMPDEST DUP1 ISZERO PUSH2 0x4E4 JUMPI DUP1 PUSH1 0x1F LT PUSH2 0x4BB JUMPI PUSH2 0x100 DUP1 DUP4 SLOAD DIV MUL DUP4 MSTORE SWAP2 PUSH1 0x20 ADD SWAP2 PUSH2 0x4E4 JUMP JUMPDEST DUP3 ADD SWAP2 SWAP1 PUSH0 MSTORE PUSH1 0x20 PUSH0 KECCAK256 SWAP1 JUMPDEST DUP2 SLOAD DUP2 MSTORE SWAP1 PUSH1 0x1 ADD SWAP1 PUSH1 0x20 ADD DUP1 DUP4 GT PUSH2 0x4C7 JUMPI DUP3 SWAP1 SUB PUSH1 0x1F AND DUP3 ADD SWAP2 JUMPDEST POP POP POP POP POP SWAP1 DUP1 PUSH1 0x1 ADD SLOAD SWAP1 DUP1 PUSH1 0x2 ADD DUP1 SLOAD PUSH2 0x4FF SWAP1 PUSH2 0xE92 JUMP JUMPDEST DUP1 PUSH1 0x1F ADD PUSH1 0x20 DUP1 SWAP2 DIV MUL PUSH1 0x20 ADD PUSH1 0x40 MLOAD SWAP1 DUP2 ADD PUSH1 0x40 MSTORE DUP1 SWAP3 SWAP2 SWAP1 DUP2 DUP2 MSTORE PUSH1 0x20 ADD DUP3 DUP1 SLOAD PUSH2 0x52B SWAP1 PUSH2 0xE92 JUMP JUMPDEST DUP1 ISZERO PUSH2 0x576 JUMPI DUP1 PUSH1 0x1F LT PUSH2 0x54D JUMPI PUSH2 0x100 DUP1 DUP4 SLOAD DIV MUL DUP4 MSTORE SWAP2 PUSH1 0x20 ADD SWAP2 PUSH2 0x576 JUMP JUMPDEST DUP3 ADD SWAP2 SWAP1 PUSH0 MSTORE PUSH1 0x20 PUSH0 KECCAK256 SWAP1 JUMPDEST DUP2 SLOAD DUP2 MSTORE SWAP1 PUSH1 0x1 ADD SWAP1 PUSH1 0x20 ADD DUP1 DUP4 GT PUSH2 0x559 JUMPI DUP3 SWAP1 SUB PUSH1 0x1F AND DUP3 ADD SWAP2 JUMPDEST POP POP POP POP POP SWAP1 DUP1 PUSH1 0x3 ADD DUP1 SLOAD PUSH2 0x58B SWAP1 PUSH2 0xE92 JUMP JUMPDEST DUP1 PUSH1 0x1F ADD PUSH1 0x20 DUP1 SWAP2 DIV MUL PUSH1 0x20 ADD PUSH1 0x40 MLOAD SWAP1 DUP2 ADD PUSH1 0x40 MSTORE DUP1 SWAP3 SWAP2 SWAP1 DUP2 DUP2 MSTORE PUSH1 0x20 ADD DUP3 DUP1 SLOAD PUSH2 0x5B7 SWAP1 PUSH2 0xE92 JUMP JUMPDEST DUP1 ISZERO PUSH2 0x602 JUMPI DUP1 PUSH1 0x1F LT PUSH2 0x5D9 JUMPI PUSH2 0x100 DUP1 DUP4 SLOAD DIV MUL DUP4 MSTORE SWAP2 PUSH1 0x20 ADD SWAP2 PUSH2 0x602 JUMP JUMPDEST DUP3 ADD SWAP2 SWAP1 PUSH0 MSTORE PUSH1 0x20 PUSH0 KECCAK256 SWAP1 JUMPDEST DUP2 SLOAD DUP2 MSTORE SWAP1 PUSH1 0x1 ADD SWAP1 PUSH1 0x20 ADD DUP1 DUP4 GT PUSH2 0x5E5 JUMPI DUP3 SWAP1 SUB PUSH1 0x1F AND DUP3 ADD SWAP2 JUMPDEST POP POP POP POP POP SWAP1 DUP1 PUSH1 0x4 ADD PUSH0 SWAP1 SLOAD SWAP1 PUSH2 0x100 EXP SWAP1 DIV PUSH1 0xFF AND SWAP1 DUP1 PUSH1 0x4 ADD PUSH1 0x1 SWAP1 SLOAD SWAP1 PUSH2 0x100 EXP SWAP1 DIV PUSH1 0xFF AND SWAP1 DUP1 PUSH1 0x4 ADD PUSH1 0x2 SWAP1 SLOAD SWAP1 PUSH2 0x100 EXP SWAP1 DIV PUSH1 0xFF AND SWAP1 DUP1 PUSH1 0x4 ADD PUSH1 0x3 SWAP1 SLOAD SWAP1 PUSH2 0x100 EXP SWAP1 DIV PUSH1 0xFF AND SWAP1 POP DUP9 JUMP JUMPDEST PUSH1 0x2 PUSH0 DUP2 SLOAD DUP1 SWAP3 SWAP2 SWAP1 PUSH2 0x669 SWAP1 PUSH2 0x115E JUMP JUMPDEST SWAP2 SWAP1 POP SSTORE POP PUSH1 0x40 MLOAD DUP1 PUSH2 0x100 ADD PUSH1 0x40 MSTORE DUP1 DUP4 DUP2 MSTORE PUSH1 0x20 ADD DUP3 DUP2 MSTORE PUSH1 0x20 ADD PUSH1 0x40 MLOAD DUP1 PUSH1 0x40 ADD PUSH1 0x40 MSTORE DUP1 PUSH1 0xF DUP2 MSTORE PUSH1 0x20 ADD PUSH32 0x546F206265206576616C75617465640000000000000000000000000000000000 DUP2 MSTORE POP DUP2 MSTORE PUSH1 0x20 ADD PUSH1 0x40 MLOAD DUP1 PUSH1 0x40 ADD PUSH1 0x40 MSTORE DUP1 PUSH1 0xE DUP2 MSTORE PUSH1 0x20 ADD PUSH32 0x546F2062652061737369676E6564000000000000000000000000000000000000 DUP2 MSTORE POP DUP2 MSTORE PUSH1 0x20 ADD PUSH0 ISZERO ISZERO DUP2 MSTORE PUSH1 0x20 ADD PUSH0 ISZERO ISZERO DUP2 MSTORE PUSH1 0x20 ADD PUSH0 ISZERO ISZERO DUP2 MSTORE PUSH1 0x20 ADD PUSH0 ISZERO ISZERO DUP2 MSTORE POP PUSH1 0x1 PUSH0 PUSH1 0x2 SLOAD DUP2 MSTORE PUSH1 0x20 ADD SWAP1 DUP2 MSTORE PUSH1 0x20 ADD PUSH0 KECCAK256 PUSH0 DUP3 ADD MLOAD DUP2 PUSH0 ADD SWAP1 DUP2 PUSH2 0x740 SWAP2 SWAP1 PUSH2 0x1062 JUMP JUMPDEST POP PUSH1 0x20 DUP3 ADD MLOAD DUP2 PUSH1 0x1 ADD SSTORE PUSH1 0x40 DUP3 ADD MLOAD DUP2 PUSH1 0x2 ADD SWAP1 DUP2 PUSH2 0x760 SWAP2 SWAP1 PUSH2 0x1062 JUMP JUMPDEST POP PUSH1 0x60 DUP3 ADD MLOAD DUP2 PUSH1 0x3 ADD SWAP1 DUP2 PUSH2 0x776 SWAP2 SWAP1 PUSH2 0x1062 JUMP JUMPDEST POP PUSH1 0x80 DUP3 ADD MLOAD DUP2 PUSH1 0x4 ADD PUSH0 PUSH2 0x100 EXP DUP2 SLOAD DUP2 PUSH1 0xFF MUL NOT AND SWAP1 DUP4 ISZERO ISZERO MUL OR SWAP1 SSTORE POP PUSH1 0xA0 DUP3 ADD MLOAD DUP2 PUSH1 0x4 ADD PUSH1 0x1 PUSH2 0x100 EXP DUP2 SLOAD DUP2 PUSH1 0xFF MUL NOT AND SWAP1 DUP4 ISZERO ISZERO MUL OR SWAP1 SSTORE POP PUSH1 0xC0 DUP3 ADD MLOAD DUP2 PUSH1 0x4 ADD PUSH1 0x2 PUSH2 0x100 EXP DUP2 SLOAD DUP2 PUSH1 0xFF MUL NOT AND SWAP1 DUP4 ISZERO ISZERO MUL OR SWAP1 SSTORE POP PUSH1 0xE0 DUP3 ADD MLOAD DUP2 PUSH1 0x4 ADD PUSH1 0x3 PUSH2 0x100 EXP DUP2 SLOAD DUP2 PUSH1 0xFF MUL NOT AND SWAP1 DUP4 ISZERO ISZERO MUL OR SWAP1 SSTORE POP SWAP1 POP POP POP POP JUMP JUMPDEST PUSH1 0x40 MLOAD DUP1 PUSH2 0x100 ADD PUSH1 0x40 MSTORE DUP1 PUSH1 0x60 DUP2 MSTORE PUSH1 0x20 ADD PUSH0 DUP2 MSTORE PUSH1 0x20 ADD PUSH1 0x60 DUP2 MSTORE PUSH1 0x20 ADD PUSH1 0x60 DUP2 MSTORE PUSH1 0x20 ADD PUSH0 ISZERO ISZERO DUP2 MSTORE PUSH1 0x20 ADD PUSH0 ISZERO ISZERO DUP2 MSTORE PUSH1 0x20 ADD PUSH0 ISZERO ISZERO DUP2 MSTORE PUSH1 0x20 ADD PUSH0 ISZERO ISZERO DUP2 MSTORE POP SWAP1 JUMP JUMPDEST PUSH0 DUP2 SWAP1 POP SWAP2 SWAP1 POP JUMP JUMPDEST PUSH2 0x857 DUP2 PUSH2 0x845 JUMP JUMPDEST DUP3 MSTORE POP POP JUMP JUMPDEST PUSH0 PUSH1 0x20 DUP3 ADD SWAP1 POP PUSH2 0x870 PUSH0 DUP4 ADD DUP5 PUSH2 0x84E JUMP JUMPDEST SWAP3 SWAP2 POP POP JUMP JUMPDEST PUSH0 PUSH1 0x40 MLOAD SWAP1 POP SWAP1 JUMP JUMPDEST PUSH0 PUSH0 REVERT JUMPDEST PUSH0 PUSH0 REVERT JUMPDEST PUSH2 0x890 DUP2 PUSH2 0x845 JUMP JUMPDEST DUP2 EQ PUSH2 0x89A JUMPI PUSH0 PUSH0 REVERT JUMPDEST POP JUMP JUMPDEST PUSH0 DUP2 CALLDATALOAD SWAP1 POP PUSH2 0x8AB DUP2 PUSH2 0x887 JUMP JUMPDEST SWAP3 SWAP2 POP POP JUMP JUMPDEST PUSH0 PUSH0 REVERT JUMPDEST PUSH0 PUSH1 0x1F NOT PUSH1 0x1F DUP4 ADD AND SWAP1 POP SWAP2 SWAP1 POP JUMP JUMPDEST PUSH32 0x4E487B7100000000000000000000000000000000000000000000000000000000 PUSH0 MSTORE PUSH1 0x41 PUSH1 0x4 MSTORE PUSH1 0x24 PUSH0 REVERT JUMPDEST PUSH2 0x8FB DUP3 PUSH2 0x8B5 JUMP JUMPDEST DUP2 ADD DUP2 DUP2 LT PUSH8 0xFFFFFFFFFFFFFFFF DUP3 GT OR ISZERO PUSH2 0x91A JUMPI PUSH2 0x919 PUSH2 0x8C5 JUMP JUMPDEST JUMPDEST DUP1 PUSH1 0x40 MSTORE POP POP POP JUMP JUMPDEST PUSH0 PUSH2 0x92C PUSH2 0x876 JUMP JUMPDEST SWAP1 POP PUSH2 0x938 DUP3 DUP3 PUSH2 0x8F2 JUMP JUMPDEST SWAP2 SWAP1 POP JUMP JUMPDEST PUSH0 PUSH0 REVERT JUMPDEST PUSH0 PUSH0 REVERT JUMPDEST PUSH0 PUSH0 REVERT JUMPDEST PUSH0 PUSH8 0xFFFFFFFFFFFFFFFF DUP3 GT ISZERO PUSH2 0x963 JUMPI PUSH2 0x962 PUSH2 0x8C5 JUMP JUMPDEST JUMPDEST PUSH2 0x96C DUP3 PUSH2 0x8B5 JUMP JUMPDEST SWAP1 POP PUSH1 0x20 DUP2 ADD SWAP1 POP SWAP2 SWAP1 POP JUMP JUMPDEST DUP3 DUP2 DUP4 CALLDATACOPY PUSH0 DUP4 DUP4 ADD MSTORE POP POP POP JUMP JUMPDEST PUSH0 PUSH2 0x999 PUSH2 0x994 DUP5 PUSH2 0x949 JUMP JUMPDEST PUSH2 0x923 JUMP JUMPDEST SWAP1 POP DUP3 DUP2 MSTORE PUSH1 0x20 DUP2 ADD DUP5 DUP5 DUP5 ADD GT ISZERO PUSH2 0x9B5 JUMPI PUSH2 0x9B4 PUSH2 0x945 JUMP JUMPDEST JUMPDEST PUSH2 0x9C0 DUP5 DUP3 DUP6 PUSH2 0x979 JUMP JUMPDEST POP SWAP4 SWAP3 POP POP POP JUMP JUMPDEST PUSH0 DUP3 PUSH1 0x1F DUP4 ADD SLT PUSH2 0x9DC JUMPI PUSH2 0x9DB PUSH2 0x941 JUMP JUMPDEST JUMPDEST DUP2 CALLDATALOAD PUSH2 0x9EC DUP5 DUP3 PUSH1 0x20 DUP7 ADD PUSH2 0x987 JUMP JUMPDEST SWAP2 POP POP SWAP3 SWAP2 POP POP JUMP JUMPDEST PUSH0 DUP2 ISZERO ISZERO SWAP1 POP SWAP2 SWAP1 POP JUMP JUMPDEST PUSH2 0xA09 DUP2 PUSH2 0x9F5 JUMP JUMPDEST DUP2 EQ PUSH2 0xA13 JUMPI PUSH0 PUSH0 REVERT JUMPDEST POP JUMP JUMPDEST PUSH0 DUP2 CALLDATALOAD SWAP1 POP PUSH2 0xA24 DUP2 PUSH2 0xA00 JUMP JUMPDEST SWAP3 SWAP2 POP POP JUMP JUMPDEST PUSH0 PUSH2 0x100 DUP3 DUP5 SUB SLT ISZERO PUSH2 0xA40 JUMPI PUSH2 0xA3F PUSH2 0x8B1 JUMP JUMPDEST JUMPDEST PUSH2 0xA4B PUSH2 0x100 PUSH2 0x923 JUMP JUMPDEST SWAP1 POP PUSH0 DUP3 ADD CALLDATALOAD PUSH8 0xFFFFFFFFFFFFFFFF DUP2 GT ISZERO PUSH2 0xA6A JUMPI PUSH2 0xA69 PUSH2 0x93D JUMP JUMPDEST JUMPDEST PUSH2 0xA76 DUP5 DUP3 DUP6 ADD PUSH2 0x9C8 JUMP JUMPDEST PUSH0 DUP4 ADD MSTORE POP PUSH1 0x20 PUSH2 0xA89 DUP5 DUP3 DUP6 ADD PUSH2 0x89D JUMP JUMPDEST PUSH1 0x20 DUP4 ADD MSTORE POP PUSH1 0x40 DUP3 ADD CALLDATALOAD PUSH8 0xFFFFFFFFFFFFFFFF DUP2 GT ISZERO PUSH2 0xAAD JUMPI PUSH2 0xAAC PUSH2 0x93D JUMP JUMPDEST JUMPDEST PUSH2 0xAB9 DUP5 DUP3 DUP6 ADD PUSH2 0x9C8 JUMP JUMPDEST PUSH1 0x40 DUP4 ADD MSTORE POP PUSH1 0x60 DUP3 ADD CALLDATALOAD PUSH8 0xFFFFFFFFFFFFFFFF DUP2 GT ISZERO PUSH2 0xADD JUMPI PUSH2 0xADC PUSH2 0x93D JUMP JUMPDEST JUMPDEST PUSH2 0xAE9 DUP5 DUP3 DUP6 ADD PUSH2 0x9C8 JUMP JUMPDEST PUSH1 0x60 DUP4 ADD MSTORE POP PUSH1 0x80 PUSH2 0xAFD DUP5 DUP3 DUP6 ADD PUSH2 0xA16 JUMP JUMPDEST PUSH1 0x80 DUP4 ADD MSTORE POP PUSH1 0xA0 PUSH2 0xB11 DUP5 DUP3 DUP6 ADD PUSH2 0xA16 JUMP JUMPDEST PUSH1 0xA0 DUP4 ADD MSTORE POP PUSH1 0xC0 PUSH2 0xB25 DUP5 DUP3 DUP6 ADD PUSH2 0xA16 JUMP JUMPDEST PUSH1 0xC0 DUP4 ADD MSTORE POP PUSH1 0xE0 PUSH2 0xB39 DUP5 DUP3 DUP6 ADD PUSH2 0xA16 JUMP JUMPDEST PUSH1 0xE0 DUP4 ADD MSTORE POP SWAP3 SWAP2 POP POP JUMP JUMPDEST PUSH0 PUSH0 PUSH1 0x40 DUP4 DUP6 SUB SLT ISZERO PUSH2 0xB5B JUMPI PUSH2 0xB5A PUSH2 0x87F JUMP JUMPDEST JUMPDEST PUSH0 PUSH2 0xB68 DUP6 DUP3 DUP7 ADD PUSH2 0x89D JUMP JUMPDEST SWAP3 POP POP PUSH1 0x20 DUP4 ADD CALLDATALOAD PUSH8 0xFFFFFFFFFFFFFFFF DUP2 GT ISZERO PUSH2 0xB89 JUMPI PUSH2 0xB88 PUSH2 0x883 JUMP JUMPDEST JUMPDEST PUSH2 0xB95 DUP6 DUP3 DUP7 ADD PUSH2 0xA2A JUMP JUMPDEST SWAP2 POP POP SWAP3 POP SWAP3 SWAP1 POP JUMP JUMPDEST PUSH0 PUSH1 0x20 DUP3 DUP5 SUB SLT ISZERO PUSH2 0xBB4 JUMPI PUSH2 0xBB3 PUSH2 0x87F JUMP JUMPDEST JUMPDEST PUSH0 PUSH2 0xBC1 DUP5 DUP3 DUP6 ADD PUSH2 0x89D JUMP JUMPDEST SWAP2 POP POP SWAP3 SWAP2 POP POP JUMP JUMPDEST PUSH0 DUP2 MLOAD SWAP1 POP SWAP2 SWAP1 POP JUMP JUMPDEST PUSH0 DUP3 DUP3 MSTORE PUSH1 0x20 DUP3 ADD SWAP1 POP SWAP3 SWAP2 POP POP JUMP JUMPDEST DUP3 DUP2 DUP4 MCOPY PUSH0 DUP4 DUP4 ADD MSTORE POP POP POP JUMP JUMPDEST PUSH0 PUSH2 0xBFC DUP3 PUSH2 0xBCA JUMP JUMPDEST PUSH2 0xC06 DUP2 DUP6 PUSH2 0xBD4 JUMP JUMPDEST SWAP4 POP PUSH2 0xC16 DUP2 DUP6 PUSH1 0x20 DUP7 ADD PUSH2 0xBE4 JUMP JUMPDEST PUSH2 0xC1F DUP2 PUSH2 0x8B5 JUMP JUMPDEST DUP5 ADD SWAP2 POP POP SWAP3 SWAP2 POP POP JUMP JUMPDEST PUSH2 0xC33 DUP2 PUSH2 0x845 JUMP JUMPDEST DUP3 MSTORE POP POP JUMP JUMPDEST PUSH2 0xC42 DUP2 PUSH2 0x9F5 JUMP JUMPDEST DUP3 MSTORE POP POP JUMP JUMPDEST PUSH0 PUSH2 0x100 DUP4 ADD PUSH0 DUP4 ADD MLOAD DUP5 DUP3 SUB PUSH0 DUP7 ADD MSTORE PUSH2 0xC63 DUP3 DUP3 PUSH2 0xBF2 JUMP JUMPDEST SWAP2 POP POP PUSH1 0x20 DUP4 ADD MLOAD PUSH2 0xC78 PUSH1 0x20 DUP7 ADD DUP3 PUSH2 0xC2A JUMP JUMPDEST POP PUSH1 0x40 DUP4 ADD MLOAD DUP5 DUP3 SUB PUSH1 0x40 DUP7 ADD MSTORE PUSH2 0xC90 DUP3 DUP3 PUSH2 0xBF2 JUMP JUMPDEST SWAP2 POP POP PUSH1 0x60 DUP4 ADD MLOAD DUP5 DUP3 SUB PUSH1 0x60 DUP7 ADD MSTORE PUSH2 0xCAA DUP3 DUP3 PUSH2 0xBF2 JUMP JUMPDEST SWAP2 POP POP PUSH1 0x80 DUP4 ADD MLOAD PUSH2 0xCBF PUSH1 0x80 DUP7 ADD DUP3 PUSH2 0xC39 JUMP JUMPDEST POP PUSH1 0xA0 DUP4 ADD MLOAD PUSH2 0xCD2 PUSH1 0xA0 DUP7 ADD DUP3 PUSH2 0xC39 JUMP JUMPDEST POP PUSH1 0xC0 DUP4 ADD MLOAD PUSH2 0xCE5 PUSH1 0xC0 DUP7 ADD DUP3 PUSH2 0xC39 JUMP JUMPDEST POP PUSH1 0xE0 DUP4 ADD MLOAD PUSH2 0xCF8 PUSH1 0xE0 DUP7 ADD DUP3 PUSH2 0xC39 JUMP JUMPDEST POP DUP1 SWAP2 POP POP SWAP3 SWAP2 POP POP JUMP JUMPDEST PUSH0 PUSH1 0x20 DUP3 ADD SWAP1 POP DUP2 DUP2 SUB PUSH0 DUP4 ADD MSTORE PUSH2 0xD1B DUP2 DUP5 PUSH2 0xC48 JUMP JUMPDEST SWAP1 POP SWAP3 SWAP2 POP POP JUMP JUMPDEST PUSH0 DUP3 DUP3 MSTORE PUSH1 0x20 DUP3 ADD SWAP1 POP SWAP3 SWAP2 POP POP JUMP JUMPDEST PUSH0 PUSH2 0xD3D DUP3 PUSH2 0xBCA JUMP JUMPDEST PUSH2 0xD47 DUP2 DUP6 PUSH2 0xD23 JUMP JUMPDEST SWAP4 POP PUSH2 0xD57 DUP2 DUP6 PUSH1 0x20 DUP7 ADD PUSH2 0xBE4 JUMP JUMPDEST PUSH2 0xD60 DUP2 PUSH2 0x8B5 JUMP JUMPDEST DUP5 ADD SWAP2 POP POP SWAP3 SWAP2 POP POP JUMP JUMPDEST PUSH2 0xD74 DUP2 PUSH2 0x9F5 JUMP JUMPDEST DUP3 MSTORE POP POP JUMP JUMPDEST PUSH0 PUSH2 0x100 DUP3 ADD SWAP1 POP DUP2 DUP2 SUB PUSH0 DUP4 ADD MSTORE PUSH2 0xD93 DUP2 DUP12 PUSH2 0xD33 JUMP JUMPDEST SWAP1 POP PUSH2 0xDA2 PUSH1 0x20 DUP4 ADD DUP11 PUSH2 0x84E JUMP JUMPDEST DUP2 DUP2 SUB PUSH1 0x40 DUP4 ADD MSTORE PUSH2 0xDB4 DUP2 DUP10 PUSH2 0xD33 JUMP JUMPDEST SWAP1 POP DUP2 DUP2 SUB PUSH1 0x60 DUP4 ADD MSTORE PUSH2 0xDC8 DUP2 DUP9 PUSH2 0xD33 JUMP JUMPDEST SWAP1 POP PUSH2 0xDD7 PUSH1 0x80 DUP4 ADD DUP8 PUSH2 0xD6B JUMP JUMPDEST PUSH2 0xDE4 PUSH1 0xA0 DUP4 ADD DUP7 PUSH2 0xD6B JUMP JUMPDEST PUSH2 0xDF1 PUSH1 0xC0 DUP4 ADD DUP6 PUSH2 0xD6B JUMP JUMPDEST PUSH2 0xDFE PUSH1 0xE0 DUP4 ADD DUP5 PUSH2 0xD6B JUMP JUMPDEST SWAP10 SWAP9 POP POP POP POP POP POP POP POP POP JUMP JUMPDEST PUSH0 PUSH0 PUSH1 0x40 DUP4 DUP6 SUB SLT ISZERO PUSH2 0xE21 JUMPI PUSH2 0xE20 PUSH2 0x87F JUMP JUMPDEST JUMPDEST PUSH0 DUP4 ADD CALLDATALOAD PUSH8 0xFFFFFFFFFFFFFFFF DUP2 GT ISZERO PUSH2 0xE3E JUMPI PUSH2 0xE3D PUSH2 0x883 JUMP JUMPDEST JUMPDEST PUSH2 0xE4A DUP6 DUP3 DUP7 ADD PUSH2 0x9C8 JUMP JUMPDEST SWAP3 POP POP PUSH1 0x20 PUSH2 0xE5B DUP6 DUP3 DUP7 ADD PUSH2 0x89D JUMP JUMPDEST SWAP2 POP POP SWAP3 POP SWAP3 SWAP1 POP JUMP JUMPDEST PUSH32 0x4E487B7100000000000000000000000000000000000000000000000000000000 PUSH0 MSTORE PUSH1 0x22 PUSH1 0x4 MSTORE PUSH1 0x24 PUSH0 REVERT JUMPDEST PUSH0 PUSH1 0x2 DUP3 DIV SWAP1 POP PUSH1 0x1 DUP3 AND DUP1 PUSH2 0xEA9 JUMPI PUSH1 0x7F DUP3 AND SWAP2 POP JUMPDEST PUSH1 0x20 DUP3 LT DUP2 SUB PUSH2 0xEBC JUMPI PUSH2 0xEBB PUSH2 0xE65 JUMP JUMPDEST JUMPDEST POP SWAP2 SWAP1 POP JUMP JUMPDEST PUSH0 DUP2 SWAP1 POP DUP2 PUSH0 MSTORE PUSH1 0x20 PUSH0 KECCAK256 SWAP1 POP SWAP2 SWAP1 POP JUMP JUMPDEST PUSH0 PUSH1 0x20 PUSH1 0x1F DUP4 ADD DIV SWAP1 POP SWAP2 SWAP1 POP JUMP JUMPDEST PUSH0 DUP3 DUP3 SHL SWAP1 POP SWAP3 SWAP2 POP POP JUMP JUMPDEST PUSH0 PUSH1 0x8 DUP4 MUL PUSH2 0xF1E PUSH32 0xFFFFFFFFFFFFFFFFFFFFFFFFFFFFFFFFFFFFFFFFFFFFFFFFFFFFFFFFFFFFFFFF DUP3 PUSH2 0xEE3 JUMP JUMPDEST PUSH2 0xF28 DUP7 DUP4 PUSH2 0xEE3 JUMP JUMPDEST SWAP6 POP DUP1 NOT DUP5 AND SWAP4 POP DUP1 DUP7 AND DUP5 OR SWAP3 POP POP POP SWAP4 SWAP3 POP POP POP JUMP JUMPDEST PUSH0 DUP2 SWAP1 POP SWAP2 SWAP1 POP JUMP JUMPDEST PUSH0 PUSH2 0xF63 PUSH2 0xF5E PUSH2 0xF59 DUP5 PUSH2 0x845 JUMP JUMPDEST PUSH2 0xF40 JUMP JUMPDEST PUSH2 0x845 JUMP JUMPDEST SWAP1 POP SWAP2 SWAP1 POP JUMP JUMPDEST PUSH0 DUP2 SWAP1 POP SWAP2 SWAP1 POP JUMP JUMPDEST PUSH2 0xF7C DUP4 PUSH2 0xF49 JUMP JUMPDEST PUSH2 0xF90 PUSH2 0xF88 DUP3 PUSH2 0xF6A JUMP JUMPDEST DUP5 DUP5 SLOAD PUSH2 0xEEF JUMP JUMPDEST DUP3 SSTORE POP POP POP POP JUMP JUMPDEST PUSH0 PUSH0 SWAP1 POP SWAP1 JUMP JUMPDEST PUSH2 0xFA7 PUSH2 0xF98 JUMP JUMPDEST PUSH2 0xFB2 DUP2 DUP5 DUP5 PUSH2 0xF73 JUMP JUMPDEST POP POP POP JUMP JUMPDEST JUMPDEST DUP2 DUP2 LT ISZERO PUSH2 0xFD5 JUMPI PUSH2 0xFCA PUSH0 DUP3 PUSH2 0xF9F JUMP JUMPDEST PUSH1 0x1 DUP2 ADD SWAP1 POP PUSH2 0xFB8 JUMP JUMPDEST POP POP JUMP JUMPDEST PUSH1 0x1F DUP3 GT ISZERO PUSH2 0x101A JUMPI PUSH2 0xFEB DUP2 PUSH2 0xEC2 JUMP JUMPDEST PUSH2 0xFF4 DUP5 PUSH2 0xED4 JUMP JUMPDEST DUP2 ADD PUSH1 0x20 DUP6 LT ISZERO PUSH2 0x1003 JUMPI DUP2 SWAP1 POP JUMPDEST PUSH2 0x1017 PUSH2 0x100F DUP6 PUSH2 0xED4 JUMP JUMPDEST DUP4 ADD DUP3 PUSH2 0xFB7 JUMP JUMPDEST POP POP JUMPDEST POP POP POP JUMP JUMPDEST PUSH0 DUP3 DUP3 SHR SWAP1 POP SWAP3 SWAP2 POP POP JUMP JUMPDEST PUSH0 PUSH2 0x103A PUSH0 NOT DUP5 PUSH1 0x8 MUL PUSH2 0x101F JUMP JUMPDEST NOT DUP1 DUP4 AND SWAP2 POP POP SWAP3 SWAP2 POP POP JUMP JUMPDEST PUSH0 PUSH2 0x1052 DUP4 DUP4 PUSH2 0x102B JUMP JUMPDEST SWAP2 POP DUP3 PUSH1 0x2 MUL DUP3 OR SWAP1 POP SWAP3 SWAP2 POP POP JUMP JUMPDEST PUSH2 0x106B DUP3 PUSH2 0xBCA JUMP JUMPDEST PUSH8 0xFFFFFFFFFFFFFFFF DUP2 GT ISZERO PUSH2 0x1084 JUMPI PUSH2 0x1083 PUSH2 0x8C5 JUMP JUMPDEST JUMPDEST PUSH2 0x108E DUP3 SLOAD PUSH2 0xE92 JUMP JUMPDEST PUSH2 0x1099 DUP3 DUP3 DUP6 PUSH2 0xFD9 JUMP JUMPDEST PUSH0 PUSH1 0x20 SWAP1 POP PUSH1 0x1F DUP4 GT PUSH1 0x1 DUP2 EQ PUSH2 0x10CA JUMPI PUSH0 DUP5 ISZERO PUSH2 0x10B8 JUMPI DUP3 DUP8 ADD MLOAD SWAP1 POP JUMPDEST PUSH2 0x10C2 DUP6 DUP3 PUSH2 0x1047 JUMP JUMPDEST DUP7 SSTORE POP PUSH2 0x1129 JUMP JUMPDEST PUSH1 0x1F NOT DUP5 AND PUSH2 0x10D8 DUP7 PUSH2 0xEC2 JUMP JUMPDEST PUSH0 JUMPDEST DUP3 DUP2 LT ISZERO PUSH2 0x10FF JUMPI DUP5 DUP10 ADD MLOAD DUP3 SSTORE PUSH1 0x1 DUP3 ADD SWAP2 POP PUSH1 0x20 DUP6 ADD SWAP5 POP PUSH1 0x20 DUP2 ADD SWAP1 POP PUSH2 0x10DA JUMP JUMPDEST DUP7 DUP4 LT ISZERO PUSH2 0x111C JUMPI DUP5 DUP10 ADD MLOAD PUSH2 0x1118 PUSH1 0x1F DUP10 AND DUP3 PUSH2 0x102B JUMP JUMPDEST DUP4 SSTORE POP JUMPDEST PUSH1 0x1 PUSH1 0x2 DUP9 MUL ADD DUP9 SSTORE POP POP POP JUMPDEST POP POP POP POP POP POP JUMP JUMPDEST PUSH32 0x4E487B7100000000000000000000000000000000000000000000000000000000 PUSH0 MSTORE PUSH1 0x11 PUSH1 0x4 MSTORE PUSH1 0x24 PUSH0 REVERT JUMPDEST PUSH0 PUSH2 0x1168 DUP3 PUSH2 0x845 JUMP JUMPDEST SWAP2 POP PUSH32 0xFFFFFFFFFFFFFFFFFFFFFFFFFFFFFFFFFFFFFFFFFFFFFFFFFFFFFFFFFFFFFFFF DUP3 SUB PUSH2 0x119A JUMPI PUSH2 0x1199 PUSH2 0x1131 JUMP JUMPDEST JUMPDEST PUSH1 0x1 DUP3 ADD SWAP1 POP SWAP2 SWAP1 POP JUMP INVALID LOG2 PUSH5 0x6970667358 0x22 SLT KECCAK256 TIMESTAMP SWAP14 PUSH1 0x74 0xF6 PUSH26 0x5D4AE62F39DA76ED0BBEF5F63FCBA5B8197ADECB8090C15BF1A4 PUSH5 0x736F6C6343 STOP ADDMOD 0x1E STOP CALLER "
				},
				"gasEstimates": {
					"creation": {
						"codeDepositCost": "914200",
						"executionCost": "25210",
						"totalCost": "939410"
					},
					"external": {
						"createOrgan(string,uint256)": "infinite",
						"getOrgan(uint256)": "infinite",
						"organCount()": "2403",
						"organs(uint256)": "infinite",
						"updateOrgan(uint256,(string,uint256,string,string,bool,bool,bool,bool))": "infinite"
					}
				},
				"methodIdentifiers": {
					"createOrgan(string,uint256)": "8af88a5c",
					"getOrgan(uint256)": "10742b51",
					"organCount()": "098809d7",
					"organs(uint256)": "4fbd241d",
					"updateOrgan(uint256,(string,uint256,string,string,bool,bool,bool,bool))": "0d47dd26"
				}
			},
			"storageLayout": {
				"storage": [
					{
						"astId": 20,
						"contract": "OrganCreateContract.sol:TokenCreateContract",
						"label": "owner",
						"offset": 0,
						"slot": "0",
						"type": "t_address"
					},
					{
						"astId": 25,
						"contract": "OrganCreateContract.sol:TokenCreateContract",
						"label": "organs",
						"offset": 0,
						"slot": "1",
						"type": "t_mapping(t_uint256,t_struct(OrganId)18_storage)"
					},
					{
						"astId": 27,
						"contract": "OrganCreateContract.sol:TokenCreateContract",
						"label": "organCount",
						"offset": 0,
						"slot": "2",
						"type": "t_uint256"
					}
				],
				"types": {
					"t_address": {
						"encoding": "inplace",
						"label": "address",
						"numberOfBytes": "20"
					},
					"t_bool": {
						"encoding": "inplace",
						"label": "bool",
						"numberOfBytes": "1"
					},
					"t_mapping(t_uint256,t_struct(OrganId)18_storage)": {
						"encoding": "mapping",
						"key": "t_uint256",
						"label": "mapping(uint256 => struct TokenCreateContract.OrganId)",
						"numberOfBytes": "32",
						"value": "t_struct(OrganId)18_storage"
					},
					"t_string_storage": {
						"encoding": "bytes",
						"label": "string",
						"numberOfBytes": "32"
					},
					"t_struct(OrganId)18_storage": {
						"encoding": "inplace",
						"label": "struct TokenCreateContract.OrganId",
						"members": [
							{
								"astId": 3,
								"contract": "OrganCreateContract.sol:TokenCreateContract",
								"label": "donerName",
								"offset": 0,
								"slot": "0",
								"type": "t_string_storage"
							},
							{
								"astId": 5,
								"contract": "OrganCreateContract.sol:TokenCreateContract",
								"label": "dateDonated",
								"offset": 0,
								"slot": "1",
								"type": "t_uint256"
							},
							{
								"astId": 7,
								"contract": "OrganCreateContract.sol:TokenCreateContract",
								"label": "condition",
								"offset": 0,
								"slot": "2",
								"type": "t_string_storage"
							},
							{
								"astId": 9,
								"contract": "OrganCreateContract.sol:TokenCreateContract",
								"label": "donatedTo",
								"offset": 0,
								"slot": "3",
								"type": "t_string_storage"
							},
							{
								"astId": 11,
								"contract": "OrganCreateContract.sol:TokenCreateContract",
								"label": "isConsented",
								"offset": 0,
								"slot": "4",
								"type": "t_bool"
							},
							{
								"astId": 13,
								"contract": "OrganCreateContract.sol:TokenCreateContract",
								"label": "isEvaluated",
								"offset": 1,
								"slot": "4",
								"type": "t_bool"
							},
							{
								"astId": 15,
								"contract": "OrganCreateContract.sol:TokenCreateContract",
								"label": "isStored",
								"offset": 2,
								"slot": "4",
								"type": "t_bool"
							},
							{
								"astId": 17,
								"contract": "OrganCreateContract.sol:TokenCreateContract",
								"label": "isAssigned",
								"offset": 3,
								"slot": "4",
								"type": "t_bool"
							}
						],
						"numberOfBytes": "160"
					},
					"t_uint256": {
						"encoding": "inplace",
						"label": "uint256",
						"numberOfBytes": "32"
					}
				}
			},
			"userdoc": {
				"kind": "user",
				"methods": {},
				"version": 1
			}
		}
	}
}