{
	"OrganCreateContract.sol": {
		"TokenCreateContract": {
			"abi": [
				{
					"inputs": [],
					"stateMutability": "nonpayable",
					"type": "constructor"
				},
				{
					"anonymous": false,
					"inputs": [
						{
							"indexed": false,
							"internalType": "string",
							"name": "donor",
							"type": "string"
						},
						{
							"indexed": false,
							"internalType": "uint256",
							"name": "date",
							"type": "uint256"
						},
						{
							"indexed": false,
							"internalType": "string",
							"name": "condition",
							"type": "string"
						},
						{
							"indexed": false,
							"internalType": "string",
							"name": "donatedTo",
							"type": "string"
						},
						{
							"indexed": false,
							"internalType": "bool",
							"name": "isConsented",
							"type": "bool"
						},
						{
							"indexed": false,
							"internalType": "bool",
							"name": "isEvaluated",
							"type": "bool"
						},
						{
							"indexed": false,
							"internalType": "bool",
							"name": "isStored",
							"type": "bool"
						},
						{
							"indexed": false,
							"internalType": "bool",
							"name": "isAssigned",
							"type": "bool"
						}
					],
					"name": "organIdCreated",
					"type": "event"
				},
				{
					"anonymous": false,
					"inputs": [
						{
							"indexed": false,
							"internalType": "uint256",
							"name": "requestId",
							"type": "uint256"
						},
						{
							"indexed": false,
							"internalType": "string",
							"name": "patient",
							"type": "string"
						}
					],
					"name": "requestApproved",
					"type": "event"
				},
				{
					"anonymous": false,
					"inputs": [
						{
							"indexed": false,
							"internalType": "string",
							"name": "patient",
							"type": "string"
						},
						{
							"indexed": false,
							"internalType": "bool",
							"name": "isApproved",
							"type": "bool"
						}
					],
					"name": "requestIdCreated",
					"type": "event"
				},
				{
					"inputs": [
						{
							"internalType": "uint256",
							"name": "_id",
							"type": "uint256"
						},
						{
							"components": [
								{
									"internalType": "string",
									"name": "patientName",
									"type": "string"
								},
								{
									"internalType": "bool",
									"name": "isApproved",
									"type": "bool"
								}
							],
							"internalType": "struct TokenCreateContract.RequestId",
							"name": "_request",
							"type": "tuple"
						}
					],
					"name": "approveRequest",
					"outputs": [],
					"stateMutability": "nonpayable",
					"type": "function"
				},
				{
					"inputs": [],
					"name": "availableOrgan",
					"outputs": [
						{
							"internalType": "uint256",
							"name": "",
							"type": "uint256"
						}
					],
					"stateMutability": "view",
					"type": "function"
				},
				{
					"inputs": [
						{
							"internalType": "string",
							"name": "_donorName",
							"type": "string"
						},
						{
							"internalType": "uint256",
							"name": "_date",
							"type": "uint256"
						}
					],
					"name": "createOrgan",
					"outputs": [],
					"stateMutability": "nonpayable",
					"type": "function"
				},
				{
					"inputs": [
						{
							"internalType": "string",
							"name": "patientName",
							"type": "string"
						},
						{
							"internalType": "bool",
							"name": "approved",
							"type": "bool"
						}
					],
					"name": "createRequest",
					"outputs": [],
					"stateMutability": "nonpayable",
					"type": "function"
				},
				{
					"inputs": [],
					"name": "getAvailableOrganCount",
					"outputs": [
						{
							"internalType": "uint256",
							"name": "count",
							"type": "uint256"
						}
					],
					"stateMutability": "view",
					"type": "function"
				},
				{
					"inputs": [
						{
							"internalType": "uint256",
							"name": "_id",
							"type": "uint256"
						}
					],
					"name": "getOrgan",
					"outputs": [
						{
							"components": [
								{
									"internalType": "string",
									"name": "donorName",
									"type": "string"
								},
								{
									"internalType": "uint256",
									"name": "dateDonated",
									"type": "uint256"
								},
								{
									"internalType": "string",
									"name": "condition",
									"type": "string"
								},
								{
									"internalType": "string",
									"name": "donatedTo",
									"type": "string"
								},
								{
									"internalType": "bool",
									"name": "isConsented",
									"type": "bool"
								},
								{
									"internalType": "bool",
									"name": "isEvaluated",
									"type": "bool"
								},
								{
									"internalType": "bool",
									"name": "isStored",
									"type": "bool"
								},
								{
									"internalType": "bool",
									"name": "isAssigned",
									"type": "bool"
								}
							],
							"internalType": "struct TokenCreateContract.OrganId",
							"name": "",
							"type": "tuple"
						}
					],
					"stateMutability": "view",
					"type": "function"
				},
				{
					"inputs": [
						{
							"internalType": "uint256",
							"name": "_id",
							"type": "uint256"
						}
					],
					"name": "getRequest",
					"outputs": [
						{
							"components": [
								{
									"internalType": "string",
									"name": "patientName",
									"type": "string"
								},
								{
									"internalType": "bool",
									"name": "isApproved",
									"type": "bool"
								}
							],
							"internalType": "struct TokenCreateContract.RequestId",
							"name": "",
							"type": "tuple"
						}
					],
					"stateMutability": "view",
					"type": "function"
				},
				{
					"inputs": [],
					"name": "organCount",
					"outputs": [
						{
							"internalType": "uint256",
							"name": "",
							"type": "uint256"
						}
					],
					"stateMutability": "view",
					"type": "function"
				},
				{
					"inputs": [
						{
							"internalType": "uint256",
							"name": "",
							"type": "uint256"
						}
					],
					"name": "organs",
					"outputs": [
						{
							"internalType": "string",
							"name": "donorName",
							"type": "string"
						},
						{
							"internalType": "uint256",
							"name": "dateDonated",
							"type": "uint256"
						},
						{
							"internalType": "string",
							"name": "condition",
							"type": "string"
						},
						{
							"internalType": "string",
							"name": "donatedTo",
							"type": "string"
						},
						{
							"internalType": "bool",
							"name": "isConsented",
							"type": "bool"
						},
						{
							"internalType": "bool",
							"name": "isEvaluated",
							"type": "bool"
						},
						{
							"internalType": "bool",
							"name": "isStored",
							"type": "bool"
						},
						{
							"internalType": "bool",
							"name": "isAssigned",
							"type": "bool"
						}
					],
					"stateMutability": "view",
					"type": "function"
				},
				{
					"inputs": [],
					"name": "requestCount",
					"outputs": [
						{
							"internalType": "uint256",
							"name": "",
							"type": "uint256"
						}
					],
					"stateMutability": "view",
					"type": "function"
				},
				{
					"inputs": [
						{
							"internalType": "uint256",
							"name": "",
							"type": "uint256"
						}
					],
					"name": "requests",
					"outputs": [
						{
							"internalType": "string",
							"name": "patientName",
							"type": "string"
						},
						{
							"internalType": "bool",
							"name": "isApproved",
							"type": "bool"
						}
					],
					"stateMutability": "view",
					"type": "function"
				},
				{
					"inputs": [],
					"name": "totalRequest",
					"outputs": [
						{
							"internalType": "uint256",
							"name": "",
							"type": "uint256"
						}
					],
					"stateMutability": "view",
					"type": "function"
				},
				{
					"inputs": [
						{
							"internalType": "uint256",
							"name": "_id",
							"type": "uint256"
						},
						{
							"components": [
								{
									"internalType": "string",
									"name": "donorName",
									"type": "string"
								},
								{
									"internalType": "uint256",
									"name": "dateDonated",
									"type": "uint256"
								},
								{
									"internalType": "string",
									"name": "condition",
									"type": "string"
								},
								{
									"internalType": "string",
									"name": "donatedTo",
									"type": "string"
								},
								{
									"internalType": "bool",
									"name": "isConsented",
									"type": "bool"
								},
								{
									"internalType": "bool",
									"name": "isEvaluated",
									"type": "bool"
								},
								{
									"internalType": "bool",
									"name": "isStored",
									"type": "bool"
								},
								{
									"internalType": "bool",
									"name": "isAssigned",
									"type": "bool"
								}
							],
							"internalType": "struct TokenCreateContract.OrganId",
							"name": "_organ",
							"type": "tuple"
						}
					],
					"name": "updateOrgan",
					"outputs": [],
					"stateMutability": "nonpayable",
					"type": "function"
				}
			],
			"devdoc": {
				"kind": "dev",
				"methods": {
					"approveRequest(uint256,(string,bool))": {
						"details": "This function iterates through all organs, finds one that is not assigned, has been consented to, evaluated, stored, but still available, updates the  corresponding OrganId struct with the new donor information and emits an event indicating approval of a request. It also increments or decrements counters as needed.",
						"params": {
							"_id": "The unique identifier of the request being approved.*"
						}
					},
					"createOrgan(string,uint256)": {
						"details": "This function creates an OrganId struct and stores it in the mapping of organs, incrementing both organCount and availableOrgan. It also emits an event to notify that an organ has been created.",
						"params": {
							"_date": "The date when this organ was donated.",
							"_donorName": "The name of the donor who donated this organ."
						}
					},
					"createRequest(string,bool)": {
						"details": "This function creates an RequestId struct and stores it in the mapping of requests, incrementing both requestCount and totalRequest. It also emits an event to notify that a request has been created.",
						"params": {
							"approved": "Whether or not this request is approved",
							"patientName": "The name of the patient who made this request."
						}
					},
					"getAvailableOrganCount()": {
						"details": "This function returns the number of organs currently assigned and not yet stored, evaluated or consented.",
						"returns": {
							"count": "of available organs in this contract."
						}
					},
					"getOrgan(uint256)": {
						"details": "This function retrieves and returns an OrganId struct by its ID, if it exists in the mapping.",
						"params": {
							"_id": "The unique identifier of the organ to be retrieved."
						},
						"returns": {
							"_0": "An OrganId struct with details about the requested organ, or a default value (all fields set to their zero-value) if not found."
						}
					},
					"getRequest(uint256)": {
						"details": "This function retrieves and returns an RequestId struct by its ID, if it exists in the mapping.",
						"params": {
							"_id": "The unique identifier of the request to be retrieved."
						},
						"returns": {
							"_0": "An RequestId struct with details about the requested organ, or a default value (all fields set to their zero-value) if not found."
						}
					},
					"updateOrgan(uint256,(string,uint256,string,string,bool,bool,bool,bool))": {
						"details": "This function updates and replaces the existing OrganId struct with a new one, if it exists in the mapping.",
						"params": {
							"_id": "The unique identifier of the organ to be updated.*"
						}
					}
				},
				"version": 1
			},
			"evm": {
				"assembly": "    /* \"OrganCreateContract.sol\":57:5655  contract TokenCreateContract {... */\n  mstore(0x40, 0x80)\n    /* \"OrganCreateContract.sol\":660:709  constructor() {... */\n  callvalue\n  dup1\n  iszero\n  tag_1\n  jumpi\n  0x00\n  dup1\n  revert\ntag_1:\n  pop\n    /* \"OrganCreateContract.sol\":692:702  msg.sender */\n  caller\n    /* \"OrganCreateContract.sol\":684:689  owner */\n  0x00\n  dup1\n    /* \"OrganCreateContract.sol\":684:702  owner = msg.sender */\n  0x0100\n  exp\n  dup2\n  sload\n  dup2\n  0xffffffffffffffffffffffffffffffffffffffff\n  mul\n  not\n  and\n  swap1\n  dup4\n  0xffffffffffffffffffffffffffffffffffffffff\n  and\n  mul\n  or\n  swap1\n  sstore\n  pop\n    /* \"OrganCreateContract.sol\":57:5655  contract TokenCreateContract {... */\n  dataSize(sub_0)\n  dup1\n  dataOffset(sub_0)\n  0x00\n  codecopy\n  0x00\n  return\nstop\n\nsub_0: assembly {\n        /* \"OrganCreateContract.sol\":57:5655  contract TokenCreateContract {... */\n      mstore(0x40, 0x80)\n      callvalue\n      dup1\n      iszero\n      tag_1\n      jumpi\n      0x00\n      dup1\n      revert\n    tag_1:\n      pop\n      jumpi(tag_2, lt(calldatasize, 0x04))\n      shr(0xe0, calldataload(0x00))\n      dup1\n      0x5badbe4c\n      gt\n      tag_16\n      jumpi\n      dup1\n      0x81d12c58\n      gt\n      tag_17\n      jumpi\n      dup1\n      0x81d12c58\n      eq\n      tag_12\n      jumpi\n      dup1\n      0x8af88a5c\n      eq\n      tag_13\n      jumpi\n      dup1\n      0xc58343ef\n      eq\n      tag_14\n      jumpi\n      dup1\n      0xe7da5328\n      eq\n      tag_15\n      jumpi\n      jump(tag_2)\n    tag_17:\n      dup1\n      0x5badbe4c\n      eq\n      tag_9\n      jumpi\n      dup1\n      0x5be2218b\n      eq\n      tag_10\n      jumpi\n      dup1\n      0x61259745\n      eq\n      tag_11\n      jumpi\n      jump(tag_2)\n    tag_16:\n      dup1\n      0x098809d7\n      eq\n      tag_3\n      jumpi\n      dup1\n      0x0d47dd26\n      eq\n      tag_4\n      jumpi\n      dup1\n      0x10742b51\n      eq\n      tag_5\n      jumpi\n      dup1\n      0x125f02bb\n      eq\n      tag_6\n      jumpi\n      dup1\n      0x2f045b02\n      eq\n      tag_7\n      jumpi\n      dup1\n      0x4fbd241d\n      eq\n      tag_8\n      jumpi\n    tag_2:\n      0x00\n      dup1\n      revert\n        /* \"OrganCreateContract.sol\":527:552  uint256 public organCount */\n    tag_3:\n      tag_18\n      tag_19\n      jump\t// in\n    tag_18:\n      mload(0x40)\n      tag_20\n      swap2\n      swap1\n      tag_21\n      jump\t// in\n    tag_20:\n      mload(0x40)\n      dup1\n      swap2\n      sub\n      swap1\n      return\n        /* \"OrganCreateContract.sol\":2907:3010  function updateOrgan(uint256 _id, OrganId memory _organ) external {... */\n    tag_4:\n      tag_22\n      0x04\n      dup1\n      calldatasize\n      sub\n      dup2\n      add\n      swap1\n      tag_23\n      swap2\n      swap1\n      tag_24\n      jump\t// in\n    tag_23:\n      tag_25\n      jump\t// in\n    tag_22:\n      stop\n        /* \"OrganCreateContract.sol\":2541:2646  function getOrgan(uint256 _id) external view returns (OrganId memory) {... */\n    tag_5:\n      tag_26\n      0x04\n      dup1\n      calldatasize\n      sub\n      dup2\n      add\n      swap1\n      tag_27\n      swap2\n      swap1\n      tag_28\n      jump\t// in\n    tag_27:\n      tag_29\n      jump\t// in\n    tag_26:\n      mload(0x40)\n      tag_30\n      swap2\n      swap1\n      tag_31\n      jump\t// in\n    tag_30:\n      mload(0x40)\n      dup1\n      swap2\n      sub\n      swap1\n      return\n        /* \"OrganCreateContract.sol\":558:587  uint256 public availableOrgan */\n    tag_6:\n      tag_32\n      tag_33\n      jump\t// in\n    tag_32:\n      mload(0x40)\n      tag_34\n      swap2\n      swap1\n      tag_21\n      jump\t// in\n    tag_34:\n      mload(0x40)\n      dup1\n      swap2\n      sub\n      swap1\n      return\n        /* \"OrganCreateContract.sol\":3752:4002  function createRequest(string memory patientName, bool approved) external {... */\n    tag_7:\n      tag_35\n      0x04\n      dup1\n      calldatasize\n      sub\n      dup2\n      add\n      swap1\n      tag_36\n      swap2\n      swap1\n      tag_37\n      jump\t// in\n    tag_36:\n      tag_38\n      jump\t// in\n    tag_35:\n      stop\n        /* \"OrganCreateContract.sol\":480:521  mapping(uint256 => OrganId) public organs */\n    tag_8:\n      tag_39\n      0x04\n      dup1\n      calldatasize\n      sub\n      dup2\n      add\n      swap1\n      tag_40\n      swap2\n      swap1\n      tag_28\n      jump\t// in\n    tag_40:\n      tag_41\n      jump\t// in\n    tag_39:\n      mload(0x40)\n      tag_42\n      swap9\n      swap8\n      swap7\n      swap6\n      swap5\n      swap4\n      swap3\n      swap2\n      swap1\n      tag_43\n      jump\t// in\n    tag_42:\n      mload(0x40)\n      dup1\n      swap2\n      sub\n      swap1\n      return\n        /* \"OrganCreateContract.sol\":593:620  uint256 public requestCount */\n    tag_9:\n      tag_44\n      tag_45\n      jump\t// in\n    tag_44:\n      mload(0x40)\n      tag_46\n      swap2\n      swap1\n      tag_21\n      jump\t// in\n    tag_46:\n      mload(0x40)\n      dup1\n      swap2\n      sub\n      swap1\n      return\n        /* \"OrganCreateContract.sol\":4966:5653  function approveRequest(uint256 _id, RequestId memory _request) external {... */\n    tag_10:\n      tag_47\n      0x04\n      dup1\n      calldatasize\n      sub\n      dup2\n      add\n      swap1\n      tag_48\n      swap2\n      swap1\n      tag_49\n      jump\t// in\n    tag_48:\n      tag_50\n      jump\t// in\n    tag_47:\n      stop\n        /* \"OrganCreateContract.sol\":626:653  uint256 public totalRequest */\n    tag_11:\n      tag_51\n      tag_52\n      jump\t// in\n    tag_51:\n      mload(0x40)\n      tag_53\n      swap2\n      swap1\n      tag_21\n      jump\t// in\n    tag_53:\n      mload(0x40)\n      dup1\n      swap2\n      sub\n      swap1\n      return\n        /* \"OrganCreateContract.sol\":429:474  mapping(uint256 => RequestId) public requests */\n    tag_12:\n      tag_54\n      0x04\n      dup1\n      calldatasize\n      sub\n      dup2\n      add\n      swap1\n      tag_55\n      swap2\n      swap1\n      tag_28\n      jump\t// in\n    tag_55:\n      tag_56\n      jump\t// in\n    tag_54:\n      mload(0x40)\n      tag_57\n      swap3\n      swap2\n      swap1\n      tag_58\n      jump\t// in\n    tag_57:\n      mload(0x40)\n      dup1\n      swap2\n      sub\n      swap1\n      return\n        /* \"OrganCreateContract.sol\":1590:2161  function createOrgan(string memory _donorName, uint256 _date) external {... */\n    tag_13:\n      tag_59\n      0x04\n      dup1\n      calldatasize\n      sub\n      dup2\n      add\n      swap1\n      tag_60\n      swap2\n      swap1\n      tag_61\n      jump\t// in\n    tag_60:\n      tag_62\n      jump\t// in\n    tag_59:\n      stop\n        /* \"OrganCreateContract.sol\":4385:4496  function getRequest(uint256 _id) external view returns (RequestId memory) {... */\n    tag_14:\n      tag_63\n      0x04\n      dup1\n      calldatasize\n      sub\n      dup2\n      add\n      swap1\n      tag_64\n      swap2\n      swap1\n      tag_28\n      jump\t// in\n    tag_64:\n      tag_65\n      jump\t// in\n    tag_63:\n      mload(0x40)\n      tag_66\n      swap2\n      swap1\n      tag_67\n      jump\t// in\n    tag_66:\n      mload(0x40)\n      dup1\n      swap2\n      sub\n      swap1\n      return\n        /* \"OrganCreateContract.sol\":3244:3352  function getAvailableOrganCount() public view returns (uint256 count) {... */\n    tag_15:\n      tag_68\n      tag_69\n      jump\t// in\n    tag_68:\n      mload(0x40)\n      tag_70\n      swap2\n      swap1\n      tag_21\n      jump\t// in\n    tag_70:\n      mload(0x40)\n      dup1\n      swap2\n      sub\n      swap1\n      return\n        /* \"OrganCreateContract.sol\":527:552  uint256 public organCount */\n    tag_19:\n      sload(0x03)\n      dup2\n      jump\t// out\n        /* \"OrganCreateContract.sol\":2907:3010  function updateOrgan(uint256 _id, OrganId memory _organ) external {... */\n    tag_25:\n        /* \"OrganCreateContract.sol\":2997:3003  _organ */\n      dup1\n        /* \"OrganCreateContract.sol\":2983:2989  organs */\n      0x02\n        /* \"OrganCreateContract.sol\":2983:2994  organs[_id] */\n      0x00\n        /* \"OrganCreateContract.sol\":2990:2993  _id */\n      dup5\n        /* \"OrganCreateContract.sol\":2983:2994  organs[_id] */\n      dup2\n      mstore\n      0x20\n      add\n      swap1\n      dup2\n      mstore\n      0x20\n      add\n      0x00\n      keccak256\n        /* \"OrganCreateContract.sol\":2983:3003  organs[_id] = _organ */\n      0x00\n      dup3\n      add\n      mload\n      dup2\n      0x00\n      add\n      swap1\n      dup2\n      tag_72\n      swap2\n      swap1\n      tag_73\n      jump\t// in\n    tag_72:\n      pop\n      0x20\n      dup3\n      add\n      mload\n      dup2\n      0x01\n      add\n      sstore\n      0x40\n      dup3\n      add\n      mload\n      dup2\n      0x02\n      add\n      swap1\n      dup2\n      tag_74\n      swap2\n      swap1\n      tag_73\n      jump\t// in\n    tag_74:\n      pop\n      0x60\n      dup3\n      add\n      mload\n      dup2\n      0x03\n      add\n      swap1\n      dup2\n      tag_75\n      swap2\n      swap1\n      tag_73\n      jump\t// in\n    tag_75:\n      pop\n      0x80\n      dup3\n      add\n      mload\n      dup2\n      0x04\n      add\n      exp(0x0100, 0x00)\n      dup2\n      sload\n      dup2\n      0xff\n      mul\n      not\n      and\n      swap1\n      dup4\n      iszero\n      iszero\n      mul\n      or\n      swap1\n      sstore\n      pop\n      0xa0\n      dup3\n      add\n      mload\n      dup2\n      0x04\n      add\n      exp(0x0100, 0x01)\n      dup2\n      sload\n      dup2\n      0xff\n      mul\n      not\n      and\n      swap1\n      dup4\n      iszero\n      iszero\n      mul\n      or\n      swap1\n      sstore\n      pop\n      0xc0\n      dup3\n      add\n      mload\n      dup2\n      0x04\n      add\n      exp(0x0100, 0x02)\n      dup2\n      sload\n      dup2\n      0xff\n      mul\n      not\n      and\n      swap1\n      dup4\n      iszero\n      iszero\n      mul\n      or\n      swap1\n      sstore\n      pop\n      0xe0\n      dup3\n      add\n      mload\n      dup2\n      0x04\n      add\n      exp(0x0100, 0x03)\n      dup2\n      sload\n      dup2\n      0xff\n      mul\n      not\n      and\n      swap1\n      dup4\n      iszero\n      iszero\n      mul\n      or\n      swap1\n      sstore\n      pop\n      swap1\n      pop\n      pop\n        /* \"OrganCreateContract.sol\":2907:3010  function updateOrgan(uint256 _id, OrganId memory _organ) external {... */\n      pop\n      pop\n      jump\t// out\n        /* \"OrganCreateContract.sol\":2541:2646  function getOrgan(uint256 _id) external view returns (OrganId memory) {... */\n    tag_29:\n        /* \"OrganCreateContract.sol\":2595:2609  OrganId memory */\n      tag_76\n      tag_77\n      jump\t// in\n    tag_76:\n        /* \"OrganCreateContract.sol\":2628:2634  organs */\n      0x02\n        /* \"OrganCreateContract.sol\":2628:2639  organs[_id] */\n      0x00\n        /* \"OrganCreateContract.sol\":2635:2638  _id */\n      dup4\n        /* \"OrganCreateContract.sol\":2628:2639  organs[_id] */\n      dup2\n      mstore\n      0x20\n      add\n      swap1\n      dup2\n      mstore\n      0x20\n      add\n      0x00\n      keccak256\n        /* \"OrganCreateContract.sol\":2621:2639  return organs[_id] */\n      mload(0x40)\n      dup1\n      0x0100\n      add\n      0x40\n      mstore\n      swap1\n      dup2\n      0x00\n      dup3\n      add\n      dup1\n      sload\n      tag_79\n      swap1\n      tag_80\n      jump\t// in\n    tag_79:\n      dup1\n      0x1f\n      add\n      0x20\n      dup1\n      swap2\n      div\n      mul\n      0x20\n      add\n      mload(0x40)\n      swap1\n      dup2\n      add\n      0x40\n      mstore\n      dup1\n      swap3\n      swap2\n      swap1\n      dup2\n      dup2\n      mstore\n      0x20\n      add\n      dup3\n      dup1\n      sload\n      tag_81\n      swap1\n      tag_80\n      jump\t// in\n    tag_81:\n      dup1\n      iszero\n      tag_82\n      jumpi\n      dup1\n      0x1f\n      lt\n      tag_83\n      jumpi\n      0x0100\n      dup1\n      dup4\n      sload\n      div\n      mul\n      dup4\n      mstore\n      swap2\n      0x20\n      add\n      swap2\n      jump(tag_82)\n    tag_83:\n      dup3\n      add\n      swap2\n      swap1\n      0x00\n      mstore\n      keccak256(0x00, 0x20)\n      swap1\n    tag_84:\n      dup2\n      sload\n      dup2\n      mstore\n      swap1\n      0x01\n      add\n      swap1\n      0x20\n      add\n      dup1\n      dup4\n      gt\n      tag_84\n      jumpi\n      dup3\n      swap1\n      sub\n      0x1f\n      and\n      dup3\n      add\n      swap2\n    tag_82:\n      pop\n      pop\n      pop\n      pop\n      pop\n      dup2\n      mstore\n      0x20\n      add\n      0x01\n      dup3\n      add\n      sload\n      dup2\n      mstore\n      0x20\n      add\n      0x02\n      dup3\n      add\n      dup1\n      sload\n      tag_85\n      swap1\n      tag_80\n      jump\t// in\n    tag_85:\n      dup1\n      0x1f\n      add\n      0x20\n      dup1\n      swap2\n      div\n      mul\n      0x20\n      add\n      mload(0x40)\n      swap1\n      dup2\n      add\n      0x40\n      mstore\n      dup1\n      swap3\n      swap2\n      swap1\n      dup2\n      dup2\n      mstore\n      0x20\n      add\n      dup3\n      dup1\n      sload\n      tag_86\n      swap1\n      tag_80\n      jump\t// in\n    tag_86:\n      dup1\n      iszero\n      tag_87\n      jumpi\n      dup1\n      0x1f\n      lt\n      tag_88\n      jumpi\n      0x0100\n      dup1\n      dup4\n      sload\n      div\n      mul\n      dup4\n      mstore\n      swap2\n      0x20\n      add\n      swap2\n      jump(tag_87)\n    tag_88:\n      dup3\n      add\n      swap2\n      swap1\n      0x00\n      mstore\n      keccak256(0x00, 0x20)\n      swap1\n    tag_89:\n      dup2\n      sload\n      dup2\n      mstore\n      swap1\n      0x01\n      add\n      swap1\n      0x20\n      add\n      dup1\n      dup4\n      gt\n      tag_89\n      jumpi\n      dup3\n      swap1\n      sub\n      0x1f\n      and\n      dup3\n      add\n      swap2\n    tag_87:\n      pop\n      pop\n      pop\n      pop\n      pop\n      dup2\n      mstore\n      0x20\n      add\n      0x03\n      dup3\n      add\n      dup1\n      sload\n      tag_90\n      swap1\n      tag_80\n      jump\t// in\n    tag_90:\n      dup1\n      0x1f\n      add\n      0x20\n      dup1\n      swap2\n      div\n      mul\n      0x20\n      add\n      mload(0x40)\n      swap1\n      dup2\n      add\n      0x40\n      mstore\n      dup1\n      swap3\n      swap2\n      swap1\n      dup2\n      dup2\n      mstore\n      0x20\n      add\n      dup3\n      dup1\n      sload\n      tag_91\n      swap1\n      tag_80\n      jump\t// in\n    tag_91:\n      dup1\n      iszero\n      tag_92\n      jumpi\n      dup1\n      0x1f\n      lt\n      tag_93\n      jumpi\n      0x0100\n      dup1\n      dup4\n      sload\n      div\n      mul\n      dup4\n      mstore\n      swap2\n      0x20\n      add\n      swap2\n      jump(tag_92)\n    tag_93:\n      dup3\n      add\n      swap2\n      swap1\n      0x00\n      mstore\n      keccak256(0x00, 0x20)\n      swap1\n    tag_94:\n      dup2\n      sload\n      dup2\n      mstore\n      swap1\n      0x01\n      add\n      swap1\n      0x20\n      add\n      dup1\n      dup4\n      gt\n      tag_94\n      jumpi\n      dup3\n      swap1\n      sub\n      0x1f\n      and\n      dup3\n      add\n      swap2\n    tag_92:\n      pop\n      pop\n      pop\n      pop\n      pop\n      dup2\n      mstore\n      0x20\n      add\n      0x04\n      dup3\n      add\n      0x00\n      swap1\n      sload\n      swap1\n      0x0100\n      exp\n      swap1\n      div\n      0xff\n      and\n      iszero\n      iszero\n      iszero\n      iszero\n      dup2\n      mstore\n      0x20\n      add\n      0x04\n      dup3\n      add\n      0x01\n      swap1\n      sload\n      swap1\n      0x0100\n      exp\n      swap1\n      div\n      0xff\n      and\n      iszero\n      iszero\n      iszero\n      iszero\n      dup2\n      mstore\n      0x20\n      add\n      0x04\n      dup3\n      add\n      0x02\n      swap1\n      sload\n      swap1\n      0x0100\n      exp\n      swap1\n      div\n      0xff\n      and\n      iszero\n      iszero\n      iszero\n      iszero\n      dup2\n      mstore\n      0x20\n      add\n      0x04\n      dup3\n      add\n      0x03\n      swap1\n      sload\n      swap1\n      0x0100\n      exp\n      swap1\n      div\n      0xff\n      and\n      iszero\n      iszero\n      iszero\n      iszero\n      dup2\n      mstore\n      pop\n      pop\n      swap1\n      pop\n        /* \"OrganCreateContract.sol\":2541:2646  function getOrgan(uint256 _id) external view returns (OrganId memory) {... */\n      swap2\n      swap1\n      pop\n      jump\t// out\n        /* \"OrganCreateContract.sol\":558:587  uint256 public availableOrgan */\n    tag_33:\n      sload(0x04)\n      dup2\n      jump\t// out\n        /* \"OrganCreateContract.sol\":3752:4002  function createRequest(string memory patientName, bool approved) external {... */\n    tag_38:\n        /* \"OrganCreateContract.sol\":3836:3848  requestCount */\n      0x05\n      0x00\n        /* \"OrganCreateContract.sol\":3836:3850  requestCount++ */\n      dup2\n      sload\n      dup1\n      swap3\n      swap2\n      swap1\n      tag_96\n      swap1\n      tag_97\n      jump\t// in\n    tag_96:\n      swap2\n      swap1\n      pop\n      sstore\n      pop\n        /* \"OrganCreateContract.sol\":3860:3872  totalRequest */\n      0x06\n      0x00\n        /* \"OrganCreateContract.sol\":3860:3874  totalRequest++ */\n      dup2\n      sload\n      dup1\n      swap3\n      swap2\n      swap1\n      tag_98\n      swap1\n      tag_97\n      jump\t// in\n    tag_98:\n      swap2\n      swap1\n      pop\n      sstore\n      pop\n        /* \"OrganCreateContract.sol\":3909:3941  RequestId(patientName, approved) */\n      mload(0x40)\n      dup1\n      0x40\n      add\n      0x40\n      mstore\n      dup1\n        /* \"OrganCreateContract.sol\":3919:3930  patientName */\n      dup4\n        /* \"OrganCreateContract.sol\":3909:3941  RequestId(patientName, approved) */\n      dup2\n      mstore\n      0x20\n      add\n        /* \"OrganCreateContract.sol\":3932:3940  approved */\n      dup3\n        /* \"OrganCreateContract.sol\":3909:3941  RequestId(patientName, approved) */\n      iszero\n      iszero\n      dup2\n      mstore\n      pop\n        /* \"OrganCreateContract.sol\":3884:3892  requests */\n      0x01\n        /* \"OrganCreateContract.sol\":3884:3906  requests[totalRequest] */\n      0x00\n        /* \"OrganCreateContract.sol\":3893:3905  totalRequest */\n      sload(0x06)\n        /* \"OrganCreateContract.sol\":3884:3906  requests[totalRequest] */\n      dup2\n      mstore\n      0x20\n      add\n      swap1\n      dup2\n      mstore\n      0x20\n      add\n      0x00\n      keccak256\n        /* \"OrganCreateContract.sol\":3884:3941  requests[totalRequest] = RequestId(patientName, approved) */\n      0x00\n      dup3\n      add\n      mload\n      dup2\n      0x00\n      add\n      swap1\n      dup2\n      tag_99\n      swap2\n      swap1\n      tag_73\n      jump\t// in\n    tag_99:\n      pop\n      0x20\n      dup3\n      add\n      mload\n      dup2\n      0x01\n      add\n      exp(0x0100, 0x00)\n      dup2\n      sload\n      dup2\n      0xff\n      mul\n      not\n      and\n      swap1\n      dup4\n      iszero\n      iszero\n      mul\n      or\n      swap1\n      sstore\n      pop\n      swap1\n      pop\n      pop\n        /* \"OrganCreateContract.sol\":3956:3995  requestIdCreated(patientName, approved) */\n      0x8214cb7208c019ae63f65fbc03ff1306dec9260c12e3963be9057fb04d6c218b\n        /* \"OrganCreateContract.sol\":3973:3984  patientName */\n      dup3\n        /* \"OrganCreateContract.sol\":3986:3994  approved */\n      dup3\n        /* \"OrganCreateContract.sol\":3956:3995  requestIdCreated(patientName, approved) */\n      mload(0x40)\n      tag_100\n      swap3\n      swap2\n      swap1\n      tag_58\n      jump\t// in\n    tag_100:\n      mload(0x40)\n      dup1\n      swap2\n      sub\n      swap1\n      log1\n        /* \"OrganCreateContract.sol\":3752:4002  function createRequest(string memory patientName, bool approved) external {... */\n      pop\n      pop\n      jump\t// out\n        /* \"OrganCreateContract.sol\":480:521  mapping(uint256 => OrganId) public organs */\n    tag_41:\n      mstore(0x20, 0x02)\n      dup1\n      0x00\n      mstore\n      keccak256(0x00, 0x40)\n      0x00\n      swap2\n      pop\n      swap1\n      pop\n      dup1\n      0x00\n      add\n      dup1\n      sload\n      tag_101\n      swap1\n      tag_80\n      jump\t// in\n    tag_101:\n      dup1\n      0x1f\n      add\n      0x20\n      dup1\n      swap2\n      div\n      mul\n      0x20\n      add\n      mload(0x40)\n      swap1\n      dup2\n      add\n      0x40\n      mstore\n      dup1\n      swap3\n      swap2\n      swap1\n      dup2\n      dup2\n      mstore\n      0x20\n      add\n      dup3\n      dup1\n      sload\n      tag_102\n      swap1\n      tag_80\n      jump\t// in\n    tag_102:\n      dup1\n      iszero\n      tag_103\n      jumpi\n      dup1\n      0x1f\n      lt\n      tag_104\n      jumpi\n      0x0100\n      dup1\n      dup4\n      sload\n      div\n      mul\n      dup4\n      mstore\n      swap2\n      0x20\n      add\n      swap2\n      jump(tag_103)\n    tag_104:\n      dup3\n      add\n      swap2\n      swap1\n      0x00\n      mstore\n      keccak256(0x00, 0x20)\n      swap1\n    tag_105:\n      dup2\n      sload\n      dup2\n      mstore\n      swap1\n      0x01\n      add\n      swap1\n      0x20\n      add\n      dup1\n      dup4\n      gt\n      tag_105\n      jumpi\n      dup3\n      swap1\n      sub\n      0x1f\n      and\n      dup3\n      add\n      swap2\n    tag_103:\n      pop\n      pop\n      pop\n      pop\n      pop\n      swap1\n      dup1\n      0x01\n      add\n      sload\n      swap1\n      dup1\n      0x02\n      add\n      dup1\n      sload\n      tag_106\n      swap1\n      tag_80\n      jump\t// in\n    tag_106:\n      dup1\n      0x1f\n      add\n      0x20\n      dup1\n      swap2\n      div\n      mul\n      0x20\n      add\n      mload(0x40)\n      swap1\n      dup2\n      add\n      0x40\n      mstore\n      dup1\n      swap3\n      swap2\n      swap1\n      dup2\n      dup2\n      mstore\n      0x20\n      add\n      dup3\n      dup1\n      sload\n      tag_107\n      swap1\n      tag_80\n      jump\t// in\n    tag_107:\n      dup1\n      iszero\n      tag_108\n      jumpi\n      dup1\n      0x1f\n      lt\n      tag_109\n      jumpi\n      0x0100\n      dup1\n      dup4\n      sload\n      div\n      mul\n      dup4\n      mstore\n      swap2\n      0x20\n      add\n      swap2\n      jump(tag_108)\n    tag_109:\n      dup3\n      add\n      swap2\n      swap1\n      0x00\n      mstore\n      keccak256(0x00, 0x20)\n      swap1\n    tag_110:\n      dup2\n      sload\n      dup2\n      mstore\n      swap1\n      0x01\n      add\n      swap1\n      0x20\n      add\n      dup1\n      dup4\n      gt\n      tag_110\n      jumpi\n      dup3\n      swap1\n      sub\n      0x1f\n      and\n      dup3\n      add\n      swap2\n    tag_108:\n      pop\n      pop\n      pop\n      pop\n      pop\n      swap1\n      dup1\n      0x03\n      add\n      dup1\n      sload\n      tag_111\n      swap1\n      tag_80\n      jump\t// in\n    tag_111:\n      dup1\n      0x1f\n      add\n      0x20\n      dup1\n      swap2\n      div\n      mul\n      0x20\n      add\n      mload(0x40)\n      swap1\n      dup2\n      add\n      0x40\n      mstore\n      dup1\n      swap3\n      swap2\n      swap1\n      dup2\n      dup2\n      mstore\n      0x20\n      add\n      dup3\n      dup1\n      sload\n      tag_112\n      swap1\n      tag_80\n      jump\t// in\n    tag_112:\n      dup1\n      iszero\n      tag_113\n      jumpi\n      dup1\n      0x1f\n      lt\n      tag_114\n      jumpi\n      0x0100\n      dup1\n      dup4\n      sload\n      div\n      mul\n      dup4\n      mstore\n      swap2\n      0x20\n      add\n      swap2\n      jump(tag_113)\n    tag_114:\n      dup3\n      add\n      swap2\n      swap1\n      0x00\n      mstore\n      keccak256(0x00, 0x20)\n      swap1\n    tag_115:\n      dup2\n      sload\n      dup2\n      mstore\n      swap1\n      0x01\n      add\n      swap1\n      0x20\n      add\n      dup1\n      dup4\n      gt\n      tag_115\n      jumpi\n      dup3\n      swap1\n      sub\n      0x1f\n      and\n      dup3\n      add\n      swap2\n    tag_113:\n      pop\n      pop\n      pop\n      pop\n      pop\n      swap1\n      dup1\n      0x04\n      add\n      0x00\n      swap1\n      sload\n      swap1\n      0x0100\n      exp\n      swap1\n      div\n      0xff\n      and\n      swap1\n      dup1\n      0x04\n      add\n      0x01\n      swap1\n      sload\n      swap1\n      0x0100\n      exp\n      swap1\n      div\n      0xff\n      and\n      swap1\n      dup1\n      0x04\n      add\n      0x02\n      swap1\n      sload\n      swap1\n      0x0100\n      exp\n      swap1\n      div\n      0xff\n      and\n      swap1\n      dup1\n      0x04\n      add\n      0x03\n      swap1\n      sload\n      swap1\n      0x0100\n      exp\n      swap1\n      div\n      0xff\n      and\n      swap1\n      pop\n      dup9\n      jump\t// out\n        /* \"OrganCreateContract.sol\":593:620  uint256 public requestCount */\n    tag_45:\n      sload(0x05)\n      dup2\n      jump\t// out\n        /* \"OrganCreateContract.sol\":4966:5653  function approveRequest(uint256 _id, RequestId memory _request) external {... */\n    tag_50:\n        /* \"OrganCreateContract.sol\":5054:5063  uint256 i */\n      0x00\n        /* \"OrganCreateContract.sol\":5066:5067  1 */\n      0x01\n        /* \"OrganCreateContract.sol\":5054:5067  uint256 i = 1 */\n      swap1\n      pop\n        /* \"OrganCreateContract.sol\":5049:5647  for (uint256 i = 1; i <= organCount; i++) {... */\n    tag_117:\n        /* \"OrganCreateContract.sol\":5074:5084  organCount */\n      sload(0x03)\n        /* \"OrganCreateContract.sol\":5069:5070  i */\n      dup2\n        /* \"OrganCreateContract.sol\":5069:5084  i <= organCount */\n      gt\n        /* \"OrganCreateContract.sol\":5049:5647  for (uint256 i = 1; i <= organCount; i++) {... */\n      tag_118\n      jumpi\n        /* \"OrganCreateContract.sol\":5150:5155  false */\n      0x00\n        /* \"OrganCreateContract.sol\":5126:5155  organs[i].isAssigned == false */\n      iszero\n      iszero\n        /* \"OrganCreateContract.sol\":5126:5132  organs */\n      0x02\n        /* \"OrganCreateContract.sol\":5126:5135  organs[i] */\n      0x00\n        /* \"OrganCreateContract.sol\":5133:5134  i */\n      dup4\n        /* \"OrganCreateContract.sol\":5126:5135  organs[i] */\n      dup2\n      mstore\n      0x20\n      add\n      swap1\n      dup2\n      mstore\n      0x20\n      add\n      0x00\n      keccak256\n        /* \"OrganCreateContract.sol\":5126:5146  organs[i].isAssigned */\n      0x04\n      add\n      0x03\n      swap1\n      sload\n      swap1\n      0x0100\n      exp\n      swap1\n      div\n      0xff\n      and\n        /* \"OrganCreateContract.sol\":5126:5155  organs[i].isAssigned == false */\n      iszero\n      iszero\n      eq\n        /* \"OrganCreateContract.sol\":5126:5204  organs[i].isAssigned == false &&... */\n      dup1\n      iszero\n      tag_120\n      jumpi\n      pop\n        /* \"OrganCreateContract.sol\":5200:5204  true */\n      0x01\n        /* \"OrganCreateContract.sol\":5175:5204  organs[i].isConsented == true */\n      iszero\n      iszero\n        /* \"OrganCreateContract.sol\":5175:5181  organs */\n      0x02\n        /* \"OrganCreateContract.sol\":5175:5184  organs[i] */\n      0x00\n        /* \"OrganCreateContract.sol\":5182:5183  i */\n      dup4\n        /* \"OrganCreateContract.sol\":5175:5184  organs[i] */\n      dup2\n      mstore\n      0x20\n      add\n      swap1\n      dup2\n      mstore\n      0x20\n      add\n      0x00\n      keccak256\n        /* \"OrganCreateContract.sol\":5175:5196  organs[i].isConsented */\n      0x04\n      add\n      0x00\n      swap1\n      sload\n      swap1\n      0x0100\n      exp\n      swap1\n      div\n      0xff\n      and\n        /* \"OrganCreateContract.sol\":5175:5204  organs[i].isConsented == true */\n      iszero\n      iszero\n      eq\n        /* \"OrganCreateContract.sol\":5126:5204  organs[i].isAssigned == false &&... */\n    tag_120:\n        /* \"OrganCreateContract.sol\":5126:5253  organs[i].isAssigned == false &&... */\n      dup1\n      iszero\n      tag_121\n      jumpi\n      pop\n        /* \"OrganCreateContract.sol\":5249:5253  true */\n      0x01\n        /* \"OrganCreateContract.sol\":5224:5253  organs[i].isEvaluated == true */\n      iszero\n      iszero\n        /* \"OrganCreateContract.sol\":5224:5230  organs */\n      0x02\n        /* \"OrganCreateContract.sol\":5224:5233  organs[i] */\n      0x00\n        /* \"OrganCreateContract.sol\":5231:5232  i */\n      dup4\n        /* \"OrganCreateContract.sol\":5224:5233  organs[i] */\n      dup2\n      mstore\n      0x20\n      add\n      swap1\n      dup2\n      mstore\n      0x20\n      add\n      0x00\n      keccak256\n        /* \"OrganCreateContract.sol\":5224:5245  organs[i].isEvaluated */\n      0x04\n      add\n      0x01\n      swap1\n      sload\n      swap1\n      0x0100\n      exp\n      swap1\n      div\n      0xff\n      and\n        /* \"OrganCreateContract.sol\":5224:5253  organs[i].isEvaluated == true */\n      iszero\n      iszero\n      eq\n        /* \"OrganCreateContract.sol\":5126:5253  organs[i].isAssigned == false &&... */\n    tag_121:\n        /* \"OrganCreateContract.sol\":5126:5299  organs[i].isAssigned == false &&... */\n      dup1\n      iszero\n      tag_122\n      jumpi\n      pop\n        /* \"OrganCreateContract.sol\":5295:5299  true */\n      0x01\n        /* \"OrganCreateContract.sol\":5273:5299  organs[i].isStored == true */\n      iszero\n      iszero\n        /* \"OrganCreateContract.sol\":5273:5279  organs */\n      0x02\n        /* \"OrganCreateContract.sol\":5273:5282  organs[i] */\n      0x00\n        /* \"OrganCreateContract.sol\":5280:5281  i */\n      dup4\n        /* \"OrganCreateContract.sol\":5273:5282  organs[i] */\n      dup2\n      mstore\n      0x20\n      add\n      swap1\n      dup2\n      mstore\n      0x20\n      add\n      0x00\n      keccak256\n        /* \"OrganCreateContract.sol\":5273:5291  organs[i].isStored */\n      0x04\n      add\n      0x02\n      swap1\n      sload\n      swap1\n      0x0100\n      exp\n      swap1\n      div\n      0xff\n      and\n        /* \"OrganCreateContract.sol\":5273:5299  organs[i].isStored == true */\n      iszero\n      iszero\n      eq\n        /* \"OrganCreateContract.sol\":5126:5299  organs[i].isAssigned == false &&... */\n    tag_122:\n        /* \"OrganCreateContract.sol\":5105:5637  if (... */\n      iszero\n      tag_123\n      jumpi\n        /* \"OrganCreateContract.sol\":5348:5356  _request */\n      dup2\n        /* \"OrganCreateContract.sol\":5332:5340  requests */\n      0x01\n        /* \"OrganCreateContract.sol\":5332:5345  requests[_id] */\n      0x00\n        /* \"OrganCreateContract.sol\":5341:5344  _id */\n      dup6\n        /* \"OrganCreateContract.sol\":5332:5345  requests[_id] */\n      dup2\n      mstore\n      0x20\n      add\n      swap1\n      dup2\n      mstore\n      0x20\n      add\n      0x00\n      keccak256\n        /* \"OrganCreateContract.sol\":5332:5356  requests[_id] = _request */\n      0x00\n      dup3\n      add\n      mload\n      dup2\n      0x00\n      add\n      swap1\n      dup2\n      tag_124\n      swap2\n      swap1\n      tag_73\n      jump\t// in\n    tag_124:\n      pop\n      0x20\n      dup3\n      add\n      mload\n      dup2\n      0x01\n      add\n      exp(0x0100, 0x00)\n      dup2\n      sload\n      dup2\n      0xff\n      mul\n      not\n      and\n      swap1\n      dup4\n      iszero\n      iszero\n      mul\n      or\n      swap1\n      sstore\n      pop\n      swap1\n      pop\n      pop\n        /* \"OrganCreateContract.sol\":5396:5404  _request */\n      dup2\n        /* \"OrganCreateContract.sol\":5396:5416  _request.patientName */\n      0x00\n      add\n      mload\n        /* \"OrganCreateContract.sol\":5374:5380  organs */\n      0x02\n        /* \"OrganCreateContract.sol\":5374:5383  organs[i] */\n      0x00\n        /* \"OrganCreateContract.sol\":5381:5382  i */\n      dup4\n        /* \"OrganCreateContract.sol\":5374:5383  organs[i] */\n      dup2\n      mstore\n      0x20\n      add\n      swap1\n      dup2\n      mstore\n      0x20\n      add\n      0x00\n      keccak256\n        /* \"OrganCreateContract.sol\":5374:5393  organs[i].donatedTo */\n      0x03\n      add\n        /* \"OrganCreateContract.sol\":5374:5416  organs[i].donatedTo = _request.patientName */\n      swap1\n      dup2\n      tag_125\n      swap2\n      swap1\n      tag_73\n      jump\t// in\n    tag_125:\n      pop\n        /* \"OrganCreateContract.sol\":5457:5461  true */\n      0x01\n        /* \"OrganCreateContract.sol\":5434:5440  organs */\n      0x02\n        /* \"OrganCreateContract.sol\":5434:5443  organs[i] */\n      0x00\n        /* \"OrganCreateContract.sol\":5441:5442  i */\n      dup4\n        /* \"OrganCreateContract.sol\":5434:5443  organs[i] */\n      dup2\n      mstore\n      0x20\n      add\n      swap1\n      dup2\n      mstore\n      0x20\n      add\n      0x00\n      keccak256\n        /* \"OrganCreateContract.sol\":5434:5454  organs[i].isAssigned */\n      0x04\n      add\n      0x03\n        /* \"OrganCreateContract.sol\":5434:5461  organs[i].isAssigned = true */\n      0x0100\n      exp\n      dup2\n      sload\n      dup2\n      0xff\n      mul\n      not\n      and\n      swap1\n      dup4\n      iszero\n      iszero\n      mul\n      or\n      swap1\n      sstore\n      pop\n        /* \"OrganCreateContract.sol\":5479:5493  availableOrgan */\n      0x04\n      0x00\n        /* \"OrganCreateContract.sol\":5479:5495  availableOrgan-- */\n      dup2\n      sload\n      dup1\n      swap3\n      swap2\n      swap1\n      tag_126\n      swap1\n      tag_127\n      jump\t// in\n    tag_126:\n      swap2\n      swap1\n      pop\n      sstore\n      pop\n        /* \"OrganCreateContract.sol\":5513:5525  requestCount */\n      0x05\n      0x00\n        /* \"OrganCreateContract.sol\":5513:5527  requestCount-- */\n      dup2\n      sload\n      dup1\n      swap3\n      swap2\n      swap1\n      tag_128\n      swap1\n      tag_127\n      jump\t// in\n    tag_128:\n      swap2\n      swap1\n      pop\n      sstore\n      pop\n        /* \"OrganCreateContract.sol\":5551:5598  requestApproved(_id, requests[_id].patientName) */\n      0x5f5f1b47c5bd4a71140c85ad2612a7fc179f12a94ecb492d109dea8b98b4d5b3\n        /* \"OrganCreateContract.sol\":5567:5570  _id */\n      dup4\n        /* \"OrganCreateContract.sol\":5572:5580  requests */\n      0x01\n        /* \"OrganCreateContract.sol\":5572:5585  requests[_id] */\n      0x00\n        /* \"OrganCreateContract.sol\":5581:5584  _id */\n      dup7\n        /* \"OrganCreateContract.sol\":5572:5585  requests[_id] */\n      dup2\n      mstore\n      0x20\n      add\n      swap1\n      dup2\n      mstore\n      0x20\n      add\n      0x00\n      keccak256\n        /* \"OrganCreateContract.sol\":5572:5597  requests[_id].patientName */\n      0x00\n      add\n        /* \"OrganCreateContract.sol\":5551:5598  requestApproved(_id, requests[_id].patientName) */\n      mload(0x40)\n      tag_129\n      swap3\n      swap2\n      swap1\n      tag_130\n      jump\t// in\n    tag_129:\n      mload(0x40)\n      dup1\n      swap2\n      sub\n      swap1\n      log1\n        /* \"OrganCreateContract.sol\":5616:5623  return; */\n      pop\n      jump(tag_116)\n        /* \"OrganCreateContract.sol\":5105:5637  if (... */\n    tag_123:\n        /* \"OrganCreateContract.sol\":5086:5089  i++ */\n      dup1\n      dup1\n      tag_131\n      swap1\n      tag_97\n      jump\t// in\n    tag_131:\n      swap2\n      pop\n      pop\n        /* \"OrganCreateContract.sol\":5049:5647  for (uint256 i = 1; i <= organCount; i++) {... */\n      jump(tag_117)\n    tag_118:\n      pop\n        /* \"OrganCreateContract.sol\":4966:5653  function approveRequest(uint256 _id, RequestId memory _request) external {... */\n    tag_116:\n      pop\n      pop\n      jump\t// out\n        /* \"OrganCreateContract.sol\":626:653  uint256 public totalRequest */\n    tag_52:\n      sload(0x06)\n      dup2\n      jump\t// out\n        /* \"OrganCreateContract.sol\":429:474  mapping(uint256 => RequestId) public requests */\n    tag_56:\n      mstore(0x20, 0x01)\n      dup1\n      0x00\n      mstore\n      keccak256(0x00, 0x40)\n      0x00\n      swap2\n      pop\n      swap1\n      pop\n      dup1\n      0x00\n      add\n      dup1\n      sload\n      tag_132\n      swap1\n      tag_80\n      jump\t// in\n    tag_132:\n      dup1\n      0x1f\n      add\n      0x20\n      dup1\n      swap2\n      div\n      mul\n      0x20\n      add\n      mload(0x40)\n      swap1\n      dup2\n      add\n      0x40\n      mstore\n      dup1\n      swap3\n      swap2\n      swap1\n      dup2\n      dup2\n      mstore\n      0x20\n      add\n      dup3\n      dup1\n      sload\n      tag_133\n      swap1\n      tag_80\n      jump\t// in\n    tag_133:\n      dup1\n      iszero\n      tag_134\n      jumpi\n      dup1\n      0x1f\n      lt\n      tag_135\n      jumpi\n      0x0100\n      dup1\n      dup4\n      sload\n      div\n      mul\n      dup4\n      mstore\n      swap2\n      0x20\n      add\n      swap2\n      jump(tag_134)\n    tag_135:\n      dup3\n      add\n      swap2\n      swap1\n      0x00\n      mstore\n      keccak256(0x00, 0x20)\n      swap1\n    tag_136:\n      dup2\n      sload\n      dup2\n      mstore\n      swap1\n      0x01\n      add\n      swap1\n      0x20\n      add\n      dup1\n      dup4\n      gt\n      tag_136\n      jumpi\n      dup3\n      swap1\n      sub\n      0x1f\n      and\n      dup3\n      add\n      swap2\n    tag_134:\n      pop\n      pop\n      pop\n      pop\n      pop\n      swap1\n      dup1\n      0x01\n      add\n      0x00\n      swap1\n      sload\n      swap1\n      0x0100\n      exp\n      swap1\n      div\n      0xff\n      and\n      swap1\n      pop\n      dup3\n      jump\t// out\n        /* \"OrganCreateContract.sol\":1590:2161  function createOrgan(string memory _donorName, uint256 _date) external {... */\n    tag_62:\n        /* \"OrganCreateContract.sol\":1671:1681  organCount */\n      0x03\n      0x00\n        /* \"OrganCreateContract.sol\":1671:1683  organCount++ */\n      dup2\n      sload\n      dup1\n      swap3\n      swap2\n      swap1\n      tag_138\n      swap1\n      tag_97\n      jump\t// in\n    tag_138:\n      swap2\n      swap1\n      pop\n      sstore\n      pop\n        /* \"OrganCreateContract.sol\":1693:1707  availableOrgan */\n      0x04\n      0x00\n        /* \"OrganCreateContract.sol\":1693:1709  availableOrgan++ */\n      dup2\n      sload\n      dup1\n      swap3\n      swap2\n      swap1\n      tag_139\n      swap1\n      tag_97\n      jump\t// in\n    tag_139:\n      swap2\n      swap1\n      pop\n      sstore\n      pop\n        /* \"OrganCreateContract.sol\":1740:1936  OrganId(... */\n      mload(0x40)\n      dup1\n      0x0100\n      add\n      0x40\n      mstore\n      dup1\n        /* \"OrganCreateContract.sol\":1761:1771  _donorName */\n      dup4\n        /* \"OrganCreateContract.sol\":1740:1936  OrganId(... */\n      dup2\n      mstore\n      0x20\n      add\n        /* \"OrganCreateContract.sol\":1785:1790  _date */\n      dup3\n        /* \"OrganCreateContract.sol\":1740:1936  OrganId(... */\n      dup2\n      mstore\n      0x20\n      add\n      mload(0x40)\n      dup1\n      0x40\n      add\n      0x40\n      mstore\n      dup1\n      0x0f\n      dup2\n      mstore\n      0x20\n      add\n      0x546f206265206576616c75617465640000000000000000000000000000000000\n      dup2\n      mstore\n      pop\n      dup2\n      mstore\n      0x20\n      add\n      mload(0x40)\n      dup1\n      0x40\n      add\n      0x40\n      mstore\n      dup1\n      0x0e\n      dup2\n      mstore\n      0x20\n      add\n      0x546f2062652061737369676e6564000000000000000000000000000000000000\n      dup2\n      mstore\n      pop\n      dup2\n      mstore\n      0x20\n      add\n        /* \"OrganCreateContract.sol\":1865:1869  true */\n      0x01\n        /* \"OrganCreateContract.sol\":1740:1936  OrganId(... */\n      iszero\n      iszero\n      dup2\n      mstore\n      0x20\n      add\n        /* \"OrganCreateContract.sol\":1883:1888  false */\n      0x00\n        /* \"OrganCreateContract.sol\":1740:1936  OrganId(... */\n      iszero\n      iszero\n      dup2\n      mstore\n      0x20\n      add\n        /* \"OrganCreateContract.sol\":1902:1907  false */\n      0x00\n        /* \"OrganCreateContract.sol\":1740:1936  OrganId(... */\n      iszero\n      iszero\n      dup2\n      mstore\n      0x20\n      add\n        /* \"OrganCreateContract.sol\":1921:1926  false */\n      0x00\n        /* \"OrganCreateContract.sol\":1740:1936  OrganId(... */\n      iszero\n      iszero\n      dup2\n      mstore\n      pop\n        /* \"OrganCreateContract.sol\":1719:1725  organs */\n      0x02\n        /* \"OrganCreateContract.sol\":1719:1737  organs[organCount] */\n      0x00\n        /* \"OrganCreateContract.sol\":1726:1736  organCount */\n      sload(0x03)\n        /* \"OrganCreateContract.sol\":1719:1737  organs[organCount] */\n      dup2\n      mstore\n      0x20\n      add\n      swap1\n      dup2\n      mstore\n      0x20\n      add\n      0x00\n      keccak256\n        /* \"OrganCreateContract.sol\":1719:1936  organs[organCount] = OrganId(... */\n      0x00\n      dup3\n      add\n      mload\n      dup2\n      0x00\n      add\n      swap1\n      dup2\n      tag_140\n      swap2\n      swap1\n      tag_73\n      jump\t// in\n    tag_140:\n      pop\n      0x20\n      dup3\n      add\n      mload\n      dup2\n      0x01\n      add\n      sstore\n      0x40\n      dup3\n      add\n      mload\n      dup2\n      0x02\n      add\n      swap1\n      dup2\n      tag_141\n      swap2\n      swap1\n      tag_73\n      jump\t// in\n    tag_141:\n      pop\n      0x60\n      dup3\n      add\n      mload\n      dup2\n      0x03\n      add\n      swap1\n      dup2\n      tag_142\n      swap2\n      swap1\n      tag_73\n      jump\t// in\n    tag_142:\n      pop\n      0x80\n      dup3\n      add\n      mload\n      dup2\n      0x04\n      add\n      exp(0x0100, 0x00)\n      dup2\n      sload\n      dup2\n      0xff\n      mul\n      not\n      and\n      swap1\n      dup4\n      iszero\n      iszero\n      mul\n      or\n      swap1\n      sstore\n      pop\n      0xa0\n      dup3\n      add\n      mload\n      dup2\n      0x04\n      add\n      exp(0x0100, 0x01)\n      dup2\n      sload\n      dup2\n      0xff\n      mul\n      not\n      and\n      swap1\n      dup4\n      iszero\n      iszero\n      mul\n      or\n      swap1\n      sstore\n      pop\n      0xc0\n      dup3\n      add\n      mload\n      dup2\n      0x04\n      add\n      exp(0x0100, 0x02)\n      dup2\n      sload\n      dup2\n      0xff\n      mul\n      not\n      and\n      swap1\n      dup4\n      iszero\n      iszero\n      mul\n      or\n      swap1\n      sstore\n      pop\n      0xe0\n      dup3\n      add\n      mload\n      dup2\n      0x04\n      add\n      exp(0x0100, 0x03)\n      dup2\n      sload\n      dup2\n      0xff\n      mul\n      not\n      and\n      swap1\n      dup4\n      iszero\n      iszero\n      mul\n      or\n      swap1\n      sstore\n      pop\n      swap1\n      pop\n      pop\n        /* \"OrganCreateContract.sol\":1951:2154  organIdCreated(... */\n      0x0216ea2081e6ea51306ad90d22fb212f034e7246f7e718ecc8caf5e36a5a9d22\n        /* \"OrganCreateContract.sol\":1979:1989  _donorName */\n      dup3\n        /* \"OrganCreateContract.sol\":2003:2008  _date */\n      dup3\n        /* \"OrganCreateContract.sol\":2083:2087  true */\n      0x01\n        /* \"OrganCreateContract.sol\":2101:2106  false */\n      0x00\n        /* \"OrganCreateContract.sol\":2120:2125  false */\n      dup1\n        /* \"OrganCreateContract.sol\":2139:2144  false */\n      0x00\n        /* \"OrganCreateContract.sol\":1951:2154  organIdCreated(... */\n      mload(0x40)\n      tag_143\n      swap7\n      swap6\n      swap5\n      swap4\n      swap3\n      swap2\n      swap1\n      tag_144\n      jump\t// in\n    tag_143:\n      mload(0x40)\n      dup1\n      swap2\n      sub\n      swap1\n      log1\n        /* \"OrganCreateContract.sol\":1590:2161  function createOrgan(string memory _donorName, uint256 _date) external {... */\n      pop\n      pop\n      jump\t// out\n        /* \"OrganCreateContract.sol\":4385:4496  function getRequest(uint256 _id) external view returns (RequestId memory) {... */\n    tag_65:\n        /* \"OrganCreateContract.sol\":4441:4457  RequestId memory */\n      tag_145\n      tag_146\n      jump\t// in\n    tag_145:\n        /* \"OrganCreateContract.sol\":4476:4484  requests */\n      0x01\n        /* \"OrganCreateContract.sol\":4476:4489  requests[_id] */\n      0x00\n        /* \"OrganCreateContract.sol\":4485:4488  _id */\n      dup4\n        /* \"OrganCreateContract.sol\":4476:4489  requests[_id] */\n      dup2\n      mstore\n      0x20\n      add\n      swap1\n      dup2\n      mstore\n      0x20\n      add\n      0x00\n      keccak256\n        /* \"OrganCreateContract.sol\":4469:4489  return requests[_id] */\n      mload(0x40)\n      dup1\n      0x40\n      add\n      0x40\n      mstore\n      swap1\n      dup2\n      0x00\n      dup3\n      add\n      dup1\n      sload\n      tag_148\n      swap1\n      tag_80\n      jump\t// in\n    tag_148:\n      dup1\n      0x1f\n      add\n      0x20\n      dup1\n      swap2\n      div\n      mul\n      0x20\n      add\n      mload(0x40)\n      swap1\n      dup2\n      add\n      0x40\n      mstore\n      dup1\n      swap3\n      swap2\n      swap1\n      dup2\n      dup2\n      mstore\n      0x20\n      add\n      dup3\n      dup1\n      sload\n      tag_149\n      swap1\n      tag_80\n      jump\t// in\n    tag_149:\n      dup1\n      iszero\n      tag_150\n      jumpi\n      dup1\n      0x1f\n      lt\n      tag_151\n      jumpi\n      0x0100\n      dup1\n      dup4\n      sload\n      div\n      mul\n      dup4\n      mstore\n      swap2\n      0x20\n      add\n      swap2\n      jump(tag_150)\n    tag_151:\n      dup3\n      add\n      swap2\n      swap1\n      0x00\n      mstore\n      keccak256(0x00, 0x20)\n      swap1\n    tag_152:\n      dup2\n      sload\n      dup2\n      mstore\n      swap1\n      0x01\n      add\n      swap1\n      0x20\n      add\n      dup1\n      dup4\n      gt\n      tag_152\n      jumpi\n      dup3\n      swap1\n      sub\n      0x1f\n      and\n      dup3\n      add\n      swap2\n    tag_150:\n      pop\n      pop\n      pop\n      pop\n      pop\n      dup2\n      mstore\n      0x20\n      add\n      0x01\n      dup3\n      add\n      0x00\n      swap1\n      sload\n      swap1\n      0x0100\n      exp\n      swap1\n      div\n      0xff\n      and\n      iszero\n      iszero\n      iszero\n      iszero\n      dup2\n      mstore\n      pop\n      pop\n      swap1\n      pop\n        /* \"OrganCreateContract.sol\":4385:4496  function getRequest(uint256 _id) external view returns (RequestId memory) {... */\n      swap2\n      swap1\n      pop\n      jump\t// out\n        /* \"OrganCreateContract.sol\":3244:3352  function getAvailableOrganCount() public view returns (uint256 count) {... */\n    tag_69:\n        /* \"OrganCreateContract.sol\":3299:3312  uint256 count */\n      0x00\n        /* \"OrganCreateContract.sol\":3331:3345  availableOrgan */\n      sload(0x04)\n        /* \"OrganCreateContract.sol\":3324:3345  return availableOrgan */\n      swap1\n      pop\n        /* \"OrganCreateContract.sol\":3244:3352  function getAvailableOrganCount() public view returns (uint256 count) {... */\n      swap1\n      jump\t// out\n    tag_77:\n      mload(0x40)\n      dup1\n      0x0100\n      add\n      0x40\n      mstore\n      dup1\n      0x60\n      dup2\n      mstore\n      0x20\n      add\n      0x00\n      dup2\n      mstore\n      0x20\n      add\n      0x60\n      dup2\n      mstore\n      0x20\n      add\n      0x60\n      dup2\n      mstore\n      0x20\n      add\n      iszero(iszero(0x00))\n      dup2\n      mstore\n      0x20\n      add\n      iszero(iszero(0x00))\n      dup2\n      mstore\n      0x20\n      add\n      iszero(iszero(0x00))\n      dup2\n      mstore\n      0x20\n      add\n      iszero(iszero(0x00))\n      dup2\n      mstore\n      pop\n      swap1\n      jump\t// out\n    tag_146:\n      mload(0x40)\n      dup1\n      0x40\n      add\n      0x40\n      mstore\n      dup1\n      0x60\n      dup2\n      mstore\n      0x20\n      add\n      iszero(iszero(0x00))\n      dup2\n      mstore\n      pop\n      swap1\n      jump\t// out\n        /* \"#utility.yul\":7:84   */\n    tag_154:\n        /* \"#utility.yul\":44:51   */\n      0x00\n        /* \"#utility.yul\":73:78   */\n      dup2\n        /* \"#utility.yul\":62:78   */\n      swap1\n      pop\n        /* \"#utility.yul\":7:84   */\n      swap2\n      swap1\n      pop\n      jump\t// out\n        /* \"#utility.yul\":90:208   */\n    tag_155:\n        /* \"#utility.yul\":177:201   */\n      tag_214\n        /* \"#utility.yul\":195:200   */\n      dup2\n        /* \"#utility.yul\":177:201   */\n      tag_154\n      jump\t// in\n    tag_214:\n        /* \"#utility.yul\":172:175   */\n      dup3\n        /* \"#utility.yul\":165:202   */\n      mstore\n        /* \"#utility.yul\":90:208   */\n      pop\n      pop\n      jump\t// out\n        /* \"#utility.yul\":214:436   */\n    tag_21:\n        /* \"#utility.yul\":307:311   */\n      0x00\n        /* \"#utility.yul\":345:347   */\n      0x20\n        /* \"#utility.yul\":334:343   */\n      dup3\n        /* \"#utility.yul\":330:348   */\n      add\n        /* \"#utility.yul\":322:348   */\n      swap1\n      pop\n        /* \"#utility.yul\":358:429   */\n      tag_216\n        /* \"#utility.yul\":426:427   */\n      0x00\n        /* \"#utility.yul\":415:424   */\n      dup4\n        /* \"#utility.yul\":411:428   */\n      add\n        /* \"#utility.yul\":402:408   */\n      dup5\n        /* \"#utility.yul\":358:429   */\n      tag_155\n      jump\t// in\n    tag_216:\n        /* \"#utility.yul\":214:436   */\n      swap3\n      swap2\n      pop\n      pop\n      jump\t// out\n        /* \"#utility.yul\":442:517   */\n    tag_156:\n        /* \"#utility.yul\":475:481   */\n      0x00\n        /* \"#utility.yul\":508:510   */\n      0x40\n        /* \"#utility.yul\":502:511   */\n      mload\n        /* \"#utility.yul\":492:511   */\n      swap1\n      pop\n        /* \"#utility.yul\":442:517   */\n      swap1\n      jump\t// out\n        /* \"#utility.yul\":523:640   */\n    tag_157:\n        /* \"#utility.yul\":632:633   */\n      0x00\n        /* \"#utility.yul\":629:630   */\n      dup1\n        /* \"#utility.yul\":622:634   */\n      revert\n        /* \"#utility.yul\":646:763   */\n    tag_158:\n        /* \"#utility.yul\":755:756   */\n      0x00\n        /* \"#utility.yul\":752:753   */\n      dup1\n        /* \"#utility.yul\":745:757   */\n      revert\n        /* \"#utility.yul\":769:891   */\n    tag_159:\n        /* \"#utility.yul\":842:866   */\n      tag_221\n        /* \"#utility.yul\":860:865   */\n      dup2\n        /* \"#utility.yul\":842:866   */\n      tag_154\n      jump\t// in\n    tag_221:\n        /* \"#utility.yul\":835:840   */\n      dup2\n        /* \"#utility.yul\":832:867   */\n      eq\n        /* \"#utility.yul\":822:885   */\n      tag_222\n      jumpi\n        /* \"#utility.yul\":881:882   */\n      0x00\n        /* \"#utility.yul\":878:879   */\n      dup1\n        /* \"#utility.yul\":871:883   */\n      revert\n        /* \"#utility.yul\":822:885   */\n    tag_222:\n        /* \"#utility.yul\":769:891   */\n      pop\n      jump\t// out\n        /* \"#utility.yul\":897:1036   */\n    tag_160:\n        /* \"#utility.yul\":943:948   */\n      0x00\n        /* \"#utility.yul\":981:987   */\n      dup2\n        /* \"#utility.yul\":968:988   */\n      calldataload\n        /* \"#utility.yul\":959:988   */\n      swap1\n      pop\n        /* \"#utility.yul\":997:1030   */\n      tag_224\n        /* \"#utility.yul\":1024:1029   */\n      dup2\n        /* \"#utility.yul\":997:1030   */\n      tag_159\n      jump\t// in\n    tag_224:\n        /* \"#utility.yul\":897:1036   */\n      swap3\n      swap2\n      pop\n      pop\n      jump\t// out\n        /* \"#utility.yul\":1042:1159   */\n    tag_161:\n        /* \"#utility.yul\":1151:1152   */\n      0x00\n        /* \"#utility.yul\":1148:1149   */\n      dup1\n        /* \"#utility.yul\":1141:1153   */\n      revert\n        /* \"#utility.yul\":1165:1267   */\n    tag_162:\n        /* \"#utility.yul\":1206:1212   */\n      0x00\n        /* \"#utility.yul\":1257:1259   */\n      0x1f\n        /* \"#utility.yul\":1253:1260   */\n      not\n        /* \"#utility.yul\":1248:1250   */\n      0x1f\n        /* \"#utility.yul\":1241:1246   */\n      dup4\n        /* \"#utility.yul\":1237:1251   */\n      add\n        /* \"#utility.yul\":1233:1261   */\n      and\n        /* \"#utility.yul\":1223:1261   */\n      swap1\n      pop\n        /* \"#utility.yul\":1165:1267   */\n      swap2\n      swap1\n      pop\n      jump\t// out\n        /* \"#utility.yul\":1273:1453   */\n    tag_163:\n        /* \"#utility.yul\":1321:1398   */\n      0x4e487b7100000000000000000000000000000000000000000000000000000000\n        /* \"#utility.yul\":1318:1319   */\n      0x00\n        /* \"#utility.yul\":1311:1399   */\n      mstore\n        /* \"#utility.yul\":1418:1422   */\n      0x41\n        /* \"#utility.yul\":1415:1416   */\n      0x04\n        /* \"#utility.yul\":1408:1423   */\n      mstore\n        /* \"#utility.yul\":1442:1446   */\n      0x24\n        /* \"#utility.yul\":1439:1440   */\n      0x00\n        /* \"#utility.yul\":1432:1447   */\n      revert\n        /* \"#utility.yul\":1459:1740   */\n    tag_164:\n        /* \"#utility.yul\":1542:1569   */\n      tag_229\n        /* \"#utility.yul\":1564:1568   */\n      dup3\n        /* \"#utility.yul\":1542:1569   */\n      tag_162\n      jump\t// in\n    tag_229:\n        /* \"#utility.yul\":1534:1540   */\n      dup2\n        /* \"#utility.yul\":1530:1570   */\n      add\n        /* \"#utility.yul\":1672:1678   */\n      dup2\n        /* \"#utility.yul\":1660:1670   */\n      dup2\n        /* \"#utility.yul\":1657:1679   */\n      lt\n        /* \"#utility.yul\":1636:1654   */\n      0xffffffffffffffff\n        /* \"#utility.yul\":1624:1634   */\n      dup3\n        /* \"#utility.yul\":1621:1655   */\n      gt\n        /* \"#utility.yul\":1618:1680   */\n      or\n        /* \"#utility.yul\":1615:1703   */\n      iszero\n      tag_230\n      jumpi\n        /* \"#utility.yul\":1683:1701   */\n      tag_231\n      tag_163\n      jump\t// in\n    tag_231:\n        /* \"#utility.yul\":1615:1703   */\n    tag_230:\n        /* \"#utility.yul\":1723:1733   */\n      dup1\n        /* \"#utility.yul\":1719:1721   */\n      0x40\n        /* \"#utility.yul\":1712:1734   */\n      mstore\n        /* \"#utility.yul\":1502:1740   */\n      pop\n        /* \"#utility.yul\":1459:1740   */\n      pop\n      pop\n      jump\t// out\n        /* \"#utility.yul\":1746:1875   */\n    tag_165:\n        /* \"#utility.yul\":1780:1786   */\n      0x00\n        /* \"#utility.yul\":1807:1827   */\n      tag_233\n      tag_156\n      jump\t// in\n    tag_233:\n        /* \"#utility.yul\":1797:1827   */\n      swap1\n      pop\n        /* \"#utility.yul\":1836:1869   */\n      tag_234\n        /* \"#utility.yul\":1864:1868   */\n      dup3\n        /* \"#utility.yul\":1856:1862   */\n      dup3\n        /* \"#utility.yul\":1836:1869   */\n      tag_164\n      jump\t// in\n    tag_234:\n        /* \"#utility.yul\":1746:1875   */\n      swap2\n      swap1\n      pop\n      jump\t// out\n        /* \"#utility.yul\":1881:1998   */\n    tag_166:\n        /* \"#utility.yul\":1990:1991   */\n      0x00\n        /* \"#utility.yul\":1987:1988   */\n      dup1\n        /* \"#utility.yul\":1980:1992   */\n      revert\n        /* \"#utility.yul\":2004:2121   */\n    tag_167:\n        /* \"#utility.yul\":2113:2114   */\n      0x00\n        /* \"#utility.yul\":2110:2111   */\n      dup1\n        /* \"#utility.yul\":2103:2115   */\n      revert\n        /* \"#utility.yul\":2127:2244   */\n    tag_168:\n        /* \"#utility.yul\":2236:2237   */\n      0x00\n        /* \"#utility.yul\":2233:2234   */\n      dup1\n        /* \"#utility.yul\":2226:2238   */\n      revert\n        /* \"#utility.yul\":2250:2558   */\n    tag_169:\n        /* \"#utility.yul\":2312:2316   */\n      0x00\n        /* \"#utility.yul\":2402:2420   */\n      0xffffffffffffffff\n        /* \"#utility.yul\":2394:2400   */\n      dup3\n        /* \"#utility.yul\":2391:2421   */\n      gt\n        /* \"#utility.yul\":2388:2444   */\n      iszero\n      tag_239\n      jumpi\n        /* \"#utility.yul\":2424:2442   */\n      tag_240\n      tag_163\n      jump\t// in\n    tag_240:\n        /* \"#utility.yul\":2388:2444   */\n    tag_239:\n        /* \"#utility.yul\":2462:2491   */\n      tag_241\n        /* \"#utility.yul\":2484:2490   */\n      dup3\n        /* \"#utility.yul\":2462:2491   */\n      tag_162\n      jump\t// in\n    tag_241:\n        /* \"#utility.yul\":2454:2491   */\n      swap1\n      pop\n        /* \"#utility.yul\":2546:2550   */\n      0x20\n        /* \"#utility.yul\":2540:2544   */\n      dup2\n        /* \"#utility.yul\":2536:2551   */\n      add\n        /* \"#utility.yul\":2528:2551   */\n      swap1\n      pop\n        /* \"#utility.yul\":2250:2558   */\n      swap2\n      swap1\n      pop\n      jump\t// out\n        /* \"#utility.yul\":2564:2712   */\n    tag_170:\n        /* \"#utility.yul\":2662:2668   */\n      dup3\n        /* \"#utility.yul\":2657:2660   */\n      dup2\n        /* \"#utility.yul\":2652:2655   */\n      dup4\n        /* \"#utility.yul\":2639:2669   */\n      calldatacopy\n        /* \"#utility.yul\":2703:2704   */\n      0x00\n        /* \"#utility.yul\":2694:2700   */\n      dup4\n        /* \"#utility.yul\":2689:2692   */\n      dup4\n        /* \"#utility.yul\":2685:2701   */\n      add\n        /* \"#utility.yul\":2678:2705   */\n      mstore\n        /* \"#utility.yul\":2564:2712   */\n      pop\n      pop\n      pop\n      jump\t// out\n        /* \"#utility.yul\":2718:3143   */\n    tag_171:\n        /* \"#utility.yul\":2796:2801   */\n      0x00\n        /* \"#utility.yul\":2821:2887   */\n      tag_244\n        /* \"#utility.yul\":2837:2886   */\n      tag_245\n        /* \"#utility.yul\":2879:2885   */\n      dup5\n        /* \"#utility.yul\":2837:2886   */\n      tag_169\n      jump\t// in\n    tag_245:\n        /* \"#utility.yul\":2821:2887   */\n      tag_165\n      jump\t// in\n    tag_244:\n        /* \"#utility.yul\":2812:2887   */\n      swap1\n      pop\n        /* \"#utility.yul\":2910:2916   */\n      dup3\n        /* \"#utility.yul\":2903:2908   */\n      dup2\n        /* \"#utility.yul\":2896:2917   */\n      mstore\n        /* \"#utility.yul\":2948:2952   */\n      0x20\n        /* \"#utility.yul\":2941:2946   */\n      dup2\n        /* \"#utility.yul\":2937:2953   */\n      add\n        /* \"#utility.yul\":2986:2989   */\n      dup5\n        /* \"#utility.yul\":2977:2983   */\n      dup5\n        /* \"#utility.yul\":2972:2975   */\n      dup5\n        /* \"#utility.yul\":2968:2984   */\n      add\n        /* \"#utility.yul\":2965:2990   */\n      gt\n        /* \"#utility.yul\":2962:3074   */\n      iszero\n      tag_246\n      jumpi\n        /* \"#utility.yul\":2993:3072   */\n      tag_247\n      tag_168\n      jump\t// in\n    tag_247:\n        /* \"#utility.yul\":2962:3074   */\n    tag_246:\n        /* \"#utility.yul\":3083:3137   */\n      tag_248\n        /* \"#utility.yul\":3130:3136   */\n      dup5\n        /* \"#utility.yul\":3125:3128   */\n      dup3\n        /* \"#utility.yul\":3120:3123   */\n      dup6\n        /* \"#utility.yul\":3083:3137   */\n      tag_170\n      jump\t// in\n    tag_248:\n        /* \"#utility.yul\":2802:3143   */\n      pop\n        /* \"#utility.yul\":2718:3143   */\n      swap4\n      swap3\n      pop\n      pop\n      pop\n      jump\t// out\n        /* \"#utility.yul\":3163:3503   */\n    tag_172:\n        /* \"#utility.yul\":3219:3224   */\n      0x00\n        /* \"#utility.yul\":3268:3271   */\n      dup3\n        /* \"#utility.yul\":3261:3265   */\n      0x1f\n        /* \"#utility.yul\":3253:3259   */\n      dup4\n        /* \"#utility.yul\":3249:3266   */\n      add\n        /* \"#utility.yul\":3245:3272   */\n      slt\n        /* \"#utility.yul\":3235:3357   */\n      tag_250\n      jumpi\n        /* \"#utility.yul\":3276:3355   */\n      tag_251\n      tag_167\n      jump\t// in\n    tag_251:\n        /* \"#utility.yul\":3235:3357   */\n    tag_250:\n        /* \"#utility.yul\":3393:3399   */\n      dup2\n        /* \"#utility.yul\":3380:3400   */\n      calldataload\n        /* \"#utility.yul\":3418:3497   */\n      tag_252\n        /* \"#utility.yul\":3493:3496   */\n      dup5\n        /* \"#utility.yul\":3485:3491   */\n      dup3\n        /* \"#utility.yul\":3478:3482   */\n      0x20\n        /* \"#utility.yul\":3470:3476   */\n      dup7\n        /* \"#utility.yul\":3466:3483   */\n      add\n        /* \"#utility.yul\":3418:3497   */\n      tag_171\n      jump\t// in\n    tag_252:\n        /* \"#utility.yul\":3409:3497   */\n      swap2\n      pop\n        /* \"#utility.yul\":3225:3503   */\n      pop\n        /* \"#utility.yul\":3163:3503   */\n      swap3\n      swap2\n      pop\n      pop\n      jump\t// out\n        /* \"#utility.yul\":3509:3599   */\n    tag_173:\n        /* \"#utility.yul\":3543:3550   */\n      0x00\n        /* \"#utility.yul\":3586:3591   */\n      dup2\n        /* \"#utility.yul\":3579:3592   */\n      iszero\n        /* \"#utility.yul\":3572:3593   */\n      iszero\n        /* \"#utility.yul\":3561:3593   */\n      swap1\n      pop\n        /* \"#utility.yul\":3509:3599   */\n      swap2\n      swap1\n      pop\n      jump\t// out\n        /* \"#utility.yul\":3605:3721   */\n    tag_174:\n        /* \"#utility.yul\":3675:3696   */\n      tag_255\n        /* \"#utility.yul\":3690:3695   */\n      dup2\n        /* \"#utility.yul\":3675:3696   */\n      tag_173\n      jump\t// in\n    tag_255:\n        /* \"#utility.yul\":3668:3673   */\n      dup2\n        /* \"#utility.yul\":3665:3697   */\n      eq\n        /* \"#utility.yul\":3655:3715   */\n      tag_256\n      jumpi\n        /* \"#utility.yul\":3711:3712   */\n      0x00\n        /* \"#utility.yul\":3708:3709   */\n      dup1\n        /* \"#utility.yul\":3701:3713   */\n      revert\n        /* \"#utility.yul\":3655:3715   */\n    tag_256:\n        /* \"#utility.yul\":3605:3721   */\n      pop\n      jump\t// out\n        /* \"#utility.yul\":3727:3860   */\n    tag_175:\n        /* \"#utility.yul\":3770:3775   */\n      0x00\n        /* \"#utility.yul\":3808:3814   */\n      dup2\n        /* \"#utility.yul\":3795:3815   */\n      calldataload\n        /* \"#utility.yul\":3786:3815   */\n      swap1\n      pop\n        /* \"#utility.yul\":3824:3854   */\n      tag_258\n        /* \"#utility.yul\":3848:3853   */\n      dup2\n        /* \"#utility.yul\":3824:3854   */\n      tag_174\n      jump\t// in\n    tag_258:\n        /* \"#utility.yul\":3727:3860   */\n      swap3\n      swap2\n      pop\n      pop\n      jump\t// out\n        /* \"#utility.yul\":3908:5998   */\n    tag_176:\n        /* \"#utility.yul\":3980:3985   */\n      0x00\n        /* \"#utility.yul\":4024:4030   */\n      0x0100\n        /* \"#utility.yul\":4012:4021   */\n      dup3\n        /* \"#utility.yul\":4007:4010   */\n      dup5\n        /* \"#utility.yul\":4003:4022   */\n      sub\n        /* \"#utility.yul\":3999:4031   */\n      slt\n        /* \"#utility.yul\":3996:4115   */\n      iszero\n      tag_260\n      jumpi\n        /* \"#utility.yul\":4034:4113   */\n      tag_261\n      tag_161\n      jump\t// in\n    tag_261:\n        /* \"#utility.yul\":3996:4115   */\n    tag_260:\n        /* \"#utility.yul\":4133:4156   */\n      tag_262\n        /* \"#utility.yul\":4149:4155   */\n      0x0100\n        /* \"#utility.yul\":4133:4156   */\n      tag_165\n      jump\t// in\n    tag_262:\n        /* \"#utility.yul\":4124:4156   */\n      swap1\n      pop\n        /* \"#utility.yul\":4248:4249   */\n      0x00\n        /* \"#utility.yul\":4237:4246   */\n      dup3\n        /* \"#utility.yul\":4233:4250   */\n      add\n        /* \"#utility.yul\":4220:4251   */\n      calldataload\n        /* \"#utility.yul\":4278:4296   */\n      0xffffffffffffffff\n        /* \"#utility.yul\":4270:4276   */\n      dup2\n        /* \"#utility.yul\":4267:4297   */\n      gt\n        /* \"#utility.yul\":4264:4381   */\n      iszero\n      tag_263\n      jumpi\n        /* \"#utility.yul\":4300:4379   */\n      tag_264\n      tag_166\n      jump\t// in\n    tag_264:\n        /* \"#utility.yul\":4264:4381   */\n    tag_263:\n        /* \"#utility.yul\":4420:4479   */\n      tag_265\n        /* \"#utility.yul\":4475:4478   */\n      dup5\n        /* \"#utility.yul\":4466:4472   */\n      dup3\n        /* \"#utility.yul\":4455:4464   */\n      dup6\n        /* \"#utility.yul\":4451:4473   */\n      add\n        /* \"#utility.yul\":4420:4479   */\n      tag_172\n      jump\t// in\n    tag_265:\n        /* \"#utility.yul\":4413:4417   */\n      0x00\n        /* \"#utility.yul\":4406:4411   */\n      dup4\n        /* \"#utility.yul\":4402:4418   */\n      add\n        /* \"#utility.yul\":4395:4480   */\n      mstore\n        /* \"#utility.yul\":4166:4491   */\n      pop\n        /* \"#utility.yul\":4557:4559   */\n      0x20\n        /* \"#utility.yul\":4598:4647   */\n      tag_266\n        /* \"#utility.yul\":4643:4646   */\n      dup5\n        /* \"#utility.yul\":4634:4640   */\n      dup3\n        /* \"#utility.yul\":4623:4632   */\n      dup6\n        /* \"#utility.yul\":4619:4641   */\n      add\n        /* \"#utility.yul\":4598:4647   */\n      tag_160\n      jump\t// in\n    tag_266:\n        /* \"#utility.yul\":4591:4595   */\n      0x20\n        /* \"#utility.yul\":4584:4589   */\n      dup4\n        /* \"#utility.yul\":4580:4596   */\n      add\n        /* \"#utility.yul\":4573:4648   */\n      mstore\n        /* \"#utility.yul\":4501:4659   */\n      pop\n        /* \"#utility.yul\":4751:4753   */\n      0x40\n        /* \"#utility.yul\":4740:4749   */\n      dup3\n        /* \"#utility.yul\":4736:4754   */\n      add\n        /* \"#utility.yul\":4723:4755   */\n      calldataload\n        /* \"#utility.yul\":4782:4800   */\n      0xffffffffffffffff\n        /* \"#utility.yul\":4774:4780   */\n      dup2\n        /* \"#utility.yul\":4771:4801   */\n      gt\n        /* \"#utility.yul\":4768:4885   */\n      iszero\n      tag_267\n      jumpi\n        /* \"#utility.yul\":4804:4883   */\n      tag_268\n      tag_166\n      jump\t// in\n    tag_268:\n        /* \"#utility.yul\":4768:4885   */\n    tag_267:\n        /* \"#utility.yul\":4924:4983   */\n      tag_269\n        /* \"#utility.yul\":4979:4982   */\n      dup5\n        /* \"#utility.yul\":4970:4976   */\n      dup3\n        /* \"#utility.yul\":4959:4968   */\n      dup6\n        /* \"#utility.yul\":4955:4977   */\n      add\n        /* \"#utility.yul\":4924:4983   */\n      tag_172\n      jump\t// in\n    tag_269:\n        /* \"#utility.yul\":4917:4921   */\n      0x40\n        /* \"#utility.yul\":4910:4915   */\n      dup4\n        /* \"#utility.yul\":4906:4922   */\n      add\n        /* \"#utility.yul\":4899:4984   */\n      mstore\n        /* \"#utility.yul\":4669:4995   */\n      pop\n        /* \"#utility.yul\":5087:5089   */\n      0x60\n        /* \"#utility.yul\":5076:5085   */\n      dup3\n        /* \"#utility.yul\":5072:5090   */\n      add\n        /* \"#utility.yul\":5059:5091   */\n      calldataload\n        /* \"#utility.yul\":5118:5136   */\n      0xffffffffffffffff\n        /* \"#utility.yul\":5110:5116   */\n      dup2\n        /* \"#utility.yul\":5107:5137   */\n      gt\n        /* \"#utility.yul\":5104:5221   */\n      iszero\n      tag_270\n      jumpi\n        /* \"#utility.yul\":5140:5219   */\n      tag_271\n      tag_166\n      jump\t// in\n    tag_271:\n        /* \"#utility.yul\":5104:5221   */\n    tag_270:\n        /* \"#utility.yul\":5260:5319   */\n      tag_272\n        /* \"#utility.yul\":5315:5318   */\n      dup5\n        /* \"#utility.yul\":5306:5312   */\n      dup3\n        /* \"#utility.yul\":5295:5304   */\n      dup6\n        /* \"#utility.yul\":5291:5313   */\n      add\n        /* \"#utility.yul\":5260:5319   */\n      tag_172\n      jump\t// in\n    tag_272:\n        /* \"#utility.yul\":5253:5257   */\n      0x60\n        /* \"#utility.yul\":5246:5251   */\n      dup4\n        /* \"#utility.yul\":5242:5258   */\n      add\n        /* \"#utility.yul\":5235:5320   */\n      mstore\n        /* \"#utility.yul\":5005:5331   */\n      pop\n        /* \"#utility.yul\":5397:5400   */\n      0x80\n        /* \"#utility.yul\":5439:5485   */\n      tag_273\n        /* \"#utility.yul\":5481:5484   */\n      dup5\n        /* \"#utility.yul\":5472:5478   */\n      dup3\n        /* \"#utility.yul\":5461:5470   */\n      dup6\n        /* \"#utility.yul\":5457:5479   */\n      add\n        /* \"#utility.yul\":5439:5485   */\n      tag_175\n      jump\t// in\n    tag_273:\n        /* \"#utility.yul\":5432:5436   */\n      0x80\n        /* \"#utility.yul\":5425:5430   */\n      dup4\n        /* \"#utility.yul\":5421:5437   */\n      add\n        /* \"#utility.yul\":5414:5486   */\n      mstore\n        /* \"#utility.yul\":5341:5497   */\n      pop\n        /* \"#utility.yul\":5563:5566   */\n      0xa0\n        /* \"#utility.yul\":5605:5651   */\n      tag_274\n        /* \"#utility.yul\":5647:5650   */\n      dup5\n        /* \"#utility.yul\":5638:5644   */\n      dup3\n        /* \"#utility.yul\":5627:5636   */\n      dup6\n        /* \"#utility.yul\":5623:5645   */\n      add\n        /* \"#utility.yul\":5605:5651   */\n      tag_175\n      jump\t// in\n    tag_274:\n        /* \"#utility.yul\":5598:5602   */\n      0xa0\n        /* \"#utility.yul\":5591:5596   */\n      dup4\n        /* \"#utility.yul\":5587:5603   */\n      add\n        /* \"#utility.yul\":5580:5652   */\n      mstore\n        /* \"#utility.yul\":5507:5663   */\n      pop\n        /* \"#utility.yul\":5726:5729   */\n      0xc0\n        /* \"#utility.yul\":5768:5814   */\n      tag_275\n        /* \"#utility.yul\":5810:5813   */\n      dup5\n        /* \"#utility.yul\":5801:5807   */\n      dup3\n        /* \"#utility.yul\":5790:5799   */\n      dup6\n        /* \"#utility.yul\":5786:5808   */\n      add\n        /* \"#utility.yul\":5768:5814   */\n      tag_175\n      jump\t// in\n    tag_275:\n        /* \"#utility.yul\":5761:5765   */\n      0xc0\n        /* \"#utility.yul\":5754:5759   */\n      dup4\n        /* \"#utility.yul\":5750:5766   */\n      add\n        /* \"#utility.yul\":5743:5815   */\n      mstore\n        /* \"#utility.yul\":5673:5826   */\n      pop\n        /* \"#utility.yul\":5891:5894   */\n      0xe0\n        /* \"#utility.yul\":5933:5979   */\n      tag_276\n        /* \"#utility.yul\":5975:5978   */\n      dup5\n        /* \"#utility.yul\":5966:5972   */\n      dup3\n        /* \"#utility.yul\":5955:5964   */\n      dup6\n        /* \"#utility.yul\":5951:5973   */\n      add\n        /* \"#utility.yul\":5933:5979   */\n      tag_175\n      jump\t// in\n    tag_276:\n        /* \"#utility.yul\":5926:5930   */\n      0xe0\n        /* \"#utility.yul\":5919:5924   */\n      dup4\n        /* \"#utility.yul\":5915:5931   */\n      add\n        /* \"#utility.yul\":5908:5980   */\n      mstore\n        /* \"#utility.yul\":5836:5991   */\n      pop\n        /* \"#utility.yul\":3908:5998   */\n      swap3\n      swap2\n      pop\n      pop\n      jump\t// out\n        /* \"#utility.yul\":6004:6684   */\n    tag_24:\n        /* \"#utility.yul\":6095:6101   */\n      0x00\n        /* \"#utility.yul\":6103:6109   */\n      dup1\n        /* \"#utility.yul\":6152:6154   */\n      0x40\n        /* \"#utility.yul\":6140:6149   */\n      dup4\n        /* \"#utility.yul\":6131:6138   */\n      dup6\n        /* \"#utility.yul\":6127:6150   */\n      sub\n        /* \"#utility.yul\":6123:6155   */\n      slt\n        /* \"#utility.yul\":6120:6239   */\n      iszero\n      tag_278\n      jumpi\n        /* \"#utility.yul\":6158:6237   */\n      tag_279\n      tag_157\n      jump\t// in\n    tag_279:\n        /* \"#utility.yul\":6120:6239   */\n    tag_278:\n        /* \"#utility.yul\":6278:6279   */\n      0x00\n        /* \"#utility.yul\":6303:6356   */\n      tag_280\n        /* \"#utility.yul\":6348:6355   */\n      dup6\n        /* \"#utility.yul\":6339:6345   */\n      dup3\n        /* \"#utility.yul\":6328:6337   */\n      dup7\n        /* \"#utility.yul\":6324:6346   */\n      add\n        /* \"#utility.yul\":6303:6356   */\n      tag_160\n      jump\t// in\n    tag_280:\n        /* \"#utility.yul\":6293:6356   */\n      swap3\n      pop\n        /* \"#utility.yul\":6249:6366   */\n      pop\n        /* \"#utility.yul\":6433:6435   */\n      0x20\n        /* \"#utility.yul\":6422:6431   */\n      dup4\n        /* \"#utility.yul\":6418:6436   */\n      add\n        /* \"#utility.yul\":6405:6437   */\n      calldataload\n        /* \"#utility.yul\":6464:6482   */\n      0xffffffffffffffff\n        /* \"#utility.yul\":6456:6462   */\n      dup2\n        /* \"#utility.yul\":6453:6483   */\n      gt\n        /* \"#utility.yul\":6450:6567   */\n      iszero\n      tag_281\n      jumpi\n        /* \"#utility.yul\":6486:6565   */\n      tag_282\n      tag_158\n      jump\t// in\n    tag_282:\n        /* \"#utility.yul\":6450:6567   */\n    tag_281:\n        /* \"#utility.yul\":6591:6667   */\n      tag_283\n        /* \"#utility.yul\":6659:6666   */\n      dup6\n        /* \"#utility.yul\":6650:6656   */\n      dup3\n        /* \"#utility.yul\":6639:6648   */\n      dup7\n        /* \"#utility.yul\":6635:6657   */\n      add\n        /* \"#utility.yul\":6591:6667   */\n      tag_176\n      jump\t// in\n    tag_283:\n        /* \"#utility.yul\":6581:6667   */\n      swap2\n      pop\n        /* \"#utility.yul\":6376:6677   */\n      pop\n        /* \"#utility.yul\":6004:6684   */\n      swap3\n      pop\n      swap3\n      swap1\n      pop\n      jump\t// out\n        /* \"#utility.yul\":6690:7019   */\n    tag_28:\n        /* \"#utility.yul\":6749:6755   */\n      0x00\n        /* \"#utility.yul\":6798:6800   */\n      0x20\n        /* \"#utility.yul\":6786:6795   */\n      dup3\n        /* \"#utility.yul\":6777:6784   */\n      dup5\n        /* \"#utility.yul\":6773:6796   */\n      sub\n        /* \"#utility.yul\":6769:6801   */\n      slt\n        /* \"#utility.yul\":6766:6885   */\n      iszero\n      tag_285\n      jumpi\n        /* \"#utility.yul\":6804:6883   */\n      tag_286\n      tag_157\n      jump\t// in\n    tag_286:\n        /* \"#utility.yul\":6766:6885   */\n    tag_285:\n        /* \"#utility.yul\":6924:6925   */\n      0x00\n        /* \"#utility.yul\":6949:7002   */\n      tag_287\n        /* \"#utility.yul\":6994:7001   */\n      dup5\n        /* \"#utility.yul\":6985:6991   */\n      dup3\n        /* \"#utility.yul\":6974:6983   */\n      dup6\n        /* \"#utility.yul\":6970:6992   */\n      add\n        /* \"#utility.yul\":6949:7002   */\n      tag_160\n      jump\t// in\n    tag_287:\n        /* \"#utility.yul\":6939:7002   */\n      swap2\n      pop\n        /* \"#utility.yul\":6895:7012   */\n      pop\n        /* \"#utility.yul\":6690:7019   */\n      swap3\n      swap2\n      pop\n      pop\n      jump\t// out\n        /* \"#utility.yul\":7025:7124   */\n    tag_177:\n        /* \"#utility.yul\":7077:7083   */\n      0x00\n        /* \"#utility.yul\":7111:7116   */\n      dup2\n        /* \"#utility.yul\":7105:7117   */\n      mload\n        /* \"#utility.yul\":7095:7117   */\n      swap1\n      pop\n        /* \"#utility.yul\":7025:7124   */\n      swap2\n      swap1\n      pop\n      jump\t// out\n        /* \"#utility.yul\":7130:7289   */\n    tag_178:\n        /* \"#utility.yul\":7204:7215   */\n      0x00\n        /* \"#utility.yul\":7238:7244   */\n      dup3\n        /* \"#utility.yul\":7233:7236   */\n      dup3\n        /* \"#utility.yul\":7226:7245   */\n      mstore\n        /* \"#utility.yul\":7278:7282   */\n      0x20\n        /* \"#utility.yul\":7273:7276   */\n      dup3\n        /* \"#utility.yul\":7269:7283   */\n      add\n        /* \"#utility.yul\":7254:7283   */\n      swap1\n      pop\n        /* \"#utility.yul\":7130:7289   */\n      swap3\n      swap2\n      pop\n      pop\n      jump\t// out\n        /* \"#utility.yul\":7295:7434   */\n    tag_179:\n        /* \"#utility.yul\":7384:7390   */\n      dup3\n        /* \"#utility.yul\":7379:7382   */\n      dup2\n        /* \"#utility.yul\":7374:7377   */\n      dup4\n        /* \"#utility.yul\":7368:7391   */\n      mcopy\n        /* \"#utility.yul\":7425:7426   */\n      0x00\n        /* \"#utility.yul\":7416:7422   */\n      dup4\n        /* \"#utility.yul\":7411:7414   */\n      dup4\n        /* \"#utility.yul\":7407:7423   */\n      add\n        /* \"#utility.yul\":7400:7427   */\n      mstore\n        /* \"#utility.yul\":7295:7434   */\n      pop\n      pop\n      pop\n      jump\t// out\n        /* \"#utility.yul\":7440:7797   */\n    tag_180:\n        /* \"#utility.yul\":7518:7521   */\n      0x00\n        /* \"#utility.yul\":7546:7585   */\n      tag_292\n        /* \"#utility.yul\":7579:7584   */\n      dup3\n        /* \"#utility.yul\":7546:7585   */\n      tag_177\n      jump\t// in\n    tag_292:\n        /* \"#utility.yul\":7601:7662   */\n      tag_293\n        /* \"#utility.yul\":7655:7661   */\n      dup2\n        /* \"#utility.yul\":7650:7653   */\n      dup6\n        /* \"#utility.yul\":7601:7662   */\n      tag_178\n      jump\t// in\n    tag_293:\n        /* \"#utility.yul\":7594:7662   */\n      swap4\n      pop\n        /* \"#utility.yul\":7671:7736   */\n      tag_294\n        /* \"#utility.yul\":7729:7735   */\n      dup2\n        /* \"#utility.yul\":7724:7727   */\n      dup6\n        /* \"#utility.yul\":7717:7721   */\n      0x20\n        /* \"#utility.yul\":7710:7715   */\n      dup7\n        /* \"#utility.yul\":7706:7722   */\n      add\n        /* \"#utility.yul\":7671:7736   */\n      tag_179\n      jump\t// in\n    tag_294:\n        /* \"#utility.yul\":7761:7790   */\n      tag_295\n        /* \"#utility.yul\":7783:7789   */\n      dup2\n        /* \"#utility.yul\":7761:7790   */\n      tag_162\n      jump\t// in\n    tag_295:\n        /* \"#utility.yul\":7756:7759   */\n      dup5\n        /* \"#utility.yul\":7752:7791   */\n      add\n        /* \"#utility.yul\":7745:7791   */\n      swap2\n      pop\n        /* \"#utility.yul\":7522:7797   */\n      pop\n        /* \"#utility.yul\":7440:7797   */\n      swap3\n      swap2\n      pop\n      pop\n      jump\t// out\n        /* \"#utility.yul\":7803:7911   */\n    tag_181:\n        /* \"#utility.yul\":7880:7904   */\n      tag_297\n        /* \"#utility.yul\":7898:7903   */\n      dup2\n        /* \"#utility.yul\":7880:7904   */\n      tag_154\n      jump\t// in\n    tag_297:\n        /* \"#utility.yul\":7875:7878   */\n      dup3\n        /* \"#utility.yul\":7868:7905   */\n      mstore\n        /* \"#utility.yul\":7803:7911   */\n      pop\n      pop\n      jump\t// out\n        /* \"#utility.yul\":7917:8016   */\n    tag_182:\n        /* \"#utility.yul\":7988:8009   */\n      tag_299\n        /* \"#utility.yul\":8003:8008   */\n      dup2\n        /* \"#utility.yul\":7988:8009   */\n      tag_173\n      jump\t// in\n    tag_299:\n        /* \"#utility.yul\":7983:7986   */\n      dup3\n        /* \"#utility.yul\":7976:8010   */\n      mstore\n        /* \"#utility.yul\":7917:8016   */\n      pop\n      pop\n      jump\t// out\n        /* \"#utility.yul\":8102:9914   */\n    tag_183:\n        /* \"#utility.yul\":8217:8220   */\n      0x00\n        /* \"#utility.yul\":8253:8259   */\n      0x0100\n        /* \"#utility.yul\":8248:8251   */\n      dup4\n        /* \"#utility.yul\":8244:8260   */\n      add\n        /* \"#utility.yul\":8347:8351   */\n      0x00\n        /* \"#utility.yul\":8340:8345   */\n      dup4\n        /* \"#utility.yul\":8336:8352   */\n      add\n        /* \"#utility.yul\":8330:8353   */\n      mload\n        /* \"#utility.yul\":8400:8403   */\n      dup5\n        /* \"#utility.yul\":8394:8398   */\n      dup3\n        /* \"#utility.yul\":8390:8404   */\n      sub\n        /* \"#utility.yul\":8383:8387   */\n      0x00\n        /* \"#utility.yul\":8378:8381   */\n      dup7\n        /* \"#utility.yul\":8374:8388   */\n      add\n        /* \"#utility.yul\":8367:8405   */\n      mstore\n        /* \"#utility.yul\":8426:8499   */\n      tag_301\n        /* \"#utility.yul\":8494:8498   */\n      dup3\n        /* \"#utility.yul\":8480:8492   */\n      dup3\n        /* \"#utility.yul\":8426:8499   */\n      tag_180\n      jump\t// in\n    tag_301:\n        /* \"#utility.yul\":8418:8499   */\n      swap2\n      pop\n        /* \"#utility.yul\":8270:8510   */\n      pop\n        /* \"#utility.yul\":8599:8603   */\n      0x20\n        /* \"#utility.yul\":8592:8597   */\n      dup4\n        /* \"#utility.yul\":8588:8604   */\n      add\n        /* \"#utility.yul\":8582:8605   */\n      mload\n        /* \"#utility.yul\":8618:8681   */\n      tag_302\n        /* \"#utility.yul\":8675:8679   */\n      0x20\n        /* \"#utility.yul\":8670:8673   */\n      dup7\n        /* \"#utility.yul\":8666:8680   */\n      add\n        /* \"#utility.yul\":8652:8664   */\n      dup3\n        /* \"#utility.yul\":8618:8681   */\n      tag_181\n      jump\t// in\n    tag_302:\n        /* \"#utility.yul\":8520:8691   */\n      pop\n        /* \"#utility.yul\":8778:8782   */\n      0x40\n        /* \"#utility.yul\":8771:8776   */\n      dup4\n        /* \"#utility.yul\":8767:8783   */\n      add\n        /* \"#utility.yul\":8761:8784   */\n      mload\n        /* \"#utility.yul\":8831:8834   */\n      dup5\n        /* \"#utility.yul\":8825:8829   */\n      dup3\n        /* \"#utility.yul\":8821:8835   */\n      sub\n        /* \"#utility.yul\":8814:8818   */\n      0x40\n        /* \"#utility.yul\":8809:8812   */\n      dup7\n        /* \"#utility.yul\":8805:8819   */\n      add\n        /* \"#utility.yul\":8798:8836   */\n      mstore\n        /* \"#utility.yul\":8857:8930   */\n      tag_303\n        /* \"#utility.yul\":8925:8929   */\n      dup3\n        /* \"#utility.yul\":8911:8923   */\n      dup3\n        /* \"#utility.yul\":8857:8930   */\n      tag_180\n      jump\t// in\n    tag_303:\n        /* \"#utility.yul\":8849:8930   */\n      swap2\n      pop\n        /* \"#utility.yul\":8701:8941   */\n      pop\n        /* \"#utility.yul\":9028:9032   */\n      0x60\n        /* \"#utility.yul\":9021:9026   */\n      dup4\n        /* \"#utility.yul\":9017:9033   */\n      add\n        /* \"#utility.yul\":9011:9034   */\n      mload\n        /* \"#utility.yul\":9081:9084   */\n      dup5\n        /* \"#utility.yul\":9075:9079   */\n      dup3\n        /* \"#utility.yul\":9071:9085   */\n      sub\n        /* \"#utility.yul\":9064:9068   */\n      0x60\n        /* \"#utility.yul\":9059:9062   */\n      dup7\n        /* \"#utility.yul\":9055:9069   */\n      add\n        /* \"#utility.yul\":9048:9086   */\n      mstore\n        /* \"#utility.yul\":9107:9180   */\n      tag_304\n        /* \"#utility.yul\":9175:9179   */\n      dup3\n        /* \"#utility.yul\":9161:9173   */\n      dup3\n        /* \"#utility.yul\":9107:9180   */\n      tag_180\n      jump\t// in\n    tag_304:\n        /* \"#utility.yul\":9099:9180   */\n      swap2\n      pop\n        /* \"#utility.yul\":8951:9191   */\n      pop\n        /* \"#utility.yul\":9280:9284   */\n      0x80\n        /* \"#utility.yul\":9273:9278   */\n      dup4\n        /* \"#utility.yul\":9269:9285   */\n      add\n        /* \"#utility.yul\":9263:9286   */\n      mload\n        /* \"#utility.yul\":9299:9356   */\n      tag_305\n        /* \"#utility.yul\":9350:9354   */\n      0x80\n        /* \"#utility.yul\":9345:9348   */\n      dup7\n        /* \"#utility.yul\":9341:9355   */\n      add\n        /* \"#utility.yul\":9327:9339   */\n      dup3\n        /* \"#utility.yul\":9299:9356   */\n      tag_182\n      jump\t// in\n    tag_305:\n        /* \"#utility.yul\":9201:9366   */\n      pop\n        /* \"#utility.yul\":9455:9459   */\n      0xa0\n        /* \"#utility.yul\":9448:9453   */\n      dup4\n        /* \"#utility.yul\":9444:9460   */\n      add\n        /* \"#utility.yul\":9438:9461   */\n      mload\n        /* \"#utility.yul\":9474:9531   */\n      tag_306\n        /* \"#utility.yul\":9525:9529   */\n      0xa0\n        /* \"#utility.yul\":9520:9523   */\n      dup7\n        /* \"#utility.yul\":9516:9530   */\n      add\n        /* \"#utility.yul\":9502:9514   */\n      dup3\n        /* \"#utility.yul\":9474:9531   */\n      tag_182\n      jump\t// in\n    tag_306:\n        /* \"#utility.yul\":9376:9541   */\n      pop\n        /* \"#utility.yul\":9627:9631   */\n      0xc0\n        /* \"#utility.yul\":9620:9625   */\n      dup4\n        /* \"#utility.yul\":9616:9632   */\n      add\n        /* \"#utility.yul\":9610:9633   */\n      mload\n        /* \"#utility.yul\":9646:9703   */\n      tag_307\n        /* \"#utility.yul\":9697:9701   */\n      0xc0\n        /* \"#utility.yul\":9692:9695   */\n      dup7\n        /* \"#utility.yul\":9688:9702   */\n      add\n        /* \"#utility.yul\":9674:9686   */\n      dup3\n        /* \"#utility.yul\":9646:9703   */\n      tag_182\n      jump\t// in\n    tag_307:\n        /* \"#utility.yul\":9551:9713   */\n      pop\n        /* \"#utility.yul\":9801:9805   */\n      0xe0\n        /* \"#utility.yul\":9794:9799   */\n      dup4\n        /* \"#utility.yul\":9790:9806   */\n      add\n        /* \"#utility.yul\":9784:9807   */\n      mload\n        /* \"#utility.yul\":9820:9877   */\n      tag_308\n        /* \"#utility.yul\":9871:9875   */\n      0xe0\n        /* \"#utility.yul\":9866:9869   */\n      dup7\n        /* \"#utility.yul\":9862:9876   */\n      add\n        /* \"#utility.yul\":9848:9860   */\n      dup3\n        /* \"#utility.yul\":9820:9877   */\n      tag_182\n      jump\t// in\n    tag_308:\n        /* \"#utility.yul\":9723:9887   */\n      pop\n        /* \"#utility.yul\":9904:9908   */\n      dup1\n        /* \"#utility.yul\":9897:9908   */\n      swap2\n      pop\n        /* \"#utility.yul\":8222:9914   */\n      pop\n        /* \"#utility.yul\":8102:9914   */\n      swap3\n      swap2\n      pop\n      pop\n      jump\t// out\n        /* \"#utility.yul\":9920:10285   */\n    tag_31:\n        /* \"#utility.yul\":10059:10063   */\n      0x00\n        /* \"#utility.yul\":10097:10099   */\n      0x20\n        /* \"#utility.yul\":10086:10095   */\n      dup3\n        /* \"#utility.yul\":10082:10100   */\n      add\n        /* \"#utility.yul\":10074:10100   */\n      swap1\n      pop\n        /* \"#utility.yul\":10146:10155   */\n      dup2\n        /* \"#utility.yul\":10140:10144   */\n      dup2\n        /* \"#utility.yul\":10136:10156   */\n      sub\n        /* \"#utility.yul\":10132:10133   */\n      0x00\n        /* \"#utility.yul\":10121:10130   */\n      dup4\n        /* \"#utility.yul\":10117:10134   */\n      add\n        /* \"#utility.yul\":10110:10157   */\n      mstore\n        /* \"#utility.yul\":10174:10278   */\n      tag_310\n        /* \"#utility.yul\":10273:10277   */\n      dup2\n        /* \"#utility.yul\":10264:10270   */\n      dup5\n        /* \"#utility.yul\":10174:10278   */\n      tag_183\n      jump\t// in\n    tag_310:\n        /* \"#utility.yul\":10166:10278   */\n      swap1\n      pop\n        /* \"#utility.yul\":9920:10285   */\n      swap3\n      swap2\n      pop\n      pop\n      jump\t// out\n        /* \"#utility.yul\":10291:10939   */\n    tag_37:\n        /* \"#utility.yul\":10366:10372   */\n      0x00\n        /* \"#utility.yul\":10374:10380   */\n      dup1\n        /* \"#utility.yul\":10423:10425   */\n      0x40\n        /* \"#utility.yul\":10411:10420   */\n      dup4\n        /* \"#utility.yul\":10402:10409   */\n      dup6\n        /* \"#utility.yul\":10398:10421   */\n      sub\n        /* \"#utility.yul\":10394:10426   */\n      slt\n        /* \"#utility.yul\":10391:10510   */\n      iszero\n      tag_312\n      jumpi\n        /* \"#utility.yul\":10429:10508   */\n      tag_313\n      tag_157\n      jump\t// in\n    tag_313:\n        /* \"#utility.yul\":10391:10510   */\n    tag_312:\n        /* \"#utility.yul\":10577:10578   */\n      0x00\n        /* \"#utility.yul\":10566:10575   */\n      dup4\n        /* \"#utility.yul\":10562:10579   */\n      add\n        /* \"#utility.yul\":10549:10580   */\n      calldataload\n        /* \"#utility.yul\":10607:10625   */\n      0xffffffffffffffff\n        /* \"#utility.yul\":10599:10605   */\n      dup2\n        /* \"#utility.yul\":10596:10626   */\n      gt\n        /* \"#utility.yul\":10593:10710   */\n      iszero\n      tag_314\n      jumpi\n        /* \"#utility.yul\":10629:10708   */\n      tag_315\n      tag_158\n      jump\t// in\n    tag_315:\n        /* \"#utility.yul\":10593:10710   */\n    tag_314:\n        /* \"#utility.yul\":10734:10797   */\n      tag_316\n        /* \"#utility.yul\":10789:10796   */\n      dup6\n        /* \"#utility.yul\":10780:10786   */\n      dup3\n        /* \"#utility.yul\":10769:10778   */\n      dup7\n        /* \"#utility.yul\":10765:10787   */\n      add\n        /* \"#utility.yul\":10734:10797   */\n      tag_172\n      jump\t// in\n    tag_316:\n        /* \"#utility.yul\":10724:10797   */\n      swap3\n      pop\n        /* \"#utility.yul\":10520:10807   */\n      pop\n        /* \"#utility.yul\":10846:10848   */\n      0x20\n        /* \"#utility.yul\":10872:10922   */\n      tag_317\n        /* \"#utility.yul\":10914:10921   */\n      dup6\n        /* \"#utility.yul\":10905:10911   */\n      dup3\n        /* \"#utility.yul\":10894:10903   */\n      dup7\n        /* \"#utility.yul\":10890:10912   */\n      add\n        /* \"#utility.yul\":10872:10922   */\n      tag_175\n      jump\t// in\n    tag_317:\n        /* \"#utility.yul\":10862:10922   */\n      swap2\n      pop\n        /* \"#utility.yul\":10817:10932   */\n      pop\n        /* \"#utility.yul\":10291:10939   */\n      swap3\n      pop\n      swap3\n      swap1\n      pop\n      jump\t// out\n        /* \"#utility.yul\":10945:11114   */\n    tag_184:\n        /* \"#utility.yul\":11029:11040   */\n      0x00\n        /* \"#utility.yul\":11063:11069   */\n      dup3\n        /* \"#utility.yul\":11058:11061   */\n      dup3\n        /* \"#utility.yul\":11051:11070   */\n      mstore\n        /* \"#utility.yul\":11103:11107   */\n      0x20\n        /* \"#utility.yul\":11098:11101   */\n      dup3\n        /* \"#utility.yul\":11094:11108   */\n      add\n        /* \"#utility.yul\":11079:11108   */\n      swap1\n      pop\n        /* \"#utility.yul\":10945:11114   */\n      swap3\n      swap2\n      pop\n      pop\n      jump\t// out\n        /* \"#utility.yul\":11120:11497   */\n    tag_185:\n        /* \"#utility.yul\":11208:11211   */\n      0x00\n        /* \"#utility.yul\":11236:11275   */\n      tag_320\n        /* \"#utility.yul\":11269:11274   */\n      dup3\n        /* \"#utility.yul\":11236:11275   */\n      tag_177\n      jump\t// in\n    tag_320:\n        /* \"#utility.yul\":11291:11362   */\n      tag_321\n        /* \"#utility.yul\":11355:11361   */\n      dup2\n        /* \"#utility.yul\":11350:11353   */\n      dup6\n        /* \"#utility.yul\":11291:11362   */\n      tag_184\n      jump\t// in\n    tag_321:\n        /* \"#utility.yul\":11284:11362   */\n      swap4\n      pop\n        /* \"#utility.yul\":11371:11436   */\n      tag_322\n        /* \"#utility.yul\":11429:11435   */\n      dup2\n        /* \"#utility.yul\":11424:11427   */\n      dup6\n        /* \"#utility.yul\":11417:11421   */\n      0x20\n        /* \"#utility.yul\":11410:11415   */\n      dup7\n        /* \"#utility.yul\":11406:11422   */\n      add\n        /* \"#utility.yul\":11371:11436   */\n      tag_179\n      jump\t// in\n    tag_322:\n        /* \"#utility.yul\":11461:11490   */\n      tag_323\n        /* \"#utility.yul\":11483:11489   */\n      dup2\n        /* \"#utility.yul\":11461:11490   */\n      tag_162\n      jump\t// in\n    tag_323:\n        /* \"#utility.yul\":11456:11459   */\n      dup5\n        /* \"#utility.yul\":11452:11491   */\n      add\n        /* \"#utility.yul\":11445:11491   */\n      swap2\n      pop\n        /* \"#utility.yul\":11212:11497   */\n      pop\n        /* \"#utility.yul\":11120:11497   */\n      swap3\n      swap2\n      pop\n      pop\n      jump\t// out\n        /* \"#utility.yul\":11503:11612   */\n    tag_186:\n        /* \"#utility.yul\":11584:11605   */\n      tag_325\n        /* \"#utility.yul\":11599:11604   */\n      dup2\n        /* \"#utility.yul\":11584:11605   */\n      tag_173\n      jump\t// in\n    tag_325:\n        /* \"#utility.yul\":11579:11582   */\n      dup3\n        /* \"#utility.yul\":11572:11606   */\n      mstore\n        /* \"#utility.yul\":11503:11612   */\n      pop\n      pop\n      jump\t// out\n        /* \"#utility.yul\":11618:12840   */\n    tag_43:\n        /* \"#utility.yul\":11943:11947   */\n      0x00\n        /* \"#utility.yul\":11981:11984   */\n      0x0100\n        /* \"#utility.yul\":11970:11979   */\n      dup3\n        /* \"#utility.yul\":11966:11985   */\n      add\n        /* \"#utility.yul\":11958:11985   */\n      swap1\n      pop\n        /* \"#utility.yul\":12031:12040   */\n      dup2\n        /* \"#utility.yul\":12025:12029   */\n      dup2\n        /* \"#utility.yul\":12021:12041   */\n      sub\n        /* \"#utility.yul\":12017:12018   */\n      0x00\n        /* \"#utility.yul\":12006:12015   */\n      dup4\n        /* \"#utility.yul\":12002:12019   */\n      add\n        /* \"#utility.yul\":11995:12042   */\n      mstore\n        /* \"#utility.yul\":12059:12137   */\n      tag_327\n        /* \"#utility.yul\":12132:12136   */\n      dup2\n        /* \"#utility.yul\":12123:12129   */\n      dup12\n        /* \"#utility.yul\":12059:12137   */\n      tag_185\n      jump\t// in\n    tag_327:\n        /* \"#utility.yul\":12051:12137   */\n      swap1\n      pop\n        /* \"#utility.yul\":12147:12219   */\n      tag_328\n        /* \"#utility.yul\":12215:12217   */\n      0x20\n        /* \"#utility.yul\":12204:12213   */\n      dup4\n        /* \"#utility.yul\":12200:12218   */\n      add\n        /* \"#utility.yul\":12191:12197   */\n      dup11\n        /* \"#utility.yul\":12147:12219   */\n      tag_155\n      jump\t// in\n    tag_328:\n        /* \"#utility.yul\":12266:12275   */\n      dup2\n        /* \"#utility.yul\":12260:12264   */\n      dup2\n        /* \"#utility.yul\":12256:12276   */\n      sub\n        /* \"#utility.yul\":12251:12253   */\n      0x40\n        /* \"#utility.yul\":12240:12249   */\n      dup4\n        /* \"#utility.yul\":12236:12254   */\n      add\n        /* \"#utility.yul\":12229:12277   */\n      mstore\n        /* \"#utility.yul\":12294:12372   */\n      tag_329\n        /* \"#utility.yul\":12367:12371   */\n      dup2\n        /* \"#utility.yul\":12358:12364   */\n      dup10\n        /* \"#utility.yul\":12294:12372   */\n      tag_185\n      jump\t// in\n    tag_329:\n        /* \"#utility.yul\":12286:12372   */\n      swap1\n      pop\n        /* \"#utility.yul\":12419:12428   */\n      dup2\n        /* \"#utility.yul\":12413:12417   */\n      dup2\n        /* \"#utility.yul\":12409:12429   */\n      sub\n        /* \"#utility.yul\":12404:12406   */\n      0x60\n        /* \"#utility.yul\":12393:12402   */\n      dup4\n        /* \"#utility.yul\":12389:12407   */\n      add\n        /* \"#utility.yul\":12382:12430   */\n      mstore\n        /* \"#utility.yul\":12447:12525   */\n      tag_330\n        /* \"#utility.yul\":12520:12524   */\n      dup2\n        /* \"#utility.yul\":12511:12517   */\n      dup9\n        /* \"#utility.yul\":12447:12525   */\n      tag_185\n      jump\t// in\n    tag_330:\n        /* \"#utility.yul\":12439:12525   */\n      swap1\n      pop\n        /* \"#utility.yul\":12535:12602   */\n      tag_331\n        /* \"#utility.yul\":12597:12600   */\n      0x80\n        /* \"#utility.yul\":12586:12595   */\n      dup4\n        /* \"#utility.yul\":12582:12601   */\n      add\n        /* \"#utility.yul\":12573:12579   */\n      dup8\n        /* \"#utility.yul\":12535:12602   */\n      tag_186\n      jump\t// in\n    tag_331:\n        /* \"#utility.yul\":12612:12679   */\n      tag_332\n        /* \"#utility.yul\":12674:12677   */\n      0xa0\n        /* \"#utility.yul\":12663:12672   */\n      dup4\n        /* \"#utility.yul\":12659:12678   */\n      add\n        /* \"#utility.yul\":12650:12656   */\n      dup7\n        /* \"#utility.yul\":12612:12679   */\n      tag_186\n      jump\t// in\n    tag_332:\n        /* \"#utility.yul\":12689:12756   */\n      tag_333\n        /* \"#utility.yul\":12751:12754   */\n      0xc0\n        /* \"#utility.yul\":12740:12749   */\n      dup4\n        /* \"#utility.yul\":12736:12755   */\n      add\n        /* \"#utility.yul\":12727:12733   */\n      dup6\n        /* \"#utility.yul\":12689:12756   */\n      tag_186\n      jump\t// in\n    tag_333:\n        /* \"#utility.yul\":12766:12833   */\n      tag_334\n        /* \"#utility.yul\":12828:12831   */\n      0xe0\n        /* \"#utility.yul\":12817:12826   */\n      dup4\n        /* \"#utility.yul\":12813:12832   */\n      add\n        /* \"#utility.yul\":12804:12810   */\n      dup5\n        /* \"#utility.yul\":12766:12833   */\n      tag_186\n      jump\t// in\n    tag_334:\n        /* \"#utility.yul\":11618:12840   */\n      swap10\n      swap9\n      pop\n      pop\n      pop\n      pop\n      pop\n      pop\n      pop\n      pop\n      pop\n      jump\t// out\n        /* \"#utility.yul\":12890:13644   */\n    tag_187:\n        /* \"#utility.yul\":12964:12969   */\n      0x00\n        /* \"#utility.yul\":13008:13012   */\n      0x40\n        /* \"#utility.yul\":12996:13005   */\n      dup3\n        /* \"#utility.yul\":12991:12994   */\n      dup5\n        /* \"#utility.yul\":12987:13006   */\n      sub\n        /* \"#utility.yul\":12983:13013   */\n      slt\n        /* \"#utility.yul\":12980:13097   */\n      iszero\n      tag_336\n      jumpi\n        /* \"#utility.yul\":13016:13095   */\n      tag_337\n      tag_161\n      jump\t// in\n    tag_337:\n        /* \"#utility.yul\":12980:13097   */\n    tag_336:\n        /* \"#utility.yul\":13115:13136   */\n      tag_338\n        /* \"#utility.yul\":13131:13135   */\n      0x40\n        /* \"#utility.yul\":13115:13136   */\n      tag_165\n      jump\t// in\n    tag_338:\n        /* \"#utility.yul\":13106:13136   */\n      swap1\n      pop\n        /* \"#utility.yul\":13230:13231   */\n      0x00\n        /* \"#utility.yul\":13219:13228   */\n      dup3\n        /* \"#utility.yul\":13215:13232   */\n      add\n        /* \"#utility.yul\":13202:13233   */\n      calldataload\n        /* \"#utility.yul\":13260:13278   */\n      0xffffffffffffffff\n        /* \"#utility.yul\":13252:13258   */\n      dup2\n        /* \"#utility.yul\":13249:13279   */\n      gt\n        /* \"#utility.yul\":13246:13363   */\n      iszero\n      tag_339\n      jumpi\n        /* \"#utility.yul\":13282:13361   */\n      tag_340\n      tag_166\n      jump\t// in\n    tag_340:\n        /* \"#utility.yul\":13246:13363   */\n    tag_339:\n        /* \"#utility.yul\":13402:13461   */\n      tag_341\n        /* \"#utility.yul\":13457:13460   */\n      dup5\n        /* \"#utility.yul\":13448:13454   */\n      dup3\n        /* \"#utility.yul\":13437:13446   */\n      dup6\n        /* \"#utility.yul\":13433:13455   */\n      add\n        /* \"#utility.yul\":13402:13461   */\n      tag_172\n      jump\t// in\n    tag_341:\n        /* \"#utility.yul\":13395:13399   */\n      0x00\n        /* \"#utility.yul\":13388:13393   */\n      dup4\n        /* \"#utility.yul\":13384:13400   */\n      add\n        /* \"#utility.yul\":13377:13462   */\n      mstore\n        /* \"#utility.yul\":13146:13473   */\n      pop\n        /* \"#utility.yul\":13538:13540   */\n      0x20\n        /* \"#utility.yul\":13579:13625   */\n      tag_342\n        /* \"#utility.yul\":13621:13624   */\n      dup5\n        /* \"#utility.yul\":13612:13618   */\n      dup3\n        /* \"#utility.yul\":13601:13610   */\n      dup6\n        /* \"#utility.yul\":13597:13619   */\n      add\n        /* \"#utility.yul\":13579:13625   */\n      tag_175\n      jump\t// in\n    tag_342:\n        /* \"#utility.yul\":13572:13576   */\n      0x20\n        /* \"#utility.yul\":13565:13570   */\n      dup4\n        /* \"#utility.yul\":13561:13577   */\n      add\n        /* \"#utility.yul\":13554:13626   */\n      mstore\n        /* \"#utility.yul\":13483:13637   */\n      pop\n        /* \"#utility.yul\":12890:13644   */\n      swap3\n      swap2\n      pop\n      pop\n      jump\t// out\n        /* \"#utility.yul\":13650:14334   */\n    tag_49:\n        /* \"#utility.yul\":13743:13749   */\n      0x00\n        /* \"#utility.yul\":13751:13757   */\n      dup1\n        /* \"#utility.yul\":13800:13802   */\n      0x40\n        /* \"#utility.yul\":13788:13797   */\n      dup4\n        /* \"#utility.yul\":13779:13786   */\n      dup6\n        /* \"#utility.yul\":13775:13798   */\n      sub\n        /* \"#utility.yul\":13771:13803   */\n      slt\n        /* \"#utility.yul\":13768:13887   */\n      iszero\n      tag_344\n      jumpi\n        /* \"#utility.yul\":13806:13885   */\n      tag_345\n      tag_157\n      jump\t// in\n    tag_345:\n        /* \"#utility.yul\":13768:13887   */\n    tag_344:\n        /* \"#utility.yul\":13926:13927   */\n      0x00\n        /* \"#utility.yul\":13951:14004   */\n      tag_346\n        /* \"#utility.yul\":13996:14003   */\n      dup6\n        /* \"#utility.yul\":13987:13993   */\n      dup3\n        /* \"#utility.yul\":13976:13985   */\n      dup7\n        /* \"#utility.yul\":13972:13994   */\n      add\n        /* \"#utility.yul\":13951:14004   */\n      tag_160\n      jump\t// in\n    tag_346:\n        /* \"#utility.yul\":13941:14004   */\n      swap3\n      pop\n        /* \"#utility.yul\":13897:14014   */\n      pop\n        /* \"#utility.yul\":14081:14083   */\n      0x20\n        /* \"#utility.yul\":14070:14079   */\n      dup4\n        /* \"#utility.yul\":14066:14084   */\n      add\n        /* \"#utility.yul\":14053:14085   */\n      calldataload\n        /* \"#utility.yul\":14112:14130   */\n      0xffffffffffffffff\n        /* \"#utility.yul\":14104:14110   */\n      dup2\n        /* \"#utility.yul\":14101:14131   */\n      gt\n        /* \"#utility.yul\":14098:14215   */\n      iszero\n      tag_347\n      jumpi\n        /* \"#utility.yul\":14134:14213   */\n      tag_348\n      tag_158\n      jump\t// in\n    tag_348:\n        /* \"#utility.yul\":14098:14215   */\n    tag_347:\n        /* \"#utility.yul\":14239:14317   */\n      tag_349\n        /* \"#utility.yul\":14309:14316   */\n      dup6\n        /* \"#utility.yul\":14300:14306   */\n      dup3\n        /* \"#utility.yul\":14289:14298   */\n      dup7\n        /* \"#utility.yul\":14285:14307   */\n      add\n        /* \"#utility.yul\":14239:14317   */\n      tag_187\n      jump\t// in\n    tag_349:\n        /* \"#utility.yul\":14229:14317   */\n      swap2\n      pop\n        /* \"#utility.yul\":14024:14327   */\n      pop\n        /* \"#utility.yul\":13650:14334   */\n      swap3\n      pop\n      swap3\n      swap1\n      pop\n      jump\t// out\n        /* \"#utility.yul\":14340:14751   */\n    tag_58:\n        /* \"#utility.yul\":14475:14479   */\n      0x00\n        /* \"#utility.yul\":14513:14515   */\n      0x40\n        /* \"#utility.yul\":14502:14511   */\n      dup3\n        /* \"#utility.yul\":14498:14516   */\n      add\n        /* \"#utility.yul\":14490:14516   */\n      swap1\n      pop\n        /* \"#utility.yul\":14562:14571   */\n      dup2\n        /* \"#utility.yul\":14556:14560   */\n      dup2\n        /* \"#utility.yul\":14552:14572   */\n      sub\n        /* \"#utility.yul\":14548:14549   */\n      0x00\n        /* \"#utility.yul\":14537:14546   */\n      dup4\n        /* \"#utility.yul\":14533:14550   */\n      add\n        /* \"#utility.yul\":14526:14573   */\n      mstore\n        /* \"#utility.yul\":14590:14668   */\n      tag_351\n        /* \"#utility.yul\":14663:14667   */\n      dup2\n        /* \"#utility.yul\":14654:14660   */\n      dup6\n        /* \"#utility.yul\":14590:14668   */\n      tag_185\n      jump\t// in\n    tag_351:\n        /* \"#utility.yul\":14582:14668   */\n      swap1\n      pop\n        /* \"#utility.yul\":14678:14744   */\n      tag_352\n        /* \"#utility.yul\":14740:14742   */\n      0x20\n        /* \"#utility.yul\":14729:14738   */\n      dup4\n        /* \"#utility.yul\":14725:14743   */\n      add\n        /* \"#utility.yul\":14716:14722   */\n      dup5\n        /* \"#utility.yul\":14678:14744   */\n      tag_186\n      jump\t// in\n    tag_352:\n        /* \"#utility.yul\":14340:14751   */\n      swap4\n      swap3\n      pop\n      pop\n      pop\n      jump\t// out\n        /* \"#utility.yul\":14757:15411   */\n    tag_61:\n        /* \"#utility.yul\":14835:14841   */\n      0x00\n        /* \"#utility.yul\":14843:14849   */\n      dup1\n        /* \"#utility.yul\":14892:14894   */\n      0x40\n        /* \"#utility.yul\":14880:14889   */\n      dup4\n        /* \"#utility.yul\":14871:14878   */\n      dup6\n        /* \"#utility.yul\":14867:14890   */\n      sub\n        /* \"#utility.yul\":14863:14895   */\n      slt\n        /* \"#utility.yul\":14860:14979   */\n      iszero\n      tag_354\n      jumpi\n        /* \"#utility.yul\":14898:14977   */\n      tag_355\n      tag_157\n      jump\t// in\n    tag_355:\n        /* \"#utility.yul\":14860:14979   */\n    tag_354:\n        /* \"#utility.yul\":15046:15047   */\n      0x00\n        /* \"#utility.yul\":15035:15044   */\n      dup4\n        /* \"#utility.yul\":15031:15048   */\n      add\n        /* \"#utility.yul\":15018:15049   */\n      calldataload\n        /* \"#utility.yul\":15076:15094   */\n      0xffffffffffffffff\n        /* \"#utility.yul\":15068:15074   */\n      dup2\n        /* \"#utility.yul\":15065:15095   */\n      gt\n        /* \"#utility.yul\":15062:15179   */\n      iszero\n      tag_356\n      jumpi\n        /* \"#utility.yul\":15098:15177   */\n      tag_357\n      tag_158\n      jump\t// in\n    tag_357:\n        /* \"#utility.yul\":15062:15179   */\n    tag_356:\n        /* \"#utility.yul\":15203:15266   */\n      tag_358\n        /* \"#utility.yul\":15258:15265   */\n      dup6\n        /* \"#utility.yul\":15249:15255   */\n      dup3\n        /* \"#utility.yul\":15238:15247   */\n      dup7\n        /* \"#utility.yul\":15234:15256   */\n      add\n        /* \"#utility.yul\":15203:15266   */\n      tag_172\n      jump\t// in\n    tag_358:\n        /* \"#utility.yul\":15193:15266   */\n      swap3\n      pop\n        /* \"#utility.yul\":14989:15276   */\n      pop\n        /* \"#utility.yul\":15315:15317   */\n      0x20\n        /* \"#utility.yul\":15341:15394   */\n      tag_359\n        /* \"#utility.yul\":15386:15393   */\n      dup6\n        /* \"#utility.yul\":15377:15383   */\n      dup3\n        /* \"#utility.yul\":15366:15375   */\n      dup7\n        /* \"#utility.yul\":15362:15384   */\n      add\n        /* \"#utility.yul\":15341:15394   */\n      tag_160\n      jump\t// in\n    tag_359:\n        /* \"#utility.yul\":15331:15394   */\n      swap2\n      pop\n        /* \"#utility.yul\":15286:15404   */\n      pop\n        /* \"#utility.yul\":14757:15411   */\n      swap3\n      pop\n      swap3\n      swap1\n      pop\n      jump\t// out\n        /* \"#utility.yul\":15501:16114   */\n    tag_188:\n        /* \"#utility.yul\":15620:15623   */\n      0x00\n        /* \"#utility.yul\":15656:15660   */\n      0x40\n        /* \"#utility.yul\":15651:15654   */\n      dup4\n        /* \"#utility.yul\":15647:15661   */\n      add\n        /* \"#utility.yul\":15750:15754   */\n      0x00\n        /* \"#utility.yul\":15743:15748   */\n      dup4\n        /* \"#utility.yul\":15739:15755   */\n      add\n        /* \"#utility.yul\":15733:15756   */\n      mload\n        /* \"#utility.yul\":15803:15806   */\n      dup5\n        /* \"#utility.yul\":15797:15801   */\n      dup3\n        /* \"#utility.yul\":15793:15807   */\n      sub\n        /* \"#utility.yul\":15786:15790   */\n      0x00\n        /* \"#utility.yul\":15781:15784   */\n      dup7\n        /* \"#utility.yul\":15777:15791   */\n      add\n        /* \"#utility.yul\":15770:15808   */\n      mstore\n        /* \"#utility.yul\":15829:15902   */\n      tag_361\n        /* \"#utility.yul\":15897:15901   */\n      dup3\n        /* \"#utility.yul\":15883:15895   */\n      dup3\n        /* \"#utility.yul\":15829:15902   */\n      tag_180\n      jump\t// in\n    tag_361:\n        /* \"#utility.yul\":15821:15902   */\n      swap2\n      pop\n        /* \"#utility.yul\":15671:15913   */\n      pop\n        /* \"#utility.yul\":16001:16005   */\n      0x20\n        /* \"#utility.yul\":15994:15999   */\n      dup4\n        /* \"#utility.yul\":15990:16006   */\n      add\n        /* \"#utility.yul\":15984:16007   */\n      mload\n        /* \"#utility.yul\":16020:16077   */\n      tag_362\n        /* \"#utility.yul\":16071:16075   */\n      0x20\n        /* \"#utility.yul\":16066:16069   */\n      dup7\n        /* \"#utility.yul\":16062:16076   */\n      add\n        /* \"#utility.yul\":16048:16060   */\n      dup3\n        /* \"#utility.yul\":16020:16077   */\n      tag_182\n      jump\t// in\n    tag_362:\n        /* \"#utility.yul\":15923:16087   */\n      pop\n        /* \"#utility.yul\":16104:16108   */\n      dup1\n        /* \"#utility.yul\":16097:16108   */\n      swap2\n      pop\n        /* \"#utility.yul\":15625:16114   */\n      pop\n        /* \"#utility.yul\":15501:16114   */\n      swap3\n      swap2\n      pop\n      pop\n      jump\t// out\n        /* \"#utility.yul\":16120:16493   */\n    tag_67:\n        /* \"#utility.yul\":16263:16267   */\n      0x00\n        /* \"#utility.yul\":16301:16303   */\n      0x20\n        /* \"#utility.yul\":16290:16299   */\n      dup3\n        /* \"#utility.yul\":16286:16304   */\n      add\n        /* \"#utility.yul\":16278:16304   */\n      swap1\n      pop\n        /* \"#utility.yul\":16350:16359   */\n      dup2\n        /* \"#utility.yul\":16344:16348   */\n      dup2\n        /* \"#utility.yul\":16340:16360   */\n      sub\n        /* \"#utility.yul\":16336:16337   */\n      0x00\n        /* \"#utility.yul\":16325:16334   */\n      dup4\n        /* \"#utility.yul\":16321:16338   */\n      add\n        /* \"#utility.yul\":16314:16361   */\n      mstore\n        /* \"#utility.yul\":16378:16486   */\n      tag_364\n        /* \"#utility.yul\":16481:16485   */\n      dup2\n        /* \"#utility.yul\":16472:16478   */\n      dup5\n        /* \"#utility.yul\":16378:16486   */\n      tag_188\n      jump\t// in\n    tag_364:\n        /* \"#utility.yul\":16370:16486   */\n      swap1\n      pop\n        /* \"#utility.yul\":16120:16493   */\n      swap3\n      swap2\n      pop\n      pop\n      jump\t// out\n        /* \"#utility.yul\":16499:16679   */\n    tag_189:\n        /* \"#utility.yul\":16547:16624   */\n      0x4e487b7100000000000000000000000000000000000000000000000000000000\n        /* \"#utility.yul\":16544:16545   */\n      0x00\n        /* \"#utility.yul\":16537:16625   */\n      mstore\n        /* \"#utility.yul\":16644:16648   */\n      0x22\n        /* \"#utility.yul\":16641:16642   */\n      0x04\n        /* \"#utility.yul\":16634:16649   */\n      mstore\n        /* \"#utility.yul\":16668:16672   */\n      0x24\n        /* \"#utility.yul\":16665:16666   */\n      0x00\n        /* \"#utility.yul\":16658:16673   */\n      revert\n        /* \"#utility.yul\":16685:17005   */\n    tag_80:\n        /* \"#utility.yul\":16729:16735   */\n      0x00\n        /* \"#utility.yul\":16766:16767   */\n      0x02\n        /* \"#utility.yul\":16760:16764   */\n      dup3\n        /* \"#utility.yul\":16756:16768   */\n      div\n        /* \"#utility.yul\":16746:16768   */\n      swap1\n      pop\n        /* \"#utility.yul\":16813:16814   */\n      0x01\n        /* \"#utility.yul\":16807:16811   */\n      dup3\n        /* \"#utility.yul\":16803:16815   */\n      and\n        /* \"#utility.yul\":16834:16852   */\n      dup1\n        /* \"#utility.yul\":16824:16905   */\n      tag_367\n      jumpi\n        /* \"#utility.yul\":16890:16894   */\n      0x7f\n        /* \"#utility.yul\":16882:16888   */\n      dup3\n        /* \"#utility.yul\":16878:16895   */\n      and\n        /* \"#utility.yul\":16868:16895   */\n      swap2\n      pop\n        /* \"#utility.yul\":16824:16905   */\n    tag_367:\n        /* \"#utility.yul\":16952:16954   */\n      0x20\n        /* \"#utility.yul\":16944:16950   */\n      dup3\n        /* \"#utility.yul\":16941:16955   */\n      lt\n        /* \"#utility.yul\":16921:16939   */\n      dup2\n        /* \"#utility.yul\":16918:16956   */\n      sub\n        /* \"#utility.yul\":16915:16999   */\n      tag_368\n      jumpi\n        /* \"#utility.yul\":16971:16989   */\n      tag_369\n      tag_189\n      jump\t// in\n    tag_369:\n        /* \"#utility.yul\":16915:16999   */\n    tag_368:\n        /* \"#utility.yul\":16736:17005   */\n      pop\n        /* \"#utility.yul\":16685:17005   */\n      swap2\n      swap1\n      pop\n      jump\t// out\n        /* \"#utility.yul\":17011:17152   */\n    tag_190:\n        /* \"#utility.yul\":17060:17064   */\n      0x00\n        /* \"#utility.yul\":17083:17086   */\n      dup2\n        /* \"#utility.yul\":17075:17086   */\n      swap1\n      pop\n        /* \"#utility.yul\":17106:17109   */\n      dup2\n        /* \"#utility.yul\":17103:17104   */\n      0x00\n        /* \"#utility.yul\":17096:17110   */\n      mstore\n        /* \"#utility.yul\":17140:17144   */\n      0x20\n        /* \"#utility.yul\":17137:17138   */\n      0x00\n        /* \"#utility.yul\":17127:17145   */\n      keccak256\n        /* \"#utility.yul\":17119:17145   */\n      swap1\n      pop\n        /* \"#utility.yul\":17011:17152   */\n      swap2\n      swap1\n      pop\n      jump\t// out\n        /* \"#utility.yul\":17158:17251   */\n    tag_191:\n        /* \"#utility.yul\":17195:17201   */\n      0x00\n        /* \"#utility.yul\":17242:17244   */\n      0x20\n        /* \"#utility.yul\":17237:17239   */\n      0x1f\n        /* \"#utility.yul\":17230:17235   */\n      dup4\n        /* \"#utility.yul\":17226:17240   */\n      add\n        /* \"#utility.yul\":17222:17245   */\n      div\n        /* \"#utility.yul\":17212:17245   */\n      swap1\n      pop\n        /* \"#utility.yul\":17158:17251   */\n      swap2\n      swap1\n      pop\n      jump\t// out\n        /* \"#utility.yul\":17257:17364   */\n    tag_192:\n        /* \"#utility.yul\":17301:17309   */\n      0x00\n        /* \"#utility.yul\":17351:17356   */\n      dup3\n        /* \"#utility.yul\":17345:17349   */\n      dup3\n        /* \"#utility.yul\":17341:17357   */\n      shl\n        /* \"#utility.yul\":17320:17357   */\n      swap1\n      pop\n        /* \"#utility.yul\":17257:17364   */\n      swap3\n      swap2\n      pop\n      pop\n      jump\t// out\n        /* \"#utility.yul\":17370:17763   */\n    tag_193:\n        /* \"#utility.yul\":17439:17445   */\n      0x00\n        /* \"#utility.yul\":17489:17490   */\n      0x08\n        /* \"#utility.yul\":17477:17487   */\n      dup4\n        /* \"#utility.yul\":17473:17491   */\n      mul\n        /* \"#utility.yul\":17512:17609   */\n      tag_374\n        /* \"#utility.yul\":17542:17608   */\n      0xffffffffffffffffffffffffffffffffffffffffffffffffffffffffffffffff\n        /* \"#utility.yul\":17531:17540   */\n      dup3\n        /* \"#utility.yul\":17512:17609   */\n      tag_192\n      jump\t// in\n    tag_374:\n        /* \"#utility.yul\":17630:17669   */\n      tag_375\n        /* \"#utility.yul\":17660:17668   */\n      dup7\n        /* \"#utility.yul\":17649:17658   */\n      dup4\n        /* \"#utility.yul\":17630:17669   */\n      tag_192\n      jump\t// in\n    tag_375:\n        /* \"#utility.yul\":17618:17669   */\n      swap6\n      pop\n        /* \"#utility.yul\":17702:17706   */\n      dup1\n        /* \"#utility.yul\":17698:17707   */\n      not\n        /* \"#utility.yul\":17691:17696   */\n      dup5\n        /* \"#utility.yul\":17687:17708   */\n      and\n        /* \"#utility.yul\":17678:17708   */\n      swap4\n      pop\n        /* \"#utility.yul\":17751:17755   */\n      dup1\n        /* \"#utility.yul\":17741:17749   */\n      dup7\n        /* \"#utility.yul\":17737:17756   */\n      and\n        /* \"#utility.yul\":17730:17735   */\n      dup5\n        /* \"#utility.yul\":17727:17757   */\n      or\n        /* \"#utility.yul\":17717:17757   */\n      swap3\n      pop\n        /* \"#utility.yul\":17446:17763   */\n      pop\n      pop\n        /* \"#utility.yul\":17370:17763   */\n      swap4\n      swap3\n      pop\n      pop\n      pop\n      jump\t// out\n        /* \"#utility.yul\":17769:17829   */\n    tag_194:\n        /* \"#utility.yul\":17797:17800   */\n      0x00\n        /* \"#utility.yul\":17818:17823   */\n      dup2\n        /* \"#utility.yul\":17811:17823   */\n      swap1\n      pop\n        /* \"#utility.yul\":17769:17829   */\n      swap2\n      swap1\n      pop\n      jump\t// out\n        /* \"#utility.yul\":17835:17977   */\n    tag_195:\n        /* \"#utility.yul\":17885:17894   */\n      0x00\n        /* \"#utility.yul\":17918:17971   */\n      tag_378\n        /* \"#utility.yul\":17936:17970   */\n      tag_379\n        /* \"#utility.yul\":17945:17969   */\n      tag_380\n        /* \"#utility.yul\":17963:17968   */\n      dup5\n        /* \"#utility.yul\":17945:17969   */\n      tag_154\n      jump\t// in\n    tag_380:\n        /* \"#utility.yul\":17936:17970   */\n      tag_194\n      jump\t// in\n    tag_379:\n        /* \"#utility.yul\":17918:17971   */\n      tag_154\n      jump\t// in\n    tag_378:\n        /* \"#utility.yul\":17905:17971   */\n      swap1\n      pop\n        /* \"#utility.yul\":17835:17977   */\n      swap2\n      swap1\n      pop\n      jump\t// out\n        /* \"#utility.yul\":17983:18058   */\n    tag_196:\n        /* \"#utility.yul\":18026:18029   */\n      0x00\n        /* \"#utility.yul\":18047:18052   */\n      dup2\n        /* \"#utility.yul\":18040:18052   */\n      swap1\n      pop\n        /* \"#utility.yul\":17983:18058   */\n      swap2\n      swap1\n      pop\n      jump\t// out\n        /* \"#utility.yul\":18064:18333   */\n    tag_197:\n        /* \"#utility.yul\":18174:18213   */\n      tag_383\n        /* \"#utility.yul\":18205:18212   */\n      dup4\n        /* \"#utility.yul\":18174:18213   */\n      tag_195\n      jump\t// in\n    tag_383:\n        /* \"#utility.yul\":18235:18326   */\n      tag_384\n        /* \"#utility.yul\":18284:18325   */\n      tag_385\n        /* \"#utility.yul\":18308:18324   */\n      dup3\n        /* \"#utility.yul\":18284:18325   */\n      tag_196\n      jump\t// in\n    tag_385:\n        /* \"#utility.yul\":18276:18282   */\n      dup5\n        /* \"#utility.yul\":18269:18273   */\n      dup5\n        /* \"#utility.yul\":18263:18274   */\n      sload\n        /* \"#utility.yul\":18235:18326   */\n      tag_193\n      jump\t// in\n    tag_384:\n        /* \"#utility.yul\":18229:18233   */\n      dup3\n        /* \"#utility.yul\":18222:18327   */\n      sstore\n        /* \"#utility.yul\":18140:18333   */\n      pop\n        /* \"#utility.yul\":18064:18333   */\n      pop\n      pop\n      pop\n      jump\t// out\n        /* \"#utility.yul\":18339:18412   */\n    tag_198:\n        /* \"#utility.yul\":18384:18387   */\n      0x00\n        /* \"#utility.yul\":18339:18412   */\n      swap1\n      jump\t// out\n        /* \"#utility.yul\":18418:18607   */\n    tag_199:\n        /* \"#utility.yul\":18495:18527   */\n      tag_388\n      tag_198\n      jump\t// in\n    tag_388:\n        /* \"#utility.yul\":18536:18601   */\n      tag_389\n        /* \"#utility.yul\":18594:18600   */\n      dup2\n        /* \"#utility.yul\":18586:18592   */\n      dup5\n        /* \"#utility.yul\":18580:18584   */\n      dup5\n        /* \"#utility.yul\":18536:18601   */\n      tag_197\n      jump\t// in\n    tag_389:\n        /* \"#utility.yul\":18471:18607   */\n      pop\n        /* \"#utility.yul\":18418:18607   */\n      pop\n      pop\n      jump\t// out\n        /* \"#utility.yul\":18613:18799   */\n    tag_200:\n        /* \"#utility.yul\":18673:18793   */\n    tag_391:\n        /* \"#utility.yul\":18690:18693   */\n      dup2\n        /* \"#utility.yul\":18683:18688   */\n      dup2\n        /* \"#utility.yul\":18680:18694   */\n      lt\n        /* \"#utility.yul\":18673:18793   */\n      iszero\n      tag_393\n      jumpi\n        /* \"#utility.yul\":18744:18783   */\n      tag_394\n        /* \"#utility.yul\":18781:18782   */\n      0x00\n        /* \"#utility.yul\":18774:18779   */\n      dup3\n        /* \"#utility.yul\":18744:18783   */\n      tag_199\n      jump\t// in\n    tag_394:\n        /* \"#utility.yul\":18717:18718   */\n      0x01\n        /* \"#utility.yul\":18710:18715   */\n      dup2\n        /* \"#utility.yul\":18706:18719   */\n      add\n        /* \"#utility.yul\":18697:18719   */\n      swap1\n      pop\n        /* \"#utility.yul\":18673:18793   */\n      jump(tag_391)\n    tag_393:\n        /* \"#utility.yul\":18613:18799   */\n      pop\n      pop\n      jump\t// out\n        /* \"#utility.yul\":18805:19348   */\n    tag_201:\n        /* \"#utility.yul\":18906:18908   */\n      0x1f\n        /* \"#utility.yul\":18901:18904   */\n      dup3\n        /* \"#utility.yul\":18898:18909   */\n      gt\n        /* \"#utility.yul\":18895:19341   */\n      iszero\n      tag_396\n      jumpi\n        /* \"#utility.yul\":18940:18978   */\n      tag_397\n        /* \"#utility.yul\":18972:18977   */\n      dup2\n        /* \"#utility.yul\":18940:18978   */\n      tag_190\n      jump\t// in\n    tag_397:\n        /* \"#utility.yul\":19024:19053   */\n      tag_398\n        /* \"#utility.yul\":19042:19052   */\n      dup5\n        /* \"#utility.yul\":19024:19053   */\n      tag_191\n      jump\t// in\n    tag_398:\n        /* \"#utility.yul\":19014:19022   */\n      dup2\n        /* \"#utility.yul\":19010:19054   */\n      add\n        /* \"#utility.yul\":19207:19209   */\n      0x20\n        /* \"#utility.yul\":19195:19205   */\n      dup6\n        /* \"#utility.yul\":19192:19210   */\n      lt\n        /* \"#utility.yul\":19189:19238   */\n      iszero\n      tag_399\n      jumpi\n        /* \"#utility.yul\":19228:19236   */\n      dup2\n        /* \"#utility.yul\":19213:19236   */\n      swap1\n      pop\n        /* \"#utility.yul\":19189:19238   */\n    tag_399:\n        /* \"#utility.yul\":19251:19331   */\n      tag_400\n        /* \"#utility.yul\":19307:19329   */\n      tag_401\n        /* \"#utility.yul\":19325:19328   */\n      dup6\n        /* \"#utility.yul\":19307:19329   */\n      tag_191\n      jump\t// in\n    tag_401:\n        /* \"#utility.yul\":19297:19305   */\n      dup4\n        /* \"#utility.yul\":19293:19330   */\n      add\n        /* \"#utility.yul\":19280:19291   */\n      dup3\n        /* \"#utility.yul\":19251:19331   */\n      tag_200\n      jump\t// in\n    tag_400:\n        /* \"#utility.yul\":18910:19341   */\n      pop\n      pop\n        /* \"#utility.yul\":18895:19341   */\n    tag_396:\n        /* \"#utility.yul\":18805:19348   */\n      pop\n      pop\n      pop\n      jump\t// out\n        /* \"#utility.yul\":19354:19471   */\n    tag_202:\n        /* \"#utility.yul\":19408:19416   */\n      0x00\n        /* \"#utility.yul\":19458:19463   */\n      dup3\n        /* \"#utility.yul\":19452:19456   */\n      dup3\n        /* \"#utility.yul\":19448:19464   */\n      shr\n        /* \"#utility.yul\":19427:19464   */\n      swap1\n      pop\n        /* \"#utility.yul\":19354:19471   */\n      swap3\n      swap2\n      pop\n      pop\n      jump\t// out\n        /* \"#utility.yul\":19477:19646   */\n    tag_203:\n        /* \"#utility.yul\":19521:19527   */\n      0x00\n        /* \"#utility.yul\":19554:19605   */\n      tag_404\n        /* \"#utility.yul\":19602:19603   */\n      0x00\n        /* \"#utility.yul\":19598:19604   */\n      not\n        /* \"#utility.yul\":19590:19595   */\n      dup5\n        /* \"#utility.yul\":19587:19588   */\n      0x08\n        /* \"#utility.yul\":19583:19596   */\n      mul\n        /* \"#utility.yul\":19554:19605   */\n      tag_202\n      jump\t// in\n    tag_404:\n        /* \"#utility.yul\":19550:19606   */\n      not\n        /* \"#utility.yul\":19635:19639   */\n      dup1\n        /* \"#utility.yul\":19629:19633   */\n      dup4\n        /* \"#utility.yul\":19625:19640   */\n      and\n        /* \"#utility.yul\":19615:19640   */\n      swap2\n      pop\n        /* \"#utility.yul\":19528:19646   */\n      pop\n        /* \"#utility.yul\":19477:19646   */\n      swap3\n      swap2\n      pop\n      pop\n      jump\t// out\n        /* \"#utility.yul\":19651:19946   */\n    tag_204:\n        /* \"#utility.yul\":19727:19731   */\n      0x00\n        /* \"#utility.yul\":19873:19902   */\n      tag_406\n        /* \"#utility.yul\":19898:19901   */\n      dup4\n        /* \"#utility.yul\":19892:19896   */\n      dup4\n        /* \"#utility.yul\":19873:19902   */\n      tag_203\n      jump\t// in\n    tag_406:\n        /* \"#utility.yul\":19865:19902   */\n      swap2\n      pop\n        /* \"#utility.yul\":19935:19938   */\n      dup3\n        /* \"#utility.yul\":19932:19933   */\n      0x02\n        /* \"#utility.yul\":19928:19939   */\n      mul\n        /* \"#utility.yul\":19922:19926   */\n      dup3\n        /* \"#utility.yul\":19919:19940   */\n      or\n        /* \"#utility.yul\":19911:19940   */\n      swap1\n      pop\n        /* \"#utility.yul\":19651:19946   */\n      swap3\n      swap2\n      pop\n      pop\n      jump\t// out\n        /* \"#utility.yul\":19951:21346   */\n    tag_73:\n        /* \"#utility.yul\":20068:20105   */\n      tag_408\n        /* \"#utility.yul\":20101:20104   */\n      dup3\n        /* \"#utility.yul\":20068:20105   */\n      tag_177\n      jump\t// in\n    tag_408:\n        /* \"#utility.yul\":20170:20188   */\n      0xffffffffffffffff\n        /* \"#utility.yul\":20162:20168   */\n      dup2\n        /* \"#utility.yul\":20159:20189   */\n      gt\n        /* \"#utility.yul\":20156:20212   */\n      iszero\n      tag_409\n      jumpi\n        /* \"#utility.yul\":20192:20210   */\n      tag_410\n      tag_163\n      jump\t// in\n    tag_410:\n        /* \"#utility.yul\":20156:20212   */\n    tag_409:\n        /* \"#utility.yul\":20236:20274   */\n      tag_411\n        /* \"#utility.yul\":20268:20272   */\n      dup3\n        /* \"#utility.yul\":20262:20273   */\n      sload\n        /* \"#utility.yul\":20236:20274   */\n      tag_80\n      jump\t// in\n    tag_411:\n        /* \"#utility.yul\":20321:20388   */\n      tag_412\n        /* \"#utility.yul\":20381:20387   */\n      dup3\n        /* \"#utility.yul\":20373:20379   */\n      dup3\n        /* \"#utility.yul\":20367:20371   */\n      dup6\n        /* \"#utility.yul\":20321:20388   */\n      tag_201\n      jump\t// in\n    tag_412:\n        /* \"#utility.yul\":20415:20416   */\n      0x00\n        /* \"#utility.yul\":20439:20443   */\n      0x20\n        /* \"#utility.yul\":20426:20443   */\n      swap1\n      pop\n        /* \"#utility.yul\":20471:20473   */\n      0x1f\n        /* \"#utility.yul\":20463:20469   */\n      dup4\n        /* \"#utility.yul\":20460:20474   */\n      gt\n        /* \"#utility.yul\":20488:20489   */\n      0x01\n        /* \"#utility.yul\":20483:21101   */\n      dup2\n      eq\n      tag_414\n      jumpi\n        /* \"#utility.yul\":21145:21146   */\n      0x00\n        /* \"#utility.yul\":21162:21168   */\n      dup5\n        /* \"#utility.yul\":21159:21236   */\n      iszero\n      tag_415\n      jumpi\n        /* \"#utility.yul\":21211:21220   */\n      dup3\n        /* \"#utility.yul\":21206:21209   */\n      dup8\n        /* \"#utility.yul\":21202:21221   */\n      add\n        /* \"#utility.yul\":21196:21222   */\n      mload\n        /* \"#utility.yul\":21187:21222   */\n      swap1\n      pop\n        /* \"#utility.yul\":21159:21236   */\n    tag_415:\n        /* \"#utility.yul\":21262:21329   */\n      tag_416\n        /* \"#utility.yul\":21322:21328   */\n      dup6\n        /* \"#utility.yul\":21315:21320   */\n      dup3\n        /* \"#utility.yul\":21262:21329   */\n      tag_204\n      jump\t// in\n    tag_416:\n        /* \"#utility.yul\":21256:21260   */\n      dup7\n        /* \"#utility.yul\":21249:21330   */\n      sstore\n        /* \"#utility.yul\":21118:21340   */\n      pop\n        /* \"#utility.yul\":20453:21340   */\n      jump(tag_413)\n        /* \"#utility.yul\":20483:21101   */\n    tag_414:\n        /* \"#utility.yul\":20535:20539   */\n      0x1f\n        /* \"#utility.yul\":20531:20540   */\n      not\n        /* \"#utility.yul\":20523:20529   */\n      dup5\n        /* \"#utility.yul\":20519:20541   */\n      and\n        /* \"#utility.yul\":20569:20606   */\n      tag_417\n        /* \"#utility.yul\":20601:20605   */\n      dup7\n        /* \"#utility.yul\":20569:20606   */\n      tag_190\n      jump\t// in\n    tag_417:\n        /* \"#utility.yul\":20628:20629   */\n      0x00\n        /* \"#utility.yul\":20642:20850   */\n    tag_418:\n        /* \"#utility.yul\":20656:20663   */\n      dup3\n        /* \"#utility.yul\":20653:20654   */\n      dup2\n        /* \"#utility.yul\":20650:20664   */\n      lt\n        /* \"#utility.yul\":20642:20850   */\n      iszero\n      tag_420\n      jumpi\n        /* \"#utility.yul\":20735:20744   */\n      dup5\n        /* \"#utility.yul\":20730:20733   */\n      dup10\n        /* \"#utility.yul\":20726:20745   */\n      add\n        /* \"#utility.yul\":20720:20746   */\n      mload\n        /* \"#utility.yul\":20712:20718   */\n      dup3\n        /* \"#utility.yul\":20705:20747   */\n      sstore\n        /* \"#utility.yul\":20786:20787   */\n      0x01\n        /* \"#utility.yul\":20778:20784   */\n      dup3\n        /* \"#utility.yul\":20774:20788   */\n      add\n        /* \"#utility.yul\":20764:20788   */\n      swap2\n      pop\n        /* \"#utility.yul\":20833:20835   */\n      0x20\n        /* \"#utility.yul\":20822:20831   */\n      dup6\n        /* \"#utility.yul\":20818:20836   */\n      add\n        /* \"#utility.yul\":20805:20836   */\n      swap5\n      pop\n        /* \"#utility.yul\":20679:20683   */\n      0x20\n        /* \"#utility.yul\":20676:20677   */\n      dup2\n        /* \"#utility.yul\":20672:20684   */\n      add\n        /* \"#utility.yul\":20667:20684   */\n      swap1\n      pop\n        /* \"#utility.yul\":20642:20850   */\n      jump(tag_418)\n    tag_420:\n        /* \"#utility.yul\":20878:20884   */\n      dup7\n        /* \"#utility.yul\":20869:20876   */\n      dup4\n        /* \"#utility.yul\":20866:20885   */\n      lt\n        /* \"#utility.yul\":20863:21042   */\n      iszero\n      tag_421\n      jumpi\n        /* \"#utility.yul\":20936:20945   */\n      dup5\n        /* \"#utility.yul\":20931:20934   */\n      dup10\n        /* \"#utility.yul\":20927:20946   */\n      add\n        /* \"#utility.yul\":20921:20947   */\n      mload\n        /* \"#utility.yul\":20979:21027   */\n      tag_422\n        /* \"#utility.yul\":21021:21025   */\n      0x1f\n        /* \"#utility.yul\":21013:21019   */\n      dup10\n        /* \"#utility.yul\":21009:21026   */\n      and\n        /* \"#utility.yul\":20998:21007   */\n      dup3\n        /* \"#utility.yul\":20979:21027   */\n      tag_203\n      jump\t// in\n    tag_422:\n        /* \"#utility.yul\":20971:20977   */\n      dup4\n        /* \"#utility.yul\":20964:21028   */\n      sstore\n        /* \"#utility.yul\":20886:21042   */\n      pop\n        /* \"#utility.yul\":20863:21042   */\n    tag_421:\n        /* \"#utility.yul\":21088:21089   */\n      0x01\n        /* \"#utility.yul\":21084:21085   */\n      0x02\n        /* \"#utility.yul\":21076:21082   */\n      dup9\n        /* \"#utility.yul\":21072:21086   */\n      mul\n        /* \"#utility.yul\":21068:21090   */\n      add\n        /* \"#utility.yul\":21062:21066   */\n      dup9\n        /* \"#utility.yul\":21055:21091   */\n      sstore\n        /* \"#utility.yul\":20490:21101   */\n      pop\n      pop\n      pop\n        /* \"#utility.yul\":20453:21340   */\n    tag_413:\n      pop\n        /* \"#utility.yul\":20043:21346   */\n      pop\n      pop\n      pop\n        /* \"#utility.yul\":19951:21346   */\n      pop\n      pop\n      jump\t// out\n        /* \"#utility.yul\":21352:21532   */\n    tag_205:\n        /* \"#utility.yul\":21400:21477   */\n      0x4e487b7100000000000000000000000000000000000000000000000000000000\n        /* \"#utility.yul\":21397:21398   */\n      0x00\n        /* \"#utility.yul\":21390:21478   */\n      mstore\n        /* \"#utility.yul\":21497:21501   */\n      0x11\n        /* \"#utility.yul\":21494:21495   */\n      0x04\n        /* \"#utility.yul\":21487:21502   */\n      mstore\n        /* \"#utility.yul\":21521:21525   */\n      0x24\n        /* \"#utility.yul\":21518:21519   */\n      0x00\n        /* \"#utility.yul\":21511:21526   */\n      revert\n        /* \"#utility.yul\":21538:21771   */\n    tag_97:\n        /* \"#utility.yul\":21577:21580   */\n      0x00\n        /* \"#utility.yul\":21600:21624   */\n      tag_425\n        /* \"#utility.yul\":21618:21623   */\n      dup3\n        /* \"#utility.yul\":21600:21624   */\n      tag_154\n      jump\t// in\n    tag_425:\n        /* \"#utility.yul\":21591:21624   */\n      swap2\n      pop\n        /* \"#utility.yul\":21646:21712   */\n      0xffffffffffffffffffffffffffffffffffffffffffffffffffffffffffffffff\n        /* \"#utility.yul\":21639:21644   */\n      dup3\n        /* \"#utility.yul\":21636:21713   */\n      sub\n        /* \"#utility.yul\":21633:21736   */\n      tag_426\n      jumpi\n        /* \"#utility.yul\":21716:21734   */\n      tag_427\n      tag_205\n      jump\t// in\n    tag_427:\n        /* \"#utility.yul\":21633:21736   */\n    tag_426:\n        /* \"#utility.yul\":21763:21764   */\n      0x01\n        /* \"#utility.yul\":21756:21761   */\n      dup3\n        /* \"#utility.yul\":21752:21765   */\n      add\n        /* \"#utility.yul\":21745:21765   */\n      swap1\n      pop\n        /* \"#utility.yul\":21538:21771   */\n      swap2\n      swap1\n      pop\n      jump\t// out\n        /* \"#utility.yul\":21777:21948   */\n    tag_127:\n        /* \"#utility.yul\":21816:21819   */\n      0x00\n        /* \"#utility.yul\":21839:21863   */\n      tag_429\n        /* \"#utility.yul\":21857:21862   */\n      dup3\n        /* \"#utility.yul\":21839:21863   */\n      tag_154\n      jump\t// in\n    tag_429:\n        /* \"#utility.yul\":21830:21863   */\n      swap2\n      pop\n        /* \"#utility.yul\":21885:21889   */\n      0x00\n        /* \"#utility.yul\":21878:21883   */\n      dup3\n        /* \"#utility.yul\":21875:21890   */\n      sub\n        /* \"#utility.yul\":21872:21913   */\n      tag_430\n      jumpi\n        /* \"#utility.yul\":21893:21911   */\n      tag_431\n      tag_205\n      jump\t// in\n    tag_431:\n        /* \"#utility.yul\":21872:21913   */\n    tag_430:\n        /* \"#utility.yul\":21940:21941   */\n      0x01\n        /* \"#utility.yul\":21933:21938   */\n      dup3\n        /* \"#utility.yul\":21929:21942   */\n      sub\n        /* \"#utility.yul\":21922:21942   */\n      swap1\n      pop\n        /* \"#utility.yul\":21777:21948   */\n      swap2\n      swap1\n      pop\n      jump\t// out\n        /* \"#utility.yul\":21978:22809   */\n    tag_206:\n        /* \"#utility.yul\":22063:22066   */\n      0x00\n        /* \"#utility.yul\":22100:22105   */\n      dup2\n        /* \"#utility.yul\":22094:22106   */\n      sload\n        /* \"#utility.yul\":22129:22165   */\n      tag_433\n        /* \"#utility.yul\":22155:22164   */\n      dup2\n        /* \"#utility.yul\":22129:22165   */\n      tag_80\n      jump\t// in\n    tag_433:\n        /* \"#utility.yul\":22181:22252   */\n      tag_434\n        /* \"#utility.yul\":22245:22251   */\n      dup2\n        /* \"#utility.yul\":22240:22243   */\n      dup7\n        /* \"#utility.yul\":22181:22252   */\n      tag_184\n      jump\t// in\n    tag_434:\n        /* \"#utility.yul\":22174:22252   */\n      swap5\n      pop\n        /* \"#utility.yul\":22283:22284   */\n      0x01\n        /* \"#utility.yul\":22272:22281   */\n      dup3\n        /* \"#utility.yul\":22268:22285   */\n      and\n        /* \"#utility.yul\":22299:22300   */\n      0x00\n        /* \"#utility.yul\":22294:22458   */\n      dup2\n      eq\n      tag_436\n      jumpi\n        /* \"#utility.yul\":22472:22473   */\n      0x01\n        /* \"#utility.yul\":22467:22803   */\n      dup2\n      eq\n      tag_437\n      jumpi\n        /* \"#utility.yul\":22261:22803   */\n      jump(tag_435)\n        /* \"#utility.yul\":22294:22458   */\n    tag_436:\n        /* \"#utility.yul\":22378:22382   */\n      0xff\n        /* \"#utility.yul\":22374:22383   */\n      not\n        /* \"#utility.yul\":22363:22372   */\n      dup4\n        /* \"#utility.yul\":22359:22384   */\n      and\n        /* \"#utility.yul\":22354:22357   */\n      dup7\n        /* \"#utility.yul\":22347:22385   */\n      mstore\n        /* \"#utility.yul\":22438:22444   */\n      dup2\n        /* \"#utility.yul\":22431:22445   */\n      iszero\n        /* \"#utility.yul\":22424:22446   */\n      iszero\n        /* \"#utility.yul\":22418:22422   */\n      0x20\n        /* \"#utility.yul\":22414:22447   */\n      mul\n        /* \"#utility.yul\":22409:22412   */\n      dup7\n        /* \"#utility.yul\":22405:22448   */\n      add\n        /* \"#utility.yul\":22398:22448   */\n      swap4\n      pop\n        /* \"#utility.yul\":22294:22458   */\n      jump(tag_435)\n        /* \"#utility.yul\":22467:22803   */\n    tag_437:\n        /* \"#utility.yul\":22534:22572   */\n      tag_438\n        /* \"#utility.yul\":22566:22571   */\n      dup6\n        /* \"#utility.yul\":22534:22572   */\n      tag_190\n      jump\t// in\n    tag_438:\n        /* \"#utility.yul\":22594:22595   */\n      0x00\n        /* \"#utility.yul\":22608:22762   */\n    tag_439:\n        /* \"#utility.yul\":22622:22628   */\n      dup4\n        /* \"#utility.yul\":22619:22620   */\n      dup2\n        /* \"#utility.yul\":22616:22629   */\n      lt\n        /* \"#utility.yul\":22608:22762   */\n      iszero\n      tag_441\n      jumpi\n        /* \"#utility.yul\":22696:22703   */\n      dup2\n        /* \"#utility.yul\":22690:22704   */\n      sload\n        /* \"#utility.yul\":22686:22687   */\n      dup2\n        /* \"#utility.yul\":22681:22684   */\n      dup10\n        /* \"#utility.yul\":22677:22688   */\n      add\n        /* \"#utility.yul\":22670:22705   */\n      mstore\n        /* \"#utility.yul\":22746:22747   */\n      0x01\n        /* \"#utility.yul\":22737:22744   */\n      dup3\n        /* \"#utility.yul\":22733:22748   */\n      add\n        /* \"#utility.yul\":22722:22748   */\n      swap2\n      pop\n        /* \"#utility.yul\":22644:22648   */\n      0x20\n        /* \"#utility.yul\":22641:22642   */\n      dup2\n        /* \"#utility.yul\":22637:22649   */\n      add\n        /* \"#utility.yul\":22632:22649   */\n      swap1\n      pop\n        /* \"#utility.yul\":22608:22762   */\n      jump(tag_439)\n    tag_441:\n        /* \"#utility.yul\":22791:22792   */\n      dup1\n        /* \"#utility.yul\":22786:22789   */\n      dup9\n        /* \"#utility.yul\":22782:22793   */\n      add\n        /* \"#utility.yul\":22775:22793   */\n      swap6\n      pop\n        /* \"#utility.yul\":22474:22803   */\n      pop\n      pop\n        /* \"#utility.yul\":22261:22803   */\n    tag_435:\n      pop\n        /* \"#utility.yul\":22067:22809   */\n      pop\n      pop\n        /* \"#utility.yul\":21978:22809   */\n      swap3\n      swap2\n      pop\n      pop\n      jump\t// out\n        /* \"#utility.yul\":22815:23232   */\n    tag_130:\n        /* \"#utility.yul\":22953:22957   */\n      0x00\n        /* \"#utility.yul\":22991:22993   */\n      0x40\n        /* \"#utility.yul\":22980:22989   */\n      dup3\n        /* \"#utility.yul\":22976:22994   */\n      add\n        /* \"#utility.yul\":22968:22994   */\n      swap1\n      pop\n        /* \"#utility.yul\":23004:23075   */\n      tag_443\n        /* \"#utility.yul\":23072:23073   */\n      0x00\n        /* \"#utility.yul\":23061:23070   */\n      dup4\n        /* \"#utility.yul\":23057:23074   */\n      add\n        /* \"#utility.yul\":23048:23054   */\n      dup6\n        /* \"#utility.yul\":23004:23075   */\n      tag_155\n      jump\t// in\n    tag_443:\n        /* \"#utility.yul\":23122:23131   */\n      dup2\n        /* \"#utility.yul\":23116:23120   */\n      dup2\n        /* \"#utility.yul\":23112:23132   */\n      sub\n        /* \"#utility.yul\":23107:23109   */\n      0x20\n        /* \"#utility.yul\":23096:23105   */\n      dup4\n        /* \"#utility.yul\":23092:23110   */\n      add\n        /* \"#utility.yul\":23085:23133   */\n      mstore\n        /* \"#utility.yul\":23150:23225   */\n      tag_444\n        /* \"#utility.yul\":23220:23224   */\n      dup2\n        /* \"#utility.yul\":23211:23217   */\n      dup5\n        /* \"#utility.yul\":23150:23225   */\n      tag_206\n      jump\t// in\n    tag_444:\n        /* \"#utility.yul\":23142:23225   */\n      swap1\n      pop\n        /* \"#utility.yul\":22815:23232   */\n      swap4\n      swap3\n      pop\n      pop\n      pop\n      jump\t// out\n        /* \"#utility.yul\":23238:23403   */\n    tag_207:\n        /* \"#utility.yul\":23378:23395   */\n      0x546f206265206576616c75617465640000000000000000000000000000000000\n        /* \"#utility.yul\":23374:23375   */\n      0x00\n        /* \"#utility.yul\":23366:23372   */\n      dup3\n        /* \"#utility.yul\":23362:23376   */\n      add\n        /* \"#utility.yul\":23355:23396   */\n      mstore\n        /* \"#utility.yul\":23238:23403   */\n      pop\n      jump\t// out\n        /* \"#utility.yul\":23409:23775   */\n    tag_208:\n        /* \"#utility.yul\":23551:23554   */\n      0x00\n        /* \"#utility.yul\":23572:23639   */\n      tag_447\n        /* \"#utility.yul\":23636:23638   */\n      0x0f\n        /* \"#utility.yul\":23631:23634   */\n      dup4\n        /* \"#utility.yul\":23572:23639   */\n      tag_184\n      jump\t// in\n    tag_447:\n        /* \"#utility.yul\":23565:23639   */\n      swap2\n      pop\n        /* \"#utility.yul\":23648:23741   */\n      tag_448\n        /* \"#utility.yul\":23737:23740   */\n      dup3\n        /* \"#utility.yul\":23648:23741   */\n      tag_207\n      jump\t// in\n    tag_448:\n        /* \"#utility.yul\":23766:23768   */\n      0x20\n        /* \"#utility.yul\":23761:23764   */\n      dup3\n        /* \"#utility.yul\":23757:23769   */\n      add\n        /* \"#utility.yul\":23750:23769   */\n      swap1\n      pop\n        /* \"#utility.yul\":23409:23775   */\n      swap2\n      swap1\n      pop\n      jump\t// out\n        /* \"#utility.yul\":23781:23945   */\n    tag_209:\n        /* \"#utility.yul\":23921:23937   */\n      0x546f2062652061737369676e6564000000000000000000000000000000000000\n        /* \"#utility.yul\":23917:23918   */\n      0x00\n        /* \"#utility.yul\":23909:23915   */\n      dup3\n        /* \"#utility.yul\":23905:23919   */\n      add\n        /* \"#utility.yul\":23898:23938   */\n      mstore\n        /* \"#utility.yul\":23781:23945   */\n      pop\n      jump\t// out\n        /* \"#utility.yul\":23951:24317   */\n    tag_210:\n        /* \"#utility.yul\":24093:24096   */\n      0x00\n        /* \"#utility.yul\":24114:24181   */\n      tag_451\n        /* \"#utility.yul\":24178:24180   */\n      0x0e\n        /* \"#utility.yul\":24173:24176   */\n      dup4\n        /* \"#utility.yul\":24114:24181   */\n      tag_184\n      jump\t// in\n    tag_451:\n        /* \"#utility.yul\":24107:24181   */\n      swap2\n      pop\n        /* \"#utility.yul\":24190:24283   */\n      tag_452\n        /* \"#utility.yul\":24279:24282   */\n      dup3\n        /* \"#utility.yul\":24190:24283   */\n      tag_209\n      jump\t// in\n    tag_452:\n        /* \"#utility.yul\":24308:24310   */\n      0x20\n        /* \"#utility.yul\":24303:24306   */\n      dup3\n        /* \"#utility.yul\":24299:24311   */\n      add\n        /* \"#utility.yul\":24292:24311   */\n      swap1\n      pop\n        /* \"#utility.yul\":23951:24317   */\n      swap2\n      swap1\n      pop\n      jump\t// out\n        /* \"#utility.yul\":24323:25757   */\n    tag_144:\n        /* \"#utility.yul\":24754:24758   */\n      0x00\n        /* \"#utility.yul\":24792:24795   */\n      0x0100\n        /* \"#utility.yul\":24781:24790   */\n      dup3\n        /* \"#utility.yul\":24777:24796   */\n      add\n        /* \"#utility.yul\":24769:24796   */\n      swap1\n      pop\n        /* \"#utility.yul\":24842:24851   */\n      dup2\n        /* \"#utility.yul\":24836:24840   */\n      dup2\n        /* \"#utility.yul\":24832:24852   */\n      sub\n        /* \"#utility.yul\":24828:24829   */\n      0x00\n        /* \"#utility.yul\":24817:24826   */\n      dup4\n        /* \"#utility.yul\":24813:24830   */\n      add\n        /* \"#utility.yul\":24806:24853   */\n      mstore\n        /* \"#utility.yul\":24870:24948   */\n      tag_454\n        /* \"#utility.yul\":24943:24947   */\n      dup2\n        /* \"#utility.yul\":24934:24940   */\n      dup10\n        /* \"#utility.yul\":24870:24948   */\n      tag_185\n      jump\t// in\n    tag_454:\n        /* \"#utility.yul\":24862:24948   */\n      swap1\n      pop\n        /* \"#utility.yul\":24958:25030   */\n      tag_455\n        /* \"#utility.yul\":25026:25028   */\n      0x20\n        /* \"#utility.yul\":25015:25024   */\n      dup4\n        /* \"#utility.yul\":25011:25029   */\n      add\n        /* \"#utility.yul\":25002:25008   */\n      dup9\n        /* \"#utility.yul\":24958:25030   */\n      tag_155\n      jump\t// in\n    tag_455:\n        /* \"#utility.yul\":25077:25086   */\n      dup2\n        /* \"#utility.yul\":25071:25075   */\n      dup2\n        /* \"#utility.yul\":25067:25087   */\n      sub\n        /* \"#utility.yul\":25062:25064   */\n      0x40\n        /* \"#utility.yul\":25051:25060   */\n      dup4\n        /* \"#utility.yul\":25047:25065   */\n      add\n        /* \"#utility.yul\":25040:25088   */\n      mstore\n        /* \"#utility.yul\":25105:25236   */\n      tag_456\n        /* \"#utility.yul\":25231:25235   */\n      dup2\n        /* \"#utility.yul\":25105:25236   */\n      tag_208\n      jump\t// in\n    tag_456:\n        /* \"#utility.yul\":25097:25236   */\n      swap1\n      pop\n        /* \"#utility.yul\":25283:25292   */\n      dup2\n        /* \"#utility.yul\":25277:25281   */\n      dup2\n        /* \"#utility.yul\":25273:25293   */\n      sub\n        /* \"#utility.yul\":25268:25270   */\n      0x60\n        /* \"#utility.yul\":25257:25266   */\n      dup4\n        /* \"#utility.yul\":25253:25271   */\n      add\n        /* \"#utility.yul\":25246:25294   */\n      mstore\n        /* \"#utility.yul\":25311:25442   */\n      tag_457\n        /* \"#utility.yul\":25437:25441   */\n      dup2\n        /* \"#utility.yul\":25311:25442   */\n      tag_210\n      jump\t// in\n    tag_457:\n        /* \"#utility.yul\":25303:25442   */\n      swap1\n      pop\n        /* \"#utility.yul\":25452:25519   */\n      tag_458\n        /* \"#utility.yul\":25514:25517   */\n      0x80\n        /* \"#utility.yul\":25503:25512   */\n      dup4\n        /* \"#utility.yul\":25499:25518   */\n      add\n        /* \"#utility.yul\":25490:25496   */\n      dup8\n        /* \"#utility.yul\":25452:25519   */\n      tag_186\n      jump\t// in\n    tag_458:\n        /* \"#utility.yul\":25529:25596   */\n      tag_459\n        /* \"#utility.yul\":25591:25594   */\n      0xa0\n        /* \"#utility.yul\":25580:25589   */\n      dup4\n        /* \"#utility.yul\":25576:25595   */\n      add\n        /* \"#utility.yul\":25567:25573   */\n      dup7\n        /* \"#utility.yul\":25529:25596   */\n      tag_186\n      jump\t// in\n    tag_459:\n        /* \"#utility.yul\":25606:25673   */\n      tag_460\n        /* \"#utility.yul\":25668:25671   */\n      0xc0\n        /* \"#utility.yul\":25657:25666   */\n      dup4\n        /* \"#utility.yul\":25653:25672   */\n      add\n        /* \"#utility.yul\":25644:25650   */\n      dup6\n        /* \"#utility.yul\":25606:25673   */\n      tag_186\n      jump\t// in\n    tag_460:\n        /* \"#utility.yul\":25683:25750   */\n      tag_461\n        /* \"#utility.yul\":25745:25748   */\n      0xe0\n        /* \"#utility.yul\":25734:25743   */\n      dup4\n        /* \"#utility.yul\":25730:25749   */\n      add\n        /* \"#utility.yul\":25721:25727   */\n      dup5\n        /* \"#utility.yul\":25683:25750   */\n      tag_186\n      jump\t// in\n    tag_461:\n        /* \"#utility.yul\":24323:25757   */\n      swap8\n      swap7\n      pop\n      pop\n      pop\n      pop\n      pop\n      pop\n      pop\n      jump\t// out\n\n    auxdata: 0xa2646970667358221220cbf018415875975b21204b5c144fbf87fe9026121c7dcbf4dd63e32bc55c975c64736f6c634300081a0033\n}\n",
				"bytecode": {
					"linkReferences": {},
					"object": "6080604052348015600e575f80fd5b50335f806101000a81548173ffffffffffffffffffffffffffffffffffffffff021916908373ffffffffffffffffffffffffffffffffffffffff160217905550611bde8061005b5f395ff3fe608060405234801561000f575f80fd5b50600436106100cd575f3560e01c80635badbe4c1161008a57806381d12c581161006457806381d12c58146102045780638af88a5c14610235578063c58343ef14610251578063e7da532814610281576100cd565b80635badbe4c146101ac5780635be2218b146101ca57806361259745146101e6576100cd565b8063098809d7146100d15780630d47dd26146100ef57806310742b511461010b578063125f02bb1461013b5780632f045b02146101595780634fbd241d14610175575b5f80fd5b6100d961029f565b6040516100e69190610ec7565b60405180910390f35b610109600480360381019061010491906111af565b6102a5565b005b61012560048036038101906101209190611209565b610387565b604051610132919061136d565b60405180910390f35b6101436105d7565b6040516101509190610ec7565b60405180910390f35b610173600480360381019061016e919061138d565b6105dd565b005b61018f600480360381019061018a9190611209565b6106a8565b6040516101a398979695949392919061143e565b60405180910390f35b6101b46108b1565b6040516101c19190610ec7565b60405180910390f35b6101e460048036038101906101df9190611538565b6108b7565b005b6101ee610ab7565b6040516101fb9190610ec7565b60405180910390f35b61021e60048036038101906102199190611209565b610abd565b60405161022c929190611592565b60405180910390f35b61024f600480360381019061024a91906115c0565b610b6f565b005b61026b60048036038101906102669190611209565b610d6f565b6040516102789190611654565b60405180910390f35b610289610e43565b6040516102969190610ec7565b60405180910390f35b60035481565b8060025f8481526020019081526020015f205f820151815f0190816102ca919061186e565b506020820151816001015560408201518160020190816102ea919061186e565b506060820151816003019081610300919061186e565b506080820151816004015f6101000a81548160ff02191690831515021790555060a08201518160040160016101000a81548160ff02191690831515021790555060c08201518160040160026101000a81548160ff02191690831515021790555060e08201518160040160036101000a81548160ff0219169083151502179055509050505050565b61038f610e4c565b60025f8381526020019081526020015f20604051806101000160405290815f820180546103bb906116a1565b80601f01602080910402602001604051908101604052809291908181526020018280546103e7906116a1565b80156104325780601f1061040957610100808354040283529160200191610432565b820191905f5260205f20905b81548152906001019060200180831161041557829003601f168201915b5050505050815260200160018201548152602001600282018054610455906116a1565b80601f0160208091040260200160405190810160405280929190818152602001828054610481906116a1565b80156104cc5780601f106104a3576101008083540402835291602001916104cc565b820191905f5260205f20905b8154815290600101906020018083116104af57829003601f168201915b505050505081526020016003820180546104e5906116a1565b80601f0160208091040260200160405190810160405280929190818152602001828054610511906116a1565b801561055c5780601f106105335761010080835404028352916020019161055c565b820191905f5260205f20905b81548152906001019060200180831161053f57829003601f168201915b50505050508152602001600482015f9054906101000a900460ff161515151581526020016004820160019054906101000a900460ff161515151581526020016004820160029054906101000a900460ff161515151581526020016004820160039054906101000a900460ff1615151515815250509050919050565b60045481565b60055f8154809291906105ef9061196a565b919050555060065f8154809291906106069061196a565b9190505550604051806040016040528083815260200182151581525060015f60065481526020019081526020015f205f820151815f019081610648919061186e565b506020820151816001015f6101000a81548160ff0219169083151502179055509050507f8214cb7208c019ae63f65fbc03ff1306dec9260c12e3963be9057fb04d6c218b828260405161069c929190611592565b60405180910390a15050565b6002602052805f5260405f205f91509050805f0180546106c7906116a1565b80601f01602080910402602001604051908101604052809291908181526020018280546106f3906116a1565b801561073e5780601f106107155761010080835404028352916020019161073e565b820191905f5260205f20905b81548152906001019060200180831161072157829003601f168201915b505050505090806001015490806002018054610759906116a1565b80601f0160208091040260200160405190810160405280929190818152602001828054610785906116a1565b80156107d05780601f106107a7576101008083540402835291602001916107d0565b820191905f5260205f20905b8154815290600101906020018083116107b357829003601f168201915b5050505050908060030180546107e5906116a1565b80601f0160208091040260200160405190810160405280929190818152602001828054610811906116a1565b801561085c5780601f106108335761010080835404028352916020019161085c565b820191905f5260205f20905b81548152906001019060200180831161083f57829003601f168201915b505050505090806004015f9054906101000a900460ff16908060040160019054906101000a900460ff16908060040160029054906101000a900460ff16908060040160039054906101000a900460ff16905088565b60055481565b5f600190505b6003548111610ab1575f151560025f8381526020019081526020015f2060040160039054906101000a900460ff16151514801561091e57506001151560025f8381526020019081526020015f206004015f9054906101000a900460ff161515145b801561094f57506001151560025f8381526020019081526020015f2060040160019054906101000a900460ff161515145b801561098057506001151560025f8381526020019081526020015f2060040160029054906101000a900460ff161515145b15610a9e578160015f8581526020019081526020015f205f820151815f0190816109aa919061186e565b506020820151816001015f6101000a81548160ff021916908315150217905550905050815f015160025f8381526020019081526020015f2060030190816109f1919061186e565b50600160025f8381526020019081526020015f2060040160036101000a81548160ff02191690831515021790555060045f815480929190610a31906119b1565b919050555060055f815480929190610a48906119b1565b91905055507f5f5f1b47c5bd4a71140c85ad2612a7fc179f12a94ecb492d109dea8b98b4d5b38360015f8681526020019081526020015f205f01604051610a90929190611a59565b60405180910390a150610ab3565b8080610aa99061196a565b9150506108bd565b505b5050565b60065481565b6001602052805f5260405f205f91509050805f018054610adc906116a1565b80601f0160208091040260200160405190810160405280929190818152602001828054610b08906116a1565b8015610b535780601f10610b2a57610100808354040283529160200191610b53565b820191905f5260205f20905b815481529060010190602001808311610b3657829003601f168201915b505050505090806001015f9054906101000a900460ff16905082565b60035f815480929190610b819061196a565b919050555060045f815480929190610b989061196a565b91905055506040518061010001604052808381526020018281526020016040518060400160405280600f81526020017f546f206265206576616c7561746564000000000000000000000000000000000081525081526020016040518060400160405280600e81526020017f546f2062652061737369676e656400000000000000000000000000000000000081525081526020016001151581526020015f151581526020015f151581526020015f151581525060025f60035481526020019081526020015f205f820151815f019081610c70919061186e565b50602082015181600101556040820151816002019081610c90919061186e565b506060820151816003019081610ca6919061186e565b506080820151816004015f6101000a81548160ff02191690831515021790555060a08201518160040160016101000a81548160ff02191690831515021790555060c08201518160040160026101000a81548160ff02191690831515021790555060e08201518160040160036101000a81548160ff0219169083151502179055509050507f0216ea2081e6ea51306ad90d22fb212f034e7246f7e718ecc8caf5e36a5a9d22828260015f805f604051610d6396959493929190611b1b565b60405180910390a15050565b610d77610e94565b60015f8381526020019081526020015f206040518060400160405290815f82018054610da2906116a1565b80601f0160208091040260200160405190810160405280929190818152602001828054610dce906116a1565b8015610e195780601f10610df057610100808354040283529160200191610e19565b820191905f5260205f20905b815481529060010190602001808311610dfc57829003601f168201915b50505050508152602001600182015f9054906101000a900460ff1615151515815250509050919050565b5f600454905090565b604051806101000160405280606081526020015f815260200160608152602001606081526020015f151581526020015f151581526020015f151581526020015f151581525090565b6040518060400160405280606081526020015f151581525090565b5f819050919050565b610ec181610eaf565b82525050565b5f602082019050610eda5f830184610eb8565b92915050565b5f604051905090565b5f80fd5b5f80fd5b610efa81610eaf565b8114610f04575f80fd5b50565b5f81359050610f1581610ef1565b92915050565b5f80fd5b5f601f19601f8301169050919050565b7f4e487b71000000000000000000000000000000000000000000000000000000005f52604160045260245ffd5b610f6582610f1f565b810181811067ffffffffffffffff82111715610f8457610f83610f2f565b5b80604052505050565b5f610f96610ee0565b9050610fa28282610f5c565b919050565b5f80fd5b5f80fd5b5f80fd5b5f67ffffffffffffffff821115610fcd57610fcc610f2f565b5b610fd682610f1f565b9050602081019050919050565b828183375f83830152505050565b5f611003610ffe84610fb3565b610f8d565b90508281526020810184848401111561101f5761101e610faf565b5b61102a848285610fe3565b509392505050565b5f82601f83011261104657611045610fab565b5b8135611056848260208601610ff1565b91505092915050565b5f8115159050919050565b6110738161105f565b811461107d575f80fd5b50565b5f8135905061108e8161106a565b92915050565b5f61010082840312156110aa576110a9610f1b565b5b6110b5610100610f8d565b90505f82013567ffffffffffffffff8111156110d4576110d3610fa7565b5b6110e084828501611032565b5f8301525060206110f384828501610f07565b602083015250604082013567ffffffffffffffff81111561111757611116610fa7565b5b61112384828501611032565b604083015250606082013567ffffffffffffffff81111561114757611146610fa7565b5b61115384828501611032565b606083015250608061116784828501611080565b60808301525060a061117b84828501611080565b60a08301525060c061118f84828501611080565b60c08301525060e06111a384828501611080565b60e08301525092915050565b5f80604083850312156111c5576111c4610ee9565b5b5f6111d285828601610f07565b925050602083013567ffffffffffffffff8111156111f3576111f2610eed565b5b6111ff85828601611094565b9150509250929050565b5f6020828403121561121e5761121d610ee9565b5b5f61122b84828501610f07565b91505092915050565b5f81519050919050565b5f82825260208201905092915050565b8281835e5f83830152505050565b5f61126682611234565b611270818561123e565b935061128081856020860161124e565b61128981610f1f565b840191505092915050565b61129d81610eaf565b82525050565b6112ac8161105f565b82525050565b5f61010083015f8301518482035f8601526112cd828261125c565b91505060208301516112e26020860182611294565b50604083015184820360408601526112fa828261125c565b91505060608301518482036060860152611314828261125c565b915050608083015161132960808601826112a3565b5060a083015161133c60a08601826112a3565b5060c083015161134f60c08601826112a3565b5060e083015161136260e08601826112a3565b508091505092915050565b5f6020820190508181035f83015261138581846112b2565b905092915050565b5f80604083850312156113a3576113a2610ee9565b5b5f83013567ffffffffffffffff8111156113c0576113bf610eed565b5b6113cc85828601611032565b92505060206113dd85828601611080565b9150509250929050565b5f82825260208201905092915050565b5f61140182611234565b61140b81856113e7565b935061141b81856020860161124e565b61142481610f1f565b840191505092915050565b6114388161105f565b82525050565b5f610100820190508181035f830152611457818b6113f7565b9050611466602083018a610eb8565b818103604083015261147881896113f7565b9050818103606083015261148c81886113f7565b905061149b608083018761142f565b6114a860a083018661142f565b6114b560c083018561142f565b6114c260e083018461142f565b9998505050505050505050565b5f604082840312156114e4576114e3610f1b565b5b6114ee6040610f8d565b90505f82013567ffffffffffffffff81111561150d5761150c610fa7565b5b61151984828501611032565b5f83015250602061152c84828501611080565b60208301525092915050565b5f806040838503121561154e5761154d610ee9565b5b5f61155b85828601610f07565b925050602083013567ffffffffffffffff81111561157c5761157b610eed565b5b611588858286016114cf565b9150509250929050565b5f6040820190508181035f8301526115aa81856113f7565b90506115b9602083018461142f565b9392505050565b5f80604083850312156115d6576115d5610ee9565b5b5f83013567ffffffffffffffff8111156115f3576115f2610eed565b5b6115ff85828601611032565b925050602061161085828601610f07565b9150509250929050565b5f604083015f8301518482035f860152611634828261125c565b915050602083015161164960208601826112a3565b508091505092915050565b5f6020820190508181035f83015261166c818461161a565b905092915050565b7f4e487b71000000000000000000000000000000000000000000000000000000005f52602260045260245ffd5b5f60028204905060018216806116b857607f821691505b6020821081036116cb576116ca611674565b5b50919050565b5f819050815f5260205f209050919050565b5f6020601f8301049050919050565b5f82821b905092915050565b5f6008830261172d7fffffffffffffffffffffffffffffffffffffffffffffffffffffffffffffffff826116f2565b61173786836116f2565b95508019841693508086168417925050509392505050565b5f819050919050565b5f61177261176d61176884610eaf565b61174f565b610eaf565b9050919050565b5f819050919050565b61178b83611758565b61179f61179782611779565b8484546116fe565b825550505050565b5f90565b6117b36117a7565b6117be818484611782565b505050565b5b818110156117e1576117d65f826117ab565b6001810190506117c4565b5050565b601f821115611826576117f7816116d1565b611800846116e3565b8101602085101561180f578190505b61182361181b856116e3565b8301826117c3565b50505b505050565b5f82821c905092915050565b5f6118465f198460080261182b565b1980831691505092915050565b5f61185e8383611837565b9150826002028217905092915050565b61187782611234565b67ffffffffffffffff8111156118905761188f610f2f565b5b61189a82546116a1565b6118a58282856117e5565b5f60209050601f8311600181146118d6575f84156118c4578287015190505b6118ce8582611853565b865550611935565b601f1984166118e4866116d1565b5f5b8281101561190b578489015182556001820191506020850194506020810190506118e6565b868310156119285784890151611924601f891682611837565b8355505b6001600288020188555050505b505050505050565b7f4e487b71000000000000000000000000000000000000000000000000000000005f52601160045260245ffd5b5f61197482610eaf565b91507fffffffffffffffffffffffffffffffffffffffffffffffffffffffffffffffff82036119a6576119a561193d565b5b600182019050919050565b5f6119bb82610eaf565b91505f82036119cd576119cc61193d565b5b600182039050919050565b5f81546119e4816116a1565b6119ee81866113e7565b9450600182165f8114611a085760018114611a1e57611a50565b60ff198316865281151560200286019350611a50565b611a27856116d1565b5f5b83811015611a4857815481890152600182019150602081019050611a29565b808801955050505b50505092915050565b5f604082019050611a6c5f830185610eb8565b8181036020830152611a7e81846119d8565b90509392505050565b7f546f206265206576616c756174656400000000000000000000000000000000005f82015250565b5f611abb600f836113e7565b9150611ac682611a87565b602082019050919050565b7f546f2062652061737369676e65640000000000000000000000000000000000005f82015250565b5f611b05600e836113e7565b9150611b1082611ad1565b602082019050919050565b5f610100820190508181035f830152611b3481896113f7565b9050611b436020830188610eb8565b8181036040830152611b5481611aaf565b90508181036060830152611b6781611af9565b9050611b76608083018761142f565b611b8360a083018661142f565b611b9060c083018561142f565b611b9d60e083018461142f565b97965050505050505056fea2646970667358221220cbf018415875975b21204b5c144fbf87fe9026121c7dcbf4dd63e32bc55c975c64736f6c634300081a0033",
					"opcodes": "PUSH1 0x80 PUSH1 0x40 MSTORE CALLVALUE DUP1 ISZERO PUSH1 0xE JUMPI PUSH0 DUP1 REVERT JUMPDEST POP CALLER PUSH0 DUP1 PUSH2 0x100 EXP DUP2 SLOAD DUP2 PUSH20 0xFFFFFFFFFFFFFFFFFFFFFFFFFFFFFFFFFFFFFFFF MUL NOT AND SWAP1 DUP4 PUSH20 0xFFFFFFFFFFFFFFFFFFFFFFFFFFFFFFFFFFFFFFFF AND MUL OR SWAP1 SSTORE POP PUSH2 0x1BDE DUP1 PUSH2 0x5B PUSH0 CODECOPY PUSH0 RETURN INVALID PUSH1 0x80 PUSH1 0x40 MSTORE CALLVALUE DUP1 ISZERO PUSH2 0xF JUMPI PUSH0 DUP1 REVERT JUMPDEST POP PUSH1 0x4 CALLDATASIZE LT PUSH2 0xCD JUMPI PUSH0 CALLDATALOAD PUSH1 0xE0 SHR DUP1 PUSH4 0x5BADBE4C GT PUSH2 0x8A JUMPI DUP1 PUSH4 0x81D12C58 GT PUSH2 0x64 JUMPI DUP1 PUSH4 0x81D12C58 EQ PUSH2 0x204 JUMPI DUP1 PUSH4 0x8AF88A5C EQ PUSH2 0x235 JUMPI DUP1 PUSH4 0xC58343EF EQ PUSH2 0x251 JUMPI DUP1 PUSH4 0xE7DA5328 EQ PUSH2 0x281 JUMPI PUSH2 0xCD JUMP JUMPDEST DUP1 PUSH4 0x5BADBE4C EQ PUSH2 0x1AC JUMPI DUP1 PUSH4 0x5BE2218B EQ PUSH2 0x1CA JUMPI DUP1 PUSH4 0x61259745 EQ PUSH2 0x1E6 JUMPI PUSH2 0xCD JUMP JUMPDEST DUP1 PUSH4 0x98809D7 EQ PUSH2 0xD1 JUMPI DUP1 PUSH4 0xD47DD26 EQ PUSH2 0xEF JUMPI DUP1 PUSH4 0x10742B51 EQ PUSH2 0x10B JUMPI DUP1 PUSH4 0x125F02BB EQ PUSH2 0x13B JUMPI DUP1 PUSH4 0x2F045B02 EQ PUSH2 0x159 JUMPI DUP1 PUSH4 0x4FBD241D EQ PUSH2 0x175 JUMPI JUMPDEST PUSH0 DUP1 REVERT JUMPDEST PUSH2 0xD9 PUSH2 0x29F JUMP JUMPDEST PUSH1 0x40 MLOAD PUSH2 0xE6 SWAP2 SWAP1 PUSH2 0xEC7 JUMP JUMPDEST PUSH1 0x40 MLOAD DUP1 SWAP2 SUB SWAP1 RETURN JUMPDEST PUSH2 0x109 PUSH1 0x4 DUP1 CALLDATASIZE SUB DUP2 ADD SWAP1 PUSH2 0x104 SWAP2 SWAP1 PUSH2 0x11AF JUMP JUMPDEST PUSH2 0x2A5 JUMP JUMPDEST STOP JUMPDEST PUSH2 0x125 PUSH1 0x4 DUP1 CALLDATASIZE SUB DUP2 ADD SWAP1 PUSH2 0x120 SWAP2 SWAP1 PUSH2 0x1209 JUMP JUMPDEST PUSH2 0x387 JUMP JUMPDEST PUSH1 0x40 MLOAD PUSH2 0x132 SWAP2 SWAP1 PUSH2 0x136D JUMP JUMPDEST PUSH1 0x40 MLOAD DUP1 SWAP2 SUB SWAP1 RETURN JUMPDEST PUSH2 0x143 PUSH2 0x5D7 JUMP JUMPDEST PUSH1 0x40 MLOAD PUSH2 0x150 SWAP2 SWAP1 PUSH2 0xEC7 JUMP JUMPDEST PUSH1 0x40 MLOAD DUP1 SWAP2 SUB SWAP1 RETURN JUMPDEST PUSH2 0x173 PUSH1 0x4 DUP1 CALLDATASIZE SUB DUP2 ADD SWAP1 PUSH2 0x16E SWAP2 SWAP1 PUSH2 0x138D JUMP JUMPDEST PUSH2 0x5DD JUMP JUMPDEST STOP JUMPDEST PUSH2 0x18F PUSH1 0x4 DUP1 CALLDATASIZE SUB DUP2 ADD SWAP1 PUSH2 0x18A SWAP2 SWAP1 PUSH2 0x1209 JUMP JUMPDEST PUSH2 0x6A8 JUMP JUMPDEST PUSH1 0x40 MLOAD PUSH2 0x1A3 SWAP9 SWAP8 SWAP7 SWAP6 SWAP5 SWAP4 SWAP3 SWAP2 SWAP1 PUSH2 0x143E JUMP JUMPDEST PUSH1 0x40 MLOAD DUP1 SWAP2 SUB SWAP1 RETURN JUMPDEST PUSH2 0x1B4 PUSH2 0x8B1 JUMP JUMPDEST PUSH1 0x40 MLOAD PUSH2 0x1C1 SWAP2 SWAP1 PUSH2 0xEC7 JUMP JUMPDEST PUSH1 0x40 MLOAD DUP1 SWAP2 SUB SWAP1 RETURN JUMPDEST PUSH2 0x1E4 PUSH1 0x4 DUP1 CALLDATASIZE SUB DUP2 ADD SWAP1 PUSH2 0x1DF SWAP2 SWAP1 PUSH2 0x1538 JUMP JUMPDEST PUSH2 0x8B7 JUMP JUMPDEST STOP JUMPDEST PUSH2 0x1EE PUSH2 0xAB7 JUMP JUMPDEST PUSH1 0x40 MLOAD PUSH2 0x1FB SWAP2 SWAP1 PUSH2 0xEC7 JUMP JUMPDEST PUSH1 0x40 MLOAD DUP1 SWAP2 SUB SWAP1 RETURN JUMPDEST PUSH2 0x21E PUSH1 0x4 DUP1 CALLDATASIZE SUB DUP2 ADD SWAP1 PUSH2 0x219 SWAP2 SWAP1 PUSH2 0x1209 JUMP JUMPDEST PUSH2 0xABD JUMP JUMPDEST PUSH1 0x40 MLOAD PUSH2 0x22C SWAP3 SWAP2 SWAP1 PUSH2 0x1592 JUMP JUMPDEST PUSH1 0x40 MLOAD DUP1 SWAP2 SUB SWAP1 RETURN JUMPDEST PUSH2 0x24F PUSH1 0x4 DUP1 CALLDATASIZE SUB DUP2 ADD SWAP1 PUSH2 0x24A SWAP2 SWAP1 PUSH2 0x15C0 JUMP JUMPDEST PUSH2 0xB6F JUMP JUMPDEST STOP JUMPDEST PUSH2 0x26B PUSH1 0x4 DUP1 CALLDATASIZE SUB DUP2 ADD SWAP1 PUSH2 0x266 SWAP2 SWAP1 PUSH2 0x1209 JUMP JUMPDEST PUSH2 0xD6F JUMP JUMPDEST PUSH1 0x40 MLOAD PUSH2 0x278 SWAP2 SWAP1 PUSH2 0x1654 JUMP JUMPDEST PUSH1 0x40 MLOAD DUP1 SWAP2 SUB SWAP1 RETURN JUMPDEST PUSH2 0x289 PUSH2 0xE43 JUMP JUMPDEST PUSH1 0x40 MLOAD PUSH2 0x296 SWAP2 SWAP1 PUSH2 0xEC7 JUMP JUMPDEST PUSH1 0x40 MLOAD DUP1 SWAP2 SUB SWAP1 RETURN JUMPDEST PUSH1 0x3 SLOAD DUP2 JUMP JUMPDEST DUP1 PUSH1 0x2 PUSH0 DUP5 DUP2 MSTORE PUSH1 0x20 ADD SWAP1 DUP2 MSTORE PUSH1 0x20 ADD PUSH0 KECCAK256 PUSH0 DUP3 ADD MLOAD DUP2 PUSH0 ADD SWAP1 DUP2 PUSH2 0x2CA SWAP2 SWAP1 PUSH2 0x186E JUMP JUMPDEST POP PUSH1 0x20 DUP3 ADD MLOAD DUP2 PUSH1 0x1 ADD SSTORE PUSH1 0x40 DUP3 ADD MLOAD DUP2 PUSH1 0x2 ADD SWAP1 DUP2 PUSH2 0x2EA SWAP2 SWAP1 PUSH2 0x186E JUMP JUMPDEST POP PUSH1 0x60 DUP3 ADD MLOAD DUP2 PUSH1 0x3 ADD SWAP1 DUP2 PUSH2 0x300 SWAP2 SWAP1 PUSH2 0x186E JUMP JUMPDEST POP PUSH1 0x80 DUP3 ADD MLOAD DUP2 PUSH1 0x4 ADD PUSH0 PUSH2 0x100 EXP DUP2 SLOAD DUP2 PUSH1 0xFF MUL NOT AND SWAP1 DUP4 ISZERO ISZERO MUL OR SWAP1 SSTORE POP PUSH1 0xA0 DUP3 ADD MLOAD DUP2 PUSH1 0x4 ADD PUSH1 0x1 PUSH2 0x100 EXP DUP2 SLOAD DUP2 PUSH1 0xFF MUL NOT AND SWAP1 DUP4 ISZERO ISZERO MUL OR SWAP1 SSTORE POP PUSH1 0xC0 DUP3 ADD MLOAD DUP2 PUSH1 0x4 ADD PUSH1 0x2 PUSH2 0x100 EXP DUP2 SLOAD DUP2 PUSH1 0xFF MUL NOT AND SWAP1 DUP4 ISZERO ISZERO MUL OR SWAP1 SSTORE POP PUSH1 0xE0 DUP3 ADD MLOAD DUP2 PUSH1 0x4 ADD PUSH1 0x3 PUSH2 0x100 EXP DUP2 SLOAD DUP2 PUSH1 0xFF MUL NOT AND SWAP1 DUP4 ISZERO ISZERO MUL OR SWAP1 SSTORE POP SWAP1 POP POP POP POP JUMP JUMPDEST PUSH2 0x38F PUSH2 0xE4C JUMP JUMPDEST PUSH1 0x2 PUSH0 DUP4 DUP2 MSTORE PUSH1 0x20 ADD SWAP1 DUP2 MSTORE PUSH1 0x20 ADD PUSH0 KECCAK256 PUSH1 0x40 MLOAD DUP1 PUSH2 0x100 ADD PUSH1 0x40 MSTORE SWAP1 DUP2 PUSH0 DUP3 ADD DUP1 SLOAD PUSH2 0x3BB SWAP1 PUSH2 0x16A1 JUMP JUMPDEST DUP1 PUSH1 0x1F ADD PUSH1 0x20 DUP1 SWAP2 DIV MUL PUSH1 0x20 ADD PUSH1 0x40 MLOAD SWAP1 DUP2 ADD PUSH1 0x40 MSTORE DUP1 SWAP3 SWAP2 SWAP1 DUP2 DUP2 MSTORE PUSH1 0x20 ADD DUP3 DUP1 SLOAD PUSH2 0x3E7 SWAP1 PUSH2 0x16A1 JUMP JUMPDEST DUP1 ISZERO PUSH2 0x432 JUMPI DUP1 PUSH1 0x1F LT PUSH2 0x409 JUMPI PUSH2 0x100 DUP1 DUP4 SLOAD DIV MUL DUP4 MSTORE SWAP2 PUSH1 0x20 ADD SWAP2 PUSH2 0x432 JUMP JUMPDEST DUP3 ADD SWAP2 SWAP1 PUSH0 MSTORE PUSH1 0x20 PUSH0 KECCAK256 SWAP1 JUMPDEST DUP2 SLOAD DUP2 MSTORE SWAP1 PUSH1 0x1 ADD SWAP1 PUSH1 0x20 ADD DUP1 DUP4 GT PUSH2 0x415 JUMPI DUP3 SWAP1 SUB PUSH1 0x1F AND DUP3 ADD SWAP2 JUMPDEST POP POP POP POP POP DUP2 MSTORE PUSH1 0x20 ADD PUSH1 0x1 DUP3 ADD SLOAD DUP2 MSTORE PUSH1 0x20 ADD PUSH1 0x2 DUP3 ADD DUP1 SLOAD PUSH2 0x455 SWAP1 PUSH2 0x16A1 JUMP JUMPDEST DUP1 PUSH1 0x1F ADD PUSH1 0x20 DUP1 SWAP2 DIV MUL PUSH1 0x20 ADD PUSH1 0x40 MLOAD SWAP1 DUP2 ADD PUSH1 0x40 MSTORE DUP1 SWAP3 SWAP2 SWAP1 DUP2 DUP2 MSTORE PUSH1 0x20 ADD DUP3 DUP1 SLOAD PUSH2 0x481 SWAP1 PUSH2 0x16A1 JUMP JUMPDEST DUP1 ISZERO PUSH2 0x4CC JUMPI DUP1 PUSH1 0x1F LT PUSH2 0x4A3 JUMPI PUSH2 0x100 DUP1 DUP4 SLOAD DIV MUL DUP4 MSTORE SWAP2 PUSH1 0x20 ADD SWAP2 PUSH2 0x4CC JUMP JUMPDEST DUP3 ADD SWAP2 SWAP1 PUSH0 MSTORE PUSH1 0x20 PUSH0 KECCAK256 SWAP1 JUMPDEST DUP2 SLOAD DUP2 MSTORE SWAP1 PUSH1 0x1 ADD SWAP1 PUSH1 0x20 ADD DUP1 DUP4 GT PUSH2 0x4AF JUMPI DUP3 SWAP1 SUB PUSH1 0x1F AND DUP3 ADD SWAP2 JUMPDEST POP POP POP POP POP DUP2 MSTORE PUSH1 0x20 ADD PUSH1 0x3 DUP3 ADD DUP1 SLOAD PUSH2 0x4E5 SWAP1 PUSH2 0x16A1 JUMP JUMPDEST DUP1 PUSH1 0x1F ADD PUSH1 0x20 DUP1 SWAP2 DIV MUL PUSH1 0x20 ADD PUSH1 0x40 MLOAD SWAP1 DUP2 ADD PUSH1 0x40 MSTORE DUP1 SWAP3 SWAP2 SWAP1 DUP2 DUP2 MSTORE PUSH1 0x20 ADD DUP3 DUP1 SLOAD PUSH2 0x511 SWAP1 PUSH2 0x16A1 JUMP JUMPDEST DUP1 ISZERO PUSH2 0x55C JUMPI DUP1 PUSH1 0x1F LT PUSH2 0x533 JUMPI PUSH2 0x100 DUP1 DUP4 SLOAD DIV MUL DUP4 MSTORE SWAP2 PUSH1 0x20 ADD SWAP2 PUSH2 0x55C JUMP JUMPDEST DUP3 ADD SWAP2 SWAP1 PUSH0 MSTORE PUSH1 0x20 PUSH0 KECCAK256 SWAP1 JUMPDEST DUP2 SLOAD DUP2 MSTORE SWAP1 PUSH1 0x1 ADD SWAP1 PUSH1 0x20 ADD DUP1 DUP4 GT PUSH2 0x53F JUMPI DUP3 SWAP1 SUB PUSH1 0x1F AND DUP3 ADD SWAP2 JUMPDEST POP POP POP POP POP DUP2 MSTORE PUSH1 0x20 ADD PUSH1 0x4 DUP3 ADD PUSH0 SWAP1 SLOAD SWAP1 PUSH2 0x100 EXP SWAP1 DIV PUSH1 0xFF AND ISZERO ISZERO ISZERO ISZERO DUP2 MSTORE PUSH1 0x20 ADD PUSH1 0x4 DUP3 ADD PUSH1 0x1 SWAP1 SLOAD SWAP1 PUSH2 0x100 EXP SWAP1 DIV PUSH1 0xFF AND ISZERO ISZERO ISZERO ISZERO DUP2 MSTORE PUSH1 0x20 ADD PUSH1 0x4 DUP3 ADD PUSH1 0x2 SWAP1 SLOAD SWAP1 PUSH2 0x100 EXP SWAP1 DIV PUSH1 0xFF AND ISZERO ISZERO ISZERO ISZERO DUP2 MSTORE PUSH1 0x20 ADD PUSH1 0x4 DUP3 ADD PUSH1 0x3 SWAP1 SLOAD SWAP1 PUSH2 0x100 EXP SWAP1 DIV PUSH1 0xFF AND ISZERO ISZERO ISZERO ISZERO DUP2 MSTORE POP POP SWAP1 POP SWAP2 SWAP1 POP JUMP JUMPDEST PUSH1 0x4 SLOAD DUP2 JUMP JUMPDEST PUSH1 0x5 PUSH0 DUP2 SLOAD DUP1 SWAP3 SWAP2 SWAP1 PUSH2 0x5EF SWAP1 PUSH2 0x196A JUMP JUMPDEST SWAP2 SWAP1 POP SSTORE POP PUSH1 0x6 PUSH0 DUP2 SLOAD DUP1 SWAP3 SWAP2 SWAP1 PUSH2 0x606 SWAP1 PUSH2 0x196A JUMP JUMPDEST SWAP2 SWAP1 POP SSTORE POP PUSH1 0x40 MLOAD DUP1 PUSH1 0x40 ADD PUSH1 0x40 MSTORE DUP1 DUP4 DUP2 MSTORE PUSH1 0x20 ADD DUP3 ISZERO ISZERO DUP2 MSTORE POP PUSH1 0x1 PUSH0 PUSH1 0x6 SLOAD DUP2 MSTORE PUSH1 0x20 ADD SWAP1 DUP2 MSTORE PUSH1 0x20 ADD PUSH0 KECCAK256 PUSH0 DUP3 ADD MLOAD DUP2 PUSH0 ADD SWAP1 DUP2 PUSH2 0x648 SWAP2 SWAP1 PUSH2 0x186E JUMP JUMPDEST POP PUSH1 0x20 DUP3 ADD MLOAD DUP2 PUSH1 0x1 ADD PUSH0 PUSH2 0x100 EXP DUP2 SLOAD DUP2 PUSH1 0xFF MUL NOT AND SWAP1 DUP4 ISZERO ISZERO MUL OR SWAP1 SSTORE POP SWAP1 POP POP PUSH32 0x8214CB7208C019AE63F65FBC03FF1306DEC9260C12E3963BE9057FB04D6C218B DUP3 DUP3 PUSH1 0x40 MLOAD PUSH2 0x69C SWAP3 SWAP2 SWAP1 PUSH2 0x1592 JUMP JUMPDEST PUSH1 0x40 MLOAD DUP1 SWAP2 SUB SWAP1 LOG1 POP POP JUMP JUMPDEST PUSH1 0x2 PUSH1 0x20 MSTORE DUP1 PUSH0 MSTORE PUSH1 0x40 PUSH0 KECCAK256 PUSH0 SWAP2 POP SWAP1 POP DUP1 PUSH0 ADD DUP1 SLOAD PUSH2 0x6C7 SWAP1 PUSH2 0x16A1 JUMP JUMPDEST DUP1 PUSH1 0x1F ADD PUSH1 0x20 DUP1 SWAP2 DIV MUL PUSH1 0x20 ADD PUSH1 0x40 MLOAD SWAP1 DUP2 ADD PUSH1 0x40 MSTORE DUP1 SWAP3 SWAP2 SWAP1 DUP2 DUP2 MSTORE PUSH1 0x20 ADD DUP3 DUP1 SLOAD PUSH2 0x6F3 SWAP1 PUSH2 0x16A1 JUMP JUMPDEST DUP1 ISZERO PUSH2 0x73E JUMPI DUP1 PUSH1 0x1F LT PUSH2 0x715 JUMPI PUSH2 0x100 DUP1 DUP4 SLOAD DIV MUL DUP4 MSTORE SWAP2 PUSH1 0x20 ADD SWAP2 PUSH2 0x73E JUMP JUMPDEST DUP3 ADD SWAP2 SWAP1 PUSH0 MSTORE PUSH1 0x20 PUSH0 KECCAK256 SWAP1 JUMPDEST DUP2 SLOAD DUP2 MSTORE SWAP1 PUSH1 0x1 ADD SWAP1 PUSH1 0x20 ADD DUP1 DUP4 GT PUSH2 0x721 JUMPI DUP3 SWAP1 SUB PUSH1 0x1F AND DUP3 ADD SWAP2 JUMPDEST POP POP POP POP POP SWAP1 DUP1 PUSH1 0x1 ADD SLOAD SWAP1 DUP1 PUSH1 0x2 ADD DUP1 SLOAD PUSH2 0x759 SWAP1 PUSH2 0x16A1 JUMP JUMPDEST DUP1 PUSH1 0x1F ADD PUSH1 0x20 DUP1 SWAP2 DIV MUL PUSH1 0x20 ADD PUSH1 0x40 MLOAD SWAP1 DUP2 ADD PUSH1 0x40 MSTORE DUP1 SWAP3 SWAP2 SWAP1 DUP2 DUP2 MSTORE PUSH1 0x20 ADD DUP3 DUP1 SLOAD PUSH2 0x785 SWAP1 PUSH2 0x16A1 JUMP JUMPDEST DUP1 ISZERO PUSH2 0x7D0 JUMPI DUP1 PUSH1 0x1F LT PUSH2 0x7A7 JUMPI PUSH2 0x100 DUP1 DUP4 SLOAD DIV MUL DUP4 MSTORE SWAP2 PUSH1 0x20 ADD SWAP2 PUSH2 0x7D0 JUMP JUMPDEST DUP3 ADD SWAP2 SWAP1 PUSH0 MSTORE PUSH1 0x20 PUSH0 KECCAK256 SWAP1 JUMPDEST DUP2 SLOAD DUP2 MSTORE SWAP1 PUSH1 0x1 ADD SWAP1 PUSH1 0x20 ADD DUP1 DUP4 GT PUSH2 0x7B3 JUMPI DUP3 SWAP1 SUB PUSH1 0x1F AND DUP3 ADD SWAP2 JUMPDEST POP POP POP POP POP SWAP1 DUP1 PUSH1 0x3 ADD DUP1 SLOAD PUSH2 0x7E5 SWAP1 PUSH2 0x16A1 JUMP JUMPDEST DUP1 PUSH1 0x1F ADD PUSH1 0x20 DUP1 SWAP2 DIV MUL PUSH1 0x20 ADD PUSH1 0x40 MLOAD SWAP1 DUP2 ADD PUSH1 0x40 MSTORE DUP1 SWAP3 SWAP2 SWAP1 DUP2 DUP2 MSTORE PUSH1 0x20 ADD DUP3 DUP1 SLOAD PUSH2 0x811 SWAP1 PUSH2 0x16A1 JUMP JUMPDEST DUP1 ISZERO PUSH2 0x85C JUMPI DUP1 PUSH1 0x1F LT PUSH2 0x833 JUMPI PUSH2 0x100 DUP1 DUP4 SLOAD DIV MUL DUP4 MSTORE SWAP2 PUSH1 0x20 ADD SWAP2 PUSH2 0x85C JUMP JUMPDEST DUP3 ADD SWAP2 SWAP1 PUSH0 MSTORE PUSH1 0x20 PUSH0 KECCAK256 SWAP1 JUMPDEST DUP2 SLOAD DUP2 MSTORE SWAP1 PUSH1 0x1 ADD SWAP1 PUSH1 0x20 ADD DUP1 DUP4 GT PUSH2 0x83F JUMPI DUP3 SWAP1 SUB PUSH1 0x1F AND DUP3 ADD SWAP2 JUMPDEST POP POP POP POP POP SWAP1 DUP1 PUSH1 0x4 ADD PUSH0 SWAP1 SLOAD SWAP1 PUSH2 0x100 EXP SWAP1 DIV PUSH1 0xFF AND SWAP1 DUP1 PUSH1 0x4 ADD PUSH1 0x1 SWAP1 SLOAD SWAP1 PUSH2 0x100 EXP SWAP1 DIV PUSH1 0xFF AND SWAP1 DUP1 PUSH1 0x4 ADD PUSH1 0x2 SWAP1 SLOAD SWAP1 PUSH2 0x100 EXP SWAP1 DIV PUSH1 0xFF AND SWAP1 DUP1 PUSH1 0x4 ADD PUSH1 0x3 SWAP1 SLOAD SWAP1 PUSH2 0x100 EXP SWAP1 DIV PUSH1 0xFF AND SWAP1 POP DUP9 JUMP JUMPDEST PUSH1 0x5 SLOAD DUP2 JUMP JUMPDEST PUSH0 PUSH1 0x1 SWAP1 POP JUMPDEST PUSH1 0x3 SLOAD DUP2 GT PUSH2 0xAB1 JUMPI PUSH0 ISZERO ISZERO PUSH1 0x2 PUSH0 DUP4 DUP2 MSTORE PUSH1 0x20 ADD SWAP1 DUP2 MSTORE PUSH1 0x20 ADD PUSH0 KECCAK256 PUSH1 0x4 ADD PUSH1 0x3 SWAP1 SLOAD SWAP1 PUSH2 0x100 EXP SWAP1 DIV PUSH1 0xFF AND ISZERO ISZERO EQ DUP1 ISZERO PUSH2 0x91E JUMPI POP PUSH1 0x1 ISZERO ISZERO PUSH1 0x2 PUSH0 DUP4 DUP2 MSTORE PUSH1 0x20 ADD SWAP1 DUP2 MSTORE PUSH1 0x20 ADD PUSH0 KECCAK256 PUSH1 0x4 ADD PUSH0 SWAP1 SLOAD SWAP1 PUSH2 0x100 EXP SWAP1 DIV PUSH1 0xFF AND ISZERO ISZERO EQ JUMPDEST DUP1 ISZERO PUSH2 0x94F JUMPI POP PUSH1 0x1 ISZERO ISZERO PUSH1 0x2 PUSH0 DUP4 DUP2 MSTORE PUSH1 0x20 ADD SWAP1 DUP2 MSTORE PUSH1 0x20 ADD PUSH0 KECCAK256 PUSH1 0x4 ADD PUSH1 0x1 SWAP1 SLOAD SWAP1 PUSH2 0x100 EXP SWAP1 DIV PUSH1 0xFF AND ISZERO ISZERO EQ JUMPDEST DUP1 ISZERO PUSH2 0x980 JUMPI POP PUSH1 0x1 ISZERO ISZERO PUSH1 0x2 PUSH0 DUP4 DUP2 MSTORE PUSH1 0x20 ADD SWAP1 DUP2 MSTORE PUSH1 0x20 ADD PUSH0 KECCAK256 PUSH1 0x4 ADD PUSH1 0x2 SWAP1 SLOAD SWAP1 PUSH2 0x100 EXP SWAP1 DIV PUSH1 0xFF AND ISZERO ISZERO EQ JUMPDEST ISZERO PUSH2 0xA9E JUMPI DUP2 PUSH1 0x1 PUSH0 DUP6 DUP2 MSTORE PUSH1 0x20 ADD SWAP1 DUP2 MSTORE PUSH1 0x20 ADD PUSH0 KECCAK256 PUSH0 DUP3 ADD MLOAD DUP2 PUSH0 ADD SWAP1 DUP2 PUSH2 0x9AA SWAP2 SWAP1 PUSH2 0x186E JUMP JUMPDEST POP PUSH1 0x20 DUP3 ADD MLOAD DUP2 PUSH1 0x1 ADD PUSH0 PUSH2 0x100 EXP DUP2 SLOAD DUP2 PUSH1 0xFF MUL NOT AND SWAP1 DUP4 ISZERO ISZERO MUL OR SWAP1 SSTORE POP SWAP1 POP POP DUP2 PUSH0 ADD MLOAD PUSH1 0x2 PUSH0 DUP4 DUP2 MSTORE PUSH1 0x20 ADD SWAP1 DUP2 MSTORE PUSH1 0x20 ADD PUSH0 KECCAK256 PUSH1 0x3 ADD SWAP1 DUP2 PUSH2 0x9F1 SWAP2 SWAP1 PUSH2 0x186E JUMP JUMPDEST POP PUSH1 0x1 PUSH1 0x2 PUSH0 DUP4 DUP2 MSTORE PUSH1 0x20 ADD SWAP1 DUP2 MSTORE PUSH1 0x20 ADD PUSH0 KECCAK256 PUSH1 0x4 ADD PUSH1 0x3 PUSH2 0x100 EXP DUP2 SLOAD DUP2 PUSH1 0xFF MUL NOT AND SWAP1 DUP4 ISZERO ISZERO MUL OR SWAP1 SSTORE POP PUSH1 0x4 PUSH0 DUP2 SLOAD DUP1 SWAP3 SWAP2 SWAP1 PUSH2 0xA31 SWAP1 PUSH2 0x19B1 JUMP JUMPDEST SWAP2 SWAP1 POP SSTORE POP PUSH1 0x5 PUSH0 DUP2 SLOAD DUP1 SWAP3 SWAP2 SWAP1 PUSH2 0xA48 SWAP1 PUSH2 0x19B1 JUMP JUMPDEST SWAP2 SWAP1 POP SSTORE POP PUSH32 0x5F5F1B47C5BD4A71140C85AD2612A7FC179F12A94ECB492D109DEA8B98B4D5B3 DUP4 PUSH1 0x1 PUSH0 DUP7 DUP2 MSTORE PUSH1 0x20 ADD SWAP1 DUP2 MSTORE PUSH1 0x20 ADD PUSH0 KECCAK256 PUSH0 ADD PUSH1 0x40 MLOAD PUSH2 0xA90 SWAP3 SWAP2 SWAP1 PUSH2 0x1A59 JUMP JUMPDEST PUSH1 0x40 MLOAD DUP1 SWAP2 SUB SWAP1 LOG1 POP PUSH2 0xAB3 JUMP JUMPDEST DUP1 DUP1 PUSH2 0xAA9 SWAP1 PUSH2 0x196A JUMP JUMPDEST SWAP2 POP POP PUSH2 0x8BD JUMP JUMPDEST POP JUMPDEST POP POP JUMP JUMPDEST PUSH1 0x6 SLOAD DUP2 JUMP JUMPDEST PUSH1 0x1 PUSH1 0x20 MSTORE DUP1 PUSH0 MSTORE PUSH1 0x40 PUSH0 KECCAK256 PUSH0 SWAP2 POP SWAP1 POP DUP1 PUSH0 ADD DUP1 SLOAD PUSH2 0xADC SWAP1 PUSH2 0x16A1 JUMP JUMPDEST DUP1 PUSH1 0x1F ADD PUSH1 0x20 DUP1 SWAP2 DIV MUL PUSH1 0x20 ADD PUSH1 0x40 MLOAD SWAP1 DUP2 ADD PUSH1 0x40 MSTORE DUP1 SWAP3 SWAP2 SWAP1 DUP2 DUP2 MSTORE PUSH1 0x20 ADD DUP3 DUP1 SLOAD PUSH2 0xB08 SWAP1 PUSH2 0x16A1 JUMP JUMPDEST DUP1 ISZERO PUSH2 0xB53 JUMPI DUP1 PUSH1 0x1F LT PUSH2 0xB2A JUMPI PUSH2 0x100 DUP1 DUP4 SLOAD DIV MUL DUP4 MSTORE SWAP2 PUSH1 0x20 ADD SWAP2 PUSH2 0xB53 JUMP JUMPDEST DUP3 ADD SWAP2 SWAP1 PUSH0 MSTORE PUSH1 0x20 PUSH0 KECCAK256 SWAP1 JUMPDEST DUP2 SLOAD DUP2 MSTORE SWAP1 PUSH1 0x1 ADD SWAP1 PUSH1 0x20 ADD DUP1 DUP4 GT PUSH2 0xB36 JUMPI DUP3 SWAP1 SUB PUSH1 0x1F AND DUP3 ADD SWAP2 JUMPDEST POP POP POP POP POP SWAP1 DUP1 PUSH1 0x1 ADD PUSH0 SWAP1 SLOAD SWAP1 PUSH2 0x100 EXP SWAP1 DIV PUSH1 0xFF AND SWAP1 POP DUP3 JUMP JUMPDEST PUSH1 0x3 PUSH0 DUP2 SLOAD DUP1 SWAP3 SWAP2 SWAP1 PUSH2 0xB81 SWAP1 PUSH2 0x196A JUMP JUMPDEST SWAP2 SWAP1 POP SSTORE POP PUSH1 0x4 PUSH0 DUP2 SLOAD DUP1 SWAP3 SWAP2 SWAP1 PUSH2 0xB98 SWAP1 PUSH2 0x196A JUMP JUMPDEST SWAP2 SWAP1 POP SSTORE POP PUSH1 0x40 MLOAD DUP1 PUSH2 0x100 ADD PUSH1 0x40 MSTORE DUP1 DUP4 DUP2 MSTORE PUSH1 0x20 ADD DUP3 DUP2 MSTORE PUSH1 0x20 ADD PUSH1 0x40 MLOAD DUP1 PUSH1 0x40 ADD PUSH1 0x40 MSTORE DUP1 PUSH1 0xF DUP2 MSTORE PUSH1 0x20 ADD PUSH32 0x546F206265206576616C75617465640000000000000000000000000000000000 DUP2 MSTORE POP DUP2 MSTORE PUSH1 0x20 ADD PUSH1 0x40 MLOAD DUP1 PUSH1 0x40 ADD PUSH1 0x40 MSTORE DUP1 PUSH1 0xE DUP2 MSTORE PUSH1 0x20 ADD PUSH32 0x546F2062652061737369676E6564000000000000000000000000000000000000 DUP2 MSTORE POP DUP2 MSTORE PUSH1 0x20 ADD PUSH1 0x1 ISZERO ISZERO DUP2 MSTORE PUSH1 0x20 ADD PUSH0 ISZERO ISZERO DUP2 MSTORE PUSH1 0x20 ADD PUSH0 ISZERO ISZERO DUP2 MSTORE PUSH1 0x20 ADD PUSH0 ISZERO ISZERO DUP2 MSTORE POP PUSH1 0x2 PUSH0 PUSH1 0x3 SLOAD DUP2 MSTORE PUSH1 0x20 ADD SWAP1 DUP2 MSTORE PUSH1 0x20 ADD PUSH0 KECCAK256 PUSH0 DUP3 ADD MLOAD DUP2 PUSH0 ADD SWAP1 DUP2 PUSH2 0xC70 SWAP2 SWAP1 PUSH2 0x186E JUMP JUMPDEST POP PUSH1 0x20 DUP3 ADD MLOAD DUP2 PUSH1 0x1 ADD SSTORE PUSH1 0x40 DUP3 ADD MLOAD DUP2 PUSH1 0x2 ADD SWAP1 DUP2 PUSH2 0xC90 SWAP2 SWAP1 PUSH2 0x186E JUMP JUMPDEST POP PUSH1 0x60 DUP3 ADD MLOAD DUP2 PUSH1 0x3 ADD SWAP1 DUP2 PUSH2 0xCA6 SWAP2 SWAP1 PUSH2 0x186E JUMP JUMPDEST POP PUSH1 0x80 DUP3 ADD MLOAD DUP2 PUSH1 0x4 ADD PUSH0 PUSH2 0x100 EXP DUP2 SLOAD DUP2 PUSH1 0xFF MUL NOT AND SWAP1 DUP4 ISZERO ISZERO MUL OR SWAP1 SSTORE POP PUSH1 0xA0 DUP3 ADD MLOAD DUP2 PUSH1 0x4 ADD PUSH1 0x1 PUSH2 0x100 EXP DUP2 SLOAD DUP2 PUSH1 0xFF MUL NOT AND SWAP1 DUP4 ISZERO ISZERO MUL OR SWAP1 SSTORE POP PUSH1 0xC0 DUP3 ADD MLOAD DUP2 PUSH1 0x4 ADD PUSH1 0x2 PUSH2 0x100 EXP DUP2 SLOAD DUP2 PUSH1 0xFF MUL NOT AND SWAP1 DUP4 ISZERO ISZERO MUL OR SWAP1 SSTORE POP PUSH1 0xE0 DUP3 ADD MLOAD DUP2 PUSH1 0x4 ADD PUSH1 0x3 PUSH2 0x100 EXP DUP2 SLOAD DUP2 PUSH1 0xFF MUL NOT AND SWAP1 DUP4 ISZERO ISZERO MUL OR SWAP1 SSTORE POP SWAP1 POP POP PUSH32 0x216EA2081E6EA51306AD90D22FB212F034E7246F7E718ECC8CAF5E36A5A9D22 DUP3 DUP3 PUSH1 0x1 PUSH0 DUP1 PUSH0 PUSH1 0x40 MLOAD PUSH2 0xD63 SWAP7 SWAP6 SWAP5 SWAP4 SWAP3 SWAP2 SWAP1 PUSH2 0x1B1B JUMP JUMPDEST PUSH1 0x40 MLOAD DUP1 SWAP2 SUB SWAP1 LOG1 POP POP JUMP JUMPDEST PUSH2 0xD77 PUSH2 0xE94 JUMP JUMPDEST PUSH1 0x1 PUSH0 DUP4 DUP2 MSTORE PUSH1 0x20 ADD SWAP1 DUP2 MSTORE PUSH1 0x20 ADD PUSH0 KECCAK256 PUSH1 0x40 MLOAD DUP1 PUSH1 0x40 ADD PUSH1 0x40 MSTORE SWAP1 DUP2 PUSH0 DUP3 ADD DUP1 SLOAD PUSH2 0xDA2 SWAP1 PUSH2 0x16A1 JUMP JUMPDEST DUP1 PUSH1 0x1F ADD PUSH1 0x20 DUP1 SWAP2 DIV MUL PUSH1 0x20 ADD PUSH1 0x40 MLOAD SWAP1 DUP2 ADD PUSH1 0x40 MSTORE DUP1 SWAP3 SWAP2 SWAP1 DUP2 DUP2 MSTORE PUSH1 0x20 ADD DUP3 DUP1 SLOAD PUSH2 0xDCE SWAP1 PUSH2 0x16A1 JUMP JUMPDEST DUP1 ISZERO PUSH2 0xE19 JUMPI DUP1 PUSH1 0x1F LT PUSH2 0xDF0 JUMPI PUSH2 0x100 DUP1 DUP4 SLOAD DIV MUL DUP4 MSTORE SWAP2 PUSH1 0x20 ADD SWAP2 PUSH2 0xE19 JUMP JUMPDEST DUP3 ADD SWAP2 SWAP1 PUSH0 MSTORE PUSH1 0x20 PUSH0 KECCAK256 SWAP1 JUMPDEST DUP2 SLOAD DUP2 MSTORE SWAP1 PUSH1 0x1 ADD SWAP1 PUSH1 0x20 ADD DUP1 DUP4 GT PUSH2 0xDFC JUMPI DUP3 SWAP1 SUB PUSH1 0x1F AND DUP3 ADD SWAP2 JUMPDEST POP POP POP POP POP DUP2 MSTORE PUSH1 0x20 ADD PUSH1 0x1 DUP3 ADD PUSH0 SWAP1 SLOAD SWAP1 PUSH2 0x100 EXP SWAP1 DIV PUSH1 0xFF AND ISZERO ISZERO ISZERO ISZERO DUP2 MSTORE POP POP SWAP1 POP SWAP2 SWAP1 POP JUMP JUMPDEST PUSH0 PUSH1 0x4 SLOAD SWAP1 POP SWAP1 JUMP JUMPDEST PUSH1 0x40 MLOAD DUP1 PUSH2 0x100 ADD PUSH1 0x40 MSTORE DUP1 PUSH1 0x60 DUP2 MSTORE PUSH1 0x20 ADD PUSH0 DUP2 MSTORE PUSH1 0x20 ADD PUSH1 0x60 DUP2 MSTORE PUSH1 0x20 ADD PUSH1 0x60 DUP2 MSTORE PUSH1 0x20 ADD PUSH0 ISZERO ISZERO DUP2 MSTORE PUSH1 0x20 ADD PUSH0 ISZERO ISZERO DUP2 MSTORE PUSH1 0x20 ADD PUSH0 ISZERO ISZERO DUP2 MSTORE PUSH1 0x20 ADD PUSH0 ISZERO ISZERO DUP2 MSTORE POP SWAP1 JUMP JUMPDEST PUSH1 0x40 MLOAD DUP1 PUSH1 0x40 ADD PUSH1 0x40 MSTORE DUP1 PUSH1 0x60 DUP2 MSTORE PUSH1 0x20 ADD PUSH0 ISZERO ISZERO DUP2 MSTORE POP SWAP1 JUMP JUMPDEST PUSH0 DUP2 SWAP1 POP SWAP2 SWAP1 POP JUMP JUMPDEST PUSH2 0xEC1 DUP2 PUSH2 0xEAF JUMP JUMPDEST DUP3 MSTORE POP POP JUMP JUMPDEST PUSH0 PUSH1 0x20 DUP3 ADD SWAP1 POP PUSH2 0xEDA PUSH0 DUP4 ADD DUP5 PUSH2 0xEB8 JUMP JUMPDEST SWAP3 SWAP2 POP POP JUMP JUMPDEST PUSH0 PUSH1 0x40 MLOAD SWAP1 POP SWAP1 JUMP JUMPDEST PUSH0 DUP1 REVERT JUMPDEST PUSH0 DUP1 REVERT JUMPDEST PUSH2 0xEFA DUP2 PUSH2 0xEAF JUMP JUMPDEST DUP2 EQ PUSH2 0xF04 JUMPI PUSH0 DUP1 REVERT JUMPDEST POP JUMP JUMPDEST PUSH0 DUP2 CALLDATALOAD SWAP1 POP PUSH2 0xF15 DUP2 PUSH2 0xEF1 JUMP JUMPDEST SWAP3 SWAP2 POP POP JUMP JUMPDEST PUSH0 DUP1 REVERT JUMPDEST PUSH0 PUSH1 0x1F NOT PUSH1 0x1F DUP4 ADD AND SWAP1 POP SWAP2 SWAP1 POP JUMP JUMPDEST PUSH32 0x4E487B7100000000000000000000000000000000000000000000000000000000 PUSH0 MSTORE PUSH1 0x41 PUSH1 0x4 MSTORE PUSH1 0x24 PUSH0 REVERT JUMPDEST PUSH2 0xF65 DUP3 PUSH2 0xF1F JUMP JUMPDEST DUP2 ADD DUP2 DUP2 LT PUSH8 0xFFFFFFFFFFFFFFFF DUP3 GT OR ISZERO PUSH2 0xF84 JUMPI PUSH2 0xF83 PUSH2 0xF2F JUMP JUMPDEST JUMPDEST DUP1 PUSH1 0x40 MSTORE POP POP POP JUMP JUMPDEST PUSH0 PUSH2 0xF96 PUSH2 0xEE0 JUMP JUMPDEST SWAP1 POP PUSH2 0xFA2 DUP3 DUP3 PUSH2 0xF5C JUMP JUMPDEST SWAP2 SWAP1 POP JUMP JUMPDEST PUSH0 DUP1 REVERT JUMPDEST PUSH0 DUP1 REVERT JUMPDEST PUSH0 DUP1 REVERT JUMPDEST PUSH0 PUSH8 0xFFFFFFFFFFFFFFFF DUP3 GT ISZERO PUSH2 0xFCD JUMPI PUSH2 0xFCC PUSH2 0xF2F JUMP JUMPDEST JUMPDEST PUSH2 0xFD6 DUP3 PUSH2 0xF1F JUMP JUMPDEST SWAP1 POP PUSH1 0x20 DUP2 ADD SWAP1 POP SWAP2 SWAP1 POP JUMP JUMPDEST DUP3 DUP2 DUP4 CALLDATACOPY PUSH0 DUP4 DUP4 ADD MSTORE POP POP POP JUMP JUMPDEST PUSH0 PUSH2 0x1003 PUSH2 0xFFE DUP5 PUSH2 0xFB3 JUMP JUMPDEST PUSH2 0xF8D JUMP JUMPDEST SWAP1 POP DUP3 DUP2 MSTORE PUSH1 0x20 DUP2 ADD DUP5 DUP5 DUP5 ADD GT ISZERO PUSH2 0x101F JUMPI PUSH2 0x101E PUSH2 0xFAF JUMP JUMPDEST JUMPDEST PUSH2 0x102A DUP5 DUP3 DUP6 PUSH2 0xFE3 JUMP JUMPDEST POP SWAP4 SWAP3 POP POP POP JUMP JUMPDEST PUSH0 DUP3 PUSH1 0x1F DUP4 ADD SLT PUSH2 0x1046 JUMPI PUSH2 0x1045 PUSH2 0xFAB JUMP JUMPDEST JUMPDEST DUP2 CALLDATALOAD PUSH2 0x1056 DUP5 DUP3 PUSH1 0x20 DUP7 ADD PUSH2 0xFF1 JUMP JUMPDEST SWAP2 POP POP SWAP3 SWAP2 POP POP JUMP JUMPDEST PUSH0 DUP2 ISZERO ISZERO SWAP1 POP SWAP2 SWAP1 POP JUMP JUMPDEST PUSH2 0x1073 DUP2 PUSH2 0x105F JUMP JUMPDEST DUP2 EQ PUSH2 0x107D JUMPI PUSH0 DUP1 REVERT JUMPDEST POP JUMP JUMPDEST PUSH0 DUP2 CALLDATALOAD SWAP1 POP PUSH2 0x108E DUP2 PUSH2 0x106A JUMP JUMPDEST SWAP3 SWAP2 POP POP JUMP JUMPDEST PUSH0 PUSH2 0x100 DUP3 DUP5 SUB SLT ISZERO PUSH2 0x10AA JUMPI PUSH2 0x10A9 PUSH2 0xF1B JUMP JUMPDEST JUMPDEST PUSH2 0x10B5 PUSH2 0x100 PUSH2 0xF8D JUMP JUMPDEST SWAP1 POP PUSH0 DUP3 ADD CALLDATALOAD PUSH8 0xFFFFFFFFFFFFFFFF DUP2 GT ISZERO PUSH2 0x10D4 JUMPI PUSH2 0x10D3 PUSH2 0xFA7 JUMP JUMPDEST JUMPDEST PUSH2 0x10E0 DUP5 DUP3 DUP6 ADD PUSH2 0x1032 JUMP JUMPDEST PUSH0 DUP4 ADD MSTORE POP PUSH1 0x20 PUSH2 0x10F3 DUP5 DUP3 DUP6 ADD PUSH2 0xF07 JUMP JUMPDEST PUSH1 0x20 DUP4 ADD MSTORE POP PUSH1 0x40 DUP3 ADD CALLDATALOAD PUSH8 0xFFFFFFFFFFFFFFFF DUP2 GT ISZERO PUSH2 0x1117 JUMPI PUSH2 0x1116 PUSH2 0xFA7 JUMP JUMPDEST JUMPDEST PUSH2 0x1123 DUP5 DUP3 DUP6 ADD PUSH2 0x1032 JUMP JUMPDEST PUSH1 0x40 DUP4 ADD MSTORE POP PUSH1 0x60 DUP3 ADD CALLDATALOAD PUSH8 0xFFFFFFFFFFFFFFFF DUP2 GT ISZERO PUSH2 0x1147 JUMPI PUSH2 0x1146 PUSH2 0xFA7 JUMP JUMPDEST JUMPDEST PUSH2 0x1153 DUP5 DUP3 DUP6 ADD PUSH2 0x1032 JUMP JUMPDEST PUSH1 0x60 DUP4 ADD MSTORE POP PUSH1 0x80 PUSH2 0x1167 DUP5 DUP3 DUP6 ADD PUSH2 0x1080 JUMP JUMPDEST PUSH1 0x80 DUP4 ADD MSTORE POP PUSH1 0xA0 PUSH2 0x117B DUP5 DUP3 DUP6 ADD PUSH2 0x1080 JUMP JUMPDEST PUSH1 0xA0 DUP4 ADD MSTORE POP PUSH1 0xC0 PUSH2 0x118F DUP5 DUP3 DUP6 ADD PUSH2 0x1080 JUMP JUMPDEST PUSH1 0xC0 DUP4 ADD MSTORE POP PUSH1 0xE0 PUSH2 0x11A3 DUP5 DUP3 DUP6 ADD PUSH2 0x1080 JUMP JUMPDEST PUSH1 0xE0 DUP4 ADD MSTORE POP SWAP3 SWAP2 POP POP JUMP JUMPDEST PUSH0 DUP1 PUSH1 0x40 DUP4 DUP6 SUB SLT ISZERO PUSH2 0x11C5 JUMPI PUSH2 0x11C4 PUSH2 0xEE9 JUMP JUMPDEST JUMPDEST PUSH0 PUSH2 0x11D2 DUP6 DUP3 DUP7 ADD PUSH2 0xF07 JUMP JUMPDEST SWAP3 POP POP PUSH1 0x20 DUP4 ADD CALLDATALOAD PUSH8 0xFFFFFFFFFFFFFFFF DUP2 GT ISZERO PUSH2 0x11F3 JUMPI PUSH2 0x11F2 PUSH2 0xEED JUMP JUMPDEST JUMPDEST PUSH2 0x11FF DUP6 DUP3 DUP7 ADD PUSH2 0x1094 JUMP JUMPDEST SWAP2 POP POP SWAP3 POP SWAP3 SWAP1 POP JUMP JUMPDEST PUSH0 PUSH1 0x20 DUP3 DUP5 SUB SLT ISZERO PUSH2 0x121E JUMPI PUSH2 0x121D PUSH2 0xEE9 JUMP JUMPDEST JUMPDEST PUSH0 PUSH2 0x122B DUP5 DUP3 DUP6 ADD PUSH2 0xF07 JUMP JUMPDEST SWAP2 POP POP SWAP3 SWAP2 POP POP JUMP JUMPDEST PUSH0 DUP2 MLOAD SWAP1 POP SWAP2 SWAP1 POP JUMP JUMPDEST PUSH0 DUP3 DUP3 MSTORE PUSH1 0x20 DUP3 ADD SWAP1 POP SWAP3 SWAP2 POP POP JUMP JUMPDEST DUP3 DUP2 DUP4 MCOPY PUSH0 DUP4 DUP4 ADD MSTORE POP POP POP JUMP JUMPDEST PUSH0 PUSH2 0x1266 DUP3 PUSH2 0x1234 JUMP JUMPDEST PUSH2 0x1270 DUP2 DUP6 PUSH2 0x123E JUMP JUMPDEST SWAP4 POP PUSH2 0x1280 DUP2 DUP6 PUSH1 0x20 DUP7 ADD PUSH2 0x124E JUMP JUMPDEST PUSH2 0x1289 DUP2 PUSH2 0xF1F JUMP JUMPDEST DUP5 ADD SWAP2 POP POP SWAP3 SWAP2 POP POP JUMP JUMPDEST PUSH2 0x129D DUP2 PUSH2 0xEAF JUMP JUMPDEST DUP3 MSTORE POP POP JUMP JUMPDEST PUSH2 0x12AC DUP2 PUSH2 0x105F JUMP JUMPDEST DUP3 MSTORE POP POP JUMP JUMPDEST PUSH0 PUSH2 0x100 DUP4 ADD PUSH0 DUP4 ADD MLOAD DUP5 DUP3 SUB PUSH0 DUP7 ADD MSTORE PUSH2 0x12CD DUP3 DUP3 PUSH2 0x125C JUMP JUMPDEST SWAP2 POP POP PUSH1 0x20 DUP4 ADD MLOAD PUSH2 0x12E2 PUSH1 0x20 DUP7 ADD DUP3 PUSH2 0x1294 JUMP JUMPDEST POP PUSH1 0x40 DUP4 ADD MLOAD DUP5 DUP3 SUB PUSH1 0x40 DUP7 ADD MSTORE PUSH2 0x12FA DUP3 DUP3 PUSH2 0x125C JUMP JUMPDEST SWAP2 POP POP PUSH1 0x60 DUP4 ADD MLOAD DUP5 DUP3 SUB PUSH1 0x60 DUP7 ADD MSTORE PUSH2 0x1314 DUP3 DUP3 PUSH2 0x125C JUMP JUMPDEST SWAP2 POP POP PUSH1 0x80 DUP4 ADD MLOAD PUSH2 0x1329 PUSH1 0x80 DUP7 ADD DUP3 PUSH2 0x12A3 JUMP JUMPDEST POP PUSH1 0xA0 DUP4 ADD MLOAD PUSH2 0x133C PUSH1 0xA0 DUP7 ADD DUP3 PUSH2 0x12A3 JUMP JUMPDEST POP PUSH1 0xC0 DUP4 ADD MLOAD PUSH2 0x134F PUSH1 0xC0 DUP7 ADD DUP3 PUSH2 0x12A3 JUMP JUMPDEST POP PUSH1 0xE0 DUP4 ADD MLOAD PUSH2 0x1362 PUSH1 0xE0 DUP7 ADD DUP3 PUSH2 0x12A3 JUMP JUMPDEST POP DUP1 SWAP2 POP POP SWAP3 SWAP2 POP POP JUMP JUMPDEST PUSH0 PUSH1 0x20 DUP3 ADD SWAP1 POP DUP2 DUP2 SUB PUSH0 DUP4 ADD MSTORE PUSH2 0x1385 DUP2 DUP5 PUSH2 0x12B2 JUMP JUMPDEST SWAP1 POP SWAP3 SWAP2 POP POP JUMP JUMPDEST PUSH0 DUP1 PUSH1 0x40 DUP4 DUP6 SUB SLT ISZERO PUSH2 0x13A3 JUMPI PUSH2 0x13A2 PUSH2 0xEE9 JUMP JUMPDEST JUMPDEST PUSH0 DUP4 ADD CALLDATALOAD PUSH8 0xFFFFFFFFFFFFFFFF DUP2 GT ISZERO PUSH2 0x13C0 JUMPI PUSH2 0x13BF PUSH2 0xEED JUMP JUMPDEST JUMPDEST PUSH2 0x13CC DUP6 DUP3 DUP7 ADD PUSH2 0x1032 JUMP JUMPDEST SWAP3 POP POP PUSH1 0x20 PUSH2 0x13DD DUP6 DUP3 DUP7 ADD PUSH2 0x1080 JUMP JUMPDEST SWAP2 POP POP SWAP3 POP SWAP3 SWAP1 POP JUMP JUMPDEST PUSH0 DUP3 DUP3 MSTORE PUSH1 0x20 DUP3 ADD SWAP1 POP SWAP3 SWAP2 POP POP JUMP JUMPDEST PUSH0 PUSH2 0x1401 DUP3 PUSH2 0x1234 JUMP JUMPDEST PUSH2 0x140B DUP2 DUP6 PUSH2 0x13E7 JUMP JUMPDEST SWAP4 POP PUSH2 0x141B DUP2 DUP6 PUSH1 0x20 DUP7 ADD PUSH2 0x124E JUMP JUMPDEST PUSH2 0x1424 DUP2 PUSH2 0xF1F JUMP JUMPDEST DUP5 ADD SWAP2 POP POP SWAP3 SWAP2 POP POP JUMP JUMPDEST PUSH2 0x1438 DUP2 PUSH2 0x105F JUMP JUMPDEST DUP3 MSTORE POP POP JUMP JUMPDEST PUSH0 PUSH2 0x100 DUP3 ADD SWAP1 POP DUP2 DUP2 SUB PUSH0 DUP4 ADD MSTORE PUSH2 0x1457 DUP2 DUP12 PUSH2 0x13F7 JUMP JUMPDEST SWAP1 POP PUSH2 0x1466 PUSH1 0x20 DUP4 ADD DUP11 PUSH2 0xEB8 JUMP JUMPDEST DUP2 DUP2 SUB PUSH1 0x40 DUP4 ADD MSTORE PUSH2 0x1478 DUP2 DUP10 PUSH2 0x13F7 JUMP JUMPDEST SWAP1 POP DUP2 DUP2 SUB PUSH1 0x60 DUP4 ADD MSTORE PUSH2 0x148C DUP2 DUP9 PUSH2 0x13F7 JUMP JUMPDEST SWAP1 POP PUSH2 0x149B PUSH1 0x80 DUP4 ADD DUP8 PUSH2 0x142F JUMP JUMPDEST PUSH2 0x14A8 PUSH1 0xA0 DUP4 ADD DUP7 PUSH2 0x142F JUMP JUMPDEST PUSH2 0x14B5 PUSH1 0xC0 DUP4 ADD DUP6 PUSH2 0x142F JUMP JUMPDEST PUSH2 0x14C2 PUSH1 0xE0 DUP4 ADD DUP5 PUSH2 0x142F JUMP JUMPDEST SWAP10 SWAP9 POP POP POP POP POP POP POP POP POP JUMP JUMPDEST PUSH0 PUSH1 0x40 DUP3 DUP5 SUB SLT ISZERO PUSH2 0x14E4 JUMPI PUSH2 0x14E3 PUSH2 0xF1B JUMP JUMPDEST JUMPDEST PUSH2 0x14EE PUSH1 0x40 PUSH2 0xF8D JUMP JUMPDEST SWAP1 POP PUSH0 DUP3 ADD CALLDATALOAD PUSH8 0xFFFFFFFFFFFFFFFF DUP2 GT ISZERO PUSH2 0x150D JUMPI PUSH2 0x150C PUSH2 0xFA7 JUMP JUMPDEST JUMPDEST PUSH2 0x1519 DUP5 DUP3 DUP6 ADD PUSH2 0x1032 JUMP JUMPDEST PUSH0 DUP4 ADD MSTORE POP PUSH1 0x20 PUSH2 0x152C DUP5 DUP3 DUP6 ADD PUSH2 0x1080 JUMP JUMPDEST PUSH1 0x20 DUP4 ADD MSTORE POP SWAP3 SWAP2 POP POP JUMP JUMPDEST PUSH0 DUP1 PUSH1 0x40 DUP4 DUP6 SUB SLT ISZERO PUSH2 0x154E JUMPI PUSH2 0x154D PUSH2 0xEE9 JUMP JUMPDEST JUMPDEST PUSH0 PUSH2 0x155B DUP6 DUP3 DUP7 ADD PUSH2 0xF07 JUMP JUMPDEST SWAP3 POP POP PUSH1 0x20 DUP4 ADD CALLDATALOAD PUSH8 0xFFFFFFFFFFFFFFFF DUP2 GT ISZERO PUSH2 0x157C JUMPI PUSH2 0x157B PUSH2 0xEED JUMP JUMPDEST JUMPDEST PUSH2 0x1588 DUP6 DUP3 DUP7 ADD PUSH2 0x14CF JUMP JUMPDEST SWAP2 POP POP SWAP3 POP SWAP3 SWAP1 POP JUMP JUMPDEST PUSH0 PUSH1 0x40 DUP3 ADD SWAP1 POP DUP2 DUP2 SUB PUSH0 DUP4 ADD MSTORE PUSH2 0x15AA DUP2 DUP6 PUSH2 0x13F7 JUMP JUMPDEST SWAP1 POP PUSH2 0x15B9 PUSH1 0x20 DUP4 ADD DUP5 PUSH2 0x142F JUMP JUMPDEST SWAP4 SWAP3 POP POP POP JUMP JUMPDEST PUSH0 DUP1 PUSH1 0x40 DUP4 DUP6 SUB SLT ISZERO PUSH2 0x15D6 JUMPI PUSH2 0x15D5 PUSH2 0xEE9 JUMP JUMPDEST JUMPDEST PUSH0 DUP4 ADD CALLDATALOAD PUSH8 0xFFFFFFFFFFFFFFFF DUP2 GT ISZERO PUSH2 0x15F3 JUMPI PUSH2 0x15F2 PUSH2 0xEED JUMP JUMPDEST JUMPDEST PUSH2 0x15FF DUP6 DUP3 DUP7 ADD PUSH2 0x1032 JUMP JUMPDEST SWAP3 POP POP PUSH1 0x20 PUSH2 0x1610 DUP6 DUP3 DUP7 ADD PUSH2 0xF07 JUMP JUMPDEST SWAP2 POP POP SWAP3 POP SWAP3 SWAP1 POP JUMP JUMPDEST PUSH0 PUSH1 0x40 DUP4 ADD PUSH0 DUP4 ADD MLOAD DUP5 DUP3 SUB PUSH0 DUP7 ADD MSTORE PUSH2 0x1634 DUP3 DUP3 PUSH2 0x125C JUMP JUMPDEST SWAP2 POP POP PUSH1 0x20 DUP4 ADD MLOAD PUSH2 0x1649 PUSH1 0x20 DUP7 ADD DUP3 PUSH2 0x12A3 JUMP JUMPDEST POP DUP1 SWAP2 POP POP SWAP3 SWAP2 POP POP JUMP JUMPDEST PUSH0 PUSH1 0x20 DUP3 ADD SWAP1 POP DUP2 DUP2 SUB PUSH0 DUP4 ADD MSTORE PUSH2 0x166C DUP2 DUP5 PUSH2 0x161A JUMP JUMPDEST SWAP1 POP SWAP3 SWAP2 POP POP JUMP JUMPDEST PUSH32 0x4E487B7100000000000000000000000000000000000000000000000000000000 PUSH0 MSTORE PUSH1 0x22 PUSH1 0x4 MSTORE PUSH1 0x24 PUSH0 REVERT JUMPDEST PUSH0 PUSH1 0x2 DUP3 DIV SWAP1 POP PUSH1 0x1 DUP3 AND DUP1 PUSH2 0x16B8 JUMPI PUSH1 0x7F DUP3 AND SWAP2 POP JUMPDEST PUSH1 0x20 DUP3 LT DUP2 SUB PUSH2 0x16CB JUMPI PUSH2 0x16CA PUSH2 0x1674 JUMP JUMPDEST JUMPDEST POP SWAP2 SWAP1 POP JUMP JUMPDEST PUSH0 DUP2 SWAP1 POP DUP2 PUSH0 MSTORE PUSH1 0x20 PUSH0 KECCAK256 SWAP1 POP SWAP2 SWAP1 POP JUMP JUMPDEST PUSH0 PUSH1 0x20 PUSH1 0x1F DUP4 ADD DIV SWAP1 POP SWAP2 SWAP1 POP JUMP JUMPDEST PUSH0 DUP3 DUP3 SHL SWAP1 POP SWAP3 SWAP2 POP POP JUMP JUMPDEST PUSH0 PUSH1 0x8 DUP4 MUL PUSH2 0x172D PUSH32 0xFFFFFFFFFFFFFFFFFFFFFFFFFFFFFFFFFFFFFFFFFFFFFFFFFFFFFFFFFFFFFFFF DUP3 PUSH2 0x16F2 JUMP JUMPDEST PUSH2 0x1737 DUP7 DUP4 PUSH2 0x16F2 JUMP JUMPDEST SWAP6 POP DUP1 NOT DUP5 AND SWAP4 POP DUP1 DUP7 AND DUP5 OR SWAP3 POP POP POP SWAP4 SWAP3 POP POP POP JUMP JUMPDEST PUSH0 DUP2 SWAP1 POP SWAP2 SWAP1 POP JUMP JUMPDEST PUSH0 PUSH2 0x1772 PUSH2 0x176D PUSH2 0x1768 DUP5 PUSH2 0xEAF JUMP JUMPDEST PUSH2 0x174F JUMP JUMPDEST PUSH2 0xEAF JUMP JUMPDEST SWAP1 POP SWAP2 SWAP1 POP JUMP JUMPDEST PUSH0 DUP2 SWAP1 POP SWAP2 SWAP1 POP JUMP JUMPDEST PUSH2 0x178B DUP4 PUSH2 0x1758 JUMP JUMPDEST PUSH2 0x179F PUSH2 0x1797 DUP3 PUSH2 0x1779 JUMP JUMPDEST DUP5 DUP5 SLOAD PUSH2 0x16FE JUMP JUMPDEST DUP3 SSTORE POP POP POP POP JUMP JUMPDEST PUSH0 SWAP1 JUMP JUMPDEST PUSH2 0x17B3 PUSH2 0x17A7 JUMP JUMPDEST PUSH2 0x17BE DUP2 DUP5 DUP5 PUSH2 0x1782 JUMP JUMPDEST POP POP POP JUMP JUMPDEST JUMPDEST DUP2 DUP2 LT ISZERO PUSH2 0x17E1 JUMPI PUSH2 0x17D6 PUSH0 DUP3 PUSH2 0x17AB JUMP JUMPDEST PUSH1 0x1 DUP2 ADD SWAP1 POP PUSH2 0x17C4 JUMP JUMPDEST POP POP JUMP JUMPDEST PUSH1 0x1F DUP3 GT ISZERO PUSH2 0x1826 JUMPI PUSH2 0x17F7 DUP2 PUSH2 0x16D1 JUMP JUMPDEST PUSH2 0x1800 DUP5 PUSH2 0x16E3 JUMP JUMPDEST DUP2 ADD PUSH1 0x20 DUP6 LT ISZERO PUSH2 0x180F JUMPI DUP2 SWAP1 POP JUMPDEST PUSH2 0x1823 PUSH2 0x181B DUP6 PUSH2 0x16E3 JUMP JUMPDEST DUP4 ADD DUP3 PUSH2 0x17C3 JUMP JUMPDEST POP POP JUMPDEST POP POP POP JUMP JUMPDEST PUSH0 DUP3 DUP3 SHR SWAP1 POP SWAP3 SWAP2 POP POP JUMP JUMPDEST PUSH0 PUSH2 0x1846 PUSH0 NOT DUP5 PUSH1 0x8 MUL PUSH2 0x182B JUMP JUMPDEST NOT DUP1 DUP4 AND SWAP2 POP POP SWAP3 SWAP2 POP POP JUMP JUMPDEST PUSH0 PUSH2 0x185E DUP4 DUP4 PUSH2 0x1837 JUMP JUMPDEST SWAP2 POP DUP3 PUSH1 0x2 MUL DUP3 OR SWAP1 POP SWAP3 SWAP2 POP POP JUMP JUMPDEST PUSH2 0x1877 DUP3 PUSH2 0x1234 JUMP JUMPDEST PUSH8 0xFFFFFFFFFFFFFFFF DUP2 GT ISZERO PUSH2 0x1890 JUMPI PUSH2 0x188F PUSH2 0xF2F JUMP JUMPDEST JUMPDEST PUSH2 0x189A DUP3 SLOAD PUSH2 0x16A1 JUMP JUMPDEST PUSH2 0x18A5 DUP3 DUP3 DUP6 PUSH2 0x17E5 JUMP JUMPDEST PUSH0 PUSH1 0x20 SWAP1 POP PUSH1 0x1F DUP4 GT PUSH1 0x1 DUP2 EQ PUSH2 0x18D6 JUMPI PUSH0 DUP5 ISZERO PUSH2 0x18C4 JUMPI DUP3 DUP8 ADD MLOAD SWAP1 POP JUMPDEST PUSH2 0x18CE DUP6 DUP3 PUSH2 0x1853 JUMP JUMPDEST DUP7 SSTORE POP PUSH2 0x1935 JUMP JUMPDEST PUSH1 0x1F NOT DUP5 AND PUSH2 0x18E4 DUP7 PUSH2 0x16D1 JUMP JUMPDEST PUSH0 JUMPDEST DUP3 DUP2 LT ISZERO PUSH2 0x190B JUMPI DUP5 DUP10 ADD MLOAD DUP3 SSTORE PUSH1 0x1 DUP3 ADD SWAP2 POP PUSH1 0x20 DUP6 ADD SWAP5 POP PUSH1 0x20 DUP2 ADD SWAP1 POP PUSH2 0x18E6 JUMP JUMPDEST DUP7 DUP4 LT ISZERO PUSH2 0x1928 JUMPI DUP5 DUP10 ADD MLOAD PUSH2 0x1924 PUSH1 0x1F DUP10 AND DUP3 PUSH2 0x1837 JUMP JUMPDEST DUP4 SSTORE POP JUMPDEST PUSH1 0x1 PUSH1 0x2 DUP9 MUL ADD DUP9 SSTORE POP POP POP JUMPDEST POP POP POP POP POP POP JUMP JUMPDEST PUSH32 0x4E487B7100000000000000000000000000000000000000000000000000000000 PUSH0 MSTORE PUSH1 0x11 PUSH1 0x4 MSTORE PUSH1 0x24 PUSH0 REVERT JUMPDEST PUSH0 PUSH2 0x1974 DUP3 PUSH2 0xEAF JUMP JUMPDEST SWAP2 POP PUSH32 0xFFFFFFFFFFFFFFFFFFFFFFFFFFFFFFFFFFFFFFFFFFFFFFFFFFFFFFFFFFFFFFFF DUP3 SUB PUSH2 0x19A6 JUMPI PUSH2 0x19A5 PUSH2 0x193D JUMP JUMPDEST JUMPDEST PUSH1 0x1 DUP3 ADD SWAP1 POP SWAP2 SWAP1 POP JUMP JUMPDEST PUSH0 PUSH2 0x19BB DUP3 PUSH2 0xEAF JUMP JUMPDEST SWAP2 POP PUSH0 DUP3 SUB PUSH2 0x19CD JUMPI PUSH2 0x19CC PUSH2 0x193D JUMP JUMPDEST JUMPDEST PUSH1 0x1 DUP3 SUB SWAP1 POP SWAP2 SWAP1 POP JUMP JUMPDEST PUSH0 DUP2 SLOAD PUSH2 0x19E4 DUP2 PUSH2 0x16A1 JUMP JUMPDEST PUSH2 0x19EE DUP2 DUP7 PUSH2 0x13E7 JUMP JUMPDEST SWAP5 POP PUSH1 0x1 DUP3 AND PUSH0 DUP2 EQ PUSH2 0x1A08 JUMPI PUSH1 0x1 DUP2 EQ PUSH2 0x1A1E JUMPI PUSH2 0x1A50 JUMP JUMPDEST PUSH1 0xFF NOT DUP4 AND DUP7 MSTORE DUP2 ISZERO ISZERO PUSH1 0x20 MUL DUP7 ADD SWAP4 POP PUSH2 0x1A50 JUMP JUMPDEST PUSH2 0x1A27 DUP6 PUSH2 0x16D1 JUMP JUMPDEST PUSH0 JUMPDEST DUP4 DUP2 LT ISZERO PUSH2 0x1A48 JUMPI DUP2 SLOAD DUP2 DUP10 ADD MSTORE PUSH1 0x1 DUP3 ADD SWAP2 POP PUSH1 0x20 DUP2 ADD SWAP1 POP PUSH2 0x1A29 JUMP JUMPDEST DUP1 DUP9 ADD SWAP6 POP POP POP JUMPDEST POP POP POP SWAP3 SWAP2 POP POP JUMP JUMPDEST PUSH0 PUSH1 0x40 DUP3 ADD SWAP1 POP PUSH2 0x1A6C PUSH0 DUP4 ADD DUP6 PUSH2 0xEB8 JUMP JUMPDEST DUP2 DUP2 SUB PUSH1 0x20 DUP4 ADD MSTORE PUSH2 0x1A7E DUP2 DUP5 PUSH2 0x19D8 JUMP JUMPDEST SWAP1 POP SWAP4 SWAP3 POP POP POP JUMP JUMPDEST PUSH32 0x546F206265206576616C75617465640000000000000000000000000000000000 PUSH0 DUP3 ADD MSTORE POP JUMP JUMPDEST PUSH0 PUSH2 0x1ABB PUSH1 0xF DUP4 PUSH2 0x13E7 JUMP JUMPDEST SWAP2 POP PUSH2 0x1AC6 DUP3 PUSH2 0x1A87 JUMP JUMPDEST PUSH1 0x20 DUP3 ADD SWAP1 POP SWAP2 SWAP1 POP JUMP JUMPDEST PUSH32 0x546F2062652061737369676E6564000000000000000000000000000000000000 PUSH0 DUP3 ADD MSTORE POP JUMP JUMPDEST PUSH0 PUSH2 0x1B05 PUSH1 0xE DUP4 PUSH2 0x13E7 JUMP JUMPDEST SWAP2 POP PUSH2 0x1B10 DUP3 PUSH2 0x1AD1 JUMP JUMPDEST PUSH1 0x20 DUP3 ADD SWAP1 POP SWAP2 SWAP1 POP JUMP JUMPDEST PUSH0 PUSH2 0x100 DUP3 ADD SWAP1 POP DUP2 DUP2 SUB PUSH0 DUP4 ADD MSTORE PUSH2 0x1B34 DUP2 DUP10 PUSH2 0x13F7 JUMP JUMPDEST SWAP1 POP PUSH2 0x1B43 PUSH1 0x20 DUP4 ADD DUP9 PUSH2 0xEB8 JUMP JUMPDEST DUP2 DUP2 SUB PUSH1 0x40 DUP4 ADD MSTORE PUSH2 0x1B54 DUP2 PUSH2 0x1AAF JUMP JUMPDEST SWAP1 POP DUP2 DUP2 SUB PUSH1 0x60 DUP4 ADD MSTORE PUSH2 0x1B67 DUP2 PUSH2 0x1AF9 JUMP JUMPDEST SWAP1 POP PUSH2 0x1B76 PUSH1 0x80 DUP4 ADD DUP8 PUSH2 0x142F JUMP JUMPDEST PUSH2 0x1B83 PUSH1 0xA0 DUP4 ADD DUP7 PUSH2 0x142F JUMP JUMPDEST PUSH2 0x1B90 PUSH1 0xC0 DUP4 ADD DUP6 PUSH2 0x142F JUMP JUMPDEST PUSH2 0x1B9D PUSH1 0xE0 DUP4 ADD DUP5 PUSH2 0x142F JUMP JUMPDEST SWAP8 SWAP7 POP POP POP POP POP POP POP JUMP INVALID LOG2 PUSH5 0x6970667358 0x22 SLT KECCAK256 0xCB CREATE XOR COINBASE PC PUSH22 0x975B21204B5C144FBF87FE9026121C7DCBF4DD63E32B 0xC5 TLOAD SWAP8 TLOAD PUSH5 0x736F6C6343 STOP ADDMOD BYTE STOP CALLER "
				},
				"gasEstimates": {
					"creation": {
						"codeDepositCost": "1426800",
						"executionCost": "25749",
						"totalCost": "1452549"
					},
					"external": {
						"approveRequest(uint256,(string,bool))": "infinite",
						"availableOrgan()": "2492",
						"createOrgan(string,uint256)": "infinite",
						"createRequest(string,bool)": "infinite",
						"getAvailableOrganCount()": "2520",
						"getOrgan(uint256)": "infinite",
						"getRequest(uint256)": "infinite",
						"organCount()": "2426",
						"organs(uint256)": "infinite",
						"requestCount()": "2448",
						"requests(uint256)": "infinite",
						"totalRequest()": "2492",
						"updateOrgan(uint256,(string,uint256,string,string,bool,bool,bool,bool))": "infinite"
					}
				},
				"methodIdentifiers": {
					"approveRequest(uint256,(string,bool))": "5be2218b",
					"availableOrgan()": "125f02bb",
					"createOrgan(string,uint256)": "8af88a5c",
					"createRequest(string,bool)": "2f045b02",
					"getAvailableOrganCount()": "e7da5328",
					"getOrgan(uint256)": "10742b51",
					"getRequest(uint256)": "c58343ef",
					"organCount()": "098809d7",
					"organs(uint256)": "4fbd241d",
					"requestCount()": "5badbe4c",
					"requests(uint256)": "81d12c58",
					"totalRequest()": "61259745",
					"updateOrgan(uint256,(string,uint256,string,string,bool,bool,bool,bool))": "0d47dd26"
				}
			},
			"storageLayout": {
				"storage": [
					{
						"astId": 25,
						"contract": "OrganCreateContract.sol:TokenCreateContract",
						"label": "owner",
						"offset": 0,
						"slot": "0",
						"type": "t_address"
					},
					{
						"astId": 30,
						"contract": "OrganCreateContract.sol:TokenCreateContract",
						"label": "requests",
						"offset": 0,
						"slot": "1",
						"type": "t_mapping(t_uint256,t_struct(RequestId)23_storage)"
					},
					{
						"astId": 35,
						"contract": "OrganCreateContract.sol:TokenCreateContract",
						"label": "organs",
						"offset": 0,
						"slot": "2",
						"type": "t_mapping(t_uint256,t_struct(OrganId)18_storage)"
					},
					{
						"astId": 37,
						"contract": "OrganCreateContract.sol:TokenCreateContract",
						"label": "organCount",
						"offset": 0,
						"slot": "3",
						"type": "t_uint256"
					},
					{
						"astId": 39,
						"contract": "OrganCreateContract.sol:TokenCreateContract",
						"label": "availableOrgan",
						"offset": 0,
						"slot": "4",
						"type": "t_uint256"
					},
					{
						"astId": 41,
						"contract": "OrganCreateContract.sol:TokenCreateContract",
						"label": "requestCount",
						"offset": 0,
						"slot": "5",
						"type": "t_uint256"
					},
					{
						"astId": 43,
						"contract": "OrganCreateContract.sol:TokenCreateContract",
						"label": "totalRequest",
						"offset": 0,
						"slot": "6",
						"type": "t_uint256"
					}
				],
				"types": {
					"t_address": {
						"encoding": "inplace",
						"label": "address",
						"numberOfBytes": "20"
					},
					"t_bool": {
						"encoding": "inplace",
						"label": "bool",
						"numberOfBytes": "1"
					},
					"t_mapping(t_uint256,t_struct(OrganId)18_storage)": {
						"encoding": "mapping",
						"key": "t_uint256",
						"label": "mapping(uint256 => struct TokenCreateContract.OrganId)",
						"numberOfBytes": "32",
						"value": "t_struct(OrganId)18_storage"
					},
					"t_mapping(t_uint256,t_struct(RequestId)23_storage)": {
						"encoding": "mapping",
						"key": "t_uint256",
						"label": "mapping(uint256 => struct TokenCreateContract.RequestId)",
						"numberOfBytes": "32",
						"value": "t_struct(RequestId)23_storage"
					},
					"t_string_storage": {
						"encoding": "bytes",
						"label": "string",
						"numberOfBytes": "32"
					},
					"t_struct(OrganId)18_storage": {
						"encoding": "inplace",
						"label": "struct TokenCreateContract.OrganId",
						"members": [
							{
								"astId": 3,
								"contract": "OrganCreateContract.sol:TokenCreateContract",
								"label": "donorName",
								"offset": 0,
								"slot": "0",
								"type": "t_string_storage"
							},
							{
								"astId": 5,
								"contract": "OrganCreateContract.sol:TokenCreateContract",
								"label": "dateDonated",
								"offset": 0,
								"slot": "1",
								"type": "t_uint256"
							},
							{
								"astId": 7,
								"contract": "OrganCreateContract.sol:TokenCreateContract",
								"label": "condition",
								"offset": 0,
								"slot": "2",
								"type": "t_string_storage"
							},
							{
								"astId": 9,
								"contract": "OrganCreateContract.sol:TokenCreateContract",
								"label": "donatedTo",
								"offset": 0,
								"slot": "3",
								"type": "t_string_storage"
							},
							{
								"astId": 11,
								"contract": "OrganCreateContract.sol:TokenCreateContract",
								"label": "isConsented",
								"offset": 0,
								"slot": "4",
								"type": "t_bool"
							},
							{
								"astId": 13,
								"contract": "OrganCreateContract.sol:TokenCreateContract",
								"label": "isEvaluated",
								"offset": 1,
								"slot": "4",
								"type": "t_bool"
							},
							{
								"astId": 15,
								"contract": "OrganCreateContract.sol:TokenCreateContract",
								"label": "isStored",
								"offset": 2,
								"slot": "4",
								"type": "t_bool"
							},
							{
								"astId": 17,
								"contract": "OrganCreateContract.sol:TokenCreateContract",
								"label": "isAssigned",
								"offset": 3,
								"slot": "4",
								"type": "t_bool"
							}
						],
						"numberOfBytes": "160"
					},
					"t_struct(RequestId)23_storage": {
						"encoding": "inplace",
						"label": "struct TokenCreateContract.RequestId",
						"members": [
							{
								"astId": 20,
								"contract": "OrganCreateContract.sol:TokenCreateContract",
								"label": "patientName",
								"offset": 0,
								"slot": "0",
								"type": "t_string_storage"
							},
							{
								"astId": 22,
								"contract": "OrganCreateContract.sol:TokenCreateContract",
								"label": "isApproved",
								"offset": 0,
								"slot": "1",
								"type": "t_bool"
							}
						],
						"numberOfBytes": "64"
					},
					"t_uint256": {
						"encoding": "inplace",
						"label": "uint256",
						"numberOfBytes": "32"
					}
				}
			},
			"userdoc": {
				"kind": "user",
				"methods": {
					"approveRequest(uint256,(string,bool))": {
						"notice": "Approves a request and assigns an available organ."
					},
					"createOrgan(string,uint256)": {
						"notice": "Creates a new organ ID with provided details."
					},
					"createRequest(string,bool)": {
						"notice": "Creates a new request ID with provided details."
					},
					"getAvailableOrganCount()": {
						"notice": "Retrieves the current available organ count."
					},
					"getOrgan(uint256)": {
						"notice": "Retrieves an OrganId struct from the mapping of organs."
					},
					"getRequest(uint256)": {
						"notice": "Retrieves a request ID from the mapping of requests."
					},
					"updateOrgan(uint256,(string,uint256,string,string,bool,bool,bool,bool))": {
						"notice": "Updates an existing OrganId struct in the mapping of organs."
					}
				},
				"version": 1
			}
		}
	}
}