{
	"OrganChain.sol": {
		"MedicalDptContract": {
			"abi": [
				{
					"inputs": [
						{
							"internalType": "address",
							"name": "theDoner",
							"type": "address"
						}
					],
					"stateMutability": "nonpayable",
					"type": "constructor"
				},
				{
					"anonymous": false,
					"inputs": [
						{
							"indexed": false,
							"internalType": "bool",
							"name": "agree",
							"type": "bool"
						}
					],
					"name": "AgreeOnContract",
					"type": "event"
				},
				{
					"inputs": [],
					"name": "doner",
					"outputs": [
						{
							"internalType": "address",
							"name": "",
							"type": "address"
						}
					],
					"stateMutability": "view",
					"type": "function"
				}
			],
			"devdoc": {
				"kind": "dev",
				"methods": {},
				"version": 1
			},
			"evm": {
				"assembly": "    /* \"OrganChain.sol\":60:472  contract MedicalDptContract {... */\n  mstore(0x40, 0x80)\n    /* \"OrganChain.sol\":317:469  constructor(address theDoner) {... */\n  callvalue\n  dup1\n  iszero\n  tag_1\n  jumpi\n  0x00\n  dup1\n  revert\ntag_1:\n  pop\n  mload(0x40)\n  sub(codesize, bytecodeSize)\n  dup1\n  bytecodeSize\n  dup4\n  codecopy\n  dup2\n  dup2\n  add\n  0x40\n  mstore\n  dup2\n  add\n  swap1\n  tag_2\n  swap2\n  swap1\n  tag_3\n  jump\t// in\ntag_2:\n    /* \"OrganChain.sol\":386:387  0 */\n  0x00\n    /* \"OrganChain.sol\":366:388  theDoner != address(0) */\n  0xffffffffffffffffffffffffffffffffffffffff\n  and\n    /* \"OrganChain.sol\":366:374  theDoner */\n  dup2\n    /* \"OrganChain.sol\":366:388  theDoner != address(0) */\n  0xffffffffffffffffffffffffffffffffffffffff\n  and\n  sub\n    /* \"OrganChain.sol\":358:414  require(theDoner != address(0), \"Invalid doner address\") */\n  tag_6\n  jumpi\n  mload(0x40)\n  0x08c379a000000000000000000000000000000000000000000000000000000000\n  dup2\n  mstore\n  0x04\n  add\n  tag_7\n  swap1\n  tag_8\n  jump\t// in\ntag_7:\n  mload(0x40)\n  dup1\n  swap2\n  sub\n  swap1\n  revert\ntag_6:\n    /* \"OrganChain.sol\":433:441  theDoner */\n  dup1\n    /* \"OrganChain.sol\":425:430  doner */\n  0x00\n  dup1\n    /* \"OrganChain.sol\":425:441  doner = theDoner */\n  0x0100\n  exp\n  dup2\n  sload\n  dup2\n  0xffffffffffffffffffffffffffffffffffffffff\n  mul\n  not\n  and\n  swap1\n  dup4\n  0xffffffffffffffffffffffffffffffffffffffff\n  and\n  mul\n  or\n  swap1\n  sstore\n  pop\n    /* \"OrganChain.sol\":452:461  name = \"\" */\n  mload(0x40)\n  dup1\n  0x20\n  add\n  0x40\n  mstore\n  dup1\n  0x00\n  dup2\n  mstore\n  pop\n    /* \"OrganChain.sol\":452:456  name */\n  0x01\n    /* \"OrganChain.sol\":452:461  name = \"\" */\n  swap1\n  dup2\n  tag_9\n  swap2\n  swap1\n  tag_10\n  jump\t// in\ntag_9:\n  pop\n    /* \"OrganChain.sol\":317:469  constructor(address theDoner) {... */\n  pop\n    /* \"OrganChain.sol\":60:472  contract MedicalDptContract {... */\n  jump(tag_11)\n    /* \"#utility.yul\":88:205   */\ntag_13:\n    /* \"#utility.yul\":197:198   */\n  0x00\n    /* \"#utility.yul\":194:195   */\n  dup1\n    /* \"#utility.yul\":187:199   */\n  revert\n    /* \"#utility.yul\":334:460   */\ntag_15:\n    /* \"#utility.yul\":371:378   */\n  0x00\n    /* \"#utility.yul\":411:453   */\n  0xffffffffffffffffffffffffffffffffffffffff\n    /* \"#utility.yul\":404:409   */\n  dup3\n    /* \"#utility.yul\":400:454   */\n  and\n    /* \"#utility.yul\":389:454   */\n  swap1\n  pop\n    /* \"#utility.yul\":334:460   */\n  swap2\n  swap1\n  pop\n  jump\t// out\n    /* \"#utility.yul\":466:562   */\ntag_16:\n    /* \"#utility.yul\":503:510   */\n  0x00\n    /* \"#utility.yul\":532:556   */\n  tag_48\n    /* \"#utility.yul\":550:555   */\n  dup3\n    /* \"#utility.yul\":532:556   */\n  tag_15\n  jump\t// in\ntag_48:\n    /* \"#utility.yul\":521:556   */\n  swap1\n  pop\n    /* \"#utility.yul\":466:562   */\n  swap2\n  swap1\n  pop\n  jump\t// out\n    /* \"#utility.yul\":568:690   */\ntag_17:\n    /* \"#utility.yul\":641:665   */\n  tag_50\n    /* \"#utility.yul\":659:664   */\n  dup2\n    /* \"#utility.yul\":641:665   */\n  tag_16\n  jump\t// in\ntag_50:\n    /* \"#utility.yul\":634:639   */\n  dup2\n    /* \"#utility.yul\":631:666   */\n  eq\n    /* \"#utility.yul\":621:684   */\n  tag_51\n  jumpi\n    /* \"#utility.yul\":680:681   */\n  0x00\n    /* \"#utility.yul\":677:678   */\n  dup1\n    /* \"#utility.yul\":670:682   */\n  revert\n    /* \"#utility.yul\":621:684   */\ntag_51:\n    /* \"#utility.yul\":568:690   */\n  pop\n  jump\t// out\n    /* \"#utility.yul\":696:839   */\ntag_18:\n    /* \"#utility.yul\":753:758   */\n  0x00\n    /* \"#utility.yul\":784:790   */\n  dup2\n    /* \"#utility.yul\":778:791   */\n  mload\n    /* \"#utility.yul\":769:791   */\n  swap1\n  pop\n    /* \"#utility.yul\":800:833   */\n  tag_53\n    /* \"#utility.yul\":827:832   */\n  dup2\n    /* \"#utility.yul\":800:833   */\n  tag_17\n  jump\t// in\ntag_53:\n    /* \"#utility.yul\":696:839   */\n  swap3\n  swap2\n  pop\n  pop\n  jump\t// out\n    /* \"#utility.yul\":845:1196   */\ntag_3:\n    /* \"#utility.yul\":915:921   */\n  0x00\n    /* \"#utility.yul\":964:966   */\n  0x20\n    /* \"#utility.yul\":952:961   */\n  dup3\n    /* \"#utility.yul\":943:950   */\n  dup5\n    /* \"#utility.yul\":939:962   */\n  sub\n    /* \"#utility.yul\":935:967   */\n  slt\n    /* \"#utility.yul\":932:1051   */\n  iszero\n  tag_55\n  jumpi\n    /* \"#utility.yul\":970:1049   */\n  tag_56\n  tag_13\n  jump\t// in\ntag_56:\n    /* \"#utility.yul\":932:1051   */\ntag_55:\n    /* \"#utility.yul\":1090:1091   */\n  0x00\n    /* \"#utility.yul\":1115:1179   */\n  tag_57\n    /* \"#utility.yul\":1171:1178   */\n  dup5\n    /* \"#utility.yul\":1162:1168   */\n  dup3\n    /* \"#utility.yul\":1151:1160   */\n  dup6\n    /* \"#utility.yul\":1147:1169   */\n  add\n    /* \"#utility.yul\":1115:1179   */\n  tag_18\n  jump\t// in\ntag_57:\n    /* \"#utility.yul\":1105:1179   */\n  swap2\n  pop\n    /* \"#utility.yul\":1061:1189   */\n  pop\n    /* \"#utility.yul\":845:1196   */\n  swap3\n  swap2\n  pop\n  pop\n  jump\t// out\n    /* \"#utility.yul\":1202:1371   */\ntag_19:\n    /* \"#utility.yul\":1286:1297   */\n  0x00\n    /* \"#utility.yul\":1320:1326   */\n  dup3\n    /* \"#utility.yul\":1315:1318   */\n  dup3\n    /* \"#utility.yul\":1308:1327   */\n  mstore\n    /* \"#utility.yul\":1360:1364   */\n  0x20\n    /* \"#utility.yul\":1355:1358   */\n  dup3\n    /* \"#utility.yul\":1351:1365   */\n  add\n    /* \"#utility.yul\":1336:1365   */\n  swap1\n  pop\n    /* \"#utility.yul\":1202:1371   */\n  swap3\n  swap2\n  pop\n  pop\n  jump\t// out\n    /* \"#utility.yul\":1377:1548   */\ntag_20:\n    /* \"#utility.yul\":1517:1540   */\n  0x496e76616c696420646f6e657220616464726573730000000000000000000000\n    /* \"#utility.yul\":1513:1514   */\n  0x00\n    /* \"#utility.yul\":1505:1511   */\n  dup3\n    /* \"#utility.yul\":1501:1515   */\n  add\n    /* \"#utility.yul\":1494:1541   */\n  mstore\n    /* \"#utility.yul\":1377:1548   */\n  pop\n  jump\t// out\n    /* \"#utility.yul\":1554:1920   */\ntag_21:\n    /* \"#utility.yul\":1696:1699   */\n  0x00\n    /* \"#utility.yul\":1717:1784   */\n  tag_61\n    /* \"#utility.yul\":1781:1783   */\n  0x15\n    /* \"#utility.yul\":1776:1779   */\n  dup4\n    /* \"#utility.yul\":1717:1784   */\n  tag_19\n  jump\t// in\ntag_61:\n    /* \"#utility.yul\":1710:1784   */\n  swap2\n  pop\n    /* \"#utility.yul\":1793:1886   */\n  tag_62\n    /* \"#utility.yul\":1882:1885   */\n  dup3\n    /* \"#utility.yul\":1793:1886   */\n  tag_20\n  jump\t// in\ntag_62:\n    /* \"#utility.yul\":1911:1913   */\n  0x20\n    /* \"#utility.yul\":1906:1909   */\n  dup3\n    /* \"#utility.yul\":1902:1914   */\n  add\n    /* \"#utility.yul\":1895:1914   */\n  swap1\n  pop\n    /* \"#utility.yul\":1554:1920   */\n  swap2\n  swap1\n  pop\n  jump\t// out\n    /* \"#utility.yul\":1926:2345   */\ntag_8:\n    /* \"#utility.yul\":2092:2096   */\n  0x00\n    /* \"#utility.yul\":2130:2132   */\n  0x20\n    /* \"#utility.yul\":2119:2128   */\n  dup3\n    /* \"#utility.yul\":2115:2133   */\n  add\n    /* \"#utility.yul\":2107:2133   */\n  swap1\n  pop\n    /* \"#utility.yul\":2179:2188   */\n  dup2\n    /* \"#utility.yul\":2173:2177   */\n  dup2\n    /* \"#utility.yul\":2169:2189   */\n  sub\n    /* \"#utility.yul\":2165:2166   */\n  0x00\n    /* \"#utility.yul\":2154:2163   */\n  dup4\n    /* \"#utility.yul\":2150:2167   */\n  add\n    /* \"#utility.yul\":2143:2190   */\n  mstore\n    /* \"#utility.yul\":2207:2338   */\n  tag_64\n    /* \"#utility.yul\":2333:2337   */\n  dup2\n    /* \"#utility.yul\":2207:2338   */\n  tag_21\n  jump\t// in\ntag_64:\n    /* \"#utility.yul\":2199:2338   */\n  swap1\n  pop\n    /* \"#utility.yul\":1926:2345   */\n  swap2\n  swap1\n  pop\n  jump\t// out\n    /* \"#utility.yul\":2351:2450   */\ntag_22:\n    /* \"#utility.yul\":2403:2409   */\n  0x00\n    /* \"#utility.yul\":2437:2442   */\n  dup2\n    /* \"#utility.yul\":2431:2443   */\n  mload\n    /* \"#utility.yul\":2421:2443   */\n  swap1\n  pop\n    /* \"#utility.yul\":2351:2450   */\n  swap2\n  swap1\n  pop\n  jump\t// out\n    /* \"#utility.yul\":2456:2636   */\ntag_23:\n    /* \"#utility.yul\":2504:2581   */\n  0x4e487b7100000000000000000000000000000000000000000000000000000000\n    /* \"#utility.yul\":2501:2502   */\n  0x00\n    /* \"#utility.yul\":2494:2582   */\n  mstore\n    /* \"#utility.yul\":2601:2605   */\n  0x41\n    /* \"#utility.yul\":2598:2599   */\n  0x04\n    /* \"#utility.yul\":2591:2606   */\n  mstore\n    /* \"#utility.yul\":2625:2629   */\n  0x24\n    /* \"#utility.yul\":2622:2623   */\n  0x00\n    /* \"#utility.yul\":2615:2630   */\n  revert\n    /* \"#utility.yul\":2642:2822   */\ntag_24:\n    /* \"#utility.yul\":2690:2767   */\n  0x4e487b7100000000000000000000000000000000000000000000000000000000\n    /* \"#utility.yul\":2687:2688   */\n  0x00\n    /* \"#utility.yul\":2680:2768   */\n  mstore\n    /* \"#utility.yul\":2787:2791   */\n  0x22\n    /* \"#utility.yul\":2784:2785   */\n  0x04\n    /* \"#utility.yul\":2777:2792   */\n  mstore\n    /* \"#utility.yul\":2811:2815   */\n  0x24\n    /* \"#utility.yul\":2808:2809   */\n  0x00\n    /* \"#utility.yul\":2801:2816   */\n  revert\n    /* \"#utility.yul\":2828:3148   */\ntag_25:\n    /* \"#utility.yul\":2872:2878   */\n  0x00\n    /* \"#utility.yul\":2909:2910   */\n  0x02\n    /* \"#utility.yul\":2903:2907   */\n  dup3\n    /* \"#utility.yul\":2899:2911   */\n  div\n    /* \"#utility.yul\":2889:2911   */\n  swap1\n  pop\n    /* \"#utility.yul\":2956:2957   */\n  0x01\n    /* \"#utility.yul\":2950:2954   */\n  dup3\n    /* \"#utility.yul\":2946:2958   */\n  and\n    /* \"#utility.yul\":2977:2995   */\n  dup1\n    /* \"#utility.yul\":2967:3048   */\n  tag_69\n  jumpi\n    /* \"#utility.yul\":3033:3037   */\n  0x7f\n    /* \"#utility.yul\":3025:3031   */\n  dup3\n    /* \"#utility.yul\":3021:3038   */\n  and\n    /* \"#utility.yul\":3011:3038   */\n  swap2\n  pop\n    /* \"#utility.yul\":2967:3048   */\ntag_69:\n    /* \"#utility.yul\":3095:3097   */\n  0x20\n    /* \"#utility.yul\":3087:3093   */\n  dup3\n    /* \"#utility.yul\":3084:3098   */\n  lt\n    /* \"#utility.yul\":3064:3082   */\n  dup2\n    /* \"#utility.yul\":3061:3099   */\n  sub\n    /* \"#utility.yul\":3058:3142   */\n  tag_70\n  jumpi\n    /* \"#utility.yul\":3114:3132   */\n  tag_71\n  tag_24\n  jump\t// in\ntag_71:\n    /* \"#utility.yul\":3058:3142   */\ntag_70:\n    /* \"#utility.yul\":2879:3148   */\n  pop\n    /* \"#utility.yul\":2828:3148   */\n  swap2\n  swap1\n  pop\n  jump\t// out\n    /* \"#utility.yul\":3154:3295   */\ntag_26:\n    /* \"#utility.yul\":3203:3207   */\n  0x00\n    /* \"#utility.yul\":3226:3229   */\n  dup2\n    /* \"#utility.yul\":3218:3229   */\n  swap1\n  pop\n    /* \"#utility.yul\":3249:3252   */\n  dup2\n    /* \"#utility.yul\":3246:3247   */\n  0x00\n    /* \"#utility.yul\":3239:3253   */\n  mstore\n    /* \"#utility.yul\":3283:3287   */\n  0x20\n    /* \"#utility.yul\":3280:3281   */\n  0x00\n    /* \"#utility.yul\":3270:3288   */\n  keccak256\n    /* \"#utility.yul\":3262:3288   */\n  swap1\n  pop\n    /* \"#utility.yul\":3154:3295   */\n  swap2\n  swap1\n  pop\n  jump\t// out\n    /* \"#utility.yul\":3301:3394   */\ntag_27:\n    /* \"#utility.yul\":3338:3344   */\n  0x00\n    /* \"#utility.yul\":3385:3387   */\n  0x20\n    /* \"#utility.yul\":3380:3382   */\n  0x1f\n    /* \"#utility.yul\":3373:3378   */\n  dup4\n    /* \"#utility.yul\":3369:3383   */\n  add\n    /* \"#utility.yul\":3365:3388   */\n  div\n    /* \"#utility.yul\":3355:3388   */\n  swap1\n  pop\n    /* \"#utility.yul\":3301:3394   */\n  swap2\n  swap1\n  pop\n  jump\t// out\n    /* \"#utility.yul\":3400:3507   */\ntag_28:\n    /* \"#utility.yul\":3444:3452   */\n  0x00\n    /* \"#utility.yul\":3494:3499   */\n  dup3\n    /* \"#utility.yul\":3488:3492   */\n  dup3\n    /* \"#utility.yul\":3484:3500   */\n  shl\n    /* \"#utility.yul\":3463:3500   */\n  swap1\n  pop\n    /* \"#utility.yul\":3400:3507   */\n  swap3\n  swap2\n  pop\n  pop\n  jump\t// out\n    /* \"#utility.yul\":3513:3906   */\ntag_29:\n    /* \"#utility.yul\":3582:3588   */\n  0x00\n    /* \"#utility.yul\":3632:3633   */\n  0x08\n    /* \"#utility.yul\":3620:3630   */\n  dup4\n    /* \"#utility.yul\":3616:3634   */\n  mul\n    /* \"#utility.yul\":3655:3752   */\n  tag_76\n    /* \"#utility.yul\":3685:3751   */\n  0xffffffffffffffffffffffffffffffffffffffffffffffffffffffffffffffff\n    /* \"#utility.yul\":3674:3683   */\n  dup3\n    /* \"#utility.yul\":3655:3752   */\n  tag_28\n  jump\t// in\ntag_76:\n    /* \"#utility.yul\":3773:3812   */\n  tag_77\n    /* \"#utility.yul\":3803:3811   */\n  dup7\n    /* \"#utility.yul\":3792:3801   */\n  dup4\n    /* \"#utility.yul\":3773:3812   */\n  tag_28\n  jump\t// in\ntag_77:\n    /* \"#utility.yul\":3761:3812   */\n  swap6\n  pop\n    /* \"#utility.yul\":3845:3849   */\n  dup1\n    /* \"#utility.yul\":3841:3850   */\n  not\n    /* \"#utility.yul\":3834:3839   */\n  dup5\n    /* \"#utility.yul\":3830:3851   */\n  and\n    /* \"#utility.yul\":3821:3851   */\n  swap4\n  pop\n    /* \"#utility.yul\":3894:3898   */\n  dup1\n    /* \"#utility.yul\":3884:3892   */\n  dup7\n    /* \"#utility.yul\":3880:3899   */\n  and\n    /* \"#utility.yul\":3873:3878   */\n  dup5\n    /* \"#utility.yul\":3870:3900   */\n  or\n    /* \"#utility.yul\":3860:3900   */\n  swap3\n  pop\n    /* \"#utility.yul\":3589:3906   */\n  pop\n  pop\n    /* \"#utility.yul\":3513:3906   */\n  swap4\n  swap3\n  pop\n  pop\n  pop\n  jump\t// out\n    /* \"#utility.yul\":3912:3989   */\ntag_30:\n    /* \"#utility.yul\":3949:3956   */\n  0x00\n    /* \"#utility.yul\":3978:3983   */\n  dup2\n    /* \"#utility.yul\":3967:3983   */\n  swap1\n  pop\n    /* \"#utility.yul\":3912:3989   */\n  swap2\n  swap1\n  pop\n  jump\t// out\n    /* \"#utility.yul\":3995:4055   */\ntag_31:\n    /* \"#utility.yul\":4023:4026   */\n  0x00\n    /* \"#utility.yul\":4044:4049   */\n  dup2\n    /* \"#utility.yul\":4037:4049   */\n  swap1\n  pop\n    /* \"#utility.yul\":3995:4055   */\n  swap2\n  swap1\n  pop\n  jump\t// out\n    /* \"#utility.yul\":4061:4203   */\ntag_32:\n    /* \"#utility.yul\":4111:4120   */\n  0x00\n    /* \"#utility.yul\":4144:4197   */\n  tag_81\n    /* \"#utility.yul\":4162:4196   */\n  tag_82\n    /* \"#utility.yul\":4171:4195   */\n  tag_83\n    /* \"#utility.yul\":4189:4194   */\n  dup5\n    /* \"#utility.yul\":4171:4195   */\n  tag_30\n  jump\t// in\ntag_83:\n    /* \"#utility.yul\":4162:4196   */\n  tag_31\n  jump\t// in\ntag_82:\n    /* \"#utility.yul\":4144:4197   */\n  tag_30\n  jump\t// in\ntag_81:\n    /* \"#utility.yul\":4131:4197   */\n  swap1\n  pop\n    /* \"#utility.yul\":4061:4203   */\n  swap2\n  swap1\n  pop\n  jump\t// out\n    /* \"#utility.yul\":4209:4284   */\ntag_33:\n    /* \"#utility.yul\":4252:4255   */\n  0x00\n    /* \"#utility.yul\":4273:4278   */\n  dup2\n    /* \"#utility.yul\":4266:4278   */\n  swap1\n  pop\n    /* \"#utility.yul\":4209:4284   */\n  swap2\n  swap1\n  pop\n  jump\t// out\n    /* \"#utility.yul\":4290:4559   */\ntag_34:\n    /* \"#utility.yul\":4400:4439   */\n  tag_86\n    /* \"#utility.yul\":4431:4438   */\n  dup4\n    /* \"#utility.yul\":4400:4439   */\n  tag_32\n  jump\t// in\ntag_86:\n    /* \"#utility.yul\":4461:4552   */\n  tag_87\n    /* \"#utility.yul\":4510:4551   */\n  tag_88\n    /* \"#utility.yul\":4534:4550   */\n  dup3\n    /* \"#utility.yul\":4510:4551   */\n  tag_33\n  jump\t// in\ntag_88:\n    /* \"#utility.yul\":4502:4508   */\n  dup5\n    /* \"#utility.yul\":4495:4499   */\n  dup5\n    /* \"#utility.yul\":4489:4500   */\n  sload\n    /* \"#utility.yul\":4461:4552   */\n  tag_29\n  jump\t// in\ntag_87:\n    /* \"#utility.yul\":4455:4459   */\n  dup3\n    /* \"#utility.yul\":4448:4553   */\n  sstore\n    /* \"#utility.yul\":4366:4559   */\n  pop\n    /* \"#utility.yul\":4290:4559   */\n  pop\n  pop\n  pop\n  jump\t// out\n    /* \"#utility.yul\":4565:4638   */\ntag_35:\n    /* \"#utility.yul\":4610:4613   */\n  0x00\n    /* \"#utility.yul\":4565:4638   */\n  swap1\n  jump\t// out\n    /* \"#utility.yul\":4644:4833   */\ntag_36:\n    /* \"#utility.yul\":4721:4753   */\n  tag_91\n  tag_35\n  jump\t// in\ntag_91:\n    /* \"#utility.yul\":4762:4827   */\n  tag_92\n    /* \"#utility.yul\":4820:4826   */\n  dup2\n    /* \"#utility.yul\":4812:4818   */\n  dup5\n    /* \"#utility.yul\":4806:4810   */\n  dup5\n    /* \"#utility.yul\":4762:4827   */\n  tag_34\n  jump\t// in\ntag_92:\n    /* \"#utility.yul\":4697:4833   */\n  pop\n    /* \"#utility.yul\":4644:4833   */\n  pop\n  pop\n  jump\t// out\n    /* \"#utility.yul\":4839:5025   */\ntag_37:\n    /* \"#utility.yul\":4899:5019   */\ntag_94:\n    /* \"#utility.yul\":4916:4919   */\n  dup2\n    /* \"#utility.yul\":4909:4914   */\n  dup2\n    /* \"#utility.yul\":4906:4920   */\n  lt\n    /* \"#utility.yul\":4899:5019   */\n  iszero\n  tag_96\n  jumpi\n    /* \"#utility.yul\":4970:5009   */\n  tag_97\n    /* \"#utility.yul\":5007:5008   */\n  0x00\n    /* \"#utility.yul\":5000:5005   */\n  dup3\n    /* \"#utility.yul\":4970:5009   */\n  tag_36\n  jump\t// in\ntag_97:\n    /* \"#utility.yul\":4943:4944   */\n  0x01\n    /* \"#utility.yul\":4936:4941   */\n  dup2\n    /* \"#utility.yul\":4932:4945   */\n  add\n    /* \"#utility.yul\":4923:4945   */\n  swap1\n  pop\n    /* \"#utility.yul\":4899:5019   */\n  jump(tag_94)\ntag_96:\n    /* \"#utility.yul\":4839:5025   */\n  pop\n  pop\n  jump\t// out\n    /* \"#utility.yul\":5031:5574   */\ntag_38:\n    /* \"#utility.yul\":5132:5134   */\n  0x1f\n    /* \"#utility.yul\":5127:5130   */\n  dup3\n    /* \"#utility.yul\":5124:5135   */\n  gt\n    /* \"#utility.yul\":5121:5567   */\n  iszero\n  tag_99\n  jumpi\n    /* \"#utility.yul\":5166:5204   */\n  tag_100\n    /* \"#utility.yul\":5198:5203   */\n  dup2\n    /* \"#utility.yul\":5166:5204   */\n  tag_26\n  jump\t// in\ntag_100:\n    /* \"#utility.yul\":5250:5279   */\n  tag_101\n    /* \"#utility.yul\":5268:5278   */\n  dup5\n    /* \"#utility.yul\":5250:5279   */\n  tag_27\n  jump\t// in\ntag_101:\n    /* \"#utility.yul\":5240:5248   */\n  dup2\n    /* \"#utility.yul\":5236:5280   */\n  add\n    /* \"#utility.yul\":5433:5435   */\n  0x20\n    /* \"#utility.yul\":5421:5431   */\n  dup6\n    /* \"#utility.yul\":5418:5436   */\n  lt\n    /* \"#utility.yul\":5415:5464   */\n  iszero\n  tag_102\n  jumpi\n    /* \"#utility.yul\":5454:5462   */\n  dup2\n    /* \"#utility.yul\":5439:5462   */\n  swap1\n  pop\n    /* \"#utility.yul\":5415:5464   */\ntag_102:\n    /* \"#utility.yul\":5477:5557   */\n  tag_103\n    /* \"#utility.yul\":5533:5555   */\n  tag_104\n    /* \"#utility.yul\":5551:5554   */\n  dup6\n    /* \"#utility.yul\":5533:5555   */\n  tag_27\n  jump\t// in\ntag_104:\n    /* \"#utility.yul\":5523:5531   */\n  dup4\n    /* \"#utility.yul\":5519:5556   */\n  add\n    /* \"#utility.yul\":5506:5517   */\n  dup3\n    /* \"#utility.yul\":5477:5557   */\n  tag_37\n  jump\t// in\ntag_103:\n    /* \"#utility.yul\":5136:5567   */\n  pop\n  pop\n    /* \"#utility.yul\":5121:5567   */\ntag_99:\n    /* \"#utility.yul\":5031:5574   */\n  pop\n  pop\n  pop\n  jump\t// out\n    /* \"#utility.yul\":5580:5697   */\ntag_39:\n    /* \"#utility.yul\":5634:5642   */\n  0x00\n    /* \"#utility.yul\":5684:5689   */\n  dup3\n    /* \"#utility.yul\":5678:5682   */\n  dup3\n    /* \"#utility.yul\":5674:5690   */\n  shr\n    /* \"#utility.yul\":5653:5690   */\n  swap1\n  pop\n    /* \"#utility.yul\":5580:5697   */\n  swap3\n  swap2\n  pop\n  pop\n  jump\t// out\n    /* \"#utility.yul\":5703:5872   */\ntag_40:\n    /* \"#utility.yul\":5747:5753   */\n  0x00\n    /* \"#utility.yul\":5780:5831   */\n  tag_107\n    /* \"#utility.yul\":5828:5829   */\n  0x00\n    /* \"#utility.yul\":5824:5830   */\n  not\n    /* \"#utility.yul\":5816:5821   */\n  dup5\n    /* \"#utility.yul\":5813:5814   */\n  0x08\n    /* \"#utility.yul\":5809:5822   */\n  mul\n    /* \"#utility.yul\":5780:5831   */\n  tag_39\n  jump\t// in\ntag_107:\n    /* \"#utility.yul\":5776:5832   */\n  not\n    /* \"#utility.yul\":5861:5865   */\n  dup1\n    /* \"#utility.yul\":5855:5859   */\n  dup4\n    /* \"#utility.yul\":5851:5866   */\n  and\n    /* \"#utility.yul\":5841:5866   */\n  swap2\n  pop\n    /* \"#utility.yul\":5754:5872   */\n  pop\n    /* \"#utility.yul\":5703:5872   */\n  swap3\n  swap2\n  pop\n  pop\n  jump\t// out\n    /* \"#utility.yul\":5877:6172   */\ntag_41:\n    /* \"#utility.yul\":5953:5957   */\n  0x00\n    /* \"#utility.yul\":6099:6128   */\n  tag_109\n    /* \"#utility.yul\":6124:6127   */\n  dup4\n    /* \"#utility.yul\":6118:6122   */\n  dup4\n    /* \"#utility.yul\":6099:6128   */\n  tag_40\n  jump\t// in\ntag_109:\n    /* \"#utility.yul\":6091:6128   */\n  swap2\n  pop\n    /* \"#utility.yul\":6161:6164   */\n  dup3\n    /* \"#utility.yul\":6158:6159   */\n  0x02\n    /* \"#utility.yul\":6154:6165   */\n  mul\n    /* \"#utility.yul\":6148:6152   */\n  dup3\n    /* \"#utility.yul\":6145:6166   */\n  or\n    /* \"#utility.yul\":6137:6166   */\n  swap1\n  pop\n    /* \"#utility.yul\":5877:6172   */\n  swap3\n  swap2\n  pop\n  pop\n  jump\t// out\n    /* \"#utility.yul\":6177:7572   */\ntag_10:\n    /* \"#utility.yul\":6294:6331   */\n  tag_111\n    /* \"#utility.yul\":6327:6330   */\n  dup3\n    /* \"#utility.yul\":6294:6331   */\n  tag_22\n  jump\t// in\ntag_111:\n    /* \"#utility.yul\":6396:6414   */\n  0xffffffffffffffff\n    /* \"#utility.yul\":6388:6394   */\n  dup2\n    /* \"#utility.yul\":6385:6415   */\n  gt\n    /* \"#utility.yul\":6382:6438   */\n  iszero\n  tag_112\n  jumpi\n    /* \"#utility.yul\":6418:6436   */\n  tag_113\n  tag_23\n  jump\t// in\ntag_113:\n    /* \"#utility.yul\":6382:6438   */\ntag_112:\n    /* \"#utility.yul\":6462:6500   */\n  tag_114\n    /* \"#utility.yul\":6494:6498   */\n  dup3\n    /* \"#utility.yul\":6488:6499   */\n  sload\n    /* \"#utility.yul\":6462:6500   */\n  tag_25\n  jump\t// in\ntag_114:\n    /* \"#utility.yul\":6547:6614   */\n  tag_115\n    /* \"#utility.yul\":6607:6613   */\n  dup3\n    /* \"#utility.yul\":6599:6605   */\n  dup3\n    /* \"#utility.yul\":6593:6597   */\n  dup6\n    /* \"#utility.yul\":6547:6614   */\n  tag_38\n  jump\t// in\ntag_115:\n    /* \"#utility.yul\":6641:6642   */\n  0x00\n    /* \"#utility.yul\":6665:6669   */\n  0x20\n    /* \"#utility.yul\":6652:6669   */\n  swap1\n  pop\n    /* \"#utility.yul\":6697:6699   */\n  0x1f\n    /* \"#utility.yul\":6689:6695   */\n  dup4\n    /* \"#utility.yul\":6686:6700   */\n  gt\n    /* \"#utility.yul\":6714:6715   */\n  0x01\n    /* \"#utility.yul\":6709:7327   */\n  dup2\n  eq\n  tag_117\n  jumpi\n    /* \"#utility.yul\":7371:7372   */\n  0x00\n    /* \"#utility.yul\":7388:7394   */\n  dup5\n    /* \"#utility.yul\":7385:7462   */\n  iszero\n  tag_118\n  jumpi\n    /* \"#utility.yul\":7437:7446   */\n  dup3\n    /* \"#utility.yul\":7432:7435   */\n  dup8\n    /* \"#utility.yul\":7428:7447   */\n  add\n    /* \"#utility.yul\":7422:7448   */\n  mload\n    /* \"#utility.yul\":7413:7448   */\n  swap1\n  pop\n    /* \"#utility.yul\":7385:7462   */\ntag_118:\n    /* \"#utility.yul\":7488:7555   */\n  tag_119\n    /* \"#utility.yul\":7548:7554   */\n  dup6\n    /* \"#utility.yul\":7541:7546   */\n  dup3\n    /* \"#utility.yul\":7488:7555   */\n  tag_41\n  jump\t// in\ntag_119:\n    /* \"#utility.yul\":7482:7486   */\n  dup7\n    /* \"#utility.yul\":7475:7556   */\n  sstore\n    /* \"#utility.yul\":7344:7566   */\n  pop\n    /* \"#utility.yul\":6679:7566   */\n  jump(tag_116)\n    /* \"#utility.yul\":6709:7327   */\ntag_117:\n    /* \"#utility.yul\":6761:6765   */\n  0x1f\n    /* \"#utility.yul\":6757:6766   */\n  not\n    /* \"#utility.yul\":6749:6755   */\n  dup5\n    /* \"#utility.yul\":6745:6767   */\n  and\n    /* \"#utility.yul\":6795:6832   */\n  tag_120\n    /* \"#utility.yul\":6827:6831   */\n  dup7\n    /* \"#utility.yul\":6795:6832   */\n  tag_26\n  jump\t// in\ntag_120:\n    /* \"#utility.yul\":6854:6855   */\n  0x00\n    /* \"#utility.yul\":6868:7076   */\ntag_121:\n    /* \"#utility.yul\":6882:6889   */\n  dup3\n    /* \"#utility.yul\":6879:6880   */\n  dup2\n    /* \"#utility.yul\":6876:6890   */\n  lt\n    /* \"#utility.yul\":6868:7076   */\n  iszero\n  tag_123\n  jumpi\n    /* \"#utility.yul\":6961:6970   */\n  dup5\n    /* \"#utility.yul\":6956:6959   */\n  dup10\n    /* \"#utility.yul\":6952:6971   */\n  add\n    /* \"#utility.yul\":6946:6972   */\n  mload\n    /* \"#utility.yul\":6938:6944   */\n  dup3\n    /* \"#utility.yul\":6931:6973   */\n  sstore\n    /* \"#utility.yul\":7012:7013   */\n  0x01\n    /* \"#utility.yul\":7004:7010   */\n  dup3\n    /* \"#utility.yul\":7000:7014   */\n  add\n    /* \"#utility.yul\":6990:7014   */\n  swap2\n  pop\n    /* \"#utility.yul\":7059:7061   */\n  0x20\n    /* \"#utility.yul\":7048:7057   */\n  dup6\n    /* \"#utility.yul\":7044:7062   */\n  add\n    /* \"#utility.yul\":7031:7062   */\n  swap5\n  pop\n    /* \"#utility.yul\":6905:6909   */\n  0x20\n    /* \"#utility.yul\":6902:6903   */\n  dup2\n    /* \"#utility.yul\":6898:6910   */\n  add\n    /* \"#utility.yul\":6893:6910   */\n  swap1\n  pop\n    /* \"#utility.yul\":6868:7076   */\n  jump(tag_121)\ntag_123:\n    /* \"#utility.yul\":7104:7110   */\n  dup7\n    /* \"#utility.yul\":7095:7102   */\n  dup4\n    /* \"#utility.yul\":7092:7111   */\n  lt\n    /* \"#utility.yul\":7089:7268   */\n  iszero\n  tag_124\n  jumpi\n    /* \"#utility.yul\":7162:7171   */\n  dup5\n    /* \"#utility.yul\":7157:7160   */\n  dup10\n    /* \"#utility.yul\":7153:7172   */\n  add\n    /* \"#utility.yul\":7147:7173   */\n  mload\n    /* \"#utility.yul\":7205:7253   */\n  tag_125\n    /* \"#utility.yul\":7247:7251   */\n  0x1f\n    /* \"#utility.yul\":7239:7245   */\n  dup10\n    /* \"#utility.yul\":7235:7252   */\n  and\n    /* \"#utility.yul\":7224:7233   */\n  dup3\n    /* \"#utility.yul\":7205:7253   */\n  tag_40\n  jump\t// in\ntag_125:\n    /* \"#utility.yul\":7197:7203   */\n  dup4\n    /* \"#utility.yul\":7190:7254   */\n  sstore\n    /* \"#utility.yul\":7112:7268   */\n  pop\n    /* \"#utility.yul\":7089:7268   */\ntag_124:\n    /* \"#utility.yul\":7314:7315   */\n  0x01\n    /* \"#utility.yul\":7310:7311   */\n  0x02\n    /* \"#utility.yul\":7302:7308   */\n  dup9\n    /* \"#utility.yul\":7298:7312   */\n  mul\n    /* \"#utility.yul\":7294:7316   */\n  add\n    /* \"#utility.yul\":7288:7292   */\n  dup9\n    /* \"#utility.yul\":7281:7317   */\n  sstore\n    /* \"#utility.yul\":6716:7327   */\n  pop\n  pop\n  pop\n    /* \"#utility.yul\":6679:7566   */\ntag_116:\n  pop\n    /* \"#utility.yul\":6269:7572   */\n  pop\n  pop\n  pop\n    /* \"#utility.yul\":6177:7572   */\n  pop\n  pop\n  jump\t// out\n    /* \"OrganChain.sol\":60:472  contract MedicalDptContract {... */\ntag_11:\n  dataSize(sub_0)\n  dup1\n  dataOffset(sub_0)\n  0x00\n  codecopy\n  0x00\n  return\nstop\n\nsub_0: assembly {\n        /* \"OrganChain.sol\":60:472  contract MedicalDptContract {... */\n      mstore(0x40, 0x80)\n      callvalue\n      dup1\n      iszero\n      tag_1\n      jumpi\n      0x00\n      dup1\n      revert\n    tag_1:\n      pop\n      jumpi(tag_2, lt(calldatasize, 0x04))\n      shr(0xe0, calldataload(0x00))\n      dup1\n      0x799d4872\n      eq\n      tag_3\n      jumpi\n    tag_2:\n      0x00\n      dup1\n      revert\n        /* \"OrganChain.sol\":95:115  address public doner */\n    tag_3:\n      tag_4\n      tag_5\n      jump\t// in\n    tag_4:\n      mload(0x40)\n      tag_6\n      swap2\n      swap1\n      tag_7\n      jump\t// in\n    tag_6:\n      mload(0x40)\n      dup1\n      swap2\n      sub\n      swap1\n      return\n    tag_5:\n      0x00\n      dup1\n      sload\n      swap1\n      0x0100\n      exp\n      swap1\n      div\n      0xffffffffffffffffffffffffffffffffffffffff\n      and\n      dup2\n      jump\t// out\n        /* \"#utility.yul\":7:133   */\n    tag_8:\n        /* \"#utility.yul\":44:51   */\n      0x00\n        /* \"#utility.yul\":84:126   */\n      0xffffffffffffffffffffffffffffffffffffffff\n        /* \"#utility.yul\":77:82   */\n      dup3\n        /* \"#utility.yul\":73:127   */\n      and\n        /* \"#utility.yul\":62:127   */\n      swap1\n      pop\n        /* \"#utility.yul\":7:133   */\n      swap2\n      swap1\n      pop\n      jump\t// out\n        /* \"#utility.yul\":139:235   */\n    tag_9:\n        /* \"#utility.yul\":176:183   */\n      0x00\n        /* \"#utility.yul\":205:229   */\n      tag_14\n        /* \"#utility.yul\":223:228   */\n      dup3\n        /* \"#utility.yul\":205:229   */\n      tag_8\n      jump\t// in\n    tag_14:\n        /* \"#utility.yul\":194:229   */\n      swap1\n      pop\n        /* \"#utility.yul\":139:235   */\n      swap2\n      swap1\n      pop\n      jump\t// out\n        /* \"#utility.yul\":241:359   */\n    tag_10:\n        /* \"#utility.yul\":328:352   */\n      tag_16\n        /* \"#utility.yul\":346:351   */\n      dup2\n        /* \"#utility.yul\":328:352   */\n      tag_9\n      jump\t// in\n    tag_16:\n        /* \"#utility.yul\":323:326   */\n      dup3\n        /* \"#utility.yul\":316:353   */\n      mstore\n        /* \"#utility.yul\":241:359   */\n      pop\n      pop\n      jump\t// out\n        /* \"#utility.yul\":365:587   */\n    tag_7:\n        /* \"#utility.yul\":458:462   */\n      0x00\n        /* \"#utility.yul\":496:498   */\n      0x20\n        /* \"#utility.yul\":485:494   */\n      dup3\n        /* \"#utility.yul\":481:499   */\n      add\n        /* \"#utility.yul\":473:499   */\n      swap1\n      pop\n        /* \"#utility.yul\":509:580   */\n      tag_18\n        /* \"#utility.yul\":577:578   */\n      0x00\n        /* \"#utility.yul\":566:575   */\n      dup4\n        /* \"#utility.yul\":562:579   */\n      add\n        /* \"#utility.yul\":553:559   */\n      dup5\n        /* \"#utility.yul\":509:580   */\n      tag_10\n      jump\t// in\n    tag_18:\n        /* \"#utility.yul\":365:587   */\n      swap3\n      swap2\n      pop\n      pop\n      jump\t// out\n\n    auxdata: 0xa26469706673582212205ec903269c1039dda9d34ad744a4c2e0ef4985f0473f89a48dc27083b874eeb464736f6c634300081a0033\n}\n",
				"bytecode": {
					"linkReferences": {},
					"object": "608060405234801561000f575f80fd5b5060405161060738038061060783398181016040528101906100319190610160565b5f73ffffffffffffffffffffffffffffffffffffffff168173ffffffffffffffffffffffffffffffffffffffff160361009f576040517f08c379a0000000000000000000000000000000000000000000000000000000008152600401610096906101e5565b60405180910390fd5b805f806101000a81548173ffffffffffffffffffffffffffffffffffffffff021916908373ffffffffffffffffffffffffffffffffffffffff16021790555060405180602001604052805f815250600190816100fb919061043d565b505061050c565b5f80fd5b5f73ffffffffffffffffffffffffffffffffffffffff82169050919050565b5f61012f82610106565b9050919050565b61013f81610125565b8114610149575f80fd5b50565b5f8151905061015a81610136565b92915050565b5f6020828403121561017557610174610102565b5b5f6101828482850161014c565b91505092915050565b5f82825260208201905092915050565b7f496e76616c696420646f6e6572206164647265737300000000000000000000005f82015250565b5f6101cf60158361018b565b91506101da8261019b565b602082019050919050565b5f6020820190508181035f8301526101fc816101c3565b9050919050565b5f81519050919050565b7f4e487b71000000000000000000000000000000000000000000000000000000005f52604160045260245ffd5b7f4e487b71000000000000000000000000000000000000000000000000000000005f52602260045260245ffd5b5f600282049050600182168061027e57607f821691505b6020821081036102915761029061023a565b5b50919050565b5f819050815f5260205f209050919050565b5f6020601f8301049050919050565b5f82821b905092915050565b5f600883026102f37fffffffffffffffffffffffffffffffffffffffffffffffffffffffffffffffff826102b8565b6102fd86836102b8565b95508019841693508086168417925050509392505050565b5f819050919050565b5f819050919050565b5f61034161033c61033784610315565b61031e565b610315565b9050919050565b5f819050919050565b61035a83610327565b61036e61036682610348565b8484546102c4565b825550505050565b5f90565b610382610376565b61038d818484610351565b505050565b5b818110156103b0576103a55f8261037a565b600181019050610393565b5050565b601f8211156103f5576103c681610297565b6103cf846102a9565b810160208510156103de578190505b6103f26103ea856102a9565b830182610392565b50505b505050565b5f82821c905092915050565b5f6104155f19846008026103fa565b1980831691505092915050565b5f61042d8383610406565b9150826002028217905092915050565b61044682610203565b67ffffffffffffffff81111561045f5761045e61020d565b5b6104698254610267565b6104748282856103b4565b5f60209050601f8311600181146104a5575f8415610493578287015190505b61049d8582610422565b865550610504565b601f1984166104b386610297565b5f5b828110156104da578489015182556001820191506020850194506020810190506104b5565b868310156104f757848901516104f3601f891682610406565b8355505b6001600288020188555050505b505050505050565b60ef806105185f395ff3fe6080604052348015600e575f80fd5b50600436106026575f3560e01c8063799d487214602a575b5f80fd5b60306044565b604051603b919060a2565b60405180910390f35b5f8054906101000a900473ffffffffffffffffffffffffffffffffffffffff1681565b5f73ffffffffffffffffffffffffffffffffffffffff82169050919050565b5f608e826067565b9050919050565b609c816086565b82525050565b5f60208201905060b35f8301846095565b9291505056fea26469706673582212205ec903269c1039dda9d34ad744a4c2e0ef4985f0473f89a48dc27083b874eeb464736f6c634300081a0033",
					"opcodes": "PUSH1 0x80 PUSH1 0x40 MSTORE CALLVALUE DUP1 ISZERO PUSH2 0xF JUMPI PUSH0 DUP1 REVERT JUMPDEST POP PUSH1 0x40 MLOAD PUSH2 0x607 CODESIZE SUB DUP1 PUSH2 0x607 DUP4 CODECOPY DUP2 DUP2 ADD PUSH1 0x40 MSTORE DUP2 ADD SWAP1 PUSH2 0x31 SWAP2 SWAP1 PUSH2 0x160 JUMP JUMPDEST PUSH0 PUSH20 0xFFFFFFFFFFFFFFFFFFFFFFFFFFFFFFFFFFFFFFFF AND DUP2 PUSH20 0xFFFFFFFFFFFFFFFFFFFFFFFFFFFFFFFFFFFFFFFF AND SUB PUSH2 0x9F JUMPI PUSH1 0x40 MLOAD PUSH32 0x8C379A000000000000000000000000000000000000000000000000000000000 DUP2 MSTORE PUSH1 0x4 ADD PUSH2 0x96 SWAP1 PUSH2 0x1E5 JUMP JUMPDEST PUSH1 0x40 MLOAD DUP1 SWAP2 SUB SWAP1 REVERT JUMPDEST DUP1 PUSH0 DUP1 PUSH2 0x100 EXP DUP2 SLOAD DUP2 PUSH20 0xFFFFFFFFFFFFFFFFFFFFFFFFFFFFFFFFFFFFFFFF MUL NOT AND SWAP1 DUP4 PUSH20 0xFFFFFFFFFFFFFFFFFFFFFFFFFFFFFFFFFFFFFFFF AND MUL OR SWAP1 SSTORE POP PUSH1 0x40 MLOAD DUP1 PUSH1 0x20 ADD PUSH1 0x40 MSTORE DUP1 PUSH0 DUP2 MSTORE POP PUSH1 0x1 SWAP1 DUP2 PUSH2 0xFB SWAP2 SWAP1 PUSH2 0x43D JUMP JUMPDEST POP POP PUSH2 0x50C JUMP JUMPDEST PUSH0 DUP1 REVERT JUMPDEST PUSH0 PUSH20 0xFFFFFFFFFFFFFFFFFFFFFFFFFFFFFFFFFFFFFFFF DUP3 AND SWAP1 POP SWAP2 SWAP1 POP JUMP JUMPDEST PUSH0 PUSH2 0x12F DUP3 PUSH2 0x106 JUMP JUMPDEST SWAP1 POP SWAP2 SWAP1 POP JUMP JUMPDEST PUSH2 0x13F DUP2 PUSH2 0x125 JUMP JUMPDEST DUP2 EQ PUSH2 0x149 JUMPI PUSH0 DUP1 REVERT JUMPDEST POP JUMP JUMPDEST PUSH0 DUP2 MLOAD SWAP1 POP PUSH2 0x15A DUP2 PUSH2 0x136 JUMP JUMPDEST SWAP3 SWAP2 POP POP JUMP JUMPDEST PUSH0 PUSH1 0x20 DUP3 DUP5 SUB SLT ISZERO PUSH2 0x175 JUMPI PUSH2 0x174 PUSH2 0x102 JUMP JUMPDEST JUMPDEST PUSH0 PUSH2 0x182 DUP5 DUP3 DUP6 ADD PUSH2 0x14C JUMP JUMPDEST SWAP2 POP POP SWAP3 SWAP2 POP POP JUMP JUMPDEST PUSH0 DUP3 DUP3 MSTORE PUSH1 0x20 DUP3 ADD SWAP1 POP SWAP3 SWAP2 POP POP JUMP JUMPDEST PUSH32 0x496E76616C696420646F6E657220616464726573730000000000000000000000 PUSH0 DUP3 ADD MSTORE POP JUMP JUMPDEST PUSH0 PUSH2 0x1CF PUSH1 0x15 DUP4 PUSH2 0x18B JUMP JUMPDEST SWAP2 POP PUSH2 0x1DA DUP3 PUSH2 0x19B JUMP JUMPDEST PUSH1 0x20 DUP3 ADD SWAP1 POP SWAP2 SWAP1 POP JUMP JUMPDEST PUSH0 PUSH1 0x20 DUP3 ADD SWAP1 POP DUP2 DUP2 SUB PUSH0 DUP4 ADD MSTORE PUSH2 0x1FC DUP2 PUSH2 0x1C3 JUMP JUMPDEST SWAP1 POP SWAP2 SWAP1 POP JUMP JUMPDEST PUSH0 DUP2 MLOAD SWAP1 POP SWAP2 SWAP1 POP JUMP JUMPDEST PUSH32 0x4E487B7100000000000000000000000000000000000000000000000000000000 PUSH0 MSTORE PUSH1 0x41 PUSH1 0x4 MSTORE PUSH1 0x24 PUSH0 REVERT JUMPDEST PUSH32 0x4E487B7100000000000000000000000000000000000000000000000000000000 PUSH0 MSTORE PUSH1 0x22 PUSH1 0x4 MSTORE PUSH1 0x24 PUSH0 REVERT JUMPDEST PUSH0 PUSH1 0x2 DUP3 DIV SWAP1 POP PUSH1 0x1 DUP3 AND DUP1 PUSH2 0x27E JUMPI PUSH1 0x7F DUP3 AND SWAP2 POP JUMPDEST PUSH1 0x20 DUP3 LT DUP2 SUB PUSH2 0x291 JUMPI PUSH2 0x290 PUSH2 0x23A JUMP JUMPDEST JUMPDEST POP SWAP2 SWAP1 POP JUMP JUMPDEST PUSH0 DUP2 SWAP1 POP DUP2 PUSH0 MSTORE PUSH1 0x20 PUSH0 KECCAK256 SWAP1 POP SWAP2 SWAP1 POP JUMP JUMPDEST PUSH0 PUSH1 0x20 PUSH1 0x1F DUP4 ADD DIV SWAP1 POP SWAP2 SWAP1 POP JUMP JUMPDEST PUSH0 DUP3 DUP3 SHL SWAP1 POP SWAP3 SWAP2 POP POP JUMP JUMPDEST PUSH0 PUSH1 0x8 DUP4 MUL PUSH2 0x2F3 PUSH32 0xFFFFFFFFFFFFFFFFFFFFFFFFFFFFFFFFFFFFFFFFFFFFFFFFFFFFFFFFFFFFFFFF DUP3 PUSH2 0x2B8 JUMP JUMPDEST PUSH2 0x2FD DUP7 DUP4 PUSH2 0x2B8 JUMP JUMPDEST SWAP6 POP DUP1 NOT DUP5 AND SWAP4 POP DUP1 DUP7 AND DUP5 OR SWAP3 POP POP POP SWAP4 SWAP3 POP POP POP JUMP JUMPDEST PUSH0 DUP2 SWAP1 POP SWAP2 SWAP1 POP JUMP JUMPDEST PUSH0 DUP2 SWAP1 POP SWAP2 SWAP1 POP JUMP JUMPDEST PUSH0 PUSH2 0x341 PUSH2 0x33C PUSH2 0x337 DUP5 PUSH2 0x315 JUMP JUMPDEST PUSH2 0x31E JUMP JUMPDEST PUSH2 0x315 JUMP JUMPDEST SWAP1 POP SWAP2 SWAP1 POP JUMP JUMPDEST PUSH0 DUP2 SWAP1 POP SWAP2 SWAP1 POP JUMP JUMPDEST PUSH2 0x35A DUP4 PUSH2 0x327 JUMP JUMPDEST PUSH2 0x36E PUSH2 0x366 DUP3 PUSH2 0x348 JUMP JUMPDEST DUP5 DUP5 SLOAD PUSH2 0x2C4 JUMP JUMPDEST DUP3 SSTORE POP POP POP POP JUMP JUMPDEST PUSH0 SWAP1 JUMP JUMPDEST PUSH2 0x382 PUSH2 0x376 JUMP JUMPDEST PUSH2 0x38D DUP2 DUP5 DUP5 PUSH2 0x351 JUMP JUMPDEST POP POP POP JUMP JUMPDEST JUMPDEST DUP2 DUP2 LT ISZERO PUSH2 0x3B0 JUMPI PUSH2 0x3A5 PUSH0 DUP3 PUSH2 0x37A JUMP JUMPDEST PUSH1 0x1 DUP2 ADD SWAP1 POP PUSH2 0x393 JUMP JUMPDEST POP POP JUMP JUMPDEST PUSH1 0x1F DUP3 GT ISZERO PUSH2 0x3F5 JUMPI PUSH2 0x3C6 DUP2 PUSH2 0x297 JUMP JUMPDEST PUSH2 0x3CF DUP5 PUSH2 0x2A9 JUMP JUMPDEST DUP2 ADD PUSH1 0x20 DUP6 LT ISZERO PUSH2 0x3DE JUMPI DUP2 SWAP1 POP JUMPDEST PUSH2 0x3F2 PUSH2 0x3EA DUP6 PUSH2 0x2A9 JUMP JUMPDEST DUP4 ADD DUP3 PUSH2 0x392 JUMP JUMPDEST POP POP JUMPDEST POP POP POP JUMP JUMPDEST PUSH0 DUP3 DUP3 SHR SWAP1 POP SWAP3 SWAP2 POP POP JUMP JUMPDEST PUSH0 PUSH2 0x415 PUSH0 NOT DUP5 PUSH1 0x8 MUL PUSH2 0x3FA JUMP JUMPDEST NOT DUP1 DUP4 AND SWAP2 POP POP SWAP3 SWAP2 POP POP JUMP JUMPDEST PUSH0 PUSH2 0x42D DUP4 DUP4 PUSH2 0x406 JUMP JUMPDEST SWAP2 POP DUP3 PUSH1 0x2 MUL DUP3 OR SWAP1 POP SWAP3 SWAP2 POP POP JUMP JUMPDEST PUSH2 0x446 DUP3 PUSH2 0x203 JUMP JUMPDEST PUSH8 0xFFFFFFFFFFFFFFFF DUP2 GT ISZERO PUSH2 0x45F JUMPI PUSH2 0x45E PUSH2 0x20D JUMP JUMPDEST JUMPDEST PUSH2 0x469 DUP3 SLOAD PUSH2 0x267 JUMP JUMPDEST PUSH2 0x474 DUP3 DUP3 DUP6 PUSH2 0x3B4 JUMP JUMPDEST PUSH0 PUSH1 0x20 SWAP1 POP PUSH1 0x1F DUP4 GT PUSH1 0x1 DUP2 EQ PUSH2 0x4A5 JUMPI PUSH0 DUP5 ISZERO PUSH2 0x493 JUMPI DUP3 DUP8 ADD MLOAD SWAP1 POP JUMPDEST PUSH2 0x49D DUP6 DUP3 PUSH2 0x422 JUMP JUMPDEST DUP7 SSTORE POP PUSH2 0x504 JUMP JUMPDEST PUSH1 0x1F NOT DUP5 AND PUSH2 0x4B3 DUP7 PUSH2 0x297 JUMP JUMPDEST PUSH0 JUMPDEST DUP3 DUP2 LT ISZERO PUSH2 0x4DA JUMPI DUP5 DUP10 ADD MLOAD DUP3 SSTORE PUSH1 0x1 DUP3 ADD SWAP2 POP PUSH1 0x20 DUP6 ADD SWAP5 POP PUSH1 0x20 DUP2 ADD SWAP1 POP PUSH2 0x4B5 JUMP JUMPDEST DUP7 DUP4 LT ISZERO PUSH2 0x4F7 JUMPI DUP5 DUP10 ADD MLOAD PUSH2 0x4F3 PUSH1 0x1F DUP10 AND DUP3 PUSH2 0x406 JUMP JUMPDEST DUP4 SSTORE POP JUMPDEST PUSH1 0x1 PUSH1 0x2 DUP9 MUL ADD DUP9 SSTORE POP POP POP JUMPDEST POP POP POP POP POP POP JUMP JUMPDEST PUSH1 0xEF DUP1 PUSH2 0x518 PUSH0 CODECOPY PUSH0 RETURN INVALID PUSH1 0x80 PUSH1 0x40 MSTORE CALLVALUE DUP1 ISZERO PUSH1 0xE JUMPI PUSH0 DUP1 REVERT JUMPDEST POP PUSH1 0x4 CALLDATASIZE LT PUSH1 0x26 JUMPI PUSH0 CALLDATALOAD PUSH1 0xE0 SHR DUP1 PUSH4 0x799D4872 EQ PUSH1 0x2A JUMPI JUMPDEST PUSH0 DUP1 REVERT JUMPDEST PUSH1 0x30 PUSH1 0x44 JUMP JUMPDEST PUSH1 0x40 MLOAD PUSH1 0x3B SWAP2 SWAP1 PUSH1 0xA2 JUMP JUMPDEST PUSH1 0x40 MLOAD DUP1 SWAP2 SUB SWAP1 RETURN JUMPDEST PUSH0 DUP1 SLOAD SWAP1 PUSH2 0x100 EXP SWAP1 DIV PUSH20 0xFFFFFFFFFFFFFFFFFFFFFFFFFFFFFFFFFFFFFFFF AND DUP2 JUMP JUMPDEST PUSH0 PUSH20 0xFFFFFFFFFFFFFFFFFFFFFFFFFFFFFFFFFFFFFFFF DUP3 AND SWAP1 POP SWAP2 SWAP1 POP JUMP JUMPDEST PUSH0 PUSH1 0x8E DUP3 PUSH1 0x67 JUMP JUMPDEST SWAP1 POP SWAP2 SWAP1 POP JUMP JUMPDEST PUSH1 0x9C DUP2 PUSH1 0x86 JUMP JUMPDEST DUP3 MSTORE POP POP JUMP JUMPDEST PUSH0 PUSH1 0x20 DUP3 ADD SWAP1 POP PUSH1 0xB3 PUSH0 DUP4 ADD DUP5 PUSH1 0x95 JUMP JUMPDEST SWAP3 SWAP2 POP POP JUMP INVALID LOG2 PUSH5 0x6970667358 0x22 SLT KECCAK256 MCOPY 0xC9 SUB 0x26 SWAP13 LT CODECOPY 0xDD 0xA9 0xD3 BLOBBASEFEE 0xD7 PREVRANDAO LOG4 0xC2 0xE0 0xEF BLOBHASH DUP6 CREATE SELFBALANCE EXTCODEHASH DUP10 LOG4 DUP14 0xC2 PUSH17 0x83B874EEB464736F6C634300081A003300 "
				},
				"gasEstimates": {
					"creation": {
						"codeDepositCost": "47800",
						"executionCost": "infinite",
						"totalCost": "infinite"
					},
					"external": {
						"doner()": "2483"
					}
				},
				"methodIdentifiers": {
					"doner()": "799d4872"
				}
			},
			"storageLayout": {
				"storage": [
					{
						"astId": 3,
						"contract": "OrganChain.sol:MedicalDptContract",
						"label": "doner",
						"offset": 0,
						"slot": "0",
						"type": "t_address"
					},
					{
						"astId": 5,
						"contract": "OrganChain.sol:MedicalDptContract",
						"label": "name",
						"offset": 0,
						"slot": "1",
						"type": "t_string_storage"
					}
				],
				"types": {
					"t_address": {
						"encoding": "inplace",
						"label": "address",
						"numberOfBytes": "20"
					},
					"t_string_storage": {
						"encoding": "bytes",
						"label": "string",
						"numberOfBytes": "32"
					}
				}
			},
			"userdoc": {
				"kind": "user",
				"methods": {},
				"version": 1
			}
		}
	}
}