{
	"OrganCreateContract.sol": {
		"TokenCreateContract": {
			"abi": [
				{
					"inputs": [],
					"stateMutability": "nonpayable",
					"type": "constructor"
				},
				{
					"inputs": [
						{
							"internalType": "string",
							"name": "_donerName",
							"type": "string"
						}
					],
					"name": "createOrgan",
					"outputs": [
						{
							"internalType": "uint256",
							"name": "",
							"type": "uint256"
						}
					],
					"stateMutability": "nonpayable",
					"type": "function"
				},
				{
					"inputs": [
						{
							"internalType": "uint256",
							"name": "_id",
							"type": "uint256"
						}
					],
					"name": "getOrgan",
					"outputs": [
						{
							"components": [
								{
									"internalType": "string",
									"name": "donerName",
									"type": "string"
								},
								{
									"internalType": "uint256",
									"name": "dateDonated",
									"type": "uint256"
								},
								{
									"internalType": "string",
									"name": "condition",
									"type": "string"
								},
								{
									"internalType": "string",
									"name": "donatedTo",
									"type": "string"
								},
								{
									"internalType": "bool",
									"name": "isConsented",
									"type": "bool"
								},
								{
									"internalType": "bool",
									"name": "isEvaluated",
									"type": "bool"
								},
								{
									"internalType": "bool",
									"name": "isStored",
									"type": "bool"
								},
								{
									"internalType": "bool",
									"name": "isAssigned",
									"type": "bool"
								}
							],
							"internalType": "struct TokenCreateContract.OrganId",
							"name": "",
							"type": "tuple"
						}
					],
					"stateMutability": "view",
					"type": "function"
				},
				{
					"inputs": [],
					"name": "organCount",
					"outputs": [
						{
							"internalType": "uint256",
							"name": "",
							"type": "uint256"
						}
					],
					"stateMutability": "view",
					"type": "function"
				},
				{
					"inputs": [
						{
							"internalType": "uint256",
							"name": "",
							"type": "uint256"
						}
					],
					"name": "organs",
					"outputs": [
						{
							"internalType": "string",
							"name": "donerName",
							"type": "string"
						},
						{
							"internalType": "uint256",
							"name": "dateDonated",
							"type": "uint256"
						},
						{
							"internalType": "string",
							"name": "condition",
							"type": "string"
						},
						{
							"internalType": "string",
							"name": "donatedTo",
							"type": "string"
						},
						{
							"internalType": "bool",
							"name": "isConsented",
							"type": "bool"
						},
						{
							"internalType": "bool",
							"name": "isEvaluated",
							"type": "bool"
						},
						{
							"internalType": "bool",
							"name": "isStored",
							"type": "bool"
						},
						{
							"internalType": "bool",
							"name": "isAssigned",
							"type": "bool"
						}
					],
					"stateMutability": "view",
					"type": "function"
				},
				{
					"inputs": [
						{
							"internalType": "uint256",
							"name": "_id",
							"type": "uint256"
						},
						{
							"components": [
								{
									"internalType": "string",
									"name": "donerName",
									"type": "string"
								},
								{
									"internalType": "uint256",
									"name": "dateDonated",
									"type": "uint256"
								},
								{
									"internalType": "string",
									"name": "condition",
									"type": "string"
								},
								{
									"internalType": "string",
									"name": "donatedTo",
									"type": "string"
								},
								{
									"internalType": "bool",
									"name": "isConsented",
									"type": "bool"
								},
								{
									"internalType": "bool",
									"name": "isEvaluated",
									"type": "bool"
								},
								{
									"internalType": "bool",
									"name": "isStored",
									"type": "bool"
								},
								{
									"internalType": "bool",
									"name": "isAssigned",
									"type": "bool"
								}
							],
							"internalType": "struct TokenCreateContract.OrganId",
							"name": "_organ",
							"type": "tuple"
						}
					],
					"name": "updateOrgan",
					"outputs": [],
					"stateMutability": "nonpayable",
					"type": "function"
				}
			],
			"devdoc": {
				"kind": "dev",
				"methods": {},
				"version": 1
			},
			"evm": {
				"assembly": "    /* \"OrganCreateContract.sol\":60:1096  contract TokenCreateContract {... */\n  mstore(0x40, 0x80)\n    /* \"OrganCreateContract.sol\":444:495  constructor() {... */\n  callvalue\n  dup1\n  iszero\n  tag_1\n  jumpi\n  0x00\n  dup1\n  revert\ntag_1:\n  pop\n    /* \"OrganCreateContract.sol\":477:487  msg.sender */\n  caller\n    /* \"OrganCreateContract.sol\":469:474  owner */\n  0x00\n  dup1\n    /* \"OrganCreateContract.sol\":469:487  owner = msg.sender */\n  0x0100\n  exp\n  dup2\n  sload\n  dup2\n  0xffffffffffffffffffffffffffffffffffffffff\n  mul\n  not\n  and\n  swap1\n  dup4\n  0xffffffffffffffffffffffffffffffffffffffff\n  and\n  mul\n  or\n  swap1\n  sstore\n  pop\n    /* \"OrganCreateContract.sol\":60:1096  contract TokenCreateContract {... */\n  dataSize(sub_0)\n  dup1\n  dataOffset(sub_0)\n  0x00\n  codecopy\n  0x00\n  return\nstop\n\nsub_0: assembly {\n        /* \"OrganCreateContract.sol\":60:1096  contract TokenCreateContract {... */\n      mstore(0x40, 0x80)\n      callvalue\n      dup1\n      iszero\n      tag_1\n      jumpi\n      0x00\n      dup1\n      revert\n    tag_1:\n      pop\n      jumpi(tag_2, lt(calldatasize, 0x04))\n      shr(0xe0, calldataload(0x00))\n      dup1\n      0x098809d7\n      eq\n      tag_3\n      jumpi\n      dup1\n      0x0d47dd26\n      eq\n      tag_4\n      jumpi\n      dup1\n      0x10742b51\n      eq\n      tag_5\n      jumpi\n      dup1\n      0x4fbd241d\n      eq\n      tag_6\n      jumpi\n      dup1\n      0xe1c5d838\n      eq\n      tag_7\n      jumpi\n    tag_2:\n      0x00\n      dup1\n      revert\n        /* \"OrganCreateContract.sol\":410:435  uint256 public organCount */\n    tag_3:\n      tag_8\n      tag_9\n      jump\t// in\n    tag_8:\n      mload(0x40)\n      tag_10\n      swap2\n      swap1\n      tag_11\n      jump\t// in\n    tag_10:\n      mload(0x40)\n      dup1\n      swap2\n      sub\n      swap1\n      return\n        /* \"OrganCreateContract.sol\":988:1093  function updateOrgan(uint256 _id, OrganId memory _organ) external {... */\n    tag_4:\n      tag_12\n      0x04\n      dup1\n      calldatasize\n      sub\n      dup2\n      add\n      swap1\n      tag_13\n      swap2\n      swap1\n      tag_14\n      jump\t// in\n    tag_13:\n      tag_15\n      jump\t// in\n    tag_12:\n      stop\n        /* \"OrganCreateContract.sol\":873:980  function getOrgan(uint256 _id) external view returns (OrganId memory) {... */\n    tag_5:\n      tag_16\n      0x04\n      dup1\n      calldatasize\n      sub\n      dup2\n      add\n      swap1\n      tag_17\n      swap2\n      swap1\n      tag_18\n      jump\t// in\n    tag_17:\n      tag_19\n      jump\t// in\n    tag_16:\n      mload(0x40)\n      tag_20\n      swap2\n      swap1\n      tag_21\n      jump\t// in\n    tag_20:\n      mload(0x40)\n      dup1\n      swap2\n      sub\n      swap1\n      return\n        /* \"OrganCreateContract.sol\":362:403  mapping(uint256 => OrganId) public organs */\n    tag_6:\n      tag_22\n      0x04\n      dup1\n      calldatasize\n      sub\n      dup2\n      add\n      swap1\n      tag_23\n      swap2\n      swap1\n      tag_18\n      jump\t// in\n    tag_23:\n      tag_24\n      jump\t// in\n    tag_22:\n      mload(0x40)\n      tag_25\n      swap9\n      swap8\n      swap7\n      swap6\n      swap5\n      swap4\n      swap3\n      swap2\n      swap1\n      tag_26\n      jump\t// in\n    tag_25:\n      mload(0x40)\n      dup1\n      swap2\n      sub\n      swap1\n      return\n        /* \"OrganCreateContract.sol\":603:865  function createOrgan(string memory _donerName) external onlyOwner returns (uint256) {... */\n    tag_7:\n      tag_27\n      0x04\n      dup1\n      calldatasize\n      sub\n      dup2\n      add\n      swap1\n      tag_28\n      swap2\n      swap1\n      tag_29\n      jump\t// in\n    tag_28:\n      tag_30\n      jump\t// in\n    tag_27:\n      mload(0x40)\n      tag_31\n      swap2\n      swap1\n      tag_11\n      jump\t// in\n    tag_31:\n      mload(0x40)\n      dup1\n      swap2\n      sub\n      swap1\n      return\n        /* \"OrganCreateContract.sol\":410:435  uint256 public organCount */\n    tag_9:\n      sload(0x02)\n      dup2\n      jump\t// out\n        /* \"OrganCreateContract.sol\":988:1093  function updateOrgan(uint256 _id, OrganId memory _organ) external {... */\n    tag_15:\n        /* \"OrganCreateContract.sol\":1079:1085  _organ */\n      dup1\n        /* \"OrganCreateContract.sol\":1065:1071  organs */\n      0x01\n        /* \"OrganCreateContract.sol\":1065:1076  organs[_id] */\n      0x00\n        /* \"OrganCreateContract.sol\":1072:1075  _id */\n      dup5\n        /* \"OrganCreateContract.sol\":1065:1076  organs[_id] */\n      dup2\n      mstore\n      0x20\n      add\n      swap1\n      dup2\n      mstore\n      0x20\n      add\n      0x00\n      keccak256\n        /* \"OrganCreateContract.sol\":1065:1085  organs[_id] = _organ */\n      0x00\n      dup3\n      add\n      mload\n      dup2\n      0x00\n      add\n      swap1\n      dup2\n      tag_33\n      swap2\n      swap1\n      tag_34\n      jump\t// in\n    tag_33:\n      pop\n      0x20\n      dup3\n      add\n      mload\n      dup2\n      0x01\n      add\n      sstore\n      0x40\n      dup3\n      add\n      mload\n      dup2\n      0x02\n      add\n      swap1\n      dup2\n      tag_35\n      swap2\n      swap1\n      tag_34\n      jump\t// in\n    tag_35:\n      pop\n      0x60\n      dup3\n      add\n      mload\n      dup2\n      0x03\n      add\n      swap1\n      dup2\n      tag_36\n      swap2\n      swap1\n      tag_34\n      jump\t// in\n    tag_36:\n      pop\n      0x80\n      dup3\n      add\n      mload\n      dup2\n      0x04\n      add\n      exp(0x0100, 0x00)\n      dup2\n      sload\n      dup2\n      0xff\n      mul\n      not\n      and\n      swap1\n      dup4\n      iszero\n      iszero\n      mul\n      or\n      swap1\n      sstore\n      pop\n      0xa0\n      dup3\n      add\n      mload\n      dup2\n      0x04\n      add\n      exp(0x0100, 0x01)\n      dup2\n      sload\n      dup2\n      0xff\n      mul\n      not\n      and\n      swap1\n      dup4\n      iszero\n      iszero\n      mul\n      or\n      swap1\n      sstore\n      pop\n      0xc0\n      dup3\n      add\n      mload\n      dup2\n      0x04\n      add\n      exp(0x0100, 0x02)\n      dup2\n      sload\n      dup2\n      0xff\n      mul\n      not\n      and\n      swap1\n      dup4\n      iszero\n      iszero\n      mul\n      or\n      swap1\n      sstore\n      pop\n      0xe0\n      dup3\n      add\n      mload\n      dup2\n      0x04\n      add\n      exp(0x0100, 0x03)\n      dup2\n      sload\n      dup2\n      0xff\n      mul\n      not\n      and\n      swap1\n      dup4\n      iszero\n      iszero\n      mul\n      or\n      swap1\n      sstore\n      pop\n      swap1\n      pop\n      pop\n        /* \"OrganCreateContract.sol\":988:1093  function updateOrgan(uint256 _id, OrganId memory _organ) external {... */\n      pop\n      pop\n      jump\t// out\n        /* \"OrganCreateContract.sol\":873:980  function getOrgan(uint256 _id) external view returns (OrganId memory) {... */\n    tag_19:\n        /* \"OrganCreateContract.sol\":927:941  OrganId memory */\n      tag_37\n      tag_38\n      jump\t// in\n    tag_37:\n        /* \"OrganCreateContract.sol\":961:967  organs */\n      0x01\n        /* \"OrganCreateContract.sol\":961:972  organs[_id] */\n      0x00\n        /* \"OrganCreateContract.sol\":968:971  _id */\n      dup4\n        /* \"OrganCreateContract.sol\":961:972  organs[_id] */\n      dup2\n      mstore\n      0x20\n      add\n      swap1\n      dup2\n      mstore\n      0x20\n      add\n      0x00\n      keccak256\n        /* \"OrganCreateContract.sol\":954:972  return organs[_id] */\n      mload(0x40)\n      dup1\n      0x0100\n      add\n      0x40\n      mstore\n      swap1\n      dup2\n      0x00\n      dup3\n      add\n      dup1\n      sload\n      tag_40\n      swap1\n      tag_41\n      jump\t// in\n    tag_40:\n      dup1\n      0x1f\n      add\n      0x20\n      dup1\n      swap2\n      div\n      mul\n      0x20\n      add\n      mload(0x40)\n      swap1\n      dup2\n      add\n      0x40\n      mstore\n      dup1\n      swap3\n      swap2\n      swap1\n      dup2\n      dup2\n      mstore\n      0x20\n      add\n      dup3\n      dup1\n      sload\n      tag_42\n      swap1\n      tag_41\n      jump\t// in\n    tag_42:\n      dup1\n      iszero\n      tag_43\n      jumpi\n      dup1\n      0x1f\n      lt\n      tag_44\n      jumpi\n      0x0100\n      dup1\n      dup4\n      sload\n      div\n      mul\n      dup4\n      mstore\n      swap2\n      0x20\n      add\n      swap2\n      jump(tag_43)\n    tag_44:\n      dup3\n      add\n      swap2\n      swap1\n      0x00\n      mstore\n      keccak256(0x00, 0x20)\n      swap1\n    tag_45:\n      dup2\n      sload\n      dup2\n      mstore\n      swap1\n      0x01\n      add\n      swap1\n      0x20\n      add\n      dup1\n      dup4\n      gt\n      tag_45\n      jumpi\n      dup3\n      swap1\n      sub\n      0x1f\n      and\n      dup3\n      add\n      swap2\n    tag_43:\n      pop\n      pop\n      pop\n      pop\n      pop\n      dup2\n      mstore\n      0x20\n      add\n      0x01\n      dup3\n      add\n      sload\n      dup2\n      mstore\n      0x20\n      add\n      0x02\n      dup3\n      add\n      dup1\n      sload\n      tag_46\n      swap1\n      tag_41\n      jump\t// in\n    tag_46:\n      dup1\n      0x1f\n      add\n      0x20\n      dup1\n      swap2\n      div\n      mul\n      0x20\n      add\n      mload(0x40)\n      swap1\n      dup2\n      add\n      0x40\n      mstore\n      dup1\n      swap3\n      swap2\n      swap1\n      dup2\n      dup2\n      mstore\n      0x20\n      add\n      dup3\n      dup1\n      sload\n      tag_47\n      swap1\n      tag_41\n      jump\t// in\n    tag_47:\n      dup1\n      iszero\n      tag_48\n      jumpi\n      dup1\n      0x1f\n      lt\n      tag_49\n      jumpi\n      0x0100\n      dup1\n      dup4\n      sload\n      div\n      mul\n      dup4\n      mstore\n      swap2\n      0x20\n      add\n      swap2\n      jump(tag_48)\n    tag_49:\n      dup3\n      add\n      swap2\n      swap1\n      0x00\n      mstore\n      keccak256(0x00, 0x20)\n      swap1\n    tag_50:\n      dup2\n      sload\n      dup2\n      mstore\n      swap1\n      0x01\n      add\n      swap1\n      0x20\n      add\n      dup1\n      dup4\n      gt\n      tag_50\n      jumpi\n      dup3\n      swap1\n      sub\n      0x1f\n      and\n      dup3\n      add\n      swap2\n    tag_48:\n      pop\n      pop\n      pop\n      pop\n      pop\n      dup2\n      mstore\n      0x20\n      add\n      0x03\n      dup3\n      add\n      dup1\n      sload\n      tag_51\n      swap1\n      tag_41\n      jump\t// in\n    tag_51:\n      dup1\n      0x1f\n      add\n      0x20\n      dup1\n      swap2\n      div\n      mul\n      0x20\n      add\n      mload(0x40)\n      swap1\n      dup2\n      add\n      0x40\n      mstore\n      dup1\n      swap3\n      swap2\n      swap1\n      dup2\n      dup2\n      mstore\n      0x20\n      add\n      dup3\n      dup1\n      sload\n      tag_52\n      swap1\n      tag_41\n      jump\t// in\n    tag_52:\n      dup1\n      iszero\n      tag_53\n      jumpi\n      dup1\n      0x1f\n      lt\n      tag_54\n      jumpi\n      0x0100\n      dup1\n      dup4\n      sload\n      div\n      mul\n      dup4\n      mstore\n      swap2\n      0x20\n      add\n      swap2\n      jump(tag_53)\n    tag_54:\n      dup3\n      add\n      swap2\n      swap1\n      0x00\n      mstore\n      keccak256(0x00, 0x20)\n      swap1\n    tag_55:\n      dup2\n      sload\n      dup2\n      mstore\n      swap1\n      0x01\n      add\n      swap1\n      0x20\n      add\n      dup1\n      dup4\n      gt\n      tag_55\n      jumpi\n      dup3\n      swap1\n      sub\n      0x1f\n      and\n      dup3\n      add\n      swap2\n    tag_53:\n      pop\n      pop\n      pop\n      pop\n      pop\n      dup2\n      mstore\n      0x20\n      add\n      0x04\n      dup3\n      add\n      0x00\n      swap1\n      sload\n      swap1\n      0x0100\n      exp\n      swap1\n      div\n      0xff\n      and\n      iszero\n      iszero\n      iszero\n      iszero\n      dup2\n      mstore\n      0x20\n      add\n      0x04\n      dup3\n      add\n      0x01\n      swap1\n      sload\n      swap1\n      0x0100\n      exp\n      swap1\n      div\n      0xff\n      and\n      iszero\n      iszero\n      iszero\n      iszero\n      dup2\n      mstore\n      0x20\n      add\n      0x04\n      dup3\n      add\n      0x02\n      swap1\n      sload\n      swap1\n      0x0100\n      exp\n      swap1\n      div\n      0xff\n      and\n      iszero\n      iszero\n      iszero\n      iszero\n      dup2\n      mstore\n      0x20\n      add\n      0x04\n      dup3\n      add\n      0x03\n      swap1\n      sload\n      swap1\n      0x0100\n      exp\n      swap1\n      div\n      0xff\n      and\n      iszero\n      iszero\n      iszero\n      iszero\n      dup2\n      mstore\n      pop\n      pop\n      swap1\n      pop\n        /* \"OrganCreateContract.sol\":873:980  function getOrgan(uint256 _id) external view returns (OrganId memory) {... */\n      swap2\n      swap1\n      pop\n      jump\t// out\n        /* \"OrganCreateContract.sol\":362:403  mapping(uint256 => OrganId) public organs */\n    tag_24:\n      mstore(0x20, 0x01)\n      dup1\n      0x00\n      mstore\n      keccak256(0x00, 0x40)\n      0x00\n      swap2\n      pop\n      swap1\n      pop\n      dup1\n      0x00\n      add\n      dup1\n      sload\n      tag_56\n      swap1\n      tag_41\n      jump\t// in\n    tag_56:\n      dup1\n      0x1f\n      add\n      0x20\n      dup1\n      swap2\n      div\n      mul\n      0x20\n      add\n      mload(0x40)\n      swap1\n      dup2\n      add\n      0x40\n      mstore\n      dup1\n      swap3\n      swap2\n      swap1\n      dup2\n      dup2\n      mstore\n      0x20\n      add\n      dup3\n      dup1\n      sload\n      tag_57\n      swap1\n      tag_41\n      jump\t// in\n    tag_57:\n      dup1\n      iszero\n      tag_58\n      jumpi\n      dup1\n      0x1f\n      lt\n      tag_59\n      jumpi\n      0x0100\n      dup1\n      dup4\n      sload\n      div\n      mul\n      dup4\n      mstore\n      swap2\n      0x20\n      add\n      swap2\n      jump(tag_58)\n    tag_59:\n      dup3\n      add\n      swap2\n      swap1\n      0x00\n      mstore\n      keccak256(0x00, 0x20)\n      swap1\n    tag_60:\n      dup2\n      sload\n      dup2\n      mstore\n      swap1\n      0x01\n      add\n      swap1\n      0x20\n      add\n      dup1\n      dup4\n      gt\n      tag_60\n      jumpi\n      dup3\n      swap1\n      sub\n      0x1f\n      and\n      dup3\n      add\n      swap2\n    tag_58:\n      pop\n      pop\n      pop\n      pop\n      pop\n      swap1\n      dup1\n      0x01\n      add\n      sload\n      swap1\n      dup1\n      0x02\n      add\n      dup1\n      sload\n      tag_61\n      swap1\n      tag_41\n      jump\t// in\n    tag_61:\n      dup1\n      0x1f\n      add\n      0x20\n      dup1\n      swap2\n      div\n      mul\n      0x20\n      add\n      mload(0x40)\n      swap1\n      dup2\n      add\n      0x40\n      mstore\n      dup1\n      swap3\n      swap2\n      swap1\n      dup2\n      dup2\n      mstore\n      0x20\n      add\n      dup3\n      dup1\n      sload\n      tag_62\n      swap1\n      tag_41\n      jump\t// in\n    tag_62:\n      dup1\n      iszero\n      tag_63\n      jumpi\n      dup1\n      0x1f\n      lt\n      tag_64\n      jumpi\n      0x0100\n      dup1\n      dup4\n      sload\n      div\n      mul\n      dup4\n      mstore\n      swap2\n      0x20\n      add\n      swap2\n      jump(tag_63)\n    tag_64:\n      dup3\n      add\n      swap2\n      swap1\n      0x00\n      mstore\n      keccak256(0x00, 0x20)\n      swap1\n    tag_65:\n      dup2\n      sload\n      dup2\n      mstore\n      swap1\n      0x01\n      add\n      swap1\n      0x20\n      add\n      dup1\n      dup4\n      gt\n      tag_65\n      jumpi\n      dup3\n      swap1\n      sub\n      0x1f\n      and\n      dup3\n      add\n      swap2\n    tag_63:\n      pop\n      pop\n      pop\n      pop\n      pop\n      swap1\n      dup1\n      0x03\n      add\n      dup1\n      sload\n      tag_66\n      swap1\n      tag_41\n      jump\t// in\n    tag_66:\n      dup1\n      0x1f\n      add\n      0x20\n      dup1\n      swap2\n      div\n      mul\n      0x20\n      add\n      mload(0x40)\n      swap1\n      dup2\n      add\n      0x40\n      mstore\n      dup1\n      swap3\n      swap2\n      swap1\n      dup2\n      dup2\n      mstore\n      0x20\n      add\n      dup3\n      dup1\n      sload\n      tag_67\n      swap1\n      tag_41\n      jump\t// in\n    tag_67:\n      dup1\n      iszero\n      tag_68\n      jumpi\n      dup1\n      0x1f\n      lt\n      tag_69\n      jumpi\n      0x0100\n      dup1\n      dup4\n      sload\n      div\n      mul\n      dup4\n      mstore\n      swap2\n      0x20\n      add\n      swap2\n      jump(tag_68)\n    tag_69:\n      dup3\n      add\n      swap2\n      swap1\n      0x00\n      mstore\n      keccak256(0x00, 0x20)\n      swap1\n    tag_70:\n      dup2\n      sload\n      dup2\n      mstore\n      swap1\n      0x01\n      add\n      swap1\n      0x20\n      add\n      dup1\n      dup4\n      gt\n      tag_70\n      jumpi\n      dup3\n      swap1\n      sub\n      0x1f\n      and\n      dup3\n      add\n      swap2\n    tag_68:\n      pop\n      pop\n      pop\n      pop\n      pop\n      swap1\n      dup1\n      0x04\n      add\n      0x00\n      swap1\n      sload\n      swap1\n      0x0100\n      exp\n      swap1\n      div\n      0xff\n      and\n      swap1\n      dup1\n      0x04\n      add\n      0x01\n      swap1\n      sload\n      swap1\n      0x0100\n      exp\n      swap1\n      div\n      0xff\n      and\n      swap1\n      dup1\n      0x04\n      add\n      0x02\n      swap1\n      sload\n      swap1\n      0x0100\n      exp\n      swap1\n      div\n      0xff\n      and\n      swap1\n      dup1\n      0x04\n      add\n      0x03\n      swap1\n      sload\n      swap1\n      0x0100\n      exp\n      swap1\n      div\n      0xff\n      and\n      swap1\n      pop\n      dup9\n      jump\t// out\n        /* \"OrganCreateContract.sol\":603:865  function createOrgan(string memory _donerName) external onlyOwner returns (uint256) {... */\n    tag_30:\n        /* \"OrganCreateContract.sol\":678:685  uint256 */\n      0x00\n        /* \"OrganCreateContract.sol\":555:560  owner */\n      dup1\n      0x00\n      swap1\n      sload\n      swap1\n      0x0100\n      exp\n      swap1\n      div\n      0xffffffffffffffffffffffffffffffffffffffff\n      and\n        /* \"OrganCreateContract.sol\":541:560  msg.sender == owner */\n      0xffffffffffffffffffffffffffffffffffffffff\n      and\n        /* \"OrganCreateContract.sol\":541:551  msg.sender */\n      caller\n        /* \"OrganCreateContract.sol\":541:560  msg.sender == owner */\n      0xffffffffffffffffffffffffffffffffffffffff\n      and\n      eq\n        /* \"OrganCreateContract.sol\":533:575  require(msg.sender == owner, \"only Owner\") */\n      tag_72\n      jumpi\n      mload(0x40)\n      0x08c379a000000000000000000000000000000000000000000000000000000000\n      dup2\n      mstore\n      0x04\n      add\n      tag_73\n      swap1\n      tag_74\n      jump\t// in\n    tag_73:\n      mload(0x40)\n      dup1\n      swap2\n      sub\n      swap1\n      revert\n    tag_72:\n        /* \"OrganCreateContract.sol\":698:708  organCount */\n      0x02\n      0x00\n        /* \"OrganCreateContract.sol\":698:710  organCount++ */\n      dup2\n      sload\n      dup1\n      swap3\n      swap2\n      swap1\n      tag_76\n      swap1\n      tag_77\n      jump\t// in\n    tag_76:\n      swap2\n      swap1\n      pop\n      sstore\n      pop\n        /* \"OrganCreateContract.sol\":742:829  OrganId(_donerName, 0, \"To be evaluated\", \"To be assigned\", false, false, false, false) */\n      mload(0x40)\n      dup1\n      0x0100\n      add\n      0x40\n      mstore\n      dup1\n        /* \"OrganCreateContract.sol\":750:760  _donerName */\n      dup4\n        /* \"OrganCreateContract.sol\":742:829  OrganId(_donerName, 0, \"To be evaluated\", \"To be assigned\", false, false, false, false) */\n      dup2\n      mstore\n      0x20\n      add\n        /* \"OrganCreateContract.sol\":762:763  0 */\n      0x00\n        /* \"OrganCreateContract.sol\":742:829  OrganId(_donerName, 0, \"To be evaluated\", \"To be assigned\", false, false, false, false) */\n      dup2\n      mstore\n      0x20\n      add\n      mload(0x40)\n      dup1\n      0x40\n      add\n      0x40\n      mstore\n      dup1\n      0x0f\n      dup2\n      mstore\n      0x20\n      add\n      0x546f206265206576616c75617465640000000000000000000000000000000000\n      dup2\n      mstore\n      pop\n      dup2\n      mstore\n      0x20\n      add\n      mload(0x40)\n      dup1\n      0x40\n      add\n      0x40\n      mstore\n      dup1\n      0x0e\n      dup2\n      mstore\n      0x20\n      add\n      0x546f2062652061737369676e6564000000000000000000000000000000000000\n      dup2\n      mstore\n      pop\n      dup2\n      mstore\n      0x20\n      add\n        /* \"OrganCreateContract.sol\":802:807  false */\n      0x00\n        /* \"OrganCreateContract.sol\":742:829  OrganId(_donerName, 0, \"To be evaluated\", \"To be assigned\", false, false, false, false) */\n      iszero\n      iszero\n      dup2\n      mstore\n      0x20\n      add\n        /* \"OrganCreateContract.sol\":809:814  false */\n      0x00\n        /* \"OrganCreateContract.sol\":742:829  OrganId(_donerName, 0, \"To be evaluated\", \"To be assigned\", false, false, false, false) */\n      iszero\n      iszero\n      dup2\n      mstore\n      0x20\n      add\n        /* \"OrganCreateContract.sol\":816:821  false */\n      0x00\n        /* \"OrganCreateContract.sol\":742:829  OrganId(_donerName, 0, \"To be evaluated\", \"To be assigned\", false, false, false, false) */\n      iszero\n      iszero\n      dup2\n      mstore\n      0x20\n      add\n        /* \"OrganCreateContract.sol\":823:828  false */\n      0x00\n        /* \"OrganCreateContract.sol\":742:829  OrganId(_donerName, 0, \"To be evaluated\", \"To be assigned\", false, false, false, false) */\n      iszero\n      iszero\n      dup2\n      mstore\n      pop\n        /* \"OrganCreateContract.sol\":721:727  organs */\n      0x01\n        /* \"OrganCreateContract.sol\":721:739  organs[organCount] */\n      0x00\n        /* \"OrganCreateContract.sol\":728:738  organCount */\n      sload(0x02)\n        /* \"OrganCreateContract.sol\":721:739  organs[organCount] */\n      dup2\n      mstore\n      0x20\n      add\n      swap1\n      dup2\n      mstore\n      0x20\n      add\n      0x00\n      keccak256\n        /* \"OrganCreateContract.sol\":721:829  organs[organCount] = OrganId(_donerName, 0, \"To be evaluated\", \"To be assigned\", false, false, false, false) */\n      0x00\n      dup3\n      add\n      mload\n      dup2\n      0x00\n      add\n      swap1\n      dup2\n      tag_78\n      swap2\n      swap1\n      tag_34\n      jump\t// in\n    tag_78:\n      pop\n      0x20\n      dup3\n      add\n      mload\n      dup2\n      0x01\n      add\n      sstore\n      0x40\n      dup3\n      add\n      mload\n      dup2\n      0x02\n      add\n      swap1\n      dup2\n      tag_79\n      swap2\n      swap1\n      tag_34\n      jump\t// in\n    tag_79:\n      pop\n      0x60\n      dup3\n      add\n      mload\n      dup2\n      0x03\n      add\n      swap1\n      dup2\n      tag_80\n      swap2\n      swap1\n      tag_34\n      jump\t// in\n    tag_80:\n      pop\n      0x80\n      dup3\n      add\n      mload\n      dup2\n      0x04\n      add\n      exp(0x0100, 0x00)\n      dup2\n      sload\n      dup2\n      0xff\n      mul\n      not\n      and\n      swap1\n      dup4\n      iszero\n      iszero\n      mul\n      or\n      swap1\n      sstore\n      pop\n      0xa0\n      dup3\n      add\n      mload\n      dup2\n      0x04\n      add\n      exp(0x0100, 0x01)\n      dup2\n      sload\n      dup2\n      0xff\n      mul\n      not\n      and\n      swap1\n      dup4\n      iszero\n      iszero\n      mul\n      or\n      swap1\n      sstore\n      pop\n      0xc0\n      dup3\n      add\n      mload\n      dup2\n      0x04\n      add\n      exp(0x0100, 0x02)\n      dup2\n      sload\n      dup2\n      0xff\n      mul\n      not\n      and\n      swap1\n      dup4\n      iszero\n      iszero\n      mul\n      or\n      swap1\n      sstore\n      pop\n      0xe0\n      dup3\n      add\n      mload\n      dup2\n      0x04\n      add\n      exp(0x0100, 0x03)\n      dup2\n      sload\n      dup2\n      0xff\n      mul\n      not\n      and\n      swap1\n      dup4\n      iszero\n      iszero\n      mul\n      or\n      swap1\n      sstore\n      pop\n      swap1\n      pop\n      pop\n        /* \"OrganCreateContract.sol\":847:857  organCount */\n      sload(0x02)\n        /* \"OrganCreateContract.sol\":840:857  return organCount */\n      swap1\n      pop\n        /* \"OrganCreateContract.sol\":603:865  function createOrgan(string memory _donerName) external onlyOwner returns (uint256) {... */\n      swap2\n      swap1\n      pop\n      jump\t// out\n    tag_38:\n      mload(0x40)\n      dup1\n      0x0100\n      add\n      0x40\n      mstore\n      dup1\n      0x60\n      dup2\n      mstore\n      0x20\n      add\n      0x00\n      dup2\n      mstore\n      0x20\n      add\n      0x60\n      dup2\n      mstore\n      0x20\n      add\n      0x60\n      dup2\n      mstore\n      0x20\n      add\n      iszero(iszero(0x00))\n      dup2\n      mstore\n      0x20\n      add\n      iszero(iszero(0x00))\n      dup2\n      mstore\n      0x20\n      add\n      iszero(iszero(0x00))\n      dup2\n      mstore\n      0x20\n      add\n      iszero(iszero(0x00))\n      dup2\n      mstore\n      pop\n      swap1\n      jump\t// out\n        /* \"#utility.yul\":7:84   */\n    tag_81:\n        /* \"#utility.yul\":44:51   */\n      0x00\n        /* \"#utility.yul\":73:78   */\n      dup2\n        /* \"#utility.yul\":62:78   */\n      swap1\n      pop\n        /* \"#utility.yul\":7:84   */\n      swap2\n      swap1\n      pop\n      jump\t// out\n        /* \"#utility.yul\":90:208   */\n    tag_82:\n        /* \"#utility.yul\":177:201   */\n      tag_136\n        /* \"#utility.yul\":195:200   */\n      dup2\n        /* \"#utility.yul\":177:201   */\n      tag_81\n      jump\t// in\n    tag_136:\n        /* \"#utility.yul\":172:175   */\n      dup3\n        /* \"#utility.yul\":165:202   */\n      mstore\n        /* \"#utility.yul\":90:208   */\n      pop\n      pop\n      jump\t// out\n        /* \"#utility.yul\":214:436   */\n    tag_11:\n        /* \"#utility.yul\":307:311   */\n      0x00\n        /* \"#utility.yul\":345:347   */\n      0x20\n        /* \"#utility.yul\":334:343   */\n      dup3\n        /* \"#utility.yul\":330:348   */\n      add\n        /* \"#utility.yul\":322:348   */\n      swap1\n      pop\n        /* \"#utility.yul\":358:429   */\n      tag_138\n        /* \"#utility.yul\":426:427   */\n      0x00\n        /* \"#utility.yul\":415:424   */\n      dup4\n        /* \"#utility.yul\":411:428   */\n      add\n        /* \"#utility.yul\":402:408   */\n      dup5\n        /* \"#utility.yul\":358:429   */\n      tag_82\n      jump\t// in\n    tag_138:\n        /* \"#utility.yul\":214:436   */\n      swap3\n      swap2\n      pop\n      pop\n      jump\t// out\n        /* \"#utility.yul\":442:517   */\n    tag_83:\n        /* \"#utility.yul\":475:481   */\n      0x00\n        /* \"#utility.yul\":508:510   */\n      0x40\n        /* \"#utility.yul\":502:511   */\n      mload\n        /* \"#utility.yul\":492:511   */\n      swap1\n      pop\n        /* \"#utility.yul\":442:517   */\n      swap1\n      jump\t// out\n        /* \"#utility.yul\":523:640   */\n    tag_84:\n        /* \"#utility.yul\":632:633   */\n      0x00\n        /* \"#utility.yul\":629:630   */\n      dup1\n        /* \"#utility.yul\":622:634   */\n      revert\n        /* \"#utility.yul\":646:763   */\n    tag_85:\n        /* \"#utility.yul\":755:756   */\n      0x00\n        /* \"#utility.yul\":752:753   */\n      dup1\n        /* \"#utility.yul\":745:757   */\n      revert\n        /* \"#utility.yul\":769:891   */\n    tag_86:\n        /* \"#utility.yul\":842:866   */\n      tag_143\n        /* \"#utility.yul\":860:865   */\n      dup2\n        /* \"#utility.yul\":842:866   */\n      tag_81\n      jump\t// in\n    tag_143:\n        /* \"#utility.yul\":835:840   */\n      dup2\n        /* \"#utility.yul\":832:867   */\n      eq\n        /* \"#utility.yul\":822:885   */\n      tag_144\n      jumpi\n        /* \"#utility.yul\":881:882   */\n      0x00\n        /* \"#utility.yul\":878:879   */\n      dup1\n        /* \"#utility.yul\":871:883   */\n      revert\n        /* \"#utility.yul\":822:885   */\n    tag_144:\n        /* \"#utility.yul\":769:891   */\n      pop\n      jump\t// out\n        /* \"#utility.yul\":897:1036   */\n    tag_87:\n        /* \"#utility.yul\":943:948   */\n      0x00\n        /* \"#utility.yul\":981:987   */\n      dup2\n        /* \"#utility.yul\":968:988   */\n      calldataload\n        /* \"#utility.yul\":959:988   */\n      swap1\n      pop\n        /* \"#utility.yul\":997:1030   */\n      tag_146\n        /* \"#utility.yul\":1024:1029   */\n      dup2\n        /* \"#utility.yul\":997:1030   */\n      tag_86\n      jump\t// in\n    tag_146:\n        /* \"#utility.yul\":897:1036   */\n      swap3\n      swap2\n      pop\n      pop\n      jump\t// out\n        /* \"#utility.yul\":1042:1159   */\n    tag_88:\n        /* \"#utility.yul\":1151:1152   */\n      0x00\n        /* \"#utility.yul\":1148:1149   */\n      dup1\n        /* \"#utility.yul\":1141:1153   */\n      revert\n        /* \"#utility.yul\":1165:1267   */\n    tag_89:\n        /* \"#utility.yul\":1206:1212   */\n      0x00\n        /* \"#utility.yul\":1257:1259   */\n      0x1f\n        /* \"#utility.yul\":1253:1260   */\n      not\n        /* \"#utility.yul\":1248:1250   */\n      0x1f\n        /* \"#utility.yul\":1241:1246   */\n      dup4\n        /* \"#utility.yul\":1237:1251   */\n      add\n        /* \"#utility.yul\":1233:1261   */\n      and\n        /* \"#utility.yul\":1223:1261   */\n      swap1\n      pop\n        /* \"#utility.yul\":1165:1267   */\n      swap2\n      swap1\n      pop\n      jump\t// out\n        /* \"#utility.yul\":1273:1453   */\n    tag_90:\n        /* \"#utility.yul\":1321:1398   */\n      0x4e487b7100000000000000000000000000000000000000000000000000000000\n        /* \"#utility.yul\":1318:1319   */\n      0x00\n        /* \"#utility.yul\":1311:1399   */\n      mstore\n        /* \"#utility.yul\":1418:1422   */\n      0x41\n        /* \"#utility.yul\":1415:1416   */\n      0x04\n        /* \"#utility.yul\":1408:1423   */\n      mstore\n        /* \"#utility.yul\":1442:1446   */\n      0x24\n        /* \"#utility.yul\":1439:1440   */\n      0x00\n        /* \"#utility.yul\":1432:1447   */\n      revert\n        /* \"#utility.yul\":1459:1740   */\n    tag_91:\n        /* \"#utility.yul\":1542:1569   */\n      tag_151\n        /* \"#utility.yul\":1564:1568   */\n      dup3\n        /* \"#utility.yul\":1542:1569   */\n      tag_89\n      jump\t// in\n    tag_151:\n        /* \"#utility.yul\":1534:1540   */\n      dup2\n        /* \"#utility.yul\":1530:1570   */\n      add\n        /* \"#utility.yul\":1672:1678   */\n      dup2\n        /* \"#utility.yul\":1660:1670   */\n      dup2\n        /* \"#utility.yul\":1657:1679   */\n      lt\n        /* \"#utility.yul\":1636:1654   */\n      0xffffffffffffffff\n        /* \"#utility.yul\":1624:1634   */\n      dup3\n        /* \"#utility.yul\":1621:1655   */\n      gt\n        /* \"#utility.yul\":1618:1680   */\n      or\n        /* \"#utility.yul\":1615:1703   */\n      iszero\n      tag_152\n      jumpi\n        /* \"#utility.yul\":1683:1701   */\n      tag_153\n      tag_90\n      jump\t// in\n    tag_153:\n        /* \"#utility.yul\":1615:1703   */\n    tag_152:\n        /* \"#utility.yul\":1723:1733   */\n      dup1\n        /* \"#utility.yul\":1719:1721   */\n      0x40\n        /* \"#utility.yul\":1712:1734   */\n      mstore\n        /* \"#utility.yul\":1502:1740   */\n      pop\n        /* \"#utility.yul\":1459:1740   */\n      pop\n      pop\n      jump\t// out\n        /* \"#utility.yul\":1746:1875   */\n    tag_92:\n        /* \"#utility.yul\":1780:1786   */\n      0x00\n        /* \"#utility.yul\":1807:1827   */\n      tag_155\n      tag_83\n      jump\t// in\n    tag_155:\n        /* \"#utility.yul\":1797:1827   */\n      swap1\n      pop\n        /* \"#utility.yul\":1836:1869   */\n      tag_156\n        /* \"#utility.yul\":1864:1868   */\n      dup3\n        /* \"#utility.yul\":1856:1862   */\n      dup3\n        /* \"#utility.yul\":1836:1869   */\n      tag_91\n      jump\t// in\n    tag_156:\n        /* \"#utility.yul\":1746:1875   */\n      swap2\n      swap1\n      pop\n      jump\t// out\n        /* \"#utility.yul\":1881:1998   */\n    tag_93:\n        /* \"#utility.yul\":1990:1991   */\n      0x00\n        /* \"#utility.yul\":1987:1988   */\n      dup1\n        /* \"#utility.yul\":1980:1992   */\n      revert\n        /* \"#utility.yul\":2004:2121   */\n    tag_94:\n        /* \"#utility.yul\":2113:2114   */\n      0x00\n        /* \"#utility.yul\":2110:2111   */\n      dup1\n        /* \"#utility.yul\":2103:2115   */\n      revert\n        /* \"#utility.yul\":2127:2244   */\n    tag_95:\n        /* \"#utility.yul\":2236:2237   */\n      0x00\n        /* \"#utility.yul\":2233:2234   */\n      dup1\n        /* \"#utility.yul\":2226:2238   */\n      revert\n        /* \"#utility.yul\":2250:2558   */\n    tag_96:\n        /* \"#utility.yul\":2312:2316   */\n      0x00\n        /* \"#utility.yul\":2402:2420   */\n      0xffffffffffffffff\n        /* \"#utility.yul\":2394:2400   */\n      dup3\n        /* \"#utility.yul\":2391:2421   */\n      gt\n        /* \"#utility.yul\":2388:2444   */\n      iszero\n      tag_161\n      jumpi\n        /* \"#utility.yul\":2424:2442   */\n      tag_162\n      tag_90\n      jump\t// in\n    tag_162:\n        /* \"#utility.yul\":2388:2444   */\n    tag_161:\n        /* \"#utility.yul\":2462:2491   */\n      tag_163\n        /* \"#utility.yul\":2484:2490   */\n      dup3\n        /* \"#utility.yul\":2462:2491   */\n      tag_89\n      jump\t// in\n    tag_163:\n        /* \"#utility.yul\":2454:2491   */\n      swap1\n      pop\n        /* \"#utility.yul\":2546:2550   */\n      0x20\n        /* \"#utility.yul\":2540:2544   */\n      dup2\n        /* \"#utility.yul\":2536:2551   */\n      add\n        /* \"#utility.yul\":2528:2551   */\n      swap1\n      pop\n        /* \"#utility.yul\":2250:2558   */\n      swap2\n      swap1\n      pop\n      jump\t// out\n        /* \"#utility.yul\":2564:2712   */\n    tag_97:\n        /* \"#utility.yul\":2662:2668   */\n      dup3\n        /* \"#utility.yul\":2657:2660   */\n      dup2\n        /* \"#utility.yul\":2652:2655   */\n      dup4\n        /* \"#utility.yul\":2639:2669   */\n      calldatacopy\n        /* \"#utility.yul\":2703:2704   */\n      0x00\n        /* \"#utility.yul\":2694:2700   */\n      dup4\n        /* \"#utility.yul\":2689:2692   */\n      dup4\n        /* \"#utility.yul\":2685:2701   */\n      add\n        /* \"#utility.yul\":2678:2705   */\n      mstore\n        /* \"#utility.yul\":2564:2712   */\n      pop\n      pop\n      pop\n      jump\t// out\n        /* \"#utility.yul\":2718:3143   */\n    tag_98:\n        /* \"#utility.yul\":2796:2801   */\n      0x00\n        /* \"#utility.yul\":2821:2887   */\n      tag_166\n        /* \"#utility.yul\":2837:2886   */\n      tag_167\n        /* \"#utility.yul\":2879:2885   */\n      dup5\n        /* \"#utility.yul\":2837:2886   */\n      tag_96\n      jump\t// in\n    tag_167:\n        /* \"#utility.yul\":2821:2887   */\n      tag_92\n      jump\t// in\n    tag_166:\n        /* \"#utility.yul\":2812:2887   */\n      swap1\n      pop\n        /* \"#utility.yul\":2910:2916   */\n      dup3\n        /* \"#utility.yul\":2903:2908   */\n      dup2\n        /* \"#utility.yul\":2896:2917   */\n      mstore\n        /* \"#utility.yul\":2948:2952   */\n      0x20\n        /* \"#utility.yul\":2941:2946   */\n      dup2\n        /* \"#utility.yul\":2937:2953   */\n      add\n        /* \"#utility.yul\":2986:2989   */\n      dup5\n        /* \"#utility.yul\":2977:2983   */\n      dup5\n        /* \"#utility.yul\":2972:2975   */\n      dup5\n        /* \"#utility.yul\":2968:2984   */\n      add\n        /* \"#utility.yul\":2965:2990   */\n      gt\n        /* \"#utility.yul\":2962:3074   */\n      iszero\n      tag_168\n      jumpi\n        /* \"#utility.yul\":2993:3072   */\n      tag_169\n      tag_95\n      jump\t// in\n    tag_169:\n        /* \"#utility.yul\":2962:3074   */\n    tag_168:\n        /* \"#utility.yul\":3083:3137   */\n      tag_170\n        /* \"#utility.yul\":3130:3136   */\n      dup5\n        /* \"#utility.yul\":3125:3128   */\n      dup3\n        /* \"#utility.yul\":3120:3123   */\n      dup6\n        /* \"#utility.yul\":3083:3137   */\n      tag_97\n      jump\t// in\n    tag_170:\n        /* \"#utility.yul\":2802:3143   */\n      pop\n        /* \"#utility.yul\":2718:3143   */\n      swap4\n      swap3\n      pop\n      pop\n      pop\n      jump\t// out\n        /* \"#utility.yul\":3163:3503   */\n    tag_99:\n        /* \"#utility.yul\":3219:3224   */\n      0x00\n        /* \"#utility.yul\":3268:3271   */\n      dup3\n        /* \"#utility.yul\":3261:3265   */\n      0x1f\n        /* \"#utility.yul\":3253:3259   */\n      dup4\n        /* \"#utility.yul\":3249:3266   */\n      add\n        /* \"#utility.yul\":3245:3272   */\n      slt\n        /* \"#utility.yul\":3235:3357   */\n      tag_172\n      jumpi\n        /* \"#utility.yul\":3276:3355   */\n      tag_173\n      tag_94\n      jump\t// in\n    tag_173:\n        /* \"#utility.yul\":3235:3357   */\n    tag_172:\n        /* \"#utility.yul\":3393:3399   */\n      dup2\n        /* \"#utility.yul\":3380:3400   */\n      calldataload\n        /* \"#utility.yul\":3418:3497   */\n      tag_174\n        /* \"#utility.yul\":3493:3496   */\n      dup5\n        /* \"#utility.yul\":3485:3491   */\n      dup3\n        /* \"#utility.yul\":3478:3482   */\n      0x20\n        /* \"#utility.yul\":3470:3476   */\n      dup7\n        /* \"#utility.yul\":3466:3483   */\n      add\n        /* \"#utility.yul\":3418:3497   */\n      tag_98\n      jump\t// in\n    tag_174:\n        /* \"#utility.yul\":3409:3497   */\n      swap2\n      pop\n        /* \"#utility.yul\":3225:3503   */\n      pop\n        /* \"#utility.yul\":3163:3503   */\n      swap3\n      swap2\n      pop\n      pop\n      jump\t// out\n        /* \"#utility.yul\":3509:3599   */\n    tag_100:\n        /* \"#utility.yul\":3543:3550   */\n      0x00\n        /* \"#utility.yul\":3586:3591   */\n      dup2\n        /* \"#utility.yul\":3579:3592   */\n      iszero\n        /* \"#utility.yul\":3572:3593   */\n      iszero\n        /* \"#utility.yul\":3561:3593   */\n      swap1\n      pop\n        /* \"#utility.yul\":3509:3599   */\n      swap2\n      swap1\n      pop\n      jump\t// out\n        /* \"#utility.yul\":3605:3721   */\n    tag_101:\n        /* \"#utility.yul\":3675:3696   */\n      tag_177\n        /* \"#utility.yul\":3690:3695   */\n      dup2\n        /* \"#utility.yul\":3675:3696   */\n      tag_100\n      jump\t// in\n    tag_177:\n        /* \"#utility.yul\":3668:3673   */\n      dup2\n        /* \"#utility.yul\":3665:3697   */\n      eq\n        /* \"#utility.yul\":3655:3715   */\n      tag_178\n      jumpi\n        /* \"#utility.yul\":3711:3712   */\n      0x00\n        /* \"#utility.yul\":3708:3709   */\n      dup1\n        /* \"#utility.yul\":3701:3713   */\n      revert\n        /* \"#utility.yul\":3655:3715   */\n    tag_178:\n        /* \"#utility.yul\":3605:3721   */\n      pop\n      jump\t// out\n        /* \"#utility.yul\":3727:3860   */\n    tag_102:\n        /* \"#utility.yul\":3770:3775   */\n      0x00\n        /* \"#utility.yul\":3808:3814   */\n      dup2\n        /* \"#utility.yul\":3795:3815   */\n      calldataload\n        /* \"#utility.yul\":3786:3815   */\n      swap1\n      pop\n        /* \"#utility.yul\":3824:3854   */\n      tag_180\n        /* \"#utility.yul\":3848:3853   */\n      dup2\n        /* \"#utility.yul\":3824:3854   */\n      tag_101\n      jump\t// in\n    tag_180:\n        /* \"#utility.yul\":3727:3860   */\n      swap3\n      swap2\n      pop\n      pop\n      jump\t// out\n        /* \"#utility.yul\":3908:5998   */\n    tag_103:\n        /* \"#utility.yul\":3980:3985   */\n      0x00\n        /* \"#utility.yul\":4024:4030   */\n      0x0100\n        /* \"#utility.yul\":4012:4021   */\n      dup3\n        /* \"#utility.yul\":4007:4010   */\n      dup5\n        /* \"#utility.yul\":4003:4022   */\n      sub\n        /* \"#utility.yul\":3999:4031   */\n      slt\n        /* \"#utility.yul\":3996:4115   */\n      iszero\n      tag_182\n      jumpi\n        /* \"#utility.yul\":4034:4113   */\n      tag_183\n      tag_88\n      jump\t// in\n    tag_183:\n        /* \"#utility.yul\":3996:4115   */\n    tag_182:\n        /* \"#utility.yul\":4133:4156   */\n      tag_184\n        /* \"#utility.yul\":4149:4155   */\n      0x0100\n        /* \"#utility.yul\":4133:4156   */\n      tag_92\n      jump\t// in\n    tag_184:\n        /* \"#utility.yul\":4124:4156   */\n      swap1\n      pop\n        /* \"#utility.yul\":4248:4249   */\n      0x00\n        /* \"#utility.yul\":4237:4246   */\n      dup3\n        /* \"#utility.yul\":4233:4250   */\n      add\n        /* \"#utility.yul\":4220:4251   */\n      calldataload\n        /* \"#utility.yul\":4278:4296   */\n      0xffffffffffffffff\n        /* \"#utility.yul\":4270:4276   */\n      dup2\n        /* \"#utility.yul\":4267:4297   */\n      gt\n        /* \"#utility.yul\":4264:4381   */\n      iszero\n      tag_185\n      jumpi\n        /* \"#utility.yul\":4300:4379   */\n      tag_186\n      tag_93\n      jump\t// in\n    tag_186:\n        /* \"#utility.yul\":4264:4381   */\n    tag_185:\n        /* \"#utility.yul\":4420:4479   */\n      tag_187\n        /* \"#utility.yul\":4475:4478   */\n      dup5\n        /* \"#utility.yul\":4466:4472   */\n      dup3\n        /* \"#utility.yul\":4455:4464   */\n      dup6\n        /* \"#utility.yul\":4451:4473   */\n      add\n        /* \"#utility.yul\":4420:4479   */\n      tag_99\n      jump\t// in\n    tag_187:\n        /* \"#utility.yul\":4413:4417   */\n      0x00\n        /* \"#utility.yul\":4406:4411   */\n      dup4\n        /* \"#utility.yul\":4402:4418   */\n      add\n        /* \"#utility.yul\":4395:4480   */\n      mstore\n        /* \"#utility.yul\":4166:4491   */\n      pop\n        /* \"#utility.yul\":4557:4559   */\n      0x20\n        /* \"#utility.yul\":4598:4647   */\n      tag_188\n        /* \"#utility.yul\":4643:4646   */\n      dup5\n        /* \"#utility.yul\":4634:4640   */\n      dup3\n        /* \"#utility.yul\":4623:4632   */\n      dup6\n        /* \"#utility.yul\":4619:4641   */\n      add\n        /* \"#utility.yul\":4598:4647   */\n      tag_87\n      jump\t// in\n    tag_188:\n        /* \"#utility.yul\":4591:4595   */\n      0x20\n        /* \"#utility.yul\":4584:4589   */\n      dup4\n        /* \"#utility.yul\":4580:4596   */\n      add\n        /* \"#utility.yul\":4573:4648   */\n      mstore\n        /* \"#utility.yul\":4501:4659   */\n      pop\n        /* \"#utility.yul\":4751:4753   */\n      0x40\n        /* \"#utility.yul\":4740:4749   */\n      dup3\n        /* \"#utility.yul\":4736:4754   */\n      add\n        /* \"#utility.yul\":4723:4755   */\n      calldataload\n        /* \"#utility.yul\":4782:4800   */\n      0xffffffffffffffff\n        /* \"#utility.yul\":4774:4780   */\n      dup2\n        /* \"#utility.yul\":4771:4801   */\n      gt\n        /* \"#utility.yul\":4768:4885   */\n      iszero\n      tag_189\n      jumpi\n        /* \"#utility.yul\":4804:4883   */\n      tag_190\n      tag_93\n      jump\t// in\n    tag_190:\n        /* \"#utility.yul\":4768:4885   */\n    tag_189:\n        /* \"#utility.yul\":4924:4983   */\n      tag_191\n        /* \"#utility.yul\":4979:4982   */\n      dup5\n        /* \"#utility.yul\":4970:4976   */\n      dup3\n        /* \"#utility.yul\":4959:4968   */\n      dup6\n        /* \"#utility.yul\":4955:4977   */\n      add\n        /* \"#utility.yul\":4924:4983   */\n      tag_99\n      jump\t// in\n    tag_191:\n        /* \"#utility.yul\":4917:4921   */\n      0x40\n        /* \"#utility.yul\":4910:4915   */\n      dup4\n        /* \"#utility.yul\":4906:4922   */\n      add\n        /* \"#utility.yul\":4899:4984   */\n      mstore\n        /* \"#utility.yul\":4669:4995   */\n      pop\n        /* \"#utility.yul\":5087:5089   */\n      0x60\n        /* \"#utility.yul\":5076:5085   */\n      dup3\n        /* \"#utility.yul\":5072:5090   */\n      add\n        /* \"#utility.yul\":5059:5091   */\n      calldataload\n        /* \"#utility.yul\":5118:5136   */\n      0xffffffffffffffff\n        /* \"#utility.yul\":5110:5116   */\n      dup2\n        /* \"#utility.yul\":5107:5137   */\n      gt\n        /* \"#utility.yul\":5104:5221   */\n      iszero\n      tag_192\n      jumpi\n        /* \"#utility.yul\":5140:5219   */\n      tag_193\n      tag_93\n      jump\t// in\n    tag_193:\n        /* \"#utility.yul\":5104:5221   */\n    tag_192:\n        /* \"#utility.yul\":5260:5319   */\n      tag_194\n        /* \"#utility.yul\":5315:5318   */\n      dup5\n        /* \"#utility.yul\":5306:5312   */\n      dup3\n        /* \"#utility.yul\":5295:5304   */\n      dup6\n        /* \"#utility.yul\":5291:5313   */\n      add\n        /* \"#utility.yul\":5260:5319   */\n      tag_99\n      jump\t// in\n    tag_194:\n        /* \"#utility.yul\":5253:5257   */\n      0x60\n        /* \"#utility.yul\":5246:5251   */\n      dup4\n        /* \"#utility.yul\":5242:5258   */\n      add\n        /* \"#utility.yul\":5235:5320   */\n      mstore\n        /* \"#utility.yul\":5005:5331   */\n      pop\n        /* \"#utility.yul\":5397:5400   */\n      0x80\n        /* \"#utility.yul\":5439:5485   */\n      tag_195\n        /* \"#utility.yul\":5481:5484   */\n      dup5\n        /* \"#utility.yul\":5472:5478   */\n      dup3\n        /* \"#utility.yul\":5461:5470   */\n      dup6\n        /* \"#utility.yul\":5457:5479   */\n      add\n        /* \"#utility.yul\":5439:5485   */\n      tag_102\n      jump\t// in\n    tag_195:\n        /* \"#utility.yul\":5432:5436   */\n      0x80\n        /* \"#utility.yul\":5425:5430   */\n      dup4\n        /* \"#utility.yul\":5421:5437   */\n      add\n        /* \"#utility.yul\":5414:5486   */\n      mstore\n        /* \"#utility.yul\":5341:5497   */\n      pop\n        /* \"#utility.yul\":5563:5566   */\n      0xa0\n        /* \"#utility.yul\":5605:5651   */\n      tag_196\n        /* \"#utility.yul\":5647:5650   */\n      dup5\n        /* \"#utility.yul\":5638:5644   */\n      dup3\n        /* \"#utility.yul\":5627:5636   */\n      dup6\n        /* \"#utility.yul\":5623:5645   */\n      add\n        /* \"#utility.yul\":5605:5651   */\n      tag_102\n      jump\t// in\n    tag_196:\n        /* \"#utility.yul\":5598:5602   */\n      0xa0\n        /* \"#utility.yul\":5591:5596   */\n      dup4\n        /* \"#utility.yul\":5587:5603   */\n      add\n        /* \"#utility.yul\":5580:5652   */\n      mstore\n        /* \"#utility.yul\":5507:5663   */\n      pop\n        /* \"#utility.yul\":5726:5729   */\n      0xc0\n        /* \"#utility.yul\":5768:5814   */\n      tag_197\n        /* \"#utility.yul\":5810:5813   */\n      dup5\n        /* \"#utility.yul\":5801:5807   */\n      dup3\n        /* \"#utility.yul\":5790:5799   */\n      dup6\n        /* \"#utility.yul\":5786:5808   */\n      add\n        /* \"#utility.yul\":5768:5814   */\n      tag_102\n      jump\t// in\n    tag_197:\n        /* \"#utility.yul\":5761:5765   */\n      0xc0\n        /* \"#utility.yul\":5754:5759   */\n      dup4\n        /* \"#utility.yul\":5750:5766   */\n      add\n        /* \"#utility.yul\":5743:5815   */\n      mstore\n        /* \"#utility.yul\":5673:5826   */\n      pop\n        /* \"#utility.yul\":5891:5894   */\n      0xe0\n        /* \"#utility.yul\":5933:5979   */\n      tag_198\n        /* \"#utility.yul\":5975:5978   */\n      dup5\n        /* \"#utility.yul\":5966:5972   */\n      dup3\n        /* \"#utility.yul\":5955:5964   */\n      dup6\n        /* \"#utility.yul\":5951:5973   */\n      add\n        /* \"#utility.yul\":5933:5979   */\n      tag_102\n      jump\t// in\n    tag_198:\n        /* \"#utility.yul\":5926:5930   */\n      0xe0\n        /* \"#utility.yul\":5919:5924   */\n      dup4\n        /* \"#utility.yul\":5915:5931   */\n      add\n        /* \"#utility.yul\":5908:5980   */\n      mstore\n        /* \"#utility.yul\":5836:5991   */\n      pop\n        /* \"#utility.yul\":3908:5998   */\n      swap3\n      swap2\n      pop\n      pop\n      jump\t// out\n        /* \"#utility.yul\":6004:6684   */\n    tag_14:\n        /* \"#utility.yul\":6095:6101   */\n      0x00\n        /* \"#utility.yul\":6103:6109   */\n      dup1\n        /* \"#utility.yul\":6152:6154   */\n      0x40\n        /* \"#utility.yul\":6140:6149   */\n      dup4\n        /* \"#utility.yul\":6131:6138   */\n      dup6\n        /* \"#utility.yul\":6127:6150   */\n      sub\n        /* \"#utility.yul\":6123:6155   */\n      slt\n        /* \"#utility.yul\":6120:6239   */\n      iszero\n      tag_200\n      jumpi\n        /* \"#utility.yul\":6158:6237   */\n      tag_201\n      tag_84\n      jump\t// in\n    tag_201:\n        /* \"#utility.yul\":6120:6239   */\n    tag_200:\n        /* \"#utility.yul\":6278:6279   */\n      0x00\n        /* \"#utility.yul\":6303:6356   */\n      tag_202\n        /* \"#utility.yul\":6348:6355   */\n      dup6\n        /* \"#utility.yul\":6339:6345   */\n      dup3\n        /* \"#utility.yul\":6328:6337   */\n      dup7\n        /* \"#utility.yul\":6324:6346   */\n      add\n        /* \"#utility.yul\":6303:6356   */\n      tag_87\n      jump\t// in\n    tag_202:\n        /* \"#utility.yul\":6293:6356   */\n      swap3\n      pop\n        /* \"#utility.yul\":6249:6366   */\n      pop\n        /* \"#utility.yul\":6433:6435   */\n      0x20\n        /* \"#utility.yul\":6422:6431   */\n      dup4\n        /* \"#utility.yul\":6418:6436   */\n      add\n        /* \"#utility.yul\":6405:6437   */\n      calldataload\n        /* \"#utility.yul\":6464:6482   */\n      0xffffffffffffffff\n        /* \"#utility.yul\":6456:6462   */\n      dup2\n        /* \"#utility.yul\":6453:6483   */\n      gt\n        /* \"#utility.yul\":6450:6567   */\n      iszero\n      tag_203\n      jumpi\n        /* \"#utility.yul\":6486:6565   */\n      tag_204\n      tag_85\n      jump\t// in\n    tag_204:\n        /* \"#utility.yul\":6450:6567   */\n    tag_203:\n        /* \"#utility.yul\":6591:6667   */\n      tag_205\n        /* \"#utility.yul\":6659:6666   */\n      dup6\n        /* \"#utility.yul\":6650:6656   */\n      dup3\n        /* \"#utility.yul\":6639:6648   */\n      dup7\n        /* \"#utility.yul\":6635:6657   */\n      add\n        /* \"#utility.yul\":6591:6667   */\n      tag_103\n      jump\t// in\n    tag_205:\n        /* \"#utility.yul\":6581:6667   */\n      swap2\n      pop\n        /* \"#utility.yul\":6376:6677   */\n      pop\n        /* \"#utility.yul\":6004:6684   */\n      swap3\n      pop\n      swap3\n      swap1\n      pop\n      jump\t// out\n        /* \"#utility.yul\":6690:7019   */\n    tag_18:\n        /* \"#utility.yul\":6749:6755   */\n      0x00\n        /* \"#utility.yul\":6798:6800   */\n      0x20\n        /* \"#utility.yul\":6786:6795   */\n      dup3\n        /* \"#utility.yul\":6777:6784   */\n      dup5\n        /* \"#utility.yul\":6773:6796   */\n      sub\n        /* \"#utility.yul\":6769:6801   */\n      slt\n        /* \"#utility.yul\":6766:6885   */\n      iszero\n      tag_207\n      jumpi\n        /* \"#utility.yul\":6804:6883   */\n      tag_208\n      tag_84\n      jump\t// in\n    tag_208:\n        /* \"#utility.yul\":6766:6885   */\n    tag_207:\n        /* \"#utility.yul\":6924:6925   */\n      0x00\n        /* \"#utility.yul\":6949:7002   */\n      tag_209\n        /* \"#utility.yul\":6994:7001   */\n      dup5\n        /* \"#utility.yul\":6985:6991   */\n      dup3\n        /* \"#utility.yul\":6974:6983   */\n      dup6\n        /* \"#utility.yul\":6970:6992   */\n      add\n        /* \"#utility.yul\":6949:7002   */\n      tag_87\n      jump\t// in\n    tag_209:\n        /* \"#utility.yul\":6939:7002   */\n      swap2\n      pop\n        /* \"#utility.yul\":6895:7012   */\n      pop\n        /* \"#utility.yul\":6690:7019   */\n      swap3\n      swap2\n      pop\n      pop\n      jump\t// out\n        /* \"#utility.yul\":7025:7124   */\n    tag_104:\n        /* \"#utility.yul\":7077:7083   */\n      0x00\n        /* \"#utility.yul\":7111:7116   */\n      dup2\n        /* \"#utility.yul\":7105:7117   */\n      mload\n        /* \"#utility.yul\":7095:7117   */\n      swap1\n      pop\n        /* \"#utility.yul\":7025:7124   */\n      swap2\n      swap1\n      pop\n      jump\t// out\n        /* \"#utility.yul\":7130:7289   */\n    tag_105:\n        /* \"#utility.yul\":7204:7215   */\n      0x00\n        /* \"#utility.yul\":7238:7244   */\n      dup3\n        /* \"#utility.yul\":7233:7236   */\n      dup3\n        /* \"#utility.yul\":7226:7245   */\n      mstore\n        /* \"#utility.yul\":7278:7282   */\n      0x20\n        /* \"#utility.yul\":7273:7276   */\n      dup3\n        /* \"#utility.yul\":7269:7283   */\n      add\n        /* \"#utility.yul\":7254:7283   */\n      swap1\n      pop\n        /* \"#utility.yul\":7130:7289   */\n      swap3\n      swap2\n      pop\n      pop\n      jump\t// out\n        /* \"#utility.yul\":7295:7434   */\n    tag_106:\n        /* \"#utility.yul\":7384:7390   */\n      dup3\n        /* \"#utility.yul\":7379:7382   */\n      dup2\n        /* \"#utility.yul\":7374:7377   */\n      dup4\n        /* \"#utility.yul\":7368:7391   */\n      mcopy\n        /* \"#utility.yul\":7425:7426   */\n      0x00\n        /* \"#utility.yul\":7416:7422   */\n      dup4\n        /* \"#utility.yul\":7411:7414   */\n      dup4\n        /* \"#utility.yul\":7407:7423   */\n      add\n        /* \"#utility.yul\":7400:7427   */\n      mstore\n        /* \"#utility.yul\":7295:7434   */\n      pop\n      pop\n      pop\n      jump\t// out\n        /* \"#utility.yul\":7440:7797   */\n    tag_107:\n        /* \"#utility.yul\":7518:7521   */\n      0x00\n        /* \"#utility.yul\":7546:7585   */\n      tag_214\n        /* \"#utility.yul\":7579:7584   */\n      dup3\n        /* \"#utility.yul\":7546:7585   */\n      tag_104\n      jump\t// in\n    tag_214:\n        /* \"#utility.yul\":7601:7662   */\n      tag_215\n        /* \"#utility.yul\":7655:7661   */\n      dup2\n        /* \"#utility.yul\":7650:7653   */\n      dup6\n        /* \"#utility.yul\":7601:7662   */\n      tag_105\n      jump\t// in\n    tag_215:\n        /* \"#utility.yul\":7594:7662   */\n      swap4\n      pop\n        /* \"#utility.yul\":7671:7736   */\n      tag_216\n        /* \"#utility.yul\":7729:7735   */\n      dup2\n        /* \"#utility.yul\":7724:7727   */\n      dup6\n        /* \"#utility.yul\":7717:7721   */\n      0x20\n        /* \"#utility.yul\":7710:7715   */\n      dup7\n        /* \"#utility.yul\":7706:7722   */\n      add\n        /* \"#utility.yul\":7671:7736   */\n      tag_106\n      jump\t// in\n    tag_216:\n        /* \"#utility.yul\":7761:7790   */\n      tag_217\n        /* \"#utility.yul\":7783:7789   */\n      dup2\n        /* \"#utility.yul\":7761:7790   */\n      tag_89\n      jump\t// in\n    tag_217:\n        /* \"#utility.yul\":7756:7759   */\n      dup5\n        /* \"#utility.yul\":7752:7791   */\n      add\n        /* \"#utility.yul\":7745:7791   */\n      swap2\n      pop\n        /* \"#utility.yul\":7522:7797   */\n      pop\n        /* \"#utility.yul\":7440:7797   */\n      swap3\n      swap2\n      pop\n      pop\n      jump\t// out\n        /* \"#utility.yul\":7803:7911   */\n    tag_108:\n        /* \"#utility.yul\":7880:7904   */\n      tag_219\n        /* \"#utility.yul\":7898:7903   */\n      dup2\n        /* \"#utility.yul\":7880:7904   */\n      tag_81\n      jump\t// in\n    tag_219:\n        /* \"#utility.yul\":7875:7878   */\n      dup3\n        /* \"#utility.yul\":7868:7905   */\n      mstore\n        /* \"#utility.yul\":7803:7911   */\n      pop\n      pop\n      jump\t// out\n        /* \"#utility.yul\":7917:8016   */\n    tag_109:\n        /* \"#utility.yul\":7988:8009   */\n      tag_221\n        /* \"#utility.yul\":8003:8008   */\n      dup2\n        /* \"#utility.yul\":7988:8009   */\n      tag_100\n      jump\t// in\n    tag_221:\n        /* \"#utility.yul\":7983:7986   */\n      dup3\n        /* \"#utility.yul\":7976:8010   */\n      mstore\n        /* \"#utility.yul\":7917:8016   */\n      pop\n      pop\n      jump\t// out\n        /* \"#utility.yul\":8102:9914   */\n    tag_110:\n        /* \"#utility.yul\":8217:8220   */\n      0x00\n        /* \"#utility.yul\":8253:8259   */\n      0x0100\n        /* \"#utility.yul\":8248:8251   */\n      dup4\n        /* \"#utility.yul\":8244:8260   */\n      add\n        /* \"#utility.yul\":8347:8351   */\n      0x00\n        /* \"#utility.yul\":8340:8345   */\n      dup4\n        /* \"#utility.yul\":8336:8352   */\n      add\n        /* \"#utility.yul\":8330:8353   */\n      mload\n        /* \"#utility.yul\":8400:8403   */\n      dup5\n        /* \"#utility.yul\":8394:8398   */\n      dup3\n        /* \"#utility.yul\":8390:8404   */\n      sub\n        /* \"#utility.yul\":8383:8387   */\n      0x00\n        /* \"#utility.yul\":8378:8381   */\n      dup7\n        /* \"#utility.yul\":8374:8388   */\n      add\n        /* \"#utility.yul\":8367:8405   */\n      mstore\n        /* \"#utility.yul\":8426:8499   */\n      tag_223\n        /* \"#utility.yul\":8494:8498   */\n      dup3\n        /* \"#utility.yul\":8480:8492   */\n      dup3\n        /* \"#utility.yul\":8426:8499   */\n      tag_107\n      jump\t// in\n    tag_223:\n        /* \"#utility.yul\":8418:8499   */\n      swap2\n      pop\n        /* \"#utility.yul\":8270:8510   */\n      pop\n        /* \"#utility.yul\":8599:8603   */\n      0x20\n        /* \"#utility.yul\":8592:8597   */\n      dup4\n        /* \"#utility.yul\":8588:8604   */\n      add\n        /* \"#utility.yul\":8582:8605   */\n      mload\n        /* \"#utility.yul\":8618:8681   */\n      tag_224\n        /* \"#utility.yul\":8675:8679   */\n      0x20\n        /* \"#utility.yul\":8670:8673   */\n      dup7\n        /* \"#utility.yul\":8666:8680   */\n      add\n        /* \"#utility.yul\":8652:8664   */\n      dup3\n        /* \"#utility.yul\":8618:8681   */\n      tag_108\n      jump\t// in\n    tag_224:\n        /* \"#utility.yul\":8520:8691   */\n      pop\n        /* \"#utility.yul\":8778:8782   */\n      0x40\n        /* \"#utility.yul\":8771:8776   */\n      dup4\n        /* \"#utility.yul\":8767:8783   */\n      add\n        /* \"#utility.yul\":8761:8784   */\n      mload\n        /* \"#utility.yul\":8831:8834   */\n      dup5\n        /* \"#utility.yul\":8825:8829   */\n      dup3\n        /* \"#utility.yul\":8821:8835   */\n      sub\n        /* \"#utility.yul\":8814:8818   */\n      0x40\n        /* \"#utility.yul\":8809:8812   */\n      dup7\n        /* \"#utility.yul\":8805:8819   */\n      add\n        /* \"#utility.yul\":8798:8836   */\n      mstore\n        /* \"#utility.yul\":8857:8930   */\n      tag_225\n        /* \"#utility.yul\":8925:8929   */\n      dup3\n        /* \"#utility.yul\":8911:8923   */\n      dup3\n        /* \"#utility.yul\":8857:8930   */\n      tag_107\n      jump\t// in\n    tag_225:\n        /* \"#utility.yul\":8849:8930   */\n      swap2\n      pop\n        /* \"#utility.yul\":8701:8941   */\n      pop\n        /* \"#utility.yul\":9028:9032   */\n      0x60\n        /* \"#utility.yul\":9021:9026   */\n      dup4\n        /* \"#utility.yul\":9017:9033   */\n      add\n        /* \"#utility.yul\":9011:9034   */\n      mload\n        /* \"#utility.yul\":9081:9084   */\n      dup5\n        /* \"#utility.yul\":9075:9079   */\n      dup3\n        /* \"#utility.yul\":9071:9085   */\n      sub\n        /* \"#utility.yul\":9064:9068   */\n      0x60\n        /* \"#utility.yul\":9059:9062   */\n      dup7\n        /* \"#utility.yul\":9055:9069   */\n      add\n        /* \"#utility.yul\":9048:9086   */\n      mstore\n        /* \"#utility.yul\":9107:9180   */\n      tag_226\n        /* \"#utility.yul\":9175:9179   */\n      dup3\n        /* \"#utility.yul\":9161:9173   */\n      dup3\n        /* \"#utility.yul\":9107:9180   */\n      tag_107\n      jump\t// in\n    tag_226:\n        /* \"#utility.yul\":9099:9180   */\n      swap2\n      pop\n        /* \"#utility.yul\":8951:9191   */\n      pop\n        /* \"#utility.yul\":9280:9284   */\n      0x80\n        /* \"#utility.yul\":9273:9278   */\n      dup4\n        /* \"#utility.yul\":9269:9285   */\n      add\n        /* \"#utility.yul\":9263:9286   */\n      mload\n        /* \"#utility.yul\":9299:9356   */\n      tag_227\n        /* \"#utility.yul\":9350:9354   */\n      0x80\n        /* \"#utility.yul\":9345:9348   */\n      dup7\n        /* \"#utility.yul\":9341:9355   */\n      add\n        /* \"#utility.yul\":9327:9339   */\n      dup3\n        /* \"#utility.yul\":9299:9356   */\n      tag_109\n      jump\t// in\n    tag_227:\n        /* \"#utility.yul\":9201:9366   */\n      pop\n        /* \"#utility.yul\":9455:9459   */\n      0xa0\n        /* \"#utility.yul\":9448:9453   */\n      dup4\n        /* \"#utility.yul\":9444:9460   */\n      add\n        /* \"#utility.yul\":9438:9461   */\n      mload\n        /* \"#utility.yul\":9474:9531   */\n      tag_228\n        /* \"#utility.yul\":9525:9529   */\n      0xa0\n        /* \"#utility.yul\":9520:9523   */\n      dup7\n        /* \"#utility.yul\":9516:9530   */\n      add\n        /* \"#utility.yul\":9502:9514   */\n      dup3\n        /* \"#utility.yul\":9474:9531   */\n      tag_109\n      jump\t// in\n    tag_228:\n        /* \"#utility.yul\":9376:9541   */\n      pop\n        /* \"#utility.yul\":9627:9631   */\n      0xc0\n        /* \"#utility.yul\":9620:9625   */\n      dup4\n        /* \"#utility.yul\":9616:9632   */\n      add\n        /* \"#utility.yul\":9610:9633   */\n      mload\n        /* \"#utility.yul\":9646:9703   */\n      tag_229\n        /* \"#utility.yul\":9697:9701   */\n      0xc0\n        /* \"#utility.yul\":9692:9695   */\n      dup7\n        /* \"#utility.yul\":9688:9702   */\n      add\n        /* \"#utility.yul\":9674:9686   */\n      dup3\n        /* \"#utility.yul\":9646:9703   */\n      tag_109\n      jump\t// in\n    tag_229:\n        /* \"#utility.yul\":9551:9713   */\n      pop\n        /* \"#utility.yul\":9801:9805   */\n      0xe0\n        /* \"#utility.yul\":9794:9799   */\n      dup4\n        /* \"#utility.yul\":9790:9806   */\n      add\n        /* \"#utility.yul\":9784:9807   */\n      mload\n        /* \"#utility.yul\":9820:9877   */\n      tag_230\n        /* \"#utility.yul\":9871:9875   */\n      0xe0\n        /* \"#utility.yul\":9866:9869   */\n      dup7\n        /* \"#utility.yul\":9862:9876   */\n      add\n        /* \"#utility.yul\":9848:9860   */\n      dup3\n        /* \"#utility.yul\":9820:9877   */\n      tag_109\n      jump\t// in\n    tag_230:\n        /* \"#utility.yul\":9723:9887   */\n      pop\n        /* \"#utility.yul\":9904:9908   */\n      dup1\n        /* \"#utility.yul\":9897:9908   */\n      swap2\n      pop\n        /* \"#utility.yul\":8222:9914   */\n      pop\n        /* \"#utility.yul\":8102:9914   */\n      swap3\n      swap2\n      pop\n      pop\n      jump\t// out\n        /* \"#utility.yul\":9920:10285   */\n    tag_21:\n        /* \"#utility.yul\":10059:10063   */\n      0x00\n        /* \"#utility.yul\":10097:10099   */\n      0x20\n        /* \"#utility.yul\":10086:10095   */\n      dup3\n        /* \"#utility.yul\":10082:10100   */\n      add\n        /* \"#utility.yul\":10074:10100   */\n      swap1\n      pop\n        /* \"#utility.yul\":10146:10155   */\n      dup2\n        /* \"#utility.yul\":10140:10144   */\n      dup2\n        /* \"#utility.yul\":10136:10156   */\n      sub\n        /* \"#utility.yul\":10132:10133   */\n      0x00\n        /* \"#utility.yul\":10121:10130   */\n      dup4\n        /* \"#utility.yul\":10117:10134   */\n      add\n        /* \"#utility.yul\":10110:10157   */\n      mstore\n        /* \"#utility.yul\":10174:10278   */\n      tag_232\n        /* \"#utility.yul\":10273:10277   */\n      dup2\n        /* \"#utility.yul\":10264:10270   */\n      dup5\n        /* \"#utility.yul\":10174:10278   */\n      tag_110\n      jump\t// in\n    tag_232:\n        /* \"#utility.yul\":10166:10278   */\n      swap1\n      pop\n        /* \"#utility.yul\":9920:10285   */\n      swap3\n      swap2\n      pop\n      pop\n      jump\t// out\n        /* \"#utility.yul\":10291:10460   */\n    tag_111:\n        /* \"#utility.yul\":10375:10386   */\n      0x00\n        /* \"#utility.yul\":10409:10415   */\n      dup3\n        /* \"#utility.yul\":10404:10407   */\n      dup3\n        /* \"#utility.yul\":10397:10416   */\n      mstore\n        /* \"#utility.yul\":10449:10453   */\n      0x20\n        /* \"#utility.yul\":10444:10447   */\n      dup3\n        /* \"#utility.yul\":10440:10454   */\n      add\n        /* \"#utility.yul\":10425:10454   */\n      swap1\n      pop\n        /* \"#utility.yul\":10291:10460   */\n      swap3\n      swap2\n      pop\n      pop\n      jump\t// out\n        /* \"#utility.yul\":10466:10843   */\n    tag_112:\n        /* \"#utility.yul\":10554:10557   */\n      0x00\n        /* \"#utility.yul\":10582:10621   */\n      tag_235\n        /* \"#utility.yul\":10615:10620   */\n      dup3\n        /* \"#utility.yul\":10582:10621   */\n      tag_104\n      jump\t// in\n    tag_235:\n        /* \"#utility.yul\":10637:10708   */\n      tag_236\n        /* \"#utility.yul\":10701:10707   */\n      dup2\n        /* \"#utility.yul\":10696:10699   */\n      dup6\n        /* \"#utility.yul\":10637:10708   */\n      tag_111\n      jump\t// in\n    tag_236:\n        /* \"#utility.yul\":10630:10708   */\n      swap4\n      pop\n        /* \"#utility.yul\":10717:10782   */\n      tag_237\n        /* \"#utility.yul\":10775:10781   */\n      dup2\n        /* \"#utility.yul\":10770:10773   */\n      dup6\n        /* \"#utility.yul\":10763:10767   */\n      0x20\n        /* \"#utility.yul\":10756:10761   */\n      dup7\n        /* \"#utility.yul\":10752:10768   */\n      add\n        /* \"#utility.yul\":10717:10782   */\n      tag_106\n      jump\t// in\n    tag_237:\n        /* \"#utility.yul\":10807:10836   */\n      tag_238\n        /* \"#utility.yul\":10829:10835   */\n      dup2\n        /* \"#utility.yul\":10807:10836   */\n      tag_89\n      jump\t// in\n    tag_238:\n        /* \"#utility.yul\":10802:10805   */\n      dup5\n        /* \"#utility.yul\":10798:10837   */\n      add\n        /* \"#utility.yul\":10791:10837   */\n      swap2\n      pop\n        /* \"#utility.yul\":10558:10843   */\n      pop\n        /* \"#utility.yul\":10466:10843   */\n      swap3\n      swap2\n      pop\n      pop\n      jump\t// out\n        /* \"#utility.yul\":10849:10958   */\n    tag_113:\n        /* \"#utility.yul\":10930:10951   */\n      tag_240\n        /* \"#utility.yul\":10945:10950   */\n      dup2\n        /* \"#utility.yul\":10930:10951   */\n      tag_100\n      jump\t// in\n    tag_240:\n        /* \"#utility.yul\":10925:10928   */\n      dup3\n        /* \"#utility.yul\":10918:10952   */\n      mstore\n        /* \"#utility.yul\":10849:10958   */\n      pop\n      pop\n      jump\t// out\n        /* \"#utility.yul\":10964:12186   */\n    tag_26:\n        /* \"#utility.yul\":11289:11293   */\n      0x00\n        /* \"#utility.yul\":11327:11330   */\n      0x0100\n        /* \"#utility.yul\":11316:11325   */\n      dup3\n        /* \"#utility.yul\":11312:11331   */\n      add\n        /* \"#utility.yul\":11304:11331   */\n      swap1\n      pop\n        /* \"#utility.yul\":11377:11386   */\n      dup2\n        /* \"#utility.yul\":11371:11375   */\n      dup2\n        /* \"#utility.yul\":11367:11387   */\n      sub\n        /* \"#utility.yul\":11363:11364   */\n      0x00\n        /* \"#utility.yul\":11352:11361   */\n      dup4\n        /* \"#utility.yul\":11348:11365   */\n      add\n        /* \"#utility.yul\":11341:11388   */\n      mstore\n        /* \"#utility.yul\":11405:11483   */\n      tag_242\n        /* \"#utility.yul\":11478:11482   */\n      dup2\n        /* \"#utility.yul\":11469:11475   */\n      dup12\n        /* \"#utility.yul\":11405:11483   */\n      tag_112\n      jump\t// in\n    tag_242:\n        /* \"#utility.yul\":11397:11483   */\n      swap1\n      pop\n        /* \"#utility.yul\":11493:11565   */\n      tag_243\n        /* \"#utility.yul\":11561:11563   */\n      0x20\n        /* \"#utility.yul\":11550:11559   */\n      dup4\n        /* \"#utility.yul\":11546:11564   */\n      add\n        /* \"#utility.yul\":11537:11543   */\n      dup11\n        /* \"#utility.yul\":11493:11565   */\n      tag_82\n      jump\t// in\n    tag_243:\n        /* \"#utility.yul\":11612:11621   */\n      dup2\n        /* \"#utility.yul\":11606:11610   */\n      dup2\n        /* \"#utility.yul\":11602:11622   */\n      sub\n        /* \"#utility.yul\":11597:11599   */\n      0x40\n        /* \"#utility.yul\":11586:11595   */\n      dup4\n        /* \"#utility.yul\":11582:11600   */\n      add\n        /* \"#utility.yul\":11575:11623   */\n      mstore\n        /* \"#utility.yul\":11640:11718   */\n      tag_244\n        /* \"#utility.yul\":11713:11717   */\n      dup2\n        /* \"#utility.yul\":11704:11710   */\n      dup10\n        /* \"#utility.yul\":11640:11718   */\n      tag_112\n      jump\t// in\n    tag_244:\n        /* \"#utility.yul\":11632:11718   */\n      swap1\n      pop\n        /* \"#utility.yul\":11765:11774   */\n      dup2\n        /* \"#utility.yul\":11759:11763   */\n      dup2\n        /* \"#utility.yul\":11755:11775   */\n      sub\n        /* \"#utility.yul\":11750:11752   */\n      0x60\n        /* \"#utility.yul\":11739:11748   */\n      dup4\n        /* \"#utility.yul\":11735:11753   */\n      add\n        /* \"#utility.yul\":11728:11776   */\n      mstore\n        /* \"#utility.yul\":11793:11871   */\n      tag_245\n        /* \"#utility.yul\":11866:11870   */\n      dup2\n        /* \"#utility.yul\":11857:11863   */\n      dup9\n        /* \"#utility.yul\":11793:11871   */\n      tag_112\n      jump\t// in\n    tag_245:\n        /* \"#utility.yul\":11785:11871   */\n      swap1\n      pop\n        /* \"#utility.yul\":11881:11948   */\n      tag_246\n        /* \"#utility.yul\":11943:11946   */\n      0x80\n        /* \"#utility.yul\":11932:11941   */\n      dup4\n        /* \"#utility.yul\":11928:11947   */\n      add\n        /* \"#utility.yul\":11919:11925   */\n      dup8\n        /* \"#utility.yul\":11881:11948   */\n      tag_113\n      jump\t// in\n    tag_246:\n        /* \"#utility.yul\":11958:12025   */\n      tag_247\n        /* \"#utility.yul\":12020:12023   */\n      0xa0\n        /* \"#utility.yul\":12009:12018   */\n      dup4\n        /* \"#utility.yul\":12005:12024   */\n      add\n        /* \"#utility.yul\":11996:12002   */\n      dup7\n        /* \"#utility.yul\":11958:12025   */\n      tag_113\n      jump\t// in\n    tag_247:\n        /* \"#utility.yul\":12035:12102   */\n      tag_248\n        /* \"#utility.yul\":12097:12100   */\n      0xc0\n        /* \"#utility.yul\":12086:12095   */\n      dup4\n        /* \"#utility.yul\":12082:12101   */\n      add\n        /* \"#utility.yul\":12073:12079   */\n      dup6\n        /* \"#utility.yul\":12035:12102   */\n      tag_113\n      jump\t// in\n    tag_248:\n        /* \"#utility.yul\":12112:12179   */\n      tag_249\n        /* \"#utility.yul\":12174:12177   */\n      0xe0\n        /* \"#utility.yul\":12163:12172   */\n      dup4\n        /* \"#utility.yul\":12159:12178   */\n      add\n        /* \"#utility.yul\":12150:12156   */\n      dup5\n        /* \"#utility.yul\":12112:12179   */\n      tag_113\n      jump\t// in\n    tag_249:\n        /* \"#utility.yul\":10964:12186   */\n      swap10\n      swap9\n      pop\n      pop\n      pop\n      pop\n      pop\n      pop\n      pop\n      pop\n      pop\n      jump\t// out\n        /* \"#utility.yul\":12192:12701   */\n    tag_29:\n        /* \"#utility.yul\":12261:12267   */\n      0x00\n        /* \"#utility.yul\":12310:12312   */\n      0x20\n        /* \"#utility.yul\":12298:12307   */\n      dup3\n        /* \"#utility.yul\":12289:12296   */\n      dup5\n        /* \"#utility.yul\":12285:12308   */\n      sub\n        /* \"#utility.yul\":12281:12313   */\n      slt\n        /* \"#utility.yul\":12278:12397   */\n      iszero\n      tag_251\n      jumpi\n        /* \"#utility.yul\":12316:12395   */\n      tag_252\n      tag_84\n      jump\t// in\n    tag_252:\n        /* \"#utility.yul\":12278:12397   */\n    tag_251:\n        /* \"#utility.yul\":12464:12465   */\n      0x00\n        /* \"#utility.yul\":12453:12462   */\n      dup3\n        /* \"#utility.yul\":12449:12466   */\n      add\n        /* \"#utility.yul\":12436:12467   */\n      calldataload\n        /* \"#utility.yul\":12494:12512   */\n      0xffffffffffffffff\n        /* \"#utility.yul\":12486:12492   */\n      dup2\n        /* \"#utility.yul\":12483:12513   */\n      gt\n        /* \"#utility.yul\":12480:12597   */\n      iszero\n      tag_253\n      jumpi\n        /* \"#utility.yul\":12516:12595   */\n      tag_254\n      tag_85\n      jump\t// in\n    tag_254:\n        /* \"#utility.yul\":12480:12597   */\n    tag_253:\n        /* \"#utility.yul\":12621:12684   */\n      tag_255\n        /* \"#utility.yul\":12676:12683   */\n      dup5\n        /* \"#utility.yul\":12667:12673   */\n      dup3\n        /* \"#utility.yul\":12656:12665   */\n      dup6\n        /* \"#utility.yul\":12652:12674   */\n      add\n        /* \"#utility.yul\":12621:12684   */\n      tag_99\n      jump\t// in\n    tag_255:\n        /* \"#utility.yul\":12611:12684   */\n      swap2\n      pop\n        /* \"#utility.yul\":12407:12694   */\n      pop\n        /* \"#utility.yul\":12192:12701   */\n      swap3\n      swap2\n      pop\n      pop\n      jump\t// out\n        /* \"#utility.yul\":12707:12887   */\n    tag_114:\n        /* \"#utility.yul\":12755:12832   */\n      0x4e487b7100000000000000000000000000000000000000000000000000000000\n        /* \"#utility.yul\":12752:12753   */\n      0x00\n        /* \"#utility.yul\":12745:12833   */\n      mstore\n        /* \"#utility.yul\":12852:12856   */\n      0x22\n        /* \"#utility.yul\":12849:12850   */\n      0x04\n        /* \"#utility.yul\":12842:12857   */\n      mstore\n        /* \"#utility.yul\":12876:12880   */\n      0x24\n        /* \"#utility.yul\":12873:12874   */\n      0x00\n        /* \"#utility.yul\":12866:12881   */\n      revert\n        /* \"#utility.yul\":12893:13213   */\n    tag_41:\n        /* \"#utility.yul\":12937:12943   */\n      0x00\n        /* \"#utility.yul\":12974:12975   */\n      0x02\n        /* \"#utility.yul\":12968:12972   */\n      dup3\n        /* \"#utility.yul\":12964:12976   */\n      div\n        /* \"#utility.yul\":12954:12976   */\n      swap1\n      pop\n        /* \"#utility.yul\":13021:13022   */\n      0x01\n        /* \"#utility.yul\":13015:13019   */\n      dup3\n        /* \"#utility.yul\":13011:13023   */\n      and\n        /* \"#utility.yul\":13042:13060   */\n      dup1\n        /* \"#utility.yul\":13032:13113   */\n      tag_258\n      jumpi\n        /* \"#utility.yul\":13098:13102   */\n      0x7f\n        /* \"#utility.yul\":13090:13096   */\n      dup3\n        /* \"#utility.yul\":13086:13103   */\n      and\n        /* \"#utility.yul\":13076:13103   */\n      swap2\n      pop\n        /* \"#utility.yul\":13032:13113   */\n    tag_258:\n        /* \"#utility.yul\":13160:13162   */\n      0x20\n        /* \"#utility.yul\":13152:13158   */\n      dup3\n        /* \"#utility.yul\":13149:13163   */\n      lt\n        /* \"#utility.yul\":13129:13147   */\n      dup2\n        /* \"#utility.yul\":13126:13164   */\n      sub\n        /* \"#utility.yul\":13123:13207   */\n      tag_259\n      jumpi\n        /* \"#utility.yul\":13179:13197   */\n      tag_260\n      tag_114\n      jump\t// in\n    tag_260:\n        /* \"#utility.yul\":13123:13207   */\n    tag_259:\n        /* \"#utility.yul\":12944:13213   */\n      pop\n        /* \"#utility.yul\":12893:13213   */\n      swap2\n      swap1\n      pop\n      jump\t// out\n        /* \"#utility.yul\":13219:13360   */\n    tag_115:\n        /* \"#utility.yul\":13268:13272   */\n      0x00\n        /* \"#utility.yul\":13291:13294   */\n      dup2\n        /* \"#utility.yul\":13283:13294   */\n      swap1\n      pop\n        /* \"#utility.yul\":13314:13317   */\n      dup2\n        /* \"#utility.yul\":13311:13312   */\n      0x00\n        /* \"#utility.yul\":13304:13318   */\n      mstore\n        /* \"#utility.yul\":13348:13352   */\n      0x20\n        /* \"#utility.yul\":13345:13346   */\n      0x00\n        /* \"#utility.yul\":13335:13353   */\n      keccak256\n        /* \"#utility.yul\":13327:13353   */\n      swap1\n      pop\n        /* \"#utility.yul\":13219:13360   */\n      swap2\n      swap1\n      pop\n      jump\t// out\n        /* \"#utility.yul\":13366:13459   */\n    tag_116:\n        /* \"#utility.yul\":13403:13409   */\n      0x00\n        /* \"#utility.yul\":13450:13452   */\n      0x20\n        /* \"#utility.yul\":13445:13447   */\n      0x1f\n        /* \"#utility.yul\":13438:13443   */\n      dup4\n        /* \"#utility.yul\":13434:13448   */\n      add\n        /* \"#utility.yul\":13430:13453   */\n      div\n        /* \"#utility.yul\":13420:13453   */\n      swap1\n      pop\n        /* \"#utility.yul\":13366:13459   */\n      swap2\n      swap1\n      pop\n      jump\t// out\n        /* \"#utility.yul\":13465:13572   */\n    tag_117:\n        /* \"#utility.yul\":13509:13517   */\n      0x00\n        /* \"#utility.yul\":13559:13564   */\n      dup3\n        /* \"#utility.yul\":13553:13557   */\n      dup3\n        /* \"#utility.yul\":13549:13565   */\n      shl\n        /* \"#utility.yul\":13528:13565   */\n      swap1\n      pop\n        /* \"#utility.yul\":13465:13572   */\n      swap3\n      swap2\n      pop\n      pop\n      jump\t// out\n        /* \"#utility.yul\":13578:13971   */\n    tag_118:\n        /* \"#utility.yul\":13647:13653   */\n      0x00\n        /* \"#utility.yul\":13697:13698   */\n      0x08\n        /* \"#utility.yul\":13685:13695   */\n      dup4\n        /* \"#utility.yul\":13681:13699   */\n      mul\n        /* \"#utility.yul\":13720:13817   */\n      tag_265\n        /* \"#utility.yul\":13750:13816   */\n      0xffffffffffffffffffffffffffffffffffffffffffffffffffffffffffffffff\n        /* \"#utility.yul\":13739:13748   */\n      dup3\n        /* \"#utility.yul\":13720:13817   */\n      tag_117\n      jump\t// in\n    tag_265:\n        /* \"#utility.yul\":13838:13877   */\n      tag_266\n        /* \"#utility.yul\":13868:13876   */\n      dup7\n        /* \"#utility.yul\":13857:13866   */\n      dup4\n        /* \"#utility.yul\":13838:13877   */\n      tag_117\n      jump\t// in\n    tag_266:\n        /* \"#utility.yul\":13826:13877   */\n      swap6\n      pop\n        /* \"#utility.yul\":13910:13914   */\n      dup1\n        /* \"#utility.yul\":13906:13915   */\n      not\n        /* \"#utility.yul\":13899:13904   */\n      dup5\n        /* \"#utility.yul\":13895:13916   */\n      and\n        /* \"#utility.yul\":13886:13916   */\n      swap4\n      pop\n        /* \"#utility.yul\":13959:13963   */\n      dup1\n        /* \"#utility.yul\":13949:13957   */\n      dup7\n        /* \"#utility.yul\":13945:13964   */\n      and\n        /* \"#utility.yul\":13938:13943   */\n      dup5\n        /* \"#utility.yul\":13935:13965   */\n      or\n        /* \"#utility.yul\":13925:13965   */\n      swap3\n      pop\n        /* \"#utility.yul\":13654:13971   */\n      pop\n      pop\n        /* \"#utility.yul\":13578:13971   */\n      swap4\n      swap3\n      pop\n      pop\n      pop\n      jump\t// out\n        /* \"#utility.yul\":13977:14037   */\n    tag_119:\n        /* \"#utility.yul\":14005:14008   */\n      0x00\n        /* \"#utility.yul\":14026:14031   */\n      dup2\n        /* \"#utility.yul\":14019:14031   */\n      swap1\n      pop\n        /* \"#utility.yul\":13977:14037   */\n      swap2\n      swap1\n      pop\n      jump\t// out\n        /* \"#utility.yul\":14043:14185   */\n    tag_120:\n        /* \"#utility.yul\":14093:14102   */\n      0x00\n        /* \"#utility.yul\":14126:14179   */\n      tag_269\n        /* \"#utility.yul\":14144:14178   */\n      tag_270\n        /* \"#utility.yul\":14153:14177   */\n      tag_271\n        /* \"#utility.yul\":14171:14176   */\n      dup5\n        /* \"#utility.yul\":14153:14177   */\n      tag_81\n      jump\t// in\n    tag_271:\n        /* \"#utility.yul\":14144:14178   */\n      tag_119\n      jump\t// in\n    tag_270:\n        /* \"#utility.yul\":14126:14179   */\n      tag_81\n      jump\t// in\n    tag_269:\n        /* \"#utility.yul\":14113:14179   */\n      swap1\n      pop\n        /* \"#utility.yul\":14043:14185   */\n      swap2\n      swap1\n      pop\n      jump\t// out\n        /* \"#utility.yul\":14191:14266   */\n    tag_121:\n        /* \"#utility.yul\":14234:14237   */\n      0x00\n        /* \"#utility.yul\":14255:14260   */\n      dup2\n        /* \"#utility.yul\":14248:14260   */\n      swap1\n      pop\n        /* \"#utility.yul\":14191:14266   */\n      swap2\n      swap1\n      pop\n      jump\t// out\n        /* \"#utility.yul\":14272:14541   */\n    tag_122:\n        /* \"#utility.yul\":14382:14421   */\n      tag_274\n        /* \"#utility.yul\":14413:14420   */\n      dup4\n        /* \"#utility.yul\":14382:14421   */\n      tag_120\n      jump\t// in\n    tag_274:\n        /* \"#utility.yul\":14443:14534   */\n      tag_275\n        /* \"#utility.yul\":14492:14533   */\n      tag_276\n        /* \"#utility.yul\":14516:14532   */\n      dup3\n        /* \"#utility.yul\":14492:14533   */\n      tag_121\n      jump\t// in\n    tag_276:\n        /* \"#utility.yul\":14484:14490   */\n      dup5\n        /* \"#utility.yul\":14477:14481   */\n      dup5\n        /* \"#utility.yul\":14471:14482   */\n      sload\n        /* \"#utility.yul\":14443:14534   */\n      tag_118\n      jump\t// in\n    tag_275:\n        /* \"#utility.yul\":14437:14441   */\n      dup3\n        /* \"#utility.yul\":14430:14535   */\n      sstore\n        /* \"#utility.yul\":14348:14541   */\n      pop\n        /* \"#utility.yul\":14272:14541   */\n      pop\n      pop\n      pop\n      jump\t// out\n        /* \"#utility.yul\":14547:14620   */\n    tag_123:\n        /* \"#utility.yul\":14592:14595   */\n      0x00\n        /* \"#utility.yul\":14547:14620   */\n      swap1\n      jump\t// out\n        /* \"#utility.yul\":14626:14815   */\n    tag_124:\n        /* \"#utility.yul\":14703:14735   */\n      tag_279\n      tag_123\n      jump\t// in\n    tag_279:\n        /* \"#utility.yul\":14744:14809   */\n      tag_280\n        /* \"#utility.yul\":14802:14808   */\n      dup2\n        /* \"#utility.yul\":14794:14800   */\n      dup5\n        /* \"#utility.yul\":14788:14792   */\n      dup5\n        /* \"#utility.yul\":14744:14809   */\n      tag_122\n      jump\t// in\n    tag_280:\n        /* \"#utility.yul\":14679:14815   */\n      pop\n        /* \"#utility.yul\":14626:14815   */\n      pop\n      pop\n      jump\t// out\n        /* \"#utility.yul\":14821:15007   */\n    tag_125:\n        /* \"#utility.yul\":14881:15001   */\n    tag_282:\n        /* \"#utility.yul\":14898:14901   */\n      dup2\n        /* \"#utility.yul\":14891:14896   */\n      dup2\n        /* \"#utility.yul\":14888:14902   */\n      lt\n        /* \"#utility.yul\":14881:15001   */\n      iszero\n      tag_284\n      jumpi\n        /* \"#utility.yul\":14952:14991   */\n      tag_285\n        /* \"#utility.yul\":14989:14990   */\n      0x00\n        /* \"#utility.yul\":14982:14987   */\n      dup3\n        /* \"#utility.yul\":14952:14991   */\n      tag_124\n      jump\t// in\n    tag_285:\n        /* \"#utility.yul\":14925:14926   */\n      0x01\n        /* \"#utility.yul\":14918:14923   */\n      dup2\n        /* \"#utility.yul\":14914:14927   */\n      add\n        /* \"#utility.yul\":14905:14927   */\n      swap1\n      pop\n        /* \"#utility.yul\":14881:15001   */\n      jump(tag_282)\n    tag_284:\n        /* \"#utility.yul\":14821:15007   */\n      pop\n      pop\n      jump\t// out\n        /* \"#utility.yul\":15013:15556   */\n    tag_126:\n        /* \"#utility.yul\":15114:15116   */\n      0x1f\n        /* \"#utility.yul\":15109:15112   */\n      dup3\n        /* \"#utility.yul\":15106:15117   */\n      gt\n        /* \"#utility.yul\":15103:15549   */\n      iszero\n      tag_287\n      jumpi\n        /* \"#utility.yul\":15148:15186   */\n      tag_288\n        /* \"#utility.yul\":15180:15185   */\n      dup2\n        /* \"#utility.yul\":15148:15186   */\n      tag_115\n      jump\t// in\n    tag_288:\n        /* \"#utility.yul\":15232:15261   */\n      tag_289\n        /* \"#utility.yul\":15250:15260   */\n      dup5\n        /* \"#utility.yul\":15232:15261   */\n      tag_116\n      jump\t// in\n    tag_289:\n        /* \"#utility.yul\":15222:15230   */\n      dup2\n        /* \"#utility.yul\":15218:15262   */\n      add\n        /* \"#utility.yul\":15415:15417   */\n      0x20\n        /* \"#utility.yul\":15403:15413   */\n      dup6\n        /* \"#utility.yul\":15400:15418   */\n      lt\n        /* \"#utility.yul\":15397:15446   */\n      iszero\n      tag_290\n      jumpi\n        /* \"#utility.yul\":15436:15444   */\n      dup2\n        /* \"#utility.yul\":15421:15444   */\n      swap1\n      pop\n        /* \"#utility.yul\":15397:15446   */\n    tag_290:\n        /* \"#utility.yul\":15459:15539   */\n      tag_291\n        /* \"#utility.yul\":15515:15537   */\n      tag_292\n        /* \"#utility.yul\":15533:15536   */\n      dup6\n        /* \"#utility.yul\":15515:15537   */\n      tag_116\n      jump\t// in\n    tag_292:\n        /* \"#utility.yul\":15505:15513   */\n      dup4\n        /* \"#utility.yul\":15501:15538   */\n      add\n        /* \"#utility.yul\":15488:15499   */\n      dup3\n        /* \"#utility.yul\":15459:15539   */\n      tag_125\n      jump\t// in\n    tag_291:\n        /* \"#utility.yul\":15118:15549   */\n      pop\n      pop\n        /* \"#utility.yul\":15103:15549   */\n    tag_287:\n        /* \"#utility.yul\":15013:15556   */\n      pop\n      pop\n      pop\n      jump\t// out\n        /* \"#utility.yul\":15562:15679   */\n    tag_127:\n        /* \"#utility.yul\":15616:15624   */\n      0x00\n        /* \"#utility.yul\":15666:15671   */\n      dup3\n        /* \"#utility.yul\":15660:15664   */\n      dup3\n        /* \"#utility.yul\":15656:15672   */\n      shr\n        /* \"#utility.yul\":15635:15672   */\n      swap1\n      pop\n        /* \"#utility.yul\":15562:15679   */\n      swap3\n      swap2\n      pop\n      pop\n      jump\t// out\n        /* \"#utility.yul\":15685:15854   */\n    tag_128:\n        /* \"#utility.yul\":15729:15735   */\n      0x00\n        /* \"#utility.yul\":15762:15813   */\n      tag_295\n        /* \"#utility.yul\":15810:15811   */\n      0x00\n        /* \"#utility.yul\":15806:15812   */\n      not\n        /* \"#utility.yul\":15798:15803   */\n      dup5\n        /* \"#utility.yul\":15795:15796   */\n      0x08\n        /* \"#utility.yul\":15791:15804   */\n      mul\n        /* \"#utility.yul\":15762:15813   */\n      tag_127\n      jump\t// in\n    tag_295:\n        /* \"#utility.yul\":15758:15814   */\n      not\n        /* \"#utility.yul\":15843:15847   */\n      dup1\n        /* \"#utility.yul\":15837:15841   */\n      dup4\n        /* \"#utility.yul\":15833:15848   */\n      and\n        /* \"#utility.yul\":15823:15848   */\n      swap2\n      pop\n        /* \"#utility.yul\":15736:15854   */\n      pop\n        /* \"#utility.yul\":15685:15854   */\n      swap3\n      swap2\n      pop\n      pop\n      jump\t// out\n        /* \"#utility.yul\":15859:16154   */\n    tag_129:\n        /* \"#utility.yul\":15935:15939   */\n      0x00\n        /* \"#utility.yul\":16081:16110   */\n      tag_297\n        /* \"#utility.yul\":16106:16109   */\n      dup4\n        /* \"#utility.yul\":16100:16104   */\n      dup4\n        /* \"#utility.yul\":16081:16110   */\n      tag_128\n      jump\t// in\n    tag_297:\n        /* \"#utility.yul\":16073:16110   */\n      swap2\n      pop\n        /* \"#utility.yul\":16143:16146   */\n      dup3\n        /* \"#utility.yul\":16140:16141   */\n      0x02\n        /* \"#utility.yul\":16136:16147   */\n      mul\n        /* \"#utility.yul\":16130:16134   */\n      dup3\n        /* \"#utility.yul\":16127:16148   */\n      or\n        /* \"#utility.yul\":16119:16148   */\n      swap1\n      pop\n        /* \"#utility.yul\":15859:16154   */\n      swap3\n      swap2\n      pop\n      pop\n      jump\t// out\n        /* \"#utility.yul\":16159:17554   */\n    tag_34:\n        /* \"#utility.yul\":16276:16313   */\n      tag_299\n        /* \"#utility.yul\":16309:16312   */\n      dup3\n        /* \"#utility.yul\":16276:16313   */\n      tag_104\n      jump\t// in\n    tag_299:\n        /* \"#utility.yul\":16378:16396   */\n      0xffffffffffffffff\n        /* \"#utility.yul\":16370:16376   */\n      dup2\n        /* \"#utility.yul\":16367:16397   */\n      gt\n        /* \"#utility.yul\":16364:16420   */\n      iszero\n      tag_300\n      jumpi\n        /* \"#utility.yul\":16400:16418   */\n      tag_301\n      tag_90\n      jump\t// in\n    tag_301:\n        /* \"#utility.yul\":16364:16420   */\n    tag_300:\n        /* \"#utility.yul\":16444:16482   */\n      tag_302\n        /* \"#utility.yul\":16476:16480   */\n      dup3\n        /* \"#utility.yul\":16470:16481   */\n      sload\n        /* \"#utility.yul\":16444:16482   */\n      tag_41\n      jump\t// in\n    tag_302:\n        /* \"#utility.yul\":16529:16596   */\n      tag_303\n        /* \"#utility.yul\":16589:16595   */\n      dup3\n        /* \"#utility.yul\":16581:16587   */\n      dup3\n        /* \"#utility.yul\":16575:16579   */\n      dup6\n        /* \"#utility.yul\":16529:16596   */\n      tag_126\n      jump\t// in\n    tag_303:\n        /* \"#utility.yul\":16623:16624   */\n      0x00\n        /* \"#utility.yul\":16647:16651   */\n      0x20\n        /* \"#utility.yul\":16634:16651   */\n      swap1\n      pop\n        /* \"#utility.yul\":16679:16681   */\n      0x1f\n        /* \"#utility.yul\":16671:16677   */\n      dup4\n        /* \"#utility.yul\":16668:16682   */\n      gt\n        /* \"#utility.yul\":16696:16697   */\n      0x01\n        /* \"#utility.yul\":16691:17309   */\n      dup2\n      eq\n      tag_305\n      jumpi\n        /* \"#utility.yul\":17353:17354   */\n      0x00\n        /* \"#utility.yul\":17370:17376   */\n      dup5\n        /* \"#utility.yul\":17367:17444   */\n      iszero\n      tag_306\n      jumpi\n        /* \"#utility.yul\":17419:17428   */\n      dup3\n        /* \"#utility.yul\":17414:17417   */\n      dup8\n        /* \"#utility.yul\":17410:17429   */\n      add\n        /* \"#utility.yul\":17404:17430   */\n      mload\n        /* \"#utility.yul\":17395:17430   */\n      swap1\n      pop\n        /* \"#utility.yul\":17367:17444   */\n    tag_306:\n        /* \"#utility.yul\":17470:17537   */\n      tag_307\n        /* \"#utility.yul\":17530:17536   */\n      dup6\n        /* \"#utility.yul\":17523:17528   */\n      dup3\n        /* \"#utility.yul\":17470:17537   */\n      tag_129\n      jump\t// in\n    tag_307:\n        /* \"#utility.yul\":17464:17468   */\n      dup7\n        /* \"#utility.yul\":17457:17538   */\n      sstore\n        /* \"#utility.yul\":17326:17548   */\n      pop\n        /* \"#utility.yul\":16661:17548   */\n      jump(tag_304)\n        /* \"#utility.yul\":16691:17309   */\n    tag_305:\n        /* \"#utility.yul\":16743:16747   */\n      0x1f\n        /* \"#utility.yul\":16739:16748   */\n      not\n        /* \"#utility.yul\":16731:16737   */\n      dup5\n        /* \"#utility.yul\":16727:16749   */\n      and\n        /* \"#utility.yul\":16777:16814   */\n      tag_308\n        /* \"#utility.yul\":16809:16813   */\n      dup7\n        /* \"#utility.yul\":16777:16814   */\n      tag_115\n      jump\t// in\n    tag_308:\n        /* \"#utility.yul\":16836:16837   */\n      0x00\n        /* \"#utility.yul\":16850:17058   */\n    tag_309:\n        /* \"#utility.yul\":16864:16871   */\n      dup3\n        /* \"#utility.yul\":16861:16862   */\n      dup2\n        /* \"#utility.yul\":16858:16872   */\n      lt\n        /* \"#utility.yul\":16850:17058   */\n      iszero\n      tag_311\n      jumpi\n        /* \"#utility.yul\":16943:16952   */\n      dup5\n        /* \"#utility.yul\":16938:16941   */\n      dup10\n        /* \"#utility.yul\":16934:16953   */\n      add\n        /* \"#utility.yul\":16928:16954   */\n      mload\n        /* \"#utility.yul\":16920:16926   */\n      dup3\n        /* \"#utility.yul\":16913:16955   */\n      sstore\n        /* \"#utility.yul\":16994:16995   */\n      0x01\n        /* \"#utility.yul\":16986:16992   */\n      dup3\n        /* \"#utility.yul\":16982:16996   */\n      add\n        /* \"#utility.yul\":16972:16996   */\n      swap2\n      pop\n        /* \"#utility.yul\":17041:17043   */\n      0x20\n        /* \"#utility.yul\":17030:17039   */\n      dup6\n        /* \"#utility.yul\":17026:17044   */\n      add\n        /* \"#utility.yul\":17013:17044   */\n      swap5\n      pop\n        /* \"#utility.yul\":16887:16891   */\n      0x20\n        /* \"#utility.yul\":16884:16885   */\n      dup2\n        /* \"#utility.yul\":16880:16892   */\n      add\n        /* \"#utility.yul\":16875:16892   */\n      swap1\n      pop\n        /* \"#utility.yul\":16850:17058   */\n      jump(tag_309)\n    tag_311:\n        /* \"#utility.yul\":17086:17092   */\n      dup7\n        /* \"#utility.yul\":17077:17084   */\n      dup4\n        /* \"#utility.yul\":17074:17093   */\n      lt\n        /* \"#utility.yul\":17071:17250   */\n      iszero\n      tag_312\n      jumpi\n        /* \"#utility.yul\":17144:17153   */\n      dup5\n        /* \"#utility.yul\":17139:17142   */\n      dup10\n        /* \"#utility.yul\":17135:17154   */\n      add\n        /* \"#utility.yul\":17129:17155   */\n      mload\n        /* \"#utility.yul\":17187:17235   */\n      tag_313\n        /* \"#utility.yul\":17229:17233   */\n      0x1f\n        /* \"#utility.yul\":17221:17227   */\n      dup10\n        /* \"#utility.yul\":17217:17234   */\n      and\n        /* \"#utility.yul\":17206:17215   */\n      dup3\n        /* \"#utility.yul\":17187:17235   */\n      tag_128\n      jump\t// in\n    tag_313:\n        /* \"#utility.yul\":17179:17185   */\n      dup4\n        /* \"#utility.yul\":17172:17236   */\n      sstore\n        /* \"#utility.yul\":17094:17250   */\n      pop\n        /* \"#utility.yul\":17071:17250   */\n    tag_312:\n        /* \"#utility.yul\":17296:17297   */\n      0x01\n        /* \"#utility.yul\":17292:17293   */\n      0x02\n        /* \"#utility.yul\":17284:17290   */\n      dup9\n        /* \"#utility.yul\":17280:17294   */\n      mul\n        /* \"#utility.yul\":17276:17298   */\n      add\n        /* \"#utility.yul\":17270:17274   */\n      dup9\n        /* \"#utility.yul\":17263:17299   */\n      sstore\n        /* \"#utility.yul\":16698:17309   */\n      pop\n      pop\n      pop\n        /* \"#utility.yul\":16661:17548   */\n    tag_304:\n      pop\n        /* \"#utility.yul\":16251:17554   */\n      pop\n      pop\n      pop\n        /* \"#utility.yul\":16159:17554   */\n      pop\n      pop\n      jump\t// out\n        /* \"#utility.yul\":17560:17720   */\n    tag_130:\n        /* \"#utility.yul\":17700:17712   */\n      0x6f6e6c79204f776e657200000000000000000000000000000000000000000000\n        /* \"#utility.yul\":17696:17697   */\n      0x00\n        /* \"#utility.yul\":17688:17694   */\n      dup3\n        /* \"#utility.yul\":17684:17698   */\n      add\n        /* \"#utility.yul\":17677:17713   */\n      mstore\n        /* \"#utility.yul\":17560:17720   */\n      pop\n      jump\t// out\n        /* \"#utility.yul\":17726:18092   */\n    tag_131:\n        /* \"#utility.yul\":17868:17871   */\n      0x00\n        /* \"#utility.yul\":17889:17956   */\n      tag_316\n        /* \"#utility.yul\":17953:17955   */\n      0x0a\n        /* \"#utility.yul\":17948:17951   */\n      dup4\n        /* \"#utility.yul\":17889:17956   */\n      tag_111\n      jump\t// in\n    tag_316:\n        /* \"#utility.yul\":17882:17956   */\n      swap2\n      pop\n        /* \"#utility.yul\":17965:18058   */\n      tag_317\n        /* \"#utility.yul\":18054:18057   */\n      dup3\n        /* \"#utility.yul\":17965:18058   */\n      tag_130\n      jump\t// in\n    tag_317:\n        /* \"#utility.yul\":18083:18085   */\n      0x20\n        /* \"#utility.yul\":18078:18081   */\n      dup3\n        /* \"#utility.yul\":18074:18086   */\n      add\n        /* \"#utility.yul\":18067:18086   */\n      swap1\n      pop\n        /* \"#utility.yul\":17726:18092   */\n      swap2\n      swap1\n      pop\n      jump\t// out\n        /* \"#utility.yul\":18098:18517   */\n    tag_74:\n        /* \"#utility.yul\":18264:18268   */\n      0x00\n        /* \"#utility.yul\":18302:18304   */\n      0x20\n        /* \"#utility.yul\":18291:18300   */\n      dup3\n        /* \"#utility.yul\":18287:18305   */\n      add\n        /* \"#utility.yul\":18279:18305   */\n      swap1\n      pop\n        /* \"#utility.yul\":18351:18360   */\n      dup2\n        /* \"#utility.yul\":18345:18349   */\n      dup2\n        /* \"#utility.yul\":18341:18361   */\n      sub\n        /* \"#utility.yul\":18337:18338   */\n      0x00\n        /* \"#utility.yul\":18326:18335   */\n      dup4\n        /* \"#utility.yul\":18322:18339   */\n      add\n        /* \"#utility.yul\":18315:18362   */\n      mstore\n        /* \"#utility.yul\":18379:18510   */\n      tag_319\n        /* \"#utility.yul\":18505:18509   */\n      dup2\n        /* \"#utility.yul\":18379:18510   */\n      tag_131\n      jump\t// in\n    tag_319:\n        /* \"#utility.yul\":18371:18510   */\n      swap1\n      pop\n        /* \"#utility.yul\":18098:18517   */\n      swap2\n      swap1\n      pop\n      jump\t// out\n        /* \"#utility.yul\":18523:18703   */\n    tag_132:\n        /* \"#utility.yul\":18571:18648   */\n      0x4e487b7100000000000000000000000000000000000000000000000000000000\n        /* \"#utility.yul\":18568:18569   */\n      0x00\n        /* \"#utility.yul\":18561:18649   */\n      mstore\n        /* \"#utility.yul\":18668:18672   */\n      0x11\n        /* \"#utility.yul\":18665:18666   */\n      0x04\n        /* \"#utility.yul\":18658:18673   */\n      mstore\n        /* \"#utility.yul\":18692:18696   */\n      0x24\n        /* \"#utility.yul\":18689:18690   */\n      0x00\n        /* \"#utility.yul\":18682:18697   */\n      revert\n        /* \"#utility.yul\":18709:18942   */\n    tag_77:\n        /* \"#utility.yul\":18748:18751   */\n      0x00\n        /* \"#utility.yul\":18771:18795   */\n      tag_322\n        /* \"#utility.yul\":18789:18794   */\n      dup3\n        /* \"#utility.yul\":18771:18795   */\n      tag_81\n      jump\t// in\n    tag_322:\n        /* \"#utility.yul\":18762:18795   */\n      swap2\n      pop\n        /* \"#utility.yul\":18817:18883   */\n      0xffffffffffffffffffffffffffffffffffffffffffffffffffffffffffffffff\n        /* \"#utility.yul\":18810:18815   */\n      dup3\n        /* \"#utility.yul\":18807:18884   */\n      sub\n        /* \"#utility.yul\":18804:18907   */\n      tag_323\n      jumpi\n        /* \"#utility.yul\":18887:18905   */\n      tag_324\n      tag_132\n      jump\t// in\n    tag_324:\n        /* \"#utility.yul\":18804:18907   */\n    tag_323:\n        /* \"#utility.yul\":18934:18935   */\n      0x01\n        /* \"#utility.yul\":18927:18932   */\n      dup3\n        /* \"#utility.yul\":18923:18936   */\n      add\n        /* \"#utility.yul\":18916:18936   */\n      swap1\n      pop\n        /* \"#utility.yul\":18709:18942   */\n      swap2\n      swap1\n      pop\n      jump\t// out\n\n    auxdata: 0xa26469706673582212201f6a9ce15a66025d7d3c4d19c90f7f2bb798b640e4e242e97265a606f22dce4e64736f6c634300081a0033\n}\n",
				"bytecode": {
					"linkReferences": {},
					"object": "6080604052348015600e575f80fd5b50335f806101000a81548173ffffffffffffffffffffffffffffffffffffffff021916908373ffffffffffffffffffffffffffffffffffffffff1602179055506112d68061005b5f395ff3fe608060405234801561000f575f80fd5b5060043610610055575f3560e01c8063098809d7146100595780630d47dd261461007757806310742b51146100935780634fbd241d146100c3578063e1c5d838146100fa575b5f80fd5b61006161012a565b60405161006e9190610906565b60405180910390f35b610091600480360381019061008c9190610bee565b610130565b005b6100ad60048036038101906100a89190610c48565b610212565b6040516100ba9190610dac565b60405180910390f35b6100dd60048036038101906100d89190610c48565b610462565b6040516100f1989796959493929190610e23565b60405180910390f35b610114600480360381019061010f9190610eb4565b61066b565b6040516101219190610906565b60405180910390f35b60025481565b8060015f8481526020019081526020015f205f820151815f01908161015591906110f5565b5060208201518160010155604082015181600201908161017591906110f5565b50606082015181600301908161018b91906110f5565b506080820151816004015f6101000a81548160ff02191690831515021790555060a08201518160040160016101000a81548160ff02191690831515021790555060c08201518160040160026101000a81548160ff02191690831515021790555060e08201518160040160036101000a81548160ff0219169083151502179055509050505050565b61021a6108a6565b60015f8381526020019081526020015f20604051806101000160405290815f8201805461024690610f28565b80601f016020809104026020016040519081016040528092919081815260200182805461027290610f28565b80156102bd5780601f10610294576101008083540402835291602001916102bd565b820191905f5260205f20905b8154815290600101906020018083116102a057829003601f168201915b50505050508152602001600182015481526020016002820180546102e090610f28565b80601f016020809104026020016040519081016040528092919081815260200182805461030c90610f28565b80156103575780601f1061032e57610100808354040283529160200191610357565b820191905f5260205f20905b81548152906001019060200180831161033a57829003601f168201915b5050505050815260200160038201805461037090610f28565b80601f016020809104026020016040519081016040528092919081815260200182805461039c90610f28565b80156103e75780601f106103be576101008083540402835291602001916103e7565b820191905f5260205f20905b8154815290600101906020018083116103ca57829003601f168201915b50505050508152602001600482015f9054906101000a900460ff161515151581526020016004820160019054906101000a900460ff161515151581526020016004820160029054906101000a900460ff161515151581526020016004820160039054906101000a900460ff1615151515815250509050919050565b6001602052805f5260405f205f91509050805f01805461048190610f28565b80601f01602080910402602001604051908101604052809291908181526020018280546104ad90610f28565b80156104f85780601f106104cf576101008083540402835291602001916104f8565b820191905f5260205f20905b8154815290600101906020018083116104db57829003601f168201915b50505050509080600101549080600201805461051390610f28565b80601f016020809104026020016040519081016040528092919081815260200182805461053f90610f28565b801561058a5780601f106105615761010080835404028352916020019161058a565b820191905f5260205f20905b81548152906001019060200180831161056d57829003601f168201915b50505050509080600301805461059f90610f28565b80601f01602080910402602001604051908101604052809291908181526020018280546105cb90610f28565b80156106165780601f106105ed57610100808354040283529160200191610616565b820191905f5260205f20905b8154815290600101906020018083116105f957829003601f168201915b505050505090806004015f9054906101000a900460ff16908060040160019054906101000a900460ff16908060040160029054906101000a900460ff16908060040160039054906101000a900460ff16905088565b5f805f9054906101000a900473ffffffffffffffffffffffffffffffffffffffff1673ffffffffffffffffffffffffffffffffffffffff163373ffffffffffffffffffffffffffffffffffffffff16146106fa576040517f08c379a00000000000000000000000000000000000000000000000000000000081526004016106f19061120e565b60405180910390fd5b60025f81548092919061070c90611259565b91905055506040518061010001604052808381526020015f81526020016040518060400160405280600f81526020017f546f206265206576616c7561746564000000000000000000000000000000000081525081526020016040518060400160405280600e81526020017f546f2062652061737369676e656400000000000000000000000000000000000081525081526020015f151581526020015f151581526020015f151581526020015f151581525060015f60025481526020019081526020015f205f820151815f0190816107e391906110f5565b5060208201518160010155604082015181600201908161080391906110f5565b50606082015181600301908161081991906110f5565b506080820151816004015f6101000a81548160ff02191690831515021790555060a08201518160040160016101000a81548160ff02191690831515021790555060c08201518160040160026101000a81548160ff02191690831515021790555060e08201518160040160036101000a81548160ff0219169083151502179055509050506002549050919050565b604051806101000160405280606081526020015f815260200160608152602001606081526020015f151581526020015f151581526020015f151581526020015f151581525090565b5f819050919050565b610900816108ee565b82525050565b5f6020820190506109195f8301846108f7565b92915050565b5f604051905090565b5f80fd5b5f80fd5b610939816108ee565b8114610943575f80fd5b50565b5f8135905061095481610930565b92915050565b5f80fd5b5f601f19601f8301169050919050565b7f4e487b71000000000000000000000000000000000000000000000000000000005f52604160045260245ffd5b6109a48261095e565b810181811067ffffffffffffffff821117156109c3576109c261096e565b5b80604052505050565b5f6109d561091f565b90506109e1828261099b565b919050565b5f80fd5b5f80fd5b5f80fd5b5f67ffffffffffffffff821115610a0c57610a0b61096e565b5b610a158261095e565b9050602081019050919050565b828183375f83830152505050565b5f610a42610a3d846109f2565b6109cc565b905082815260208101848484011115610a5e57610a5d6109ee565b5b610a69848285610a22565b509392505050565b5f82601f830112610a8557610a846109ea565b5b8135610a95848260208601610a30565b91505092915050565b5f8115159050919050565b610ab281610a9e565b8114610abc575f80fd5b50565b5f81359050610acd81610aa9565b92915050565b5f6101008284031215610ae957610ae861095a565b5b610af46101006109cc565b90505f82013567ffffffffffffffff811115610b1357610b126109e6565b5b610b1f84828501610a71565b5f830152506020610b3284828501610946565b602083015250604082013567ffffffffffffffff811115610b5657610b556109e6565b5b610b6284828501610a71565b604083015250606082013567ffffffffffffffff811115610b8657610b856109e6565b5b610b9284828501610a71565b6060830152506080610ba684828501610abf565b60808301525060a0610bba84828501610abf565b60a08301525060c0610bce84828501610abf565b60c08301525060e0610be284828501610abf565b60e08301525092915050565b5f8060408385031215610c0457610c03610928565b5b5f610c1185828601610946565b925050602083013567ffffffffffffffff811115610c3257610c3161092c565b5b610c3e85828601610ad3565b9150509250929050565b5f60208284031215610c5d57610c5c610928565b5b5f610c6a84828501610946565b91505092915050565b5f81519050919050565b5f82825260208201905092915050565b8281835e5f83830152505050565b5f610ca582610c73565b610caf8185610c7d565b9350610cbf818560208601610c8d565b610cc88161095e565b840191505092915050565b610cdc816108ee565b82525050565b610ceb81610a9e565b82525050565b5f61010083015f8301518482035f860152610d0c8282610c9b565b9150506020830151610d216020860182610cd3565b5060408301518482036040860152610d398282610c9b565b91505060608301518482036060860152610d538282610c9b565b9150506080830151610d686080860182610ce2565b5060a0830151610d7b60a0860182610ce2565b5060c0830151610d8e60c0860182610ce2565b5060e0830151610da160e0860182610ce2565b508091505092915050565b5f6020820190508181035f830152610dc48184610cf1565b905092915050565b5f82825260208201905092915050565b5f610de682610c73565b610df08185610dcc565b9350610e00818560208601610c8d565b610e098161095e565b840191505092915050565b610e1d81610a9e565b82525050565b5f610100820190508181035f830152610e3c818b610ddc565b9050610e4b602083018a6108f7565b8181036040830152610e5d8189610ddc565b90508181036060830152610e718188610ddc565b9050610e806080830187610e14565b610e8d60a0830186610e14565b610e9a60c0830185610e14565b610ea760e0830184610e14565b9998505050505050505050565b5f60208284031215610ec957610ec8610928565b5b5f82013567ffffffffffffffff811115610ee657610ee561092c565b5b610ef284828501610a71565b91505092915050565b7f4e487b71000000000000000000000000000000000000000000000000000000005f52602260045260245ffd5b5f6002820490506001821680610f3f57607f821691505b602082108103610f5257610f51610efb565b5b50919050565b5f819050815f5260205f209050919050565b5f6020601f8301049050919050565b5f82821b905092915050565b5f60088302610fb47fffffffffffffffffffffffffffffffffffffffffffffffffffffffffffffffff82610f79565b610fbe8683610f79565b95508019841693508086168417925050509392505050565b5f819050919050565b5f610ff9610ff4610fef846108ee565b610fd6565b6108ee565b9050919050565b5f819050919050565b61101283610fdf565b61102661101e82611000565b848454610f85565b825550505050565b5f90565b61103a61102e565b611045818484611009565b505050565b5b818110156110685761105d5f82611032565b60018101905061104b565b5050565b601f8211156110ad5761107e81610f58565b61108784610f6a565b81016020851015611096578190505b6110aa6110a285610f6a565b83018261104a565b50505b505050565b5f82821c905092915050565b5f6110cd5f19846008026110b2565b1980831691505092915050565b5f6110e583836110be565b9150826002028217905092915050565b6110fe82610c73565b67ffffffffffffffff8111156111175761111661096e565b5b6111218254610f28565b61112c82828561106c565b5f60209050601f83116001811461115d575f841561114b578287015190505b61115585826110da565b8655506111bc565b601f19841661116b86610f58565b5f5b828110156111925784890151825560018201915060208501945060208101905061116d565b868310156111af57848901516111ab601f8916826110be565b8355505b6001600288020188555050505b505050505050565b7f6f6e6c79204f776e6572000000000000000000000000000000000000000000005f82015250565b5f6111f8600a83610dcc565b9150611203826111c4565b602082019050919050565b5f6020820190508181035f830152611225816111ec565b9050919050565b7f4e487b71000000000000000000000000000000000000000000000000000000005f52601160045260245ffd5b5f611263826108ee565b91507fffffffffffffffffffffffffffffffffffffffffffffffffffffffffffffffff82036112955761129461122c565b5b60018201905091905056fea26469706673582212201f6a9ce15a66025d7d3c4d19c90f7f2bb798b640e4e242e97265a606f22dce4e64736f6c634300081a0033",
					"opcodes": "PUSH1 0x80 PUSH1 0x40 MSTORE CALLVALUE DUP1 ISZERO PUSH1 0xE JUMPI PUSH0 DUP1 REVERT JUMPDEST POP CALLER PUSH0 DUP1 PUSH2 0x100 EXP DUP2 SLOAD DUP2 PUSH20 0xFFFFFFFFFFFFFFFFFFFFFFFFFFFFFFFFFFFFFFFF MUL NOT AND SWAP1 DUP4 PUSH20 0xFFFFFFFFFFFFFFFFFFFFFFFFFFFFFFFFFFFFFFFF AND MUL OR SWAP1 SSTORE POP PUSH2 0x12D6 DUP1 PUSH2 0x5B PUSH0 CODECOPY PUSH0 RETURN INVALID PUSH1 0x80 PUSH1 0x40 MSTORE CALLVALUE DUP1 ISZERO PUSH2 0xF JUMPI PUSH0 DUP1 REVERT JUMPDEST POP PUSH1 0x4 CALLDATASIZE LT PUSH2 0x55 JUMPI PUSH0 CALLDATALOAD PUSH1 0xE0 SHR DUP1 PUSH4 0x98809D7 EQ PUSH2 0x59 JUMPI DUP1 PUSH4 0xD47DD26 EQ PUSH2 0x77 JUMPI DUP1 PUSH4 0x10742B51 EQ PUSH2 0x93 JUMPI DUP1 PUSH4 0x4FBD241D EQ PUSH2 0xC3 JUMPI DUP1 PUSH4 0xE1C5D838 EQ PUSH2 0xFA JUMPI JUMPDEST PUSH0 DUP1 REVERT JUMPDEST PUSH2 0x61 PUSH2 0x12A JUMP JUMPDEST PUSH1 0x40 MLOAD PUSH2 0x6E SWAP2 SWAP1 PUSH2 0x906 JUMP JUMPDEST PUSH1 0x40 MLOAD DUP1 SWAP2 SUB SWAP1 RETURN JUMPDEST PUSH2 0x91 PUSH1 0x4 DUP1 CALLDATASIZE SUB DUP2 ADD SWAP1 PUSH2 0x8C SWAP2 SWAP1 PUSH2 0xBEE JUMP JUMPDEST PUSH2 0x130 JUMP JUMPDEST STOP JUMPDEST PUSH2 0xAD PUSH1 0x4 DUP1 CALLDATASIZE SUB DUP2 ADD SWAP1 PUSH2 0xA8 SWAP2 SWAP1 PUSH2 0xC48 JUMP JUMPDEST PUSH2 0x212 JUMP JUMPDEST PUSH1 0x40 MLOAD PUSH2 0xBA SWAP2 SWAP1 PUSH2 0xDAC JUMP JUMPDEST PUSH1 0x40 MLOAD DUP1 SWAP2 SUB SWAP1 RETURN JUMPDEST PUSH2 0xDD PUSH1 0x4 DUP1 CALLDATASIZE SUB DUP2 ADD SWAP1 PUSH2 0xD8 SWAP2 SWAP1 PUSH2 0xC48 JUMP JUMPDEST PUSH2 0x462 JUMP JUMPDEST PUSH1 0x40 MLOAD PUSH2 0xF1 SWAP9 SWAP8 SWAP7 SWAP6 SWAP5 SWAP4 SWAP3 SWAP2 SWAP1 PUSH2 0xE23 JUMP JUMPDEST PUSH1 0x40 MLOAD DUP1 SWAP2 SUB SWAP1 RETURN JUMPDEST PUSH2 0x114 PUSH1 0x4 DUP1 CALLDATASIZE SUB DUP2 ADD SWAP1 PUSH2 0x10F SWAP2 SWAP1 PUSH2 0xEB4 JUMP JUMPDEST PUSH2 0x66B JUMP JUMPDEST PUSH1 0x40 MLOAD PUSH2 0x121 SWAP2 SWAP1 PUSH2 0x906 JUMP JUMPDEST PUSH1 0x40 MLOAD DUP1 SWAP2 SUB SWAP1 RETURN JUMPDEST PUSH1 0x2 SLOAD DUP2 JUMP JUMPDEST DUP1 PUSH1 0x1 PUSH0 DUP5 DUP2 MSTORE PUSH1 0x20 ADD SWAP1 DUP2 MSTORE PUSH1 0x20 ADD PUSH0 KECCAK256 PUSH0 DUP3 ADD MLOAD DUP2 PUSH0 ADD SWAP1 DUP2 PUSH2 0x155 SWAP2 SWAP1 PUSH2 0x10F5 JUMP JUMPDEST POP PUSH1 0x20 DUP3 ADD MLOAD DUP2 PUSH1 0x1 ADD SSTORE PUSH1 0x40 DUP3 ADD MLOAD DUP2 PUSH1 0x2 ADD SWAP1 DUP2 PUSH2 0x175 SWAP2 SWAP1 PUSH2 0x10F5 JUMP JUMPDEST POP PUSH1 0x60 DUP3 ADD MLOAD DUP2 PUSH1 0x3 ADD SWAP1 DUP2 PUSH2 0x18B SWAP2 SWAP1 PUSH2 0x10F5 JUMP JUMPDEST POP PUSH1 0x80 DUP3 ADD MLOAD DUP2 PUSH1 0x4 ADD PUSH0 PUSH2 0x100 EXP DUP2 SLOAD DUP2 PUSH1 0xFF MUL NOT AND SWAP1 DUP4 ISZERO ISZERO MUL OR SWAP1 SSTORE POP PUSH1 0xA0 DUP3 ADD MLOAD DUP2 PUSH1 0x4 ADD PUSH1 0x1 PUSH2 0x100 EXP DUP2 SLOAD DUP2 PUSH1 0xFF MUL NOT AND SWAP1 DUP4 ISZERO ISZERO MUL OR SWAP1 SSTORE POP PUSH1 0xC0 DUP3 ADD MLOAD DUP2 PUSH1 0x4 ADD PUSH1 0x2 PUSH2 0x100 EXP DUP2 SLOAD DUP2 PUSH1 0xFF MUL NOT AND SWAP1 DUP4 ISZERO ISZERO MUL OR SWAP1 SSTORE POP PUSH1 0xE0 DUP3 ADD MLOAD DUP2 PUSH1 0x4 ADD PUSH1 0x3 PUSH2 0x100 EXP DUP2 SLOAD DUP2 PUSH1 0xFF MUL NOT AND SWAP1 DUP4 ISZERO ISZERO MUL OR SWAP1 SSTORE POP SWAP1 POP POP POP POP JUMP JUMPDEST PUSH2 0x21A PUSH2 0x8A6 JUMP JUMPDEST PUSH1 0x1 PUSH0 DUP4 DUP2 MSTORE PUSH1 0x20 ADD SWAP1 DUP2 MSTORE PUSH1 0x20 ADD PUSH0 KECCAK256 PUSH1 0x40 MLOAD DUP1 PUSH2 0x100 ADD PUSH1 0x40 MSTORE SWAP1 DUP2 PUSH0 DUP3 ADD DUP1 SLOAD PUSH2 0x246 SWAP1 PUSH2 0xF28 JUMP JUMPDEST DUP1 PUSH1 0x1F ADD PUSH1 0x20 DUP1 SWAP2 DIV MUL PUSH1 0x20 ADD PUSH1 0x40 MLOAD SWAP1 DUP2 ADD PUSH1 0x40 MSTORE DUP1 SWAP3 SWAP2 SWAP1 DUP2 DUP2 MSTORE PUSH1 0x20 ADD DUP3 DUP1 SLOAD PUSH2 0x272 SWAP1 PUSH2 0xF28 JUMP JUMPDEST DUP1 ISZERO PUSH2 0x2BD JUMPI DUP1 PUSH1 0x1F LT PUSH2 0x294 JUMPI PUSH2 0x100 DUP1 DUP4 SLOAD DIV MUL DUP4 MSTORE SWAP2 PUSH1 0x20 ADD SWAP2 PUSH2 0x2BD JUMP JUMPDEST DUP3 ADD SWAP2 SWAP1 PUSH0 MSTORE PUSH1 0x20 PUSH0 KECCAK256 SWAP1 JUMPDEST DUP2 SLOAD DUP2 MSTORE SWAP1 PUSH1 0x1 ADD SWAP1 PUSH1 0x20 ADD DUP1 DUP4 GT PUSH2 0x2A0 JUMPI DUP3 SWAP1 SUB PUSH1 0x1F AND DUP3 ADD SWAP2 JUMPDEST POP POP POP POP POP DUP2 MSTORE PUSH1 0x20 ADD PUSH1 0x1 DUP3 ADD SLOAD DUP2 MSTORE PUSH1 0x20 ADD PUSH1 0x2 DUP3 ADD DUP1 SLOAD PUSH2 0x2E0 SWAP1 PUSH2 0xF28 JUMP JUMPDEST DUP1 PUSH1 0x1F ADD PUSH1 0x20 DUP1 SWAP2 DIV MUL PUSH1 0x20 ADD PUSH1 0x40 MLOAD SWAP1 DUP2 ADD PUSH1 0x40 MSTORE DUP1 SWAP3 SWAP2 SWAP1 DUP2 DUP2 MSTORE PUSH1 0x20 ADD DUP3 DUP1 SLOAD PUSH2 0x30C SWAP1 PUSH2 0xF28 JUMP JUMPDEST DUP1 ISZERO PUSH2 0x357 JUMPI DUP1 PUSH1 0x1F LT PUSH2 0x32E JUMPI PUSH2 0x100 DUP1 DUP4 SLOAD DIV MUL DUP4 MSTORE SWAP2 PUSH1 0x20 ADD SWAP2 PUSH2 0x357 JUMP JUMPDEST DUP3 ADD SWAP2 SWAP1 PUSH0 MSTORE PUSH1 0x20 PUSH0 KECCAK256 SWAP1 JUMPDEST DUP2 SLOAD DUP2 MSTORE SWAP1 PUSH1 0x1 ADD SWAP1 PUSH1 0x20 ADD DUP1 DUP4 GT PUSH2 0x33A JUMPI DUP3 SWAP1 SUB PUSH1 0x1F AND DUP3 ADD SWAP2 JUMPDEST POP POP POP POP POP DUP2 MSTORE PUSH1 0x20 ADD PUSH1 0x3 DUP3 ADD DUP1 SLOAD PUSH2 0x370 SWAP1 PUSH2 0xF28 JUMP JUMPDEST DUP1 PUSH1 0x1F ADD PUSH1 0x20 DUP1 SWAP2 DIV MUL PUSH1 0x20 ADD PUSH1 0x40 MLOAD SWAP1 DUP2 ADD PUSH1 0x40 MSTORE DUP1 SWAP3 SWAP2 SWAP1 DUP2 DUP2 MSTORE PUSH1 0x20 ADD DUP3 DUP1 SLOAD PUSH2 0x39C SWAP1 PUSH2 0xF28 JUMP JUMPDEST DUP1 ISZERO PUSH2 0x3E7 JUMPI DUP1 PUSH1 0x1F LT PUSH2 0x3BE JUMPI PUSH2 0x100 DUP1 DUP4 SLOAD DIV MUL DUP4 MSTORE SWAP2 PUSH1 0x20 ADD SWAP2 PUSH2 0x3E7 JUMP JUMPDEST DUP3 ADD SWAP2 SWAP1 PUSH0 MSTORE PUSH1 0x20 PUSH0 KECCAK256 SWAP1 JUMPDEST DUP2 SLOAD DUP2 MSTORE SWAP1 PUSH1 0x1 ADD SWAP1 PUSH1 0x20 ADD DUP1 DUP4 GT PUSH2 0x3CA JUMPI DUP3 SWAP1 SUB PUSH1 0x1F AND DUP3 ADD SWAP2 JUMPDEST POP POP POP POP POP DUP2 MSTORE PUSH1 0x20 ADD PUSH1 0x4 DUP3 ADD PUSH0 SWAP1 SLOAD SWAP1 PUSH2 0x100 EXP SWAP1 DIV PUSH1 0xFF AND ISZERO ISZERO ISZERO ISZERO DUP2 MSTORE PUSH1 0x20 ADD PUSH1 0x4 DUP3 ADD PUSH1 0x1 SWAP1 SLOAD SWAP1 PUSH2 0x100 EXP SWAP1 DIV PUSH1 0xFF AND ISZERO ISZERO ISZERO ISZERO DUP2 MSTORE PUSH1 0x20 ADD PUSH1 0x4 DUP3 ADD PUSH1 0x2 SWAP1 SLOAD SWAP1 PUSH2 0x100 EXP SWAP1 DIV PUSH1 0xFF AND ISZERO ISZERO ISZERO ISZERO DUP2 MSTORE PUSH1 0x20 ADD PUSH1 0x4 DUP3 ADD PUSH1 0x3 SWAP1 SLOAD SWAP1 PUSH2 0x100 EXP SWAP1 DIV PUSH1 0xFF AND ISZERO ISZERO ISZERO ISZERO DUP2 MSTORE POP POP SWAP1 POP SWAP2 SWAP1 POP JUMP JUMPDEST PUSH1 0x1 PUSH1 0x20 MSTORE DUP1 PUSH0 MSTORE PUSH1 0x40 PUSH0 KECCAK256 PUSH0 SWAP2 POP SWAP1 POP DUP1 PUSH0 ADD DUP1 SLOAD PUSH2 0x481 SWAP1 PUSH2 0xF28 JUMP JUMPDEST DUP1 PUSH1 0x1F ADD PUSH1 0x20 DUP1 SWAP2 DIV MUL PUSH1 0x20 ADD PUSH1 0x40 MLOAD SWAP1 DUP2 ADD PUSH1 0x40 MSTORE DUP1 SWAP3 SWAP2 SWAP1 DUP2 DUP2 MSTORE PUSH1 0x20 ADD DUP3 DUP1 SLOAD PUSH2 0x4AD SWAP1 PUSH2 0xF28 JUMP JUMPDEST DUP1 ISZERO PUSH2 0x4F8 JUMPI DUP1 PUSH1 0x1F LT PUSH2 0x4CF JUMPI PUSH2 0x100 DUP1 DUP4 SLOAD DIV MUL DUP4 MSTORE SWAP2 PUSH1 0x20 ADD SWAP2 PUSH2 0x4F8 JUMP JUMPDEST DUP3 ADD SWAP2 SWAP1 PUSH0 MSTORE PUSH1 0x20 PUSH0 KECCAK256 SWAP1 JUMPDEST DUP2 SLOAD DUP2 MSTORE SWAP1 PUSH1 0x1 ADD SWAP1 PUSH1 0x20 ADD DUP1 DUP4 GT PUSH2 0x4DB JUMPI DUP3 SWAP1 SUB PUSH1 0x1F AND DUP3 ADD SWAP2 JUMPDEST POP POP POP POP POP SWAP1 DUP1 PUSH1 0x1 ADD SLOAD SWAP1 DUP1 PUSH1 0x2 ADD DUP1 SLOAD PUSH2 0x513 SWAP1 PUSH2 0xF28 JUMP JUMPDEST DUP1 PUSH1 0x1F ADD PUSH1 0x20 DUP1 SWAP2 DIV MUL PUSH1 0x20 ADD PUSH1 0x40 MLOAD SWAP1 DUP2 ADD PUSH1 0x40 MSTORE DUP1 SWAP3 SWAP2 SWAP1 DUP2 DUP2 MSTORE PUSH1 0x20 ADD DUP3 DUP1 SLOAD PUSH2 0x53F SWAP1 PUSH2 0xF28 JUMP JUMPDEST DUP1 ISZERO PUSH2 0x58A JUMPI DUP1 PUSH1 0x1F LT PUSH2 0x561 JUMPI PUSH2 0x100 DUP1 DUP4 SLOAD DIV MUL DUP4 MSTORE SWAP2 PUSH1 0x20 ADD SWAP2 PUSH2 0x58A JUMP JUMPDEST DUP3 ADD SWAP2 SWAP1 PUSH0 MSTORE PUSH1 0x20 PUSH0 KECCAK256 SWAP1 JUMPDEST DUP2 SLOAD DUP2 MSTORE SWAP1 PUSH1 0x1 ADD SWAP1 PUSH1 0x20 ADD DUP1 DUP4 GT PUSH2 0x56D JUMPI DUP3 SWAP1 SUB PUSH1 0x1F AND DUP3 ADD SWAP2 JUMPDEST POP POP POP POP POP SWAP1 DUP1 PUSH1 0x3 ADD DUP1 SLOAD PUSH2 0x59F SWAP1 PUSH2 0xF28 JUMP JUMPDEST DUP1 PUSH1 0x1F ADD PUSH1 0x20 DUP1 SWAP2 DIV MUL PUSH1 0x20 ADD PUSH1 0x40 MLOAD SWAP1 DUP2 ADD PUSH1 0x40 MSTORE DUP1 SWAP3 SWAP2 SWAP1 DUP2 DUP2 MSTORE PUSH1 0x20 ADD DUP3 DUP1 SLOAD PUSH2 0x5CB SWAP1 PUSH2 0xF28 JUMP JUMPDEST DUP1 ISZERO PUSH2 0x616 JUMPI DUP1 PUSH1 0x1F LT PUSH2 0x5ED JUMPI PUSH2 0x100 DUP1 DUP4 SLOAD DIV MUL DUP4 MSTORE SWAP2 PUSH1 0x20 ADD SWAP2 PUSH2 0x616 JUMP JUMPDEST DUP3 ADD SWAP2 SWAP1 PUSH0 MSTORE PUSH1 0x20 PUSH0 KECCAK256 SWAP1 JUMPDEST DUP2 SLOAD DUP2 MSTORE SWAP1 PUSH1 0x1 ADD SWAP1 PUSH1 0x20 ADD DUP1 DUP4 GT PUSH2 0x5F9 JUMPI DUP3 SWAP1 SUB PUSH1 0x1F AND DUP3 ADD SWAP2 JUMPDEST POP POP POP POP POP SWAP1 DUP1 PUSH1 0x4 ADD PUSH0 SWAP1 SLOAD SWAP1 PUSH2 0x100 EXP SWAP1 DIV PUSH1 0xFF AND SWAP1 DUP1 PUSH1 0x4 ADD PUSH1 0x1 SWAP1 SLOAD SWAP1 PUSH2 0x100 EXP SWAP1 DIV PUSH1 0xFF AND SWAP1 DUP1 PUSH1 0x4 ADD PUSH1 0x2 SWAP1 SLOAD SWAP1 PUSH2 0x100 EXP SWAP1 DIV PUSH1 0xFF AND SWAP1 DUP1 PUSH1 0x4 ADD PUSH1 0x3 SWAP1 SLOAD SWAP1 PUSH2 0x100 EXP SWAP1 DIV PUSH1 0xFF AND SWAP1 POP DUP9 JUMP JUMPDEST PUSH0 DUP1 PUSH0 SWAP1 SLOAD SWAP1 PUSH2 0x100 EXP SWAP1 DIV PUSH20 0xFFFFFFFFFFFFFFFFFFFFFFFFFFFFFFFFFFFFFFFF AND PUSH20 0xFFFFFFFFFFFFFFFFFFFFFFFFFFFFFFFFFFFFFFFF AND CALLER PUSH20 0xFFFFFFFFFFFFFFFFFFFFFFFFFFFFFFFFFFFFFFFF AND EQ PUSH2 0x6FA JUMPI PUSH1 0x40 MLOAD PUSH32 0x8C379A000000000000000000000000000000000000000000000000000000000 DUP2 MSTORE PUSH1 0x4 ADD PUSH2 0x6F1 SWAP1 PUSH2 0x120E JUMP JUMPDEST PUSH1 0x40 MLOAD DUP1 SWAP2 SUB SWAP1 REVERT JUMPDEST PUSH1 0x2 PUSH0 DUP2 SLOAD DUP1 SWAP3 SWAP2 SWAP1 PUSH2 0x70C SWAP1 PUSH2 0x1259 JUMP JUMPDEST SWAP2 SWAP1 POP SSTORE POP PUSH1 0x40 MLOAD DUP1 PUSH2 0x100 ADD PUSH1 0x40 MSTORE DUP1 DUP4 DUP2 MSTORE PUSH1 0x20 ADD PUSH0 DUP2 MSTORE PUSH1 0x20 ADD PUSH1 0x40 MLOAD DUP1 PUSH1 0x40 ADD PUSH1 0x40 MSTORE DUP1 PUSH1 0xF DUP2 MSTORE PUSH1 0x20 ADD PUSH32 0x546F206265206576616C75617465640000000000000000000000000000000000 DUP2 MSTORE POP DUP2 MSTORE PUSH1 0x20 ADD PUSH1 0x40 MLOAD DUP1 PUSH1 0x40 ADD PUSH1 0x40 MSTORE DUP1 PUSH1 0xE DUP2 MSTORE PUSH1 0x20 ADD PUSH32 0x546F2062652061737369676E6564000000000000000000000000000000000000 DUP2 MSTORE POP DUP2 MSTORE PUSH1 0x20 ADD PUSH0 ISZERO ISZERO DUP2 MSTORE PUSH1 0x20 ADD PUSH0 ISZERO ISZERO DUP2 MSTORE PUSH1 0x20 ADD PUSH0 ISZERO ISZERO DUP2 MSTORE PUSH1 0x20 ADD PUSH0 ISZERO ISZERO DUP2 MSTORE POP PUSH1 0x1 PUSH0 PUSH1 0x2 SLOAD DUP2 MSTORE PUSH1 0x20 ADD SWAP1 DUP2 MSTORE PUSH1 0x20 ADD PUSH0 KECCAK256 PUSH0 DUP3 ADD MLOAD DUP2 PUSH0 ADD SWAP1 DUP2 PUSH2 0x7E3 SWAP2 SWAP1 PUSH2 0x10F5 JUMP JUMPDEST POP PUSH1 0x20 DUP3 ADD MLOAD DUP2 PUSH1 0x1 ADD SSTORE PUSH1 0x40 DUP3 ADD MLOAD DUP2 PUSH1 0x2 ADD SWAP1 DUP2 PUSH2 0x803 SWAP2 SWAP1 PUSH2 0x10F5 JUMP JUMPDEST POP PUSH1 0x60 DUP3 ADD MLOAD DUP2 PUSH1 0x3 ADD SWAP1 DUP2 PUSH2 0x819 SWAP2 SWAP1 PUSH2 0x10F5 JUMP JUMPDEST POP PUSH1 0x80 DUP3 ADD MLOAD DUP2 PUSH1 0x4 ADD PUSH0 PUSH2 0x100 EXP DUP2 SLOAD DUP2 PUSH1 0xFF MUL NOT AND SWAP1 DUP4 ISZERO ISZERO MUL OR SWAP1 SSTORE POP PUSH1 0xA0 DUP3 ADD MLOAD DUP2 PUSH1 0x4 ADD PUSH1 0x1 PUSH2 0x100 EXP DUP2 SLOAD DUP2 PUSH1 0xFF MUL NOT AND SWAP1 DUP4 ISZERO ISZERO MUL OR SWAP1 SSTORE POP PUSH1 0xC0 DUP3 ADD MLOAD DUP2 PUSH1 0x4 ADD PUSH1 0x2 PUSH2 0x100 EXP DUP2 SLOAD DUP2 PUSH1 0xFF MUL NOT AND SWAP1 DUP4 ISZERO ISZERO MUL OR SWAP1 SSTORE POP PUSH1 0xE0 DUP3 ADD MLOAD DUP2 PUSH1 0x4 ADD PUSH1 0x3 PUSH2 0x100 EXP DUP2 SLOAD DUP2 PUSH1 0xFF MUL NOT AND SWAP1 DUP4 ISZERO ISZERO MUL OR SWAP1 SSTORE POP SWAP1 POP POP PUSH1 0x2 SLOAD SWAP1 POP SWAP2 SWAP1 POP JUMP JUMPDEST PUSH1 0x40 MLOAD DUP1 PUSH2 0x100 ADD PUSH1 0x40 MSTORE DUP1 PUSH1 0x60 DUP2 MSTORE PUSH1 0x20 ADD PUSH0 DUP2 MSTORE PUSH1 0x20 ADD PUSH1 0x60 DUP2 MSTORE PUSH1 0x20 ADD PUSH1 0x60 DUP2 MSTORE PUSH1 0x20 ADD PUSH0 ISZERO ISZERO DUP2 MSTORE PUSH1 0x20 ADD PUSH0 ISZERO ISZERO DUP2 MSTORE PUSH1 0x20 ADD PUSH0 ISZERO ISZERO DUP2 MSTORE PUSH1 0x20 ADD PUSH0 ISZERO ISZERO DUP2 MSTORE POP SWAP1 JUMP JUMPDEST PUSH0 DUP2 SWAP1 POP SWAP2 SWAP1 POP JUMP JUMPDEST PUSH2 0x900 DUP2 PUSH2 0x8EE JUMP JUMPDEST DUP3 MSTORE POP POP JUMP JUMPDEST PUSH0 PUSH1 0x20 DUP3 ADD SWAP1 POP PUSH2 0x919 PUSH0 DUP4 ADD DUP5 PUSH2 0x8F7 JUMP JUMPDEST SWAP3 SWAP2 POP POP JUMP JUMPDEST PUSH0 PUSH1 0x40 MLOAD SWAP1 POP SWAP1 JUMP JUMPDEST PUSH0 DUP1 REVERT JUMPDEST PUSH0 DUP1 REVERT JUMPDEST PUSH2 0x939 DUP2 PUSH2 0x8EE JUMP JUMPDEST DUP2 EQ PUSH2 0x943 JUMPI PUSH0 DUP1 REVERT JUMPDEST POP JUMP JUMPDEST PUSH0 DUP2 CALLDATALOAD SWAP1 POP PUSH2 0x954 DUP2 PUSH2 0x930 JUMP JUMPDEST SWAP3 SWAP2 POP POP JUMP JUMPDEST PUSH0 DUP1 REVERT JUMPDEST PUSH0 PUSH1 0x1F NOT PUSH1 0x1F DUP4 ADD AND SWAP1 POP SWAP2 SWAP1 POP JUMP JUMPDEST PUSH32 0x4E487B7100000000000000000000000000000000000000000000000000000000 PUSH0 MSTORE PUSH1 0x41 PUSH1 0x4 MSTORE PUSH1 0x24 PUSH0 REVERT JUMPDEST PUSH2 0x9A4 DUP3 PUSH2 0x95E JUMP JUMPDEST DUP2 ADD DUP2 DUP2 LT PUSH8 0xFFFFFFFFFFFFFFFF DUP3 GT OR ISZERO PUSH2 0x9C3 JUMPI PUSH2 0x9C2 PUSH2 0x96E JUMP JUMPDEST JUMPDEST DUP1 PUSH1 0x40 MSTORE POP POP POP JUMP JUMPDEST PUSH0 PUSH2 0x9D5 PUSH2 0x91F JUMP JUMPDEST SWAP1 POP PUSH2 0x9E1 DUP3 DUP3 PUSH2 0x99B JUMP JUMPDEST SWAP2 SWAP1 POP JUMP JUMPDEST PUSH0 DUP1 REVERT JUMPDEST PUSH0 DUP1 REVERT JUMPDEST PUSH0 DUP1 REVERT JUMPDEST PUSH0 PUSH8 0xFFFFFFFFFFFFFFFF DUP3 GT ISZERO PUSH2 0xA0C JUMPI PUSH2 0xA0B PUSH2 0x96E JUMP JUMPDEST JUMPDEST PUSH2 0xA15 DUP3 PUSH2 0x95E JUMP JUMPDEST SWAP1 POP PUSH1 0x20 DUP2 ADD SWAP1 POP SWAP2 SWAP1 POP JUMP JUMPDEST DUP3 DUP2 DUP4 CALLDATACOPY PUSH0 DUP4 DUP4 ADD MSTORE POP POP POP JUMP JUMPDEST PUSH0 PUSH2 0xA42 PUSH2 0xA3D DUP5 PUSH2 0x9F2 JUMP JUMPDEST PUSH2 0x9CC JUMP JUMPDEST SWAP1 POP DUP3 DUP2 MSTORE PUSH1 0x20 DUP2 ADD DUP5 DUP5 DUP5 ADD GT ISZERO PUSH2 0xA5E JUMPI PUSH2 0xA5D PUSH2 0x9EE JUMP JUMPDEST JUMPDEST PUSH2 0xA69 DUP5 DUP3 DUP6 PUSH2 0xA22 JUMP JUMPDEST POP SWAP4 SWAP3 POP POP POP JUMP JUMPDEST PUSH0 DUP3 PUSH1 0x1F DUP4 ADD SLT PUSH2 0xA85 JUMPI PUSH2 0xA84 PUSH2 0x9EA JUMP JUMPDEST JUMPDEST DUP2 CALLDATALOAD PUSH2 0xA95 DUP5 DUP3 PUSH1 0x20 DUP7 ADD PUSH2 0xA30 JUMP JUMPDEST SWAP2 POP POP SWAP3 SWAP2 POP POP JUMP JUMPDEST PUSH0 DUP2 ISZERO ISZERO SWAP1 POP SWAP2 SWAP1 POP JUMP JUMPDEST PUSH2 0xAB2 DUP2 PUSH2 0xA9E JUMP JUMPDEST DUP2 EQ PUSH2 0xABC JUMPI PUSH0 DUP1 REVERT JUMPDEST POP JUMP JUMPDEST PUSH0 DUP2 CALLDATALOAD SWAP1 POP PUSH2 0xACD DUP2 PUSH2 0xAA9 JUMP JUMPDEST SWAP3 SWAP2 POP POP JUMP JUMPDEST PUSH0 PUSH2 0x100 DUP3 DUP5 SUB SLT ISZERO PUSH2 0xAE9 JUMPI PUSH2 0xAE8 PUSH2 0x95A JUMP JUMPDEST JUMPDEST PUSH2 0xAF4 PUSH2 0x100 PUSH2 0x9CC JUMP JUMPDEST SWAP1 POP PUSH0 DUP3 ADD CALLDATALOAD PUSH8 0xFFFFFFFFFFFFFFFF DUP2 GT ISZERO PUSH2 0xB13 JUMPI PUSH2 0xB12 PUSH2 0x9E6 JUMP JUMPDEST JUMPDEST PUSH2 0xB1F DUP5 DUP3 DUP6 ADD PUSH2 0xA71 JUMP JUMPDEST PUSH0 DUP4 ADD MSTORE POP PUSH1 0x20 PUSH2 0xB32 DUP5 DUP3 DUP6 ADD PUSH2 0x946 JUMP JUMPDEST PUSH1 0x20 DUP4 ADD MSTORE POP PUSH1 0x40 DUP3 ADD CALLDATALOAD PUSH8 0xFFFFFFFFFFFFFFFF DUP2 GT ISZERO PUSH2 0xB56 JUMPI PUSH2 0xB55 PUSH2 0x9E6 JUMP JUMPDEST JUMPDEST PUSH2 0xB62 DUP5 DUP3 DUP6 ADD PUSH2 0xA71 JUMP JUMPDEST PUSH1 0x40 DUP4 ADD MSTORE POP PUSH1 0x60 DUP3 ADD CALLDATALOAD PUSH8 0xFFFFFFFFFFFFFFFF DUP2 GT ISZERO PUSH2 0xB86 JUMPI PUSH2 0xB85 PUSH2 0x9E6 JUMP JUMPDEST JUMPDEST PUSH2 0xB92 DUP5 DUP3 DUP6 ADD PUSH2 0xA71 JUMP JUMPDEST PUSH1 0x60 DUP4 ADD MSTORE POP PUSH1 0x80 PUSH2 0xBA6 DUP5 DUP3 DUP6 ADD PUSH2 0xABF JUMP JUMPDEST PUSH1 0x80 DUP4 ADD MSTORE POP PUSH1 0xA0 PUSH2 0xBBA DUP5 DUP3 DUP6 ADD PUSH2 0xABF JUMP JUMPDEST PUSH1 0xA0 DUP4 ADD MSTORE POP PUSH1 0xC0 PUSH2 0xBCE DUP5 DUP3 DUP6 ADD PUSH2 0xABF JUMP JUMPDEST PUSH1 0xC0 DUP4 ADD MSTORE POP PUSH1 0xE0 PUSH2 0xBE2 DUP5 DUP3 DUP6 ADD PUSH2 0xABF JUMP JUMPDEST PUSH1 0xE0 DUP4 ADD MSTORE POP SWAP3 SWAP2 POP POP JUMP JUMPDEST PUSH0 DUP1 PUSH1 0x40 DUP4 DUP6 SUB SLT ISZERO PUSH2 0xC04 JUMPI PUSH2 0xC03 PUSH2 0x928 JUMP JUMPDEST JUMPDEST PUSH0 PUSH2 0xC11 DUP6 DUP3 DUP7 ADD PUSH2 0x946 JUMP JUMPDEST SWAP3 POP POP PUSH1 0x20 DUP4 ADD CALLDATALOAD PUSH8 0xFFFFFFFFFFFFFFFF DUP2 GT ISZERO PUSH2 0xC32 JUMPI PUSH2 0xC31 PUSH2 0x92C JUMP JUMPDEST JUMPDEST PUSH2 0xC3E DUP6 DUP3 DUP7 ADD PUSH2 0xAD3 JUMP JUMPDEST SWAP2 POP POP SWAP3 POP SWAP3 SWAP1 POP JUMP JUMPDEST PUSH0 PUSH1 0x20 DUP3 DUP5 SUB SLT ISZERO PUSH2 0xC5D JUMPI PUSH2 0xC5C PUSH2 0x928 JUMP JUMPDEST JUMPDEST PUSH0 PUSH2 0xC6A DUP5 DUP3 DUP6 ADD PUSH2 0x946 JUMP JUMPDEST SWAP2 POP POP SWAP3 SWAP2 POP POP JUMP JUMPDEST PUSH0 DUP2 MLOAD SWAP1 POP SWAP2 SWAP1 POP JUMP JUMPDEST PUSH0 DUP3 DUP3 MSTORE PUSH1 0x20 DUP3 ADD SWAP1 POP SWAP3 SWAP2 POP POP JUMP JUMPDEST DUP3 DUP2 DUP4 MCOPY PUSH0 DUP4 DUP4 ADD MSTORE POP POP POP JUMP JUMPDEST PUSH0 PUSH2 0xCA5 DUP3 PUSH2 0xC73 JUMP JUMPDEST PUSH2 0xCAF DUP2 DUP6 PUSH2 0xC7D JUMP JUMPDEST SWAP4 POP PUSH2 0xCBF DUP2 DUP6 PUSH1 0x20 DUP7 ADD PUSH2 0xC8D JUMP JUMPDEST PUSH2 0xCC8 DUP2 PUSH2 0x95E JUMP JUMPDEST DUP5 ADD SWAP2 POP POP SWAP3 SWAP2 POP POP JUMP JUMPDEST PUSH2 0xCDC DUP2 PUSH2 0x8EE JUMP JUMPDEST DUP3 MSTORE POP POP JUMP JUMPDEST PUSH2 0xCEB DUP2 PUSH2 0xA9E JUMP JUMPDEST DUP3 MSTORE POP POP JUMP JUMPDEST PUSH0 PUSH2 0x100 DUP4 ADD PUSH0 DUP4 ADD MLOAD DUP5 DUP3 SUB PUSH0 DUP7 ADD MSTORE PUSH2 0xD0C DUP3 DUP3 PUSH2 0xC9B JUMP JUMPDEST SWAP2 POP POP PUSH1 0x20 DUP4 ADD MLOAD PUSH2 0xD21 PUSH1 0x20 DUP7 ADD DUP3 PUSH2 0xCD3 JUMP JUMPDEST POP PUSH1 0x40 DUP4 ADD MLOAD DUP5 DUP3 SUB PUSH1 0x40 DUP7 ADD MSTORE PUSH2 0xD39 DUP3 DUP3 PUSH2 0xC9B JUMP JUMPDEST SWAP2 POP POP PUSH1 0x60 DUP4 ADD MLOAD DUP5 DUP3 SUB PUSH1 0x60 DUP7 ADD MSTORE PUSH2 0xD53 DUP3 DUP3 PUSH2 0xC9B JUMP JUMPDEST SWAP2 POP POP PUSH1 0x80 DUP4 ADD MLOAD PUSH2 0xD68 PUSH1 0x80 DUP7 ADD DUP3 PUSH2 0xCE2 JUMP JUMPDEST POP PUSH1 0xA0 DUP4 ADD MLOAD PUSH2 0xD7B PUSH1 0xA0 DUP7 ADD DUP3 PUSH2 0xCE2 JUMP JUMPDEST POP PUSH1 0xC0 DUP4 ADD MLOAD PUSH2 0xD8E PUSH1 0xC0 DUP7 ADD DUP3 PUSH2 0xCE2 JUMP JUMPDEST POP PUSH1 0xE0 DUP4 ADD MLOAD PUSH2 0xDA1 PUSH1 0xE0 DUP7 ADD DUP3 PUSH2 0xCE2 JUMP JUMPDEST POP DUP1 SWAP2 POP POP SWAP3 SWAP2 POP POP JUMP JUMPDEST PUSH0 PUSH1 0x20 DUP3 ADD SWAP1 POP DUP2 DUP2 SUB PUSH0 DUP4 ADD MSTORE PUSH2 0xDC4 DUP2 DUP5 PUSH2 0xCF1 JUMP JUMPDEST SWAP1 POP SWAP3 SWAP2 POP POP JUMP JUMPDEST PUSH0 DUP3 DUP3 MSTORE PUSH1 0x20 DUP3 ADD SWAP1 POP SWAP3 SWAP2 POP POP JUMP JUMPDEST PUSH0 PUSH2 0xDE6 DUP3 PUSH2 0xC73 JUMP JUMPDEST PUSH2 0xDF0 DUP2 DUP6 PUSH2 0xDCC JUMP JUMPDEST SWAP4 POP PUSH2 0xE00 DUP2 DUP6 PUSH1 0x20 DUP7 ADD PUSH2 0xC8D JUMP JUMPDEST PUSH2 0xE09 DUP2 PUSH2 0x95E JUMP JUMPDEST DUP5 ADD SWAP2 POP POP SWAP3 SWAP2 POP POP JUMP JUMPDEST PUSH2 0xE1D DUP2 PUSH2 0xA9E JUMP JUMPDEST DUP3 MSTORE POP POP JUMP JUMPDEST PUSH0 PUSH2 0x100 DUP3 ADD SWAP1 POP DUP2 DUP2 SUB PUSH0 DUP4 ADD MSTORE PUSH2 0xE3C DUP2 DUP12 PUSH2 0xDDC JUMP JUMPDEST SWAP1 POP PUSH2 0xE4B PUSH1 0x20 DUP4 ADD DUP11 PUSH2 0x8F7 JUMP JUMPDEST DUP2 DUP2 SUB PUSH1 0x40 DUP4 ADD MSTORE PUSH2 0xE5D DUP2 DUP10 PUSH2 0xDDC JUMP JUMPDEST SWAP1 POP DUP2 DUP2 SUB PUSH1 0x60 DUP4 ADD MSTORE PUSH2 0xE71 DUP2 DUP9 PUSH2 0xDDC JUMP JUMPDEST SWAP1 POP PUSH2 0xE80 PUSH1 0x80 DUP4 ADD DUP8 PUSH2 0xE14 JUMP JUMPDEST PUSH2 0xE8D PUSH1 0xA0 DUP4 ADD DUP7 PUSH2 0xE14 JUMP JUMPDEST PUSH2 0xE9A PUSH1 0xC0 DUP4 ADD DUP6 PUSH2 0xE14 JUMP JUMPDEST PUSH2 0xEA7 PUSH1 0xE0 DUP4 ADD DUP5 PUSH2 0xE14 JUMP JUMPDEST SWAP10 SWAP9 POP POP POP POP POP POP POP POP POP JUMP JUMPDEST PUSH0 PUSH1 0x20 DUP3 DUP5 SUB SLT ISZERO PUSH2 0xEC9 JUMPI PUSH2 0xEC8 PUSH2 0x928 JUMP JUMPDEST JUMPDEST PUSH0 DUP3 ADD CALLDATALOAD PUSH8 0xFFFFFFFFFFFFFFFF DUP2 GT ISZERO PUSH2 0xEE6 JUMPI PUSH2 0xEE5 PUSH2 0x92C JUMP JUMPDEST JUMPDEST PUSH2 0xEF2 DUP5 DUP3 DUP6 ADD PUSH2 0xA71 JUMP JUMPDEST SWAP2 POP POP SWAP3 SWAP2 POP POP JUMP JUMPDEST PUSH32 0x4E487B7100000000000000000000000000000000000000000000000000000000 PUSH0 MSTORE PUSH1 0x22 PUSH1 0x4 MSTORE PUSH1 0x24 PUSH0 REVERT JUMPDEST PUSH0 PUSH1 0x2 DUP3 DIV SWAP1 POP PUSH1 0x1 DUP3 AND DUP1 PUSH2 0xF3F JUMPI PUSH1 0x7F DUP3 AND SWAP2 POP JUMPDEST PUSH1 0x20 DUP3 LT DUP2 SUB PUSH2 0xF52 JUMPI PUSH2 0xF51 PUSH2 0xEFB JUMP JUMPDEST JUMPDEST POP SWAP2 SWAP1 POP JUMP JUMPDEST PUSH0 DUP2 SWAP1 POP DUP2 PUSH0 MSTORE PUSH1 0x20 PUSH0 KECCAK256 SWAP1 POP SWAP2 SWAP1 POP JUMP JUMPDEST PUSH0 PUSH1 0x20 PUSH1 0x1F DUP4 ADD DIV SWAP1 POP SWAP2 SWAP1 POP JUMP JUMPDEST PUSH0 DUP3 DUP3 SHL SWAP1 POP SWAP3 SWAP2 POP POP JUMP JUMPDEST PUSH0 PUSH1 0x8 DUP4 MUL PUSH2 0xFB4 PUSH32 0xFFFFFFFFFFFFFFFFFFFFFFFFFFFFFFFFFFFFFFFFFFFFFFFFFFFFFFFFFFFFFFFF DUP3 PUSH2 0xF79 JUMP JUMPDEST PUSH2 0xFBE DUP7 DUP4 PUSH2 0xF79 JUMP JUMPDEST SWAP6 POP DUP1 NOT DUP5 AND SWAP4 POP DUP1 DUP7 AND DUP5 OR SWAP3 POP POP POP SWAP4 SWAP3 POP POP POP JUMP JUMPDEST PUSH0 DUP2 SWAP1 POP SWAP2 SWAP1 POP JUMP JUMPDEST PUSH0 PUSH2 0xFF9 PUSH2 0xFF4 PUSH2 0xFEF DUP5 PUSH2 0x8EE JUMP JUMPDEST PUSH2 0xFD6 JUMP JUMPDEST PUSH2 0x8EE JUMP JUMPDEST SWAP1 POP SWAP2 SWAP1 POP JUMP JUMPDEST PUSH0 DUP2 SWAP1 POP SWAP2 SWAP1 POP JUMP JUMPDEST PUSH2 0x1012 DUP4 PUSH2 0xFDF JUMP JUMPDEST PUSH2 0x1026 PUSH2 0x101E DUP3 PUSH2 0x1000 JUMP JUMPDEST DUP5 DUP5 SLOAD PUSH2 0xF85 JUMP JUMPDEST DUP3 SSTORE POP POP POP POP JUMP JUMPDEST PUSH0 SWAP1 JUMP JUMPDEST PUSH2 0x103A PUSH2 0x102E JUMP JUMPDEST PUSH2 0x1045 DUP2 DUP5 DUP5 PUSH2 0x1009 JUMP JUMPDEST POP POP POP JUMP JUMPDEST JUMPDEST DUP2 DUP2 LT ISZERO PUSH2 0x1068 JUMPI PUSH2 0x105D PUSH0 DUP3 PUSH2 0x1032 JUMP JUMPDEST PUSH1 0x1 DUP2 ADD SWAP1 POP PUSH2 0x104B JUMP JUMPDEST POP POP JUMP JUMPDEST PUSH1 0x1F DUP3 GT ISZERO PUSH2 0x10AD JUMPI PUSH2 0x107E DUP2 PUSH2 0xF58 JUMP JUMPDEST PUSH2 0x1087 DUP5 PUSH2 0xF6A JUMP JUMPDEST DUP2 ADD PUSH1 0x20 DUP6 LT ISZERO PUSH2 0x1096 JUMPI DUP2 SWAP1 POP JUMPDEST PUSH2 0x10AA PUSH2 0x10A2 DUP6 PUSH2 0xF6A JUMP JUMPDEST DUP4 ADD DUP3 PUSH2 0x104A JUMP JUMPDEST POP POP JUMPDEST POP POP POP JUMP JUMPDEST PUSH0 DUP3 DUP3 SHR SWAP1 POP SWAP3 SWAP2 POP POP JUMP JUMPDEST PUSH0 PUSH2 0x10CD PUSH0 NOT DUP5 PUSH1 0x8 MUL PUSH2 0x10B2 JUMP JUMPDEST NOT DUP1 DUP4 AND SWAP2 POP POP SWAP3 SWAP2 POP POP JUMP JUMPDEST PUSH0 PUSH2 0x10E5 DUP4 DUP4 PUSH2 0x10BE JUMP JUMPDEST SWAP2 POP DUP3 PUSH1 0x2 MUL DUP3 OR SWAP1 POP SWAP3 SWAP2 POP POP JUMP JUMPDEST PUSH2 0x10FE DUP3 PUSH2 0xC73 JUMP JUMPDEST PUSH8 0xFFFFFFFFFFFFFFFF DUP2 GT ISZERO PUSH2 0x1117 JUMPI PUSH2 0x1116 PUSH2 0x96E JUMP JUMPDEST JUMPDEST PUSH2 0x1121 DUP3 SLOAD PUSH2 0xF28 JUMP JUMPDEST PUSH2 0x112C DUP3 DUP3 DUP6 PUSH2 0x106C JUMP JUMPDEST PUSH0 PUSH1 0x20 SWAP1 POP PUSH1 0x1F DUP4 GT PUSH1 0x1 DUP2 EQ PUSH2 0x115D JUMPI PUSH0 DUP5 ISZERO PUSH2 0x114B JUMPI DUP3 DUP8 ADD MLOAD SWAP1 POP JUMPDEST PUSH2 0x1155 DUP6 DUP3 PUSH2 0x10DA JUMP JUMPDEST DUP7 SSTORE POP PUSH2 0x11BC JUMP JUMPDEST PUSH1 0x1F NOT DUP5 AND PUSH2 0x116B DUP7 PUSH2 0xF58 JUMP JUMPDEST PUSH0 JUMPDEST DUP3 DUP2 LT ISZERO PUSH2 0x1192 JUMPI DUP5 DUP10 ADD MLOAD DUP3 SSTORE PUSH1 0x1 DUP3 ADD SWAP2 POP PUSH1 0x20 DUP6 ADD SWAP5 POP PUSH1 0x20 DUP2 ADD SWAP1 POP PUSH2 0x116D JUMP JUMPDEST DUP7 DUP4 LT ISZERO PUSH2 0x11AF JUMPI DUP5 DUP10 ADD MLOAD PUSH2 0x11AB PUSH1 0x1F DUP10 AND DUP3 PUSH2 0x10BE JUMP JUMPDEST DUP4 SSTORE POP JUMPDEST PUSH1 0x1 PUSH1 0x2 DUP9 MUL ADD DUP9 SSTORE POP POP POP JUMPDEST POP POP POP POP POP POP JUMP JUMPDEST PUSH32 0x6F6E6C79204F776E657200000000000000000000000000000000000000000000 PUSH0 DUP3 ADD MSTORE POP JUMP JUMPDEST PUSH0 PUSH2 0x11F8 PUSH1 0xA DUP4 PUSH2 0xDCC JUMP JUMPDEST SWAP2 POP PUSH2 0x1203 DUP3 PUSH2 0x11C4 JUMP JUMPDEST PUSH1 0x20 DUP3 ADD SWAP1 POP SWAP2 SWAP1 POP JUMP JUMPDEST PUSH0 PUSH1 0x20 DUP3 ADD SWAP1 POP DUP2 DUP2 SUB PUSH0 DUP4 ADD MSTORE PUSH2 0x1225 DUP2 PUSH2 0x11EC JUMP JUMPDEST SWAP1 POP SWAP2 SWAP1 POP JUMP JUMPDEST PUSH32 0x4E487B7100000000000000000000000000000000000000000000000000000000 PUSH0 MSTORE PUSH1 0x11 PUSH1 0x4 MSTORE PUSH1 0x24 PUSH0 REVERT JUMPDEST PUSH0 PUSH2 0x1263 DUP3 PUSH2 0x8EE JUMP JUMPDEST SWAP2 POP PUSH32 0xFFFFFFFFFFFFFFFFFFFFFFFFFFFFFFFFFFFFFFFFFFFFFFFFFFFFFFFFFFFFFFFF DUP3 SUB PUSH2 0x1295 JUMPI PUSH2 0x1294 PUSH2 0x122C JUMP JUMPDEST JUMPDEST PUSH1 0x1 DUP3 ADD SWAP1 POP SWAP2 SWAP1 POP JUMP INVALID LOG2 PUSH5 0x6970667358 0x22 SLT KECCAK256 0x1F PUSH11 0x9CE15A66025D7D3C4D19C9 0xF PUSH32 0x2BB798B640E4E242E97265A606F22DCE4E64736F6C634300081A003300000000 "
				},
				"gasEstimates": {
					"creation": {
						"codeDepositCost": "964400",
						"executionCost": "25264",
						"totalCost": "989664"
					},
					"external": {
						"createOrgan(string)": "infinite",
						"getOrgan(uint256)": "infinite",
						"organCount()": "2403",
						"organs(uint256)": "infinite",
						"updateOrgan(uint256,(string,uint256,string,string,bool,bool,bool,bool))": "infinite"
					}
				},
				"methodIdentifiers": {
					"createOrgan(string)": "e1c5d838",
					"getOrgan(uint256)": "10742b51",
					"organCount()": "098809d7",
					"organs(uint256)": "4fbd241d",
					"updateOrgan(uint256,(string,uint256,string,string,bool,bool,bool,bool))": "0d47dd26"
				}
			},
			"storageLayout": {
				"storage": [
					{
						"astId": 20,
						"contract": "OrganCreateContract.sol:TokenCreateContract",
						"label": "owner",
						"offset": 0,
						"slot": "0",
						"type": "t_address"
					},
					{
						"astId": 25,
						"contract": "OrganCreateContract.sol:TokenCreateContract",
						"label": "organs",
						"offset": 0,
						"slot": "1",
						"type": "t_mapping(t_uint256,t_struct(OrganId)18_storage)"
					},
					{
						"astId": 27,
						"contract": "OrganCreateContract.sol:TokenCreateContract",
						"label": "organCount",
						"offset": 0,
						"slot": "2",
						"type": "t_uint256"
					}
				],
				"types": {
					"t_address": {
						"encoding": "inplace",
						"label": "address",
						"numberOfBytes": "20"
					},
					"t_bool": {
						"encoding": "inplace",
						"label": "bool",
						"numberOfBytes": "1"
					},
					"t_mapping(t_uint256,t_struct(OrganId)18_storage)": {
						"encoding": "mapping",
						"key": "t_uint256",
						"label": "mapping(uint256 => struct TokenCreateContract.OrganId)",
						"numberOfBytes": "32",
						"value": "t_struct(OrganId)18_storage"
					},
					"t_string_storage": {
						"encoding": "bytes",
						"label": "string",
						"numberOfBytes": "32"
					},
					"t_struct(OrganId)18_storage": {
						"encoding": "inplace",
						"label": "struct TokenCreateContract.OrganId",
						"members": [
							{
								"astId": 3,
								"contract": "OrganCreateContract.sol:TokenCreateContract",
								"label": "donerName",
								"offset": 0,
								"slot": "0",
								"type": "t_string_storage"
							},
							{
								"astId": 5,
								"contract": "OrganCreateContract.sol:TokenCreateContract",
								"label": "dateDonated",
								"offset": 0,
								"slot": "1",
								"type": "t_uint256"
							},
							{
								"astId": 7,
								"contract": "OrganCreateContract.sol:TokenCreateContract",
								"label": "condition",
								"offset": 0,
								"slot": "2",
								"type": "t_string_storage"
							},
							{
								"astId": 9,
								"contract": "OrganCreateContract.sol:TokenCreateContract",
								"label": "donatedTo",
								"offset": 0,
								"slot": "3",
								"type": "t_string_storage"
							},
							{
								"astId": 11,
								"contract": "OrganCreateContract.sol:TokenCreateContract",
								"label": "isConsented",
								"offset": 0,
								"slot": "4",
								"type": "t_bool"
							},
							{
								"astId": 13,
								"contract": "OrganCreateContract.sol:TokenCreateContract",
								"label": "isEvaluated",
								"offset": 1,
								"slot": "4",
								"type": "t_bool"
							},
							{
								"astId": 15,
								"contract": "OrganCreateContract.sol:TokenCreateContract",
								"label": "isStored",
								"offset": 2,
								"slot": "4",
								"type": "t_bool"
							},
							{
								"astId": 17,
								"contract": "OrganCreateContract.sol:TokenCreateContract",
								"label": "isAssigned",
								"offset": 3,
								"slot": "4",
								"type": "t_bool"
							}
						],
						"numberOfBytes": "160"
					},
					"t_uint256": {
						"encoding": "inplace",
						"label": "uint256",
						"numberOfBytes": "32"
					}
				}
			},
			"userdoc": {
				"kind": "user",
				"methods": {},
				"version": 1
			}
		}
	}
}