{
	"EvaluateContract.sol": {
		"EvaluateContract": {
			"abi": [
				{
					"inputs": [
						{
							"internalType": "address",
							"name": "_specialist",
							"type": "address"
						},
						{
							"internalType": "address",
							"name": "_tokenAddr",
							"type": "address"
						}
					],
					"stateMutability": "nonpayable",
					"type": "constructor"
				},
				{
					"anonymous": false,
					"inputs": [
						{
							"indexed": false,
							"internalType": "uint256",
							"name": "organId",
							"type": "uint256"
						},
						{
							"indexed": false,
							"internalType": "string",
							"name": "condition",
							"type": "string"
						}
					],
					"name": "evaluationDone",
					"type": "event"
				},
				{
					"inputs": [
						{
							"internalType": "uint256",
							"name": "organId",
							"type": "uint256"
						},
						{
							"internalType": "string",
							"name": "condition",
							"type": "string"
						}
					],
					"name": "evaluate",
					"outputs": [],
					"stateMutability": "nonpayable",
					"type": "function"
				},
				{
					"inputs": [],
					"name": "specialist",
					"outputs": [
						{
							"internalType": "address",
							"name": "",
							"type": "address"
						}
					],
					"stateMutability": "view",
					"type": "function"
				},
				{
					"inputs": [],
					"name": "tokenContract",
					"outputs": [
						{
							"internalType": "contract ITokenContract",
							"name": "",
							"type": "address"
						}
					],
					"stateMutability": "view",
					"type": "function"
				}
			],
			"devdoc": {
				"kind": "dev",
				"methods": {
					"evaluate(uint256,string)": {
						"details": "This function retrieves an OrganId struct from the token contract, checks if it has been consented to, then marks it as evaluated with the provided condition, stored in the mapping of organs on the token contract and emits an event indicating that this request was successfully evaluated.",
						"params": {
							"condition": "A string describing the current state or health status of the organ after evaluation.",
							"organId": "The unique identifier of the donated organ being evaluated."
						}
					}
				},
				"version": 1
			},
			"evm": {
				"assembly": "    /* \"EvaluateContract.sol\":454:1969  contract EvaluateContract {... */\n  mstore(0x40, 0x80)\n    /* \"EvaluateContract.sol\":559:705  constructor(address _specialist, address _tokenAddr) {... */\n  callvalue\n  dup1\n  iszero\n  tag_1\n  jumpi\n  0x00\n  dup1\n  revert\ntag_1:\n  pop\n  mload(0x40)\n  sub(codesize, bytecodeSize)\n  dup1\n  bytecodeSize\n  dup4\n  codecopy\n  dup2\n  dup2\n  add\n  0x40\n  mstore\n  dup2\n  add\n  swap1\n  tag_2\n  swap2\n  swap1\n  tag_3\n  jump\t// in\ntag_2:\n    /* \"EvaluateContract.sol\":635:646  _specialist */\n  dup2\n    /* \"EvaluateContract.sol\":622:632  specialist */\n  0x00\n  dup1\n    /* \"EvaluateContract.sol\":622:646  specialist = _specialist */\n  0x0100\n  exp\n  dup2\n  sload\n  dup2\n  0xffffffffffffffffffffffffffffffffffffffff\n  mul\n  not\n  and\n  swap1\n  dup4\n  0xffffffffffffffffffffffffffffffffffffffff\n  and\n  mul\n  or\n  swap1\n  sstore\n  pop\n    /* \"EvaluateContract.sol\":687:697  _tokenAddr */\n  dup1\n    /* \"EvaluateContract.sol\":656:669  tokenContract */\n  0x01\n  0x00\n    /* \"EvaluateContract.sol\":656:698  tokenContract = ITokenContract(_tokenAddr) */\n  0x0100\n  exp\n  dup2\n  sload\n  dup2\n  0xffffffffffffffffffffffffffffffffffffffff\n  mul\n  not\n  and\n  swap1\n  dup4\n  0xffffffffffffffffffffffffffffffffffffffff\n  and\n  mul\n  or\n  swap1\n  sstore\n  pop\n    /* \"EvaluateContract.sol\":559:705  constructor(address _specialist, address _tokenAddr) {... */\n  pop\n  pop\n    /* \"EvaluateContract.sol\":454:1969  contract EvaluateContract {... */\n  jump(tag_6)\n    /* \"#utility.yul\":88:205   */\ntag_8:\n    /* \"#utility.yul\":197:198   */\n  0x00\n    /* \"#utility.yul\":194:195   */\n  dup1\n    /* \"#utility.yul\":187:199   */\n  revert\n    /* \"#utility.yul\":334:460   */\ntag_10:\n    /* \"#utility.yul\":371:378   */\n  0x00\n    /* \"#utility.yul\":411:453   */\n  0xffffffffffffffffffffffffffffffffffffffff\n    /* \"#utility.yul\":404:409   */\n  dup3\n    /* \"#utility.yul\":400:454   */\n  and\n    /* \"#utility.yul\":389:454   */\n  swap1\n  pop\n    /* \"#utility.yul\":334:460   */\n  swap2\n  swap1\n  pop\n  jump\t// out\n    /* \"#utility.yul\":466:562   */\ntag_11:\n    /* \"#utility.yul\":503:510   */\n  0x00\n    /* \"#utility.yul\":532:556   */\n  tag_20\n    /* \"#utility.yul\":550:555   */\n  dup3\n    /* \"#utility.yul\":532:556   */\n  tag_10\n  jump\t// in\ntag_20:\n    /* \"#utility.yul\":521:556   */\n  swap1\n  pop\n    /* \"#utility.yul\":466:562   */\n  swap2\n  swap1\n  pop\n  jump\t// out\n    /* \"#utility.yul\":568:690   */\ntag_12:\n    /* \"#utility.yul\":641:665   */\n  tag_22\n    /* \"#utility.yul\":659:664   */\n  dup2\n    /* \"#utility.yul\":641:665   */\n  tag_11\n  jump\t// in\ntag_22:\n    /* \"#utility.yul\":634:639   */\n  dup2\n    /* \"#utility.yul\":631:666   */\n  eq\n    /* \"#utility.yul\":621:684   */\n  tag_23\n  jumpi\n    /* \"#utility.yul\":680:681   */\n  0x00\n    /* \"#utility.yul\":677:678   */\n  dup1\n    /* \"#utility.yul\":670:682   */\n  revert\n    /* \"#utility.yul\":621:684   */\ntag_23:\n    /* \"#utility.yul\":568:690   */\n  pop\n  jump\t// out\n    /* \"#utility.yul\":696:839   */\ntag_13:\n    /* \"#utility.yul\":753:758   */\n  0x00\n    /* \"#utility.yul\":784:790   */\n  dup2\n    /* \"#utility.yul\":778:791   */\n  mload\n    /* \"#utility.yul\":769:791   */\n  swap1\n  pop\n    /* \"#utility.yul\":800:833   */\n  tag_25\n    /* \"#utility.yul\":827:832   */\n  dup2\n    /* \"#utility.yul\":800:833   */\n  tag_12\n  jump\t// in\ntag_25:\n    /* \"#utility.yul\":696:839   */\n  swap3\n  swap2\n  pop\n  pop\n  jump\t// out\n    /* \"#utility.yul\":845:1352   */\ntag_3:\n    /* \"#utility.yul\":924:930   */\n  0x00\n    /* \"#utility.yul\":932:938   */\n  dup1\n    /* \"#utility.yul\":981:983   */\n  0x40\n    /* \"#utility.yul\":969:978   */\n  dup4\n    /* \"#utility.yul\":960:967   */\n  dup6\n    /* \"#utility.yul\":956:979   */\n  sub\n    /* \"#utility.yul\":952:984   */\n  slt\n    /* \"#utility.yul\":949:1068   */\n  iszero\n  tag_27\n  jumpi\n    /* \"#utility.yul\":987:1066   */\n  tag_28\n  tag_8\n  jump\t// in\ntag_28:\n    /* \"#utility.yul\":949:1068   */\ntag_27:\n    /* \"#utility.yul\":1107:1108   */\n  0x00\n    /* \"#utility.yul\":1132:1196   */\n  tag_29\n    /* \"#utility.yul\":1188:1195   */\n  dup6\n    /* \"#utility.yul\":1179:1185   */\n  dup3\n    /* \"#utility.yul\":1168:1177   */\n  dup7\n    /* \"#utility.yul\":1164:1186   */\n  add\n    /* \"#utility.yul\":1132:1196   */\n  tag_13\n  jump\t// in\ntag_29:\n    /* \"#utility.yul\":1122:1196   */\n  swap3\n  pop\n    /* \"#utility.yul\":1078:1206   */\n  pop\n    /* \"#utility.yul\":1245:1247   */\n  0x20\n    /* \"#utility.yul\":1271:1335   */\n  tag_30\n    /* \"#utility.yul\":1327:1334   */\n  dup6\n    /* \"#utility.yul\":1318:1324   */\n  dup3\n    /* \"#utility.yul\":1307:1316   */\n  dup7\n    /* \"#utility.yul\":1303:1325   */\n  add\n    /* \"#utility.yul\":1271:1335   */\n  tag_13\n  jump\t// in\ntag_30:\n    /* \"#utility.yul\":1261:1335   */\n  swap2\n  pop\n    /* \"#utility.yul\":1216:1345   */\n  pop\n    /* \"#utility.yul\":845:1352   */\n  swap3\n  pop\n  swap3\n  swap1\n  pop\n  jump\t// out\n    /* \"EvaluateContract.sol\":454:1969  contract EvaluateContract {... */\ntag_6:\n  dataSize(sub_0)\n  dup1\n  dataOffset(sub_0)\n  0x00\n  codecopy\n  0x00\n  return\nstop\n\nsub_0: assembly {\n        /* \"EvaluateContract.sol\":454:1969  contract EvaluateContract {... */\n      mstore(0x40, 0x80)\n      callvalue\n      dup1\n      iszero\n      tag_1\n      jumpi\n      0x00\n      dup1\n      revert\n    tag_1:\n      pop\n      jumpi(tag_2, lt(calldatasize, 0x04))\n      shr(0xe0, calldataload(0x00))\n      dup1\n      0x55a373d6\n      eq\n      tag_3\n      jumpi\n      dup1\n      0x6292bfe9\n      eq\n      tag_4\n      jumpi\n      dup1\n      0xdd81afdd\n      eq\n      tag_5\n      jumpi\n    tag_2:\n      0x00\n      dup1\n      revert\n        /* \"EvaluateContract.sol\":517:552  ITokenContract public tokenContract */\n    tag_3:\n      tag_6\n      tag_7\n      jump\t// in\n    tag_6:\n      mload(0x40)\n      tag_8\n      swap2\n      swap1\n      tag_9\n      jump\t// in\n    tag_8:\n      mload(0x40)\n      dup1\n      swap2\n      sub\n      swap1\n      return\n        /* \"EvaluateContract.sol\":486:511  address public specialist */\n    tag_4:\n      tag_10\n      tag_11\n      jump\t// in\n    tag_10:\n      mload(0x40)\n      tag_12\n      swap2\n      swap1\n      tag_13\n      jump\t// in\n    tag_12:\n      mload(0x40)\n      dup1\n      swap2\n      sub\n      swap1\n      return\n        /* \"EvaluateContract.sol\":1430:1967  function evaluate(uint256 organId, string memory condition)... */\n    tag_5:\n      tag_14\n      0x04\n      dup1\n      calldatasize\n      sub\n      dup2\n      add\n      swap1\n      tag_15\n      swap2\n      swap1\n      tag_16\n      jump\t// in\n    tag_15:\n      tag_17\n      jump\t// in\n    tag_14:\n      stop\n        /* \"EvaluateContract.sol\":517:552  ITokenContract public tokenContract */\n    tag_7:\n      0x01\n      0x00\n      swap1\n      sload\n      swap1\n      0x0100\n      exp\n      swap1\n      div\n      0xffffffffffffffffffffffffffffffffffffffff\n      and\n      dup2\n      jump\t// out\n        /* \"EvaluateContract.sol\":486:511  address public specialist */\n    tag_11:\n      0x00\n      dup1\n      sload\n      swap1\n      0x0100\n      exp\n      swap1\n      div\n      0xffffffffffffffffffffffffffffffffffffffff\n      and\n      dup2\n      jump\t// out\n        /* \"EvaluateContract.sol\":1430:1967  function evaluate(uint256 organId, string memory condition)... */\n    tag_17:\n        /* \"EvaluateContract.sol\":769:779  specialist */\n      0x00\n      dup1\n      sload\n      swap1\n      0x0100\n      exp\n      swap1\n      div\n      0xffffffffffffffffffffffffffffffffffffffff\n      and\n        /* \"EvaluateContract.sol\":755:779  msg.sender == specialist */\n      0xffffffffffffffffffffffffffffffffffffffff\n      and\n        /* \"EvaluateContract.sol\":755:765  msg.sender */\n      caller\n        /* \"EvaluateContract.sol\":755:779  msg.sender == specialist */\n      0xffffffffffffffffffffffffffffffffffffffff\n      and\n      eq\n        /* \"EvaluateContract.sol\":747:799  require(msg.sender == specialist, \"Only specialist\") */\n      tag_19\n      jumpi\n      mload(0x40)\n      0x08c379a000000000000000000000000000000000000000000000000000000000\n      dup2\n      mstore\n      0x04\n      add\n      tag_20\n      swap1\n      tag_21\n      jump\t// in\n    tag_20:\n      mload(0x40)\n      dup1\n      swap2\n      sub\n      swap1\n      revert\n    tag_19:\n        /* \"EvaluateContract.sol\":1542:1573  ITokenContract.OrganId memory o */\n      0x00\n        /* \"EvaluateContract.sol\":1576:1589  tokenContract */\n      0x01\n      0x00\n      swap1\n      sload\n      swap1\n      0x0100\n      exp\n      swap1\n      div\n      0xffffffffffffffffffffffffffffffffffffffff\n      and\n        /* \"EvaluateContract.sol\":1576:1598  tokenContract.getOrgan */\n      0xffffffffffffffffffffffffffffffffffffffff\n      and\n      0x10742b51\n        /* \"EvaluateContract.sol\":1599:1606  organId */\n      dup5\n        /* \"EvaluateContract.sol\":1576:1607  tokenContract.getOrgan(organId) */\n      mload(0x40)\n      dup3\n      0xffffffff\n      and\n      0xe0\n      shl\n      dup2\n      mstore\n      0x04\n      add\n      tag_23\n      swap2\n      swap1\n      tag_24\n      jump\t// in\n    tag_23:\n      0x00\n      mload(0x40)\n      dup1\n      dup4\n      sub\n      dup2\n      dup7\n      gas\n      staticcall\n      iszero\n      dup1\n      iszero\n      tag_26\n      jumpi\n      returndatasize\n      0x00\n      dup1\n      returndatacopy\n      revert(0x00, returndatasize)\n    tag_26:\n      pop\n      pop\n      pop\n      pop\n      mload(0x40)\n      returndatasize\n      0x00\n      dup3\n      returndatacopy\n      returndatasize\n      not(0x1f)\n      0x1f\n      dup3\n      add\n      and\n      dup3\n      add\n      dup1\n      0x40\n      mstore\n      pop\n      dup2\n      add\n      swap1\n      tag_27\n      swap2\n      swap1\n      tag_28\n      jump\t// in\n    tag_27:\n        /* \"EvaluateContract.sol\":1542:1607  ITokenContract.OrganId memory o = tokenContract.getOrgan(organId) */\n      swap1\n      pop\n        /* \"EvaluateContract.sol\":1625:1626  o */\n      dup1\n        /* \"EvaluateContract.sol\":1625:1638  o.isConsented */\n      0x80\n      add\n      mload\n        /* \"EvaluateContract.sol\":1617:1656  require(o.isConsented, \"Not consented\") */\n      tag_29\n      jumpi\n      mload(0x40)\n      0x08c379a000000000000000000000000000000000000000000000000000000000\n      dup2\n      mstore\n      0x04\n      add\n      tag_30\n      swap1\n      tag_31\n      jump\t// in\n    tag_30:\n      mload(0x40)\n      dup1\n      swap2\n      sub\n      swap1\n      revert\n    tag_29:\n        /* \"EvaluateContract.sol\":1688:1689  o */\n      dup1\n        /* \"EvaluateContract.sol\":1688:1701  o.isEvaluated */\n      0xa0\n      add\n      mload\n        /* \"EvaluateContract.sol\":1687:1701  !o.isEvaluated */\n      iszero\n        /* \"EvaluateContract.sol\":1666:1773  require(... */\n      tag_32\n      jumpi\n      mload(0x40)\n      0x08c379a000000000000000000000000000000000000000000000000000000000\n      dup2\n      mstore\n      0x04\n      add\n      tag_33\n      swap1\n      tag_34\n      jump\t// in\n    tag_33:\n      mload(0x40)\n      dup1\n      swap2\n      sub\n      swap1\n      revert\n    tag_32:\n        /* \"EvaluateContract.sol\":1797:1806  condition */\n      dup2\n        /* \"EvaluateContract.sol\":1783:1784  o */\n      dup2\n        /* \"EvaluateContract.sol\":1783:1794  o.condition */\n      0x40\n      add\n        /* \"EvaluateContract.sol\":1783:1806  o.condition = condition */\n      dup2\n      swap1\n      mstore\n      pop\n        /* \"EvaluateContract.sol\":1832:1836  true */\n      0x01\n        /* \"EvaluateContract.sol\":1816:1817  o */\n      dup2\n        /* \"EvaluateContract.sol\":1816:1829  o.isEvaluated */\n      0xa0\n      add\n        /* \"EvaluateContract.sol\":1816:1836  o.isEvaluated = true */\n      swap1\n      iszero\n      iszero\n      swap1\n      dup2\n      iszero\n      iszero\n      dup2\n      mstore\n      pop\n      pop\n        /* \"EvaluateContract.sol\":1859:1863  true */\n      0x01\n        /* \"EvaluateContract.sol\":1846:1847  o */\n      dup2\n        /* \"EvaluateContract.sol\":1846:1856  o.isStored */\n      0xc0\n      add\n        /* \"EvaluateContract.sol\":1846:1863  o.isStored = true */\n      swap1\n      iszero\n      iszero\n      swap1\n      dup2\n      iszero\n      iszero\n      dup2\n      mstore\n      pop\n      pop\n        /* \"EvaluateContract.sol\":1873:1886  tokenContract */\n      0x01\n      0x00\n      swap1\n      sload\n      swap1\n      0x0100\n      exp\n      swap1\n      div\n      0xffffffffffffffffffffffffffffffffffffffff\n      and\n        /* \"EvaluateContract.sol\":1873:1898  tokenContract.updateOrgan */\n      0xffffffffffffffffffffffffffffffffffffffff\n      and\n      0x0d47dd26\n        /* \"EvaluateContract.sol\":1899:1906  organId */\n      dup5\n        /* \"EvaluateContract.sol\":1908:1909  o */\n      dup4\n        /* \"EvaluateContract.sol\":1873:1910  tokenContract.updateOrgan(organId, o) */\n      mload(0x40)\n      dup4\n      0xffffffff\n      and\n      0xe0\n      shl\n      dup2\n      mstore\n      0x04\n      add\n      tag_35\n      swap3\n      swap2\n      swap1\n      tag_36\n      jump\t// in\n    tag_35:\n      0x00\n      mload(0x40)\n      dup1\n      dup4\n      sub\n      dup2\n      0x00\n      dup8\n      dup1\n      extcodesize\n      iszero\n      dup1\n      iszero\n      tag_37\n      jumpi\n      0x00\n      dup1\n      revert\n    tag_37:\n      pop\n      gas\n      call\n      iszero\n      dup1\n      iszero\n      tag_39\n      jumpi\n      returndatasize\n      0x00\n      dup1\n      returndatacopy\n      revert(0x00, returndatasize)\n    tag_39:\n      pop\n      pop\n      pop\n      pop\n        /* \"EvaluateContract.sol\":1926:1960  evaluationDone(organId, condition) */\n      0xffea81bacdd1f0e77704853fe93b61810a458bc2500f7f36c9c3854723eda08e\n        /* \"EvaluateContract.sol\":1941:1948  organId */\n      dup4\n        /* \"EvaluateContract.sol\":1950:1959  condition */\n      dup4\n        /* \"EvaluateContract.sol\":1926:1960  evaluationDone(organId, condition) */\n      mload(0x40)\n      tag_40\n      swap3\n      swap2\n      swap1\n      tag_41\n      jump\t// in\n    tag_40:\n      mload(0x40)\n      dup1\n      swap2\n      sub\n      swap1\n      log1\n        /* \"EvaluateContract.sol\":1532:1967  {... */\n      pop\n        /* \"EvaluateContract.sol\":1430:1967  function evaluate(uint256 organId, string memory condition)... */\n      pop\n      pop\n      jump\t// out\n        /* \"#utility.yul\":7:133   */\n    tag_42:\n        /* \"#utility.yul\":44:51   */\n      0x00\n        /* \"#utility.yul\":84:126   */\n      0xffffffffffffffffffffffffffffffffffffffff\n        /* \"#utility.yul\":77:82   */\n      dup3\n        /* \"#utility.yul\":73:127   */\n      and\n        /* \"#utility.yul\":62:127   */\n      swap1\n      pop\n        /* \"#utility.yul\":7:133   */\n      swap2\n      swap1\n      pop\n      jump\t// out\n        /* \"#utility.yul\":139:199   */\n    tag_43:\n        /* \"#utility.yul\":167:170   */\n      0x00\n        /* \"#utility.yul\":188:193   */\n      dup2\n        /* \"#utility.yul\":181:193   */\n      swap1\n      pop\n        /* \"#utility.yul\":139:199   */\n      swap2\n      swap1\n      pop\n      jump\t// out\n        /* \"#utility.yul\":205:347   */\n    tag_44:\n        /* \"#utility.yul\":255:264   */\n      0x00\n        /* \"#utility.yul\":288:341   */\n      tag_95\n        /* \"#utility.yul\":306:340   */\n      tag_96\n        /* \"#utility.yul\":315:339   */\n      tag_97\n        /* \"#utility.yul\":333:338   */\n      dup5\n        /* \"#utility.yul\":315:339   */\n      tag_42\n      jump\t// in\n    tag_97:\n        /* \"#utility.yul\":306:340   */\n      tag_43\n      jump\t// in\n    tag_96:\n        /* \"#utility.yul\":288:341   */\n      tag_42\n      jump\t// in\n    tag_95:\n        /* \"#utility.yul\":275:341   */\n      swap1\n      pop\n        /* \"#utility.yul\":205:347   */\n      swap2\n      swap1\n      pop\n      jump\t// out\n        /* \"#utility.yul\":353:479   */\n    tag_45:\n        /* \"#utility.yul\":403:412   */\n      0x00\n        /* \"#utility.yul\":436:473   */\n      tag_99\n        /* \"#utility.yul\":467:472   */\n      dup3\n        /* \"#utility.yul\":436:473   */\n      tag_44\n      jump\t// in\n    tag_99:\n        /* \"#utility.yul\":423:473   */\n      swap1\n      pop\n        /* \"#utility.yul\":353:479   */\n      swap2\n      swap1\n      pop\n      jump\t// out\n        /* \"#utility.yul\":485:632   */\n    tag_46:\n        /* \"#utility.yul\":556:565   */\n      0x00\n        /* \"#utility.yul\":589:626   */\n      tag_101\n        /* \"#utility.yul\":620:625   */\n      dup3\n        /* \"#utility.yul\":589:626   */\n      tag_45\n      jump\t// in\n    tag_101:\n        /* \"#utility.yul\":576:626   */\n      swap1\n      pop\n        /* \"#utility.yul\":485:632   */\n      swap2\n      swap1\n      pop\n      jump\t// out\n        /* \"#utility.yul\":638:811   */\n    tag_47:\n        /* \"#utility.yul\":746:804   */\n      tag_103\n        /* \"#utility.yul\":798:803   */\n      dup2\n        /* \"#utility.yul\":746:804   */\n      tag_46\n      jump\t// in\n    tag_103:\n        /* \"#utility.yul\":741:744   */\n      dup3\n        /* \"#utility.yul\":734:805   */\n      mstore\n        /* \"#utility.yul\":638:811   */\n      pop\n      pop\n      jump\t// out\n        /* \"#utility.yul\":817:1081   */\n    tag_9:\n        /* \"#utility.yul\":931:935   */\n      0x00\n        /* \"#utility.yul\":969:971   */\n      0x20\n        /* \"#utility.yul\":958:967   */\n      dup3\n        /* \"#utility.yul\":954:972   */\n      add\n        /* \"#utility.yul\":946:972   */\n      swap1\n      pop\n        /* \"#utility.yul\":982:1074   */\n      tag_105\n        /* \"#utility.yul\":1071:1072   */\n      0x00\n        /* \"#utility.yul\":1060:1069   */\n      dup4\n        /* \"#utility.yul\":1056:1073   */\n      add\n        /* \"#utility.yul\":1047:1053   */\n      dup5\n        /* \"#utility.yul\":982:1074   */\n      tag_47\n      jump\t// in\n    tag_105:\n        /* \"#utility.yul\":817:1081   */\n      swap3\n      swap2\n      pop\n      pop\n      jump\t// out\n        /* \"#utility.yul\":1087:1183   */\n    tag_48:\n        /* \"#utility.yul\":1124:1131   */\n      0x00\n        /* \"#utility.yul\":1153:1177   */\n      tag_107\n        /* \"#utility.yul\":1171:1176   */\n      dup3\n        /* \"#utility.yul\":1153:1177   */\n      tag_42\n      jump\t// in\n    tag_107:\n        /* \"#utility.yul\":1142:1177   */\n      swap1\n      pop\n        /* \"#utility.yul\":1087:1183   */\n      swap2\n      swap1\n      pop\n      jump\t// out\n        /* \"#utility.yul\":1189:1307   */\n    tag_49:\n        /* \"#utility.yul\":1276:1300   */\n      tag_109\n        /* \"#utility.yul\":1294:1299   */\n      dup2\n        /* \"#utility.yul\":1276:1300   */\n      tag_48\n      jump\t// in\n    tag_109:\n        /* \"#utility.yul\":1271:1274   */\n      dup3\n        /* \"#utility.yul\":1264:1301   */\n      mstore\n        /* \"#utility.yul\":1189:1307   */\n      pop\n      pop\n      jump\t// out\n        /* \"#utility.yul\":1313:1535   */\n    tag_13:\n        /* \"#utility.yul\":1406:1410   */\n      0x00\n        /* \"#utility.yul\":1444:1446   */\n      0x20\n        /* \"#utility.yul\":1433:1442   */\n      dup3\n        /* \"#utility.yul\":1429:1447   */\n      add\n        /* \"#utility.yul\":1421:1447   */\n      swap1\n      pop\n        /* \"#utility.yul\":1457:1528   */\n      tag_111\n        /* \"#utility.yul\":1525:1526   */\n      0x00\n        /* \"#utility.yul\":1514:1523   */\n      dup4\n        /* \"#utility.yul\":1510:1527   */\n      add\n        /* \"#utility.yul\":1501:1507   */\n      dup5\n        /* \"#utility.yul\":1457:1528   */\n      tag_49\n      jump\t// in\n    tag_111:\n        /* \"#utility.yul\":1313:1535   */\n      swap3\n      swap2\n      pop\n      pop\n      jump\t// out\n        /* \"#utility.yul\":1541:1616   */\n    tag_50:\n        /* \"#utility.yul\":1574:1580   */\n      0x00\n        /* \"#utility.yul\":1607:1609   */\n      0x40\n        /* \"#utility.yul\":1601:1610   */\n      mload\n        /* \"#utility.yul\":1591:1610   */\n      swap1\n      pop\n        /* \"#utility.yul\":1541:1616   */\n      swap1\n      jump\t// out\n        /* \"#utility.yul\":1622:1739   */\n    tag_51:\n        /* \"#utility.yul\":1731:1732   */\n      0x00\n        /* \"#utility.yul\":1728:1729   */\n      dup1\n        /* \"#utility.yul\":1721:1733   */\n      revert\n        /* \"#utility.yul\":1745:1862   */\n    tag_52:\n        /* \"#utility.yul\":1854:1855   */\n      0x00\n        /* \"#utility.yul\":1851:1852   */\n      dup1\n        /* \"#utility.yul\":1844:1856   */\n      revert\n        /* \"#utility.yul\":1868:1945   */\n    tag_53:\n        /* \"#utility.yul\":1905:1912   */\n      0x00\n        /* \"#utility.yul\":1934:1939   */\n      dup2\n        /* \"#utility.yul\":1923:1939   */\n      swap1\n      pop\n        /* \"#utility.yul\":1868:1945   */\n      swap2\n      swap1\n      pop\n      jump\t// out\n        /* \"#utility.yul\":1951:2073   */\n    tag_54:\n        /* \"#utility.yul\":2024:2048   */\n      tag_117\n        /* \"#utility.yul\":2042:2047   */\n      dup2\n        /* \"#utility.yul\":2024:2048   */\n      tag_53\n      jump\t// in\n    tag_117:\n        /* \"#utility.yul\":2017:2022   */\n      dup2\n        /* \"#utility.yul\":2014:2049   */\n      eq\n        /* \"#utility.yul\":2004:2067   */\n      tag_118\n      jumpi\n        /* \"#utility.yul\":2063:2064   */\n      0x00\n        /* \"#utility.yul\":2060:2061   */\n      dup1\n        /* \"#utility.yul\":2053:2065   */\n      revert\n        /* \"#utility.yul\":2004:2067   */\n    tag_118:\n        /* \"#utility.yul\":1951:2073   */\n      pop\n      jump\t// out\n        /* \"#utility.yul\":2079:2218   */\n    tag_55:\n        /* \"#utility.yul\":2125:2130   */\n      0x00\n        /* \"#utility.yul\":2163:2169   */\n      dup2\n        /* \"#utility.yul\":2150:2170   */\n      calldataload\n        /* \"#utility.yul\":2141:2170   */\n      swap1\n      pop\n        /* \"#utility.yul\":2179:2212   */\n      tag_120\n        /* \"#utility.yul\":2206:2211   */\n      dup2\n        /* \"#utility.yul\":2179:2212   */\n      tag_54\n      jump\t// in\n    tag_120:\n        /* \"#utility.yul\":2079:2218   */\n      swap3\n      swap2\n      pop\n      pop\n      jump\t// out\n        /* \"#utility.yul\":2224:2341   */\n    tag_56:\n        /* \"#utility.yul\":2333:2334   */\n      0x00\n        /* \"#utility.yul\":2330:2331   */\n      dup1\n        /* \"#utility.yul\":2323:2335   */\n      revert\n        /* \"#utility.yul\":2347:2464   */\n    tag_57:\n        /* \"#utility.yul\":2456:2457   */\n      0x00\n        /* \"#utility.yul\":2453:2454   */\n      dup1\n        /* \"#utility.yul\":2446:2458   */\n      revert\n        /* \"#utility.yul\":2470:2572   */\n    tag_58:\n        /* \"#utility.yul\":2511:2517   */\n      0x00\n        /* \"#utility.yul\":2562:2564   */\n      0x1f\n        /* \"#utility.yul\":2558:2565   */\n      not\n        /* \"#utility.yul\":2553:2555   */\n      0x1f\n        /* \"#utility.yul\":2546:2551   */\n      dup4\n        /* \"#utility.yul\":2542:2556   */\n      add\n        /* \"#utility.yul\":2538:2566   */\n      and\n        /* \"#utility.yul\":2528:2566   */\n      swap1\n      pop\n        /* \"#utility.yul\":2470:2572   */\n      swap2\n      swap1\n      pop\n      jump\t// out\n        /* \"#utility.yul\":2578:2758   */\n    tag_59:\n        /* \"#utility.yul\":2626:2703   */\n      0x4e487b7100000000000000000000000000000000000000000000000000000000\n        /* \"#utility.yul\":2623:2624   */\n      0x00\n        /* \"#utility.yul\":2616:2704   */\n      mstore\n        /* \"#utility.yul\":2723:2727   */\n      0x41\n        /* \"#utility.yul\":2720:2721   */\n      0x04\n        /* \"#utility.yul\":2713:2728   */\n      mstore\n        /* \"#utility.yul\":2747:2751   */\n      0x24\n        /* \"#utility.yul\":2744:2745   */\n      0x00\n        /* \"#utility.yul\":2737:2752   */\n      revert\n        /* \"#utility.yul\":2764:3045   */\n    tag_60:\n        /* \"#utility.yul\":2847:2874   */\n      tag_126\n        /* \"#utility.yul\":2869:2873   */\n      dup3\n        /* \"#utility.yul\":2847:2874   */\n      tag_58\n      jump\t// in\n    tag_126:\n        /* \"#utility.yul\":2839:2845   */\n      dup2\n        /* \"#utility.yul\":2835:2875   */\n      add\n        /* \"#utility.yul\":2977:2983   */\n      dup2\n        /* \"#utility.yul\":2965:2975   */\n      dup2\n        /* \"#utility.yul\":2962:2984   */\n      lt\n        /* \"#utility.yul\":2941:2959   */\n      0xffffffffffffffff\n        /* \"#utility.yul\":2929:2939   */\n      dup3\n        /* \"#utility.yul\":2926:2960   */\n      gt\n        /* \"#utility.yul\":2923:2985   */\n      or\n        /* \"#utility.yul\":2920:3008   */\n      iszero\n      tag_127\n      jumpi\n        /* \"#utility.yul\":2988:3006   */\n      tag_128\n      tag_59\n      jump\t// in\n    tag_128:\n        /* \"#utility.yul\":2920:3008   */\n    tag_127:\n        /* \"#utility.yul\":3028:3038   */\n      dup1\n        /* \"#utility.yul\":3024:3026   */\n      0x40\n        /* \"#utility.yul\":3017:3039   */\n      mstore\n        /* \"#utility.yul\":2807:3045   */\n      pop\n        /* \"#utility.yul\":2764:3045   */\n      pop\n      pop\n      jump\t// out\n        /* \"#utility.yul\":3051:3180   */\n    tag_61:\n        /* \"#utility.yul\":3085:3091   */\n      0x00\n        /* \"#utility.yul\":3112:3132   */\n      tag_130\n      tag_50\n      jump\t// in\n    tag_130:\n        /* \"#utility.yul\":3102:3132   */\n      swap1\n      pop\n        /* \"#utility.yul\":3141:3174   */\n      tag_131\n        /* \"#utility.yul\":3169:3173   */\n      dup3\n        /* \"#utility.yul\":3161:3167   */\n      dup3\n        /* \"#utility.yul\":3141:3174   */\n      tag_60\n      jump\t// in\n    tag_131:\n        /* \"#utility.yul\":3051:3180   */\n      swap2\n      swap1\n      pop\n      jump\t// out\n        /* \"#utility.yul\":3186:3494   */\n    tag_62:\n        /* \"#utility.yul\":3248:3252   */\n      0x00\n        /* \"#utility.yul\":3338:3356   */\n      0xffffffffffffffff\n        /* \"#utility.yul\":3330:3336   */\n      dup3\n        /* \"#utility.yul\":3327:3357   */\n      gt\n        /* \"#utility.yul\":3324:3380   */\n      iszero\n      tag_133\n      jumpi\n        /* \"#utility.yul\":3360:3378   */\n      tag_134\n      tag_59\n      jump\t// in\n    tag_134:\n        /* \"#utility.yul\":3324:3380   */\n    tag_133:\n        /* \"#utility.yul\":3398:3427   */\n      tag_135\n        /* \"#utility.yul\":3420:3426   */\n      dup3\n        /* \"#utility.yul\":3398:3427   */\n      tag_58\n      jump\t// in\n    tag_135:\n        /* \"#utility.yul\":3390:3427   */\n      swap1\n      pop\n        /* \"#utility.yul\":3482:3486   */\n      0x20\n        /* \"#utility.yul\":3476:3480   */\n      dup2\n        /* \"#utility.yul\":3472:3487   */\n      add\n        /* \"#utility.yul\":3464:3487   */\n      swap1\n      pop\n        /* \"#utility.yul\":3186:3494   */\n      swap2\n      swap1\n      pop\n      jump\t// out\n        /* \"#utility.yul\":3500:3648   */\n    tag_63:\n        /* \"#utility.yul\":3598:3604   */\n      dup3\n        /* \"#utility.yul\":3593:3596   */\n      dup2\n        /* \"#utility.yul\":3588:3591   */\n      dup4\n        /* \"#utility.yul\":3575:3605   */\n      calldatacopy\n        /* \"#utility.yul\":3639:3640   */\n      0x00\n        /* \"#utility.yul\":3630:3636   */\n      dup4\n        /* \"#utility.yul\":3625:3628   */\n      dup4\n        /* \"#utility.yul\":3621:3637   */\n      add\n        /* \"#utility.yul\":3614:3641   */\n      mstore\n        /* \"#utility.yul\":3500:3648   */\n      pop\n      pop\n      pop\n      jump\t// out\n        /* \"#utility.yul\":3654:4079   */\n    tag_64:\n        /* \"#utility.yul\":3732:3737   */\n      0x00\n        /* \"#utility.yul\":3757:3823   */\n      tag_138\n        /* \"#utility.yul\":3773:3822   */\n      tag_139\n        /* \"#utility.yul\":3815:3821   */\n      dup5\n        /* \"#utility.yul\":3773:3822   */\n      tag_62\n      jump\t// in\n    tag_139:\n        /* \"#utility.yul\":3757:3823   */\n      tag_61\n      jump\t// in\n    tag_138:\n        /* \"#utility.yul\":3748:3823   */\n      swap1\n      pop\n        /* \"#utility.yul\":3846:3852   */\n      dup3\n        /* \"#utility.yul\":3839:3844   */\n      dup2\n        /* \"#utility.yul\":3832:3853   */\n      mstore\n        /* \"#utility.yul\":3884:3888   */\n      0x20\n        /* \"#utility.yul\":3877:3882   */\n      dup2\n        /* \"#utility.yul\":3873:3889   */\n      add\n        /* \"#utility.yul\":3922:3925   */\n      dup5\n        /* \"#utility.yul\":3913:3919   */\n      dup5\n        /* \"#utility.yul\":3908:3911   */\n      dup5\n        /* \"#utility.yul\":3904:3920   */\n      add\n        /* \"#utility.yul\":3901:3926   */\n      gt\n        /* \"#utility.yul\":3898:4010   */\n      iszero\n      tag_140\n      jumpi\n        /* \"#utility.yul\":3929:4008   */\n      tag_141\n      tag_57\n      jump\t// in\n    tag_141:\n        /* \"#utility.yul\":3898:4010   */\n    tag_140:\n        /* \"#utility.yul\":4019:4073   */\n      tag_142\n        /* \"#utility.yul\":4066:4072   */\n      dup5\n        /* \"#utility.yul\":4061:4064   */\n      dup3\n        /* \"#utility.yul\":4056:4059   */\n      dup6\n        /* \"#utility.yul\":4019:4073   */\n      tag_63\n      jump\t// in\n    tag_142:\n        /* \"#utility.yul\":3738:4079   */\n      pop\n        /* \"#utility.yul\":3654:4079   */\n      swap4\n      swap3\n      pop\n      pop\n      pop\n      jump\t// out\n        /* \"#utility.yul\":4099:4439   */\n    tag_65:\n        /* \"#utility.yul\":4155:4160   */\n      0x00\n        /* \"#utility.yul\":4204:4207   */\n      dup3\n        /* \"#utility.yul\":4197:4201   */\n      0x1f\n        /* \"#utility.yul\":4189:4195   */\n      dup4\n        /* \"#utility.yul\":4185:4202   */\n      add\n        /* \"#utility.yul\":4181:4208   */\n      slt\n        /* \"#utility.yul\":4171:4293   */\n      tag_144\n      jumpi\n        /* \"#utility.yul\":4212:4291   */\n      tag_145\n      tag_56\n      jump\t// in\n    tag_145:\n        /* \"#utility.yul\":4171:4293   */\n    tag_144:\n        /* \"#utility.yul\":4329:4335   */\n      dup2\n        /* \"#utility.yul\":4316:4336   */\n      calldataload\n        /* \"#utility.yul\":4354:4433   */\n      tag_146\n        /* \"#utility.yul\":4429:4432   */\n      dup5\n        /* \"#utility.yul\":4421:4427   */\n      dup3\n        /* \"#utility.yul\":4414:4418   */\n      0x20\n        /* \"#utility.yul\":4406:4412   */\n      dup7\n        /* \"#utility.yul\":4402:4419   */\n      add\n        /* \"#utility.yul\":4354:4433   */\n      tag_64\n      jump\t// in\n    tag_146:\n        /* \"#utility.yul\":4345:4433   */\n      swap2\n      pop\n        /* \"#utility.yul\":4161:4439   */\n      pop\n        /* \"#utility.yul\":4099:4439   */\n      swap3\n      swap2\n      pop\n      pop\n      jump\t// out\n        /* \"#utility.yul\":4445:5099   */\n    tag_16:\n        /* \"#utility.yul\":4523:4529   */\n      0x00\n        /* \"#utility.yul\":4531:4537   */\n      dup1\n        /* \"#utility.yul\":4580:4582   */\n      0x40\n        /* \"#utility.yul\":4568:4577   */\n      dup4\n        /* \"#utility.yul\":4559:4566   */\n      dup6\n        /* \"#utility.yul\":4555:4578   */\n      sub\n        /* \"#utility.yul\":4551:4583   */\n      slt\n        /* \"#utility.yul\":4548:4667   */\n      iszero\n      tag_148\n      jumpi\n        /* \"#utility.yul\":4586:4665   */\n      tag_149\n      tag_51\n      jump\t// in\n    tag_149:\n        /* \"#utility.yul\":4548:4667   */\n    tag_148:\n        /* \"#utility.yul\":4706:4707   */\n      0x00\n        /* \"#utility.yul\":4731:4784   */\n      tag_150\n        /* \"#utility.yul\":4776:4783   */\n      dup6\n        /* \"#utility.yul\":4767:4773   */\n      dup3\n        /* \"#utility.yul\":4756:4765   */\n      dup7\n        /* \"#utility.yul\":4752:4774   */\n      add\n        /* \"#utility.yul\":4731:4784   */\n      tag_55\n      jump\t// in\n    tag_150:\n        /* \"#utility.yul\":4721:4784   */\n      swap3\n      pop\n        /* \"#utility.yul\":4677:4794   */\n      pop\n        /* \"#utility.yul\":4861:4863   */\n      0x20\n        /* \"#utility.yul\":4850:4859   */\n      dup4\n        /* \"#utility.yul\":4846:4864   */\n      add\n        /* \"#utility.yul\":4833:4865   */\n      calldataload\n        /* \"#utility.yul\":4892:4910   */\n      0xffffffffffffffff\n        /* \"#utility.yul\":4884:4890   */\n      dup2\n        /* \"#utility.yul\":4881:4911   */\n      gt\n        /* \"#utility.yul\":4878:4995   */\n      iszero\n      tag_151\n      jumpi\n        /* \"#utility.yul\":4914:4993   */\n      tag_152\n      tag_52\n      jump\t// in\n    tag_152:\n        /* \"#utility.yul\":4878:4995   */\n    tag_151:\n        /* \"#utility.yul\":5019:5082   */\n      tag_153\n        /* \"#utility.yul\":5074:5081   */\n      dup6\n        /* \"#utility.yul\":5065:5071   */\n      dup3\n        /* \"#utility.yul\":5054:5063   */\n      dup7\n        /* \"#utility.yul\":5050:5072   */\n      add\n        /* \"#utility.yul\":5019:5082   */\n      tag_65\n      jump\t// in\n    tag_153:\n        /* \"#utility.yul\":5009:5082   */\n      swap2\n      pop\n        /* \"#utility.yul\":4804:5092   */\n      pop\n        /* \"#utility.yul\":4445:5099   */\n      swap3\n      pop\n      swap3\n      swap1\n      pop\n      jump\t// out\n        /* \"#utility.yul\":5105:5274   */\n    tag_66:\n        /* \"#utility.yul\":5189:5200   */\n      0x00\n        /* \"#utility.yul\":5223:5229   */\n      dup3\n        /* \"#utility.yul\":5218:5221   */\n      dup3\n        /* \"#utility.yul\":5211:5230   */\n      mstore\n        /* \"#utility.yul\":5263:5267   */\n      0x20\n        /* \"#utility.yul\":5258:5261   */\n      dup3\n        /* \"#utility.yul\":5254:5268   */\n      add\n        /* \"#utility.yul\":5239:5268   */\n      swap1\n      pop\n        /* \"#utility.yul\":5105:5274   */\n      swap3\n      swap2\n      pop\n      pop\n      jump\t// out\n        /* \"#utility.yul\":5280:5445   */\n    tag_67:\n        /* \"#utility.yul\":5420:5437   */\n      0x4f6e6c79207370656369616c6973740000000000000000000000000000000000\n        /* \"#utility.yul\":5416:5417   */\n      0x00\n        /* \"#utility.yul\":5408:5414   */\n      dup3\n        /* \"#utility.yul\":5404:5418   */\n      add\n        /* \"#utility.yul\":5397:5438   */\n      mstore\n        /* \"#utility.yul\":5280:5445   */\n      pop\n      jump\t// out\n        /* \"#utility.yul\":5451:5817   */\n    tag_68:\n        /* \"#utility.yul\":5593:5596   */\n      0x00\n        /* \"#utility.yul\":5614:5681   */\n      tag_157\n        /* \"#utility.yul\":5678:5680   */\n      0x0f\n        /* \"#utility.yul\":5673:5676   */\n      dup4\n        /* \"#utility.yul\":5614:5681   */\n      tag_66\n      jump\t// in\n    tag_157:\n        /* \"#utility.yul\":5607:5681   */\n      swap2\n      pop\n        /* \"#utility.yul\":5690:5783   */\n      tag_158\n        /* \"#utility.yul\":5779:5782   */\n      dup3\n        /* \"#utility.yul\":5690:5783   */\n      tag_67\n      jump\t// in\n    tag_158:\n        /* \"#utility.yul\":5808:5810   */\n      0x20\n        /* \"#utility.yul\":5803:5806   */\n      dup3\n        /* \"#utility.yul\":5799:5811   */\n      add\n        /* \"#utility.yul\":5792:5811   */\n      swap1\n      pop\n        /* \"#utility.yul\":5451:5817   */\n      swap2\n      swap1\n      pop\n      jump\t// out\n        /* \"#utility.yul\":5823:6242   */\n    tag_21:\n        /* \"#utility.yul\":5989:5993   */\n      0x00\n        /* \"#utility.yul\":6027:6029   */\n      0x20\n        /* \"#utility.yul\":6016:6025   */\n      dup3\n        /* \"#utility.yul\":6012:6030   */\n      add\n        /* \"#utility.yul\":6004:6030   */\n      swap1\n      pop\n        /* \"#utility.yul\":6076:6085   */\n      dup2\n        /* \"#utility.yul\":6070:6074   */\n      dup2\n        /* \"#utility.yul\":6066:6086   */\n      sub\n        /* \"#utility.yul\":6062:6063   */\n      0x00\n        /* \"#utility.yul\":6051:6060   */\n      dup4\n        /* \"#utility.yul\":6047:6064   */\n      add\n        /* \"#utility.yul\":6040:6087   */\n      mstore\n        /* \"#utility.yul\":6104:6235   */\n      tag_160\n        /* \"#utility.yul\":6230:6234   */\n      dup2\n        /* \"#utility.yul\":6104:6235   */\n      tag_68\n      jump\t// in\n    tag_160:\n        /* \"#utility.yul\":6096:6235   */\n      swap1\n      pop\n        /* \"#utility.yul\":5823:6242   */\n      swap2\n      swap1\n      pop\n      jump\t// out\n        /* \"#utility.yul\":6248:6366   */\n    tag_69:\n        /* \"#utility.yul\":6335:6359   */\n      tag_162\n        /* \"#utility.yul\":6353:6358   */\n      dup2\n        /* \"#utility.yul\":6335:6359   */\n      tag_53\n      jump\t// in\n    tag_162:\n        /* \"#utility.yul\":6330:6333   */\n      dup3\n        /* \"#utility.yul\":6323:6360   */\n      mstore\n        /* \"#utility.yul\":6248:6366   */\n      pop\n      pop\n      jump\t// out\n        /* \"#utility.yul\":6372:6594   */\n    tag_24:\n        /* \"#utility.yul\":6465:6469   */\n      0x00\n        /* \"#utility.yul\":6503:6505   */\n      0x20\n        /* \"#utility.yul\":6492:6501   */\n      dup3\n        /* \"#utility.yul\":6488:6506   */\n      add\n        /* \"#utility.yul\":6480:6506   */\n      swap1\n      pop\n        /* \"#utility.yul\":6516:6587   */\n      tag_164\n        /* \"#utility.yul\":6584:6585   */\n      0x00\n        /* \"#utility.yul\":6573:6582   */\n      dup4\n        /* \"#utility.yul\":6569:6586   */\n      add\n        /* \"#utility.yul\":6560:6566   */\n      dup5\n        /* \"#utility.yul\":6516:6587   */\n      tag_69\n      jump\t// in\n    tag_164:\n        /* \"#utility.yul\":6372:6594   */\n      swap3\n      swap2\n      pop\n      pop\n      jump\t// out\n        /* \"#utility.yul\":6600:6717   */\n    tag_70:\n        /* \"#utility.yul\":6709:6710   */\n      0x00\n        /* \"#utility.yul\":6706:6707   */\n      dup1\n        /* \"#utility.yul\":6699:6711   */\n      revert\n        /* \"#utility.yul\":6723:6840   */\n    tag_71:\n        /* \"#utility.yul\":6832:6833   */\n      0x00\n        /* \"#utility.yul\":6829:6830   */\n      dup1\n        /* \"#utility.yul\":6822:6834   */\n      revert\n        /* \"#utility.yul\":6846:6985   */\n    tag_72:\n        /* \"#utility.yul\":6935:6941   */\n      dup3\n        /* \"#utility.yul\":6930:6933   */\n      dup2\n        /* \"#utility.yul\":6925:6928   */\n      dup4\n        /* \"#utility.yul\":6919:6942   */\n      mcopy\n        /* \"#utility.yul\":6976:6977   */\n      0x00\n        /* \"#utility.yul\":6967:6973   */\n      dup4\n        /* \"#utility.yul\":6962:6965   */\n      dup4\n        /* \"#utility.yul\":6958:6974   */\n      add\n        /* \"#utility.yul\":6951:6978   */\n      mstore\n        /* \"#utility.yul\":6846:6985   */\n      pop\n      pop\n      pop\n      jump\t// out\n        /* \"#utility.yul\":6991:7425   */\n    tag_73:\n        /* \"#utility.yul\":7080:7085   */\n      0x00\n        /* \"#utility.yul\":7105:7171   */\n      tag_169\n        /* \"#utility.yul\":7121:7170   */\n      tag_170\n        /* \"#utility.yul\":7163:7169   */\n      dup5\n        /* \"#utility.yul\":7121:7170   */\n      tag_62\n      jump\t// in\n    tag_170:\n        /* \"#utility.yul\":7105:7171   */\n      tag_61\n      jump\t// in\n    tag_169:\n        /* \"#utility.yul\":7096:7171   */\n      swap1\n      pop\n        /* \"#utility.yul\":7194:7200   */\n      dup3\n        /* \"#utility.yul\":7187:7192   */\n      dup2\n        /* \"#utility.yul\":7180:7201   */\n      mstore\n        /* \"#utility.yul\":7232:7236   */\n      0x20\n        /* \"#utility.yul\":7225:7230   */\n      dup2\n        /* \"#utility.yul\":7221:7237   */\n      add\n        /* \"#utility.yul\":7270:7273   */\n      dup5\n        /* \"#utility.yul\":7261:7267   */\n      dup5\n        /* \"#utility.yul\":7256:7259   */\n      dup5\n        /* \"#utility.yul\":7252:7268   */\n      add\n        /* \"#utility.yul\":7249:7274   */\n      gt\n        /* \"#utility.yul\":7246:7358   */\n      iszero\n      tag_171\n      jumpi\n        /* \"#utility.yul\":7277:7356   */\n      tag_172\n      tag_57\n      jump\t// in\n    tag_172:\n        /* \"#utility.yul\":7246:7358   */\n    tag_171:\n        /* \"#utility.yul\":7367:7419   */\n      tag_173\n        /* \"#utility.yul\":7412:7418   */\n      dup5\n        /* \"#utility.yul\":7407:7410   */\n      dup3\n        /* \"#utility.yul\":7402:7405   */\n      dup6\n        /* \"#utility.yul\":7367:7419   */\n      tag_72\n      jump\t// in\n    tag_173:\n        /* \"#utility.yul\":7086:7425   */\n      pop\n        /* \"#utility.yul\":6991:7425   */\n      swap4\n      swap3\n      pop\n      pop\n      pop\n      jump\t// out\n        /* \"#utility.yul\":7445:7800   */\n    tag_74:\n        /* \"#utility.yul\":7512:7517   */\n      0x00\n        /* \"#utility.yul\":7561:7564   */\n      dup3\n        /* \"#utility.yul\":7554:7558   */\n      0x1f\n        /* \"#utility.yul\":7546:7552   */\n      dup4\n        /* \"#utility.yul\":7542:7559   */\n      add\n        /* \"#utility.yul\":7538:7565   */\n      slt\n        /* \"#utility.yul\":7528:7650   */\n      tag_175\n      jumpi\n        /* \"#utility.yul\":7569:7648   */\n      tag_176\n      tag_56\n      jump\t// in\n    tag_176:\n        /* \"#utility.yul\":7528:7650   */\n    tag_175:\n        /* \"#utility.yul\":7679:7685   */\n      dup2\n        /* \"#utility.yul\":7673:7686   */\n      mload\n        /* \"#utility.yul\":7704:7794   */\n      tag_177\n        /* \"#utility.yul\":7790:7793   */\n      dup5\n        /* \"#utility.yul\":7782:7788   */\n      dup3\n        /* \"#utility.yul\":7775:7779   */\n      0x20\n        /* \"#utility.yul\":7767:7773   */\n      dup7\n        /* \"#utility.yul\":7763:7780   */\n      add\n        /* \"#utility.yul\":7704:7794   */\n      tag_73\n      jump\t// in\n    tag_177:\n        /* \"#utility.yul\":7695:7794   */\n      swap2\n      pop\n        /* \"#utility.yul\":7518:7800   */\n      pop\n        /* \"#utility.yul\":7445:7800   */\n      swap3\n      swap2\n      pop\n      pop\n      jump\t// out\n        /* \"#utility.yul\":7806:7949   */\n    tag_75:\n        /* \"#utility.yul\":7863:7868   */\n      0x00\n        /* \"#utility.yul\":7894:7900   */\n      dup2\n        /* \"#utility.yul\":7888:7901   */\n      mload\n        /* \"#utility.yul\":7879:7901   */\n      swap1\n      pop\n        /* \"#utility.yul\":7910:7943   */\n      tag_179\n        /* \"#utility.yul\":7937:7942   */\n      dup2\n        /* \"#utility.yul\":7910:7943   */\n      tag_54\n      jump\t// in\n    tag_179:\n        /* \"#utility.yul\":7806:7949   */\n      swap3\n      swap2\n      pop\n      pop\n      jump\t// out\n        /* \"#utility.yul\":7955:8045   */\n    tag_76:\n        /* \"#utility.yul\":7989:7996   */\n      0x00\n        /* \"#utility.yul\":8032:8037   */\n      dup2\n        /* \"#utility.yul\":8025:8038   */\n      iszero\n        /* \"#utility.yul\":8018:8039   */\n      iszero\n        /* \"#utility.yul\":8007:8039   */\n      swap1\n      pop\n        /* \"#utility.yul\":7955:8045   */\n      swap2\n      swap1\n      pop\n      jump\t// out\n        /* \"#utility.yul\":8051:8167   */\n    tag_77:\n        /* \"#utility.yul\":8121:8142   */\n      tag_182\n        /* \"#utility.yul\":8136:8141   */\n      dup2\n        /* \"#utility.yul\":8121:8142   */\n      tag_76\n      jump\t// in\n    tag_182:\n        /* \"#utility.yul\":8114:8119   */\n      dup2\n        /* \"#utility.yul\":8111:8143   */\n      eq\n        /* \"#utility.yul\":8101:8161   */\n      tag_183\n      jumpi\n        /* \"#utility.yul\":8157:8158   */\n      0x00\n        /* \"#utility.yul\":8154:8155   */\n      dup1\n        /* \"#utility.yul\":8147:8159   */\n      revert\n        /* \"#utility.yul\":8101:8161   */\n    tag_183:\n        /* \"#utility.yul\":8051:8167   */\n      pop\n      jump\t// out\n        /* \"#utility.yul\":8173:8310   */\n    tag_78:\n        /* \"#utility.yul\":8227:8232   */\n      0x00\n        /* \"#utility.yul\":8258:8264   */\n      dup2\n        /* \"#utility.yul\":8252:8265   */\n      mload\n        /* \"#utility.yul\":8243:8265   */\n      swap1\n      pop\n        /* \"#utility.yul\":8274:8304   */\n      tag_185\n        /* \"#utility.yul\":8298:8303   */\n      dup2\n        /* \"#utility.yul\":8274:8304   */\n      tag_77\n      jump\t// in\n    tag_185:\n        /* \"#utility.yul\":8173:8310   */\n      swap3\n      swap2\n      pop\n      pop\n      jump\t// out\n        /* \"#utility.yul\":8353:10521   */\n    tag_79:\n        /* \"#utility.yul\":8436:8441   */\n      0x00\n        /* \"#utility.yul\":8480:8486   */\n      0x0100\n        /* \"#utility.yul\":8468:8477   */\n      dup3\n        /* \"#utility.yul\":8463:8466   */\n      dup5\n        /* \"#utility.yul\":8459:8478   */\n      sub\n        /* \"#utility.yul\":8455:8487   */\n      slt\n        /* \"#utility.yul\":8452:8571   */\n      iszero\n      tag_187\n      jumpi\n        /* \"#utility.yul\":8490:8569   */\n      tag_188\n      tag_70\n      jump\t// in\n    tag_188:\n        /* \"#utility.yul\":8452:8571   */\n    tag_187:\n        /* \"#utility.yul\":8589:8612   */\n      tag_189\n        /* \"#utility.yul\":8605:8611   */\n      0x0100\n        /* \"#utility.yul\":8589:8612   */\n      tag_61\n      jump\t// in\n    tag_189:\n        /* \"#utility.yul\":8580:8612   */\n      swap1\n      pop\n        /* \"#utility.yul\":8697:8698   */\n      0x00\n        /* \"#utility.yul\":8686:8695   */\n      dup3\n        /* \"#utility.yul\":8682:8699   */\n      add\n        /* \"#utility.yul\":8676:8700   */\n      mload\n        /* \"#utility.yul\":8727:8745   */\n      0xffffffffffffffff\n        /* \"#utility.yul\":8719:8725   */\n      dup2\n        /* \"#utility.yul\":8716:8746   */\n      gt\n        /* \"#utility.yul\":8713:8830   */\n      iszero\n      tag_190\n      jumpi\n        /* \"#utility.yul\":8749:8828   */\n      tag_191\n      tag_71\n      jump\t// in\n    tag_191:\n        /* \"#utility.yul\":8713:8830   */\n    tag_190:\n        /* \"#utility.yul\":8869:8939   */\n      tag_192\n        /* \"#utility.yul\":8935:8938   */\n      dup5\n        /* \"#utility.yul\":8926:8932   */\n      dup3\n        /* \"#utility.yul\":8915:8924   */\n      dup6\n        /* \"#utility.yul\":8911:8933   */\n      add\n        /* \"#utility.yul\":8869:8939   */\n      tag_74\n      jump\t// in\n    tag_192:\n        /* \"#utility.yul\":8862:8866   */\n      0x00\n        /* \"#utility.yul\":8855:8860   */\n      dup4\n        /* \"#utility.yul\":8851:8867   */\n      add\n        /* \"#utility.yul\":8844:8940   */\n      mstore\n        /* \"#utility.yul\":8622:8951   */\n      pop\n        /* \"#utility.yul\":9017:9019   */\n      0x20\n        /* \"#utility.yul\":9058:9118   */\n      tag_193\n        /* \"#utility.yul\":9114:9117   */\n      dup5\n        /* \"#utility.yul\":9105:9111   */\n      dup3\n        /* \"#utility.yul\":9094:9103   */\n      dup6\n        /* \"#utility.yul\":9090:9112   */\n      add\n        /* \"#utility.yul\":9058:9118   */\n      tag_75\n      jump\t// in\n    tag_193:\n        /* \"#utility.yul\":9051:9055   */\n      0x20\n        /* \"#utility.yul\":9044:9049   */\n      dup4\n        /* \"#utility.yul\":9040:9056   */\n      add\n        /* \"#utility.yul\":9033:9119   */\n      mstore\n        /* \"#utility.yul\":8961:9130   */\n      pop\n        /* \"#utility.yul\":9215:9217   */\n      0x40\n        /* \"#utility.yul\":9204:9213   */\n      dup3\n        /* \"#utility.yul\":9200:9218   */\n      add\n        /* \"#utility.yul\":9194:9219   */\n      mload\n        /* \"#utility.yul\":9246:9264   */\n      0xffffffffffffffff\n        /* \"#utility.yul\":9238:9244   */\n      dup2\n        /* \"#utility.yul\":9235:9265   */\n      gt\n        /* \"#utility.yul\":9232:9349   */\n      iszero\n      tag_194\n      jumpi\n        /* \"#utility.yul\":9268:9347   */\n      tag_195\n      tag_71\n      jump\t// in\n    tag_195:\n        /* \"#utility.yul\":9232:9349   */\n    tag_194:\n        /* \"#utility.yul\":9388:9458   */\n      tag_196\n        /* \"#utility.yul\":9454:9457   */\n      dup5\n        /* \"#utility.yul\":9445:9451   */\n      dup3\n        /* \"#utility.yul\":9434:9443   */\n      dup6\n        /* \"#utility.yul\":9430:9452   */\n      add\n        /* \"#utility.yul\":9388:9458   */\n      tag_74\n      jump\t// in\n    tag_196:\n        /* \"#utility.yul\":9381:9385   */\n      0x40\n        /* \"#utility.yul\":9374:9379   */\n      dup4\n        /* \"#utility.yul\":9370:9386   */\n      add\n        /* \"#utility.yul\":9363:9459   */\n      mstore\n        /* \"#utility.yul\":9140:9470   */\n      pop\n        /* \"#utility.yul\":9555:9557   */\n      0x60\n        /* \"#utility.yul\":9544:9553   */\n      dup3\n        /* \"#utility.yul\":9540:9558   */\n      add\n        /* \"#utility.yul\":9534:9559   */\n      mload\n        /* \"#utility.yul\":9586:9604   */\n      0xffffffffffffffff\n        /* \"#utility.yul\":9578:9584   */\n      dup2\n        /* \"#utility.yul\":9575:9605   */\n      gt\n        /* \"#utility.yul\":9572:9689   */\n      iszero\n      tag_197\n      jumpi\n        /* \"#utility.yul\":9608:9687   */\n      tag_198\n      tag_71\n      jump\t// in\n    tag_198:\n        /* \"#utility.yul\":9572:9689   */\n    tag_197:\n        /* \"#utility.yul\":9728:9798   */\n      tag_199\n        /* \"#utility.yul\":9794:9797   */\n      dup5\n        /* \"#utility.yul\":9785:9791   */\n      dup3\n        /* \"#utility.yul\":9774:9783   */\n      dup6\n        /* \"#utility.yul\":9770:9792   */\n      add\n        /* \"#utility.yul\":9728:9798   */\n      tag_74\n      jump\t// in\n    tag_199:\n        /* \"#utility.yul\":9721:9725   */\n      0x60\n        /* \"#utility.yul\":9714:9719   */\n      dup4\n        /* \"#utility.yul\":9710:9726   */\n      add\n        /* \"#utility.yul\":9703:9799   */\n      mstore\n        /* \"#utility.yul\":9480:9810   */\n      pop\n        /* \"#utility.yul\":9876:9879   */\n      0x80\n        /* \"#utility.yul\":9918:9975   */\n      tag_200\n        /* \"#utility.yul\":9971:9974   */\n      dup5\n        /* \"#utility.yul\":9962:9968   */\n      dup3\n        /* \"#utility.yul\":9951:9960   */\n      dup6\n        /* \"#utility.yul\":9947:9969   */\n      add\n        /* \"#utility.yul\":9918:9975   */\n      tag_78\n      jump\t// in\n    tag_200:\n        /* \"#utility.yul\":9911:9915   */\n      0x80\n        /* \"#utility.yul\":9904:9909   */\n      dup4\n        /* \"#utility.yul\":9900:9916   */\n      add\n        /* \"#utility.yul\":9893:9976   */\n      mstore\n        /* \"#utility.yul\":9820:9987   */\n      pop\n        /* \"#utility.yul\":10053:10056   */\n      0xa0\n        /* \"#utility.yul\":10095:10152   */\n      tag_201\n        /* \"#utility.yul\":10148:10151   */\n      dup5\n        /* \"#utility.yul\":10139:10145   */\n      dup3\n        /* \"#utility.yul\":10128:10137   */\n      dup6\n        /* \"#utility.yul\":10124:10146   */\n      add\n        /* \"#utility.yul\":10095:10152   */\n      tag_78\n      jump\t// in\n    tag_201:\n        /* \"#utility.yul\":10088:10092   */\n      0xa0\n        /* \"#utility.yul\":10081:10086   */\n      dup4\n        /* \"#utility.yul\":10077:10093   */\n      add\n        /* \"#utility.yul\":10070:10153   */\n      mstore\n        /* \"#utility.yul\":9997:10164   */\n      pop\n        /* \"#utility.yul\":10227:10230   */\n      0xc0\n        /* \"#utility.yul\":10269:10326   */\n      tag_202\n        /* \"#utility.yul\":10322:10325   */\n      dup5\n        /* \"#utility.yul\":10313:10319   */\n      dup3\n        /* \"#utility.yul\":10302:10311   */\n      dup6\n        /* \"#utility.yul\":10298:10320   */\n      add\n        /* \"#utility.yul\":10269:10326   */\n      tag_78\n      jump\t// in\n    tag_202:\n        /* \"#utility.yul\":10262:10266   */\n      0xc0\n        /* \"#utility.yul\":10255:10260   */\n      dup4\n        /* \"#utility.yul\":10251:10267   */\n      add\n        /* \"#utility.yul\":10244:10327   */\n      mstore\n        /* \"#utility.yul\":10174:10338   */\n      pop\n        /* \"#utility.yul\":10403:10406   */\n      0xe0\n        /* \"#utility.yul\":10445:10502   */\n      tag_203\n        /* \"#utility.yul\":10498:10501   */\n      dup5\n        /* \"#utility.yul\":10489:10495   */\n      dup3\n        /* \"#utility.yul\":10478:10487   */\n      dup6\n        /* \"#utility.yul\":10474:10496   */\n      add\n        /* \"#utility.yul\":10445:10502   */\n      tag_78\n      jump\t// in\n    tag_203:\n        /* \"#utility.yul\":10438:10442   */\n      0xe0\n        /* \"#utility.yul\":10431:10436   */\n      dup4\n        /* \"#utility.yul\":10427:10443   */\n      add\n        /* \"#utility.yul\":10420:10503   */\n      mstore\n        /* \"#utility.yul\":10348:10514   */\n      pop\n        /* \"#utility.yul\":8353:10521   */\n      swap3\n      swap2\n      pop\n      pop\n      jump\t// out\n        /* \"#utility.yul\":10527:11077   */\n    tag_28:\n        /* \"#utility.yul\":10620:10626   */\n      0x00\n        /* \"#utility.yul\":10669:10671   */\n      0x20\n        /* \"#utility.yul\":10657:10666   */\n      dup3\n        /* \"#utility.yul\":10648:10655   */\n      dup5\n        /* \"#utility.yul\":10644:10667   */\n      sub\n        /* \"#utility.yul\":10640:10672   */\n      slt\n        /* \"#utility.yul\":10637:10756   */\n      iszero\n      tag_205\n      jumpi\n        /* \"#utility.yul\":10675:10754   */\n      tag_206\n      tag_51\n      jump\t// in\n    tag_206:\n        /* \"#utility.yul\":10637:10756   */\n    tag_205:\n        /* \"#utility.yul\":10816:10817   */\n      0x00\n        /* \"#utility.yul\":10805:10814   */\n      dup3\n        /* \"#utility.yul\":10801:10818   */\n      add\n        /* \"#utility.yul\":10795:10819   */\n      mload\n        /* \"#utility.yul\":10846:10864   */\n      0xffffffffffffffff\n        /* \"#utility.yul\":10838:10844   */\n      dup2\n        /* \"#utility.yul\":10835:10865   */\n      gt\n        /* \"#utility.yul\":10832:10949   */\n      iszero\n      tag_207\n      jumpi\n        /* \"#utility.yul\":10868:10947   */\n      tag_208\n      tag_52\n      jump\t// in\n    tag_208:\n        /* \"#utility.yul\":10832:10949   */\n    tag_207:\n        /* \"#utility.yul\":10973:11060   */\n      tag_209\n        /* \"#utility.yul\":11052:11059   */\n      dup5\n        /* \"#utility.yul\":11043:11049   */\n      dup3\n        /* \"#utility.yul\":11032:11041   */\n      dup6\n        /* \"#utility.yul\":11028:11050   */\n      add\n        /* \"#utility.yul\":10973:11060   */\n      tag_79\n      jump\t// in\n    tag_209:\n        /* \"#utility.yul\":10963:11060   */\n      swap2\n      pop\n        /* \"#utility.yul\":10766:11070   */\n      pop\n        /* \"#utility.yul\":10527:11077   */\n      swap3\n      swap2\n      pop\n      pop\n      jump\t// out\n        /* \"#utility.yul\":11083:11246   */\n    tag_80:\n        /* \"#utility.yul\":11223:11238   */\n      0x4e6f7420636f6e73656e74656400000000000000000000000000000000000000\n        /* \"#utility.yul\":11219:11220   */\n      0x00\n        /* \"#utility.yul\":11211:11217   */\n      dup3\n        /* \"#utility.yul\":11207:11221   */\n      add\n        /* \"#utility.yul\":11200:11239   */\n      mstore\n        /* \"#utility.yul\":11083:11246   */\n      pop\n      jump\t// out\n        /* \"#utility.yul\":11252:11618   */\n    tag_81:\n        /* \"#utility.yul\":11394:11397   */\n      0x00\n        /* \"#utility.yul\":11415:11482   */\n      tag_212\n        /* \"#utility.yul\":11479:11481   */\n      0x0d\n        /* \"#utility.yul\":11474:11477   */\n      dup4\n        /* \"#utility.yul\":11415:11482   */\n      tag_66\n      jump\t// in\n    tag_212:\n        /* \"#utility.yul\":11408:11482   */\n      swap2\n      pop\n        /* \"#utility.yul\":11491:11584   */\n      tag_213\n        /* \"#utility.yul\":11580:11583   */\n      dup3\n        /* \"#utility.yul\":11491:11584   */\n      tag_80\n      jump\t// in\n    tag_213:\n        /* \"#utility.yul\":11609:11611   */\n      0x20\n        /* \"#utility.yul\":11604:11607   */\n      dup3\n        /* \"#utility.yul\":11600:11612   */\n      add\n        /* \"#utility.yul\":11593:11612   */\n      swap1\n      pop\n        /* \"#utility.yul\":11252:11618   */\n      swap2\n      swap1\n      pop\n      jump\t// out\n        /* \"#utility.yul\":11624:12043   */\n    tag_31:\n        /* \"#utility.yul\":11790:11794   */\n      0x00\n        /* \"#utility.yul\":11828:11830   */\n      0x20\n        /* \"#utility.yul\":11817:11826   */\n      dup3\n        /* \"#utility.yul\":11813:11831   */\n      add\n        /* \"#utility.yul\":11805:11831   */\n      swap1\n      pop\n        /* \"#utility.yul\":11877:11886   */\n      dup2\n        /* \"#utility.yul\":11871:11875   */\n      dup2\n        /* \"#utility.yul\":11867:11887   */\n      sub\n        /* \"#utility.yul\":11863:11864   */\n      0x00\n        /* \"#utility.yul\":11852:11861   */\n      dup4\n        /* \"#utility.yul\":11848:11865   */\n      add\n        /* \"#utility.yul\":11841:11888   */\n      mstore\n        /* \"#utility.yul\":11905:12036   */\n      tag_215\n        /* \"#utility.yul\":12031:12035   */\n      dup2\n        /* \"#utility.yul\":11905:12036   */\n      tag_81\n      jump\t// in\n    tag_215:\n        /* \"#utility.yul\":11897:12036   */\n      swap1\n      pop\n        /* \"#utility.yul\":11624:12043   */\n      swap2\n      swap1\n      pop\n      jump\t// out\n        /* \"#utility.yul\":12049:12282   */\n    tag_82:\n        /* \"#utility.yul\":12189:12223   */\n      0x4f7267616e20686173206265656e206576616c756174656420616e6420676976\n        /* \"#utility.yul\":12185:12186   */\n      0x00\n        /* \"#utility.yul\":12177:12183   */\n      dup3\n        /* \"#utility.yul\":12173:12187   */\n      add\n        /* \"#utility.yul\":12166:12224   */\n      mstore\n        /* \"#utility.yul\":12258:12274   */\n      0x656e206120636f6e646974696f6e000000000000000000000000000000000000\n        /* \"#utility.yul\":12253:12255   */\n      0x20\n        /* \"#utility.yul\":12245:12251   */\n      dup3\n        /* \"#utility.yul\":12241:12256   */\n      add\n        /* \"#utility.yul\":12234:12275   */\n      mstore\n        /* \"#utility.yul\":12049:12282   */\n      pop\n      jump\t// out\n        /* \"#utility.yul\":12288:12654   */\n    tag_83:\n        /* \"#utility.yul\":12430:12433   */\n      0x00\n        /* \"#utility.yul\":12451:12518   */\n      tag_218\n        /* \"#utility.yul\":12515:12517   */\n      0x2e\n        /* \"#utility.yul\":12510:12513   */\n      dup4\n        /* \"#utility.yul\":12451:12518   */\n      tag_66\n      jump\t// in\n    tag_218:\n        /* \"#utility.yul\":12444:12518   */\n      swap2\n      pop\n        /* \"#utility.yul\":12527:12620   */\n      tag_219\n        /* \"#utility.yul\":12616:12619   */\n      dup3\n        /* \"#utility.yul\":12527:12620   */\n      tag_82\n      jump\t// in\n    tag_219:\n        /* \"#utility.yul\":12645:12647   */\n      0x40\n        /* \"#utility.yul\":12640:12643   */\n      dup3\n        /* \"#utility.yul\":12636:12648   */\n      add\n        /* \"#utility.yul\":12629:12648   */\n      swap1\n      pop\n        /* \"#utility.yul\":12288:12654   */\n      swap2\n      swap1\n      pop\n      jump\t// out\n        /* \"#utility.yul\":12660:13079   */\n    tag_34:\n        /* \"#utility.yul\":12826:12830   */\n      0x00\n        /* \"#utility.yul\":12864:12866   */\n      0x20\n        /* \"#utility.yul\":12853:12862   */\n      dup3\n        /* \"#utility.yul\":12849:12867   */\n      add\n        /* \"#utility.yul\":12841:12867   */\n      swap1\n      pop\n        /* \"#utility.yul\":12913:12922   */\n      dup2\n        /* \"#utility.yul\":12907:12911   */\n      dup2\n        /* \"#utility.yul\":12903:12923   */\n      sub\n        /* \"#utility.yul\":12899:12900   */\n      0x00\n        /* \"#utility.yul\":12888:12897   */\n      dup4\n        /* \"#utility.yul\":12884:12901   */\n      add\n        /* \"#utility.yul\":12877:12924   */\n      mstore\n        /* \"#utility.yul\":12941:13072   */\n      tag_221\n        /* \"#utility.yul\":13067:13071   */\n      dup2\n        /* \"#utility.yul\":12941:13072   */\n      tag_83\n      jump\t// in\n    tag_221:\n        /* \"#utility.yul\":12933:13072   */\n      swap1\n      pop\n        /* \"#utility.yul\":12660:13079   */\n      swap2\n      swap1\n      pop\n      jump\t// out\n        /* \"#utility.yul\":13085:13184   */\n    tag_84:\n        /* \"#utility.yul\":13137:13143   */\n      0x00\n        /* \"#utility.yul\":13171:13176   */\n      dup2\n        /* \"#utility.yul\":13165:13177   */\n      mload\n        /* \"#utility.yul\":13155:13177   */\n      swap1\n      pop\n        /* \"#utility.yul\":13085:13184   */\n      swap2\n      swap1\n      pop\n      jump\t// out\n        /* \"#utility.yul\":13190:13349   */\n    tag_85:\n        /* \"#utility.yul\":13264:13275   */\n      0x00\n        /* \"#utility.yul\":13298:13304   */\n      dup3\n        /* \"#utility.yul\":13293:13296   */\n      dup3\n        /* \"#utility.yul\":13286:13305   */\n      mstore\n        /* \"#utility.yul\":13338:13342   */\n      0x20\n        /* \"#utility.yul\":13333:13336   */\n      dup3\n        /* \"#utility.yul\":13329:13343   */\n      add\n        /* \"#utility.yul\":13314:13343   */\n      swap1\n      pop\n        /* \"#utility.yul\":13190:13349   */\n      swap3\n      swap2\n      pop\n      pop\n      jump\t// out\n        /* \"#utility.yul\":13355:13712   */\n    tag_86:\n        /* \"#utility.yul\":13433:13436   */\n      0x00\n        /* \"#utility.yul\":13461:13500   */\n      tag_225\n        /* \"#utility.yul\":13494:13499   */\n      dup3\n        /* \"#utility.yul\":13461:13500   */\n      tag_84\n      jump\t// in\n    tag_225:\n        /* \"#utility.yul\":13516:13577   */\n      tag_226\n        /* \"#utility.yul\":13570:13576   */\n      dup2\n        /* \"#utility.yul\":13565:13568   */\n      dup6\n        /* \"#utility.yul\":13516:13577   */\n      tag_85\n      jump\t// in\n    tag_226:\n        /* \"#utility.yul\":13509:13577   */\n      swap4\n      pop\n        /* \"#utility.yul\":13586:13651   */\n      tag_227\n        /* \"#utility.yul\":13644:13650   */\n      dup2\n        /* \"#utility.yul\":13639:13642   */\n      dup6\n        /* \"#utility.yul\":13632:13636   */\n      0x20\n        /* \"#utility.yul\":13625:13630   */\n      dup7\n        /* \"#utility.yul\":13621:13637   */\n      add\n        /* \"#utility.yul\":13586:13651   */\n      tag_72\n      jump\t// in\n    tag_227:\n        /* \"#utility.yul\":13676:13705   */\n      tag_228\n        /* \"#utility.yul\":13698:13704   */\n      dup2\n        /* \"#utility.yul\":13676:13705   */\n      tag_58\n      jump\t// in\n    tag_228:\n        /* \"#utility.yul\":13671:13674   */\n      dup5\n        /* \"#utility.yul\":13667:13706   */\n      add\n        /* \"#utility.yul\":13660:13706   */\n      swap2\n      pop\n        /* \"#utility.yul\":13437:13712   */\n      pop\n        /* \"#utility.yul\":13355:13712   */\n      swap3\n      swap2\n      pop\n      pop\n      jump\t// out\n        /* \"#utility.yul\":13718:13826   */\n    tag_87:\n        /* \"#utility.yul\":13795:13819   */\n      tag_230\n        /* \"#utility.yul\":13813:13818   */\n      dup2\n        /* \"#utility.yul\":13795:13819   */\n      tag_53\n      jump\t// in\n    tag_230:\n        /* \"#utility.yul\":13790:13793   */\n      dup3\n        /* \"#utility.yul\":13783:13820   */\n      mstore\n        /* \"#utility.yul\":13718:13826   */\n      pop\n      pop\n      jump\t// out\n        /* \"#utility.yul\":13832:13931   */\n    tag_88:\n        /* \"#utility.yul\":13903:13924   */\n      tag_232\n        /* \"#utility.yul\":13918:13923   */\n      dup2\n        /* \"#utility.yul\":13903:13924   */\n      tag_76\n      jump\t// in\n    tag_232:\n        /* \"#utility.yul\":13898:13901   */\n      dup3\n        /* \"#utility.yul\":13891:13925   */\n      mstore\n        /* \"#utility.yul\":13832:13931   */\n      pop\n      pop\n      jump\t// out\n        /* \"#utility.yul\":14007:15819   */\n    tag_89:\n        /* \"#utility.yul\":14122:14125   */\n      0x00\n        /* \"#utility.yul\":14158:14164   */\n      0x0100\n        /* \"#utility.yul\":14153:14156   */\n      dup4\n        /* \"#utility.yul\":14149:14165   */\n      add\n        /* \"#utility.yul\":14252:14256   */\n      0x00\n        /* \"#utility.yul\":14245:14250   */\n      dup4\n        /* \"#utility.yul\":14241:14257   */\n      add\n        /* \"#utility.yul\":14235:14258   */\n      mload\n        /* \"#utility.yul\":14305:14308   */\n      dup5\n        /* \"#utility.yul\":14299:14303   */\n      dup3\n        /* \"#utility.yul\":14295:14309   */\n      sub\n        /* \"#utility.yul\":14288:14292   */\n      0x00\n        /* \"#utility.yul\":14283:14286   */\n      dup7\n        /* \"#utility.yul\":14279:14293   */\n      add\n        /* \"#utility.yul\":14272:14310   */\n      mstore\n        /* \"#utility.yul\":14331:14404   */\n      tag_234\n        /* \"#utility.yul\":14399:14403   */\n      dup3\n        /* \"#utility.yul\":14385:14397   */\n      dup3\n        /* \"#utility.yul\":14331:14404   */\n      tag_86\n      jump\t// in\n    tag_234:\n        /* \"#utility.yul\":14323:14404   */\n      swap2\n      pop\n        /* \"#utility.yul\":14175:14415   */\n      pop\n        /* \"#utility.yul\":14504:14508   */\n      0x20\n        /* \"#utility.yul\":14497:14502   */\n      dup4\n        /* \"#utility.yul\":14493:14509   */\n      add\n        /* \"#utility.yul\":14487:14510   */\n      mload\n        /* \"#utility.yul\":14523:14586   */\n      tag_235\n        /* \"#utility.yul\":14580:14584   */\n      0x20\n        /* \"#utility.yul\":14575:14578   */\n      dup7\n        /* \"#utility.yul\":14571:14585   */\n      add\n        /* \"#utility.yul\":14557:14569   */\n      dup3\n        /* \"#utility.yul\":14523:14586   */\n      tag_87\n      jump\t// in\n    tag_235:\n        /* \"#utility.yul\":14425:14596   */\n      pop\n        /* \"#utility.yul\":14683:14687   */\n      0x40\n        /* \"#utility.yul\":14676:14681   */\n      dup4\n        /* \"#utility.yul\":14672:14688   */\n      add\n        /* \"#utility.yul\":14666:14689   */\n      mload\n        /* \"#utility.yul\":14736:14739   */\n      dup5\n        /* \"#utility.yul\":14730:14734   */\n      dup3\n        /* \"#utility.yul\":14726:14740   */\n      sub\n        /* \"#utility.yul\":14719:14723   */\n      0x40\n        /* \"#utility.yul\":14714:14717   */\n      dup7\n        /* \"#utility.yul\":14710:14724   */\n      add\n        /* \"#utility.yul\":14703:14741   */\n      mstore\n        /* \"#utility.yul\":14762:14835   */\n      tag_236\n        /* \"#utility.yul\":14830:14834   */\n      dup3\n        /* \"#utility.yul\":14816:14828   */\n      dup3\n        /* \"#utility.yul\":14762:14835   */\n      tag_86\n      jump\t// in\n    tag_236:\n        /* \"#utility.yul\":14754:14835   */\n      swap2\n      pop\n        /* \"#utility.yul\":14606:14846   */\n      pop\n        /* \"#utility.yul\":14933:14937   */\n      0x60\n        /* \"#utility.yul\":14926:14931   */\n      dup4\n        /* \"#utility.yul\":14922:14938   */\n      add\n        /* \"#utility.yul\":14916:14939   */\n      mload\n        /* \"#utility.yul\":14986:14989   */\n      dup5\n        /* \"#utility.yul\":14980:14984   */\n      dup3\n        /* \"#utility.yul\":14976:14990   */\n      sub\n        /* \"#utility.yul\":14969:14973   */\n      0x60\n        /* \"#utility.yul\":14964:14967   */\n      dup7\n        /* \"#utility.yul\":14960:14974   */\n      add\n        /* \"#utility.yul\":14953:14991   */\n      mstore\n        /* \"#utility.yul\":15012:15085   */\n      tag_237\n        /* \"#utility.yul\":15080:15084   */\n      dup3\n        /* \"#utility.yul\":15066:15078   */\n      dup3\n        /* \"#utility.yul\":15012:15085   */\n      tag_86\n      jump\t// in\n    tag_237:\n        /* \"#utility.yul\":15004:15085   */\n      swap2\n      pop\n        /* \"#utility.yul\":14856:15096   */\n      pop\n        /* \"#utility.yul\":15185:15189   */\n      0x80\n        /* \"#utility.yul\":15178:15183   */\n      dup4\n        /* \"#utility.yul\":15174:15190   */\n      add\n        /* \"#utility.yul\":15168:15191   */\n      mload\n        /* \"#utility.yul\":15204:15261   */\n      tag_238\n        /* \"#utility.yul\":15255:15259   */\n      0x80\n        /* \"#utility.yul\":15250:15253   */\n      dup7\n        /* \"#utility.yul\":15246:15260   */\n      add\n        /* \"#utility.yul\":15232:15244   */\n      dup3\n        /* \"#utility.yul\":15204:15261   */\n      tag_88\n      jump\t// in\n    tag_238:\n        /* \"#utility.yul\":15106:15271   */\n      pop\n        /* \"#utility.yul\":15360:15364   */\n      0xa0\n        /* \"#utility.yul\":15353:15358   */\n      dup4\n        /* \"#utility.yul\":15349:15365   */\n      add\n        /* \"#utility.yul\":15343:15366   */\n      mload\n        /* \"#utility.yul\":15379:15436   */\n      tag_239\n        /* \"#utility.yul\":15430:15434   */\n      0xa0\n        /* \"#utility.yul\":15425:15428   */\n      dup7\n        /* \"#utility.yul\":15421:15435   */\n      add\n        /* \"#utility.yul\":15407:15419   */\n      dup3\n        /* \"#utility.yul\":15379:15436   */\n      tag_88\n      jump\t// in\n    tag_239:\n        /* \"#utility.yul\":15281:15446   */\n      pop\n        /* \"#utility.yul\":15532:15536   */\n      0xc0\n        /* \"#utility.yul\":15525:15530   */\n      dup4\n        /* \"#utility.yul\":15521:15537   */\n      add\n        /* \"#utility.yul\":15515:15538   */\n      mload\n        /* \"#utility.yul\":15551:15608   */\n      tag_240\n        /* \"#utility.yul\":15602:15606   */\n      0xc0\n        /* \"#utility.yul\":15597:15600   */\n      dup7\n        /* \"#utility.yul\":15593:15607   */\n      add\n        /* \"#utility.yul\":15579:15591   */\n      dup3\n        /* \"#utility.yul\":15551:15608   */\n      tag_88\n      jump\t// in\n    tag_240:\n        /* \"#utility.yul\":15456:15618   */\n      pop\n        /* \"#utility.yul\":15706:15710   */\n      0xe0\n        /* \"#utility.yul\":15699:15704   */\n      dup4\n        /* \"#utility.yul\":15695:15711   */\n      add\n        /* \"#utility.yul\":15689:15712   */\n      mload\n        /* \"#utility.yul\":15725:15782   */\n      tag_241\n        /* \"#utility.yul\":15776:15780   */\n      0xe0\n        /* \"#utility.yul\":15771:15774   */\n      dup7\n        /* \"#utility.yul\":15767:15781   */\n      add\n        /* \"#utility.yul\":15753:15765   */\n      dup3\n        /* \"#utility.yul\":15725:15782   */\n      tag_88\n      jump\t// in\n    tag_241:\n        /* \"#utility.yul\":15628:15792   */\n      pop\n        /* \"#utility.yul\":15809:15813   */\n      dup1\n        /* \"#utility.yul\":15802:15813   */\n      swap2\n      pop\n        /* \"#utility.yul\":14127:15819   */\n      pop\n        /* \"#utility.yul\":14007:15819   */\n      swap3\n      swap2\n      pop\n      pop\n      jump\t// out\n        /* \"#utility.yul\":15825:16300   */\n    tag_36:\n        /* \"#utility.yul\":15992:15996   */\n      0x00\n        /* \"#utility.yul\":16030:16032   */\n      0x40\n        /* \"#utility.yul\":16019:16028   */\n      dup3\n        /* \"#utility.yul\":16015:16033   */\n      add\n        /* \"#utility.yul\":16007:16033   */\n      swap1\n      pop\n        /* \"#utility.yul\":16043:16114   */\n      tag_243\n        /* \"#utility.yul\":16111:16112   */\n      0x00\n        /* \"#utility.yul\":16100:16109   */\n      dup4\n        /* \"#utility.yul\":16096:16113   */\n      add\n        /* \"#utility.yul\":16087:16093   */\n      dup6\n        /* \"#utility.yul\":16043:16114   */\n      tag_69\n      jump\t// in\n    tag_243:\n        /* \"#utility.yul\":16161:16170   */\n      dup2\n        /* \"#utility.yul\":16155:16159   */\n      dup2\n        /* \"#utility.yul\":16151:16171   */\n      sub\n        /* \"#utility.yul\":16146:16148   */\n      0x20\n        /* \"#utility.yul\":16135:16144   */\n      dup4\n        /* \"#utility.yul\":16131:16149   */\n      add\n        /* \"#utility.yul\":16124:16172   */\n      mstore\n        /* \"#utility.yul\":16189:16293   */\n      tag_244\n        /* \"#utility.yul\":16288:16292   */\n      dup2\n        /* \"#utility.yul\":16279:16285   */\n      dup5\n        /* \"#utility.yul\":16189:16293   */\n      tag_89\n      jump\t// in\n    tag_244:\n        /* \"#utility.yul\":16181:16293   */\n      swap1\n      pop\n        /* \"#utility.yul\":15825:16300   */\n      swap4\n      swap3\n      pop\n      pop\n      pop\n      jump\t// out\n        /* \"#utility.yul\":16306:16683   */\n    tag_90:\n        /* \"#utility.yul\":16394:16397   */\n      0x00\n        /* \"#utility.yul\":16422:16461   */\n      tag_246\n        /* \"#utility.yul\":16455:16460   */\n      dup3\n        /* \"#utility.yul\":16422:16461   */\n      tag_84\n      jump\t// in\n    tag_246:\n        /* \"#utility.yul\":16477:16548   */\n      tag_247\n        /* \"#utility.yul\":16541:16547   */\n      dup2\n        /* \"#utility.yul\":16536:16539   */\n      dup6\n        /* \"#utility.yul\":16477:16548   */\n      tag_66\n      jump\t// in\n    tag_247:\n        /* \"#utility.yul\":16470:16548   */\n      swap4\n      pop\n        /* \"#utility.yul\":16557:16622   */\n      tag_248\n        /* \"#utility.yul\":16615:16621   */\n      dup2\n        /* \"#utility.yul\":16610:16613   */\n      dup6\n        /* \"#utility.yul\":16603:16607   */\n      0x20\n        /* \"#utility.yul\":16596:16601   */\n      dup7\n        /* \"#utility.yul\":16592:16608   */\n      add\n        /* \"#utility.yul\":16557:16622   */\n      tag_72\n      jump\t// in\n    tag_248:\n        /* \"#utility.yul\":16647:16676   */\n      tag_249\n        /* \"#utility.yul\":16669:16675   */\n      dup2\n        /* \"#utility.yul\":16647:16676   */\n      tag_58\n      jump\t// in\n    tag_249:\n        /* \"#utility.yul\":16642:16645   */\n      dup5\n        /* \"#utility.yul\":16638:16677   */\n      add\n        /* \"#utility.yul\":16631:16677   */\n      swap2\n      pop\n        /* \"#utility.yul\":16398:16683   */\n      pop\n        /* \"#utility.yul\":16306:16683   */\n      swap3\n      swap2\n      pop\n      pop\n      jump\t// out\n        /* \"#utility.yul\":16689:17112   */\n    tag_41:\n        /* \"#utility.yul\":16830:16834   */\n      0x00\n        /* \"#utility.yul\":16868:16870   */\n      0x40\n        /* \"#utility.yul\":16857:16866   */\n      dup3\n        /* \"#utility.yul\":16853:16871   */\n      add\n        /* \"#utility.yul\":16845:16871   */\n      swap1\n      pop\n        /* \"#utility.yul\":16881:16952   */\n      tag_251\n        /* \"#utility.yul\":16949:16950   */\n      0x00\n        /* \"#utility.yul\":16938:16947   */\n      dup4\n        /* \"#utility.yul\":16934:16951   */\n      add\n        /* \"#utility.yul\":16925:16931   */\n      dup6\n        /* \"#utility.yul\":16881:16952   */\n      tag_69\n      jump\t// in\n    tag_251:\n        /* \"#utility.yul\":16999:17008   */\n      dup2\n        /* \"#utility.yul\":16993:16997   */\n      dup2\n        /* \"#utility.yul\":16989:17009   */\n      sub\n        /* \"#utility.yul\":16984:16986   */\n      0x20\n        /* \"#utility.yul\":16973:16982   */\n      dup4\n        /* \"#utility.yul\":16969:16987   */\n      add\n        /* \"#utility.yul\":16962:17010   */\n      mstore\n        /* \"#utility.yul\":17027:17105   */\n      tag_252\n        /* \"#utility.yul\":17100:17104   */\n      dup2\n        /* \"#utility.yul\":17091:17097   */\n      dup5\n        /* \"#utility.yul\":17027:17105   */\n      tag_90\n      jump\t// in\n    tag_252:\n        /* \"#utility.yul\":17019:17105   */\n      swap1\n      pop\n        /* \"#utility.yul\":16689:17112   */\n      swap4\n      swap3\n      pop\n      pop\n      pop\n      jump\t// out\n\n    auxdata: 0xa2646970667358221220809859e2094837bfea2571a160f1d6a2dc0d37c585576402acb820b49d76902f64736f6c634300081a0033\n}\n",
				"bytecode": {
					"linkReferences": {},
					"object": "608060405234801561000f575f80fd5b50604051610d4a380380610d4a83398181016040528101906100319190610115565b815f806101000a81548173ffffffffffffffffffffffffffffffffffffffff021916908373ffffffffffffffffffffffffffffffffffffffff1602179055508060015f6101000a81548173ffffffffffffffffffffffffffffffffffffffff021916908373ffffffffffffffffffffffffffffffffffffffff1602179055505050610153565b5f80fd5b5f73ffffffffffffffffffffffffffffffffffffffff82169050919050565b5f6100e4826100bb565b9050919050565b6100f4816100da565b81146100fe575f80fd5b50565b5f8151905061010f816100eb565b92915050565b5f806040838503121561012b5761012a6100b7565b5b5f61013885828601610101565b925050602061014985828601610101565b9150509250929050565b610bea806101605f395ff3fe608060405234801561000f575f80fd5b506004361061003f575f3560e01c806355a373d6146100435780636292bfe914610061578063dd81afdd1461007f575b5f80fd5b61004b61009b565b6040516100589190610404565b60405180910390f35b6100696100c0565b604051610076919061043d565b60405180910390f35b610099600480360381019061009491906105d6565b6100e3565b005b60015f9054906101000a900473ffffffffffffffffffffffffffffffffffffffff1681565b5f8054906101000a900473ffffffffffffffffffffffffffffffffffffffff1681565b5f8054906101000a900473ffffffffffffffffffffffffffffffffffffffff1673ffffffffffffffffffffffffffffffffffffffff163373ffffffffffffffffffffffffffffffffffffffff1614610170576040517f08c379a00000000000000000000000000000000000000000000000000000000081526004016101679061068a565b60405180910390fd5b5f60015f9054906101000a900473ffffffffffffffffffffffffffffffffffffffff1673ffffffffffffffffffffffffffffffffffffffff166310742b51846040518263ffffffff1660e01b81526004016101cb91906106b7565b5f60405180830381865afa1580156101e5573d5f803e3d5ffd5b505050506040513d5f823e3d601f19601f8201168201806040525081019061020d91906108b8565b90508060800151610253576040517f08c379a000000000000000000000000000000000000000000000000000000000815260040161024a90610949565b60405180910390fd5b8060a0015115610298576040517f08c379a000000000000000000000000000000000000000000000000000000000815260040161028f906109d7565b60405180910390fd5b81816040018190525060018160a001901515908115158152505060018160c001901515908115158152505060015f9054906101000a900473ffffffffffffffffffffffffffffffffffffffff1673ffffffffffffffffffffffffffffffffffffffff16630d47dd2684836040518363ffffffff1660e01b815260040161031f929190610b20565b5f604051808303815f87803b158015610336575f80fd5b505af1158015610348573d5f803e3d5ffd5b505050507fffea81bacdd1f0e77704853fe93b61810a458bc2500f7f36c9c3854723eda08e838360405161037d929190610b86565b60405180910390a1505050565b5f73ffffffffffffffffffffffffffffffffffffffff82169050919050565b5f819050919050565b5f6103cc6103c76103c28461038a565b6103a9565b61038a565b9050919050565b5f6103dd826103b2565b9050919050565b5f6103ee826103d3565b9050919050565b6103fe816103e4565b82525050565b5f6020820190506104175f8301846103f5565b92915050565b5f6104278261038a565b9050919050565b6104378161041d565b82525050565b5f6020820190506104505f83018461042e565b92915050565b5f604051905090565b5f80fd5b5f80fd5b5f819050919050565b61047981610467565b8114610483575f80fd5b50565b5f8135905061049481610470565b92915050565b5f80fd5b5f80fd5b5f601f19601f8301169050919050565b7f4e487b71000000000000000000000000000000000000000000000000000000005f52604160045260245ffd5b6104e8826104a2565b810181811067ffffffffffffffff82111715610507576105066104b2565b5b80604052505050565b5f610519610456565b905061052582826104df565b919050565b5f67ffffffffffffffff821115610544576105436104b2565b5b61054d826104a2565b9050602081019050919050565b828183375f83830152505050565b5f61057a6105758461052a565b610510565b9050828152602081018484840111156105965761059561049e565b5b6105a184828561055a565b509392505050565b5f82601f8301126105bd576105bc61049a565b5b81356105cd848260208601610568565b91505092915050565b5f80604083850312156105ec576105eb61045f565b5b5f6105f985828601610486565b925050602083013567ffffffffffffffff81111561061a57610619610463565b5b610626858286016105a9565b9150509250929050565b5f82825260208201905092915050565b7f4f6e6c79207370656369616c69737400000000000000000000000000000000005f82015250565b5f610674600f83610630565b915061067f82610640565b602082019050919050565b5f6020820190508181035f8301526106a181610668565b9050919050565b6106b181610467565b82525050565b5f6020820190506106ca5f8301846106a8565b92915050565b5f80fd5b5f80fd5b8281835e5f83830152505050565b5f6106f86106f38461052a565b610510565b9050828152602081018484840111156107145761071361049e565b5b61071f8482856106d8565b509392505050565b5f82601f83011261073b5761073a61049a565b5b815161074b8482602086016106e6565b91505092915050565b5f8151905061076281610470565b92915050565b5f8115159050919050565b61077c81610768565b8114610786575f80fd5b50565b5f8151905061079781610773565b92915050565b5f61010082840312156107b3576107b26106d0565b5b6107be610100610510565b90505f82015167ffffffffffffffff8111156107dd576107dc6106d4565b5b6107e984828501610727565b5f8301525060206107fc84828501610754565b602083015250604082015167ffffffffffffffff8111156108205761081f6106d4565b5b61082c84828501610727565b604083015250606082015167ffffffffffffffff8111156108505761084f6106d4565b5b61085c84828501610727565b606083015250608061087084828501610789565b60808301525060a061088484828501610789565b60a08301525060c061089884828501610789565b60c08301525060e06108ac84828501610789565b60e08301525092915050565b5f602082840312156108cd576108cc61045f565b5b5f82015167ffffffffffffffff8111156108ea576108e9610463565b5b6108f68482850161079d565b91505092915050565b7f4e6f7420636f6e73656e746564000000000000000000000000000000000000005f82015250565b5f610933600d83610630565b915061093e826108ff565b602082019050919050565b5f6020820190508181035f83015261096081610927565b9050919050565b7f4f7267616e20686173206265656e206576616c756174656420616e64206769765f8201527f656e206120636f6e646974696f6e000000000000000000000000000000000000602082015250565b5f6109c1602e83610630565b91506109cc82610967565b604082019050919050565b5f6020820190508181035f8301526109ee816109b5565b9050919050565b5f81519050919050565b5f82825260208201905092915050565b5f610a19826109f5565b610a2381856109ff565b9350610a338185602086016106d8565b610a3c816104a2565b840191505092915050565b610a5081610467565b82525050565b610a5f81610768565b82525050565b5f61010083015f8301518482035f860152610a808282610a0f565b9150506020830151610a956020860182610a47565b5060408301518482036040860152610aad8282610a0f565b91505060608301518482036060860152610ac78282610a0f565b9150506080830151610adc6080860182610a56565b5060a0830151610aef60a0860182610a56565b5060c0830151610b0260c0860182610a56565b5060e0830151610b1560e0860182610a56565b508091505092915050565b5f604082019050610b335f8301856106a8565b8181036020830152610b458184610a65565b90509392505050565b5f610b58826109f5565b610b628185610630565b9350610b728185602086016106d8565b610b7b816104a2565b840191505092915050565b5f604082019050610b995f8301856106a8565b8181036020830152610bab8184610b4e565b9050939250505056fea2646970667358221220809859e2094837bfea2571a160f1d6a2dc0d37c585576402acb820b49d76902f64736f6c634300081a0033",
					"opcodes": "PUSH1 0x80 PUSH1 0x40 MSTORE CALLVALUE DUP1 ISZERO PUSH2 0xF JUMPI PUSH0 DUP1 REVERT JUMPDEST POP PUSH1 0x40 MLOAD PUSH2 0xD4A CODESIZE SUB DUP1 PUSH2 0xD4A DUP4 CODECOPY DUP2 DUP2 ADD PUSH1 0x40 MSTORE DUP2 ADD SWAP1 PUSH2 0x31 SWAP2 SWAP1 PUSH2 0x115 JUMP JUMPDEST DUP2 PUSH0 DUP1 PUSH2 0x100 EXP DUP2 SLOAD DUP2 PUSH20 0xFFFFFFFFFFFFFFFFFFFFFFFFFFFFFFFFFFFFFFFF MUL NOT AND SWAP1 DUP4 PUSH20 0xFFFFFFFFFFFFFFFFFFFFFFFFFFFFFFFFFFFFFFFF AND MUL OR SWAP1 SSTORE POP DUP1 PUSH1 0x1 PUSH0 PUSH2 0x100 EXP DUP2 SLOAD DUP2 PUSH20 0xFFFFFFFFFFFFFFFFFFFFFFFFFFFFFFFFFFFFFFFF MUL NOT AND SWAP1 DUP4 PUSH20 0xFFFFFFFFFFFFFFFFFFFFFFFFFFFFFFFFFFFFFFFF AND MUL OR SWAP1 SSTORE POP POP POP PUSH2 0x153 JUMP JUMPDEST PUSH0 DUP1 REVERT JUMPDEST PUSH0 PUSH20 0xFFFFFFFFFFFFFFFFFFFFFFFFFFFFFFFFFFFFFFFF DUP3 AND SWAP1 POP SWAP2 SWAP1 POP JUMP JUMPDEST PUSH0 PUSH2 0xE4 DUP3 PUSH2 0xBB JUMP JUMPDEST SWAP1 POP SWAP2 SWAP1 POP JUMP JUMPDEST PUSH2 0xF4 DUP2 PUSH2 0xDA JUMP JUMPDEST DUP2 EQ PUSH2 0xFE JUMPI PUSH0 DUP1 REVERT JUMPDEST POP JUMP JUMPDEST PUSH0 DUP2 MLOAD SWAP1 POP PUSH2 0x10F DUP2 PUSH2 0xEB JUMP JUMPDEST SWAP3 SWAP2 POP POP JUMP JUMPDEST PUSH0 DUP1 PUSH1 0x40 DUP4 DUP6 SUB SLT ISZERO PUSH2 0x12B JUMPI PUSH2 0x12A PUSH2 0xB7 JUMP JUMPDEST JUMPDEST PUSH0 PUSH2 0x138 DUP6 DUP3 DUP7 ADD PUSH2 0x101 JUMP JUMPDEST SWAP3 POP POP PUSH1 0x20 PUSH2 0x149 DUP6 DUP3 DUP7 ADD PUSH2 0x101 JUMP JUMPDEST SWAP2 POP POP SWAP3 POP SWAP3 SWAP1 POP JUMP JUMPDEST PUSH2 0xBEA DUP1 PUSH2 0x160 PUSH0 CODECOPY PUSH0 RETURN INVALID PUSH1 0x80 PUSH1 0x40 MSTORE CALLVALUE DUP1 ISZERO PUSH2 0xF JUMPI PUSH0 DUP1 REVERT JUMPDEST POP PUSH1 0x4 CALLDATASIZE LT PUSH2 0x3F JUMPI PUSH0 CALLDATALOAD PUSH1 0xE0 SHR DUP1 PUSH4 0x55A373D6 EQ PUSH2 0x43 JUMPI DUP1 PUSH4 0x6292BFE9 EQ PUSH2 0x61 JUMPI DUP1 PUSH4 0xDD81AFDD EQ PUSH2 0x7F JUMPI JUMPDEST PUSH0 DUP1 REVERT JUMPDEST PUSH2 0x4B PUSH2 0x9B JUMP JUMPDEST PUSH1 0x40 MLOAD PUSH2 0x58 SWAP2 SWAP1 PUSH2 0x404 JUMP JUMPDEST PUSH1 0x40 MLOAD DUP1 SWAP2 SUB SWAP1 RETURN JUMPDEST PUSH2 0x69 PUSH2 0xC0 JUMP JUMPDEST PUSH1 0x40 MLOAD PUSH2 0x76 SWAP2 SWAP1 PUSH2 0x43D JUMP JUMPDEST PUSH1 0x40 MLOAD DUP1 SWAP2 SUB SWAP1 RETURN JUMPDEST PUSH2 0x99 PUSH1 0x4 DUP1 CALLDATASIZE SUB DUP2 ADD SWAP1 PUSH2 0x94 SWAP2 SWAP1 PUSH2 0x5D6 JUMP JUMPDEST PUSH2 0xE3 JUMP JUMPDEST STOP JUMPDEST PUSH1 0x1 PUSH0 SWAP1 SLOAD SWAP1 PUSH2 0x100 EXP SWAP1 DIV PUSH20 0xFFFFFFFFFFFFFFFFFFFFFFFFFFFFFFFFFFFFFFFF AND DUP2 JUMP JUMPDEST PUSH0 DUP1 SLOAD SWAP1 PUSH2 0x100 EXP SWAP1 DIV PUSH20 0xFFFFFFFFFFFFFFFFFFFFFFFFFFFFFFFFFFFFFFFF AND DUP2 JUMP JUMPDEST PUSH0 DUP1 SLOAD SWAP1 PUSH2 0x100 EXP SWAP1 DIV PUSH20 0xFFFFFFFFFFFFFFFFFFFFFFFFFFFFFFFFFFFFFFFF AND PUSH20 0xFFFFFFFFFFFFFFFFFFFFFFFFFFFFFFFFFFFFFFFF AND CALLER PUSH20 0xFFFFFFFFFFFFFFFFFFFFFFFFFFFFFFFFFFFFFFFF AND EQ PUSH2 0x170 JUMPI PUSH1 0x40 MLOAD PUSH32 0x8C379A000000000000000000000000000000000000000000000000000000000 DUP2 MSTORE PUSH1 0x4 ADD PUSH2 0x167 SWAP1 PUSH2 0x68A JUMP JUMPDEST PUSH1 0x40 MLOAD DUP1 SWAP2 SUB SWAP1 REVERT JUMPDEST PUSH0 PUSH1 0x1 PUSH0 SWAP1 SLOAD SWAP1 PUSH2 0x100 EXP SWAP1 DIV PUSH20 0xFFFFFFFFFFFFFFFFFFFFFFFFFFFFFFFFFFFFFFFF AND PUSH20 0xFFFFFFFFFFFFFFFFFFFFFFFFFFFFFFFFFFFFFFFF AND PUSH4 0x10742B51 DUP5 PUSH1 0x40 MLOAD DUP3 PUSH4 0xFFFFFFFF AND PUSH1 0xE0 SHL DUP2 MSTORE PUSH1 0x4 ADD PUSH2 0x1CB SWAP2 SWAP1 PUSH2 0x6B7 JUMP JUMPDEST PUSH0 PUSH1 0x40 MLOAD DUP1 DUP4 SUB DUP2 DUP7 GAS STATICCALL ISZERO DUP1 ISZERO PUSH2 0x1E5 JUMPI RETURNDATASIZE PUSH0 DUP1 RETURNDATACOPY RETURNDATASIZE PUSH0 REVERT JUMPDEST POP POP POP POP PUSH1 0x40 MLOAD RETURNDATASIZE PUSH0 DUP3 RETURNDATACOPY RETURNDATASIZE PUSH1 0x1F NOT PUSH1 0x1F DUP3 ADD AND DUP3 ADD DUP1 PUSH1 0x40 MSTORE POP DUP2 ADD SWAP1 PUSH2 0x20D SWAP2 SWAP1 PUSH2 0x8B8 JUMP JUMPDEST SWAP1 POP DUP1 PUSH1 0x80 ADD MLOAD PUSH2 0x253 JUMPI PUSH1 0x40 MLOAD PUSH32 0x8C379A000000000000000000000000000000000000000000000000000000000 DUP2 MSTORE PUSH1 0x4 ADD PUSH2 0x24A SWAP1 PUSH2 0x949 JUMP JUMPDEST PUSH1 0x40 MLOAD DUP1 SWAP2 SUB SWAP1 REVERT JUMPDEST DUP1 PUSH1 0xA0 ADD MLOAD ISZERO PUSH2 0x298 JUMPI PUSH1 0x40 MLOAD PUSH32 0x8C379A000000000000000000000000000000000000000000000000000000000 DUP2 MSTORE PUSH1 0x4 ADD PUSH2 0x28F SWAP1 PUSH2 0x9D7 JUMP JUMPDEST PUSH1 0x40 MLOAD DUP1 SWAP2 SUB SWAP1 REVERT JUMPDEST DUP2 DUP2 PUSH1 0x40 ADD DUP2 SWAP1 MSTORE POP PUSH1 0x1 DUP2 PUSH1 0xA0 ADD SWAP1 ISZERO ISZERO SWAP1 DUP2 ISZERO ISZERO DUP2 MSTORE POP POP PUSH1 0x1 DUP2 PUSH1 0xC0 ADD SWAP1 ISZERO ISZERO SWAP1 DUP2 ISZERO ISZERO DUP2 MSTORE POP POP PUSH1 0x1 PUSH0 SWAP1 SLOAD SWAP1 PUSH2 0x100 EXP SWAP1 DIV PUSH20 0xFFFFFFFFFFFFFFFFFFFFFFFFFFFFFFFFFFFFFFFF AND PUSH20 0xFFFFFFFFFFFFFFFFFFFFFFFFFFFFFFFFFFFFFFFF AND PUSH4 0xD47DD26 DUP5 DUP4 PUSH1 0x40 MLOAD DUP4 PUSH4 0xFFFFFFFF AND PUSH1 0xE0 SHL DUP2 MSTORE PUSH1 0x4 ADD PUSH2 0x31F SWAP3 SWAP2 SWAP1 PUSH2 0xB20 JUMP JUMPDEST PUSH0 PUSH1 0x40 MLOAD DUP1 DUP4 SUB DUP2 PUSH0 DUP8 DUP1 EXTCODESIZE ISZERO DUP1 ISZERO PUSH2 0x336 JUMPI PUSH0 DUP1 REVERT JUMPDEST POP GAS CALL ISZERO DUP1 ISZERO PUSH2 0x348 JUMPI RETURNDATASIZE PUSH0 DUP1 RETURNDATACOPY RETURNDATASIZE PUSH0 REVERT JUMPDEST POP POP POP POP PUSH32 0xFFEA81BACDD1F0E77704853FE93B61810A458BC2500F7F36C9C3854723EDA08E DUP4 DUP4 PUSH1 0x40 MLOAD PUSH2 0x37D SWAP3 SWAP2 SWAP1 PUSH2 0xB86 JUMP JUMPDEST PUSH1 0x40 MLOAD DUP1 SWAP2 SUB SWAP1 LOG1 POP POP POP JUMP JUMPDEST PUSH0 PUSH20 0xFFFFFFFFFFFFFFFFFFFFFFFFFFFFFFFFFFFFFFFF DUP3 AND SWAP1 POP SWAP2 SWAP1 POP JUMP JUMPDEST PUSH0 DUP2 SWAP1 POP SWAP2 SWAP1 POP JUMP JUMPDEST PUSH0 PUSH2 0x3CC PUSH2 0x3C7 PUSH2 0x3C2 DUP5 PUSH2 0x38A JUMP JUMPDEST PUSH2 0x3A9 JUMP JUMPDEST PUSH2 0x38A JUMP JUMPDEST SWAP1 POP SWAP2 SWAP1 POP JUMP JUMPDEST PUSH0 PUSH2 0x3DD DUP3 PUSH2 0x3B2 JUMP JUMPDEST SWAP1 POP SWAP2 SWAP1 POP JUMP JUMPDEST PUSH0 PUSH2 0x3EE DUP3 PUSH2 0x3D3 JUMP JUMPDEST SWAP1 POP SWAP2 SWAP1 POP JUMP JUMPDEST PUSH2 0x3FE DUP2 PUSH2 0x3E4 JUMP JUMPDEST DUP3 MSTORE POP POP JUMP JUMPDEST PUSH0 PUSH1 0x20 DUP3 ADD SWAP1 POP PUSH2 0x417 PUSH0 DUP4 ADD DUP5 PUSH2 0x3F5 JUMP JUMPDEST SWAP3 SWAP2 POP POP JUMP JUMPDEST PUSH0 PUSH2 0x427 DUP3 PUSH2 0x38A JUMP JUMPDEST SWAP1 POP SWAP2 SWAP1 POP JUMP JUMPDEST PUSH2 0x437 DUP2 PUSH2 0x41D JUMP JUMPDEST DUP3 MSTORE POP POP JUMP JUMPDEST PUSH0 PUSH1 0x20 DUP3 ADD SWAP1 POP PUSH2 0x450 PUSH0 DUP4 ADD DUP5 PUSH2 0x42E JUMP JUMPDEST SWAP3 SWAP2 POP POP JUMP JUMPDEST PUSH0 PUSH1 0x40 MLOAD SWAP1 POP SWAP1 JUMP JUMPDEST PUSH0 DUP1 REVERT JUMPDEST PUSH0 DUP1 REVERT JUMPDEST PUSH0 DUP2 SWAP1 POP SWAP2 SWAP1 POP JUMP JUMPDEST PUSH2 0x479 DUP2 PUSH2 0x467 JUMP JUMPDEST DUP2 EQ PUSH2 0x483 JUMPI PUSH0 DUP1 REVERT JUMPDEST POP JUMP JUMPDEST PUSH0 DUP2 CALLDATALOAD SWAP1 POP PUSH2 0x494 DUP2 PUSH2 0x470 JUMP JUMPDEST SWAP3 SWAP2 POP POP JUMP JUMPDEST PUSH0 DUP1 REVERT JUMPDEST PUSH0 DUP1 REVERT JUMPDEST PUSH0 PUSH1 0x1F NOT PUSH1 0x1F DUP4 ADD AND SWAP1 POP SWAP2 SWAP1 POP JUMP JUMPDEST PUSH32 0x4E487B7100000000000000000000000000000000000000000000000000000000 PUSH0 MSTORE PUSH1 0x41 PUSH1 0x4 MSTORE PUSH1 0x24 PUSH0 REVERT JUMPDEST PUSH2 0x4E8 DUP3 PUSH2 0x4A2 JUMP JUMPDEST DUP2 ADD DUP2 DUP2 LT PUSH8 0xFFFFFFFFFFFFFFFF DUP3 GT OR ISZERO PUSH2 0x507 JUMPI PUSH2 0x506 PUSH2 0x4B2 JUMP JUMPDEST JUMPDEST DUP1 PUSH1 0x40 MSTORE POP POP POP JUMP JUMPDEST PUSH0 PUSH2 0x519 PUSH2 0x456 JUMP JUMPDEST SWAP1 POP PUSH2 0x525 DUP3 DUP3 PUSH2 0x4DF JUMP JUMPDEST SWAP2 SWAP1 POP JUMP JUMPDEST PUSH0 PUSH8 0xFFFFFFFFFFFFFFFF DUP3 GT ISZERO PUSH2 0x544 JUMPI PUSH2 0x543 PUSH2 0x4B2 JUMP JUMPDEST JUMPDEST PUSH2 0x54D DUP3 PUSH2 0x4A2 JUMP JUMPDEST SWAP1 POP PUSH1 0x20 DUP2 ADD SWAP1 POP SWAP2 SWAP1 POP JUMP JUMPDEST DUP3 DUP2 DUP4 CALLDATACOPY PUSH0 DUP4 DUP4 ADD MSTORE POP POP POP JUMP JUMPDEST PUSH0 PUSH2 0x57A PUSH2 0x575 DUP5 PUSH2 0x52A JUMP JUMPDEST PUSH2 0x510 JUMP JUMPDEST SWAP1 POP DUP3 DUP2 MSTORE PUSH1 0x20 DUP2 ADD DUP5 DUP5 DUP5 ADD GT ISZERO PUSH2 0x596 JUMPI PUSH2 0x595 PUSH2 0x49E JUMP JUMPDEST JUMPDEST PUSH2 0x5A1 DUP5 DUP3 DUP6 PUSH2 0x55A JUMP JUMPDEST POP SWAP4 SWAP3 POP POP POP JUMP JUMPDEST PUSH0 DUP3 PUSH1 0x1F DUP4 ADD SLT PUSH2 0x5BD JUMPI PUSH2 0x5BC PUSH2 0x49A JUMP JUMPDEST JUMPDEST DUP2 CALLDATALOAD PUSH2 0x5CD DUP5 DUP3 PUSH1 0x20 DUP7 ADD PUSH2 0x568 JUMP JUMPDEST SWAP2 POP POP SWAP3 SWAP2 POP POP JUMP JUMPDEST PUSH0 DUP1 PUSH1 0x40 DUP4 DUP6 SUB SLT ISZERO PUSH2 0x5EC JUMPI PUSH2 0x5EB PUSH2 0x45F JUMP JUMPDEST JUMPDEST PUSH0 PUSH2 0x5F9 DUP6 DUP3 DUP7 ADD PUSH2 0x486 JUMP JUMPDEST SWAP3 POP POP PUSH1 0x20 DUP4 ADD CALLDATALOAD PUSH8 0xFFFFFFFFFFFFFFFF DUP2 GT ISZERO PUSH2 0x61A JUMPI PUSH2 0x619 PUSH2 0x463 JUMP JUMPDEST JUMPDEST PUSH2 0x626 DUP6 DUP3 DUP7 ADD PUSH2 0x5A9 JUMP JUMPDEST SWAP2 POP POP SWAP3 POP SWAP3 SWAP1 POP JUMP JUMPDEST PUSH0 DUP3 DUP3 MSTORE PUSH1 0x20 DUP3 ADD SWAP1 POP SWAP3 SWAP2 POP POP JUMP JUMPDEST PUSH32 0x4F6E6C79207370656369616C6973740000000000000000000000000000000000 PUSH0 DUP3 ADD MSTORE POP JUMP JUMPDEST PUSH0 PUSH2 0x674 PUSH1 0xF DUP4 PUSH2 0x630 JUMP JUMPDEST SWAP2 POP PUSH2 0x67F DUP3 PUSH2 0x640 JUMP JUMPDEST PUSH1 0x20 DUP3 ADD SWAP1 POP SWAP2 SWAP1 POP JUMP JUMPDEST PUSH0 PUSH1 0x20 DUP3 ADD SWAP1 POP DUP2 DUP2 SUB PUSH0 DUP4 ADD MSTORE PUSH2 0x6A1 DUP2 PUSH2 0x668 JUMP JUMPDEST SWAP1 POP SWAP2 SWAP1 POP JUMP JUMPDEST PUSH2 0x6B1 DUP2 PUSH2 0x467 JUMP JUMPDEST DUP3 MSTORE POP POP JUMP JUMPDEST PUSH0 PUSH1 0x20 DUP3 ADD SWAP1 POP PUSH2 0x6CA PUSH0 DUP4 ADD DUP5 PUSH2 0x6A8 JUMP JUMPDEST SWAP3 SWAP2 POP POP JUMP JUMPDEST PUSH0 DUP1 REVERT JUMPDEST PUSH0 DUP1 REVERT JUMPDEST DUP3 DUP2 DUP4 MCOPY PUSH0 DUP4 DUP4 ADD MSTORE POP POP POP JUMP JUMPDEST PUSH0 PUSH2 0x6F8 PUSH2 0x6F3 DUP5 PUSH2 0x52A JUMP JUMPDEST PUSH2 0x510 JUMP JUMPDEST SWAP1 POP DUP3 DUP2 MSTORE PUSH1 0x20 DUP2 ADD DUP5 DUP5 DUP5 ADD GT ISZERO PUSH2 0x714 JUMPI PUSH2 0x713 PUSH2 0x49E JUMP JUMPDEST JUMPDEST PUSH2 0x71F DUP5 DUP3 DUP6 PUSH2 0x6D8 JUMP JUMPDEST POP SWAP4 SWAP3 POP POP POP JUMP JUMPDEST PUSH0 DUP3 PUSH1 0x1F DUP4 ADD SLT PUSH2 0x73B JUMPI PUSH2 0x73A PUSH2 0x49A JUMP JUMPDEST JUMPDEST DUP2 MLOAD PUSH2 0x74B DUP5 DUP3 PUSH1 0x20 DUP7 ADD PUSH2 0x6E6 JUMP JUMPDEST SWAP2 POP POP SWAP3 SWAP2 POP POP JUMP JUMPDEST PUSH0 DUP2 MLOAD SWAP1 POP PUSH2 0x762 DUP2 PUSH2 0x470 JUMP JUMPDEST SWAP3 SWAP2 POP POP JUMP JUMPDEST PUSH0 DUP2 ISZERO ISZERO SWAP1 POP SWAP2 SWAP1 POP JUMP JUMPDEST PUSH2 0x77C DUP2 PUSH2 0x768 JUMP JUMPDEST DUP2 EQ PUSH2 0x786 JUMPI PUSH0 DUP1 REVERT JUMPDEST POP JUMP JUMPDEST PUSH0 DUP2 MLOAD SWAP1 POP PUSH2 0x797 DUP2 PUSH2 0x773 JUMP JUMPDEST SWAP3 SWAP2 POP POP JUMP JUMPDEST PUSH0 PUSH2 0x100 DUP3 DUP5 SUB SLT ISZERO PUSH2 0x7B3 JUMPI PUSH2 0x7B2 PUSH2 0x6D0 JUMP JUMPDEST JUMPDEST PUSH2 0x7BE PUSH2 0x100 PUSH2 0x510 JUMP JUMPDEST SWAP1 POP PUSH0 DUP3 ADD MLOAD PUSH8 0xFFFFFFFFFFFFFFFF DUP2 GT ISZERO PUSH2 0x7DD JUMPI PUSH2 0x7DC PUSH2 0x6D4 JUMP JUMPDEST JUMPDEST PUSH2 0x7E9 DUP5 DUP3 DUP6 ADD PUSH2 0x727 JUMP JUMPDEST PUSH0 DUP4 ADD MSTORE POP PUSH1 0x20 PUSH2 0x7FC DUP5 DUP3 DUP6 ADD PUSH2 0x754 JUMP JUMPDEST PUSH1 0x20 DUP4 ADD MSTORE POP PUSH1 0x40 DUP3 ADD MLOAD PUSH8 0xFFFFFFFFFFFFFFFF DUP2 GT ISZERO PUSH2 0x820 JUMPI PUSH2 0x81F PUSH2 0x6D4 JUMP JUMPDEST JUMPDEST PUSH2 0x82C DUP5 DUP3 DUP6 ADD PUSH2 0x727 JUMP JUMPDEST PUSH1 0x40 DUP4 ADD MSTORE POP PUSH1 0x60 DUP3 ADD MLOAD PUSH8 0xFFFFFFFFFFFFFFFF DUP2 GT ISZERO PUSH2 0x850 JUMPI PUSH2 0x84F PUSH2 0x6D4 JUMP JUMPDEST JUMPDEST PUSH2 0x85C DUP5 DUP3 DUP6 ADD PUSH2 0x727 JUMP JUMPDEST PUSH1 0x60 DUP4 ADD MSTORE POP PUSH1 0x80 PUSH2 0x870 DUP5 DUP3 DUP6 ADD PUSH2 0x789 JUMP JUMPDEST PUSH1 0x80 DUP4 ADD MSTORE POP PUSH1 0xA0 PUSH2 0x884 DUP5 DUP3 DUP6 ADD PUSH2 0x789 JUMP JUMPDEST PUSH1 0xA0 DUP4 ADD MSTORE POP PUSH1 0xC0 PUSH2 0x898 DUP5 DUP3 DUP6 ADD PUSH2 0x789 JUMP JUMPDEST PUSH1 0xC0 DUP4 ADD MSTORE POP PUSH1 0xE0 PUSH2 0x8AC DUP5 DUP3 DUP6 ADD PUSH2 0x789 JUMP JUMPDEST PUSH1 0xE0 DUP4 ADD MSTORE POP SWAP3 SWAP2 POP POP JUMP JUMPDEST PUSH0 PUSH1 0x20 DUP3 DUP5 SUB SLT ISZERO PUSH2 0x8CD JUMPI PUSH2 0x8CC PUSH2 0x45F JUMP JUMPDEST JUMPDEST PUSH0 DUP3 ADD MLOAD PUSH8 0xFFFFFFFFFFFFFFFF DUP2 GT ISZERO PUSH2 0x8EA JUMPI PUSH2 0x8E9 PUSH2 0x463 JUMP JUMPDEST JUMPDEST PUSH2 0x8F6 DUP5 DUP3 DUP6 ADD PUSH2 0x79D JUMP JUMPDEST SWAP2 POP POP SWAP3 SWAP2 POP POP JUMP JUMPDEST PUSH32 0x4E6F7420636F6E73656E74656400000000000000000000000000000000000000 PUSH0 DUP3 ADD MSTORE POP JUMP JUMPDEST PUSH0 PUSH2 0x933 PUSH1 0xD DUP4 PUSH2 0x630 JUMP JUMPDEST SWAP2 POP PUSH2 0x93E DUP3 PUSH2 0x8FF JUMP JUMPDEST PUSH1 0x20 DUP3 ADD SWAP1 POP SWAP2 SWAP1 POP JUMP JUMPDEST PUSH0 PUSH1 0x20 DUP3 ADD SWAP1 POP DUP2 DUP2 SUB PUSH0 DUP4 ADD MSTORE PUSH2 0x960 DUP2 PUSH2 0x927 JUMP JUMPDEST SWAP1 POP SWAP2 SWAP1 POP JUMP JUMPDEST PUSH32 0x4F7267616E20686173206265656E206576616C756174656420616E6420676976 PUSH0 DUP3 ADD MSTORE PUSH32 0x656E206120636F6E646974696F6E000000000000000000000000000000000000 PUSH1 0x20 DUP3 ADD MSTORE POP JUMP JUMPDEST PUSH0 PUSH2 0x9C1 PUSH1 0x2E DUP4 PUSH2 0x630 JUMP JUMPDEST SWAP2 POP PUSH2 0x9CC DUP3 PUSH2 0x967 JUMP JUMPDEST PUSH1 0x40 DUP3 ADD SWAP1 POP SWAP2 SWAP1 POP JUMP JUMPDEST PUSH0 PUSH1 0x20 DUP3 ADD SWAP1 POP DUP2 DUP2 SUB PUSH0 DUP4 ADD MSTORE PUSH2 0x9EE DUP2 PUSH2 0x9B5 JUMP JUMPDEST SWAP1 POP SWAP2 SWAP1 POP JUMP JUMPDEST PUSH0 DUP2 MLOAD SWAP1 POP SWAP2 SWAP1 POP JUMP JUMPDEST PUSH0 DUP3 DUP3 MSTORE PUSH1 0x20 DUP3 ADD SWAP1 POP SWAP3 SWAP2 POP POP JUMP JUMPDEST PUSH0 PUSH2 0xA19 DUP3 PUSH2 0x9F5 JUMP JUMPDEST PUSH2 0xA23 DUP2 DUP6 PUSH2 0x9FF JUMP JUMPDEST SWAP4 POP PUSH2 0xA33 DUP2 DUP6 PUSH1 0x20 DUP7 ADD PUSH2 0x6D8 JUMP JUMPDEST PUSH2 0xA3C DUP2 PUSH2 0x4A2 JUMP JUMPDEST DUP5 ADD SWAP2 POP POP SWAP3 SWAP2 POP POP JUMP JUMPDEST PUSH2 0xA50 DUP2 PUSH2 0x467 JUMP JUMPDEST DUP3 MSTORE POP POP JUMP JUMPDEST PUSH2 0xA5F DUP2 PUSH2 0x768 JUMP JUMPDEST DUP3 MSTORE POP POP JUMP JUMPDEST PUSH0 PUSH2 0x100 DUP4 ADD PUSH0 DUP4 ADD MLOAD DUP5 DUP3 SUB PUSH0 DUP7 ADD MSTORE PUSH2 0xA80 DUP3 DUP3 PUSH2 0xA0F JUMP JUMPDEST SWAP2 POP POP PUSH1 0x20 DUP4 ADD MLOAD PUSH2 0xA95 PUSH1 0x20 DUP7 ADD DUP3 PUSH2 0xA47 JUMP JUMPDEST POP PUSH1 0x40 DUP4 ADD MLOAD DUP5 DUP3 SUB PUSH1 0x40 DUP7 ADD MSTORE PUSH2 0xAAD DUP3 DUP3 PUSH2 0xA0F JUMP JUMPDEST SWAP2 POP POP PUSH1 0x60 DUP4 ADD MLOAD DUP5 DUP3 SUB PUSH1 0x60 DUP7 ADD MSTORE PUSH2 0xAC7 DUP3 DUP3 PUSH2 0xA0F JUMP JUMPDEST SWAP2 POP POP PUSH1 0x80 DUP4 ADD MLOAD PUSH2 0xADC PUSH1 0x80 DUP7 ADD DUP3 PUSH2 0xA56 JUMP JUMPDEST POP PUSH1 0xA0 DUP4 ADD MLOAD PUSH2 0xAEF PUSH1 0xA0 DUP7 ADD DUP3 PUSH2 0xA56 JUMP JUMPDEST POP PUSH1 0xC0 DUP4 ADD MLOAD PUSH2 0xB02 PUSH1 0xC0 DUP7 ADD DUP3 PUSH2 0xA56 JUMP JUMPDEST POP PUSH1 0xE0 DUP4 ADD MLOAD PUSH2 0xB15 PUSH1 0xE0 DUP7 ADD DUP3 PUSH2 0xA56 JUMP JUMPDEST POP DUP1 SWAP2 POP POP SWAP3 SWAP2 POP POP JUMP JUMPDEST PUSH0 PUSH1 0x40 DUP3 ADD SWAP1 POP PUSH2 0xB33 PUSH0 DUP4 ADD DUP6 PUSH2 0x6A8 JUMP JUMPDEST DUP2 DUP2 SUB PUSH1 0x20 DUP4 ADD MSTORE PUSH2 0xB45 DUP2 DUP5 PUSH2 0xA65 JUMP JUMPDEST SWAP1 POP SWAP4 SWAP3 POP POP POP JUMP JUMPDEST PUSH0 PUSH2 0xB58 DUP3 PUSH2 0x9F5 JUMP JUMPDEST PUSH2 0xB62 DUP2 DUP6 PUSH2 0x630 JUMP JUMPDEST SWAP4 POP PUSH2 0xB72 DUP2 DUP6 PUSH1 0x20 DUP7 ADD PUSH2 0x6D8 JUMP JUMPDEST PUSH2 0xB7B DUP2 PUSH2 0x4A2 JUMP JUMPDEST DUP5 ADD SWAP2 POP POP SWAP3 SWAP2 POP POP JUMP JUMPDEST PUSH0 PUSH1 0x40 DUP3 ADD SWAP1 POP PUSH2 0xB99 PUSH0 DUP4 ADD DUP6 PUSH2 0x6A8 JUMP JUMPDEST DUP2 DUP2 SUB PUSH1 0x20 DUP4 ADD MSTORE PUSH2 0xBAB DUP2 DUP5 PUSH2 0xB4E JUMP JUMPDEST SWAP1 POP SWAP4 SWAP3 POP POP POP JUMP INVALID LOG2 PUSH5 0x6970667358 0x22 SLT KECCAK256 DUP1 SWAP9 MSIZE 0xE2 MULMOD BASEFEE CALLDATACOPY 0xBF 0xEA 0x25 PUSH18 0xA160F1D6A2DC0D37C585576402ACB820B49D PUSH23 0x902F64736F6C634300081A003300000000000000000000 "
				},
				"gasEstimates": {
					"creation": {
						"codeDepositCost": "610000",
						"executionCost": "infinite",
						"totalCost": "infinite"
					},
					"external": {
						"evaluate(uint256,string)": "infinite",
						"specialist()": "2505",
						"tokenContract()": "infinite"
					}
				},
				"methodIdentifiers": {
					"evaluate(uint256,string)": "dd81afdd",
					"specialist()": "6292bfe9",
					"tokenContract()": "55a373d6"
				}
			},
			"storageLayout": {
				"storage": [
					{
						"astId": 37,
						"contract": "EvaluateContract.sol:EvaluateContract",
						"label": "specialist",
						"offset": 0,
						"slot": "0",
						"type": "t_address"
					},
					{
						"astId": 40,
						"contract": "EvaluateContract.sol:EvaluateContract",
						"label": "tokenContract",
						"offset": 0,
						"slot": "1",
						"type": "t_contract(ITokenContract)35"
					}
				],
				"types": {
					"t_address": {
						"encoding": "inplace",
						"label": "address",
						"numberOfBytes": "20"
					},
					"t_contract(ITokenContract)35": {
						"encoding": "inplace",
						"label": "contract ITokenContract",
						"numberOfBytes": "20"
					}
				}
			},
			"userdoc": {
				"kind": "user",
				"methods": {
					"evaluate(uint256,string)": {
						"notice": "Evaluates a donated organ and updates its status."
					}
				},
				"version": 1
			}
		}
	}
}