{
	"data": {
		"bytecode": {
			"linkReferences": {},
			"object": "6080604052348015600e575f5ffd5b50335f5f6101000a81548173ffffffffffffffffffffffffffffffffffffffff021916908373ffffffffffffffffffffffffffffffffffffffff160217905550611c218061005b5f395ff3fe608060405234801561000f575f5ffd5b50600436106100e8575f3560e01c80635be2218b1161008a5780638af88a5c116100645780638af88a5c14610250578063c58343ef1461026c578063d7043cb01461029c578063e7da5328146102ba576100e8565b80635be2218b146101e5578063612597451461020157806381d12c581461021f576100e8565b8063125f02bb116100c6578063125f02bb146101565780632f045b02146101745780634fbd241d146101905780635badbe4c146101c7576100e8565b8063098809d7146100ec5780630d47dd261461010a57806310742b5114610126575b5f5ffd5b6100f46102d8565b6040516101019190610f07565b60405180910390f35b610124600480360381019061011f91906111ef565b6102de565b005b610140600480360381019061013b9190611249565b6103c0565b60405161014d91906113ad565b60405180910390f35b61015e610610565b60405161016b9190610f07565b60405180910390f35b61018e600480360381019061018991906113cd565b610616565b005b6101aa60048036038101906101a59190611249565b6106e1565b6040516101be98979695949392919061147e565b60405180910390f35b6101cf6108ea565b6040516101dc9190610f07565b60405180910390f35b6101ff60048036038101906101fa9190611578565b6108f0565b005b610209610aee565b6040516102169190610f07565b60405180910390f35b61023960048036038101906102349190611249565b610af4565b6040516102479291906115d2565b60405180910390f35b61026a60048036038101906102659190611600565b610ba6565b005b61028660048036038101906102819190611249565b610da6565b6040516102939190611694565b60405180910390f35b6102a4610e7a565b6040516102b19190610f07565b60405180910390f35b6102c2610e83565b6040516102cf9190610f07565b60405180910390f35b60035481565b8060025f8481526020019081526020015f205f820151815f01908161030391906118b1565b5060208201518160010155604082015181600201908161032391906118b1565b50606082015181600301908161033991906118b1565b506080820151816004015f6101000a81548160ff02191690831515021790555060a08201518160040160016101000a81548160ff02191690831515021790555060c08201518160040160026101000a81548160ff02191690831515021790555060e08201518160040160036101000a81548160ff0219169083151502179055509050505050565b6103c8610e8c565b60025f8381526020019081526020015f20604051806101000160405290815f820180546103f4906116e1565b80601f0160208091040260200160405190810160405280929190818152602001828054610420906116e1565b801561046b5780601f106104425761010080835404028352916020019161046b565b820191905f5260205f20905b81548152906001019060200180831161044e57829003601f168201915b505050505081526020016001820154815260200160028201805461048e906116e1565b80601f01602080910402602001604051908101604052809291908181526020018280546104ba906116e1565b80156105055780601f106104dc57610100808354040283529160200191610505565b820191905f5260205f20905b8154815290600101906020018083116104e857829003601f168201915b5050505050815260200160038201805461051e906116e1565b80601f016020809104026020016040519081016040528092919081815260200182805461054a906116e1565b80156105955780601f1061056c57610100808354040283529160200191610595565b820191905f5260205f20905b81548152906001019060200180831161057857829003601f168201915b50505050508152602001600482015f9054906101000a900460ff161515151581526020016004820160019054906101000a900460ff161515151581526020016004820160029054906101000a900460ff161515151581526020016004820160039054906101000a900460ff1615151515815250509050919050565b60045481565b60055f815480929190610628906119ad565b919050555060065f81548092919061063f906119ad565b9190505550604051806040016040528083815260200182151581525060015f60065481526020019081526020015f205f820151815f01908161068191906118b1565b506020820151816001015f6101000a81548160ff0219169083151502179055509050507f8214cb7208c019ae63f65fbc03ff1306dec9260c12e3963be9057fb04d6c218b82826040516106d59291906115d2565b60405180910390a15050565b6002602052805f5260405f205f91509050805f018054610700906116e1565b80601f016020809104026020016040519081016040528092919081815260200182805461072c906116e1565b80156107775780601f1061074e57610100808354040283529160200191610777565b820191905f5260205f20905b81548152906001019060200180831161075a57829003601f168201915b505050505090806001015490806002018054610792906116e1565b80601f01602080910402602001604051908101604052809291908181526020018280546107be906116e1565b80156108095780601f106107e057610100808354040283529160200191610809565b820191905f5260205f20905b8154815290600101906020018083116107ec57829003601f168201915b50505050509080600301805461081e906116e1565b80601f016020809104026020016040519081016040528092919081815260200182805461084a906116e1565b80156108955780601f1061086c57610100808354040283529160200191610895565b820191905f5260205f20905b81548152906001019060200180831161087857829003601f168201915b505050505090806004015f9054906101000a900460ff16908060040160019054906101000a900460ff16908060040160029054906101000a900460ff16908060040160039054906101000a900460ff16905088565b60055481565b5f600190505b6003548111610ad2575f151560025f8381526020019081526020015f2060040160039054906101000a900460ff16151514801561095757506001151560025f8381526020019081526020015f206004015f9054906101000a900460ff161515145b801561098857506001151560025f8381526020019081526020015f2060040160019054906101000a900460ff161515145b80156109b957506001151560025f8381526020019081526020015f2060040160029054906101000a900460ff161515145b15610abf578160015f8581526020019081526020015f205f820151815f0190816109e391906118b1565b506020820151816001015f6101000a81548160ff021916908315150217905550905050815f015160025f8381526020019081526020015f206003019081610a2a91906118b1565b50600160025f8381526020019081526020015f2060040160036101000a81548160ff02191690831515021790555060045f815480929190610a6a906119f4565b91905055507f5f5f1b47c5bd4a71140c85ad2612a7fc179f12a94ecb492d109dea8b98b4d5b38360015f8681526020019081526020015f205f01604051610ab2929190611a9c565b60405180910390a1610ad2565b8080610aca906119ad565b9150506108f6565b5060055f815480929190610ae5906119f4565b91905055505050565b60065481565b6001602052805f5260405f205f91509050805f018054610b13906116e1565b80601f0160208091040260200160405190810160405280929190818152602001828054610b3f906116e1565b8015610b8a5780601f10610b6157610100808354040283529160200191610b8a565b820191905f5260205f20905b815481529060010190602001808311610b6d57829003601f168201915b505050505090806001015f9054906101000a900460ff16905082565b60035f815480929190610bb8906119ad565b919050555060045f815480929190610bcf906119ad565b91905055506040518061010001604052808381526020018281526020016040518060400160405280600f81526020017f546f206265206576616c7561746564000000000000000000000000000000000081525081526020016040518060400160405280600e81526020017f546f2062652061737369676e656400000000000000000000000000000000000081525081526020016001151581526020015f151581526020015f151581526020015f151581525060025f60035481526020019081526020015f205f820151815f019081610ca791906118b1565b50602082015181600101556040820151816002019081610cc791906118b1565b506060820151816003019081610cdd91906118b1565b506080820151816004015f6101000a81548160ff02191690831515021790555060a08201518160040160016101000a81548160ff02191690831515021790555060c08201518160040160026101000a81548160ff02191690831515021790555060e08201518160040160036101000a81548160ff0219169083151502179055509050507f0216ea2081e6ea51306ad90d22fb212f034e7246f7e718ecc8caf5e36a5a9d22828260015f5f5f604051610d9a96959493929190611b5e565b60405180910390a15050565b610dae610ed4565b60015f8381526020019081526020015f206040518060400160405290815f82018054610dd9906116e1565b80601f0160208091040260200160405190810160405280929190818152602001828054610e05906116e1565b8015610e505780601f10610e2757610100808354040283529160200191610e50565b820191905f5260205f20905b815481529060010190602001808311610e3357829003601f168201915b50505050508152602001600182015f9054906101000a900460ff1615151515815250509050919050565b5f600354905090565b5f600454905090565b604051806101000160405280606081526020015f815260200160608152602001606081526020015f151581526020015f151581526020015f151581526020015f151581525090565b6040518060400160405280606081526020015f151581525090565b5f819050919050565b610f0181610eef565b82525050565b5f602082019050610f1a5f830184610ef8565b92915050565b5f604051905090565b5f5ffd5b5f5ffd5b610f3a81610eef565b8114610f44575f5ffd5b50565b5f81359050610f5581610f31565b92915050565b5f5ffd5b5f601f19601f8301169050919050565b7f4e487b71000000000000000000000000000000000000000000000000000000005f52604160045260245ffd5b610fa582610f5f565b810181811067ffffffffffffffff82111715610fc457610fc3610f6f565b5b80604052505050565b5f610fd6610f20565b9050610fe28282610f9c565b919050565b5f5ffd5b5f5ffd5b5f5ffd5b5f67ffffffffffffffff82111561100d5761100c610f6f565b5b61101682610f5f565b9050602081019050919050565b828183375f83830152505050565b5f61104361103e84610ff3565b610fcd565b90508281526020810184848401111561105f5761105e610fef565b5b61106a848285611023565b509392505050565b5f82601f83011261108657611085610feb565b5b8135611096848260208601611031565b91505092915050565b5f8115159050919050565b6110b38161109f565b81146110bd575f5ffd5b50565b5f813590506110ce816110aa565b92915050565b5f61010082840312156110ea576110e9610f5b565b5b6110f5610100610fcd565b90505f82013567ffffffffffffffff81111561111457611113610fe7565b5b61112084828501611072565b5f83015250602061113384828501610f47565b602083015250604082013567ffffffffffffffff81111561115757611156610fe7565b5b61116384828501611072565b604083015250606082013567ffffffffffffffff81111561118757611186610fe7565b5b61119384828501611072565b60608301525060806111a7848285016110c0565b60808301525060a06111bb848285016110c0565b60a08301525060c06111cf848285016110c0565b60c08301525060e06111e3848285016110c0565b60e08301525092915050565b5f5f6040838503121561120557611204610f29565b5b5f61121285828601610f47565b925050602083013567ffffffffffffffff81111561123357611232610f2d565b5b61123f858286016110d4565b9150509250929050565b5f6020828403121561125e5761125d610f29565b5b5f61126b84828501610f47565b91505092915050565b5f81519050919050565b5f82825260208201905092915050565b8281835e5f83830152505050565b5f6112a682611274565b6112b0818561127e565b93506112c081856020860161128e565b6112c981610f5f565b840191505092915050565b6112dd81610eef565b82525050565b6112ec8161109f565b82525050565b5f61010083015f8301518482035f86015261130d828261129c565b915050602083015161132260208601826112d4565b506040830151848203604086015261133a828261129c565b91505060608301518482036060860152611354828261129c565b915050608083015161136960808601826112e3565b5060a083015161137c60a08601826112e3565b5060c083015161138f60c08601826112e3565b5060e08301516113a260e08601826112e3565b508091505092915050565b5f6020820190508181035f8301526113c581846112f2565b905092915050565b5f5f604083850312156113e3576113e2610f29565b5b5f83013567ffffffffffffffff811115611400576113ff610f2d565b5b61140c85828601611072565b925050602061141d858286016110c0565b9150509250929050565b5f82825260208201905092915050565b5f61144182611274565b61144b8185611427565b935061145b81856020860161128e565b61146481610f5f565b840191505092915050565b6114788161109f565b82525050565b5f610100820190508181035f830152611497818b611437565b90506114a6602083018a610ef8565b81810360408301526114b88189611437565b905081810360608301526114cc8188611437565b90506114db608083018761146f565b6114e860a083018661146f565b6114f560c083018561146f565b61150260e083018461146f565b9998505050505050505050565b5f6040828403121561152457611523610f5b565b5b61152e6040610fcd565b90505f82013567ffffffffffffffff81111561154d5761154c610fe7565b5b61155984828501611072565b5f83015250602061156c848285016110c0565b60208301525092915050565b5f5f6040838503121561158e5761158d610f29565b5b5f61159b85828601610f47565b925050602083013567ffffffffffffffff8111156115bc576115bb610f2d565b5b6115c88582860161150f565b9150509250929050565b5f6040820190508181035f8301526115ea8185611437565b90506115f9602083018461146f565b9392505050565b5f5f6040838503121561161657611615610f29565b5b5f83013567ffffffffffffffff81111561163357611632610f2d565b5b61163f85828601611072565b925050602061165085828601610f47565b9150509250929050565b5f604083015f8301518482035f860152611674828261129c565b915050602083015161168960208601826112e3565b508091505092915050565b5f6020820190508181035f8301526116ac818461165a565b905092915050565b7f4e487b71000000000000000000000000000000000000000000000000000000005f52602260045260245ffd5b5f60028204905060018216806116f857607f821691505b60208210810361170b5761170a6116b4565b5b50919050565b5f819050815f5260205f209050919050565b5f6020601f8301049050919050565b5f82821b905092915050565b5f6008830261176d7fffffffffffffffffffffffffffffffffffffffffffffffffffffffffffffffff82611732565b6117778683611732565b95508019841693508086168417925050509392505050565b5f819050919050565b5f6117b26117ad6117a884610eef565b61178f565b610eef565b9050919050565b5f819050919050565b6117cb83611798565b6117df6117d7826117b9565b84845461173e565b825550505050565b5f5f905090565b6117f66117e7565b6118018184846117c2565b505050565b5b81811015611824576118195f826117ee565b600181019050611807565b5050565b601f8211156118695761183a81611711565b61184384611723565b81016020851015611852578190505b61186661185e85611723565b830182611806565b50505b505050565b5f82821c905092915050565b5f6118895f198460080261186e565b1980831691505092915050565b5f6118a1838361187a565b9150826002028217905092915050565b6118ba82611274565b67ffffffffffffffff8111156118d3576118d2610f6f565b5b6118dd82546116e1565b6118e8828285611828565b5f60209050601f831160018114611919575f8415611907578287015190505b6119118582611896565b865550611978565b601f19841661192786611711565b5f5b8281101561194e57848901518255600182019150602085019450602081019050611929565b8683101561196b5784890151611967601f89168261187a565b8355505b6001600288020188555050505b505050505050565b7f4e487b71000000000000000000000000000000000000000000000000000000005f52601160045260245ffd5b5f6119b782610eef565b91507fffffffffffffffffffffffffffffffffffffffffffffffffffffffffffffffff82036119e9576119e8611980565b5b600182019050919050565b5f6119fe82610eef565b91505f8203611a1057611a0f611980565b5b600182039050919050565b5f8154611a27816116e1565b611a318186611427565b9450600182165f8114611a4b5760018114611a6157611a93565b60ff198316865281151560200286019350611a93565b611a6a85611711565b5f5b83811015611a8b57815481890152600182019150602081019050611a6c565b808801955050505b50505092915050565b5f604082019050611aaf5f830185610ef8565b8181036020830152611ac18184611a1b565b90509392505050565b7f546f206265206576616c756174656400000000000000000000000000000000005f82015250565b5f611afe600f83611427565b9150611b0982611aca565b602082019050919050565b7f546f2062652061737369676e65640000000000000000000000000000000000005f82015250565b5f611b48600e83611427565b9150611b5382611b14565b602082019050919050565b5f610100820190508181035f830152611b778189611437565b9050611b866020830188610ef8565b8181036040830152611b9781611af2565b90508181036060830152611baa81611b3c565b9050611bb9608083018761146f565b611bc660a083018661146f565b611bd360c083018561146f565b611be060e083018461146f565b97965050505050505056fea26469706673582212206e701660a70e0e3d4b10898827e006b66329a567028bef18e91507784c848a3a64736f6c634300081e0033",
			"opcodes": "PUSH1 0x80 PUSH1 0x40 MSTORE CALLVALUE DUP1 ISZERO PUSH1 0xE JUMPI PUSH0 PUSH0 REVERT JUMPDEST POP CALLER PUSH0 PUSH0 PUSH2 0x100 EXP DUP2 SLOAD DUP2 PUSH20 0xFFFFFFFFFFFFFFFFFFFFFFFFFFFFFFFFFFFFFFFF MUL NOT AND SWAP1 DUP4 PUSH20 0xFFFFFFFFFFFFFFFFFFFFFFFFFFFFFFFFFFFFFFFF AND MUL OR SWAP1 SSTORE POP PUSH2 0x1C21 DUP1 PUSH2 0x5B PUSH0 CODECOPY PUSH0 RETURN INVALID PUSH1 0x80 PUSH1 0x40 MSTORE CALLVALUE DUP1 ISZERO PUSH2 0xF JUMPI PUSH0 PUSH0 REVERT JUMPDEST POP PUSH1 0x4 CALLDATASIZE LT PUSH2 0xE8 JUMPI PUSH0 CALLDATALOAD PUSH1 0xE0 SHR DUP1 PUSH4 0x5BE2218B GT PUSH2 0x8A JUMPI DUP1 PUSH4 0x8AF88A5C GT PUSH2 0x64 JUMPI DUP1 PUSH4 0x8AF88A5C EQ PUSH2 0x250 JUMPI DUP1 PUSH4 0xC58343EF EQ PUSH2 0x26C JUMPI DUP1 PUSH4 0xD7043CB0 EQ PUSH2 0x29C JUMPI DUP1 PUSH4 0xE7DA5328 EQ PUSH2 0x2BA JUMPI PUSH2 0xE8 JUMP JUMPDEST DUP1 PUSH4 0x5BE2218B EQ PUSH2 0x1E5 JUMPI DUP1 PUSH4 0x61259745 EQ PUSH2 0x201 JUMPI DUP1 PUSH4 0x81D12C58 EQ PUSH2 0x21F JUMPI PUSH2 0xE8 JUMP JUMPDEST DUP1 PUSH4 0x125F02BB GT PUSH2 0xC6 JUMPI DUP1 PUSH4 0x125F02BB EQ PUSH2 0x156 JUMPI DUP1 PUSH4 0x2F045B02 EQ PUSH2 0x174 JUMPI DUP1 PUSH4 0x4FBD241D EQ PUSH2 0x190 JUMPI DUP1 PUSH4 0x5BADBE4C EQ PUSH2 0x1C7 JUMPI PUSH2 0xE8 JUMP JUMPDEST DUP1 PUSH4 0x98809D7 EQ PUSH2 0xEC JUMPI DUP1 PUSH4 0xD47DD26 EQ PUSH2 0x10A JUMPI DUP1 PUSH4 0x10742B51 EQ PUSH2 0x126 JUMPI JUMPDEST PUSH0 PUSH0 REVERT JUMPDEST PUSH2 0xF4 PUSH2 0x2D8 JUMP JUMPDEST PUSH1 0x40 MLOAD PUSH2 0x101 SWAP2 SWAP1 PUSH2 0xF07 JUMP JUMPDEST PUSH1 0x40 MLOAD DUP1 SWAP2 SUB SWAP1 RETURN JUMPDEST PUSH2 0x124 PUSH1 0x4 DUP1 CALLDATASIZE SUB DUP2 ADD SWAP1 PUSH2 0x11F SWAP2 SWAP1 PUSH2 0x11EF JUMP JUMPDEST PUSH2 0x2DE JUMP JUMPDEST STOP JUMPDEST PUSH2 0x140 PUSH1 0x4 DUP1 CALLDATASIZE SUB DUP2 ADD SWAP1 PUSH2 0x13B SWAP2 SWAP1 PUSH2 0x1249 JUMP JUMPDEST PUSH2 0x3C0 JUMP JUMPDEST PUSH1 0x40 MLOAD PUSH2 0x14D SWAP2 SWAP1 PUSH2 0x13AD JUMP JUMPDEST PUSH1 0x40 MLOAD DUP1 SWAP2 SUB SWAP1 RETURN JUMPDEST PUSH2 0x15E PUSH2 0x610 JUMP JUMPDEST PUSH1 0x40 MLOAD PUSH2 0x16B SWAP2 SWAP1 PUSH2 0xF07 JUMP JUMPDEST PUSH1 0x40 MLOAD DUP1 SWAP2 SUB SWAP1 RETURN JUMPDEST PUSH2 0x18E PUSH1 0x4 DUP1 CALLDATASIZE SUB DUP2 ADD SWAP1 PUSH2 0x189 SWAP2 SWAP1 PUSH2 0x13CD JUMP JUMPDEST PUSH2 0x616 JUMP JUMPDEST STOP JUMPDEST PUSH2 0x1AA PUSH1 0x4 DUP1 CALLDATASIZE SUB DUP2 ADD SWAP1 PUSH2 0x1A5 SWAP2 SWAP1 PUSH2 0x1249 JUMP JUMPDEST PUSH2 0x6E1 JUMP JUMPDEST PUSH1 0x40 MLOAD PUSH2 0x1BE SWAP9 SWAP8 SWAP7 SWAP6 SWAP5 SWAP4 SWAP3 SWAP2 SWAP1 PUSH2 0x147E JUMP JUMPDEST PUSH1 0x40 MLOAD DUP1 SWAP2 SUB SWAP1 RETURN JUMPDEST PUSH2 0x1CF PUSH2 0x8EA JUMP JUMPDEST PUSH1 0x40 MLOAD PUSH2 0x1DC SWAP2 SWAP1 PUSH2 0xF07 JUMP JUMPDEST PUSH1 0x40 MLOAD DUP1 SWAP2 SUB SWAP1 RETURN JUMPDEST PUSH2 0x1FF PUSH1 0x4 DUP1 CALLDATASIZE SUB DUP2 ADD SWAP1 PUSH2 0x1FA SWAP2 SWAP1 PUSH2 0x1578 JUMP JUMPDEST PUSH2 0x8F0 JUMP JUMPDEST STOP JUMPDEST PUSH2 0x209 PUSH2 0xAEE JUMP JUMPDEST PUSH1 0x40 MLOAD PUSH2 0x216 SWAP2 SWAP1 PUSH2 0xF07 JUMP JUMPDEST PUSH1 0x40 MLOAD DUP1 SWAP2 SUB SWAP1 RETURN JUMPDEST PUSH2 0x239 PUSH1 0x4 DUP1 CALLDATASIZE SUB DUP2 ADD SWAP1 PUSH2 0x234 SWAP2 SWAP1 PUSH2 0x1249 JUMP JUMPDEST PUSH2 0xAF4 JUMP JUMPDEST PUSH1 0x40 MLOAD PUSH2 0x247 SWAP3 SWAP2 SWAP1 PUSH2 0x15D2 JUMP JUMPDEST PUSH1 0x40 MLOAD DUP1 SWAP2 SUB SWAP1 RETURN JUMPDEST PUSH2 0x26A PUSH1 0x4 DUP1 CALLDATASIZE SUB DUP2 ADD SWAP1 PUSH2 0x265 SWAP2 SWAP1 PUSH2 0x1600 JUMP JUMPDEST PUSH2 0xBA6 JUMP JUMPDEST STOP JUMPDEST PUSH2 0x286 PUSH1 0x4 DUP1 CALLDATASIZE SUB DUP2 ADD SWAP1 PUSH2 0x281 SWAP2 SWAP1 PUSH2 0x1249 JUMP JUMPDEST PUSH2 0xDA6 JUMP JUMPDEST PUSH1 0x40 MLOAD PUSH2 0x293 SWAP2 SWAP1 PUSH2 0x1694 JUMP JUMPDEST PUSH1 0x40 MLOAD DUP1 SWAP2 SUB SWAP1 RETURN JUMPDEST PUSH2 0x2A4 PUSH2 0xE7A JUMP JUMPDEST PUSH1 0x40 MLOAD PUSH2 0x2B1 SWAP2 SWAP1 PUSH2 0xF07 JUMP JUMPDEST PUSH1 0x40 MLOAD DUP1 SWAP2 SUB SWAP1 RETURN JUMPDEST PUSH2 0x2C2 PUSH2 0xE83 JUMP JUMPDEST PUSH1 0x40 MLOAD PUSH2 0x2CF SWAP2 SWAP1 PUSH2 0xF07 JUMP JUMPDEST PUSH1 0x40 MLOAD DUP1 SWAP2 SUB SWAP1 RETURN JUMPDEST PUSH1 0x3 SLOAD DUP2 JUMP JUMPDEST DUP1 PUSH1 0x2 PUSH0 DUP5 DUP2 MSTORE PUSH1 0x20 ADD SWAP1 DUP2 MSTORE PUSH1 0x20 ADD PUSH0 KECCAK256 PUSH0 DUP3 ADD MLOAD DUP2 PUSH0 ADD SWAP1 DUP2 PUSH2 0x303 SWAP2 SWAP1 PUSH2 0x18B1 JUMP JUMPDEST POP PUSH1 0x20 DUP3 ADD MLOAD DUP2 PUSH1 0x1 ADD SSTORE PUSH1 0x40 DUP3 ADD MLOAD DUP2 PUSH1 0x2 ADD SWAP1 DUP2 PUSH2 0x323 SWAP2 SWAP1 PUSH2 0x18B1 JUMP JUMPDEST POP PUSH1 0x60 DUP3 ADD MLOAD DUP2 PUSH1 0x3 ADD SWAP1 DUP2 PUSH2 0x339 SWAP2 SWAP1 PUSH2 0x18B1 JUMP JUMPDEST POP PUSH1 0x80 DUP3 ADD MLOAD DUP2 PUSH1 0x4 ADD PUSH0 PUSH2 0x100 EXP DUP2 SLOAD DUP2 PUSH1 0xFF MUL NOT AND SWAP1 DUP4 ISZERO ISZERO MUL OR SWAP1 SSTORE POP PUSH1 0xA0 DUP3 ADD MLOAD DUP2 PUSH1 0x4 ADD PUSH1 0x1 PUSH2 0x100 EXP DUP2 SLOAD DUP2 PUSH1 0xFF MUL NOT AND SWAP1 DUP4 ISZERO ISZERO MUL OR SWAP1 SSTORE POP PUSH1 0xC0 DUP3 ADD MLOAD DUP2 PUSH1 0x4 ADD PUSH1 0x2 PUSH2 0x100 EXP DUP2 SLOAD DUP2 PUSH1 0xFF MUL NOT AND SWAP1 DUP4 ISZERO ISZERO MUL OR SWAP1 SSTORE POP PUSH1 0xE0 DUP3 ADD MLOAD DUP2 PUSH1 0x4 ADD PUSH1 0x3 PUSH2 0x100 EXP DUP2 SLOAD DUP2 PUSH1 0xFF MUL NOT AND SWAP1 DUP4 ISZERO ISZERO MUL OR SWAP1 SSTORE POP SWAP1 POP POP POP POP JUMP JUMPDEST PUSH2 0x3C8 PUSH2 0xE8C JUMP JUMPDEST PUSH1 0x2 PUSH0 DUP4 DUP2 MSTORE PUSH1 0x20 ADD SWAP1 DUP2 MSTORE PUSH1 0x20 ADD PUSH0 KECCAK256 PUSH1 0x40 MLOAD DUP1 PUSH2 0x100 ADD PUSH1 0x40 MSTORE SWAP1 DUP2 PUSH0 DUP3 ADD DUP1 SLOAD PUSH2 0x3F4 SWAP1 PUSH2 0x16E1 JUMP JUMPDEST DUP1 PUSH1 0x1F ADD PUSH1 0x20 DUP1 SWAP2 DIV MUL PUSH1 0x20 ADD PUSH1 0x40 MLOAD SWAP1 DUP2 ADD PUSH1 0x40 MSTORE DUP1 SWAP3 SWAP2 SWAP1 DUP2 DUP2 MSTORE PUSH1 0x20 ADD DUP3 DUP1 SLOAD PUSH2 0x420 SWAP1 PUSH2 0x16E1 JUMP JUMPDEST DUP1 ISZERO PUSH2 0x46B JUMPI DUP1 PUSH1 0x1F LT PUSH2 0x442 JUMPI PUSH2 0x100 DUP1 DUP4 SLOAD DIV MUL DUP4 MSTORE SWAP2 PUSH1 0x20 ADD SWAP2 PUSH2 0x46B JUMP JUMPDEST DUP3 ADD SWAP2 SWAP1 PUSH0 MSTORE PUSH1 0x20 PUSH0 KECCAK256 SWAP1 JUMPDEST DUP2 SLOAD DUP2 MSTORE SWAP1 PUSH1 0x1 ADD SWAP1 PUSH1 0x20 ADD DUP1 DUP4 GT PUSH2 0x44E JUMPI DUP3 SWAP1 SUB PUSH1 0x1F AND DUP3 ADD SWAP2 JUMPDEST POP POP POP POP POP DUP2 MSTORE PUSH1 0x20 ADD PUSH1 0x1 DUP3 ADD SLOAD DUP2 MSTORE PUSH1 0x20 ADD PUSH1 0x2 DUP3 ADD DUP1 SLOAD PUSH2 0x48E SWAP1 PUSH2 0x16E1 JUMP JUMPDEST DUP1 PUSH1 0x1F ADD PUSH1 0x20 DUP1 SWAP2 DIV MUL PUSH1 0x20 ADD PUSH1 0x40 MLOAD SWAP1 DUP2 ADD PUSH1 0x40 MSTORE DUP1 SWAP3 SWAP2 SWAP1 DUP2 DUP2 MSTORE PUSH1 0x20 ADD DUP3 DUP1 SLOAD PUSH2 0x4BA SWAP1 PUSH2 0x16E1 JUMP JUMPDEST DUP1 ISZERO PUSH2 0x505 JUMPI DUP1 PUSH1 0x1F LT PUSH2 0x4DC JUMPI PUSH2 0x100 DUP1 DUP4 SLOAD DIV MUL DUP4 MSTORE SWAP2 PUSH1 0x20 ADD SWAP2 PUSH2 0x505 JUMP JUMPDEST DUP3 ADD SWAP2 SWAP1 PUSH0 MSTORE PUSH1 0x20 PUSH0 KECCAK256 SWAP1 JUMPDEST DUP2 SLOAD DUP2 MSTORE SWAP1 PUSH1 0x1 ADD SWAP1 PUSH1 0x20 ADD DUP1 DUP4 GT PUSH2 0x4E8 JUMPI DUP3 SWAP1 SUB PUSH1 0x1F AND DUP3 ADD SWAP2 JUMPDEST POP POP POP POP POP DUP2 MSTORE PUSH1 0x20 ADD PUSH1 0x3 DUP3 ADD DUP1 SLOAD PUSH2 0x51E SWAP1 PUSH2 0x16E1 JUMP JUMPDEST DUP1 PUSH1 0x1F ADD PUSH1 0x20 DUP1 SWAP2 DIV MUL PUSH1 0x20 ADD PUSH1 0x40 MLOAD SWAP1 DUP2 ADD PUSH1 0x40 MSTORE DUP1 SWAP3 SWAP2 SWAP1 DUP2 DUP2 MSTORE PUSH1 0x20 ADD DUP3 DUP1 SLOAD PUSH2 0x54A SWAP1 PUSH2 0x16E1 JUMP JUMPDEST DUP1 ISZERO PUSH2 0x595 JUMPI DUP1 PUSH1 0x1F LT PUSH2 0x56C JUMPI PUSH2 0x100 DUP1 DUP4 SLOAD DIV MUL DUP4 MSTORE SWAP2 PUSH1 0x20 ADD SWAP2 PUSH2 0x595 JUMP JUMPDEST DUP3 ADD SWAP2 SWAP1 PUSH0 MSTORE PUSH1 0x20 PUSH0 KECCAK256 SWAP1 JUMPDEST DUP2 SLOAD DUP2 MSTORE SWAP1 PUSH1 0x1 ADD SWAP1 PUSH1 0x20 ADD DUP1 DUP4 GT PUSH2 0x578 JUMPI DUP3 SWAP1 SUB PUSH1 0x1F AND DUP3 ADD SWAP2 JUMPDEST POP POP POP POP POP DUP2 MSTORE PUSH1 0x20 ADD PUSH1 0x4 DUP3 ADD PUSH0 SWAP1 SLOAD SWAP1 PUSH2 0x100 EXP SWAP1 DIV PUSH1 0xFF AND ISZERO ISZERO ISZERO ISZERO DUP2 MSTORE PUSH1 0x20 ADD PUSH1 0x4 DUP3 ADD PUSH1 0x1 SWAP1 SLOAD SWAP1 PUSH2 0x100 EXP SWAP1 DIV PUSH1 0xFF AND ISZERO ISZERO ISZERO ISZERO DUP2 MSTORE PUSH1 0x20 ADD PUSH1 0x4 DUP3 ADD PUSH1 0x2 SWAP1 SLOAD SWAP1 PUSH2 0x100 EXP SWAP1 DIV PUSH1 0xFF AND ISZERO ISZERO ISZERO ISZERO DUP2 MSTORE PUSH1 0x20 ADD PUSH1 0x4 DUP3 ADD PUSH1 0x3 SWAP1 SLOAD SWAP1 PUSH2 0x100 EXP SWAP1 DIV PUSH1 0xFF AND ISZERO ISZERO ISZERO ISZERO DUP2 MSTORE POP POP SWAP1 POP SWAP2 SWAP1 POP JUMP JUMPDEST PUSH1 0x4 SLOAD DUP2 JUMP JUMPDEST PUSH1 0x5 PUSH0 DUP2 SLOAD DUP1 SWAP3 SWAP2 SWAP1 PUSH2 0x628 SWAP1 PUSH2 0x19AD JUMP JUMPDEST SWAP2 SWAP1 POP SSTORE POP PUSH1 0x6 PUSH0 DUP2 SLOAD DUP1 SWAP3 SWAP2 SWAP1 PUSH2 0x63F SWAP1 PUSH2 0x19AD JUMP JUMPDEST SWAP2 SWAP1 POP SSTORE POP PUSH1 0x40 MLOAD DUP1 PUSH1 0x40 ADD PUSH1 0x40 MSTORE DUP1 DUP4 DUP2 MSTORE PUSH1 0x20 ADD DUP3 ISZERO ISZERO DUP2 MSTORE POP PUSH1 0x1 PUSH0 PUSH1 0x6 SLOAD DUP2 MSTORE PUSH1 0x20 ADD SWAP1 DUP2 MSTORE PUSH1 0x20 ADD PUSH0 KECCAK256 PUSH0 DUP3 ADD MLOAD DUP2 PUSH0 ADD SWAP1 DUP2 PUSH2 0x681 SWAP2 SWAP1 PUSH2 0x18B1 JUMP JUMPDEST POP PUSH1 0x20 DUP3 ADD MLOAD DUP2 PUSH1 0x1 ADD PUSH0 PUSH2 0x100 EXP DUP2 SLOAD DUP2 PUSH1 0xFF MUL NOT AND SWAP1 DUP4 ISZERO ISZERO MUL OR SWAP1 SSTORE POP SWAP1 POP POP PUSH32 0x8214CB7208C019AE63F65FBC03FF1306DEC9260C12E3963BE9057FB04D6C218B DUP3 DUP3 PUSH1 0x40 MLOAD PUSH2 0x6D5 SWAP3 SWAP2 SWAP1 PUSH2 0x15D2 JUMP JUMPDEST PUSH1 0x40 MLOAD DUP1 SWAP2 SUB SWAP1 LOG1 POP POP JUMP JUMPDEST PUSH1 0x2 PUSH1 0x20 MSTORE DUP1 PUSH0 MSTORE PUSH1 0x40 PUSH0 KECCAK256 PUSH0 SWAP2 POP SWAP1 POP DUP1 PUSH0 ADD DUP1 SLOAD PUSH2 0x700 SWAP1 PUSH2 0x16E1 JUMP JUMPDEST DUP1 PUSH1 0x1F ADD PUSH1 0x20 DUP1 SWAP2 DIV MUL PUSH1 0x20 ADD PUSH1 0x40 MLOAD SWAP1 DUP2 ADD PUSH1 0x40 MSTORE DUP1 SWAP3 SWAP2 SWAP1 DUP2 DUP2 MSTORE PUSH1 0x20 ADD DUP3 DUP1 SLOAD PUSH2 0x72C SWAP1 PUSH2 0x16E1 JUMP JUMPDEST DUP1 ISZERO PUSH2 0x777 JUMPI DUP1 PUSH1 0x1F LT PUSH2 0x74E JUMPI PUSH2 0x100 DUP1 DUP4 SLOAD DIV MUL DUP4 MSTORE SWAP2 PUSH1 0x20 ADD SWAP2 PUSH2 0x777 JUMP JUMPDEST DUP3 ADD SWAP2 SWAP1 PUSH0 MSTORE PUSH1 0x20 PUSH0 KECCAK256 SWAP1 JUMPDEST DUP2 SLOAD DUP2 MSTORE SWAP1 PUSH1 0x1 ADD SWAP1 PUSH1 0x20 ADD DUP1 DUP4 GT PUSH2 0x75A JUMPI DUP3 SWAP1 SUB PUSH1 0x1F AND DUP3 ADD SWAP2 JUMPDEST POP POP POP POP POP SWAP1 DUP1 PUSH1 0x1 ADD SLOAD SWAP1 DUP1 PUSH1 0x2 ADD DUP1 SLOAD PUSH2 0x792 SWAP1 PUSH2 0x16E1 JUMP JUMPDEST DUP1 PUSH1 0x1F ADD PUSH1 0x20 DUP1 SWAP2 DIV MUL PUSH1 0x20 ADD PUSH1 0x40 MLOAD SWAP1 DUP2 ADD PUSH1 0x40 MSTORE DUP1 SWAP3 SWAP2 SWAP1 DUP2 DUP2 MSTORE PUSH1 0x20 ADD DUP3 DUP1 SLOAD PUSH2 0x7BE SWAP1 PUSH2 0x16E1 JUMP JUMPDEST DUP1 ISZERO PUSH2 0x809 JUMPI DUP1 PUSH1 0x1F LT PUSH2 0x7E0 JUMPI PUSH2 0x100 DUP1 DUP4 SLOAD DIV MUL DUP4 MSTORE SWAP2 PUSH1 0x20 ADD SWAP2 PUSH2 0x809 JUMP JUMPDEST DUP3 ADD SWAP2 SWAP1 PUSH0 MSTORE PUSH1 0x20 PUSH0 KECCAK256 SWAP1 JUMPDEST DUP2 SLOAD DUP2 MSTORE SWAP1 PUSH1 0x1 ADD SWAP1 PUSH1 0x20 ADD DUP1 DUP4 GT PUSH2 0x7EC JUMPI DUP3 SWAP1 SUB PUSH1 0x1F AND DUP3 ADD SWAP2 JUMPDEST POP POP POP POP POP SWAP1 DUP1 PUSH1 0x3 ADD DUP1 SLOAD PUSH2 0x81E SWAP1 PUSH2 0x16E1 JUMP JUMPDEST DUP1 PUSH1 0x1F ADD PUSH1 0x20 DUP1 SWAP2 DIV MUL PUSH1 0x20 ADD PUSH1 0x40 MLOAD SWAP1 DUP2 ADD PUSH1 0x40 MSTORE DUP1 SWAP3 SWAP2 SWAP1 DUP2 DUP2 MSTORE PUSH1 0x20 ADD DUP3 DUP1 SLOAD PUSH2 0x84A SWAP1 PUSH2 0x16E1 JUMP JUMPDEST DUP1 ISZERO PUSH2 0x895 JUMPI DUP1 PUSH1 0x1F LT PUSH2 0x86C JUMPI PUSH2 0x100 DUP1 DUP4 SLOAD DIV MUL DUP4 MSTORE SWAP2 PUSH1 0x20 ADD SWAP2 PUSH2 0x895 JUMP JUMPDEST DUP3 ADD SWAP2 SWAP1 PUSH0 MSTORE PUSH1 0x20 PUSH0 KECCAK256 SWAP1 JUMPDEST DUP2 SLOAD DUP2 MSTORE SWAP1 PUSH1 0x1 ADD SWAP1 PUSH1 0x20 ADD DUP1 DUP4 GT PUSH2 0x878 JUMPI DUP3 SWAP1 SUB PUSH1 0x1F AND DUP3 ADD SWAP2 JUMPDEST POP POP POP POP POP SWAP1 DUP1 PUSH1 0x4 ADD PUSH0 SWAP1 SLOAD SWAP1 PUSH2 0x100 EXP SWAP1 DIV PUSH1 0xFF AND SWAP1 DUP1 PUSH1 0x4 ADD PUSH1 0x1 SWAP1 SLOAD SWAP1 PUSH2 0x100 EXP SWAP1 DIV PUSH1 0xFF AND SWAP1 DUP1 PUSH1 0x4 ADD PUSH1 0x2 SWAP1 SLOAD SWAP1 PUSH2 0x100 EXP SWAP1 DIV PUSH1 0xFF AND SWAP1 DUP1 PUSH1 0x4 ADD PUSH1 0x3 SWAP1 SLOAD SWAP1 PUSH2 0x100 EXP SWAP1 DIV PUSH1 0xFF AND SWAP1 POP DUP9 JUMP JUMPDEST PUSH1 0x5 SLOAD DUP2 JUMP JUMPDEST PUSH0 PUSH1 0x1 SWAP1 POP JUMPDEST PUSH1 0x3 SLOAD DUP2 GT PUSH2 0xAD2 JUMPI PUSH0 ISZERO ISZERO PUSH1 0x2 PUSH0 DUP4 DUP2 MSTORE PUSH1 0x20 ADD SWAP1 DUP2 MSTORE PUSH1 0x20 ADD PUSH0 KECCAK256 PUSH1 0x4 ADD PUSH1 0x3 SWAP1 SLOAD SWAP1 PUSH2 0x100 EXP SWAP1 DIV PUSH1 0xFF AND ISZERO ISZERO EQ DUP1 ISZERO PUSH2 0x957 JUMPI POP PUSH1 0x1 ISZERO ISZERO PUSH1 0x2 PUSH0 DUP4 DUP2 MSTORE PUSH1 0x20 ADD SWAP1 DUP2 MSTORE PUSH1 0x20 ADD PUSH0 KECCAK256 PUSH1 0x4 ADD PUSH0 SWAP1 SLOAD SWAP1 PUSH2 0x100 EXP SWAP1 DIV PUSH1 0xFF AND ISZERO ISZERO EQ JUMPDEST DUP1 ISZERO PUSH2 0x988 JUMPI POP PUSH1 0x1 ISZERO ISZERO PUSH1 0x2 PUSH0 DUP4 DUP2 MSTORE PUSH1 0x20 ADD SWAP1 DUP2 MSTORE PUSH1 0x20 ADD PUSH0 KECCAK256 PUSH1 0x4 ADD PUSH1 0x1 SWAP1 SLOAD SWAP1 PUSH2 0x100 EXP SWAP1 DIV PUSH1 0xFF AND ISZERO ISZERO EQ JUMPDEST DUP1 ISZERO PUSH2 0x9B9 JUMPI POP PUSH1 0x1 ISZERO ISZERO PUSH1 0x2 PUSH0 DUP4 DUP2 MSTORE PUSH1 0x20 ADD SWAP1 DUP2 MSTORE PUSH1 0x20 ADD PUSH0 KECCAK256 PUSH1 0x4 ADD PUSH1 0x2 SWAP1 SLOAD SWAP1 PUSH2 0x100 EXP SWAP1 DIV PUSH1 0xFF AND ISZERO ISZERO EQ JUMPDEST ISZERO PUSH2 0xABF JUMPI DUP2 PUSH1 0x1 PUSH0 DUP6 DUP2 MSTORE PUSH1 0x20 ADD SWAP1 DUP2 MSTORE PUSH1 0x20 ADD PUSH0 KECCAK256 PUSH0 DUP3 ADD MLOAD DUP2 PUSH0 ADD SWAP1 DUP2 PUSH2 0x9E3 SWAP2 SWAP1 PUSH2 0x18B1 JUMP JUMPDEST POP PUSH1 0x20 DUP3 ADD MLOAD DUP2 PUSH1 0x1 ADD PUSH0 PUSH2 0x100 EXP DUP2 SLOAD DUP2 PUSH1 0xFF MUL NOT AND SWAP1 DUP4 ISZERO ISZERO MUL OR SWAP1 SSTORE POP SWAP1 POP POP DUP2 PUSH0 ADD MLOAD PUSH1 0x2 PUSH0 DUP4 DUP2 MSTORE PUSH1 0x20 ADD SWAP1 DUP2 MSTORE PUSH1 0x20 ADD PUSH0 KECCAK256 PUSH1 0x3 ADD SWAP1 DUP2 PUSH2 0xA2A SWAP2 SWAP1 PUSH2 0x18B1 JUMP JUMPDEST POP PUSH1 0x1 PUSH1 0x2 PUSH0 DUP4 DUP2 MSTORE PUSH1 0x20 ADD SWAP1 DUP2 MSTORE PUSH1 0x20 ADD PUSH0 KECCAK256 PUSH1 0x4 ADD PUSH1 0x3 PUSH2 0x100 EXP DUP2 SLOAD DUP2 PUSH1 0xFF MUL NOT AND SWAP1 DUP4 ISZERO ISZERO MUL OR SWAP1 SSTORE POP PUSH1 0x4 PUSH0 DUP2 SLOAD DUP1 SWAP3 SWAP2 SWAP1 PUSH2 0xA6A SWAP1 PUSH2 0x19F4 JUMP JUMPDEST SWAP2 SWAP1 POP SSTORE POP PUSH32 0x5F5F1B47C5BD4A71140C85AD2612A7FC179F12A94ECB492D109DEA8B98B4D5B3 DUP4 PUSH1 0x1 PUSH0 DUP7 DUP2 MSTORE PUSH1 0x20 ADD SWAP1 DUP2 MSTORE PUSH1 0x20 ADD PUSH0 KECCAK256 PUSH0 ADD PUSH1 0x40 MLOAD PUSH2 0xAB2 SWAP3 SWAP2 SWAP1 PUSH2 0x1A9C JUMP JUMPDEST PUSH1 0x40 MLOAD DUP1 SWAP2 SUB SWAP1 LOG1 PUSH2 0xAD2 JUMP JUMPDEST DUP1 DUP1 PUSH2 0xACA SWAP1 PUSH2 0x19AD JUMP JUMPDEST SWAP2 POP POP PUSH2 0x8F6 JUMP JUMPDEST POP PUSH1 0x5 PUSH0 DUP2 SLOAD DUP1 SWAP3 SWAP2 SWAP1 PUSH2 0xAE5 SWAP1 PUSH2 0x19F4 JUMP JUMPDEST SWAP2 SWAP1 POP SSTORE POP POP POP JUMP JUMPDEST PUSH1 0x6 SLOAD DUP2 JUMP JUMPDEST PUSH1 0x1 PUSH1 0x20 MSTORE DUP1 PUSH0 MSTORE PUSH1 0x40 PUSH0 KECCAK256 PUSH0 SWAP2 POP SWAP1 POP DUP1 PUSH0 ADD DUP1 SLOAD PUSH2 0xB13 SWAP1 PUSH2 0x16E1 JUMP JUMPDEST DUP1 PUSH1 0x1F ADD PUSH1 0x20 DUP1 SWAP2 DIV MUL PUSH1 0x20 ADD PUSH1 0x40 MLOAD SWAP1 DUP2 ADD PUSH1 0x40 MSTORE DUP1 SWAP3 SWAP2 SWAP1 DUP2 DUP2 MSTORE PUSH1 0x20 ADD DUP3 DUP1 SLOAD PUSH2 0xB3F SWAP1 PUSH2 0x16E1 JUMP JUMPDEST DUP1 ISZERO PUSH2 0xB8A JUMPI DUP1 PUSH1 0x1F LT PUSH2 0xB61 JUMPI PUSH2 0x100 DUP1 DUP4 SLOAD DIV MUL DUP4 MSTORE SWAP2 PUSH1 0x20 ADD SWAP2 PUSH2 0xB8A JUMP JUMPDEST DUP3 ADD SWAP2 SWAP1 PUSH0 MSTORE PUSH1 0x20 PUSH0 KECCAK256 SWAP1 JUMPDEST DUP2 SLOAD DUP2 MSTORE SWAP1 PUSH1 0x1 ADD SWAP1 PUSH1 0x20 ADD DUP1 DUP4 GT PUSH2 0xB6D JUMPI DUP3 SWAP1 SUB PUSH1 0x1F AND DUP3 ADD SWAP2 JUMPDEST POP POP POP POP POP SWAP1 DUP1 PUSH1 0x1 ADD PUSH0 SWAP1 SLOAD SWAP1 PUSH2 0x100 EXP SWAP1 DIV PUSH1 0xFF AND SWAP1 POP DUP3 JUMP JUMPDEST PUSH1 0x3 PUSH0 DUP2 SLOAD DUP1 SWAP3 SWAP2 SWAP1 PUSH2 0xBB8 SWAP1 PUSH2 0x19AD JUMP JUMPDEST SWAP2 SWAP1 POP SSTORE POP PUSH1 0x4 PUSH0 DUP2 SLOAD DUP1 SWAP3 SWAP2 SWAP1 PUSH2 0xBCF SWAP1 PUSH2 0x19AD JUMP JUMPDEST SWAP2 SWAP1 POP SSTORE POP PUSH1 0x40 MLOAD DUP1 PUSH2 0x100 ADD PUSH1 0x40 MSTORE DUP1 DUP4 DUP2 MSTORE PUSH1 0x20 ADD DUP3 DUP2 MSTORE PUSH1 0x20 ADD PUSH1 0x40 MLOAD DUP1 PUSH1 0x40 ADD PUSH1 0x40 MSTORE DUP1 PUSH1 0xF DUP2 MSTORE PUSH1 0x20 ADD PUSH32 0x546F206265206576616C75617465640000000000000000000000000000000000 DUP2 MSTORE POP DUP2 MSTORE PUSH1 0x20 ADD PUSH1 0x40 MLOAD DUP1 PUSH1 0x40 ADD PUSH1 0x40 MSTORE DUP1 PUSH1 0xE DUP2 MSTORE PUSH1 0x20 ADD PUSH32 0x546F2062652061737369676E6564000000000000000000000000000000000000 DUP2 MSTORE POP DUP2 MSTORE PUSH1 0x20 ADD PUSH1 0x1 ISZERO ISZERO DUP2 MSTORE PUSH1 0x20 ADD PUSH0 ISZERO ISZERO DUP2 MSTORE PUSH1 0x20 ADD PUSH0 ISZERO ISZERO DUP2 MSTORE PUSH1 0x20 ADD PUSH0 ISZERO ISZERO DUP2 MSTORE POP PUSH1 0x2 PUSH0 PUSH1 0x3 SLOAD DUP2 MSTORE PUSH1 0x20 ADD SWAP1 DUP2 MSTORE PUSH1 0x20 ADD PUSH0 KECCAK256 PUSH0 DUP3 ADD MLOAD DUP2 PUSH0 ADD SWAP1 DUP2 PUSH2 0xCA7 SWAP2 SWAP1 PUSH2 0x18B1 JUMP JUMPDEST POP PUSH1 0x20 DUP3 ADD MLOAD DUP2 PUSH1 0x1 ADD SSTORE PUSH1 0x40 DUP3 ADD MLOAD DUP2 PUSH1 0x2 ADD SWAP1 DUP2 PUSH2 0xCC7 SWAP2 SWAP1 PUSH2 0x18B1 JUMP JUMPDEST POP PUSH1 0x60 DUP3 ADD MLOAD DUP2 PUSH1 0x3 ADD SWAP1 DUP2 PUSH2 0xCDD SWAP2 SWAP1 PUSH2 0x18B1 JUMP JUMPDEST POP PUSH1 0x80 DUP3 ADD MLOAD DUP2 PUSH1 0x4 ADD PUSH0 PUSH2 0x100 EXP DUP2 SLOAD DUP2 PUSH1 0xFF MUL NOT AND SWAP1 DUP4 ISZERO ISZERO MUL OR SWAP1 SSTORE POP PUSH1 0xA0 DUP3 ADD MLOAD DUP2 PUSH1 0x4 ADD PUSH1 0x1 PUSH2 0x100 EXP DUP2 SLOAD DUP2 PUSH1 0xFF MUL NOT AND SWAP1 DUP4 ISZERO ISZERO MUL OR SWAP1 SSTORE POP PUSH1 0xC0 DUP3 ADD MLOAD DUP2 PUSH1 0x4 ADD PUSH1 0x2 PUSH2 0x100 EXP DUP2 SLOAD DUP2 PUSH1 0xFF MUL NOT AND SWAP1 DUP4 ISZERO ISZERO MUL OR SWAP1 SSTORE POP PUSH1 0xE0 DUP3 ADD MLOAD DUP2 PUSH1 0x4 ADD PUSH1 0x3 PUSH2 0x100 EXP DUP2 SLOAD DUP2 PUSH1 0xFF MUL NOT AND SWAP1 DUP4 ISZERO ISZERO MUL OR SWAP1 SSTORE POP SWAP1 POP POP PUSH32 0x216EA2081E6EA51306AD90D22FB212F034E7246F7E718ECC8CAF5E36A5A9D22 DUP3 DUP3 PUSH1 0x1 PUSH0 PUSH0 PUSH0 PUSH1 0x40 MLOAD PUSH2 0xD9A SWAP7 SWAP6 SWAP5 SWAP4 SWAP3 SWAP2 SWAP1 PUSH2 0x1B5E JUMP JUMPDEST PUSH1 0x40 MLOAD DUP1 SWAP2 SUB SWAP1 LOG1 POP POP JUMP JUMPDEST PUSH2 0xDAE PUSH2 0xED4 JUMP JUMPDEST PUSH1 0x1 PUSH0 DUP4 DUP2 MSTORE PUSH1 0x20 ADD SWAP1 DUP2 MSTORE PUSH1 0x20 ADD PUSH0 KECCAK256 PUSH1 0x40 MLOAD DUP1 PUSH1 0x40 ADD PUSH1 0x40 MSTORE SWAP1 DUP2 PUSH0 DUP3 ADD DUP1 SLOAD PUSH2 0xDD9 SWAP1 PUSH2 0x16E1 JUMP JUMPDEST DUP1 PUSH1 0x1F ADD PUSH1 0x20 DUP1 SWAP2 DIV MUL PUSH1 0x20 ADD PUSH1 0x40 MLOAD SWAP1 DUP2 ADD PUSH1 0x40 MSTORE DUP1 SWAP3 SWAP2 SWAP1 DUP2 DUP2 MSTORE PUSH1 0x20 ADD DUP3 DUP1 SLOAD PUSH2 0xE05 SWAP1 PUSH2 0x16E1 JUMP JUMPDEST DUP1 ISZERO PUSH2 0xE50 JUMPI DUP1 PUSH1 0x1F LT PUSH2 0xE27 JUMPI PUSH2 0x100 DUP1 DUP4 SLOAD DIV MUL DUP4 MSTORE SWAP2 PUSH1 0x20 ADD SWAP2 PUSH2 0xE50 JUMP JUMPDEST DUP3 ADD SWAP2 SWAP1 PUSH0 MSTORE PUSH1 0x20 PUSH0 KECCAK256 SWAP1 JUMPDEST DUP2 SLOAD DUP2 MSTORE SWAP1 PUSH1 0x1 ADD SWAP1 PUSH1 0x20 ADD DUP1 DUP4 GT PUSH2 0xE33 JUMPI DUP3 SWAP1 SUB PUSH1 0x1F AND DUP3 ADD SWAP2 JUMPDEST POP POP POP POP POP DUP2 MSTORE PUSH1 0x20 ADD PUSH1 0x1 DUP3 ADD PUSH0 SWAP1 SLOAD SWAP1 PUSH2 0x100 EXP SWAP1 DIV PUSH1 0xFF AND ISZERO ISZERO ISZERO ISZERO DUP2 MSTORE POP POP SWAP1 POP SWAP2 SWAP1 POP JUMP JUMPDEST PUSH0 PUSH1 0x3 SLOAD SWAP1 POP SWAP1 JUMP JUMPDEST PUSH0 PUSH1 0x4 SLOAD SWAP1 POP SWAP1 JUMP JUMPDEST PUSH1 0x40 MLOAD DUP1 PUSH2 0x100 ADD PUSH1 0x40 MSTORE DUP1 PUSH1 0x60 DUP2 MSTORE PUSH1 0x20 ADD PUSH0 DUP2 MSTORE PUSH1 0x20 ADD PUSH1 0x60 DUP2 MSTORE PUSH1 0x20 ADD PUSH1 0x60 DUP2 MSTORE PUSH1 0x20 ADD PUSH0 ISZERO ISZERO DUP2 MSTORE PUSH1 0x20 ADD PUSH0 ISZERO ISZERO DUP2 MSTORE PUSH1 0x20 ADD PUSH0 ISZERO ISZERO DUP2 MSTORE PUSH1 0x20 ADD PUSH0 ISZERO ISZERO DUP2 MSTORE POP SWAP1 JUMP JUMPDEST PUSH1 0x40 MLOAD DUP1 PUSH1 0x40 ADD PUSH1 0x40 MSTORE DUP1 PUSH1 0x60 DUP2 MSTORE PUSH1 0x20 ADD PUSH0 ISZERO ISZERO DUP2 MSTORE POP SWAP1 JUMP JUMPDEST PUSH0 DUP2 SWAP1 POP SWAP2 SWAP1 POP JUMP JUMPDEST PUSH2 0xF01 DUP2 PUSH2 0xEEF JUMP JUMPDEST DUP3 MSTORE POP POP JUMP JUMPDEST PUSH0 PUSH1 0x20 DUP3 ADD SWAP1 POP PUSH2 0xF1A PUSH0 DUP4 ADD DUP5 PUSH2 0xEF8 JUMP JUMPDEST SWAP3 SWAP2 POP POP JUMP JUMPDEST PUSH0 PUSH1 0x40 MLOAD SWAP1 POP SWAP1 JUMP JUMPDEST PUSH0 PUSH0 REVERT JUMPDEST PUSH0 PUSH0 REVERT JUMPDEST PUSH2 0xF3A DUP2 PUSH2 0xEEF JUMP JUMPDEST DUP2 EQ PUSH2 0xF44 JUMPI PUSH0 PUSH0 REVERT JUMPDEST POP JUMP JUMPDEST PUSH0 DUP2 CALLDATALOAD SWAP1 POP PUSH2 0xF55 DUP2 PUSH2 0xF31 JUMP JUMPDEST SWAP3 SWAP2 POP POP JUMP JUMPDEST PUSH0 PUSH0 REVERT JUMPDEST PUSH0 PUSH1 0x1F NOT PUSH1 0x1F DUP4 ADD AND SWAP1 POP SWAP2 SWAP1 POP JUMP JUMPDEST PUSH32 0x4E487B7100000000000000000000000000000000000000000000000000000000 PUSH0 MSTORE PUSH1 0x41 PUSH1 0x4 MSTORE PUSH1 0x24 PUSH0 REVERT JUMPDEST PUSH2 0xFA5 DUP3 PUSH2 0xF5F JUMP JUMPDEST DUP2 ADD DUP2 DUP2 LT PUSH8 0xFFFFFFFFFFFFFFFF DUP3 GT OR ISZERO PUSH2 0xFC4 JUMPI PUSH2 0xFC3 PUSH2 0xF6F JUMP JUMPDEST JUMPDEST DUP1 PUSH1 0x40 MSTORE POP POP POP JUMP JUMPDEST PUSH0 PUSH2 0xFD6 PUSH2 0xF20 JUMP JUMPDEST SWAP1 POP PUSH2 0xFE2 DUP3 DUP3 PUSH2 0xF9C JUMP JUMPDEST SWAP2 SWAP1 POP JUMP JUMPDEST PUSH0 PUSH0 REVERT JUMPDEST PUSH0 PUSH0 REVERT JUMPDEST PUSH0 PUSH0 REVERT JUMPDEST PUSH0 PUSH8 0xFFFFFFFFFFFFFFFF DUP3 GT ISZERO PUSH2 0x100D JUMPI PUSH2 0x100C PUSH2 0xF6F JUMP JUMPDEST JUMPDEST PUSH2 0x1016 DUP3 PUSH2 0xF5F JUMP JUMPDEST SWAP1 POP PUSH1 0x20 DUP2 ADD SWAP1 POP SWAP2 SWAP1 POP JUMP JUMPDEST DUP3 DUP2 DUP4 CALLDATACOPY PUSH0 DUP4 DUP4 ADD MSTORE POP POP POP JUMP JUMPDEST PUSH0 PUSH2 0x1043 PUSH2 0x103E DUP5 PUSH2 0xFF3 JUMP JUMPDEST PUSH2 0xFCD JUMP JUMPDEST SWAP1 POP DUP3 DUP2 MSTORE PUSH1 0x20 DUP2 ADD DUP5 DUP5 DUP5 ADD GT ISZERO PUSH2 0x105F JUMPI PUSH2 0x105E PUSH2 0xFEF JUMP JUMPDEST JUMPDEST PUSH2 0x106A DUP5 DUP3 DUP6 PUSH2 0x1023 JUMP JUMPDEST POP SWAP4 SWAP3 POP POP POP JUMP JUMPDEST PUSH0 DUP3 PUSH1 0x1F DUP4 ADD SLT PUSH2 0x1086 JUMPI PUSH2 0x1085 PUSH2 0xFEB JUMP JUMPDEST JUMPDEST DUP2 CALLDATALOAD PUSH2 0x1096 DUP5 DUP3 PUSH1 0x20 DUP7 ADD PUSH2 0x1031 JUMP JUMPDEST SWAP2 POP POP SWAP3 SWAP2 POP POP JUMP JUMPDEST PUSH0 DUP2 ISZERO ISZERO SWAP1 POP SWAP2 SWAP1 POP JUMP JUMPDEST PUSH2 0x10B3 DUP2 PUSH2 0x109F JUMP JUMPDEST DUP2 EQ PUSH2 0x10BD JUMPI PUSH0 PUSH0 REVERT JUMPDEST POP JUMP JUMPDEST PUSH0 DUP2 CALLDATALOAD SWAP1 POP PUSH2 0x10CE DUP2 PUSH2 0x10AA JUMP JUMPDEST SWAP3 SWAP2 POP POP JUMP JUMPDEST PUSH0 PUSH2 0x100 DUP3 DUP5 SUB SLT ISZERO PUSH2 0x10EA JUMPI PUSH2 0x10E9 PUSH2 0xF5B JUMP JUMPDEST JUMPDEST PUSH2 0x10F5 PUSH2 0x100 PUSH2 0xFCD JUMP JUMPDEST SWAP1 POP PUSH0 DUP3 ADD CALLDATALOAD PUSH8 0xFFFFFFFFFFFFFFFF DUP2 GT ISZERO PUSH2 0x1114 JUMPI PUSH2 0x1113 PUSH2 0xFE7 JUMP JUMPDEST JUMPDEST PUSH2 0x1120 DUP5 DUP3 DUP6 ADD PUSH2 0x1072 JUMP JUMPDEST PUSH0 DUP4 ADD MSTORE POP PUSH1 0x20 PUSH2 0x1133 DUP5 DUP3 DUP6 ADD PUSH2 0xF47 JUMP JUMPDEST PUSH1 0x20 DUP4 ADD MSTORE POP PUSH1 0x40 DUP3 ADD CALLDATALOAD PUSH8 0xFFFFFFFFFFFFFFFF DUP2 GT ISZERO PUSH2 0x1157 JUMPI PUSH2 0x1156 PUSH2 0xFE7 JUMP JUMPDEST JUMPDEST PUSH2 0x1163 DUP5 DUP3 DUP6 ADD PUSH2 0x1072 JUMP JUMPDEST PUSH1 0x40 DUP4 ADD MSTORE POP PUSH1 0x60 DUP3 ADD CALLDATALOAD PUSH8 0xFFFFFFFFFFFFFFFF DUP2 GT ISZERO PUSH2 0x1187 JUMPI PUSH2 0x1186 PUSH2 0xFE7 JUMP JUMPDEST JUMPDEST PUSH2 0x1193 DUP5 DUP3 DUP6 ADD PUSH2 0x1072 JUMP JUMPDEST PUSH1 0x60 DUP4 ADD MSTORE POP PUSH1 0x80 PUSH2 0x11A7 DUP5 DUP3 DUP6 ADD PUSH2 0x10C0 JUMP JUMPDEST PUSH1 0x80 DUP4 ADD MSTORE POP PUSH1 0xA0 PUSH2 0x11BB DUP5 DUP3 DUP6 ADD PUSH2 0x10C0 JUMP JUMPDEST PUSH1 0xA0 DUP4 ADD MSTORE POP PUSH1 0xC0 PUSH2 0x11CF DUP5 DUP3 DUP6 ADD PUSH2 0x10C0 JUMP JUMPDEST PUSH1 0xC0 DUP4 ADD MSTORE POP PUSH1 0xE0 PUSH2 0x11E3 DUP5 DUP3 DUP6 ADD PUSH2 0x10C0 JUMP JUMPDEST PUSH1 0xE0 DUP4 ADD MSTORE POP SWAP3 SWAP2 POP POP JUMP JUMPDEST PUSH0 PUSH0 PUSH1 0x40 DUP4 DUP6 SUB SLT ISZERO PUSH2 0x1205 JUMPI PUSH2 0x1204 PUSH2 0xF29 JUMP JUMPDEST JUMPDEST PUSH0 PUSH2 0x1212 DUP6 DUP3 DUP7 ADD PUSH2 0xF47 JUMP JUMPDEST SWAP3 POP POP PUSH1 0x20 DUP4 ADD CALLDATALOAD PUSH8 0xFFFFFFFFFFFFFFFF DUP2 GT ISZERO PUSH2 0x1233 JUMPI PUSH2 0x1232 PUSH2 0xF2D JUMP JUMPDEST JUMPDEST PUSH2 0x123F DUP6 DUP3 DUP7 ADD PUSH2 0x10D4 JUMP JUMPDEST SWAP2 POP POP SWAP3 POP SWAP3 SWAP1 POP JUMP JUMPDEST PUSH0 PUSH1 0x20 DUP3 DUP5 SUB SLT ISZERO PUSH2 0x125E JUMPI PUSH2 0x125D PUSH2 0xF29 JUMP JUMPDEST JUMPDEST PUSH0 PUSH2 0x126B DUP5 DUP3 DUP6 ADD PUSH2 0xF47 JUMP JUMPDEST SWAP2 POP POP SWAP3 SWAP2 POP POP JUMP JUMPDEST PUSH0 DUP2 MLOAD SWAP1 POP SWAP2 SWAP1 POP JUMP JUMPDEST PUSH0 DUP3 DUP3 MSTORE PUSH1 0x20 DUP3 ADD SWAP1 POP SWAP3 SWAP2 POP POP JUMP JUMPDEST DUP3 DUP2 DUP4 MCOPY PUSH0 DUP4 DUP4 ADD MSTORE POP POP POP JUMP JUMPDEST PUSH0 PUSH2 0x12A6 DUP3 PUSH2 0x1274 JUMP JUMPDEST PUSH2 0x12B0 DUP2 DUP6 PUSH2 0x127E JUMP JUMPDEST SWAP4 POP PUSH2 0x12C0 DUP2 DUP6 PUSH1 0x20 DUP7 ADD PUSH2 0x128E JUMP JUMPDEST PUSH2 0x12C9 DUP2 PUSH2 0xF5F JUMP JUMPDEST DUP5 ADD SWAP2 POP POP SWAP3 SWAP2 POP POP JUMP JUMPDEST PUSH2 0x12DD DUP2 PUSH2 0xEEF JUMP JUMPDEST DUP3 MSTORE POP POP JUMP JUMPDEST PUSH2 0x12EC DUP2 PUSH2 0x109F JUMP JUMPDEST DUP3 MSTORE POP POP JUMP JUMPDEST PUSH0 PUSH2 0x100 DUP4 ADD PUSH0 DUP4 ADD MLOAD DUP5 DUP3 SUB PUSH0 DUP7 ADD MSTORE PUSH2 0x130D DUP3 DUP3 PUSH2 0x129C JUMP JUMPDEST SWAP2 POP POP PUSH1 0x20 DUP4 ADD MLOAD PUSH2 0x1322 PUSH1 0x20 DUP7 ADD DUP3 PUSH2 0x12D4 JUMP JUMPDEST POP PUSH1 0x40 DUP4 ADD MLOAD DUP5 DUP3 SUB PUSH1 0x40 DUP7 ADD MSTORE PUSH2 0x133A DUP3 DUP3 PUSH2 0x129C JUMP JUMPDEST SWAP2 POP POP PUSH1 0x60 DUP4 ADD MLOAD DUP5 DUP3 SUB PUSH1 0x60 DUP7 ADD MSTORE PUSH2 0x1354 DUP3 DUP3 PUSH2 0x129C JUMP JUMPDEST SWAP2 POP POP PUSH1 0x80 DUP4 ADD MLOAD PUSH2 0x1369 PUSH1 0x80 DUP7 ADD DUP3 PUSH2 0x12E3 JUMP JUMPDEST POP PUSH1 0xA0 DUP4 ADD MLOAD PUSH2 0x137C PUSH1 0xA0 DUP7 ADD DUP3 PUSH2 0x12E3 JUMP JUMPDEST POP PUSH1 0xC0 DUP4 ADD MLOAD PUSH2 0x138F PUSH1 0xC0 DUP7 ADD DUP3 PUSH2 0x12E3 JUMP JUMPDEST POP PUSH1 0xE0 DUP4 ADD MLOAD PUSH2 0x13A2 PUSH1 0xE0 DUP7 ADD DUP3 PUSH2 0x12E3 JUMP JUMPDEST POP DUP1 SWAP2 POP POP SWAP3 SWAP2 POP POP JUMP JUMPDEST PUSH0 PUSH1 0x20 DUP3 ADD SWAP1 POP DUP2 DUP2 SUB PUSH0 DUP4 ADD MSTORE PUSH2 0x13C5 DUP2 DUP5 PUSH2 0x12F2 JUMP JUMPDEST SWAP1 POP SWAP3 SWAP2 POP POP JUMP JUMPDEST PUSH0 PUSH0 PUSH1 0x40 DUP4 DUP6 SUB SLT ISZERO PUSH2 0x13E3 JUMPI PUSH2 0x13E2 PUSH2 0xF29 JUMP JUMPDEST JUMPDEST PUSH0 DUP4 ADD CALLDATALOAD PUSH8 0xFFFFFFFFFFFFFFFF DUP2 GT ISZERO PUSH2 0x1400 JUMPI PUSH2 0x13FF PUSH2 0xF2D JUMP JUMPDEST JUMPDEST PUSH2 0x140C DUP6 DUP3 DUP7 ADD PUSH2 0x1072 JUMP JUMPDEST SWAP3 POP POP PUSH1 0x20 PUSH2 0x141D DUP6 DUP3 DUP7 ADD PUSH2 0x10C0 JUMP JUMPDEST SWAP2 POP POP SWAP3 POP SWAP3 SWAP1 POP JUMP JUMPDEST PUSH0 DUP3 DUP3 MSTORE PUSH1 0x20 DUP3 ADD SWAP1 POP SWAP3 SWAP2 POP POP JUMP JUMPDEST PUSH0 PUSH2 0x1441 DUP3 PUSH2 0x1274 JUMP JUMPDEST PUSH2 0x144B DUP2 DUP6 PUSH2 0x1427 JUMP JUMPDEST SWAP4 POP PUSH2 0x145B DUP2 DUP6 PUSH1 0x20 DUP7 ADD PUSH2 0x128E JUMP JUMPDEST PUSH2 0x1464 DUP2 PUSH2 0xF5F JUMP JUMPDEST DUP5 ADD SWAP2 POP POP SWAP3 SWAP2 POP POP JUMP JUMPDEST PUSH2 0x1478 DUP2 PUSH2 0x109F JUMP JUMPDEST DUP3 MSTORE POP POP JUMP JUMPDEST PUSH0 PUSH2 0x100 DUP3 ADD SWAP1 POP DUP2 DUP2 SUB PUSH0 DUP4 ADD MSTORE PUSH2 0x1497 DUP2 DUP12 PUSH2 0x1437 JUMP JUMPDEST SWAP1 POP PUSH2 0x14A6 PUSH1 0x20 DUP4 ADD DUP11 PUSH2 0xEF8 JUMP JUMPDEST DUP2 DUP2 SUB PUSH1 0x40 DUP4 ADD MSTORE PUSH2 0x14B8 DUP2 DUP10 PUSH2 0x1437 JUMP JUMPDEST SWAP1 POP DUP2 DUP2 SUB PUSH1 0x60 DUP4 ADD MSTORE PUSH2 0x14CC DUP2 DUP9 PUSH2 0x1437 JUMP JUMPDEST SWAP1 POP PUSH2 0x14DB PUSH1 0x80 DUP4 ADD DUP8 PUSH2 0x146F JUMP JUMPDEST PUSH2 0x14E8 PUSH1 0xA0 DUP4 ADD DUP7 PUSH2 0x146F JUMP JUMPDEST PUSH2 0x14F5 PUSH1 0xC0 DUP4 ADD DUP6 PUSH2 0x146F JUMP JUMPDEST PUSH2 0x1502 PUSH1 0xE0 DUP4 ADD DUP5 PUSH2 0x146F JUMP JUMPDEST SWAP10 SWAP9 POP POP POP POP POP POP POP POP POP JUMP JUMPDEST PUSH0 PUSH1 0x40 DUP3 DUP5 SUB SLT ISZERO PUSH2 0x1524 JUMPI PUSH2 0x1523 PUSH2 0xF5B JUMP JUMPDEST JUMPDEST PUSH2 0x152E PUSH1 0x40 PUSH2 0xFCD JUMP JUMPDEST SWAP1 POP PUSH0 DUP3 ADD CALLDATALOAD PUSH8 0xFFFFFFFFFFFFFFFF DUP2 GT ISZERO PUSH2 0x154D JUMPI PUSH2 0x154C PUSH2 0xFE7 JUMP JUMPDEST JUMPDEST PUSH2 0x1559 DUP5 DUP3 DUP6 ADD PUSH2 0x1072 JUMP JUMPDEST PUSH0 DUP4 ADD MSTORE POP PUSH1 0x20 PUSH2 0x156C DUP5 DUP3 DUP6 ADD PUSH2 0x10C0 JUMP JUMPDEST PUSH1 0x20 DUP4 ADD MSTORE POP SWAP3 SWAP2 POP POP JUMP JUMPDEST PUSH0 PUSH0 PUSH1 0x40 DUP4 DUP6 SUB SLT ISZERO PUSH2 0x158E JUMPI PUSH2 0x158D PUSH2 0xF29 JUMP JUMPDEST JUMPDEST PUSH0 PUSH2 0x159B DUP6 DUP3 DUP7 ADD PUSH2 0xF47 JUMP JUMPDEST SWAP3 POP POP PUSH1 0x20 DUP4 ADD CALLDATALOAD PUSH8 0xFFFFFFFFFFFFFFFF DUP2 GT ISZERO PUSH2 0x15BC JUMPI PUSH2 0x15BB PUSH2 0xF2D JUMP JUMPDEST JUMPDEST PUSH2 0x15C8 DUP6 DUP3 DUP7 ADD PUSH2 0x150F JUMP JUMPDEST SWAP2 POP POP SWAP3 POP SWAP3 SWAP1 POP JUMP JUMPDEST PUSH0 PUSH1 0x40 DUP3 ADD SWAP1 POP DUP2 DUP2 SUB PUSH0 DUP4 ADD MSTORE PUSH2 0x15EA DUP2 DUP6 PUSH2 0x1437 JUMP JUMPDEST SWAP1 POP PUSH2 0x15F9 PUSH1 0x20 DUP4 ADD DUP5 PUSH2 0x146F JUMP JUMPDEST SWAP4 SWAP3 POP POP POP JUMP JUMPDEST PUSH0 PUSH0 PUSH1 0x40 DUP4 DUP6 SUB SLT ISZERO PUSH2 0x1616 JUMPI PUSH2 0x1615 PUSH2 0xF29 JUMP JUMPDEST JUMPDEST PUSH0 DUP4 ADD CALLDATALOAD PUSH8 0xFFFFFFFFFFFFFFFF DUP2 GT ISZERO PUSH2 0x1633 JUMPI PUSH2 0x1632 PUSH2 0xF2D JUMP JUMPDEST JUMPDEST PUSH2 0x163F DUP6 DUP3 DUP7 ADD PUSH2 0x1072 JUMP JUMPDEST SWAP3 POP POP PUSH1 0x20 PUSH2 0x1650 DUP6 DUP3 DUP7 ADD PUSH2 0xF47 JUMP JUMPDEST SWAP2 POP POP SWAP3 POP SWAP3 SWAP1 POP JUMP JUMPDEST PUSH0 PUSH1 0x40 DUP4 ADD PUSH0 DUP4 ADD MLOAD DUP5 DUP3 SUB PUSH0 DUP7 ADD MSTORE PUSH2 0x1674 DUP3 DUP3 PUSH2 0x129C JUMP JUMPDEST SWAP2 POP POP PUSH1 0x20 DUP4 ADD MLOAD PUSH2 0x1689 PUSH1 0x20 DUP7 ADD DUP3 PUSH2 0x12E3 JUMP JUMPDEST POP DUP1 SWAP2 POP POP SWAP3 SWAP2 POP POP JUMP JUMPDEST PUSH0 PUSH1 0x20 DUP3 ADD SWAP1 POP DUP2 DUP2 SUB PUSH0 DUP4 ADD MSTORE PUSH2 0x16AC DUP2 DUP5 PUSH2 0x165A JUMP JUMPDEST SWAP1 POP SWAP3 SWAP2 POP POP JUMP JUMPDEST PUSH32 0x4E487B7100000000000000000000000000000000000000000000000000000000 PUSH0 MSTORE PUSH1 0x22 PUSH1 0x4 MSTORE PUSH1 0x24 PUSH0 REVERT JUMPDEST PUSH0 PUSH1 0x2 DUP3 DIV SWAP1 POP PUSH1 0x1 DUP3 AND DUP1 PUSH2 0x16F8 JUMPI PUSH1 0x7F DUP3 AND SWAP2 POP JUMPDEST PUSH1 0x20 DUP3 LT DUP2 SUB PUSH2 0x170B JUMPI PUSH2 0x170A PUSH2 0x16B4 JUMP JUMPDEST JUMPDEST POP SWAP2 SWAP1 POP JUMP JUMPDEST PUSH0 DUP2 SWAP1 POP DUP2 PUSH0 MSTORE PUSH1 0x20 PUSH0 KECCAK256 SWAP1 POP SWAP2 SWAP1 POP JUMP JUMPDEST PUSH0 PUSH1 0x20 PUSH1 0x1F DUP4 ADD DIV SWAP1 POP SWAP2 SWAP1 POP JUMP JUMPDEST PUSH0 DUP3 DUP3 SHL SWAP1 POP SWAP3 SWAP2 POP POP JUMP JUMPDEST PUSH0 PUSH1 0x8 DUP4 MUL PUSH2 0x176D PUSH32 0xFFFFFFFFFFFFFFFFFFFFFFFFFFFFFFFFFFFFFFFFFFFFFFFFFFFFFFFFFFFFFFFF DUP3 PUSH2 0x1732 JUMP JUMPDEST PUSH2 0x1777 DUP7 DUP4 PUSH2 0x1732 JUMP JUMPDEST SWAP6 POP DUP1 NOT DUP5 AND SWAP4 POP DUP1 DUP7 AND DUP5 OR SWAP3 POP POP POP SWAP4 SWAP3 POP POP POP JUMP JUMPDEST PUSH0 DUP2 SWAP1 POP SWAP2 SWAP1 POP JUMP JUMPDEST PUSH0 PUSH2 0x17B2 PUSH2 0x17AD PUSH2 0x17A8 DUP5 PUSH2 0xEEF JUMP JUMPDEST PUSH2 0x178F JUMP JUMPDEST PUSH2 0xEEF JUMP JUMPDEST SWAP1 POP SWAP2 SWAP1 POP JUMP JUMPDEST PUSH0 DUP2 SWAP1 POP SWAP2 SWAP1 POP JUMP JUMPDEST PUSH2 0x17CB DUP4 PUSH2 0x1798 JUMP JUMPDEST PUSH2 0x17DF PUSH2 0x17D7 DUP3 PUSH2 0x17B9 JUMP JUMPDEST DUP5 DUP5 SLOAD PUSH2 0x173E JUMP JUMPDEST DUP3 SSTORE POP POP POP POP JUMP JUMPDEST PUSH0 PUSH0 SWAP1 POP SWAP1 JUMP JUMPDEST PUSH2 0x17F6 PUSH2 0x17E7 JUMP JUMPDEST PUSH2 0x1801 DUP2 DUP5 DUP5 PUSH2 0x17C2 JUMP JUMPDEST POP POP POP JUMP JUMPDEST JUMPDEST DUP2 DUP2 LT ISZERO PUSH2 0x1824 JUMPI PUSH2 0x1819 PUSH0 DUP3 PUSH2 0x17EE JUMP JUMPDEST PUSH1 0x1 DUP2 ADD SWAP1 POP PUSH2 0x1807 JUMP JUMPDEST POP POP JUMP JUMPDEST PUSH1 0x1F DUP3 GT ISZERO PUSH2 0x1869 JUMPI PUSH2 0x183A DUP2 PUSH2 0x1711 JUMP JUMPDEST PUSH2 0x1843 DUP5 PUSH2 0x1723 JUMP JUMPDEST DUP2 ADD PUSH1 0x20 DUP6 LT ISZERO PUSH2 0x1852 JUMPI DUP2 SWAP1 POP JUMPDEST PUSH2 0x1866 PUSH2 0x185E DUP6 PUSH2 0x1723 JUMP JUMPDEST DUP4 ADD DUP3 PUSH2 0x1806 JUMP JUMPDEST POP POP JUMPDEST POP POP POP JUMP JUMPDEST PUSH0 DUP3 DUP3 SHR SWAP1 POP SWAP3 SWAP2 POP POP JUMP JUMPDEST PUSH0 PUSH2 0x1889 PUSH0 NOT DUP5 PUSH1 0x8 MUL PUSH2 0x186E JUMP JUMPDEST NOT DUP1 DUP4 AND SWAP2 POP POP SWAP3 SWAP2 POP POP JUMP JUMPDEST PUSH0 PUSH2 0x18A1 DUP4 DUP4 PUSH2 0x187A JUMP JUMPDEST SWAP2 POP DUP3 PUSH1 0x2 MUL DUP3 OR SWAP1 POP SWAP3 SWAP2 POP POP JUMP JUMPDEST PUSH2 0x18BA DUP3 PUSH2 0x1274 JUMP JUMPDEST PUSH8 0xFFFFFFFFFFFFFFFF DUP2 GT ISZERO PUSH2 0x18D3 JUMPI PUSH2 0x18D2 PUSH2 0xF6F JUMP JUMPDEST JUMPDEST PUSH2 0x18DD DUP3 SLOAD PUSH2 0x16E1 JUMP JUMPDEST PUSH2 0x18E8 DUP3 DUP3 DUP6 PUSH2 0x1828 JUMP JUMPDEST PUSH0 PUSH1 0x20 SWAP1 POP PUSH1 0x1F DUP4 GT PUSH1 0x1 DUP2 EQ PUSH2 0x1919 JUMPI PUSH0 DUP5 ISZERO PUSH2 0x1907 JUMPI DUP3 DUP8 ADD MLOAD SWAP1 POP JUMPDEST PUSH2 0x1911 DUP6 DUP3 PUSH2 0x1896 JUMP JUMPDEST DUP7 SSTORE POP PUSH2 0x1978 JUMP JUMPDEST PUSH1 0x1F NOT DUP5 AND PUSH2 0x1927 DUP7 PUSH2 0x1711 JUMP JUMPDEST PUSH0 JUMPDEST DUP3 DUP2 LT ISZERO PUSH2 0x194E JUMPI DUP5 DUP10 ADD MLOAD DUP3 SSTORE PUSH1 0x1 DUP3 ADD SWAP2 POP PUSH1 0x20 DUP6 ADD SWAP5 POP PUSH1 0x20 DUP2 ADD SWAP1 POP PUSH2 0x1929 JUMP JUMPDEST DUP7 DUP4 LT ISZERO PUSH2 0x196B JUMPI DUP5 DUP10 ADD MLOAD PUSH2 0x1967 PUSH1 0x1F DUP10 AND DUP3 PUSH2 0x187A JUMP JUMPDEST DUP4 SSTORE POP JUMPDEST PUSH1 0x1 PUSH1 0x2 DUP9 MUL ADD DUP9 SSTORE POP POP POP JUMPDEST POP POP POP POP POP POP JUMP JUMPDEST PUSH32 0x4E487B7100000000000000000000000000000000000000000000000000000000 PUSH0 MSTORE PUSH1 0x11 PUSH1 0x4 MSTORE PUSH1 0x24 PUSH0 REVERT JUMPDEST PUSH0 PUSH2 0x19B7 DUP3 PUSH2 0xEEF JUMP JUMPDEST SWAP2 POP PUSH32 0xFFFFFFFFFFFFFFFFFFFFFFFFFFFFFFFFFFFFFFFFFFFFFFFFFFFFFFFFFFFFFFFF DUP3 SUB PUSH2 0x19E9 JUMPI PUSH2 0x19E8 PUSH2 0x1980 JUMP JUMPDEST JUMPDEST PUSH1 0x1 DUP3 ADD SWAP1 POP SWAP2 SWAP1 POP JUMP JUMPDEST PUSH0 PUSH2 0x19FE DUP3 PUSH2 0xEEF JUMP JUMPDEST SWAP2 POP PUSH0 DUP3 SUB PUSH2 0x1A10 JUMPI PUSH2 0x1A0F PUSH2 0x1980 JUMP JUMPDEST JUMPDEST PUSH1 0x1 DUP3 SUB SWAP1 POP SWAP2 SWAP1 POP JUMP JUMPDEST PUSH0 DUP2 SLOAD PUSH2 0x1A27 DUP2 PUSH2 0x16E1 JUMP JUMPDEST PUSH2 0x1A31 DUP2 DUP7 PUSH2 0x1427 JUMP JUMPDEST SWAP5 POP PUSH1 0x1 DUP3 AND PUSH0 DUP2 EQ PUSH2 0x1A4B JUMPI PUSH1 0x1 DUP2 EQ PUSH2 0x1A61 JUMPI PUSH2 0x1A93 JUMP JUMPDEST PUSH1 0xFF NOT DUP4 AND DUP7 MSTORE DUP2 ISZERO ISZERO PUSH1 0x20 MUL DUP7 ADD SWAP4 POP PUSH2 0x1A93 JUMP JUMPDEST PUSH2 0x1A6A DUP6 PUSH2 0x1711 JUMP JUMPDEST PUSH0 JUMPDEST DUP4 DUP2 LT ISZERO PUSH2 0x1A8B JUMPI DUP2 SLOAD DUP2 DUP10 ADD MSTORE PUSH1 0x1 DUP3 ADD SWAP2 POP PUSH1 0x20 DUP2 ADD SWAP1 POP PUSH2 0x1A6C JUMP JUMPDEST DUP1 DUP9 ADD SWAP6 POP POP POP JUMPDEST POP POP POP SWAP3 SWAP2 POP POP JUMP JUMPDEST PUSH0 PUSH1 0x40 DUP3 ADD SWAP1 POP PUSH2 0x1AAF PUSH0 DUP4 ADD DUP6 PUSH2 0xEF8 JUMP JUMPDEST DUP2 DUP2 SUB PUSH1 0x20 DUP4 ADD MSTORE PUSH2 0x1AC1 DUP2 DUP5 PUSH2 0x1A1B JUMP JUMPDEST SWAP1 POP SWAP4 SWAP3 POP POP POP JUMP JUMPDEST PUSH32 0x546F206265206576616C75617465640000000000000000000000000000000000 PUSH0 DUP3 ADD MSTORE POP JUMP JUMPDEST PUSH0 PUSH2 0x1AFE PUSH1 0xF DUP4 PUSH2 0x1427 JUMP JUMPDEST SWAP2 POP PUSH2 0x1B09 DUP3 PUSH2 0x1ACA JUMP JUMPDEST PUSH1 0x20 DUP3 ADD SWAP1 POP SWAP2 SWAP1 POP JUMP JUMPDEST PUSH32 0x546F2062652061737369676E6564000000000000000000000000000000000000 PUSH0 DUP3 ADD MSTORE POP JUMP JUMPDEST PUSH0 PUSH2 0x1B48 PUSH1 0xE DUP4 PUSH2 0x1427 JUMP JUMPDEST SWAP2 POP PUSH2 0x1B53 DUP3 PUSH2 0x1B14 JUMP JUMPDEST PUSH1 0x20 DUP3 ADD SWAP1 POP SWAP2 SWAP1 POP JUMP JUMPDEST PUSH0 PUSH2 0x100 DUP3 ADD SWAP1 POP DUP2 DUP2 SUB PUSH0 DUP4 ADD MSTORE PUSH2 0x1B77 DUP2 DUP10 PUSH2 0x1437 JUMP JUMPDEST SWAP1 POP PUSH2 0x1B86 PUSH1 0x20 DUP4 ADD DUP9 PUSH2 0xEF8 JUMP JUMPDEST DUP2 DUP2 SUB PUSH1 0x40 DUP4 ADD MSTORE PUSH2 0x1B97 DUP2 PUSH2 0x1AF2 JUMP JUMPDEST SWAP1 POP DUP2 DUP2 SUB PUSH1 0x60 DUP4 ADD MSTORE PUSH2 0x1BAA DUP2 PUSH2 0x1B3C JUMP JUMPDEST SWAP1 POP PUSH2 0x1BB9 PUSH1 0x80 DUP4 ADD DUP8 PUSH2 0x146F JUMP JUMPDEST PUSH2 0x1BC6 PUSH1 0xA0 DUP4 ADD DUP7 PUSH2 0x146F JUMP JUMPDEST PUSH2 0x1BD3 PUSH1 0xC0 DUP4 ADD DUP6 PUSH2 0x146F JUMP JUMPDEST PUSH2 0x1BE0 PUSH1 0xE0 DUP4 ADD DUP5 PUSH2 0x146F JUMP JUMPDEST SWAP8 SWAP7 POP POP POP POP POP POP POP JUMP INVALID LOG2 PUSH5 0x6970667358 0x22 SLT KECCAK256 PUSH15 0x701660A70E0E3D4B10898827E006B6 PUSH4 0x29A56702 DUP12 0xEF XOR 0xE9 ISZERO SMOD PUSH25 0x4C848A3A64736F6C634300081E003300000000000000000000 "
		},
		"gasEstimates": {
			"creation": {
				"codeDepositCost": "1440200",
				"executionCost": "25768",
				"totalCost": "1465968"
			},
			"external": {
				"approveRequest(uint256,(string,bool))": "infinite",
				"availableOrgan()": "2448",
				"createOrgan(string,uint256)": "infinite",
				"createRequest(string,bool)": "infinite",
				"getAllOrgans()": "2498",
				"getAvailableOrganCount()": "2520",
				"getOrgan(uint256)": "infinite",
				"getRequest(uint256)": "infinite",
				"organCount()": "2449",
				"organs(uint256)": "infinite",
				"requestCount()": "2514",
				"requests(uint256)": "infinite",
				"totalRequest()": "2470",
				"updateOrgan(uint256,(string,uint256,string,string,bool,bool,bool,bool))": "infinite"
			}
		},
		"methodIdentifiers": {
			"approveRequest(uint256,(string,bool))": "5be2218b",
			"availableOrgan()": "125f02bb",
			"createOrgan(string,uint256)": "8af88a5c",
			"createRequest(string,bool)": "2f045b02",
			"getAllOrgans()": "d7043cb0",
			"getAvailableOrganCount()": "e7da5328",
			"getOrgan(uint256)": "10742b51",
			"getRequest(uint256)": "c58343ef",
			"organCount()": "098809d7",
			"organs(uint256)": "4fbd241d",
			"requestCount()": "5badbe4c",
			"requests(uint256)": "81d12c58",
			"totalRequest()": "61259745",
			"updateOrgan(uint256,(string,uint256,string,string,bool,bool,bool,bool))": "0d47dd26"
		}
	},
	"abi": [
		{
			"inputs": [],
			"stateMutability": "nonpayable",
			"type": "constructor"
		},
		{
			"anonymous": false,
			"inputs": [
				{
					"indexed": false,
					"internalType": "string",
					"name": "doner",
					"type": "string"
				},
				{
					"indexed": false,
					"internalType": "uint256",
					"name": "date",
					"type": "uint256"
				},
				{
					"indexed": false,
					"internalType": "string",
					"name": "condition",
					"type": "string"
				},
				{
					"indexed": false,
					"internalType": "string",
					"name": "donatedTo",
					"type": "string"
				},
				{
					"indexed": false,
					"internalType": "bool",
					"name": "isConsented",
					"type": "bool"
				},
				{
					"indexed": false,
					"internalType": "bool",
					"name": "isEvaluated",
					"type": "bool"
				},
				{
					"indexed": false,
					"internalType": "bool",
					"name": "isStored",
					"type": "bool"
				},
				{
					"indexed": false,
					"internalType": "bool",
					"name": "isAssigned",
					"type": "bool"
				}
			],
			"name": "organIdCreated",
			"type": "event"
		},
		{
			"anonymous": false,
			"inputs": [
				{
					"indexed": false,
					"internalType": "uint256",
					"name": "requestId",
					"type": "uint256"
				},
				{
					"indexed": false,
					"internalType": "string",
					"name": "patient",
					"type": "string"
				}
			],
			"name": "requestApproved",
			"type": "event"
		},
		{
			"anonymous": false,
			"inputs": [
				{
					"indexed": false,
					"internalType": "string",
					"name": "patient",
					"type": "string"
				},
				{
					"indexed": false,
					"internalType": "bool",
					"name": "isApproved",
					"type": "bool"
				}
			],
			"name": "requestIdCreated",
			"type": "event"
		},
		{
			"inputs": [
				{
					"internalType": "uint256",
					"name": "_id",
					"type": "uint256"
				},
				{
					"components": [
						{
							"internalType": "string",
							"name": "patientName",
							"type": "string"
						},
						{
							"internalType": "bool",
							"name": "isApproved",
							"type": "bool"
						}
					],
					"internalType": "struct TokenCreateContract.RequestId",
					"name": "_request",
					"type": "tuple"
				}
			],
			"name": "approveRequest",
			"outputs": [],
			"stateMutability": "nonpayable",
			"type": "function"
		},
		{
			"inputs": [],
			"name": "availableOrgan",
			"outputs": [
				{
					"internalType": "uint256",
					"name": "",
					"type": "uint256"
				}
			],
			"stateMutability": "view",
			"type": "function"
		},
		{
			"inputs": [
				{
					"internalType": "string",
					"name": "_donerName",
					"type": "string"
				},
				{
					"internalType": "uint256",
					"name": "_date",
					"type": "uint256"
				}
			],
			"name": "createOrgan",
			"outputs": [],
			"stateMutability": "nonpayable",
			"type": "function"
		},
		{
			"inputs": [
				{
					"internalType": "string",
					"name": "patientName",
					"type": "string"
				},
				{
					"internalType": "bool",
					"name": "approved",
					"type": "bool"
				}
			],
			"name": "createRequest",
			"outputs": [],
			"stateMutability": "nonpayable",
			"type": "function"
		},
		{
			"inputs": [],
			"name": "getAllOrgans",
			"outputs": [
				{
					"internalType": "uint256",
					"name": "count",
					"type": "uint256"
				}
			],
			"stateMutability": "view",
			"type": "function"
		},
		{
			"inputs": [],
			"name": "getAvailableOrganCount",
			"outputs": [
				{
					"internalType": "uint256",
					"name": "count",
					"type": "uint256"
				}
			],
			"stateMutability": "view",
			"type": "function"
		},
		{
			"inputs": [
				{
					"internalType": "uint256",
					"name": "_id",
					"type": "uint256"
				}
			],
			"name": "getOrgan",
			"outputs": [
				{
					"components": [
						{
							"internalType": "string",
							"name": "donerName",
							"type": "string"
						},
						{
							"internalType": "uint256",
							"name": "dateDonated",
							"type": "uint256"
						},
						{
							"internalType": "string",
							"name": "condition",
							"type": "string"
						},
						{
							"internalType": "string",
							"name": "donatedTo",
							"type": "string"
						},
						{
							"internalType": "bool",
							"name": "isConsented",
							"type": "bool"
						},
						{
							"internalType": "bool",
							"name": "isEvaluated",
							"type": "bool"
						},
						{
							"internalType": "bool",
							"name": "isStored",
							"type": "bool"
						},
						{
							"internalType": "bool",
							"name": "isAssigned",
							"type": "bool"
						}
					],
					"internalType": "struct TokenCreateContract.OrganId",
					"name": "",
					"type": "tuple"
				}
			],
			"stateMutability": "view",
			"type": "function"
		},
		{
			"inputs": [
				{
					"internalType": "uint256",
					"name": "_id",
					"type": "uint256"
				}
			],
			"name": "getRequest",
			"outputs": [
				{
					"components": [
						{
							"internalType": "string",
							"name": "patientName",
							"type": "string"
						},
						{
							"internalType": "bool",
							"name": "isApproved",
							"type": "bool"
						}
					],
					"internalType": "struct TokenCreateContract.RequestId",
					"name": "",
					"type": "tuple"
				}
			],
			"stateMutability": "view",
			"type": "function"
		},
		{
			"inputs": [],
			"name": "organCount",
			"outputs": [
				{
					"internalType": "uint256",
					"name": "",
					"type": "uint256"
				}
			],
			"stateMutability": "view",
			"type": "function"
		},
		{
			"inputs": [
				{
					"internalType": "uint256",
					"name": "",
					"type": "uint256"
				}
			],
			"name": "organs",
			"outputs": [
				{
					"internalType": "string",
					"name": "donerName",
					"type": "string"
				},
				{
					"internalType": "uint256",
					"name": "dateDonated",
					"type": "uint256"
				},
				{
					"internalType": "string",
					"name": "condition",
					"type": "string"
				},
				{
					"internalType": "string",
					"name": "donatedTo",
					"type": "string"
				},
				{
					"internalType": "bool",
					"name": "isConsented",
					"type": "bool"
				},
				{
					"internalType": "bool",
					"name": "isEvaluated",
					"type": "bool"
				},
				{
					"internalType": "bool",
					"name": "isStored",
					"type": "bool"
				},
				{
					"internalType": "bool",
					"name": "isAssigned",
					"type": "bool"
				}
			],
			"stateMutability": "view",
			"type": "function"
		},
		{
			"inputs": [],
			"name": "requestCount",
			"outputs": [
				{
					"internalType": "uint256",
					"name": "",
					"type": "uint256"
				}
			],
			"stateMutability": "view",
			"type": "function"
		},
		{
			"inputs": [
				{
					"internalType": "uint256",
					"name": "",
					"type": "uint256"
				}
			],
			"name": "requests",
			"outputs": [
				{
					"internalType": "string",
					"name": "patientName",
					"type": "string"
				},
				{
					"internalType": "bool",
					"name": "isApproved",
					"type": "bool"
				}
			],
			"stateMutability": "view",
			"type": "function"
		},
		{
			"inputs": [],
			"name": "totalRequest",
			"outputs": [
				{
					"internalType": "uint256",
					"name": "",
					"type": "uint256"
				}
			],
			"stateMutability": "view",
			"type": "function"
		},
		{
			"inputs": [
				{
					"internalType": "uint256",
					"name": "_id",
					"type": "uint256"
				},
				{
					"components": [
						{
							"internalType": "string",
							"name": "donerName",
							"type": "string"
						},
						{
							"internalType": "uint256",
							"name": "dateDonated",
							"type": "uint256"
						},
						{
							"internalType": "string",
							"name": "condition",
							"type": "string"
						},
						{
							"internalType": "string",
							"name": "donatedTo",
							"type": "string"
						},
						{
							"internalType": "bool",
							"name": "isConsented",
							"type": "bool"
						},
						{
							"internalType": "bool",
							"name": "isEvaluated",
							"type": "bool"
						},
						{
							"internalType": "bool",
							"name": "isStored",
							"type": "bool"
						},
						{
							"internalType": "bool",
							"name": "isAssigned",
							"type": "bool"
						}
					],
					"internalType": "struct TokenCreateContract.OrganId",
					"name": "_organ",
					"type": "tuple"
				}
			],
			"name": "updateOrgan",
			"outputs": [],
			"stateMutability": "nonpayable",
			"type": "function"
		}
	]
}